S01A00005553422054797065777269746572205032532E73726563CC
S11300004EC3000069C3000067C3000065C300005D
S113001063C3000061C300005FC300005DC3000050
S11300205BC3000059C300000C94233355C3000084
S113003053C3000051C300004FC300004DC3000070
S11300404BC300000C94C52447C3000045C3000003
S113005043C3000041C300003FC300003DC3000090
S11300603BC300000C9421240C944F2435C300009E
S113007033C3000031C300002FC300002DC30000B0
S11300802BC3000029C3000027C3000025C30000C0
S113009023C3000021C300001FC300001DC30000D0
S11300A01BC300000C94740B17C3000041542B4B6A
S11300B0523D41312C30312C30302C30302C30300A
S11300C02C30302C30302C30302C30302C30300070
S11300D041542B43490041542B4D440041542B437C
S11300E0500041542B494F3D30330041542B4D4D6A
S11300F03D30300041542B46543D30302C30312CAF
S113010046462C30352C30312C30323538004154B1
S11301102B50463D30302C30312C30302C30302CAC
S113012030300041542B42503D30302C30300041AF
S1130130542B55493D30310041542B4E4D3D5553C0
S11301404220547970657772697465722042540054
S1130150204B45592053454C45435445442E20508B
S11301605245535320412054595045575249544500
S113017052204B455920544F2041535349474E2E4A
S11301802E2E2000507265737320434D4420746FEB
S1130190207361766520616E6420657869742E0D24
S11301A000507265737320414C5420746F20736542
S11301B06C65637420612063686172616374657245
S11301C02E0D005072657373204354524C20746F8B
S11301D0207363726F6C6C207468726F756768202B
S11301E0636861726163746572732E0D0050726589
S11301F073732053206966206368616E676573209A
S113020073686F756C64206170706C7920746F20F2
S11302105344206D6F64652E0D0050726573732016
S113022055206966206368616E6765732073686F23
S1130230756C64206170706C7920746F2055534222
S11302402F4254206D6F64652E0D004D414E554173
S11302504C2043414C4942524154494F4E204D4F4A
S113026044452E2E2E0D0053455454494E475320D9
S11302705341564544210D000D49474E4F524520E8
S1130280454E544552204B4559205748454E20531E
S1130290504143454241522049532048454C443F34
S11302A00D000D4E4F5720534554205245454420D0
S11302B05245414354494F4E2054494D452E2E2E0C
S11302C00D000D4E4F57205345542044454C415981
S11302D0204245545745454E20444F55424C4520F5
S11302E04B455920505245535345532E2E2E0D0045
S11302F00D4E4F5720534554204B45592052454CE1
S1130300454153452054494D452E2E2E0D00505243
S1130310455353204354524C20414E4420414C54A5
S113032020544F20534554204B45592052454143B6
S113033054494F4E2054494D452E2E2E0D005052F7
S113034045535320434D44204B455920544F20439B
S11303504F4E54494E55452E2E2E0D0041444A55BC
S11303605354494E47204B45592053454E53495405
S113037049564954592E0D004E4F2048414C4C20AB
S11303804546464543542053454E534F5220444519
S11303905445435445442E20284E4F542041205068
S11303A0524F424C454D290D00484F4C4420444F78
S11303B0574E20414E59204B455920544F2043411C
S11303C04C4942524154452048414C4C20454646F4
S11303D04543542053454E534F522E2E2E0D00426A
S11303E041434B53504143450053454E440053450C
S11303F0434F4E4441525920454E54455200454EB8
S113040054455200535041434542415200515549CD
S1130410434B2043414C4942524154494F4E204D95
S11304204F44452E2E2E0D0044554D4D59204C4F12
S113043041442044454143544956415445440D00E8
S113044044554D4D59204C4F414420414354495645
S1130450415445440D00204B455920544F205553D9
S11304604520445552494E47205553422F424C553E
S113047045544F4F5448204D4F44453A00204B4576
S11304805920544F2055534520445552494E472036
S113049053442043415244204D4F44453A00455271
S11304A0524F522E2E2E5348494654204D555354E4
S11304B02042452041205245454420535749544346
S11304C0482E0D00545950452054484520464F4C61
S11304D04C4F57494E47204B4559532028505245BD
S11304E0535320535041434520544F20534B4950BC
S11304F0292E2E2E0D0043414C4942524154494E5F
S1130500472E2E2E0D005344204341524420535471
S11305104F52414745204D4F44450D00555342200D
S11305204B4559424F4152442F4341524420524576
S113053041444552204D4F44450D004C49474854D1
S1130540204D4F44452028534420434152442052D7
S113055045414445522044495341424C4544290DA8
S113056000424C5545544F4F5448204B4559424F37
S1130570415244204D4F44450D0044454641554C9D
S1130580542053455454494E473A20004649524D4D
S1130590574152452056455220352E332E302E4594
S11305A000555342205459504557524954455220FE
S11305B028544D290D0030035500530042002000FB
S11305C054007900700065007700720069007400BF
S11305D06500720020004B006500790062006F0026
S11305E061007200640000002603550053004200BD
S11305F020005400590050004500570052004900A3
S113060054004500520020004C004C004300000000
S113061004030904090239000201008007090400E7
S11306200002080650000705830240000507050480
S11306300240000509040100010301010009211120
S1130640010001223F000705810308000512011083
S11306500100000008EB03612086000102DC0105B3
S1130660010906A101050719E029E715002501750F
S11306700195088102950175088101050819012970
S113068005950575019102950175039101150025E4
S1130690FF0507190029FF950675088100C011247C
S11306A01FBECFEFDAE0DEBFCDBF13E0A0E0B1E0C4
S11306B0E6E3F3E702C005900D92AC34B107D9F735
S11306C029E0ACE4B3E001C01D92A73DB207E1F715
S11306D00E9474260C94993993CC8F982FE788E361
S11306E091E0215080409040E1F700C000008F9AD3
S11306F02FEF84E39CE0215080409040E1F700C05C
S1130700000076988FE097E20197F1F700C00000AF
S113071008950F931F93CF93811102C081E034C0D9
S11307202FEF80E792E0215080409040E1F700C035
S113073000001092130610921406109215061092DF
S1130740170603E116E0C0E00E9492249C012227D0
S1130750232B31F0EC2FF0E0ED5EF94F10820AC04C
S1130760CF3119F41092320605C0F80181938F013C
S1130770CF5FEACF809113068F3481F281E09091AC
S113078015069D3309F080E0CF911F910F910895D4
S1130790EF92FF921F93CF93DF9300D0CDB7DEB7D4
S11307A0162F89839A830E94AB248981E82E9A812B
S11307B0F92EF70181917F01882319F00E94B0245A
S11307C0F8CF8DE00E94B0248AE00E94B024812FEB
S11307D00F900F90DF91CF911F91FF90EF9099CFE1
S11307E0CF93C62FBC018CE097E00E9435366C2F66
S11307F08CE097E0CF91CCCFCF93DF93C82FD62F47
S113080060E08DE891E0C4DF8FEC97E00197F1F7A9
S113081000C00000C7FF02C0CF77D2E0C43711F494
S1130820D1E0C8E21F92CF931F92DF9386E991E053
S11308309F938F9380E091E09F938F930E948A36D9
S113084060E080E091E0A4DF8FEC97E00197F1F79E
S113085000C000008DB79EB708960FB6F8949EBFEF
S11308600FBE8DBF60E08CEA90E0DF91CF91B8CFEE
S113087034DF2FEF89E698E1215080409040E1F782
S113088000C0000081E045DF61E083E291E0A8DF81
S11308902FEF89E698E1215080409040E1F700C0B5
S11308A0000081E0809333060895CF93E1DF61E097
S11308B08FE291E095DFC82F61E088E391E090DF5B
S11308C061E083E291E08CDF61E08EE091E088DF1B
S11308D02FEF84E39CE0215080409040E1F700C07A
S11308E0000061E084EF90E07BDF61E08BEE90E05C
S11308F077DF61E082EE90E073DF61E08CED90E001
S11309006FDF8C2FCF91089561E08CED90E068CF7C
S1130910809133060895CF93DF9300D000D0CDB7F4
S1130920DEB78DE494E4ADE3B0E089839A83AB83CE
S1130930BC832FEF89E698E1215080409040E1F795
S113094000C0000060E08FE291E04ADF61E086EDE4
S113095090E046DFBE016F5F7F4F83E196E00E9427
S11309603C36BE016F5F7F4F80E090E00E943C36D2
S1130970009741F0FC018181803321F461E080ED36
S113098090E02EDF81E00F900F900F900F90DF9199
S1130990CF9108958EEB91E00E94B72740E450E098
S11309A060E070E08CE396E00E94483940E450E057
S11309B060E470E08AE899E00E94483940E450E03D
S11309C060E870E089E896E00E94483940E450E02D
S11309D060EC70E089E497E00E94483940E450E01C
S11309E060E071E08AEC96E00E94483960917E06EE
S11309F085E092E00E9436396091880686E092E0B4
S1130A000E9436396091360687E092E00E943639BA
S1130A1060910A0788E092E00E94363960914807A5
S1130A2089E092E00C943639CF93DF9310920B0750
S1130A300E94492BD82F89EA93E00E9428282FEF9F
S1130A4087EA91E6215080409040E1F700C0000021
S1130A500E94492BC82FD81307C088E793E00E944F
S1130A60282810920B0723C089EC91E00E94B72735
S1130A7081E080930B07C093860680EE91E00E948C
S1130A80B72783E690E022E07C9B20930B07EFE5F9
S1130A90FAEE3197F1F700C000000197A9F78091B1
S1130AA00B07823021F48EE092E00E94B7277E99F2
S1130AB003C081E080930B0760910B0783E092E011
S1130AC00E9436396091860684E092E00E943639AD
S1130AD081E090910B07911101C080E0DF91CF91EB
S1130AE008952FEF81EE94E0215080409040E1F78B
S1130AF000C000000E94B22990E00097D9F3089545
S1130B00CF93DF93EB01FB01423031F4E757F94F08
S1130B10808387E292E007C0443061F4E657F64FE1
S1130B2080838DE292E00E94B72762E08EE20E9409
S1130B306C2703C0E45CF94F80838C2F0E9430281B
S1130B402FEF84E39CE0215080409040E1F700C007
S1130B500000DF91CF9108951F93CF93DF938FED22
S1130B6093E00E94282860E08CE20E946C27B9DFA1
S1130B70EC010E94D028182FDD27482FBE018AE2FD
S1130B80BFDF12FD04C0C75BD84F88E0888360E0F4
S1130B9088E20E946C2780E392E00E94B72760E01D
S1130BA08CE20E946C279DDFEC010E94D028BE01DC
S1130BB07727482F89E2A4DF60E088E20E946C274F
S1130BC084E392E00E94B72760E08CE20E946C27E5
S1130BD088DFEC010E94D028182FDD27482FBE01A2
S1130BE08BE28EDF12FD09C0FE01E75BF84F89E05E
S1130BF08083C653D94F84E7888360E088E20E94EB
S1130C006C278EEF93E00E94282860E08CE20E941B
S1130C106C2767DFEC01DD27FE01E45CF94F18E285
S1130C2010838C2F0E9430282FEF84E39CE0215006
S1130C3080409040E1F700C00000C75BD84F8DE0D2
S1130C40888360E088E20E946C278EEE93E00E9425
S1130C50282860E08CE20E946C2784E790E041DF62
S1130C609927FC01E45CF94F10830E9430282FEF90
S1130C7084E39CE0215080409040E1F700C00000F4
S1130C8060E088E20E946C2789EE93E00E942828A5
S1130C9060E08CE20E946C2724DF9927FC01E45C6D
S1130CA0F94F94E790830E9430282FEF84E39CE06F
S1130CB0215080409040E1F700C0000060E088E2ED
S1130CC00E946C2784E094E00E94282860E08CE273
S1130CD00E946C2706DFEC01DD27FE01E45CF94F7E
S1130CE08CE280838C2F0E9430282FEF84E39CE0D9
S1130CF0215080409040E1F700C00000C75BD84F0E
S1130D0080E2888360E088E2DF91CF911F910C94A8
S1130D106C278091CE098430E1F72FEF89E698E1C2
S1130D20215080409040E1F700C000008DE094E045
S1130D300E94282899B181E0929591709827909308
S1130D40880699B196FB992790F9982790933606CF
S1130D5099B19095991F9927991F90930A0793B178
S1130D60929591708927809348075EDE84EC94E025
S1130D700E94282887E292E00E94B72710927E06FC
S1130D8060E08CE20E946C27ACDE9FEF980F9830F5
S1130D9028F480937E060E94302804C08EE994E0F3
S1130DA00E94282860E088E20E946C27D5DEF2DDEC
S1130DB087E692E00C942828423021F4FB01E653A4
S1130DC0F94F05C042FD04C0FB01E75BF84F808387
S1130DD008950F931F93CF938091CE098430E1F748
S1130DE02FEF89E698E1215080409040E1F700C060
S1130DF000008BE492E00E9428288AE192E00E949D
S1130E0028288DEE91E00E94282883EC91E00E942E
S1130E10282881EA91E00E94282884E891E00E9431
S1130E20282881E20E94762860E088E20E946C27EC
S1130E30C1E27E9B49C07C9918C081E08C0FCE57DB
S1130E40CD3310F0C82F01C0CCEB8C2F0E94762834
S1130E5060E088E20E946C272FEF84E39CE021503D
S1130E6080409040E1F700C000007D99E2CF80E52A
S1130E7091E00E94282835DE8C010E94D028B80118
S1130E807727482F8C2F98DF802F0E94302860E02E
S1130E9088E20E946C2781E08C0FCE57CD3310F08E
S1130EA0C82F01C0CCEB8C2F0E94762860E088E22A
S1130EB00E946C272FEF84E39CE0215080409040F7
S1130EC0E1F700C00000B5CF65DD87E692E0CF9181
S1130ED01F910F910C9428286F927F928F929F926A
S1130EE0AF92BF92CF92DF92EF92FF920F931F9334
S1130EF0CF93DF930E94B12B8091CE098430E1F728
S1130F002FEF89E698E1215080409040E1F700C03E
S1130F10000081EA95E00E9428288CE895E00E9470
S1130F20282860E088E20E946C278DE092E00E940D
S1130F302939C82F8AE795E00E942828C23091F009
S1130F4028F4C13091F48CE195E009C0C93029F04E
S1130F50CD3059F48BE395E002C081E695E00E9420
S1130F60282807C086E095E0FACF88E392E00E9443
S1130F70B72786EF94E00E94282889B1C1E08295C2
S1130F8081708C278093880689B186FB882780F935
S1130F908C278093360689B18095881F8827881FFF
S1130FA080930A0783B1829581708C2780934807C8
S1130FB03BDD7D9915C080913706882329F0109276
S1130FC0370688E294E004C0C093370680E494E0D6
S1130FD00E942828609137068FE092E00E943639FB
S1130FE084EC94E00E942828C4E0AEE1FA2E62E08A
S1130FF08C2F0E946C2760E08CE20E946C2771DDCC
S11310008C010E94D028D82F1127482F4D7FB8017A
S11310108C2F76DDCF3021F4F801E657F64FF082BD
S1131020D2FD0CC0F801E653F94F8DE38C0F808399
S1131030F801E75BF84F8DE58C0F808360E088E270
S11310400E946C27CF5FCE3191F6F8E6EF2EF2E0E6
S1131050FF2E00E010E0F701C1907F0160E08C2DCD
S11310600E946C2760E08CE20E946C273ADDEC0160
S11310700E94D028D82EDD27482F4D7FBE018C2D0D
S11310803FDDD2FC15C0FE01E75BF84FD801A25A40
S1131090BD4F8C918083FE01E653F94FD801AC5AC1
S11310A0BD4F8C918083C657D64F8AE3800F8883C7
S11310B060E088E20E946C270F5F1F4F0A30110521
S11310C051F680E492E00E94B72760E08CE20E942F
S11310D06C2707DDEC010E94D028BE017727482F3A
S11310E08AE30EDD60E088E20E946C2783E492E0EC
S11310F00E94B72760E08CE20E946C27F2DCEC01CE
S11311000E94D028BE017727482F84E4F9DC60E0F0
S113111088E20E946C2787E492E00E94B72760E08F
S11311208CE20E946C27DDDCEC010E94D028BE0119
S11311307727482F85E4E4DC60E088E20E946C278E
S113114087E292E00E94B72760E08CE20E946C275D
S1131150C8DC9FEF980F983028F480937E060E9495
S1131160302804C08EE994E00E942828FFEF24E38D
S11311708CE0F15020408040E1F700C0000060E0C6
S113118088E20E946C271DE20EE28FE3F82E9FE2B4
S1131190D92E2AE2C22E30E6B32E4EE7A42E5DE30A
S11311A0952E6BE2862E7BE3772EEAE36E2E1233C6
S11311B009F45BC060E0812F0E946C2760E08CE240
S11311C00E946C278EDCEC010E94D028E82EDD27DB
S11311D0482FBE01812F94DCE2FC43C0133341F459
S11311E0FE01E75BF84F7082C653D94F688239C05D
S11311F01E3241F4FE01E75BF84F9082C653D94F8B
S113120088822FC0153341F4FE01E75BF84FB082AA
S1131210C653D94FA88225C01D3241F4FE01E75BB5
S1131220F84F1083C653D94FC8821BC0183329F412
S1131230FE01E75BF84FD08207C0163349F4FE0184
S1131240E75BF84F8CE28083C653D94FF88209C01C
S1131250173339F4FE01E75BF84F0083C653D94FC7
S1131260088360E088E20E946C271F5F193309F04D
S11312709ECF62E08FE10E946C278DE794E00E948C
S1131280282860E08CE20E946C272BDCC82F0E9487
S1131290D028823041F487E292E00E94B72762E0CE
S11312A08EE20E946C278C2F0E94302860E088E236
S11312B00E946C279FEFE4E3FCE09150E040F04093
S11312C0E1F700C0000062E08FE10E946C2786E530
S11312D094E00E94282805DCEC010E94D028BE017D
S11312E07727482F8FE90CDC60E088E20E946C27A6
S11312F062E088E30E946C278DE794E00E9428282E
S113130060E08CE20E946C27ECDBEC010E94D028A8
S1131310182FBE017727482F8FE34EDD123041F49A
S113132087E292E00E94B72762E08EE20E946C2777
S11313308C2F0E94302860E088E20E946C272FEFF7
S113134084E39CE0215080409040E1F700C000001D
S113135062E088E30E946C2786E594E00E942828D6
S1131360C0DBEC010E94D028BE017727482F88EB10
S1131370C7DB60E088E20E946C2762E08EE90E948D
S11313806C2760E08CE20E946C27ABDBEC010E94CE
S1131390D028182FDD27482FBE018EE9B1DB412F5D
S11313A0BE0181E209DD60E088E20E946C27D4DBA3
S11313B0F1DA87E692E0DF91CF911F910F91FF90D0
S11313C0EF90DF90CF90BF90AF909F908F907F90E1
S11313D06F900C942828CF9381E092E00E942939E1
S11313E08093C90682E092E00E94293980933A06EC
S11313F080E092E00E94293980937D068091CE0995
S11314008430E1F72FEF89E698E121508040904045
S1131410E1F700C000008CE593E00E9428288EE3E9
S113142093E00E9428287E99FECF8EE093E00E94EC
S113143028288091C9060E94302860E088E20E9432
S11314406C277E9B15C07C990BC08091C9068F5F69
S11314508093C9060E94302860E088E20E946C27CD
S11314607D99EFCF8091C90681508093C906E3CF5F
S113147080EF92E00E94282880913A060E9430284A
S113148060E088E20E946C277E9B15C07C990BC0AB
S113149080913A068F5F80933A060E94302860E07C
S11314A088E20E946C277D99EFCF80913A068150A3
S11314B080933A06E3CF82EC92E00E942828809140
S11314C07D060E94302860E088E20E946C277E9BA3
S11314D015C07C990BC080917D068F5F80937D063B
S11314E00E94302860E088E20E946C277D99EFCF4B
S11314F080917D06815080937D06E3CF82EA92E05D
S11315000E94282880917C060E94302860E088E2AE
S11315100E946C277E9B15C07C990BC080917C0631
S11315208F5F80937C060E94302860E088E20E94EE
S11315306C277D99EFCF80917C06815080937C0647
S1131540E3CF88E792E00E94282880913806882318
S113155019F08BE492E002C08FE492E00E94B72776
S1131560C1E07E9B15C07C9906C0109238068FE4BA
S113157092E00E94B7277D9906C0C09338068BE499
S113158092E00E94B7277C9BFECF7D9BFCCFE9CFE6
S113159060917D0680E092E00E94363960913A06BF
S11315A082E092E00E9436396091C90681E092E0BF
S11315B00E94363960917C068CE092E00E943639B4
S11315C0609138068EE092E00E94363987E692E018
S11315D0CF910C942828E4E6F0E08081877F808313
S11315E08AE08093810087E28093890080E1809380
S11315F08800EFE6F0E0808182608083089520987F
S1131600289A54985C9A56985E9A57985F9A2498A8
S11316102C9A2B9A23982B9A2A9A22982A9A6A9A75
S113162025982D9A299A2198299A599A519A559828
S11316305B9A539A52985A9A84988C9A85988D9A60
S113164086988E9A8F98879A479A3F9A8198899A12
S1131650769A6E9A469A3E9A2E9A269A0895F89405
S11316609FEF9093D1001092BF0090E29093CF002F
S11316709091C400613051F49E7F9093C400909186
S1131680C0009F7B9093C000469808C091609093DF
S1131690C4009091C00090649093C0009091C000E9
S11316A092609093C0009091720094609093720045
S11316B0813069F030F0823041F0833041F486E0CB
S11316C009C089E08093C10002C087E003C0809113
S11316D0C10088608093C100109235061092BF004B
S11316E01092BE00789408951F920F920FB60F9235
S11316F011248F939F938091CF0090913506992365
S113170019F0923039F00AC08F3F31F491E0909390
S1131710350610C08F3F71F08F5F0CC0811109C076
S11317209091C0009F7B9093C0001092C100469A94
S113173001C081508093CF009F918F910F900FBE75
S11317400F901F901895292F332723303105E1F08E
S11317505CF42130310599F02230310579F589E3C3
S113176090E024E136E02EC02132310511F122321D
S1131770310521F58FE390E02FE536E023C082E1C7
S113178090E02DE436E01EC099278130910541F0A8
S11317908230910541F0892B89F4E0E1F6E005C03F
S11317A0E8EEF5E002C0E6EBF5E0849190E09F01FD
S11317B009C089E090E02DE336E004C080E090E0C9
S11317C020E030E0FA01318320830895CF9342E191
S11317D064E271E083E593E00E94411C83E593E0B9
S11317E00E94FD1E83E593E00E94401F42E164E2F3
S11317F071E083E593E00E94411CC82F40915D0392
S113180050915E0360915F037091600383E593E000
S11318100E94501F8C2FCF91089583E593E00E947E
S1131820FD1E83E593E00C94401F41E066E872E0FE
S113183083E793E00E94F91B91E0811101C090E0DD
S1131840892F089580914F0390915003A0915103E3
S1131850B0915203892B8A2B8B2BD9F4A091750359
S113186040918503509186036091870370918803AA
S11318709A01AB012250310941095109B0E00E949B
S11318809C3560934F03709350038093510390935E
S1131890520360914F0370915003809151039091D2
S11318A0520308951F93CF93DF9300D0CDB7DEB7D3
S11318B0EAE8F7E001900020E9F73197EA58F740A9
S11318C0FA83E98340915D0350915E0360915F0365
S11318D07091600383E593E00E94501F49815A810F
S11318E09E012F5F3F4F6AE877E083E593E00E9413
S11318F06B1D182F10928A0783E593E00E94FD1E4A
S113190081E0111101C080E00F900F90DF91CF9121
S11319101F9108958ADF882321F08AE08093890744
S1131920089562E772E084E291E00E945C364EDF43
S11319306BE772E08AE897E00E945C36B3DF6DDF04
S11319402FEF80E792E0215080409040E1F700C003
S11319500000EDCFEAE8F7E001900020E9F73197C5
S11319609F012A583740263F91E0390708F041C0CB
S11319708D3081F590914E03F901E657F84FA90196
S11319804F5F5F4F9D3021F090E29083FA011FC0BA
S1131990D901A757B84F9C91B9016E5F7F4F903220
S11319A079F48C939AE09083FA01E657F84F808398
S11319B0FB01E657F84F9083F901E357F84F16C03F
S11319C08083FA01E657F84F9AE09083FB01E657CB
S11319D0F84F0CC0F901883019F4E757F84F06C0E6
S11319E0E657F84F8083F901E557F84F108280934A
S11319F04E030895CF92DF92EF92FF920F931F93BD
S1131A00CF93DF93CDB7DEB766970FB6F894DEBFFA
S1131A100FBECDBF10928A0708DF81113FC061E07D
S1131A2080E01DDE8AE092E00E9431398C01803131
S1131A30974210F000E010E087E8C82E82E0D82E2C
S1131A4094E2E92E91E0F92E0F5F1F4F1F930F933D
S1131A50DF92CF92FF92EF920E948A36BE016F5FAF
S1131A607F4F84E291E00E94DF200F900F900F904F
S1131A700F900F900F90882339F3843079F40E94EB
S1131A80DA29F82E0E94D028682F8F2D0E94362B39
S1131A908823A9F35FDF9ADE882321F08AE080930C
S1131AA0890762C0B8018AE092E00E945F3910920F
S1131AB0820610928106809181069091820680327E
S1131AC09F4B08F04CC00E94DA29182F0E94D0289E
S1131AD0682F812F0E94362B182F882301F183371A
S1131AE021F480918306811110E010928306812FE6
S1131AF031DF10928206109281061D3061F0812F31
S1131B008D7F8C3241F08FED810F823020F01F33B6
S1131B1011F01A3321F460E082E0A1DDC3DE8FEC22
S1131B2097E00197F1F700C0000080918106909141
S1131B308206893B9B4008F4BECF80918A078823A4
S1131B4009F4B9CF46988FEF9DE329E48150904082
S1131B502040E1F700C00000A5DE469AACCF60E06B
S1131B6082E07DDD9FDE59DE66960FB6F894DEBF17
S1131B700FBECDBFDF91CF911F910F91FF90EF90DA
S1131B80DF90CF90089523B123B10197E1F7089531
S1131B90FC01680F791F919197FF02C02A9A01C036
S1131BA02A98299A299896FF02C02A9A01C02A984D
S1131BB0299A299895FF02C02A9A01C02A98299A3D
S1131BC0299894FF02C02A9A01C02A98299A299830
S1131BD093FF02C02A9A01C02A98299A299892FF51
S1131BE002C02A9A01C02A98299A299891FF02C012
S1131BF02A9A01C02A98299A299890FF02C02A9A01
S1131C0001C02A98299A2998E617F70721F608951A
S1131C102A9AFC01680F791F93B1299A299893FB9A
S1131C20992790F9990F1B999F5F299A2998990FE1
S1131C301B999F5F299A2998990F1B999F5F299A4D
S1131C402998990F1B999F5F299A2998990F1B9995
S1131C509F5F299A2998990F1B999F5F299A299820
S1131C60990F1B999F5F299A29989193E617F70773
S1131C7099F608950F931F93CF93DF931F92CDB7D7
S1131C80DEB708E813E161E070E0CE010196C0DF41
S1131C9089818F3F31F084E690E075DF01501109AE
S1131CA091F781E090E0012B11F480E090E00F9037
S1131CB0DF91CF911F910F910895CF93DF931F92DE
S1131CC0CDB7DEB7599A61E070E0CE010196A0DF8E
S1131CD00F90DF91CF910895CF93DF9300D01F929F
S1131CE0CDB7DEB7599861E070E0CE01019690DF80
S1131CF0C1DF009731F48A839B83DFDF8A819B8174
S1131D0002C081E090E00F900F900F90DF91CF918F
S1131D100895CF92DF92EF92FF920F931F93CF9388
S1131D20DF9300D0CDB7DEB77C016B0108EE13E082
S1131D3061E070E0CE0101966BDF89818F3F71F025
S1131D4089818E3F91F4B601C70162DF62E070E0E1
S1131D50CE0101965DDF81E090E009C084E690E069
S1131D6012DF0150110921F7EBCF80E090E00F90D2
S1131D700F90DF91CF911F910F91FF90EF90DF9023
S1131D80CF900895DF92EF92FF920F931F93CF931A
S1131D90DF93CDB7DEB727970FB6F894DEBF0FBE3B
S1131DA0CDBF182F042FF52EE62ED72E87FF08C09F
S1131DB040E050E0BA0187E3E5DF823090F51F7719
S1131DC01C3051F4812F80648983DA82EB82FC8297
S1131DD00D83112359F006C070DF7EDF892B91F744
S1131DE08FEF1FC0183021F081E003C085E901C0E6
S1131DF087E88E8366E070E0CE010196C9DE1C3070
S1131E0029F461E070E0CE01079602DF1AE061E098
S1131E1070E0CE010796FCDE8F8187FF02C011506F
S1131E20B1F727960FB6F894DEBF0FBECDBFDF9192
S1131E30CF911F910F91FF90EF90DF900895EF9253
S1131E40FF921F93CF93DF9300D0CDB7DEB77C0111
S1131E50162F10DF009711F1198361E070E0CE01B5
S1131E60019696DE1D3FC1F060E072E0C70190DE8E
S1131E7062E070E0CE010196CBDE61E070E0CE015D
S1131E800196C6DE89818F7131E020E0853009F04A
S1131E9030E0832F922F02C081E090E00F900F90EA
S1131EA0DF91CF911F91FF90EF900895811103C0AE
S1131EB080913101089581E00895EF92FF920F938C
S1131EC01F93CF93DF9300D000D0CDB7DEB781113D
S1131ED05FC080E197E257DE519A599A2998219A76
S1131EE02998229A2B9A1AE061E070E0CE010196BB
S1131EF08FDE1150C9F740E050E0BA0180E042DFC4
S1131F00813009F06BC04AEA51E060E070E088E09B
S1131F1039DF8130F1F464E070E0CE01019678DEBF
S1131F208B81813009F05AC08C818A3A09F056C0FD
S1131F3008EE13E040E050E060E070E489EA22DF5C
S1131F40882341F188EE93E01EDE0150110991F7D8
S1131F5045C040E050E0BA0189EA14DF823018F04D
S1131F6001E011E002C009EA12E088EEE82E83E005
S1131F70F82E40E050E0BA01802F04DF882331F1CD
S1131F8088EE93E000DE81E0E81AF10891F726C0BC
S1131F9083E026C040E050E0BA018AE3F3DE811119
S1131FA01DC064E070E0CE01019632DE898186FDB9
S1131FB002C014E001C01CE01093A10501E011115E
S1131FC000E00093310179DE802F0AC040E052E046
S1131FD060E070E080E1D6DE882371F310E0ECCF9E
S1131FE00F900F900F900F90DF91CF911F910F9151
S1131FF0FF90EF900895EF92FF920F931F93CF936A
S11320007B01BA01A901811103C08091310101C092
S113201081E080FD2DC08091A10583FD07C089E08A
S1132020440F551F661F771F8A95D1F7023011059B
S113203010F4C1E101C0C2E18C2FA4DE811112C0F1
S113204060E072E0C70165DE892B29F08EEFF81A93
S113205001501109A9F7C23129F440E050E0BA0156
S11320608CE090DE2ADE81E0012B19F480E001C0CF
S113207083E0CF911F910F91FF90EF900895CF923D
S1132080DF92EF92FF920F931F93CF93DF93EB01B5
S113209069017A01811103C08091310101C081E09D
S11320A080FD43C08091A10583FD07C099E0CC0C5D
S11320B0DD1CEE1CFF1C9A95D1F70130110589F443
S11320C0B701A60188E15EDE811129C06EEFCE0161
S11320D0B6DE31E020E0892B09F030E0032F122F27
S11320E01EC0867029F0A80160E070E087E94ADE2E
S11320F0B701A60189E146DE811111C06CEFCE0162
S11321009EDE892B21F0DE5F01501109B9F76DEFD6
S113211080E090E094DE892B11F401E010E0CDDD45
S113212081E0012B19F480E001C083E0DF91CF91BD
S11321301F910F91FF90EF90DF90CF9008950F9330
S11321401F93CF93DF93CDB7DEB760970FB6F894A4
S1132150DEBF0FBECDBF811103C08091310101C02C
S113216081E080FD7CC08A01613079F040F0633009
S113217009F071C080E890E0A0E0B0E065C0ACDD9B
S113218011E0892B09F468C064C040E050E0BA0152
S113219089E0F8DD882311F011E05EC060E170E0B1
S11321A0CE010196B6DD892BB9F399819295969566
S11321B096959370888549852A859130E1F48F73CB
S11321C090E0A0E0B0E0DC01992788270196A11DEA
S11321D0B11D50E0542F4427BA01620F711D860FC0
S11321E0971FA11DB11D7AE0880F991FAA1FBB1F5D
S11321F07A95D1F729C04295469546954370F4E007
S11322008F9FC0011124840F911D01964F8143704B
S113221050E0542F4427550F550F840F951FA0E00D
S1132220B0E03E81432F4F703B85331F3327331F6C
S1132230340F2370220F230F275004C0880F991FD7
S1132240AA1FBB1F2A95D2F7F80180839183A2832A
S1132250B38310E001C014E030DD812F01C083E0BE
S113226060960FB6F894DEBF0FBECDBFDF91CF915D
S11322701F910F910895CF93DF93EB01DC01FA01D5
S1132280E230F10530F0299139912D933D93329745
S1132290F7CF9A012E7FDC01A20FB31FFB01E20FDF
S11322A0F31F40FF02C020812C93DF91CF9108954A
S11322B00F931F93CF93DF938B01FB013996DC01BE
S11322C01E964D915D916D917C915197452B462BB6
S11322D0472BA9F15296CD91DC915397AE0180E042
S11322E090E03EE20196DA012D91AD01203251F0E9
S11322F0253009F425EE8930910511F430833196A7
S1132300208331968B30910569F78B85D801189617
S11323108C9318974C8D5D8D6E8D7F8D4D935D9351
S11323206D937C931397888D998D15969C938E93BA
S113233014978E899F8917969C938E931697108273
S1132340DF91CF911F910F910895FC01208131817C
S113235021153105B1F0F901BF014191413270F00D
S11323604A33D1F7F90141916E177F0751F4403395
S113237041F42E5F3F4FFC013183208380E090E0E5
S113238008958FEF9FEF08950097C1F0DC01ED9160
S1132390FC911197309791F02081222379F02681C6
S11323A0378112968D919C9113972817390731F430
S11323B081817CDD80FD04C080E0089589E008957A
S11323C083E008958F929F92AF92BF92CF92DF9253
S11323D0EF92FF920F931F93CF93DF93FC0124811D
S11323E0211102C080E040C0EC01C2A4D3A4E4A443
S11323F0F5A45C01FEE2AF0EB11C01E010E0A70100
S11324009601B50189813BDE81112DC01C828E8D20
S11324109F8DA8A1B9A1B701A601481B590B6A0B4E
S11324207B0B8E899F89A88DB98D481759076A0738
S11324307B07C0F68B80912CE2E08E16910490F21B
S11324408E899F89A88DB98DC80ED91EEA1EFB1EE0
S113245001E010E0A7019601B501898110DE81E059
S1132460881A9108E9CF81E0DF91CF911F910F91F4
S1132470FF90EF90DF90CF90BF90AF909F908F90A0
S113248008950F931F93CF93DF93EC019BDF982F55
S113249081115AC08881833009F04DC08D8181300B
S11324A009F049C0BE01625D7F4FFB01CE01825D30
S11324B09D4FE817F90711F01192FBCF85E59AEAD1
S11324C0FE01E45DFD4F9183808382E592E5A1E600
S11324D0B1E48EA79FA7A8ABB9AB82E792E7A1E4CA
S11324E0B1E67A9780839183A283B3838E859F8597
S11324F0A889B989349680839183A283B3838A851A
S11325009B85AC85BD85349680839183A283B383F8
S11325108A8D9B8DAC8DBD8D9C01AD012F5F3F4F8E
S11325204F4F5F4F2AA73BA74CA75DA701E010E0E0
S11325308981A5DD1D8240E050E060E08981FFDDF6
S113254091E0811101C090E0892FDF91CF911F911B
S11325500F9108958F929F92AF92BF92FF920F9323
S11325601F93CF93DF93EC014A015B018AA59BA5DE
S1132570ACA5BDA5481759076A077B07D9F0CE015A
S113258021DFF82E811117C001E010E0A5019401AC
S1132590BE01625D7F4F89812EDD882331F0FF24E7
S11325A0F39488248A94982C54018AA69BA6ACA6FA
S11325B0BDA601C0F12C8F2DDF91CF911F910F91FA
S11325C0FF90BF90AF909F908F900895CF93DF932B
S11325D0EC011C828FEF9FEFDC018AA79BA7ACA7BD
S11325E0BDA7CE01B7DF811122C0FE01E45DFD4F1E
S11325F08081918185359A4AE1F4E85CF1408081DB
S11326009181A281B381BB2786349144A445B1054D
S113261091F0C058DF4F488159816A817B817727C7
S113262081E0463451446445710531F404C083E0CB
S113263003C082E001C080E0DF91CF9108952F9222
S11326403F924F925F926F927F928F929F92AF923E
S1132650BF92CF92DF92EF92FF920F931F93CF938B
S1132660DF93CDB7DEB76D970FB6F894DEBF0FBE1C
S1132670CDBF5C01CB01D42ED5011D921C9265DE29
S11326807C0197FD18C2FC01EE0FFF1FEC55FA4FB9
S1132690008111810115110509F40FC2F50111839F
S11326A00083D8018C91882361F011968C91FEDB14
S11326B080FD07C0DD2009F402C282FF00C28AE067
S11326C003C2F8011082E1828E2DF7DB80FDF9C18F
S11326D0DD2011F082FDF3CF40E050E0BA01C801E3
S11326E075DF8130C9F5F801E051FE4F9E012F5F7F
S11326F03F4F6901C801805D9D4FD901208122238C
S113270029F0448155816681778103C040E050E01F
S1132710BA014D935D936D937D937096E817F90715
S113272069F77E0131E1E30EF11CD6014D905D9015
S11327306D907D906D01411451046104710439F070
S1132740B301A201C80142DF811102C00FC082E0BF
S1132750CE14DF0451F703C0412C512C32018330D5
S113276009F4B1C1882311F08DE0AEC1F80181AD47
S113277092AD81159240C1F7F801EC5BFF4F808068
S11327809180A12CB12C81149104A104B10429F4E9
S11327903E9680809180A280B380D80156968D9217
S11327A09D92AD92BC925997DE964C91DE9713960A
S11327B04C9313978FEF840F8230B0F6DB96EC9135
S11327C0DB97E98B1296EC931297EE2369F28E2F26
S11327D090E09C012150310982239323892B21F617
S11327E0F801FF962080318019963C922E9218971A
S11327F0C1018F709927892B09F0B6CF3296C0801A
S1132800D180E12CF12CC114D104E104F10429F4A8
S11328103D96C080D180E280F380D801DC96ED91B2
S1132820FC91DD97309709F49FCFA42FB0E0A50168
S113283094010E949C356E8B7F8B888F998F9F01AA
S113284040E050E02A8F3B8F4C8F5D8FC10164E0E4
S1132850969587956A95E1F7280F391F411D511DFB
S1132860DA01C9012E893F89488D598D280F391FF6
S11328704A1F5B1F2A8B3B8B4C8B5D8BC216D30686
S1132880E406F50608F470CFC701B601621B730BAA
S1132890840B950BE9892E2F30E040E050E00E9434
S11328A07A35211531054105510509F45DCF263FDF
S11328B0FFE03F074105510548F0263F8FEF3807F9
S11328C04105510530F492E0998B05C0A1E0A98B34
S11328D002C0B3E0B98B69017A01E2E0CE0ED11CEB
S11328E0E11CF11CD8015296CD92DD92ED92FC923E
S11328F05597F801428E538E648E758E8A8D9B8D0A
S1132900AC8DBD8D840D951DA61DB71D868F978F2B
S1132910A0A3B1A34A895B896C897D89440D551DA7
S1132920661D771D46A357A360A771A7F989F330E5
S1132930B9F4232809F018CFF801E65AFF4F808133
S11329409181A281B381F80182A393A3A4A3B5A327
S113295042E0CC0CDD1CEE1CFF1C4A95D1F72DC0C7
S1132960232809F401CF2E893F89488D598D820F80
S1132970931FA41FB51FF80182A393A3A4A3B5A317
S1132980F989F23029F4CC0CDD1CEE1CFF1C15C0B7
S1132990A3E0B0E0A70196010E949C35DC01CB01C5
S11329A0B695A7959795879521E0C222DD24EE245C
S11329B0FF24C80ED91EEA1EFB1E3FEFC30E31E0F2
S11329C0D31EE11CF11C89E0F694E794D794C794D4
S11329D08A95D1F78C149D04AE04BF0408F4C4CEC8
S11329E08FEF9FEFDC01F80186879787A08BB18B6F
S11329F082879387A487B58780E88583F989F33034
S1132A0009F048C0F801E25AFF4F80819181019793
S1132A1009F040C0B301A2014F5F5F4F6F4F7F4F7A
S1132A20C80198DD811136C0D80115961C92F801B1
S1132A30E45DFD4F8081918185359A4A59F5F8010D
S1132A4086A597A5A0A9B1A982359245A146B1440E
S1132A5009F5F801EE5EFD4F80819181A281B38179
S1132A6082379247A144B146A9F43496808191817A
S1132A70A281B381F80186879787A08BB18BE65E2C
S1132A80FD4F80819181A281B381F8018287938770
S1132A90A487B587E989D801EC938091A205909128
S1132AA0A30501969093A3058093A20517969C9382
S1132AB08E93169704C08BE007C08CE005C080E0BD
S1132AC003C083E001C081E06D960FB6F894DEBFC9
S1132AD00FBECDBFDF91CF911F910F91FF90EF906B
S1132AE0DF90CF90BF90AF909F908F907F906F902A
S1132AF05F904F903F902F9008950F931F93FC0188
S1132B009A01AB0122503109410951098289938903
S1132B10A489B5890297A109B109281739074A0779
S1132B205B0768F4A281B0E00E949C3506A117A15E
S1132B3020A531A5600F711F821F931F03C060E0A1
S1132B4070E0CB011F910F910895AF92BF92CF9285
S1132B50DF92EF92FF920F931F93CF93DF938C0139
S1132B606A017B01423051056105710508F4A9C071
S1132B70F80182899389A489B589481759076A0796
S1132B807B0708F09EC08081823009F44BC08330FB
S1132B9009F46BC0813009F094C0EA01D695C79559
S1132BA0CC0DDD1DCE01892F99278695468D578D35
S1132BB060A171A1480F591F611D711DC801CADCB4
S1132BC0882321F06FEF7FEFCB017FC05E01FFEF21
S1132BD0AF1ABF0AD170C00FD11FCEA5C501892F6E
S1132BE099278695F801468D578D60A171A1480FEC
S1132BF0591F611D711DC801ADDC8111E3CFF1E0E6
S1132C00BF22F801EA0DFB1D86A56C2F70E0782B1E
S1132C10C0FE06C054E0769567955A95E1F722C048
S1132C207F7020C077276F2D5E2D4D2DF801868D86
S1132C30978DA0A1B1A1480F591F6A1F7B1FC8011E
S1132C4089DC8111BFCFCC0CDD1CEE1CFF1CE89489
S1132C50C0F8F1E0DF22EE24FF24F801EC0DFD1DA5
S1132C6066A577A580E090E030C0F801868D978D49
S1132C70A0A1B1A127E076956795579547952A9528
S1132C80D1F7480F591F6A1F7B1FC80163DC8111EC
S1132C9099CF82E0CC0CDD1CEE1CFF1C8A95D1F789
S1132CA0FCEFCF22F1E0DF22EE24FF24F801EC0D4B
S1132CB0FD1D86A597A5A0A9B1A9BC01CD019F7052
S1132CC004C061E070E080E090E0DF91CF911F915B
S1132CD00F91FF90EF90DF90CF90BF90AF90089549
S1132CE0AF92BF92CF92DF92EF92FF920F931F9316
S1132CF0CF93DF938C01EB01DC0115967C936E93EB
S1132D0014971696CD90DD90ED90FC901997B1E054
S1132D10CB16D104E104F10411F482E087C0DC0194
S1132D20ED91FC9182899389A489B589C816D90645
S1132D30EA06FB0690F7C114D104E104F104B9F4E6
S1132D408081833041F482A193A1A4A1B5A100970D
S1132D50A105B10551F480859185C817D907E8F616
S1132D6062A173A184A195A132C06C017D01A280EE
S1132D70B0E1AB9E50011124B701A601F801808196
S1132D809181CA15DB0500F1E0DEAB01BC014F3FC8
S1132D90EFEF5E076E077E0709F447C04230510526
S1132DA06105710508F4B9CFD801ED91FC918289D0
S1132DB09389A489B589481759076A077B0708F0DE
S1132DC0ACCFCA19DB09DACF6A017B0196DED801E0
S1132DD01A96CD92DD92ED92FC921D9761157105C4
S1132DE08105910509F499CF9E0144E03695279514
S1132DF04A95E1F7DC01CB01820F931FA11DB11DA0
S1132E00F80186879787A08BB18BCF70DD2755E0BB
S1132E10CC0FDD1F5A95E1F7AE9680819181C80FE2
S1132E20D91FD38BC28B80E001C081E0DF91CF91A9
S1132E301F910F91FF90EF90DF90CF90BF90AF90D4
S1132E4008952F923F924F925F926F927F928F924A
S1132E509F92AF92BF92CF92DF92EF92FF920F9325
S1132E601F93CF93DF9300D000D0CDB7DEB71C0102
S1132E706A017B0128013901423051056105710560
S1132E8008F4E0C0FC0182899389A489B5894817B4
S1132E9059076A077B0708F0D5C08081823009F49E
S1132EA071C0833009F492C0813009F0CBC05A015B
S1132EB0B694A794A40EB51EC501892F99278695AB
S1132EC0468D578D60A171A1480F591F611D711D59
S1132ED0C10140DB8111B7C04501FFEF8F1A9F0A82
S1132EE021E0B222A20CB31CA70196012170332762
S1132EF04427552729833A834B835C83C0FE0BC048
S1132F00D5019E968C91282F2F70B0E14B9EC00165
S1132F101124822B01C0842DF50186A781E0D10103
S1132F2014968C9314975E964D915D916D917C915E
S1132F309197C401892F99278695480F591F611DC0
S1132F40711DC10107DB81117EC0B1E09B22F1013B
S1132F50E80DF91D29813A814B815C81232B242BB7
S1132F60252B41F054E076946794579447945A95EE
S1132F70D1F706C026A5207F952D9F70422E492AA1
S1132F8046A65BC077276F2D5E2D4D2DF101868DF2
S1132F90978DA0A1B1A1480F591F6A1F7B1FC101C2
S1132FA0D9DA811150C0CC0CDD1CEE1CFF1CE89456
S1132FB0C0F8F1E0DF22EE24FF242EE2C20ED11C81
S1132FC0F101EC0DFD1D5182408237C0F101868D67
S1132FD0978DA0A1B1A127E0769567955795479560
S1132FE02A95D1F7480F591F6A1F7B1FC101B2DA16
S1132FF0811129C092E0CC0CDD1CEE1CFF1C9A95BB
S1133000D1F7FCEFCF22F1E0DF22EE24FF242EE201
S1133010C20ED11CF101EC0DFD1D40815181628174
S11330207381442755276627707F442A552A662AC8
S1133030772A408251826282738291E0D101149690
S11330409C9301C082E00F900F900F900F90DF913E
S1133050CF911F910F91FF90EF90DF90CF90BF9091
S1133060AF909F908F907F906F905F904F903F9024
S11330702F9008954F925F926F927F928F929F92BA
S1133080AF92BF92CF92DF92EF92FF920F931F9372
S1133090CF93DF93EC012A013B01411551056105F2
S11330A0710599F48A849B84AC84BD848114910451
S11330B0A104B10459F18A899B89AC89BD89881618
S11330C09906AA06BB0630F121C03FDD6B017C01E5
S11330D0623071058105910508F48AC08FEFC81626
S11330E0D806E806F80629F46FEF7FEF8FEF9FEF1D
S11330F086C08A899B89AC89BD89C816D906EA0627
S1133100FB0608F47AC05301420104C0812C912CBF
S113311054018394750164012FEFC21AD20AE20AA2
S1133120F20A8A899B89AC89BD89C816D906EA0640
S1133130FB0668F082E088169104A104B10410F43F
S113314060E057C082E0C82ED12CE12CF12CB701ED
S1133150A601CE01FADC8B019C01672B682B692B3D
S1133160A1F00F3F8FEF18072807380729F0013027
S113317011052105310519F4B801C90140C0C8146D
S1133180D904EA04FB0441F6DBCF0FEF1FEF2FEF66
S11331903FE0B701A601CE0154DE811126C04114DF
S11331A0510461047104C9F4CA86DB86EC86FD8689
S11331B08E859F85A889B9898F3F2FEF9207A20733
S11331C0B207D9F00197A109B1098E879F87A88B0F
S11331D0B98B8D8181608D8310C097018601B30105
S11331E0A201CE012EDE8823F9F2813009F47CCFCE
S11331F061E070E080E090E002C0B601C701DF91B9
S1133200CF911F910F91FF90EF90DF90CF90BF90DF
S1133210AF909F908F907F906F905F904F900895A4
S11332207F928F929F92AF92BF92CF92DF92EF9252
S1133230FF920F931F93CF93DF93EC016B01EC800C
S1133240FD808FEFE81AF80A11F484E0DBC04E85A4
S11332505F85688979894115510561057105A9F36F
S113326087010F7011270115110509F0B9C04F5FCF
S11332705F4F6F4F7F4F4E875F87688B798B4A858F
S11332805B856C857D8588819981FC01411551059B
S11332906105710531F480859185E816F906A8F673
S11332A09FC0228130E021503109F701A4E0F69556
S11332B0E795AA95E1F72E233F23232B09F090C02D
S11332C044DC4B015C01623071058105910510F409
S11332D082E098C08FEF88169806A806B80611F405
S11332E081E090C088819981FC0142895389648975
S11332F0758984169506A606B70608F464C0CD2819
S113330009F4A3CF4A855B856C857D85B3DE4B01CB
S11333105C01611571058105910509F472C0613084
S1133320710581059105A1F28FEF88169806A8060C
S1133330B806B1F28881998145D88111D1CF8881AD
S11333409981FC01BE96825D9D4FE817F90711F043
S11333501192FBCFC880D980B501A401C601CDDB91
S1133360F60162A773A784A795A7C12CD12C772453
S11333707394E881F981828190E0C816D906B8F483
S11333807482888199811ED88111AACFE881F9813C
S113339082A593A5A4A5B5A50196A11DB11D82A7DB
S11333A093A7A4A7B5A7FFEFCF1ADF0AE2CF82A5A0
S11333B093A5A4A5B5A58C199D09A109B10982A756
S11333C093A7A4A7B5A78A869B86AC86BD86B501BC
S11333D0A4018881998191DB6E877F87888B998B83
S11333E0FD82EC8285E0000F111F8A95E1F7025DF2
S11333F01F4F88819981080F191F1B8B0A8B80E04E
S113340001C087E0DF91CF911F910F91FF90EF9062
S1133410DF90CF90BF90AF909F908F907F90089552
S11334204F925F926F927F929F92AF92BF92CF9290
S1133430DF92EF92FF920F931F93CF93DF93EC01F0
S11334408B01DB018C918F3211F08C3511F40F5FFD
S11334501F4F1E821F8218861986F80180818032D0
S113346028F070E2A72EE5E0BE2E62C060E070E0B6
S1133470CE0136DC1B8A1A8AF4C0820120E030E0D7
S113348080E090E048E050E0912C0196D8017D91D5
S11334908D01713208F063C08201080F191F713267
S11334A008F487C080E0232B09F4B7C09081953ECF
S11334B009F4B0824830510511F4990C990C992DF6
S11334C09370913009F48061992D9C70943009F4C3
S11334D08860838760E070E0CE0102DC882309F411
S11334E06AC0EC89FD89938581118EC092FD91C0DB
S11334F04A895B89FA01838584FF8DC0828D938D0F
S1133500A0E0B0E028813981F9012081233061F401
S1133510FA014489558960E070E0BA0155274427CF
S1133520842B952BA62BB72B8E839F83A887B987D3
S11335302801D8019C910F5F1F4F9F32C9F39C351E
S1133540B9F3EC89FD89CF019F01255F3F4F8217B5
S1133550930709F492CFDC01AD92CD01F8CF7F320D
S113356009F49ACF7C3509F497CF7E3209F457C019
S11335702417350708F051C077FF09C0B92DB3608F
S11335809B2E672F70E06D5D7D4FDB017C91C72E14
S1133590D12C64E9E62E62E0F62ED7016D917D010F
S11335A0662309F446C0662E712C6C147D04A9F7B9
S11335B034C084E078CF4E855F85688979898881B5
S11335C099810E94AA1281118CCFEA89FB8980819A
S11335D08823B1F0838583FD0EC0AC89BD89AF011A
S11335E0455F5F4FE417F50769F081912D9190E0F5
S11335F0821B9109B9F360E070E0CE0111DE6ECF59
S113360084E06FCF80E06DCF843059F592FF03C022
S113361028C080E026C085E024C086E022C048306F
S11336205105D9F7990C990C28E030E04BE050E0B3
S11336302CCF6FEB670F6A3120F4B92DB2609B2E4B
S113364008C06FE9670F6A3120F4692D6160962E16
S113365070527F01E20EF31ED7017C932F5F3F4F20
S113366014CFDF91CF911F910F91FF90EF90DF90D6
S1133670CF90BF90AF909F907F906F905F904F904E
S113368008951F93CF93DF93EC0160E070E028DB93
S1133690182F811117C04E855F85688979898881C3
S11336A099810E94AA12182F81110CC0EA89FB8902
S11336B08081853E59F0882349F061E070E0CE01B5
S11336C0AFDDE6CF143011F517E020C04E855F85DD
S11336D068897989888199810E94AA12182F811199
S11336E015C0EA89FB89CF018096E817F90711F024
S11336F01192FBCF6C897D894BE050E08A899B89CC
S11337000E943B11E881F98181E08483812FDF915C
S1133710CF911F9108958F929F92AF92BF92CF92B3
S1133720DF92EF92FF920F931F93CF93DF93EC01FD
S11337306A017B01423051056105710510F482E094
S11337404BC08A899B89AC89BD89481759076A0788
S11337507B07A8F78A899B89AC89BD89C816D906D5
S1133760EA06FB0650F4B701A601CE01EED94B01DF
S11337705C01672B682B692B11F480E02DC081E07C
S113378088169104A104B104D1F22FEF8216920697
S1133790A206B20601F100E010E09801B701A6010B
S11337A0CE014FDB811118C08E859F85A889B98908
S11337B08F3F2FEF9207A207B20751F00196A11D88
S11337C0B11D8E879F87A88BB98B8D8181608D8376
S11337D075016401BFCF81E0DF91CF911F910F91FB
S11337E0FF90EF90DF90CF90BF90AF909F908F901D
S11337F00895CF93DF93CDB7DEB727970FB6F8942C
S1133800DEBF0FBECDBF9C838B837E836D837A83A3
S11338106983CE0101964F830E94A5114F8197FDC4
S113382024C0880F991FFC01EC55FA4F0190F081D8
S1133830E02D309709F01082EB81FC81309709F07C
S113384010822B813C81FC01EC55FA4F318320839B
S1133850232B69F0413059F440E0BE016B5F7F4F88
S1133860CE0103960E941F1303C08BE001C080E0C9
S113387027960FB6F894DEBF0FBECDBFDF91CF9170
S113388008954F925F926F927F928F929F92AF9220
S1133890BF92DF92EF92FF920F931F93CF93DF9328
S11338A0CDB7DEB7A4970FB6F894DEBF0FBECDBF79
S11338B07CA36BA3009709F4F1C0B42E7C01DC0156
S11338C01D921C924E71BE016D5D7F4FCE0101961B
S11338D00E941F138111E9C0CE0147969E8B8D8BE8
S11338E06BA17CA146979CDD0B891C89811104C0C6
S11338F00115110509F486E0BB2DBF71DB2E9B2D4C
S11339009C7109F46DC0882369F0843019F4CE01E8
S11339100196B7DEED2DE860DE2E0B891C89882325
S113392049F0C3C0D8011B968C91817109F0BCC0C9
S1133930B2FCB6C0D3FE5FC080E090E0A9E6B5E477
S1133940F80186879787A08BB18B1386D801148ED4
S1133950158E168E178EE981FA815A968D909C9059
S11339605B97A12CB12C8081833069F454964D91DE
S11339705C91559760E070E0BA0155274427842A8A
S1133980952AA62AB72AD8015B961C921E925A97AA
S113399055961C921E92549781E08483811491045D
S11339A0A104B10441F142A453A464A475A4B501D3
S11339B0A401CF01B0DE811178C089819A81B1E080
S11339C08B1A9108A108B108FC0182869386A4860B
S11339D0B586B301A2010E94AA12882361F065C0D2
S11339E0811163C0D8011B968C9184FD5BC0B1FE2C
S11339F002C080FD59C0D3FE03C0BD2DB062DB2ED2
S1133A00A980BA80F50142A553A564A575A5D7017F
S1133A105A964D935D936D937C935D975F961C933B
S1133A200E935E971496DC92149715961C92F801E7
S1133A30828D938DA0E0B0E0F5012081233061F404
S1133A40F8014489558960E070E0BA01552744279C
S1133A50842B952BA62BB72BF70186879787A08BF2
S1133A60B18BF801848D958DA68DB78DF701828772
S1133A709387A487B5871682178210861186168AC3
S1133A80178A108E118EB182A082D50116968D915F
S1133A909C9117979383828380E007C089E005C0D7
S1133AA088E003C084E001C087E0A4960FB6F894D0
S1133AB0DEBF0FBECDBFDF91CF911F910F91FF905D
S1133AC0EF90DF90BF90AF909F908F907F906F901A
S1133AD05F904F9008952F923F924F925F926F9212
S1133AE07F928F929F92AF92BF92CF92DF92EF928A
S1133AF0FF920F931F93CF93DF93EC015B016A0155
S1133B001901F901118210820E94C411811162C14C
S1133B108D8181115FC18C8181FF5BC18E819F8109
S1133B20A885B985AC01BD014C0D5D1D611D711DDC
S1133B30481759076A077B0708F0A3C0C12CD12C8A
S1133B40A0C04E815F8168857985DB01CA019170CF
S1133B50AA27BB27892B8A2B8B2B09F00AC1E88162
S1133B60F981228121502A013B01A9E076946794CE
S1133B7057944794AA95D1F7122F142109F486C0BB
S1133B8088819981FC0142A453A464A475A44E893C
S1133B905F89688D798D441655066606770609F4A3
S1133BA0C6C0888099804A895B896C897D89C401F3
S1133BB00E947D15611571058105910509F49AC06E
S1133BC02B013C01410E511C611C711C7601EF2C30
S1133BD0FF24E694E114F10409F4AFC0F4018281F6
S1133BE0212F30E0A701420F531F90E0841795075F
S1133BF018F47C01E21AF30A8701A3019201B501CA
S1133C00F40181810E943F1081117CC088819981D7
S1133C10FC0142A553A564A575A544195509660977
S1133C2077092701612C712C441555056605770524
S1133C3070F4542F4427550FB501640F751F40E0ED
S1133C4052E08E960E943B11E881F9811482FE2C89
S1133C50EE24FF0CAE0CBF1C8E819F81A885B98514
S1133C608E0D9F1DA11DB11D8E839F83A887B987CB
S1133C70F101808191818E0D9F1D91838083CE18E7
S1133C80DF08C114D10409F05CCF1CC0452B462BBE
S1133C90472B69F46E857F8588899989611571053B
S1133CA08105910511F540E050E0BA0104C04A894C
S1133CB05B896C897D89CF01DDD961157105810529
S1133CC0910599F48E819F81A885B9854A855B8584
S1133CD06C857D85481759076A077B0708F074C00F
S1133CE08A879B87AC87BD876FC06130710581056A
S1133CF0910511F482E007C06F3FFFEF7F078F0744
S1133D009F0719F481E08D8365C06A8B7B8B8C8B54
S1133D109D8B4E845F846888798845284628472887
S1133D2009F02ECF6E877F87888B998B29CF0E94CD
S1133D30E211882309F435CFE5CF4E815F81688590
S1133D4079858A859B85AC85BD85481759076A079F
S1133D507B0758F0C4010E94E2118111D3CFE8819E
S1133D60F98142A653A664A675A64E8A5F8A688E18
S1133D70798E8E819F81917020E032E0281B390B6F
S1133D8076012C153D0508F479014E895F89688D0B
S1133D90798D888199810E94AA128111B3CF8E8175
S1133DA09F81A885B9859170AA27BB278E96288103
S1133DB03981A701B501820F931F0E943B11E8814D
S1133DC0F98131E0348346CF8C8180628C8380E03A
S1133DD001C087E0DF91CF911F910F91FF90EF9089
S1133DE0DF90CF90BF90AF909F908F907F906F9017
S1133DF05F904F903F902F900895CF93DF93EC0105
S1133E000E94C411811139C09C8195FF36C04A8D2E
S1133E105B8D6C8D7D8D888199810E94AA128111A0
S1133E202CC0EE8DFF8D8385806283878A859B8578
S1133E30AC85BD85848F958FA68FB78F8E859F8522
S1133E40A889B989938F828FB58BA48B80E090E089
S1133E50A9E6B5E4868B978BA08FB18F138A128A5B
S1133E608C818F7D8C83E881F98181E084838881D2
S1133E709981DF91CF910C944112DF91CF910895F4
S1133E80CF93DF93EC01B9DF811107C0CE010E940B
S1133E90C411811102C019821882DF91CF91089553
S1133EA02F923F924F925F926F927F928F929F9246
S1133EB0AF92BF92CF92DF92EF92FF920F931F9334
S1133EC0CF93DF9300D000D0CDB7DEB71C016A01D9
S1133ED07B010E94C41181115BC1D10115968C91A3
S1133EE01597811155C11A968D919D910D90BC9194
S1133EF0A02D8C159D05AE05BF0530F4F10124817C
S1133F0021FD02C06C017D01D10116964D905D909A
S1133F106D907C901997F101168217821086118694
S1133F20C114D104E104F10421F4C12CD12C760193
S1133F3002C100811181F8018280912CA12CB12C45
S1133F4039E0880C991CAA1CBB1C3A95D1F7411482
S1133F5051046104710409F43FC0F1E04F1A51089F
S1133F6061087108C701B60161507109810991099D
S1133F70A50194010E947A3529833A834B835C839B
S1133F80C301B201A50194010E947A3589819A8105
S1133F90AB81BC8182179307A407B507E8F0882793
S1133FA09927DC0188199909AA09BB0948225922D1
S1133FB06A227B22D10116964D925D926D927C927B
S1133FC01997C418D508E608F70852964D915D91E3
S1133FD06D917C91559731C0F10146855785608973
S1133FE07189411551056105710511F540E050E0F5
S1133FF0BA01C8013FD8AB01BC014130510561058C
S1134000710529F482E0D10115968C93C1C04F3F0C
S1134010BFEF5B076B077B0721F481E0F101858328
S1134020B7C0D1011E964D935D936D937C935197C8
S1134030F101428B538B648B758B411551056105DE
S1134040710509F472CF8C149D04AE04BF0408F00A
S113405046C0D10114962C9114978D919C9121FF07
S113406009C008D8AB01BC014115510561057105B2
S113407029F433C00E94A515AB01BC014F3FBFEF2B
S11340805B076B077B0749F24230510561057105F7
S113409008F4B8CFD101ED91FC9182899389A48968
S11340A0B589481759076A077B0708F0ABCFF101B8
S11340B0428B538B648B758B86819781A085B185E8
S11340C0880D991DAA1DBB1D86839783A087B18780
S11340D0C818D908EA08FB08B6CF75016401F101D4
S11340E086819781A085B1858C0D9D1DAE1DBF1D58
S11340F086839783A087B187D701C6019170AA27C9
S1134100BB27892B8A2B8B2B09F40FCF80819181BC
S11341100E947D15611571058105910509F472CF21
S113412029E0F694E794D794C7942A95D1F7C60E5C
S1134130D71EE81EF91EF10186819781A085B185FD
S1134140AC01BD01517066277727452B462B472BC1
S113415069F046895789608D718DC416D506E606C7
S1134160F70621F0C68AD78AE08EF18EF1014285E6
S1134170538564857585481759076A077B0738F4A2
S113418082879387A487B58784818062848380E053
S11341900F900F900F900F90DF91CF911F910F917F
S11341A0FF90EF90DF90CF90BF90AF909F908F9053
S11341B07F906F905F904F903F902F900895EF9273
S11341C0FF921F93CF93DF93CDB7DEB7A4970FB6BB
S11341D0F894DEBF0FBECDBF9CA38BA37B0140E050
S11341E0BE016D5D7F4FCE0101960E941F13182FF3
S11341F0811119C0CE0147969E8B8D8B6BA17CA13A
S113420046970ED9182F81110EC08B899C89892B52
S113421049F0E114F10439F0B701CE0101960E948E
S1134220581101C016E0812FA4960FB6F894DEBF92
S11342300FBECDBFDF91CF911F91FF90EF900895F6
S1134240BF92CF92DF92EF92FF920F931F93CF937F
S1134250DF93EC01B62EC8A0DF8CEE8CFD8C0BA195
S11342601AA10E94220CC616D706E806F90668F0C1
S113427080913401807F85608093340181E2809352
S11342803E0110923F0180E022C09801B701A601CF
S1134290CE01BB2011F079D201C0D1D1C801A0E078
S11342A0B0E029E0880F991FAA1FBB1F2A95D1F7F8
S11342B04C895D896E897F898A019B01081B190BD2
S11342C02A0B3B0B0C8B1D8B2E8B3F8B81E0DF91DC
S11342D0CF911F910F91FF90EF90DF90CF90BF90FF
S11342E00895CF92DF92EF92FF920F931F93CF9393
S11342F0DF93CDB7DEB728970FB6F894DEBF0FBEB5
S1134300CDBF8C01FC01838D8D3109F4C2C088F4CA
S1134310823109F138F4882309F4FFC0833009F4A9
S113432050C00AC18A3109F4DEC08B3109F4FEC0E1
S113433003C1883209F4C8C038F48E3109F4F6C0D8
S1134340853209F466C0F8C08A3209F4B2C08F32EB
S113435009F4ECC0F1C0F801E78CF68C848D83700D
S113436019F4858D882341F080913401807F856024
S11343708093340184E2E7C06701F5E2EF16F104AB
S113438018F094E2C92ED12C40E050E0B60183E24B
S113439093E00E94F82F60E070E0C7018C199D093A
S11343A00E94BA2F8091E8008E778093E800F8018C
S11343B084899589A689B7898C199D09A109B109B0
S11343C0A7C0F801F78CEF2CF2E1FF1510F482E19D
S11343D0E82ECE2CD12C40E050E0B60182E391E0EF
S11343E00E94F82F8F2D90E060E070E08C199D09F9
S11343F00E94BA2F8091E8008E778093E800F8013C
S113440084899589A689B7898E199109A109B10969
S11344107FC014D2811108C080913401807F8260F2
S1134420809334018AE38FC0809189078130A1F79A
S113443080E092E0A0E0B0E089839A83AB83BC8300
S11344400E94220CDC01CB010197A109B1098D83E3
S11344509E83AF83B88740E050E064E070E0CE0113
S113446005960E94423040E050E064E070E0CE01E6
S113447001960E9442308091E8008E778093E80094
S1134480F80184899589A689B7890897A109B10992
S11344903FC0F801848D82FF67CFD0D1811146C01F
S11344A080913401807F84608093340110923E01B6
S11344B04CC0C4D1882309F4AFCF809189078130DF
S11344C009F0AACF60E00AC0B9D1882309F4A4CFC7
S11344D080918907813009F09FCF61E0C801B0DE87
S11344E0811136C040C01092F1001092F100109278
S11344F0F1001092F1008091E8008E778093E8003B
S1134500F80184899589A689B7890497A109B10915
S1134510848B958BA68BB78B1BC090D1882309F411
S11345207BCF80918907813009F076CFF801148A16
S1134530158A168A178A0CC080913401807F8560A1
S11345408093340180E280933E0110923F010BC0BE
S113455080913401807F8093340110923E01109247
S11345603F0181E001C080E028960FB6F894DEBFD9
S11345700FBECDBFDF91CF911F910F91FF90EF90B0
S1134580DF90CF90089580E00E945D0F811104C0F8
S113459081E08093A60508951092A60508950F93CF
S11345A01F93CF93DF938C01EB018091E80085FF8B
S11345B036C08091F100F801EC0FFD1F80838091DB
S11345C0F10081838091F10082838091F1008383E3
S11345D08091F10084838091F10085838091F100C2
S11345E086838091F10087838091F1008087809198
S11345F0F10081878091F10082878091F1008387A7
S11346008091F10084878091F10085878091F10089
S113461086878091F100878780E190E00BC09091BC
S1134620E8009B779093E8000E947C32882309F28B
S113463080E090E0DF91CF911F910F9108958F92C8
S11346409F92AF92BF92CF92DF92EF92FF920F931D
S11346501F93CF93DF936C014A015B0179010E94A0
S11346607C32811133C0E114F10431F12E98C0E0A1
S1134670D0E0BE018AE897E092DFC80FD91F80918D
S1134680CE09843019F5F60180AD81111FC0C11522
S1134690F2E0DF0770F301E010E0A50194016AE89D
S11346A077E00E943F108FEF881A980AA80AB80A88
S11346B0E1E0EE1AF108D7CF8091E80085FD05C04E
S11346C08091E8008B778093E8002E9ADF91CF9158
S11346D01F910F91FF90EF90DF90CF90BF90AF901C
S11346E09F908F900895EF92FF921F93CF93DF9343
S11346F07C01EB019091E800192F107295FF35C0F1
S1134700F701EC0FFD1F80818093F100818180937C
S1134710F10082818093F10083818093F100848190
S11347208093F10085818093F10086818093F1006C
S113473087818093F10080858093F1008185809347
S1134740F10082858093F10083858093F100848554
S11347508093F10085858093F10086858093F10034
S113476087858093F10010E109C09091E8009E775D
S11347709093E8000E947C32882311F2812FDF910C
S1134780CF911F91FF90EF9008958F929F92AF92D7
S1134790BF92CF92DF92EF92FF920F931F93CF932A
S11347A0DF936C014A015B0179010E947C32811123
S11347B038C0E114F10459F12E9801E010E0A5018C
S11347C094016AE877E080E00E94FB0FC0E0D0E04B
S11347D0BE018AE897E087DFC80FD11DF60180ADDE
S11347E081111FC08091CE09843021F08AE080932A
S11347F0890717C0C115F2E0DF0750F38FEF881A5D
S1134800980AA80AB80AE1E0EE1AF108D2CF80911A
S1134810E80085FD05C08091E8008E778093E8006C
S11348202E9ADF91CF911F910F91FF90EF90DF901F
S1134830CF90BF90AF909F908F9008958091A605E0
S113484008951F920F920FB60F9211242F938F93F6
S11348509F93EF93FF938091C8009091CE0088714D
S1134860E091A905EF5FEF732091A805E21739F0F5
S1134870E093A905F0E0E455FA4F908301C082E08B
S11348809091A705892B8093A705FF91EF919F91A4
S11348908F912F910F900FBE0F901F9018951F921C
S11348A00F920FB60F9211248F939F93EF93FF9360
S11348B09091AB058091AA05981769F0E091AA053B
S11348C0EF5FEF70E093AA05F0E0E451FA4F8081C6
S11348D08093CE0005C08091C9008F7D8093C9006C
S11348E0FF91EF919F918F910F900FBE0F901F90AA
S11348F018951092AB051092AA051092A905109272
S1134900A80597FF04C022E02093C8009F779093E6
S1134910CD008093CC0088E98093C90086E0809321
S1134920CA0008959091A9058091A805981781F06F
S1134930E091A805EF5FEF73E093A805F0E0E4557C
S1134940FA4F80819091A7051092A70590E00895F1
S113495080E091E008951092A9051092A8050895A9
S11349609091AB059F5F9F702091AA059217E1F388
S1134970E92FF0E0E451FA4F80839093AB058091E6
S1134980C90080628093C90008951F920F920FB6E8
S11349900F9211242F933F934F935F936F937F93C1
S11349A08F939F93AF93BF93EF93FF9380917F0671
S11349B09091800601969093800680937F06809163
S11349C081069091820601969093820680938106D7
S11349D080918907813079F0809189078D3059F071
S11349E084E591E00E94A02E84E491E00E947C2D55
S11349F00E94413503C081E080933906FF91EF9115
S1134A00BF91AF919F918F917F916F915F914F91E2
S1134A103F912F910F900FBE0F901F90189580918A
S1134A203906813029F484E591E00E94A02E04C067
S1134A3080913906833029F484E491E00E947C2D2E
S1134A4008C080913906823031F484E591E00E94F7
S1134A50A02E0E94413510923906089584B7877FAD
S1134A6084BF0FB6F894A895809160008861809304
S1134A706000109260000FBE85B7806885BF85B75F
S1134A80806885BF85B7806885BF85B7806885BF26
S1134A9090E080E80FB6F8948093610090936100F1
S1134AA00FBE0E94EB0A0E94FF0A2FE788E391E001
S1134AB0215080409040E1F700C0000086E092E081
S1134AC00E94293991E0811101C090E090938806F9
S1134AD087E092E00E94293991E0811101C090E0C1
S1134AE09093360688E092E00E94293991E0811182
S1134AF001C090E090930A0789E092E00E9429396E
S1134B0091E0811101C090E09093480708950895C1
S1134B1095DE882319F082E080938907089508952B
S1134B20089584E491E0D5D784E591E00E94832E32
S1134B30E2EEF0E0808184608083089584E591E072
S1134B400E94422E84E491E08AC6809152019091A1
S1134B505301009729F001979093530180935201D8
S1134B600895BFCB0F931F93F901A0918406B091D0
S1134B70850612968C91828390918706992311F071
S1134B8084E004C0882321F080913B06808301C027
S1134B901082E0918406F0918506128210923B0601
S1134BA088E090E0F8019183808380E01F910F9169
S1134BB00895F901808180FD0EC09091FD05911149
S1134BC00AC0E0918406F091850683E5828381E042
S1134BD08093FD05089581FF0DC08091FC0581112E
S1134BE009C0E0918406F091850689E3828381E01F
S1134BF08093FC050895CF938DE092E00E942939BB
S1134C00C82FB0D362E032D57C990CC07D990AC01C
S1134C107E9908C081E08093890760E00E942F0B91
S1134C20C6D531C07D9910C07E990EC00E9455042E
S1134C30882331F00E94AE320E94840489E001C0CE
S1134C408AE0809389074AC07C9904C07D9902C098
S1134C508EE0F7CF7C9904C07E9902C086E0F1CF44
S1134C607C9902C085E0EDCF7D9902C083E0E9CF55
S1134C707E9902C084E0E5CF853539F481E08093E4
S1134C80890780938306C1E029C0833579F4D6DD92
S1134C90882339F082E08093890781E0809383063A
S1134CA003C08AE080938907C2E018C0823469F4A3
S1134CB00E94AE320E945504882311F20E9484049B
S1134CC089E080938907C9E009C08C3429F48DE018
S1134CD080938907CDE002C0C09389076C2F8DE0D3
S1134CE092E0CF910C943639CF93DF931F92CDB7D6
S1134CF0DEB78CE080938907B1DE88D5FBD4D2D4AB
S1134D0042DC0E94063383E390E0F3DD789473DFA2
S1134D101DE00AE080918907863009F484C09CF480
S1134D20833009F4D1C034F4813011F1823009F4B4
S1134D306FC0CFC0843009F43DC0853009F0C9C0CC
S1134D400E946C07C3C08B3009F45EC04CF48930F8
S1134D5009F46CC08A3009F0BCC00E94AE329DC018
S1134D608D3031F08E3009F0B4C00E94E906AEC037
S1134D700E94150C1FD3182F13D28983BE016F5FB5
S1134D807F4F812F55D4882351F0883121F490919D
S1134D908306911180E01092830669819DD08FEC87
S1134DA097E00197F1F700C0000084E491E0A4D6F5
S1134DB036DEE0CF0E94AE3201E010920B0789B1DB
S1134DC019B129B193B116FB112710F91027829557
S1134DD081708027180F2095221F2227221F120F6F
S1134DE0929591709027190F54D4810F80FF03C0BE
S1134DF0469A2E9802C046982E9A8FEC97E0019717
S1134E00F1F700C00000D9CF0E94AE320E948A0C94
S1134E1080913706882311F05D98559A0E94AE322E
S1134E200E94FA0C77CF0E94890650C00E94AE32CD
S1134E300E948804813011F00E9438048091370662
S1134E40882311F05D98559A79990EC02E98469A48
S1134E500E948B049FEF27EA81E691502040804016
S1134E60E1F700C00000F0CF2E9A4698799B52CF0C
S1134E70A1D2F82E95D18983BE016F5F7F4F8F2D0C
S1134E80D7D3882319F069810E94FC038FEC97E043
S1134E900197F1F700C00000E9CF2E9A46989FEFE2
S1134EA021EE84E0915020408040E1F700C00000F2
S1134EB0469A2E989FEF21EE84E091502040804046
S1134EC0E1F700C00000E9CF0E94EB0910938907C5
S1134ED021CF009389071ECF1F93CF93DF931F9297
S1134EE0CDB7DEB7182F1092800610927F06E0919E
S1134EF08406F091850682818823A9F080917F063B
S1134F00909180068436910570F4809189078130F0
S1134F1021F0809189078D3051F784E491E0698311
S1134F20EBD56981E4CF17FF02C01F7762E0143725
S1134F3011F461E018E2F894E0918406F09185069A
S1134F40128360933B0684E491E0D6D578948FE392
S1134F509CE90197F1F700C00000F89484E491E023
S1134F60CBD578940F90DF91CF911F910895EF9254
S1134F70FF920F931F93CF93DF938C01FC01019059
S1134F800020E9F73197EF01C81BD90B7C01C70159
S1134F90801B910B8C179D070CF053C0F701919166
S1134FA07F01903229F1983231F1993239F19F32EF
S1134FB039F19F3339F19A3341F19D3049F19A30F7
S1134FC039F19E3241F19D3349F1913251F19033DF
S1134FD059F18FEC890F893020F48DEE890F60E050
S1134FE025C0892F90E00E942D368D5362E01EC0AB
S1134FF060E08CE21BC062E086E218C062E015C08B
S113500060E001C062E088E311C062E083E30EC0A7
S113501060E088E20BC060E087E308C060E08EE2F5
S113502005C062E08EE102C060E087E255DFFFE781
S113503028E381E0F15020408040E1F700C0000007
S1135040A6CFDF91CF911F910F91FF90EF9008951C
S1135050BC018CE097E00E9435368CE097E087CF66
S11350601F93CF93DF93282F6AE00E945B35C92FEB
S1135070822F90E08C1B910964E670E00E946735F2
S11350806AE070E00E946735D62F162F283C18F08E
S113509060E08FE104C0243618F060E08EE11CDF8C
S11350A060E0112319F08DE18D0F01C087E214DF58
S11350B02FEF80E792E0215080409040E1F700C05C
S11350C0000060E0CC2319F08DE18C0F01C087E271
S11350D003DF2FEF80E792E0215080409040E1F71A
S11350E000C00000DF91CF911F9108950F931F938B
S11350F0CF93DF93C82F6AE00E945B35D92F8C2FA2
S113510090E08D1B910964E670E00E9467356AE0C7
S113511070E00E946735162F062F81E08093870682
S11351202FEF80E792E0215080409040E1F700C0EB
S1135130000060E082E6D0DE60E0C83C10F08AE562
S113514005C0C43610F089E501C082E6C5DE60E022
S1135150002319F089E5810F01C082E6BDDE2FEF3F
S113516080E792E0215080409040E1F700C00000C9
S113517060E0DD2319F089E58D0F01C082E6ACDE25
S11351802FEF80E792E0215080409040E1F700C08B
S1135190000010928706DF91CF911F910F9108951F
S11351A080917E06823099F040F4813009F589B10E
S11351B0829581709091880617C0833079F084308D
S11351C0B9F483B182958170909148070DC089B17B
S11351D086FB882780F99091360606C089B1881F1E
S11351E08827881F90910A07891302C082E001C0B2
S11351F080E07C9B81607D9B84607E9B88600895B9
S11352007F928F929F92AF92BF92CF92DF92EF9252
S1135210FF920F931F93CF93DF93F894729A8FECBE
S113522097E00197F1F700C00000729878948FEC32
S113523097E00197F1F700C00000E12CF12C712CEC
S113524010E0D0E0C0E0B0E0A0E0F0E0E0E01D99C4
S113525013C021E030E040E050E060E070E080E026
S113526090E00E2D0E94AE35722A132BD42BC52B41
S1135270B62BA72BF82BE92BF894729A9AE19A95FE
S1135280F1F700C0729878948AE68A95F1F700C025
S11352909FEFE91AF90A80E3E816F104C1F6809158
S11352A00B078230E9F4272D312F4D2F5C2F6B2F04
S11352B07A2F8F2F9E2F0CE20E94C935490191E06D
S11352C0892299248091860690E08816990641F0F7
S11352D0712C10E0D0E0C0E0B0E0A0E0F0E0E0E04D
S11352E080917E06813051F099B192959170209110
S11352F08806921301C0E064823059F099B196FB9C
S1135300992790F920913606921301C0E062833008
S113531059F099B1991F9927991F20910A0792135F
S113532001C0E061843041F083B182958170909135
S11353304807891301C0E860272D312F4D2F5C2FBA
S11353406B2F7A2F8F2F9E2FDF91CF911F910F916B
S1135350FF90EF90DF90CF90BF90AF909F908F9091
S11353607F900895FF920F931F93CF93DF9348DFAD
S1135370F22E032F142FD52FC62FE72FB82FF92F76
S113538080910B078111EF7E2F2D302F412F5D2F40
S11353906C2F7E2F8B2F9F2FA0E00E94E53519F0F4
S11353A00E94A63501C080E0DF91CF911F910F913B
S11353B0FF9008952F923F924F925F926F927F9247
S11353C08F929F92AF92BF92CF92DF92EF92FF9211
S11353D00F931F93CF93DF9300D01F92CDB7DEB707
S11353E00FDF4901142F5983F62FE72F482E392E4A
S11353F080910B078111EF7E5090380620907C0637
S11354008FE0E82E86E0F82E97E4A92E93E0B92EDB
S1135410C12CD12C712C612CDB82CA82511002C0A8
S11354201B821A82D5010D915D01BFEFCB1ADB0AF5
S11354309401412F59816F2F7E2F842D932D0E942B
S1135440C935217030E040E050E060E070E080E079
S113545090E0A0E00E94E53599F0D7018C91821587
S113546010F48F5F31C0AA81BB81A55FB94F8C91C5
S113547081112BC081E08C937C2C6624639425C01D
S1135480552039F0D7018C91882399F08150D701A8
S11354901BC080910F06811112C0809110068111EA
S11354A00EC08091110681110AC0809112068111EB
S11354B006C0AA81BB81A55FB94F1C9206C0D70163
S11354C08C91882311F081508C93BFEFEB1AFB0A67
S11354D084E0C816D10409F09FCFF9809401412FCC
S11354E05F2D6F2F7E2F80E090E02F3FAFEF3A07C4
S11354F04A075A076A077A078105910509F455C0D6
S113550080910A06882379F0AFE3B0E0A81BB109C3
S113551021E030E040E050E060E070E080E00A2FFD
S11355200E94AE3527C090910906992349F18091D4
S113553008068F5F8093080620917D06821728F065
S113554010920806109209061BC0AFE3B0E0A91B35
S1135550B10921E030E040E050E060E070E080E03C
S113556090E00A2F0E94AE352095309540955095D5
S113557060957095822293221423F522F623E72363
S11355809401412F5F2D6F2F7E2F80E090E0A0E0EB
S11355900E94E53551F00E94A635909107069F5F61
S11355A0909307061092060608C0809106068F5F46
S11355B0809306061092070680E09091C906209118
S11355C00706291758F09093070690910A06891741
S11355D0B1F080930A066620A9F00FC080913A06C4
S11355E090910606981758F08093060680910A0653
S11355F08093090610920A0602C0872D03C0611029
S1135600FCCF80E00F900F900F90DF91CF911F910E
S11356100F91FF90EF90DF90CF90BF90AF909F904D
S11356208F907F906F905F904F903F902F90089550
S1135630FB019081282F30E092FF08C0D901A657C2
S1135640B64F8C91882311F09B7F09C091FF09C04C
S1135650D901A757B94F8C91882319F09D7F908366
S11356600895F901E45CF94F80810895882379F065
S1135670282F30E061FF06C0F901E653F94F80811D
S1135680811106C0F901E75BF84F8081089580E03D
S113569008950F93B5DD0CE20E94C935822F817005
S11356A00F91089540E450E060E070E08CE396E0F0
S11356B00E94193940E450E060E470E08AE899E01F
S11356C00E94193940E450E060E870E089E896E00F
S11356D00E94193940E450E060EC70E089E497E0FE
S11356E00E94193940E450E060E071E08AEC96E0F1
S11356F00C94193982E092E00E94293980933A0689
S113570081E092E00E9429398093C90680E092E00A
S11357100E94293980937D068CE092E00E94293909
S113572080937C0683E092E00E94293980930B07E2
S113573084E092E00E9429398093860685E092E015
S11357400E94293980937E068EE092E00E942939D6
S1135750809338068FE092E00E94293980933706BF
S1135760089580E4ECE3F6E0DF01982F1D929A950A
S1135770E9F7EAE8F9E0DF01982F1D929A95E9F735
S1135780E9E8F6E0DF01982F1D929A95E9F7E9E43C
S1135790F7E0DF01982F1D929A95E9F7EAECF6E01D
S11357A0DF011D928A95E9F710927E06089565E05F
S11357B080E092E00E94363966E081E092E00E9447
S11357C0363963E082E092E00E94363963E08CE08F
S11357D092E00E94363960E08EE092E00E94363911
S11357E061E08DE092E00E94363960E08FE092E063
S11357F00E94363960E070E08AE092E00E945F39EE
S113580060E083E092E00E94513974CFCF93DF933C
S11358108FEF93E00E9429398734F1F0C0E0D0E0A3
S113582060E0CE010E9436392196C13581E0D80767
S1135830B9F7C0E0D2E060E0CE010E94363921968B
S1135840C23182E0D807B9F7B2DF67E48FEF93E0A3
S1135850DF91CF910C945139DF91CF9108956F92DC
S11358607F928F929F92AF92BF92CF92DF92EF92EC
S1135870FF920F931F93CF93DF9300D01F92CDB766
S1135880DEB77C01CDB6DEB68091E80083FF0AC1A5
S1135890F701808190E02091D3093091D409281731
S11358A0390709F0FFC08091D009833009F4A1C001
S11358B030F4813071F0823009F4D8C0F3C08A30FA
S11358C009F4BCC08B3009F4A5C0893009F0EAC0E2
S11358D053C08091CF09813A09F0E4C08DB69EB6D9
S11358E01A8219828091D1091091D2098B83F70110
S11358F08085482F50E08DB79EB7841B950B0FB65B
S1135900F8949EBF0FBE8DBFEDB7FEB731965F0111
S113591060E070E0CF010E9455364FEF410F8E01D9
S11359200F5F1F4F9501BE016D5F7F4FC7011AD9ED
S1135930F70186819781009729F0408550E0B501F1
S11359400E944C361092E9008091E800877F809392
S1135950E8008B8181118093F10069817A81C5010E
S11359602BD48091E8008B778093E8000FB6F894ED
S11359709EBE0FBE8DBE96C08091CF09813209F0C4
S113598091C0ADB6BEB60091D5091091D6097090FC
S1135990D1096090D2098DB79EB7801B910B0FB6C9
S11359A0F8949EBF0FBE8DBFEDB7FEB731964F0181
S11359B08091E800877F8093E800B801CF015FD42D
S11359C08091E8008E778093E80021E0711001C097
S11359D020E030E0021B130B280D391D4FEF460D5C
S11359E0672DC701E6D80FB6F894BEBE0FBEADBE94
S11359F059C08091CF09813A09F054C08091E800E0
S1135A00877F8093E8008091E80080FFFCCFF70156
S1135A10818540C08091CF09813209F043C08091D3
S1135A20E800877F8093E80048D59091D10981E010
S1135A30911101C080E0F701818734C08091CF09C2
S1135A40813281F58091E800877F8093E80035D525
S1135A508091D1099091D209882736E0969587954F
S1135A603A95E1F7F701958784871CC08091CF09A7
S1135A70813AC1F48091E800877F8093E8008091A7
S1135A80E80080FFFCCFF70184859585969587957E
S1135A90969587958093F1008091E8008E778093A6
S1135AA0E8000BD50FB6F894DEBE0FBECDBE0F9046
S1135AB00F900F90DF91CF911F910F91FF90EF9076
S1135AC0DF90CF90BF90AF909F908F907F906F901A
S1135AD00895FC01399627E0DF011D922A95E9F724
S1135AE021E0FC01218724EF31E03587248723E07E
S1135AF0248361E0019699C44F925F926F927F92E2
S1135B008F929F92AF92BF92CF92DF92EF92FF92C9
S1135B100F931F93CF93DF9300D01F92CDB7DEB7BF
S1135B207C01ADB6BEB68091CE09843009F091C037
S1135B308091E4009091E500F701228533852817D0
S1135B40390709F486C081818F708093E9008091C0
S1135B50E80085FF7EC08DB69EB6408550E08DB7C7
S1135B609EB7841B950B0FB6F8949EBF0FBE8DBFD6
S1135B70EDB7FEB731966F011B821A82198260E07D
S1135B8070E0CF010E9455368E010F5F1F4F9601C2
S1135B9040E0BE016D5F7F4FC7010E94B225482ED1
S1135BA0F70184859585892B51F091E080E0268565
S1135BB03785232B09F090E0092F182F02C000E04D
S1135BC010E0F701668077806114710499F04981CF
S1135BD05A81B301C6010E943F3655245394892B40
S1135BE009F4512CF701408550E0B601C3010E942D
S1135BF04C3601C0512C89819A81892BF1F04110D6
S1135C0004C0511002C0012BC1F0F70184859585B1
S1135C109787868781818F708093E9008B818111BA
S1135C208093F10069817A8140E050E0C601E0D1BF
S1135C308091E8008E778093E8008091E400909151
S1135C40E500F701938782870FB6F8949EBE0FBED6
S1135C508DBE0FB6F894BEBE0FBEADBE0F900F90B2
S1135C600F90DF91CF911F910F91FF90EF90DF90F4
S1135C70CF90BF90AF909F908F907F906F905F90E8
S1135C804F900895CF93DF932091E80023FF38C00D
S1135C90FC01208130E04091D3095091D40942178E
S1135CA0530771F52091D0092E3F81F02F3F41F524
S1135CB02091CF09213221F5EC018091E800877F02
S1135CC08093E800FAD381E088AF1AC02091CF090D
S1135CD0213AB1F42091E800277F2093E800209135
S1135CE0E80020FFFCCFFC01838581508093F10004
