S01A00005553422054797065777269746572205032532E73726563CC
S11300004CC2000067C2000065C2000063C2000069
S113001061C200005FC200005DC200005BC200005C
S113002059C2000057C200000C94A63653C2000007
S113003051C200004FC200004DC200004BC200007C
S113004049C200000C948E2645C2000043C2000041
S113005041C200003FC200003DC200003BC200009C
S113006039C200000C94EA250C94182633C200000F
S113007031C200002FC200002DC200002BC20000BC
S113008029C2000027C2000025C2000023C20000CC
S113009021C200001FC200001DC200001BC20000DC
S11300A019C200000C944D0A15C200005345545463
S11300B0494E4753205341564544210D000D4947AD
S11300C04E4F524520454E544552204B45592057DA
S11300D048454E2053504143454241522049532004
S11300E048454C443F0D000D4E4F57205345542076
S11300F052454544205245414354494F4E205449AA
S11301004D452E2E2E0D000D4E4F57205345542095
S113011044454C4159204245545745454E20444F8F
S113012055424C45204B4559205052455353455355
S11301302E2E2E0D000D4E4F5720534554204B4567
S1130140592052454C454153452054494D452E2E86
S11301502E0D005052455353204354524C20414ECF
S11301604420414C5420544F20534554204B45596E
S1130170205245414354494F4E2054494D452E2E5B
S11301802E0D00505245535320434D44204B4559A6
S113019020544F20434F4E54494E55452E2E2E0D7C
S11301A00041444A555354494E47204B4559205326
S11301B0454E53495449564954592E0D004E4F202B
S11301C048414C4C204546464543542053454E53E4
S11301D04F522044455445435445442E20284E4F05
S11301E05420412050524F424C454D290D00484F58
S11301F04C4420444F574E20414E59204B455920E2
S1130200544F2043414C4942524154452048414CAB
S11302104C204546464543542053454E534F522E99
S11302202E2E0D004241434B53504143450053454C
S11302304E44005345434F4E4441525920454E5479
S1130240455200454E5445520053504143454241A6
S11302505200515549434B2043414C494252415469
S1130260494F4E204D4F44452E2E2E0D0044554DE2
S11302704D59204C4F414420444541435449564133
S11302805445440D0044554D4D59204C4F41442094
S11302904143544956415445440D004552524F522E
S11302A02E2E2E5348494654204D55535420424532
S11302B020412052454544205357495443482E0D6C
S11302C000545950452054484520464F4C4C4F57F4
S11302D0494E47204B4559532028505245535320EB
S11302E0535041434520544F20534B4950292E2EFF
S11302F02E0D0043414C4942524154494E472E2E43
S11303002E0D00534420434152442053544F524134
S11303104745204D4F44450D00555342204B455908
S1130320424F4152442F4341524420524541444597
S113033052204D4F44450D004C49474854204D4FE1
S113034044452028534420434152442052454144CB
S113035045522044495341424C4544290D00424CE6
S11303605545544F4F5448204B4559424F415244F0
S1130370204D4F44450D0044454641554C542053AF
S1130380455454494E473A20004649524D5741522C
S1130390452056455220352E322E313300555342D6
S11303A020545950455752495445522028544D29F8
S11303B00D00300355005300420020005400790022
S11303C070006500770072006900740065007200B7
S11303D020004B006500790062006F00610072002C
S11303E0640000002603550053004200200054001E
S11303F05900500045005700520049005400450080
S1130400520020004C004C00430000000403090487
S113041009023900020100800709040000020806ED
S1130420500007058302400005070504024000054B
S11304300904010001030101000921110100012245
S11304403F000705810308000512011001000000A8
S113045008EB03612086000102DC0105010906A105
S113046001050719E029E7150025017501950881A3
S1130470029501750881010508190129059505757D
S1130480019102950175039101150025FF050719D6
S11304900029FF950675088100C011241FBECFEF07
S11304A0DAE0DEBFCDBF13E0A0E0B1E0E2E4FAE7BA
S11304B002C005900D92AE3CB107D9F72AE0AEEC2C
S11304C0B3E001C01D92A637B207E1F70E94782875
S11304D00C941F3D95CD8F982FE788E391E0215030
S11304E080409040E1F700C000008F9A2FEF84E332
S11304F09CE0215080409040E1F700C000007698D5
S11305008FE097E20197F1F700C000000895CF92C1
S1130510DF92EF92FF921F93CF93DF938823C1F171
S11305202FEF80E792E0215080409040E1F700C037
S11305300000E3E9F6E010821182128214827F0146
S11305400F2EF3EDCF2EF6E0DF2EF02DEF011C2F52
S11305501E190E945B269C012227232B31F0E12FD8
S1130560F0E0ED56F94F108204C08993CC15DD05F7
S113057071F783E996E00E94BA29809193068F343B
S113058049F081E0909195069D3329F080E003C005
S113059081E001C081E0DF91CF911F91FF90EF9046
S11305A0DF90CF9008951F93CF93DF93EC01162F24
S11305B00E947426112321F089E691E00E94BA2951
S11305C08881882331F021960E94792689918111AE
S11305D0FBCF8DE00E9479268AE00E947926812F44
S11305E096DFDF91CF911F910895EF92FF920F93C1
S11305F01F93CF93DF93CDB7DEB7A4970FB6F894CC
S1130600DEBF0FBECDBF182F062F84E2EBEAF1E068
S1130610DE01119601900D928A95E1F760E08AE778
S113062091E0C1DF8FEC97E00197F1F700C0000083
S1130630112314F41F7702E0143711F401E018E2D7
S11306401F921F931F920F930F2EF3E8EF2EF1E0EA
S1130650FF2EF02DFF92EF928E010F5F1F4F1F931D
S11306600F930E94103A60E0C8019DDF8FEC97E081
S11306700197F1F700C000001F921F921F921F9272
S1130680FF92EF921F930F930E94103A60E0C8010B
S11306908ADF0FB6F894DEBF0FBECDBFA4960FB6A7
S11306A0F894DEBF0FBECDBFDF91CF911F910F91A4
S11306B0FF90EF9008950FDF2FEF89E698E1215026
S11306C080409040E1F700C0000081E020DF61E05D
S11306D08FEC91E068DF2FEF89E698E121508040AC
S11306E09040E1F700C0000081E08093D3060895B4
S11306F0CF9380916D0A8430E1F72FEF84E39CE07F
S1130700215080409040E1F700C000008BED91E063
S11307100E94BA29D0DF61E08AE791E044DFC82F64
S113072061E089EE91E03FDF61E08FEC91E03BDF37
S113073061E087EF91E037DF2FEF84E39CE0215005
S113074080409040E1F700C0000061E08CE092E05E
S11307502ADF61E086E292E026DF8C2FCF910895B4
S113076061E086E292E01FCF08958091D306089558
S1130770CF93DF9300D000D0CDB7DEB78DE494E4FF
S1130780ADE3B0E089839A83AB83BC838CE292E0CF
S11307900E94BA292FEF89E698E1215080409040C9
S11307A0E1F700C0000060E08AE791E0FCDE61E070
S11307B085E392E0F8DEBE016F5F7F4F83E996E048
S11307C00E94C939BE016F5F7F4F80E090E00E94B4
S11307D0C939009741F0FC018181803321F461E043
S11307E08BE392E0E0DE81E00F900F900F900F908A
S11307F0DF91CF91089581E492E00E94BA2940E408
S113080050E060E070E08BED96E00E94CE3C40E466
S113081050E060E470E089E29AE00E94CE3C40E45B
S113082050E060E870E086E297E00E94CE3C40E44D
S113083050E060EC70E086EE97E00E94CE3C40E42D
S113084050E060E071E087E697E00E94CE3C609162
S11308501E0785E092E00E94BC3C6091250786E07B
S113086092E00E94BC3C6091D50687E092E00E9431
S1130870BC3C6091A70788E092E00E94BC3C609178
S1130880E50789E092E00C94BC3C0895CF93DF9394
S11308901092A8070E94762DD82F8EEE91E00E9428
S11308A0392A2FEF87EA91E6215080409040E1F702
S11308B000C000000E94762DC82FD81307C08DEB0E
S11308C091E00E94392A1092A80723C08CE492E098
S11308D00E94BA2981E08093A807C093240783E685
S11308E092E00E94BA2983E690E022E07C9B209368
S11308F0A807EFE5FAEE3197F1F700C00000019781
S1130900A9F78091A807823021F481E992E00E943E
S1130910BA297E9903C081E08093A8076091A80753
S113092083E092E00E94BC3C6091240784E092E062
S11309300E94BC3C81E09091A807911101C080E025
S1130940DF91CF9108952FEF81EE94E02150804004
S11309509040E1F700C000000E94A32B90E00097B4
S1130960D9F30895CF93DF93EB01423081F4FB0177
S1130970EA5DF84F80838AEA92E00E94BA2962E035
S11309808EE20E9476298C2F0E94422A19C044309C
S113099081F4FB01E75DF54F808380EB92E00E94D8
S11309A0BA2962E08EE20E9476298C2F0E94422AA4
S11309B007C0FB01E552F94F8083862F0E94422A2B
S11309C02FEF84E39CE0215080409040E1F700C089
S11309D00000DF91CF9108951F93CF93DF9384E2BA
S11309E092E00E94392A60E08CE20E947629ABDF13
S11309F0EC010E94982A182FDD27482FBE018AE2B5
S1130A00B1DF12FD04C0CA51D84F88E0888360E08A
S1130A1088E20E94762983EB92E00E94BA2960E082
S1130A208CE20E9476298FDFEC010E94982ABE0195
S1130A307727482F89E296DF60E088E20E947629D2
S1130A4087EB92E00E94BA2960E08CE20E9476294A
S1130A507ADFEC010E94982A182FDD27482FBE0167
S1130A608BE280DF12FD09C0FE01EA51F84F89E0F4
S1130A708083C959D84F84E7888360E088E20E9464
S1130A80762983E492E00E94392A60E08CE20E9495
S1130A90762959DFEC01DD2740E0BE0188E262DF00
S1130AA0CA51D84F8DE0888360E088E20E9476299D
S1130AB083E392E00E94392A60E08CE20E94762966
S1130AC084E790E040DFBC01772740E088E24ADF1A
S1130AD060E088E20E9476298EE292E00E94392A40
S1130AE060E08CE20E9476292EDFBC01772740E08B
S1130AF084E738DF60E088E20E94762989E492E0A6
S1130B000E94392A60E08CE20E9476291CDFEC0105
S1130B10DD2740E0BE018CE225DFCA51D84F80E2D8
S1130B20888360E088E20E947629DF91CF911F914B
S1130B30089580916D0A8430E1F72FEF89E698E1FA
S1130B40215080409040E1F700C0000082E592E02F
S1130B500E94392A99B181E09295917098279093D7
S1130B60250799B196FB992790F998279093D50674
S1130B7099B19095991F9927991F9093A70793B1BD
S1130B809295917089278093E50780DE81EC92E04D
S1130B900E94392A8AEA92E00E94BA2910921E071A
S1130BA060E08CE20E947629CEDE9FEF980F9830A9
S1130BB028F480931E070E94422A04C08BE992E025
S1130BC00E94392A60E088E20E94762905DF13DE5C
S1130BD08CEA90E00C94392A08954F925F926F92B8
S1130BE07F928F929F92AF92BF92CF92DF92EF92B9
S1130BF0FF920F931F93CF93DF930E94E52DC09133
S1130C006D0AC430E1F72FEF89E698E12150804066
S1130C109040E1F700C000008DE993E00E94392A7A
S1130C2089E893E00E94392A60E088E20E947629EC
S1130C308DE092E00E94AF3CD82F87E793E00E94BA
S1130C40392AD23099F018F4D13031F019C0D930A2
S1130C5041F0DD3081F014C089E193E00E94392A2B
S1130C6013C08EE593E00E94392A0EC083E093E01E
S1130C700E94392A09C088E393E00E94392A04C0FB
S1130C808BEB92E00E94BA2983EF92E00E94392A0A
S1130C9099B181E09295917098279093250799B125
S1130CA096FB992790F998279093D50699B190953A
S1130CB0991F9927991F9093A70793B192959170C3
S1130CC089278093E507E2DD7D9918C08091D606D7
S1130CD0882339F01092D6068DE692E00E94392AD4
S1130CE007C081E08093D60685E892E00E94392A05
S1130CF06091D6068FE092E00E94BC3C81EC92E0C9
S1130D000E94392AD5E00F2EFEE1EF2EF02D02C00D
S1130D10CF5FDF5F62E08C2F0E94762960E08CE277
S1130D200E94762910DE8C010E94982AF82E112741
S1130D30482F4D7FB8018C2F15DECF3039F4F801E0
S1130D40E75DF54FE082F2FCE1C102C0F2FC0CC0A9
S1130D50F801E959F84F8CE38D0F8083F801EA51CB
S1130D60F84F8CE58D0F808360E088E20E9476293D
S1130D70DE3170F20F2EFBEECF2EF2E0DF2EF02DDF
S1130D8000E010E0F601E1906F0160E08E2D0E941A
S1130D90762960E08CE20E947629D5DDEC010E9480
S1130DA0982AF82EDD27482F4D7FBE018E2DDADDDF
S1130DB0F2FC15C0FE01EA51F84FD801AF51BD4F06
S1130DC08C918083FE01E959F84FD801A952BD4F97
S1130DD08C918083C75DD54F8AE3800F888360E060
S1130DE088E20E9476290F5F1F4F0A30110551F6E1
S1130DF083EC92E00E94BA2960E08CE20E9476299A
S1130E00A2DDEC010E94982ABE017727482F8AE3CD
S1130E10A9DD60E088E20E94762986EC92E00E94D7
S1130E20BA2960E08CE20E9476298DDDEC010E94F3
S1130E30982ABE017727482F84E494DD60E088E295
S1130E400E9476298AEC92E00E94BA2960E08CE242
S1130E500E94762978DDEC010E94982ABE0177274A
S1130E60482F85E47FDD60E088E20E9476298AEAE3
S1130E7092E00E94BA2960E08CE20E94762963DD48
S1130E809FEF980F983028F480931E070E94422AFF
S1130E9004C08BE992E00E94392AFFEF24E38CE03E
S1130EA0F15020408040E1F700C0000060E088E29B
S1130EB00E9476291EE2CDE20F2EFEE2DF2EF02DF7
S1130EC00FE30F2EFFE24F2EF02D0F2EFDE25F2ECB
S1130ED0F02D0F2EFAE26F2EF02D0F2EF0E67F2E5E
S1130EE0F02D0F2EFEE78F2EF02D0F2EFDE39F2EFB
S1130EF0F02D0F2EFBE2AF2EF02D0F2EFBE3BF2EB5
S1130F00F02D0F2EFAE3CF2EF02D02C0CF5F1F5F1E
S1130F10C233E1F360E08C2F0E94762960E08CE21A
S1130F200E94762910DD7C010E94982AD82FFF2484
S1130F30482FB7018C2F16DDD2FD4DC0C33349F4C1
S1130F40F701EA51F84FB082F701E959F84FC0822E
S1130F5016C0CE3249F4F701EA51F84F9082F701F6
S1130F60E959F84FA08216C0C53349F4F701EA5194
S1130F70F84F7082F701E959F84F808216C0CD32DC
S1130F8049F4F701EA51F84F5082F701E959F84F53
S1130F90608217C0C83349F4F701EA51F84F408220
S1130FA0F701E959F84F008316C0C63351F4F7012D
S1130FB0EA51F84F8CE28083F701E959F84F008336
S1130FC00AC0C73341F4F701EA51F84FD082F70160
S1130FD0E959F84FD08260E088E20E9476291933FB
S1130FE008F494CF62E08FE10E94762960E08CE2FD
S1130FF00E947629A8DCEC010E94982A9E013327DE
S1131000823071F4F901E959F84F80E480838AEA67
S113101092E00E94BA2962E08EE20E94762907C01B
S113102082FD05C0F901EA51F84F80E480838C2FDA
S11310300E94422A60E088E20E9476299FEFE4E35E
S1131040FCE09150E040F040E1F700C0000062E0B5
S113105088E30E94762960E08CE20E94762973DCA2
S1131060EC010E94982A9E013327823071F4F90121
S1131070E959F84F8FE380838AEA92E00E94BA2903
S113108062E08EE20E94762907C082FD05C0F90164
S1131090EA51F84F8FE380838C2F0E94422A60E04C
S11310A088E20E9476292FEF84E39CE0215080405F
S11310B09040E1F700C0000062E08EE90E947629CA
S11310C060E08CE20E9476293EDCEC010E94982AC2
S11310D0182FDD27482FBE018EE944DC123029F495
S11310E0C959D84F81E2888306C012FD04C0CA5191
S11310F0D84F81E2888360E088E20E9476296CDC24
S11311007ADB8CEA90E00E94392A05C060E088E22C
S11311100E947629FDCDDF91CF911F910F91FF9011
S1131120EF90DF90CF90BF90AF909F908F907F9083
S11311306F905F904F900895CF9381E092E00E946A
S1131140AF3C8093660782E092E00E94AF3C8093BC
S1131150D90680E092E00E94AF3C80931D07809105
S11311606D0A8430E1F72FEF89E698E12150804041
S11311709040E1F700C0000081EA91E00E94392A22
S113118083E891E00E94392A7E99FECF83E591E0BD
S11311900E94392A809166070E94422A60E088E210
S11311A00E9476291AC07C990BC0809166078F5FD4
S11311B0809366070E94422A60E088E20E947629B2
S11311C07D990BC0809166078150809366070E94C9
S11311D0422A60E088E20E9476297E99E4CF85E382
S11311E091E00E94392A8091D9060E94422A60E047
S11311F088E20E9476291AC07C990BC08091D90696
S11312008F5F8093D9060E94422A60E088E20E94A0
S113121076297D990BC08091D90681508093D90697
S11312200E94422A60E088E20E9476297E99E4CFF7
S113123087E091E00E94392A80911D070E94422A8A
S113124060E088E20E9476291AC07C990BC08091E4
S11312501D078F5F80931D070E94422A60E088E289
S11312600E9476297D990BC080911D07815080933F
S11312701D070E94422A60E088E20E9476297E9936
S1131280E4CF87EE90E00E94392A80911C070E94E7
S1131290422A60E088E20E9476291AC07C990BC039
S11312A080911C078F5F80931C070E94422A60E094
S11312B088E20E9476297D990BC080911C07815099
S11312C080931C070E94422A60E088E20E947629EB
S11312D07E99E4CF8DEB90E00E94392A8091D70665
S11312E0882329F08EEC92E00E94BA291AC082ED7C
S11312F092E00E94BA2915C07C9906C01092D706C4
S113130082ED92E00E94BA297D9906C0C093D70667
S11313108EEC92E00E94BA297C9BFECF7D9BFCCF91
S113132001C0C1E07E99E8CF60911D0780E092E0A2
S11313300E94BC3C6091D90682E092E00E94BC3CD1
S11313406091660781E092E00E94BC3C60911C07BA
S11313508CE092E00E94BC3C6091D7068EE092E063
S11313600E94BC3C8CEA90E00E94392ACF910895F7
S1131370E4E6F0E08081877F80838AE080938100C7
S113138087E28093890080E180938800EFE6F0E0B3
S113139080818260808308952098289A54985C9A6A
S11313A056985E9A57985F9A24982C9A2B9A239869
S11313B02B9A2A9A22982A9A6A9A25982D9A299AD7
S11313C02198299A599A519A55985B9A539A529806
S11313D05A9A84988C9A85988D9A86988E9A8F9822
S11313E0879A479A3F9A8198899A769A6E9A469AEA
S11313F03E9A2E9A269A0895F8949FEF9093D100DE
S11314001092BF0090E29093CF00613061F4E4EC5D
S1131410F0E090819E7F9083E0ECF0E090819F7BF0
S1131420908346980AC0E4ECF0E090819160908348
S1131430E0ECF0E0908190649083E0ECF0E0908147
S113144092609083E2E7F0E0908194609083813031
S113145049F028F0823061F0833071F011C089E0E6
S11314608093C100E1ECF0E08081886080830DC04E
S113147087E08093C10009C086E08093C10005C065
S1131480E1ECF0E08081886080831092D4061092B1
S1131490BF001092BE00789408951F920F920FB669
S11314A00F9211248F939F93EF93FF938091CF001A
S11314B09091D406992319F0923049F00CC08F3FD3
S11314C021F491E09093D40612C08F5F10C08F3F37
S11314D071F08F5F0CC0811109C0E0ECF0E09081E5
S11314E09F7B90831092C100469A01C081508093E3
S11314F0CF00FF91EF919F918F910F900FBE0F90AE
S11315001F901895292F332723303105C9F03CF457
S11315102130310559F02230310569F036C02132CD
S1131520310549F12232310559F12FC082E190E0B1
S113153029E434E033C089E390E020E134E02EC0B4
S113154099278130910559F08230910571F0892BEA
S113155009F5ECE0F4E0849190E09F011FC0E4EE13
S1131560F3E0849190E09F0119C0E2EBF3E08491F1
S113157090E09F0113C089E090E029E334E00EC0BD
S11315808FE390E02BE534E009C080E090E020E0B8
S113159030E004C080E090E020E030E0FA013183E4
S11315A020830895CF9342E160E071E085ED93E0FC
S11315B00E949F1D85ED93E00E94542085ED93E0E9
S11315C00E94952042E160E071E085ED93E00E9485
S11315D09F1DC82F4091DF035091E0036091E10308
S11315E07091E20385ED93E00E94A5208C2FCF91AA
S11315F0089585ED93E00E94542085ED93E00C94CA
S11316009520089541E069E771E085EF93E00E9439
S11316104C1D91E0811101C090E0892F08958091C3
S1131620D1039091D203A091D303B091D403892B19
S11316308A2B8B2BC1F4E5EFF3E0A2814289538915
S1131640648975899A01AB01225031094109510914
S1131650B0E00E9429396093D1037093D203809340
S1131660D3039093D4036091D1037091D2038091FA
S1131670D3039091D4030895FF920F931F93CF93B4
S1131680DF9300D0CDB7DEB709E218E0F80101908E
S11316900020E9F73197E952F840FA83E983409151
S11316A0DF035091E0036091E1037091E20385ED63
S11316B093E00E94A52049815A819E012F5F3F4FEC
S11316C0B80185ED93E00E94B91EF82EF80110824E
S11316D085ED93E00E94542081E0F11001C080E088
S11316E00F900F90DF91CF911F910F91FF9008956C
S11316F0CF9388DF882321F08AE08093280820C0D4
S113170089E0E5EFF2E0A0E0B1E001900D928A9566
S1131710E1F7CCE047DFEEEFF2E0A9E2B8E08C2F8E
S113172001900D928A95E1F7A7DF63DF2FEF80E741
S113173092E0215080409040E1F700C00000EACFE1
S1131740CF910895E9E2F8E001900020E9F731979C
S1131750E952F840E63F91E0F90708F04BC08D30BC
S1131760D1F59091D0039D3049F0DF01A75DB74FCB
S113177090E29C93E65DF74F10823AC09F0121509E
S11317803109D901A75DB74F9C919032B1F4D901C9
S1131790A75DB74F4DE04C93DF01A75DB74F9AE0CB
S11317A09C93DF01A65DB74F4C93DF01A55DB74F56
S11317B09C93E45DF74F10821BC0DF01A75DB74F18
S11317C09DE09C93DF01A65DB74F9AE09C93E55D95
S11317D0F74F10820DC0883021F4E85DF74F108276
S11317E007C0DF01A75DB74F8C93E65DF74F10820A
S11317F08093D0030895CF92DF92EF92FF920F93DC
S11318001F93CF93DF93CDB7DEB766970FB6F894E7
S1131810DEBF0FBECDBF10922908F4DE882321F06D
S11318208AE080932808BBC061E080E0E5DD8AE0BF
S113183092E00E94B73C8C018031974210F000E0A6
S113184010E00F2EFAE0CF2EF3E0DF2EF02D0F2E56
S1131850F0E0EF2EF1E0FF2EF02D0F5F1F4F1F93EE
S11318600F93DF92CF92FF92EF920E94103ABE0143
S11318706F5F7F4FC7010E945C220F900F900F9003
S11318800F900F900F90882341F3843021F08AE069
S11318908093280884C00E94CB2BF82E0E94982A9B
S11318A0682F8F2D0E94612D8823A9F34BDF7ADEE8
S11318B0882321F08AE08093280871C0B8018AE067
S11318C092E00E94E53C10922708109226080F2E01
S11318D0F9E2EF2EF8E0FF2EF02D49C00E94CB2B49
S11318E0182F0E94982A682F812F0E94612D182F8B
S11318F0882301F1833729F480912107811145C0A0
S113190045C0109221071EDF109227081092260866
S11319101D3061F0812F8D7F8C3241F08FED810F6E
S1131920823020F01F3311F01A3321F460E082E09A
S113193063DDA2DE8FEC97E00197F1F700C00000B1
S113194080912608909127088137974180F0F7010C
S11319508081882361F04698FFEF2DE389E4F150FC
S113196020408040E1F700C0000086DE469A809166
S113197026089091270880329F4B08F4AFCF60E08F
S113198082E03ADD79DE35DE0AC010E010922107EC
S1131990812FD8DE1092270810922608BBCF6696B6
S11319A00FB6F894DEBF0FBECDBFDF91CF911F916C
S11319B00F91FF90EF90DF90CF90089523B123B162
S11319C00197E1F70895FC01680F791F919199231C
S11319D014F42A9A01C02A98299A299896FF02C0D9
S11319E02A9A01C02A98299A299895FF02C02A9A0E
S11319F001C02A98299A299894FF02C02A9A01C002
S1131A002A98299A299893FF02C02A9A01C02A98F1
S1131A10299A299892FF02C02A9A01C02A98299AE1
S1131A20299891FF02C02A9A01C02A98299A2998D4
S1131A3090FF02C02A9A01C02A98299A2998E61789
S1131A40F70721F608952A9AFC01680F791F93B1CC
S1131A50299A299893FB992790F9990F1B999F5FCD
S1131A60299A2998990F1B999F5F299A2998990F68
S1131A701B999F5F299A2998990F1B999F5F299A0F
S1131A802998990F1B999F5F299A2998990F1B9957
S1131A909F5F299A2998990F1B999F5F299A2998E2
S1131AA09193E617F70799F608950F931F93CF9331
S1131AB0DF931F92CDB7DEB708E813E161E070E071
S1131AC0CE010196C0DF89818F3F31F084E690E03A
S1131AD075DF0150110991F781E090E0012B11F4B9
S1131AE080E090E00F90DF91CF911F910F910895C6
S1131AF0CF93DF931F92CDB7DEB7599A61E070E0C0
S1131B00CE010196A0DF0F90DF91CF9108950F933E
S1131B101F93CF93DF931F92CDB7DEB7599861E03F
S1131B2070E0CE0101968FDFC0DF8C01892B11F4A8
S1131B30DFDF02C001E010E0C8010F90DF91CF9118
S1131B401F910F910895CF92DF92EF92FF920F931E
S1131B501F93CF93DF9300D0CDB7DEB77C016B0129
S1131B6008EE13E061E070E0CE0101966CDF99812C
S1131B709F3F31F484E690E021DF0150110991F791
S1131B8099819E3F59F4B601C7015DDF62E070E0C0
S1131B90CE01019658DF81E090E002C080E090E041
S1131BA00F900F90DF91CF911F910F91FF90EF90C5
S1131BB0DF90CF900895EF92FF921F93CF93DF931E
S1131BC000D0CDB7DEB77C01162F6FDF009711F17F
S1131BD0198361E070E0CE010196F5DE1D3FC1F08E
S1131BE060E072E0C701EFDE62E070E0CE010196D2
S1131BF02ADF61E070E0CE01019625DF89818F71D3
S1131C0031E020E0853009F030E0832F922F02C0CC
S1131C1081E090E00F900F90DF91CF911F91FF90A2
S1131C20EF900895DF92EF92FF920F931F93CF935B
S1131C30DF93CDB7DEB727970FB6F894DEBF0FBE9C
S1131C40CDBF182F042FF52EE62ED72E88234CF463
S1131C5040E050E0BA0187E3E5DF823008F04FC08E
S1131C601F771C3009F144DF52DF892BD9F0812F13
S1131C7080648A83DB82EC82FD820E831123B9F1B6
S1131C8033C061E070E0CE010196DDDE1AE061E070
S1131C9070E0CE010196D7DE8981882384F5115046
S1131CA0B1F72DC08FEF2BC08CE48A83DB82EC82EA
S1131CB0FD820E8381E08F8366E070E0CE010296A0
S1131CC082DE1C3019F7DDCF87E88F8366E070E091
S1131CD0CE01029678DEDACF81E08F8366E070E091
S1131CE0CE01029670DED2CF183071F3F5CF85E9BC
S1131CF08F8366E070E0CE01029665DEC7CF27963B
S1131D000FB6F894DEBF0FBECDBFDF91CF911F9108
S1131D100F91FF90EF90DF900895811103C080919F
S1131D200D01089581E00895EF92FF920F931F93A0
S1131D30CF93DF9300D000D0CDB7DEB78111A1C01F
S1131D4080E197E23BDE519A599A2998219A299881
S1131D50229A2B9A1AE061E070E0CE01019673DEBC
S1131D601150C9F740E050E0BA0180E05BDF8130F8
S1131D7009F06DC04AEA51E060E070E088E052DFAB
S1131D808130A9F564E070E0CE0101965CDE8B81C0
S1131D90813009F05EC08C818A3A09F05CC008EE9B
S1131DA013E040E050E060E070E489EA3BDF882320
S1131DB041F088EE93E002DE0150110991F7F12C15
S1131DC056C0012B09F449C040E050E0BA018AE34F
S1131DD029DF811144C064E070E0CE01019633DE56
S1131DE0898186FD3EC06894FF24F2F840C040E03B
S1131DF050E0BA0189EA16DF823028F0EE24E39439
S1131E00FF24F39407C00F2EF9EAEF2EF02D689407
S1131E10FF24F1F808EE13E040E050E0BA018E2D03
S1131E2001DF882341F088EE93E0C8DD01501109F9
S1131E3099F7F12C1CC0012BC9F040E052E060E09E
S1131E4070E080E1EFDE882391F0F12C10C0F12CDA
S1131E500EC0F12C0CC0F12C0AC0F12C08C0F12CDE
S1131E6006C00F2EFCE0FF2EF02D01C0F12CF092E5
S1131E70230611E0F11010E010930D0139DE812FDB
S1131E8001C083E00F900F900F900F90DF91CF91DE
S1131E901F910F91FF90EF900895FF920F931F935E
S1131EA0CF93DF93EB0181113BC080910D0180FD45
S1131EB039C08091230683FD09C0012E19E0220F49
S1131EC0331F441F551F1A95D1F7102D02301105E9
S1131ED028F40F2EF1E1FF2EF02D04C00F2EF2E1B5
S1131EE0FF2EF02DBA01A9018F2D9CDE811112C0A5
S1131EF060E072E0CE0127DE892B21F0DE5F015025
S1131F001109B1F782E1F81205C040E050E0BA01CE
S1131F108CE088DEEDDD81E0012B29F480E003C054
S1131F2083E001C083E0DF91CF911F910F91FF9077
S1131F300895CF92DF92EF92FF920F931F93CF9366
S1131F40DF93EB0169017A01811149C080910D0190
S1131F5080FD47C08091230683FD09C00B2EB9E0A4
S1131F60CC0CDD1CEE1CFF1CBA95D1F7B02D013052
S1131F70110589F4B701A60188E154DE811129C055
S1131F806EEFCE0118DE31E020E0892B09F030E05D
S1131F90032F122F1EC0867029F0A80160E070E0A4
S1131FA087E940DEB701A60189E13CDE811111C059
S1131FB06CEFCE0100DE892B21F0DE5F01501109A8
S1131FC0B9F76DEF80E090E0F6DD892B11F401E0C4
S1131FD010E08EDD81E0012B29F480E003C083E072
S1131FE001C083E0DF91CF911F910F91FF90EF909B
S1131FF0DF90CF9008950F931F93CF93DF93CDB7C6
S1132000DEB760970FB6F894DEBF0FBECDBF811167
S113201098C080910D0180FD96C08A01613061F005
S113202020F0633009F47AC084C071DD11E0892B9B
S113203009F484C010E082C040E050E0BA0189E0B5
S1132040F1DD811178C060E170E0CE0101967BDDA5
S1132050892B09F472C0898182958695869583704F
S1132060813031F588858F7390E0A0E0B0E0DC0129
S1132070992788270196A11DB11D298530E0322FAB
S113208022274A85240F311D820F931FA11DB11DE4
S1132090072E7AE0880F991FAA1FBB1F7A95D1F7E4
S11320A0702DF80180839183A283B38310E046C02E
S11320B089858295869586958370288590E0F4E0DD
S11320C02F9F800D911D11249C012F5F3F4F9F81F5
S11320D09370892F90E0982F8827990F990F820F7A
S11320E0931FA0E0B0E02E81322F3F702B85221F7A
S11320F02227221F230F3A853370330F230F2750D3
S113210004C0880F991FAA1FBB1F2A95D2F7F80194
S113211080839183A283B38310E010C080E890E0B1
S1132120A0E0B0E0FA0180839183A283B38310E03E
S113213005C014E003C011E001C011E0D9DC812F17
S113214003C083E001C083E060960FB6F894DEBF5D
S11321500FBECDBFDF91CF911F910F910895CF9303
S1132160DF9342305105C0F0DB01FC019A01CD91AF
S1132170DD91C193D1932250310922303105B8F752
S11321809A01225031092E7F2E5F3F4F820F931FF9
S1132190620F731F417055274115510549F0DB014A
S11321A0FC01480F591F9D919193E417F507D9F746
S11321B0DF91CF9108950F931F93DC01FB01628D92
S11321C0738D80E090E02C91233059F404891589B3
S11321D020E030E0980111270027602B712B822B1F
S11321E0932B1F910F9108950F931F93CF93DF9318
S11321F0EB01FB013996DC011E964D915D916D91C9
S11322007C915197452B462B472BA9F152964D9122
S11322105C915397DA0180E090E06EE235EE01962E
S11322202D91203251F0253009F4232F8930910566
S113223011F460833196208331968B30910579F7C0
S1132240DA011B968C911B9788875C960D911D91E2
S11322502D913C915F97088319832A833B83589679
S11322608D919C9159979D838C8356968D919C91C9
S113227057979F838E831082DF91CF911F910F9187
S11322800895CF93DF93EC01A881B9811097F9F0F9
S11322904C91413258F04A3331F1FD0131969F019E
S11322A09191913228F09A33D1F704C0942F9D0173
S11322B09A3381F4CD0101962817390771F440331C
S11322C079F41296B983A88380E090E00EC08FEF72
S11322D09FEF0BC080E090E008C08FEF9FEF05C038
S11322E08FEF9FEF02C09D01E5CFDF91CF9108955D
S11322F08F929F92AF92BF92CF92DF92EF92FF9212
S11323000F931F93CF93DF93FC012481222309F4BD
S113231044C0EC01C2A4D3A4E4A4F5A45C01FEE28D
S1132320AF0EB11C01E010E0A7019601B50189814F
S113233000DE811134C01C828E8D9F8DA8A1B9A1AD
S1132340B701A601481B590B6A0B7B0B8E899F8929
S1132350A88DB98D481759076A077B0710F58B803C
S1132360912C82E088169104F0F08E899F89A88DC3
S1132370B98DC80ED91EEA1EFB1E01E010E0A701AC
S11323809601B5018981D5DDE1E08E1A9108F1E06D
S11323908F16910451F780E007C080E005C081E00A
S11323A003C080E001C080E0DF91CF911F910F91C5
S11323B0FF90EF90DF90CF90BF90AF909F908F9061
S11323C008958F929F92AF92BF92FF920F931F93A3
S11323D0CF93DF93EC014A015B018AA59BA5ACA5D1
S11323E0BDA584179507A607B707D9F0CE0180DFEE
S11323F0F82E811117C001E010E0A5019401BE017F
S1132400625D7F4F898149DD882331F0FF24F39495
S113241088248A94982C54018AA69BA6ACA6BDA6AF
S113242001C0F12C8F2DDF91CF911F910F91FF905F
S1132430BF90AF909F908F900895CF93DF93EC015E
S11324401C828FEF9FEFDC018AA79BA7ACA7BDA7D7
S1132450CE01B7DF811123C0FE01E45DFD4F808111
S1132460918185359A4AE9F4E85CF1408081918153
S1132470A281B381BB2786349144A445B10599F068
S1132480C058DF4F488159816A817B81772781E079
S1132490463451446445710539F480E005C083E055
S11324A003C082E001C080E0DF91CF9108950097DE
S11324B0C1F0DC01ED91FC9111973097A1F02081DE
S11324C0222399F02681378112968D919C9113973E
S11324D02817390761F4818120DC80FD0AC080E07F
S11324E0089589E0089589E0089589E0089589E0D0
S11324F0089583E008952F923F924F925F926F92D6
S11325007F928F929F92AF92BF92CF92DF92EF927F
S1132510FF920F931F93CF93DF93CDB7DEB76D97E1
S11325200FB6F894DEBF0FBECDBF6C01CB01B42E45
S1132530D6011D921C92A5DE7C0199230CF400C2E5
S1132540FC01EE0FFF1FEA5DF94F008111810115B7
S1132550110509F4F7C1F60111830083D8018C91A8
S1132560882361F011968C91D8DB80FD07C0BB20D5
S113257009F4EAC182FFEAC18AE08AC2F801108242
S1132580E1828E2DD1DB80FDE3C1BB2009F400C2C2
S113259082FDE0C1FDC18081882329F044805580FB
S11325A06680778004C04E2C5F2C672E762ED9016E
S11325B04D925D926D927D929D017096E417F507A0
S11325C051F74E01B1E18B0E911C6894772471F898
S11325D0F501C190D190E190F1905F01C114D10453
S11325E0E104F10439F0B701A601C80126DF811125
S11325F002C008C0872DA814B90451F703C0C12C28
S1132600D12C7601833009F4A7C18111A7C1D80167
S1132610D9968D919C91DA978115924009F0A0C1C9
S1132620F801EC5BFF4F40805180612C712C411408
S113263051046104710429F43E9640805180628003
S11326407380F801468A578A608E718EA6ADA38383
S11326508FEF8A0F823008F085C1F3ADF98B2F2FED
S1132660F8012283222309F47FC1822F90E09C0188
S11326702150310982239323892B09F077C1FF96D6
S113268020803180F80131862086C1018F7099271E
S1132690892B09F06DC1EF5BFF4F80809180A12CE5
S11326A0B12C81149104A104B10429F43D968080D5
S11326B09180A280B380F80104ACF5ADE02D309791
S11326C009F458C1B0E0A30192010E9429396A8F2C
S11326D07B8F8C8F9D8F9F0140E050E02E8B3F8B32
S11326E0488F598FC101929582958F7089279F7069
S11326F08927280F391F411D511DDA01C9012A8D6F
S11327003B8D4C8D5D8D280F391F4A1F5B1F2A8B13
S11327103B8B4C8B5D8B82169306A406B50608F49E
S11327202BC1C501B401621B730B840B950BE989A2
S11327302E2F30E040E050E00E940739DA01C90151
S1132740211531054105510509F418C1263FFFE063
S11327503F074105510518F0E2E0E98B02C0F1E0C2
S1132760F98B863F9F4FA105B10508F028C14901A7
S11327705A0182E0880E911CA11CB11CD80152960A
S11327808D929D92AD92BC925597F801C28ED38ED4
S1132790E48EF58E8E899F89A88DB98D8C0D9D1D33
S11327A0AE1DBF1D868F978FA0A3B1A34A895B89F5
S11327B06C897D894C0D5D1D6E1D7F1D46A357A33D
S11327C060A771A7F989F33069F5232809F0D8C007
S11327D0F801E65AFF4F80819181A281B381F8010B
S11327E082A393A3A4A3B5A3880C991CAA1CBB1C05
S11327F0880C991CAA1CBB1CFFEF8F0EF1E09F1ED6
S1132800A11CB11C072E79E0B694A79497948794E1
S11328107A95D1F7702D481459046A047B0408F49E
S1132820B1C01EC1232809F4AFC02A8D3B8D4C8D45
S11328305D8D820F931FA41FB51FF80182A393A37C
S1132840A4A3B5A3F989F23029F4880C991CAA1C15
S1132850BB1CF0C0A3E0B0E0A50194010E9429399B
S1132860DC01CB01B695A7959795879521E0822247
S11328709924AA24BB24880E991EAA1EBB1EDAC062
S1132880B701A6014F5F5F4F6F4F7F4FC80199DDBE
S1132890811139C0D80115961C92F801E45DFD4FF1
S11328A08081918185359A4A89F5F80186A597A595
S11328B0A0A9B1A982359245A146B14451F5F801C8
S11328C0EE5EFD4F80819181A281B3818237924770
S11328D0A144B14609F5349680819181A281B381E6
S11328E0F80186879787A08BB18BE65EFD4F8081C8
S11328F09181A281B381F80182879387A487B587E8
S1132900F3E0F98B0BC0E3E0E98B08C0F3E0F98B4B
S113291005C0E3E0E98B02C0F3E0F98BE989D80153
S1132920EC938091240690912506019690932506B8
S11329308093240617969C938E93169780E0A8C0E4
S11329408BE0A6C08CE0A4C080E0A2C080E0A0C060
S113295083E09EC08AE09CC081E09AC08DE098C06C
S11329608DE096C08DE094C08DE092C08DE090C063
S11329708DE08EC08DE08CC08DE08AC08DE088C073
S11329808DE086C08DE084C08DE082C08DE080C083
S113299040E050E0BA01C80150DD813009F02FCE8B
S11329A0F801E051FE4F9E012F5F3F4F5901A801EE
S11329B0405D5D4FE12CF12C70E060E0ECCD49010D
S11329C05A0162E0860E911CA11CB11CD8015296DA
S11329D08D929D92AD92BC925597F801C28ED38E82
S11329E0E48EF58E8E899F89A88DB98D8C0D9D1DE1
S11329F0AE1DBF1D868F978FA0A3B1A38A899B8923
S1132A00AC89BD898C0D9D1DAE1DBF1D86A397A3EA
S1132A10A0A7B1A7DACE8FEF9FEFDC01F80186877C
S1132A209787A08BB18B82879387A487B58780E82B
S1132A30858374CFFFEF8F0EF1E09F1EA11CB11CA4
S1132A40072E79E0B694A794979487947A95D1F752
S1132A50702D481459046A047B0408F497CFDBCF23
S1132A608FEF9FEFDC01F80186879787A08BB18BEE
S1132A7082879387A487B58780E88583E25AFF4FCE
S1132A8080819181019709F4FBCEF3E0F98B46CF65
S1132A906D960FB6F894DEBF0FBECDBFDF91CF9118
S1132AA01F910F91FF90EF90DF90CF90BF90AF9068
S1132AB09F908F907F906F905F904F903F902F905A
S1132AC008950F931F93CF93DF93EC0111DC982F9C
S1132AD0811159C08881833009F04CC08D818130C7
S1132AE009F048C0BE01625D7F4FFB01CE01825DEB
S1132AF09D4F1192E817F907E1F785E59AEAFE017F
S1132B00E45DFD4F9183808382E592E5A1E6B1E423
S1132B108EA79FA7A8ABB9AB82E792E7A1E4B1E681
S1132B207A9780839183A283B3838E859F85A889B6
S1132B30B989349680839183A283B3838A859B85E4
S1132B40AC85BD85349680839183A283B3838A8DBB
S1132B509B8DAC8DBD8D9C01AD012F5F3F4F4F4FC1
S1132B605F4F2AA73BA74CA75DA701E010E089812E
S1132B70E0D91D8240E050E060E089813CDA91E0D8
S1132B80811101C090E0892FDF91CF911F910F91A6
S1132B900895CF92DF92EF92FF92FC019A01AB016C
S1132BA02250310941095109C288D388E488F58843
S1132BB082E0C81AD108E108F1082C153D054E053C
S1132BC05F0568F4A281B0E00E942939C6A0D7A0AD
S1132BD0E0A4F1A46C0D7D1D8E1D9F1D03C060E05B
S1132BE070E0CB01FF90EF90DF90CF900895AF920B
S1132BF0BF92CF92DF92EF92FF920F931F93CF93E6
S1132C00DF93EC016A017B014230510561057105D6
S1132C1008F4A7C08A899B89AC89BD8948175907DC
S1132C206A077B0708F0A2C08881823009F44BC090
S1132C30833009F469C0813009F09DC08A0116957A
S1132C400795040F151FC801892F992786954E8D66
S1132C505F8D68A179A1480F591F611D711DCE01B7
S1132C60B0DB81118DC058018FEFA81AB80A11701A
S1132C70FE01E00FF11F16A5C501892F992786953E
S1132C804E8D5F8D68A179A1480F591F611D711D7B
S1132C90CE0197DB811178C081E0B822CA0DDB1D1B
S1132CA08EA5612F70E0782BC0FE09C072956295E5
S1132CB06F7067277F70672780E090E070C07F7037
S1132CC080E090E06CC0452F562F672F77278E8DBC
S1132CD09F8DA8A1B9A1480F591F6A1F7B1FCE0160
S1132CE070DB811155C0CC0CDD1CEE1CFF1CE8947C
S1132CF0C0F881E0D822EE24FF24CC0DDD1D6EA5A2
S1132D007FA580E090E04BC08E8D9F8DA8A1B9A1D6
S1132D10689416F876956795579547951694D1F764
S1132D20480F591F6A1F7B1FCE014BDB811134C032
S1132D30CC0CDD1CEE1CFF1CCC0CDD1CEE1CFF1CA3
S1132D408CEFC82281E0D822EE24FF24FE01EC0D92
S1132D50FD1D86A597A5A0A9B1A9BC01CD019F70B1
S1132D601EC061E070E080E090E019C061E070E0B6
S1132D7080E090E014C061E070E080E090E00FC07B
S1132D806FEF7FEFCB010BC06FEF7FEFCB0107C07D
S1132D906FEF7FEFCB0103C06FEF7FEFCB01DF91CC
S1132DA0CF911F910F91FF90EF90DF90CF90BF9044
S1132DB0AF900895AF92BF92CF92DF92EF92FF92BD
S1132DC00F931F93CF93DF93EC018B017D836C836F
S1132DD0CE80DF80E884F98481E0C816D104E10460
S1132DE0F10409F48AC0E881F98182899389A4896C
S1132DF0B589C816D906EA06FB0608F080C0C114D6
S1132E00D104E104F104C1F48081833041F482A14E
S1132E1093A1A4A1B5A10097A105B10559F480859A
S1132E2091850817190708F06CC062A173A184A1E9
S1132E3095A135C06C017D01A28080E1A89E50015E
S1132E4011240A151B0530F1B701A6018881998167
S1132E50CEDE6B017C018FEFC816D806E806F806B3
S1132E6009F451C082E0C816D104E104F10408F465
S1132E704CC0E881F98182899389A489B589C816EF
S1132E80D906EA06FB0608F042C00A191B090A150E
S1132E901B05D0F6B701A601888199817ADECA861E
S1132EA0DB86EC86FD86611571058105910589F146
S1132EB09801329522952F7023273F702327DC0138
S1132EC0CB01820F931FA11DB11D8E879F87A88BF5
S1132ED0B98B0F701127000F111F02951295107FE7
S1132EE01027007F1027025D1F4F88819981800F72
S1132EF0911F9B8B8A8B80E00DC082E00BC082E027
S1132F0009C082E007C081E005C082E003C082E01E
S1132F1001C082E0DF91CF911F910F91FF90EF905C
S1132F20DF90CF90BF90AF9008954F925F926F92D1
S1132F307F928F929F92AF92BF92CF92DF92EF9245
S1132F40FF920F931F93CF93DF93EC016A017B01F0
S1132F5028013901423051056105710508F4D2C0D8
S1132F608A899B89AC89BD89481759076A077B07F9
S1132F7008F0CAC08881823009F462C0833009F441
S1132F8085C0813009F0C2C05A01B694A794A40E3A
S1132F90B51EC501892F992786954E8D5F8D68A131
S1132FA079A1480F591F611D711DCE010ADA182F2E
S1132FB08111CAC045018FEF881A980A31E0B32203
S1132FC0C0FE20C0FE01EA0DFB1D86A5282F2F7030
S1132FD030E1439EC0011124822B86A781E08C83BB
S1132FE04E8D5F8D68A179A1C401892F992786959B
S1132FF0480F591F611D711DCE01E3D9882309F4BF
S11330008BC086C0FE01EA0DFB1D46A681E08C83C1
S11330104E8D5F8D68A179A1C401892F992786956A
S1133020480F591F611D711DCE01CBD9882309F4A6
S11330307EC070C0EC0FFD1F46A681E08C8384C067
S1133040452F562F672F77278E8D9F8DA8A1B9A165
S1133050480F591F6A1F7B1FCE01B3D9182F811146
S113306073C0CC0CDD1CEE1CFF1CE894C0F881E09E
S1133070D822EE24FF243EE2C30ED11CFE01EC0D47
S1133080FD1D5182408281E08C835EC08E8D9F8DB8
S1133090A8A1B9A1689416F87695679557954795B0
S11330A01694D1F7480F591F6A1F7B1FCE0189D987
S11330B0182F811149C0CC0CDD1CEE1CFF1CCC0C5C
S11330C0DD1CEE1CFF1C8CEFC82281E0D822EE240C
S11330D0FF243EE2C30ED11CFE01EC0DFD1D8081D8
S11330E09181A281B38188279927AA27B07F482A92
S11330F0592A6A2A7B2A408251826282738281E041
S11331008C8322C012E020C012E01EC012E01CC05A
S1133110182F1AC0182F18C0F401F170689413F80E
S113312076946794579447941694D1F783CFF40117
S1133130F170DE01AE0FBF1F9E969C91907F852D8E
S11331408F70492E482A76CF812FDF91CF911F911E
S11331500F91FF90EF90DF90CF90BF90AF909F9032
S11331608F907F906F905F904F9008952F923F9231
S11331704F925F926F927F928F929F92AF92BF9283
S1133180CF92DF92EF92FF920F931F93CF93DF932F
S1133190EC012A013B014115510561057105B9F4A2
S11331A08A849B84AC84BD8481149104A104B104F9
S11331B059F18A899B89AC89BD8988169906AA0622
S11331C0BB0630F1812C912C5401839421C00FDD76
S11331D06B017C01623071058105910508F496C08C
S11331E08FEFC816D806E806F80609F494C08A8951
S11331F09B89AC89BD89C816D906EA06FB0608F482
S11332008FC05301420104C0812C912C540183943A
S1133210750164016894222421F8312C00E010E047
S11332202FEFC21AD20AE20AF20A8A899B89AC8970
S1133230BD89C816D906EA06FB0658F082E088164E
S11332409104A104B10408F470C0C22CD32CE02E64
S1133250F12EB701A601CE01CADC61157105810505
S1133260910599F06F3F2FEF72078207920709F4D7
S113327061C0613071058105910509F460C0C8140D
S1133280D904EA04FB0461F65FC08C2C9D2CAE2C9F
S1133290BF2C0FEF1FEF2FEF3FE0B701A601CE01C8
S11332A044DE81112CC0411451046104710451F0B5
S11332B00C2D1D2D2E2D3F2DB301A201CE0135DE87
S11332C081111DC08A869B86AC86BD868E859F85AE
S11332D0A889B9898F3F2FEF9207A207B207C9F1D6
S11332E00197A109B1098E879F87A88BB98B8D811E
S11332F081608D836C2D7D2D8E2D9F2D33C081306B
S113330069F161E070E080E090E02CC061E070E081
S113331080E090E027C06FEF7FEF8FEF9FEF22C038
S11333206C2D7D2D8E2D9F2D1DC060E070E080E002
S113333090E018C06FEF7FEF8FEF9FEF13C061E055
S113334070E080E090E00EC060E070E080E090E02B
S113335009C06C2D7D2D8E2D9F2D04C06FEF7FEF46
S11333608FEF9FEFDF91CF911F910F91FF90EF901F
S1133370DF90CF90BF90AF909F908F907F906F9091
S11333805F904F903F902F9008957F928F929F92DD
S1133390AF92BF92CF92DF92EF92FF920F931F935F
S11333A0CF93DF93DC011496CD91DC911597219690
S11333B009F403C11E968D909D90AD90BC905197D9
S11333C081149104A104B10409F4F9C07B018C01B6
S11333D06E01BFE0CB22DD24C114D10409F0D1C0B9
S11333E0EFEF8E1A9E0AAE0ABE0ADC011E968D927B
S11333F09D92AD92BC9251971A964D915D916D91AB
S11334007C911D97411551056105710549F4ED91B4
S1133410FC9180859185C817D90708F0D2C0B1C046
S1133420DC01ED91FC91228130E021503109CE0183
S1133430929582958F7089279F7089272823392335
S1133440232B09F09EC0CF01D2DB4B015C0162301B
S113345071058105910508F4B6C06F3F7F4F8F4F0A
S11334609F4F09F4B2C0D801ED91FC9182899389F0
S1133470A489B58988169906AA06BB0608F470C003
S1133480EF2809F4A4C0D8011A964D915D916D916D
S11334907C911D97CF016ADE4B015C0161157105BA
S11334A08105910509F495C0613071058105910587
S11334B009F491C06F3F7F4F8F4F9F4F09F48DC028
S11334C0D8018D919C910E947811811188C0F801D6
S11334D080819181FC01BE96825D9D4F1192E81717
S11334E0F907E1F7D801ED90FC90B501A401C701FB
S11334F050DBF70162A773A784A795A7E12CF12CF1
S11335007724739419C07482D8018D919C910E9480
S11335107811811166C0D801ED91FC9182A593A523
S1133520A4A5B5A50196A11DB11D82A793A7A4A723
S1133530B5A7BFEFEB1AFB0AD801ED91FC9182818C
S113354090E0E816F906F8F282A593A5A4A5B5A51E
S11335508E199F09A109B10982A793A7A4A7B5A7AA
S1133560F80182869386A486B586B501A40180817C
S113357091810FDBD8011E966D937D938D939C935F
S11335805197F801D583C483CC0CDD1CCC0CDD1C15
S1133590CC0CDD1CCC0CDD1CCC0CDD1CFEE2CF0EF7
S11335A0D11CD8018D919C911197C80ED91E5396A8
S11335B0DC92CE92529780E015C084E013C084E080
S11335C011C084E00FC082E00DC081E00BC084E034
S11335D009C087E007C082E005C081E003C081E044
S11335E001C081E0DF91CF911F910F91FF90EF9087
S11335F0DF90CF90BF90AF909F908F907F90089571
S11336002F923F924F925F926F927F928F929F92EE
S1133610AF92BF92CF92DF92EF92FF920F931F93DC
S1133620CF93DF9300D000D01F92CDB7DEB78C01CB
S11336307B01DB018C918F3211F08C3519F4BFEFD3
S1133640EB1AFB0AF8011682178210861186D7013D
S11336508C91803240F460E070E0C801ABDBF8018B
S1133660138A128A32C16894BB24B5F8A12C812C28
S11336706894772473F8512C612C7A825B820F2E24
S1133680F8E12F2EF3E03F2EF02D1D830C83598299
S1133690F7012C813D81AF0181918F32E1F38C35AB
S11336A0D1F33D832C83F901A489B589FD01CD01B2
S11336B00B96B192E817F907E1F73D832C83CA2CE6
S11336C0D82C2A2D382D472C5980962C8A018C8190
S11336D09D815D834C837C012F5F3F4FEC81FD8195
S11336E06191FD83EC83613208F4D5C06F3209F433
S11336F0CBC06C3509F4C8C06E3209F4B2C0C4142E
S1133700D50408F0A2C00AC0990C990CCA80DB80C9
S11337100F2EFBE04F2EF02D512CDECF66230CF044
S1133720A6C0F92DF3609F2EE62FF0E0EA55FD4F79
S113373060819DC08191882309F4A0C090E048175E
S11337405907C1F786E0C1C0892D8260982E08C050
S11337508FE9860F8A3120F4992D9160992E605259
S1133760FD01EC0DFD1D6083F60131966F01B4CFB0
S1133770CD2809F46CC09C91953E11F4F5E0FC93BE
S113378098E04916510411F4990C990C992D9370F1
S1133790913009F48061992D9C70943009F488600B
S11337A01B968C936A2D782D8C819D8103DB81116E
S11337B081C00C811D81D8011E964D915D916D9142
S11337C07C9151978D919C910E94E111811174C05B
S11337D0F80162897389DB019C919923E9F01B96B6
S11337E09C9193FD12C044895589FB01DA019B0128
S11337F0255F3F4F680104C0E217F30709F452C084
S113380011919D911917C1F386016A2D782DC80174
S1133810BCDD882381F250C00488F589E02D9385AE
S113382092FD17C085E051C0FB01838584FF13C05E
S1133830AC81BD818D919C910E94DB10EC81FD8156
S1133840668377838087918723CF86E03EC086E0B6
S11338503CC084E03AC085E038C086E036C086E0EB
S113386034C0F8E04F16510409F44ECFF6CF462F7A
S113387050E04232510599F3F1015CCF8FEB860F92
S11338808A3108F461CF64CFFD82EC827801E20EC4
S1133890F31E862D6DCFFD82EC827801E20EF31EBD
S11338A084E066CFDD82CC82DA011B969C9192FF84
S11338B0BBCF0BC00C811D81D8015496ED91FC91B6
S11338C055979385843009F4ABCF0F900F900F90E8
S11338D00F900F90DF91CF911F910F91FF90EF9078
S11338E0DF90CF90BF90AF909F908F907F906F901C
S11338F05F904F903F902F9008950F931F93CF9315
S11339008C0160E070E056DAC82F811146C0D801FE
S11339101E964D915D916D917C9151978D919C91E5
S11339200E94E111C82F811138C0D8015296ED913F
S1133930FC9153978081853E51F0882341F061E0EA
S113394070E0C80122DDC82F882309F326C0F801DE
S11339504685578560897189808191810E94E11132
S1133960C82F81111DC0D8015296ED91FC91539737
S1133970CF0180961192E817F907E1F7F8016489FD
S113398075894BE050E0828993890E94AF10D80179
S1133990ED91FC9181E0848303C0C43009F4C7E055
S11339A08C2FCF911F910F9108958F929F92AF9278
S11339B0BF92CF92DF92EF92FF920F931F93CF9318
S11339C0DF93EC016A017B01423051056105710509
S11339D008F44CC08A899B89AC89BD89481759076A
S11339E06A077B0708F044C035C0B701A601CE01C1
S11339F0FED84B015C01672B682B692BD9F181E060
S1133A0088169104A104B104B9F12FEF821692062D
S1133A10A206B20699F100E010E09801B701A601F0
S1133A20CE0183DA81112BC08E859F85A889B9893F
S1133A308F3F2FEF9207A207B20751F00196A11D05
S1133A40B11D8E879F87A88BB98B8D8181608D83F3
S1133A50750164018A899B89AC89BD89C816D90618
S1133A60EA06FB0608F4C1CF80E009C082E007C083
S1133A7082E005C080E003C082E001C081E0DF9104
S1133A80CF911F910F91FF90EF90DF90CF90BF9057
S1133A90AF909F908F9008951F93CF93DF9300D0A2
S1133AA000D000D0CDB7DEB79C838B837E836D833B
S1133AB0142F7A836983CE0101960E9441119923C0
S1133AC034F1FC01EE0FFF1FEA5DF94F0190F08124
S1133AD0E02D309709F01082EB81FC813097E9F0FA
S1133AE010822B813C81880F991FFC01EA5DF94FFC
S1133AF031832083232B69F0113069F440E0BE0147
S1133B006B5F7F4FCE0103960E947B120EC08BE049
S1133B100CC080E00AC080E008C0880F991FFC0137
S1133B20EA5DF94F1182108280E026960FB6F89470
S1133B30DEBF0FBECDBFDF91CF911F9108953F929D
S1133B404F925F926F927F928F929F92AF92BF92A9
S1133B50CF92DF92EF92FF920F931F93CF93DF9355
S1133B60CDB7DEB7A4970FB6F894DEBF0FBECDBFB6
S1133B707CA36BA3009709F4BAC0D42E8C01FC017A
S1133B80118210824E71BE016D5D7F4FCE01019690
S1133B900E947B128111D5C0FD2DFF713F2ECE01F5
S1133BA047969E8B8D8B6BA17CA1469729DDEB8874
S1133BB0FC8881119EC0E114F10409F0A4C09EC0E8
S1133BC0843009F0B0C0CE01019697DE232D286021
S1133BD0322EEB88FC88882341F09DC0F701838551
S1133BE0817109F0ABC0D2FCABC033FE98C080E059
S1133BF090E0A9E6B5E4F70186879787A08BB18B9F
S1133C001386148E158E168E178EC980DA80B7012E
S1133C10C6010E94DB102B013C01F701138E128EAA
S1133C20158A148A81E0F6018483411451046104E5
S1133C30710409F474C082A493A4A4A4B5A4B30128
S1133C40A201C601B2DE811166C089819A81F1E0C8
S1133C504F1A510861087108FC0142865386648634
S1133C607586B501A4010E94E111882331F069C071
S1133C70D1FE55C080FD4CC052C0F32DF0623F2EE2
S1133C80E981FA8182A593A5A4A5B5A5F801828F3F
S1133C90938FA48FB58FF78EE68EF8013482158248
S1133CA0C980DA80B701C6010E94DB10F80166877B
S1133CB07787808B918BF701848D958DA68DB78D39
S1133CC0F80182879387A487B587168217821086A6
S1133CD01186168A178A108E118ED182C082F6013F
S1133CE086819781F8019383828380E02AC089E0EA
S1133CF028C04D2D4C7109F063CF0DC04D2D4C7172
S1133D0089F486E008C08D2D8C7109F067CF11C04D
S1133D1087E001C084E0882309F4BFCF12C033FCDC
S1133D20ACCFAECF86E0F32DF8603F2EEB88FC8855
S1133D30F2CFF701838584FDEDCF9ACF87E001C0F0
S1133D4088E0A4960FB6F894DEBF0FBECDBFDF9116
S1133D50CF911F910F91FF90EF90DF90CF90BF9084
S1133D60AF909F908F907F906F905F904F903F9017
S1133D7008952F923F924F925F926F927F928F920B
S1133D809F92AF92BF92CF92DF92EF92FF920F93E6
S1133D901F93CF93DF93EC014B016A015901F901A1
S1133DA0118210820E94571281116BC18D81811181
S1133DB068C18C8181FF64C18E819F81A885B9858A
S1133DC0AC01BD014C0D5D1D611D711D48175907E6
S1133DD06A077B0708F43EC1C114D10409F43AC14F
S1133DE04E815F8168857985DB01CA019170AA27BC
S1133DF0BB27892B8A2B8B2B09F0E6C0E881F9813C
S1133E0012811150DB01CA01072E79E0B695A795FE
S1133E10979587957A95D1F7702D182309F040C0AE
S1133E20452B462B472B79F46E857F8588899989A4
S1133E30611571058105910591F440E050E0BA01E6
S1133E40CF0194D906C04A895B896C897D89CF01E9
S1133E508DD9611571058105910509F4FBC06130A7
S1133E6071058105910519F482E08D830AC16F3FC4
S1133E70FFEF7F078F079F0719F481E08D8301C14E
S1133E806A8B7B8B8C8B9D8B4E845F84688879884E
S1133E9045284628472821F46E877F87888B998B8D
S1133EA0E881F98142A553A564A575A58E899F89EA
S1133EB0A88DB98D481759076A077B0741F4CF01CC
S1133EC00E947811882319F081E08D83DAC028805C
S1133ED039804A895B896C897D89C1010E94C91531
S1133EE0611571058105910519F482E08D83C9C0BE
S1133EF02B013C01410E511C611C711C7601EF2CFD
S1133F00FF24E694E114F10409F43FC0F101428175
S1133F10242F30E0C701810F911D2817390718F4A9
S1133F207901E11AF1088701A3019201B401F101B9
S1133F3081810E94990F882319F081E08D83A1C0AB
S1133F40E881F98182A593A5A4A5B5A5841995094D
S1133F50A609B709A70160E070E084179507A607D2
S1133F60B70778F4982F8827990FB401680F791F41
S1133F7040E052E0CF018E960E94AF10E881F981B3
S1133F801482FE2CEE24FF0C4CC04E815F816885A8
S1133F9079858A859B85AC85BD85481759076A074D
S1133FA07B0770F0C1010E947811882319F081E029
S1133FB08D8367C0E881F98142A653A664A675A6DD
S1133FC04E8A5F8A688E798E2E813F81317080E0BF
S1133FD092E0821B930B76018C159D0508F47C01FD
S1133FE04E895F89688D798D888199810E94E1115C
S1133FF0882319F081E08D8344C08E819F81A88538
S1134000B9859170AA27BB278E9628813981A7018B
S1134010B401820F931F0E94AF10E881F98121E05F
S113402024838E0C9F1C8E819F81A885B9858E0D5B
S11340309F1DA11DB11D8E839F83A887B987F5019C
S1134040808191818E0D9F1D91838083CE18DF081E
S113405009F0C6CE8E819F81A885B9854A855B8586
S11340606C857D85481759076A077B0720F48A8782
S11340709B87AC87BD878C8180628C8380E001C084
S113408087E0DF91CF911F910F91FF90EF90DF9028
S1134090CF90BF90AF909F908F907F906F905F90E4
S11340A04F903F902F900895CF93DF93EC010E949F
S11340B05712811137C09C8195FF34C04A8D5B8DA6
S11340C06C8D7D8D888199810E94E11181112AC0B6
S11340D0EE8DFF8D8385806283878A859B85AC8581
S11340E0BD85848F958FA68FB78F8E859F85A88970
S11340F0B989938F828FB58BA48B80E090E0A9E679
S1134100B5E4868B978BA08FB18F138A128A8C812A
S11341108F7D8C83E881F98181E084838881998112
S11341200E946115DF91CF910895CF93DF93EC0145
S1134130BBDF811107C0CE010E945712811102C05A
S113414019821882DF91CF9108952F923F924F9256
S11341505F926F927F928F929F92AF92BF92CF9213
S1134160DF92EF92FF920F931F93CF93DF9300D0D0
S113417000D0CDB7DEB71C016A017B010E94571243
S1134180811183C1D10115968C91159781117DC13F
S11341901A968D919D910D90BC91A02D8C159D0525
S11341A0AE05BF0530F4F101248121FD02C06C018C
S11341B07D01D10116964D905D906D907C9019977C
S11341C0F1011682178210861186C114D104E1040C
S11341D0F10409F457C100811181D80112968C9021
S11341E0912CA12CB12C072E79E0880C991CAA1CC7
S11341F0BB1C7A95D1F7702D4114510461047104EC
S113420009F43FC0B1E04B1A510861087108C701B5
S1134210B6016150710981099109A50194010E94B7
S1134220073929833A834B835C83C301B201A50117
S113423094010E94073989819A81AB81BC818217DC
S11342409307A407B507E8F088279927DC018819A4
S11342509909AA09BB09482259226A227B22D10161
S113426016964D925D926D927C921997C418D5085A
S1134270E608F70852964D915D916D917C915597A2
S113428032C0F10146855785608971894115510510
S11342906105710519F540E050E0BA01C8010E94BA
S11342A0B618AB01BC01413051056105710529F413
S11342B082E0D10115968C93E8C04F3FBFEF5B07B6
S11342C06B077B0721F481E0F1018583DEC0D10116
S11342D01E964D935D936D937C935197F101428BA0
S11342E0538B648B758B411551056105710509F478
S11342F094C08C149D04AE04BF0408F05CC0D101CA
S113430014968C91149781FF0CC08D919C910E94FE
S1134310B618AB01BC01411551056105710541F4A5
S113432048C0F101808191810E94F715AB01BC0165
S11343304F3FFFEF5F076F077F0729F481E0D1014B
S113434015968C93A2C0423051056105710560F049
S1134350D101ED91FC9182899389A489B58948178B
S113436059076A077B0720F082E0F10185838DC03D
S1134370D10152964D935D936D937C935597169608
S11343808D919D910D90BC91A02D880D991DAA1D14
S1134390BB1DF10186839783A087B187C818D9080C
S11343A0EA08FB088C149D04AE04BF0408F4A7CFEC
S11343B002C075016401F10186819781A085B185F0
S11343C08C0D9D1DAE1DBF1D86839783A087B1876D
S11343D0D701C6019170AA27BB27892B8A2B8B2B67
S11343E001F1808191810E94C915611571058105D2
S11343F0910529F482E0D10115968C9346C00B2EC9
S1134400B9E0F694E794D794C794BA95D1F7B02D50
S1134410C60ED71EE81EF91E07C0C12CD12C76018A
S113442003C0C12CD12C7601F10186819781A0852E
S1134430B185AC01BD01517066277727452B462B0A
S1134440472B69F046895789608D718D4C155D0540
S11344506E057F0521F0C68AD78AE08EF18EF101C0
S11344604285538564857585481759076A077B0714
S113447058F482879387A487B58784818062848374
S113448080E003C080E001C080E00F900F900F90A7
S11344900F90DF91CF911F910F91FF90EF90DF90DC
S11344A0CF90BF90AF909F908F907F906F905F90D0
S11344B04F903F902F900895EF92FF921F93CF93C8
S11344C0DF93CDB7DEB7A4970FB6F894DEBF0FBE67
S11344D0CDBF9CA38BA37B0140E0BE016D5D7F4FEC
S11344E0CE0101960E947B12182F811119C0CE01B2
S11344F047969E8B8D8B6BA17CA1469781D8182FF4
S113450081110EC08B899C89892B49F0E114F10437
S113451039F0B701CE0101960E94F41001C016E0F3
S1134520812FA4960FB6F894DEBF0FBECDBFDF91E6
S1134530CF911F91FF90EF900895BF92CF92DF9299
S1134540EF92FF920F931F93CF93DF93EC01B62E5C
S1134550C8A0DF8CEE8CFD8C0BA11AA10E940F0B5E
S1134560C616D706E806F90668F0E0E1F1E08081B6
S1134570807F85608083EEE0F1E081E284871586A8
S113458080E028C0BB2031F09801B701A601CE011C
S1134590BFD205C09801B701A601CE011BD2C80144
S11345A0A0E0B0E0072E79E0880F991FAA1FBB1F77
S11345B07A95D1F7702D4C895D896E897F898A013E
S11345C09B01081B190B2A0B3B0B0C8B1D8B2E8B91
S11345D03F8B81E0DF91CF911F910F91FF90EF907E
S11345E0DF90CF90BF900895CF92DF92EF92FF9229
S11345F00F931F93CF93DF93CDB7DEB728970FB6F2
S1134600F894DEBF0FBECDBF8C01FC01938D9D31AC
S113461009F4DBC088F4923109F138F4992309F4E0
S113462046C1933009F45AC05CC19A3109F421C1DE
S11346309B3109F436C155C1983209F402C138F4EA
S11346409E3109F42EC1953209F476C04AC19A32DA
S113465009F4DFC09F3209F424C143C1F801E78C97
S1134660F68C948D937019F4858D882361F0E0E1C4
S1134670F1E08081807F85608083EEE0F1E084E278
S11346808487158649C16701F5E2EF16F10428F025
S11346900F2EF4E2CF2ED12CF02D40E050E0B601E5
S11346A086EA93E00E94633260E070E0C7018C19EF
S11346B09D090E941432E8EEF0E080818E778083B9
S11346C0F80184899589A689B7898C199D09A1095E
S11346D0B109848B958BA68BB78B11C1F801F78C2C
S11346E0EF2CF2E1FF1520F40F2EF2E1EF2EF02D66
S11346F0CE2CD12C40E050E0B6018EE091E00E9437
S113470063328F2D90E060E070E08C199D090E9467
S11347101432E8EEF0E080818E778083F80184899A
S11347209589A689B7898E199109A109B109848B44
S1134730958BA68BB78BE3C04AD2882321F0809156
S11347402808813069F0E0E1F1E08081807F8260B7
S11347508083EEE0F1E08AE38487158680E0DDC0A3
S113476080E092E0A0E0B0E089839A83AB83BC83CD
S11347700E940F0BDC01CB010197A109B1098D83C4
S11347809E83AF83B88740E050E064E070E0CE01E0
S113479005960E94C03240E050E064E070E0CE0133
S11347A001960E94C032E8EEF0E080818E7780832B
S11347B0F80184899589A689B7890897A109B1095F
S11347C0848B958BA68BB78B9AC0F801848D82FD60
S11347D00CC0E0E1F1E08081807F85608083EEE0C1
S11347E0F1E084E28487158697C0F1D181110BC072
S11347F0E0E1F1E08081807F84608083EEE0F1E09D
S11348001486158689C0F801148A158A168A178AAF
S113481076C0DDD1882321F080912808813069F0A9
S1134820E0E1F1E08081807F82608083EEE0F1E06E
S11348308AE38487158680E070C060E0C8017DDE6D
S11348405CC0C5D1882321F080912808813069F0AB
S1134850E0E1F1E08081807F82608083EEE0F1E03E
S11348608AE38487158680E058C061E0C80165DE6C
S113487044C0E1EFF0E01082108210821082E8EE72
S1134880F0E080818E778083F80184899589A689F8
S1134890B7890497A109B109848B958BA68BB78B33
S11348A02EC0F801148A158A168A178A28C08FD157
S11348B0882321F080912808813069F0E0E1F1E05B
S11348C08081807F82608083EEE0F1E08AE38487E8
S11348D0158680E022C0F801148A158A168A178A80
S11348E00EC0E0E1F1E08081807F85608083EEE0AE
S11348F0F1E080E2848715860FC0882359F0E0E157
S1134900F1E08081807F8083EEE0F1E014861586FB
S113491081E003C080E001C080E028960FB6F894DF
S1134920DEBF0FBECDBFDF91CF911F910F91FF90DE
S1134930EF90DF90CF90089580E00E94940E811153
S113494004C081E0809328060895109228060895F3
S11349500F931F93CF93DF938C01EB019091E800A9
S113496095FD09C0E8EEF0E080818B7780830E949A
S1134970EF35811128C0A1EFB0E08C91F801EC0F64
S1134980FD1F80838C9181838C9182838C9183839E
S11349908C9184838C9185838C9186838C9187837D
S11349A08C9180878C9181878C9182878C9183876D
S11349B08C9184878C9185878C9186878C9187874D
S11349C080E190E002C080E090E0DF91CF911F9100
S11349D00F9108956F927F928F929F92AF92BF92A0
S11349E0CF92DF92EF92FF920F931F93CF93DF93B7
S11349F07C014A015B0169010E94EF35811136C0D7
S1134A00C114D10449F1612C712C2E98C62DD72DD7
S1134A10BE0189E298E09CDFC80FD91F90916D0A0E
S1134A20943021F5F70190AD911120C0C115F2E049
S1134A30DF0770F301E010E0A501940169E278E07A
S1134A4080E00E94990F8FEF881A980AA80AB80A82
S1134A50E1E0CE1AD108C9F68091E80085FD05C0D1
S1134A60E8EEF0E080818B7780832E9ADF91CF91FE
S1134A701F910F91FF90EF90DF90CF90BF90AF9078
S1134A809F908F907F906F900895EF92FF920F9375
S1134A901F93CF937C018B019091E800C92FC072C2
S1134AA095FD09C0E8EEF0E080818E7780830E9456
S1134AB0EF35811126C0F701E00FF11F8081A1EFCE
S1134AC0B0E08C9381818C9382818C9383818C93CD
S1134AD084818C9385818C9386818C9387818C933C
S1134AE080858C9381858C9382858C9383858C932C
S1134AF084858C9385858C9386858C9387858C930C
S1134B00C0E18C2FCF911F910F91FF90EF900895EA
S1134B106F927F928F929F92AF92BF92CF92DF92C9
S1134B20EF92FF920F931F93CF93DF937C014A017F
S1134B305B0169010E94EF3581113AC0C114D104AF
S1134B4069F1612C712C2E9801E010E0A50194010B
S1134B5069E278E080E00E944D0FC62DD72DBE019A
S1134B6089E298E092DFC80FD11DF70190AD911151
S1134B701FC090916D0A943021F08AE08093280838
S1134B8017C0C115F2E0DF0750F38FEF881A980AB7
S1134B90A80AB80AE1E0CE1AD108A9F68091E80083
S1134BA085FD05C0E8EEF0E080818E7780832E9A43
S1134BB0DF91CF911F910F91FF90EF90DF90CF90F5
S1134BC0BF90AF909F908F907F906F900895809149
S1134BD0280608951F920F920FB60F9211242F9357
S1134BE08F939F93EF93FF938091C8002091CE0001
S1134BF08871E0912B06EF5FEF7390912A06E91715
S1134C0039F0E0932B06F0E0E25DF94F208301C018
S1134C1082E090912906892B80932906FF91EF91D8
S1134C209F918F912F910F900FBE0F901F90189509
S1134C301F920F920FB60F9211248F939F93EF93AD
S1134C40FF9390912D0680912C06981769F0E091BE
S1134C502C06EF5FEF70E0932C06F0E0E259F94F79
S1134C6080818093CE0005C0E9ECF0E080818F7DE7
S1134C708083FF91EF919F918F910F900FBE0F90C2
S1134C801F90189510922D0610922C0610922B0648
S1134C9010922A06992324F422E02093C8009F77D7
S1134CA09093CD008093CC0088E98093C90086E07E
S1134CB08093CA00089590912B0680912A06981734
S1134CC081F0E0912A06EF5FEF73E0932A06F0E0AB
S1134CD0E25DF94F8081909129061092290690E0B7
S1134CE0089580E091E0089510922B0610922A0610
S1134CF0089520912D062F5F2F7090912C0629176F
S1134D00E1F3E22FF0E0E259F94F808320932D067E
S1134D10E9ECF0E080818062808308951F920F9215
S1134D200FB60F9211242F933F934F935F936F937A
S1134D307F938F939F93AF93BF93EF93FF93809150
S1134D401F079091200701969093200780931F07D7
S1134D5080912608909127080196909327088093C4
S1134D60260880912808813079F0809128088D30B8
S1134D7059F080E391E00E94D93080E291E00E94F2
S1134D80C12F0E94DA3803C081E08093D806FF91D6
S1134D90EF91BF91AF919F918F917F916F915F91AF
S1134DA04F913F912F910F900FBE0F901F90189528
S1134DB08091D806813059F480E391E00E94D93083
S1134DC080E291E00E94C12F0E94DA3815C08091E0
S1134DD0D806833039F480E291E00E94C12F0E940A
S1134DE0DA380AC08091D806823031F480E391E049
S1134DF00E94D9300E94DA381092D806089584B7F8
S1134E00877F84BF0FB6F894A8958091600088616D
S1134E1080936000109260000FBE85B7806885BFE4
S1134E2085B7806885BF85B7806885BF85B780688A
S1134E3085BF90E080E80FB6F8948093610090936A
S1134E4061000FBE0E94B8090E94CC092FE788E3D5
S1134E5091E0215080409040E1F700C0000086E0DE
S1134E6092E00E94AF3C91E0811101C090E09093E8
S1134E70250787E092E00E94AF3C91E0811101C0D8
S1134E8090E09093D50688E092E00E94AF3C91E0D8
S1134E90811101C090E09093A70789E092E00E94FD
S1134EA0AF3C91E0811101C090E09093E507089533
S1134EB008958DDE882319F082E0809328080895F0
S1134EC00895089580E291E00E94AD2F80E391E07F
S1134ED00E94BF30E2EEF0E0808184608083089518
S1134EE080E391E00E94823080E291E0EBC6089575
S1134EF080912E0190912F01009729F001979093B2
S1134F002F0180932E0108956FCB08950F931F9363
S1134F10E0912207F09123078281F901828388239B
S1134F2021F08091DA06808302C0F9011082E091B9
S1134F302207F091230712821092DA0688E090E0AB
S1134F40F8019183808380E01F910F910895F90106
S1134F50808180FF07C0E0912207F091230781E060
S1134F608283089581FF07C0E0912207F09123070F
S1134F7082E08283089582FF06C0E0912207F091C7
S1134F80230784E082830895CF938DE092E00E940A
S1134F90AF3CC82FD8D362E094D57C990DC07D99DD
S1134FA00BC07E9909C081E08093280860E00E94CC
S1134FB0FC0931D6C1E095C07D991FC07E991DC002
S1134FC00E947803882371F00E94B00310921B079B
S1134FD060E080E192E00E94BC3C89E08093280874
S1134FE0C9E07FC010921B0760E080E192E00E945C
S1134FF0BC3C8AE08093280874C07C9906C07D99E3
S113500004C082E0809328086CC07C9906C07E9915
S113501004C086E08093280864C07C9904C085E0BD
S1135020809328085EC07D9904C083E0809328089B
S113503058C07E9904C084E08093280852C0853506
S113504039F481E08093280880932107C1E049C0A6
S1135050833581F4BCDD882341F082E08093280805
S113506081E080932107C2E03CC08AE08093280855
S1135070C2E037C0823461F50E94303680911B074C
S1135080882339F00E94B00389E080932808C9E09E
S113509028C00E947803882381F081E080931B0755
S11350A00E94B00360911B0780E192E00E94BC3C27
S11350B089E080932808C9E014C010921B0760E0BF
S11350C080E192E00E94BC3C8AE08093280809C0F9
S11350D08C3429F48DE080932808CDE002C0C0937D
S11350E028086C2F8DE092E00E94BC3CCF9108957B
S11350F08CE08093280883DEBED52AD500D51CDC3D
S11351000E94883683E390E0BDDD78943DDF1DE0A6
S11351100AE080912808853009F480C074F4823054
S113512009F471C01CF48130C9F0DDC0833009F486
S1135130D5C0843009F439C0D6C08A3009F4B5C06A
S11351403CF4863009F46FC0893009F471C0CBC0D7
S11351508B3009F454C08D3009F0C5C00E94020B95
S11351601AD3C82FE5D1D82F682F8C2F92D4EC2FC7
S1135170F0E0E75DF54F90819111DB7F882351F0DA
S1135180883121F490912107911180E01092210738
S11351906D2FACD08FEC97E00197F1F700C00000C1
S11351A080E291E0EED604DEDBCF0E943036D1E01F
S11351B01092A80789B1C9B129B193B1C6FBCC2714
S11351C0C0F9CD27829581708D27C80F2095221FA5
S11351D02227221FC20F929591709D27C90F86D452
S11351E08C0F80FF03C0469A2E9802C046982E9AD0
S11351F08FEC97E00197F1F700C00000D9CF0E942F
S113520030360E94780B8091D606882311F05D9881
S1135210559A0E9430360E94FB0B7BCF0E94ED050D
S11352201093280876CF0E9499051093280871CF0F
S11352300E94B503813011F00E945B038091D60671
S1135240882311F05D98559A79990FC02E98469A43
S11352500E94B8039FEF27EA81E6915020408040E6
S1135260E1F700C00000799BF1CF2E9A4698799B14
S113527050CF91D2C82F5CD1D82F682F8C2F09D44E
S1135280EC2FF0E0E75DF54F90819111DB7F8823EF
S113529019F06D2F0E94F5028FEC97E00197F1F75A
S11352A000C000007999E5CF34CF0E9430362E9AA1
S11352B046989FEF21EE84E0915020408040E1F732
S11352C000C00000469A2E989FEF21EE84E0915092
S11352D020408040E1F700C00000E9CF0E949C0814
S11352E01093280816CF0093280813CFCF93DF9389
S11352F0C82FD62F1092200710921F070BC0909131
S11353002808913021F0909128089D3019F480E20A
S113531091E037D6E0912207F091230792819923F7
S113532039F020911F07309120072436310538F3D6
S1135330CC2314F4CF77D2E0C43711F4D1E0C8E21F
S1135340F894E0912207F0912307C283D093DA0600
S113535080E291E016D678948FE295E70197F1F711
S113536000C00000F89480E291E00BD67894DF91BD
S1135370CF910895DF92EF92FF920F931F93CF93F3
S1135380DF93FC0101900020E9F73197E81BF90B4A
S11353901E161F060CF065C0EC018C010E0F1F1FBA
S11353A0F12C6894EE24E1F80F2EFEE1DF2EF02DAF
S11353B09991903229F1983231F1993239F19F3231
S11353C041F19F3349F19A3351F19D3059F19A30AB
S11353D061F19E3269F19D3371F1913279F190332B
S11353E081F18FEC890F893020F48DEE890F6F2DB8
S11353F02AC0892F90E00E94BA398D536E2D23C0A4
S11354006F2D8CE220C06E2D86E21DC06E2D87E2CA
S11354101AC06F2D88E317C06E2D88E314C06E2D5B
S113542083E311C06F2D88E20EC06F2D88E20BC09C
S11354306F2D87E308C06F2D8EE205C06E2D8D2D74
S113544002C06F2D87E252DF2FE788E391E02150FD
S113545080409040E1F700C00000C017D10709F078
S1135460A7CFDF91CF911F910F91FF90EF90DF9025
S11354700895BC0189EA97E00E94C23989EA97E05D
S113548079CF08951F93CF93DF93282FCDEC8C9F72
S1135490C12D1124C695C695C695CC0F8C2F880FA7
S11354A0880FC80F822F8C1BC82F822F90E08C1B73
S11354B0910964E670E00E94F4386AE070E00E94AA
S11354C0F438D62F162F283C20F060E08FE10EDF51
S11354D005C0243618F060E08EE108DF112329F0BE
S11354E060E08DE18D0F02DF03C060E087E2FEDE45
S11354F09FEF20E782E0915020408040E1F700C018
S11355000000CC2329F060E08DE18C0FEFDE03C0B6
S113551060E087E2EBDE9FEF20E782E091502040DD
S11355208040E1F700C00000DF91CF911F91089502
S113553080911E07823099F018F4813031F02FC029
S11355408330C1F0843009F12AC099B192959170E9
S113555081E020912507921719F180E021C099B1CB
S113556096FB992790F981E02091D5069217C1F016
S113557080E016C099B1991F9927991F81E0209165
S1135580A707921769F080E00BC093B192959170D0
S113559081E02091E507921719F080E001C080E0D6
S11355A0882311F082E001C080E07C9B81607D9BB8
S11355B084607E9B886008954F925F926F927F9281
S11355C08F929F92AF92BF92DF92EF92FF920F93CE
S11355D01F93CF93DF93F894729A8FEC97E001971F
S11355E0F1F700C00000729878948FEC97E001976F
S11355F0F1F700C00000E0E0F0E0D12CE12CF12C48
S113560010E0D0E0C0E0B0E0A0E01D9913C021E0BC
S113561030E040E050E060E070E080E090E00E2F89
S11356200E943B39D22AE32AF42A152BD62BC72B06
S1135630B82BA92BF894729A9AE19A95F1F700C0C5
S1135640729878948AE68A95F1F700C03196E0332F
S1135650F105D9F68091A8078230F1F42D2D3E2D65
S11356604F2D512F6D2F7C2F8B2F9A2F0CE20E94E0
S11356705639422E532EC201817099272091240756
S113568030E08217930741F0D12CE12CF12C10E08B
S1135690D0E0C0E0B0E0A0E080911E07813049F185
S11356A099B19295917020912507921301C0A0643D
S11356B0823041F199B196FB992790F92091D50652
S11356C0921301C0A062833059F099B1991F9927B0
S11356D0991F2091A707921301C0A0618430D9F0CB
S11356E083B1829581709091E507891314C0A860F5
S11356F012C099B196FB992790F92091D50692137F
S1135700E4CFE0CF99B1991F9927991F2091A7075A
S11357109213E6CFE2CF2D2D3E2D4F2D512F6D2F1D
S11357207C2F8B2F9A2FDF91CF911F910F91FF9098
S1135730EF90DF90BF90AF909F908F907F906F908D
S11357405F904F900895FF920F931F93CF93DF9331
S113575033DFF22E032F142FD52FC62FE72FB82FA8
S1135760F92F8091A8078111EF7E2F2D302F412F23
S11357705D2F6C2F7E2F8B2F9F2FA0E00E947239FC
S113578019F00E94333901C080E0DF91CF911F915D
S11357900F91FF9008952F923F924F925F926F92D4
S11357A07F928F929F92AF92BF92CF92DF92EF92AD
S11357B0FF920F931F93CF93DF9300D01F92CDB727
S11357C0DEB7FADE822E932EA42EB52E162F682E67
S11357D0492E8091A80781117F7E7090D706309062
S11357E01C078FE896E00F2EFAECEF2EF3E0FF2E65
S11357F0F02DE0E0F0E0212C512C9B838A83798307
S11358006F01711013C1F8C0C12CD12CAA81BB81C6
S11358108C91831518F48F5F8C933BC0C601855718
S1135820994FDC018C91811134C021E02C93222406
S113583023942E0E552453942CC0AA81BB818C91A1
S1135840811106C0CF018557994FDC011C9221C0FC
S11358508150AA81BB818C931CC0AFE8B6E08C91C7
S1135860811110C08091900681110CC08091910625
S1135870811108C080919206811104C0ABE8B6E0A2
S11358801C9207C0AA81BB818C91882311F081509E
S11358908C9331968A819B8101969B838A839FEFA7
S11358A0E91AF90AE430F10509F0AACF7981E82C64
S11358B0F92CCA2CBB2DF12FE72FD12C00E0282D79
S11358C0392D4A2D5B2D612F80E090E02F3FAFEF03
S11358D03A074A075A076A077A078105910509F4C6
S11358E05FC080918A068823A9F00FE310E0081BAB
S11358F0110921E030E040E050E060E070E080E039
S11359000E943B39E222F322C422B523F623E72383
S113591000E02EC090918906992351F18091880668
S11359208F5F8093880620911D07821728F01092BC
S11359308806109289061CC00FE310E0091B1109A8
S113594021E030E040E050E060E070E080E090E092
S11359500E943B39209530954095509560957095FF
S1135960E222F322C422B523F623E723D12C00E05C
S11359702E2D3F2D4C2D5B2F6F2F7E2F8D2D902F95
S1135980A0E00E94723961F00E943339882341F00B
S1135990909187069F5F909387061092860608C0B1
S11359A0809186068F5F809386061092870680E03A
S11359B09091660720918706291760F090938706D7
S11359C090918A06891709F44BC080938A06511076
S11359D011C049C08091D90690918606981708F4A1
S11359E03FC08093860680918A0680938906109230
S11359F08A0636C0822D37C0D7010C91282D392D47
S1135A004A2D5B2D612F7981862D942D0E94563964
S1135A10217030E040E050E060E070E080E090E031
S1135A20A0E00E94723909F0EFCE17CFD7010C9194
S1135A30282D392D4A2D5B2D612F7981862D942DAA
S1135A400E945639217030E040E050E060E070E0A0
S1135A5080E090E0A0E00E94723909F0D7CEEDCE4C
S1135A605110C8CF80E00F900F900F90DF91CF912D
S1135A701F910F91FF90EF90DF90CF90BF90AF9068
S1135A809F908F907F906F905F904F903F902F905A
S1135A900895E82F62FF07C0A82FB0E0A75DB54FB7
S1135AA08C9181110DC061FF07C0AE2FB0E0AA5DDB
S1135AB0B84F8C91811104C0F0E0E552F94F808118
S1135AC00895882379F061FF07C0E82FF0E0E959D1
S1135AD0F84F9081911108C0E82FF0E0EA51F84F97
S1135AE08081089580E00895892F08950F9364DDDF
S1135AF00CE20E945639822F81700F91089540E480
S1135B0050E060E070E08BED96E00E949F3C40E442
S1135B1050E060E470E089E29AE00E949F3C40E437
S1135B2050E060E870E086E297E00E949F3C40E429
S1135B3050E060EC70E086EE97E00E949F3C40E409
S1135B4050E060E071E087E697E00C949F3C089594
S1135B5082E092E00E94AF3C8093D90681E092E01B
S1135B600E94AF3C8093660780E092E00E94AF3CC5
S1135B7080931D078CE092E00E94AF3C80931C0749
S1135B8083E092E00E94AF3C8093A80784E092E017
S1135B900E94AF3C8093240785E092E00E94AF3CD2
S1135BA080931E078EE092E00E94AF3C8093D7065C
S1135BB08FE092E00E94AF3C8093D60680E192E0B1
S1135BC00E94AF3C80931B07089580E4EBEDF6E060
S1135BD0DF01982F1D929A95E9F7E9E2FAE0DF01D7
S1135BE0982F1D929A95E9F7E6E2F7E0DF01982FE6
S1135BF01D929A95E9F7E6EEF7E0DF01982F1D92E2
S1135C009A95E9F7E7E6F7E0DF011D928A95E9F74F
S1135C1010921E07089565E080E092E00E94BC3C6B
S1135C2066E081E092E00E94BC3C63E082E092E0A6
S1135C300E94BC3C63E08CE092E00E94BC3C60E0CB
S1135C408EE092E00E94BC3C61E08DE092E00E9414
S1135C50BC3C60E08FE092E00E94BC3C60E070E0FD
S1135C608AE092E00E94E53C60E083E092E00E94DA
S1135C70D73C6ECF0895CF93DF938FEF93E00E94CC
S1135C80AF3C8734E1F0C0E0D0E060E0CE010E9498
S1135C90BC3C2196C13581E0D807B9F7C0E0D2E019
S1135CA060E0CE010E94BC3C2196C23182E0D8075C
S1135CB0B9F7B1DF67E48FEF93E00E94D73CDF913F
S1135CC0CF9108953F924F925F926F927F928F92FD
S1135CD09F92AF92BF92CF92DF92EF92FF920F9377
S1135CE01F93CF93DF9300D01F92CDB7DEB76C0123
