:1000000087C30000A2C30000A0C300009EC300007D
:100010009CC300009AC3000098C3000096C3000070
:1000200094C3000092C300000C9477358EC3000087
:100030008CC300008AC3000088C3000086C3000090
:1000400084C300000C94132780C300007EC300000B
:100050007CC300007AC3000078C3000076C30000B0
:1000600074C300000C946F260C949D266EC3000090
:100070006CC300006AC3000068C3000066C30000D0
:1000800064C3000062C3000060C300005EC30000E0
:100090005CC300005AC3000058C3000056C30000F0
:1000A00054C300000C94A70D50C3000041542B42D0
:1000B000503D30342C30372C30300041542B4354D9
:1000C0000041542B4D440041542B53503D303000DF
:1000D00041542B43500041542B4D543D303000418E
:1000E000542B43443D3030303534300041542B499B
:1000F0004F3D30310041542B494F3D303300415486
:100100002B4D4D3D30320041542B4D4D3D30300094
:1001100041542B46543D46462C30312C46462C311A
:10012000302C30312C303130300041542B42523D94
:1001300030420041542B50463D30302C30312C3071
:10014000300041542B42503D30302C30300041546F
:100150002B55493D30310041542B4E4D3D555342B6
:100160002054797065777269746572204254004E2C
:100170004F20424C5545544F4F5448204D4F445505
:100180004C452044455445435445442E2E2E0D00E5
:100190000D434841523A09434F4E54414354233A88
:1001A0000D00524545440053484946542B005072B7
:1001B00065737320434D442B535041434542415294
:1001C00020746F2073617665206368616E67657364
:1001D00020616E6420657869742E0D00507265731D
:1001E00073204354524C2B535041434542415220BB
:1001F000746F207363726F6C6C206261636B7761E4
:100200007264732E0D005072657373205350414316
:100210004542415220746F207363726F6C6C20747E
:1002200068726F7567682063686172616374657274
:10023000732E0D005072657373205320696620631E
:1002400068616E6765732073686F756C6420617098
:10025000706C7920746F205344206D6F64652E0D8F
:100260000050726573732055206966206368616E63
:100270006765732073686F756C64206170706C794A
:1002800020746F205553422F4254206D6F64652EA9
:100290000D004D414E55414C2043414C4942524185
:1002A00054494F4E204D4F44452E2E2E0D005345A0
:1002B0005454494E4753205341564544210D000D97
:1002C00049474E4F524520454E544552204B4559C3
:1002D000205748454E205350414345424152204902
:1002E000532048454C443F0D000D4E4F5720534579
:1002F000542052454544205245414354494F4E20D5
:1003000054494D452E2E2E0D000D4E4F572053456E
:10031000542044454C4159204245545745454E20B0
:10032000444F55424C45204B45592050524553535C
:1003300045532E2E2E0D000D4E4F57205345542061
:100340004B45592052454C454153452054494D4554
:100350002E2E2E0D005052455353204354524C2004
:10036000414E4420414C5420544F20534554204B7F
:100370004559205245414354494F4E2054494D451B
:100380002E2E2E0D00505245535320434D44204BEA
:10039000455920544F20434F4E54494E55452E2E1B
:1003A0002E0D0041444A555354494E47204B455960
:1003B0002053454E53495449564954592E0D004E29
:1003C0004F2048414C4C2045464645435420534518
:1003D0004E534F522044455445435445442E202803
:1003E0004E4F5420412050524F424C454D290D0054
:1003F000484F4C4420444F574E20414E59204B45C6
:100400005920544F2043414C4942524154452048C1
:10041000414C4C204546464543542053454E534F8E
:10042000522E2E2E0D004241434B53504143450066
:1004300053454E4409005345434F4E4420454E54C6
:1004400045520045534309005441420900454E546A
:1004500045520900535041434542415200515549CC
:10046000434B2043414C4942524154494F4E204D49
:100470004F44452E2E2E0D0044554D4D59204C4FC6
:1004800041442044454143544956415445440D009C
:1004900044554D4D59204C4F4144204143544956F9
:1004A000415445440D002028445552494E4720559B
:1004B00053422F4254204D4F4445293A20202009D1
:1004C000002028445552494E47205344204341526E
:1004D00044204D4F4445293A09004552524F522E6F
:1004E0002E2E5348494654204D5553542042452002
:1004F000412052454544205357495443482E0D004E
:10050000545950452054484520464F4C4C4F57496C
:100510004E47204B455953202850524553532053A2
:100520005041434520544F20534B4950292E2E2EE5
:100530000D0043414C4942524154494E472E2E2E04
:100540000D00534420434152442053544F524147DD
:1005500045204D4F44450D00555342204B455942CF
:100560004F4152442F434152442052454144455249
:10057000204D4F44450D004C49474854204D4F44B1
:10058000452028534420434152442052454144458C
:10059000522044495341424C4544290D00424C5598
:1005A00045544F4F5448204B4559424F41524420E7
:1005B0004D4F44450D0044454641554C542053454C
:1005C0005454494E473A20004649524D57415245EE
:1005D0002056455220352E372E302E454800555393
:1005E0004220545950455752495445522028544DA1
:1005F000290D00444F574E0055500052494748546A
:10060000004C45465400504F525121222324255F6F
:1006100026272829313233343536373839301E1FF2
:100620002021222324252627300355005300420091
:1006300020005400790070006500770072006900A6
:1006400074006500720020004B00650079006200B4
:100650006F00610072006400000026035500530023
:10066000420020005400590050004500570052003D
:10067000490054004500520020004C004C0043004B
:10068000000004030904090239000201008007097F
:100690000400000208065000070583024000050719
:1006A00005040240000509040100010301010009DD
:1006B0002111010001223F000705810308000512F6
:1006C00001100100000008EB03612086000102DC3C
:1006D0000105010906A101050719E029E715002513
:1006E00001750195088102950175088101050819B8
:1006F0000129059505750191029501750391011573
:100700000025FF0507190029FF950675088100C01F
:1007100011241FBECFEFDAE0DEBFCDBF12E0A0E0B4
:10072000B1E0ECE0F8E702C005900D92A03EB10701
:10073000D9F729E0A0EEB2E001C01D92A73BB207B5
:10074000E1F70E94CA280C94043C5ACC0F931F93E3
:10075000CF932FEF80E792E0215080409040E1F767
:1007600000C000001092D7051092D8051092D9054C
:100770001092DB0507ED15E0C0E00E94E0269C0129
:100780002227232B31F0EC2FF0E0E952FA4F1082B0
:100790000AC0CB3319F41092120605C0F8018193F8
:1007A0008F01CF5FEACF9091D7059F3459F08091A8
:1007B000D9058D3339F081E0933429F0923419F062
:1007C00080E001C081E0CF911F910F910895CF93F8
:1007D000DF93C82FD62F87FF02C0CF77D2E0C43770
:1007E00011F4D1E0C8E281EA0E94FE2681E00E9475
:1007F000FE268D2F0E94FE2680E00E94FE268C2F72
:100800000E94FE2680E00E94FE2680E00E94FE26D6
:1008100080E00E94FE2680E00E94FE2680E00E948A
:10082000FE268FEC97E00197F1F700C0000081EA07
:100830000E94FE2681E00E94FE2680E00E94FE26A5
:1008400080E00E94FE2680E00E94FE2680E00E945A
:10085000FE2680E00E94FE2680E00E94FE2680E0C8
:100860000E94FE2680E0DF91CF910C94FE2681EA63
:100870000E94FE2682E00E94FE2688E00E94FE265C
:1008800080E00E94FE268FE097E20197F1F700C01A
:10089000000081EA0E94FE2682E00E94FE2680E09F
:1008A0000E94FE2680E00E94FE2650CF8F982FEBFC
:1008B00084ED91E0215080409040E1F700C00000BD
:1008C0008F9A2FEF84E39CE0215080409040E1F725
:1008D00000C000000895811139CF81E00895FF9292
:1008E0000F931F93CF93DF93F82E092F162F0E949B
:1008F000F926CF2DD02F8991882319F00E94FE264A
:10090000FACF8DE00E94FE268AE00E94FE2681E05A
:10091000112331F0DF91CF911F910F91FF90DBCF29
:10092000DF91CF911F910F91FF900895CF93C62F24
:10093000BC018CEE96E00E948E386C2F8CEE96E017
:10094000CF91CDCF2FEF89E698E1215080409040A4
:10095000E1F700C0000061E082E491E0E7DF2FEF03
:1009600083ED90E3215080409040E1F700C000000B
:10097000089561E08CEA90E0D9CFCF93DF930E9495
:10098000F92683E390E00E94C72690DF2FEF89E6E7
:1009900098E1215080409040E1F700C00000D6DE91
:1009A000882369F1CFDFCAE0D0E061E08AE291E01C
:1009B000BDDF8823C1F02FEF80E792E02150804017
:1009C0009040E1F700C0000088E090E00E94C72658
:1009D000D0DF2FEF80E792E0215080409040E1F798
:1009E00000C000000CC02FEF80E792E02150804053
:1009F0009040E1F700C000002197B9F6DCCF88E015
:100A000090E00E94C72688E090E00E94C72688E018
:100A100090E00E94C72688E090E00E94C7260E94CE
:100A2000F92644DF2FEF8EE994E221508040904078
:100A3000E1F700C000008ADE81E080931306DF91B9
:100A4000CF910895CF9399DF7DDF61E08EE491E04F
:100A50006DDFC82F8EDF8C2FCF9108951F93CF931A
:100A6000DF938BDF6FDFCAE0D0E061E08EE491E0DE
:100A70005DDF81110CC021972FEF80E792E02150BC
:100A800080409040E1F700C00000209771F711E02E
:100A9000209709F410E0CD2B09F438C061E083E31E
:100AA00091E044DF2FEF89E698E1215080409040AB
:100AB000E1F700C0000061E087E591E037DF61E029
:100AC00080E191E033DF8091690161E0882339F0B2
:100AD0008CEE90E02BDF61E08EEF90E006C087E0C7
:100AE00091E024DF61E085EF90E020DF61E08FEDB1
:100AF00090E01CDF61E086ED90E018DF61E087ECBC
:100B000090E014DF61E080ED90E010DF32DF812FB4
:100B1000DF91CF911F91089561E080ED90E006CFC5
:100B2000CF93DF9300D000D0CDB7DEB780916A01BC
:100B300090916B01A0916C01B0916D0189839A83B2
:100B4000AB83BC83FFDE2FEF89E698E12150804024
:100B50009040E1F700C0000060E08EE491E0E6DE46
:100B600061E081EC90E0E2DEBE016F5F7F4F87EDD8
:100B700095E00E949538BE016F5F7F4F80E090E066
:100B80000E949538009751F0FC018181803331F447
:100B9000799904C061E08BEB90E0C8DEEADE81E089
:100BA0000F900F900F900F90DF91CF91089580914B
:100BB0001306089580911706882329F010921706CE
:100BC00088E794E005C081E08093170680E994E00F
:100BD0000E948D2A609117068FE092E00C94A13B51
:100BE0008EE691E00E94102A40E450E060E070E060
:100BF0008CE196E00E94B33B40E450E060E470E09A
:100C00008AE699E00E94B33B40E450E060E870E07F
:100C100089E696E00E94B33B40E450E060EC70E06F
:100C200089E297E00E94B33B40E450E060E071E06D
:100C30008AEA96E00E94B33B60915E0685E092E00E
:100C40000E94A13B6091680686E092E00E94A13B71
:100C50006091160687E092E00E94A13B6091EA064F
:100C600088E092E00E94A13B6091280789E092E031
:100C70000C94A13BCF93DF931092EB060E94BF2D03
:100C8000D82F80EF93E00E948D2A2FEF87EA91E61C
:100C9000215080409040E1F700C000000E94BF2D2D
:100CA000C82FD81307C08FEB93E00E948D2A1092B3
:100CB000EB0623C089E791E00E94102A81E080932F
:100CC000EB06C093660680E991E00E94102A83E655
:100CD00090E022E07C9B2093EB06EFE5FAEE319763
:100CE000F1F700C000000197A9F78091EB06823070
:100CF00021F48EEB91E00E94102A7E9903C081E0DE
:100D00008093EB066091EB0683E092E00E94A13BAA
:100D10006091660684E092E00E94A13B81E09091A0
:100D2000EB06911101C080E0DF91CF9108952FEF84
:100D300081EE94E0215080409040E1F700C0000037
:100D40000E94212C90E00097D9F30895CF93DF9370
:100D5000EB01FB01423041F4E759F94F808387EA08
:100D600091E00E948D2A11C0443061F4E659F64F9B
:100D7000808387ED91E00E94102A62E08EE20E945B
:100D8000CC2903C0E45EF94F8083C630D10524F43A
:100D900082EA91E00E948D2A8C2F0E94952A2FEFE3
:100DA00084E39CE0215080409040E1F700C00000C7
:100DB000DF91CF9108951F93CF93DF9386E294E064
:100DC0000E948D2A60E08BE20E94CC29B0DFEC010A
:100DD0000E943F2B182FDD27482FBE018AE2B6DF85
:100DE00012FD04C0C75DD84F88E0888360E088E2C8
:100DF0000E94CC2983E494E00E948D2A60E08BE27B
:100E00000E94CC2994DFEC010E943F2BBE01772782
:100E1000482F89E29BDF60E088E20E94CC2988E4C9
:100E200094E00E948D2A60E08BE20E94CC297FDF53
:100E3000EC010E943F2B182FDD27482FBE018BE2CB
:100E400085DF12FD09C0FE01E75DF84F89E0808370
:100E5000C655D94F84E7888360E088E20E94CC2998
:100E60008DE494E00E948D2A60E08BE20E94CC2900
:100E70005EDFEC01DD2740E0BE0188E267DFC75D91
:100E8000D84F8DE0888360E088E20E94CC2986E319
:100E900094E00E948D2A60E08BE20E94CC2984E7D6
:100EA00090E045DFBC01772740E088E24FDF60E05B
:100EB00088E20E94CC2980E394E00E948D2A60E0C1
:100EC0008BE20E94CC2933DFBC01772740E084E726
:100ED0003DDF60E088E20E94CC2984E594E00E9436
:100EE0008D2A60E08BE20E94CC2921DFEC01DD2716
:100EF00040E0BE018CE22ADFC75DD84F80E28883E4
:100F000060E088E2DF91CF911F910C94CC29809111
:100F1000AE098430E1F72FEF89E698E12150804057
:100F20009040E1F700C000008DE594E00E948D2A1A
:100F300089DD81110DC08FE691E00E948D2A2FEF8F
:100F400083ED90E3215080409040E1F700C0000025
:100F500099B181E09295917098279093680699B124
:100F600096FB992790F998279093160699B190953A
:100F7000991F9927991F9093EA0693B192959170C2
:100F800089278093280776DE80E095E00E948D2AED
:100F90008AED91E00E94102A10925E0660E08BE2DA
:100FA0000E94CC29C4DE9FEF980F983058F48093AC
:100FB0005E0682EA91E00E948D2A80915E060E9480
:100FC000952A04C08AED94E00E948D2A60E088E2B0
:100FD0000E94CC29F0DE04DE8EEA92E00C948D2A89
:100FE000423021F4FB01E655F94F05C042FD04C033
:100FF000FB01E75DF84F808308956F927F928F9297
:101000009F92AF92BF92CF92DF92EF92FF920F9397
:101010001F93CF93DF930E94272E8091AE098430D7
:10102000E1F72FEF89E698E1215080409040E1F709
:1010300000C000008EED95E00E948D2A88EC95E0BE
:101040000E948D2A60E088E20E94CC298DE092E027
:101050000E94943BC82F86EB95E00E948D2AC230F7
:1010600091F028F4C13091F488E595E009C0C930C9
:1010700029F0CD3059F487E795E002C08DE995E07D
:101080000E948D2A07C082E495E0FACF80EE91E0BD
:101090000E94102A82E395E00E948D2A99B181E096
:1010A0009295917098279093680699B196FB99272D
:1010B00090F998279093160699B19095991F9927C2
:1010C000991F9093EA0693B1929591708927809326
:1010D0002807B8DC81110DC08FE691E00E948D2AAF
:1010E000EFEFF3ED20E3E150F0402040E1F700C0E6
:1010F00000007D9B5FDDBEDD80E095E00E948D2AD3
:1011000080E991E00E948D2AC4E0DEE1FD2E62E0DC
:101110008C2F0E94CC2960E08BE20E94CC2907DE54
:101120008C010E943F2BD82F1127482F4D7FB801EB
:101130008C2F0CDECF3021F4F801E659F64FF08207
:10114000D2FD0CC0F801E655F94F8DE38C0F80837A
:10115000F801E75DF84F8DE58C0F808360E088E251
:101160000E94CC29CF5FCE3191F6AEE1EA2EA6E007
:10117000FA2EB4E1AB2EB6E0BB2ECAE0CC2EC6E010
:10118000DC2E1AE3F701849160E00E94CC2960E034
:101190008BE20E94CC29CBDDEC010E943F2B082F73
:1011A000DD27F7018491402F4D7FBE01CFDD02FD89
:1011B0000FC0F5018491FE01E75DF84F8083F601D1
:1011C0008491FE01E655F94F8083C659D64F1883A6
:1011D00060E088E20E94CC29FFEFEF1AFF0A2FEFB0
:1011E000A21AB20A8FEFC81AD80A1F5F143409F086
:1011F000C9CF86EE91E00E94102A60E08BE20E9447
:10120000CC2995DDEC010E943F2BBE017727482FAA
:101210008AE39CDD60E088E20E94CC2989EE91E0BF
:101220000E94102A60E08BE20E94CC2980DDEC0154
:101230000E943F2BBE017727482F84E487DD60E0C2
:1012400088E20E94CC298DEE91E00E94102A60E095
:101250008BE20E94CC296BDDEC010E943F2BBE018A
:101260007727482F85E472DD60E088E20E94CC2970
:101270008AED91E00E94102A60E08BE20E94CC2966
:1012800056DD9FEF980F983058F480935E0682EAFF
:1012900091E00E948D2A80915E060E94952A04C0EA
:1012A0008AED94E00E948D2A9FEFE4E3FCE09150E8
:1012B000E040F040E1F700C0000060E088E20E94FA
:1012C000CC291DE20EE29CE2D92E2FE3F22E3FE262
:1012D000C32E4AE2B42E50E6A52E6EE7962E7DE38D
:1012E000872EEBE37E2EFAE36F2E123309F45BC0F8
:1012F00060E0812F0E94CC2960E08BE20E94CC2923
:1013000016DDEC010E943F2BE82EDD27482FBE01A1
:10131000812F1CDDE2FC43C0133341F4FE01E75D85
:10132000F84F7082C655D94F688239C01E3249F4D1
:10133000FE01E75DF84F8082C655D94F8BE2888366
:101340002EC0153341F4FE01E75DF84FA082C6556B
:10135000D94F988224C01D3241F4FE01E75DF84F59
:101360001083C655D94FB8821AC0183329F4FE012C
:10137000E75DF84FC08206C0163341F4FE01E75D19
:10138000F84FD082C655D94FF88209C0173339F4C7
:10139000FE01E75DF84F0083C655D94F088360E032
:1013A00088E20E94CC291F5F193309F09ECFCEEF4F
:1013B000D1E006E016E086E0C82E82E0D82E8991C2
:1013C00099910E948D2A60E08BE20E94CC29AFDCCB
:1013D0007C010E943F2B482FF8018491B7017727A9
:1013E000B5DC60E088E20E94CC290F5F1F4FCC166D
:1013F000DD0629F762E08EE90E94CC2960E08BE2ED
:101400000E94CC2994DCEC010E943F2B182FDD2791
:10141000482FBE018EE99ADC412FBE0181E2E0DD5A
:1014200060E088E20E94CC2962E08FE10E94CC2932
:1014300081EC94E00E948D2A7ADCC82F0E943F2B19
:10144000823041F48AED91E00E94102A62E08EE23F
:101450000E94CC298C2F0E94952A60E088E20E948D
:10146000CC29FFEF24E38CE0F15020408040E1F7ED
:1014700000C0000062E08FE10E94CC2986EA94E07F
:101480000E948D2A54DCEC010E943F2BBE0177277D
:10149000482F8FE95BDC60E088E20E94CC2962E0A3
:1014A00088E30E94CC2981EC94E00E948D2A3FDCE5
:1014B000EC010E943F2B182FBE017727482F8FE3A6
:1014C0008FDD123041F48AED91E00E94102A62E033
:1014D0008EE20E94CC298C2F0E94952A60E088E23F
:1014E0000E94CC299FEFE4E3FCE09150E040F04003
:1014F000E1F700C0000062E088E30E94CC2986EAA0
:1015000094E00E948D2A13DCEC010E943F2BBE0167
:101510007727482F88EB1ADC60E088E20E94CC290C
:101520004ADC5EDB8EEA92E0DF91CF911F910F9152
:10153000FF90EF90DF90CF90BF90AF909F908F90F3
:101540007F906F900C948D2ACF9381E092E00E945F
:10155000943B8093A90682E092E00E94943B8093A2
:101560001A0680E092E00E94943B80935D06809191
:10157000AE098430E1F72FEF89E698E121508040F1
:101580009040E1F700C0000083EA93E00E948D2ABA
:1015900085E893E00E948D2A7E99FECF85E593E051
:1015A0000E948D2A8091A9060E94952A60E088E217
:1015B0000E94CC297E9B15C07C990BC08091A90606
:1015C0008F5F8093A9060E94952A60E088E20E94BE
:1015D000CC297D99EFCF8091A90681508093A906EF
:1015E000E3CF87E393E00E948D2A80911A060E9440
:1015F000952A60E088E20E94CC297E9B15C07C99E8
:101600000BC080911A068F5F80931A060E94952A5C
:1016100060E088E20E94CC297D99EFCF80911A0684
:10162000815080931A06E3CF89E093E00E948D2ACF
:1016300080915D060E94952A60E088E20E94CC2994
:101640007E9B15C07C990BC080915D068F5F809357
:101650005D060E94952A60E088E20E94CC297D996F
:10166000EFCF80915D06815080935D06E3CF89EED8
:1016700092E00E948D2A80915C060E94952A60E08B
:1016800088E20E94CC297E9B15C07C990BC080917A
:101690005C068F5F80935C060E94952A60E088E27A
:1016A0000E94CC297D99EFCF80915C068150809378
:1016B0005C06E3CF8FEB92E00E948D2A80911806A2
:1016C000882319F081EF91E002C085EF91E00E943C
:1016D000102AC1E07E9B15C07C9906C010921806A6
:1016E00085EF91E00E94102A7D9906C0C0931806EC
:1016F00081EF91E00E94102A7C9BFECF7D9BFCCF66
:10170000E9CF60915D0680E092E00E94A13B60918C
:101710001A0682E092E00E94A13B6091A90681E056
:1017200092E00E94A13B60915C068CE092E00E94F6
:10173000A13B609118068EE092E00E94A13B8EEAE8
:1017400092E0CF910C948D2AF2DAFC01FF27E75D3D
:10175000F84F8081853711F08337B1F708959F9254
:10176000AF92BF92CF92DF92EF92FF920F931F93AF
:10177000CF93DF938091AE098430E1F72FEF89E6B4
:1017800098E1215080409040E1F700C0000082E9DC
:1017900092E00E948D2A81E692E00E948D2A84E3E5
:1017A00092E00E948D2AD0DF082F8AEF91E00E94FC
:1017B000102A86E092E00E948D2A8CED91E00E9432
:1017C0008D2A8EEA91E00E948D2A053709F02CC1FE
:1017D00060E08DE20E94CC2998EB992E1EE928E367
:1017E000E22EDDE2CD2FA3DA5C010E943F2BF82E22
:1017F0006501DD24F601E45EF94F80818C3209F445
:1018000072C0053729F44F2DB6018C2F9FDA19C00D
:101810000337B9F44F2DB6018C2FE2DBF1FE04C083
:1018200087EA91E00E948D2A8A2D0E94952A8FE9ED
:101830008C0F8A3130F44F2D4260B60180EE8C0F50
:10184000CFDBCF5F41F09C1630F0EC1628F4C117C7
:1018500018F4C12F01C0CD2F60E088E20E94CC298E
:10186000053761F48C2F8068885A853010F4CF5F7B
:10187000F9CF60E08C2F0E94CC292BC0C13419F025
:10188000C03331F422C0CBE503C0C43831F4CF5F9C
:101890008FE78C0F8230C8F7FACF8C2F8F7E8D3870
:1018A000B1F3CB39A1F38C2F877F803A81F3C43B0E
:1018B00071F38C2F8D7F8D3A51F389E48C0F823038
:1018C00030F3C23919F4CBE901C0CAE38C2F0E946E
:1018D000DB2A2FEF84E39CE0215080409040E1F729
:1018E00000C0000080CF7C9944C0DC1730F41C1786
:1018F00010F0EC1620F0C15003C0C92D01C0CE2D50
:1019000060E088E20E94CC29053741F48C2F806882
:10191000885A853008F047C0C150F8CFCA3529F041
:10192000C93329F0CA3919F107C0C0E405C0CFE2B4
:1019300003C0C43831F4C1508FE78C0F8230C8F730
:10194000FACF8C2F8F7E8D38B1F3CB39A1F38C2F4A
:10195000877F803A81F3C43B71F38C2F8D7F8D3A62
:1019600051F389E48C0F823008F04AC0E4CFC1E91A
:1019700047C07E9B49C0CF5F41F09C1630F0EC160B
:1019800028F4C11718F4C12F01C0CD2F60E088E200
:101990000E94CC29053761F48C2F8068885A8530E5
:1019A00010F4CF5FF9CF60E08C2F0E94CC291BCFC1
:1019B000C13419F0C03331F422C0CBE503C0C438C0
:1019C00031F4CF5F8FE78C0F8230C8F7FACF8C2FBE
:1019D0008F7E8D38B1F3CB39A1F38C2F877F803A7E
:1019E00081F3C43B71F38C2F8D7F8D3A51F389E4E1
:1019F0008C0F823030F3C23919F4CBE901C0CAE34D
:101A00008C2F0E94DB2AEFCEEBD88EEA92E0DF919A
:101A1000CF911F910F91FF90EF90DF90CF90BF90EB
:101A2000AF909F900C948D2A81E20E94DB2A99242A
:101A30009A9419E98EE8E82ED1E2D4CEE4E6F0E0FB
:101A40008081877F80838AE08093810087E2809312
:101A5000890080E180938800EFE6F0E08081826079
:101A6000808308952098289A54985C9A56985E9A94
:101A700057985F9A24982C9A2B9A23982B9A2A9AF3
:101A800022982A9A6A9A25982D9A299A2198299A11
:101A9000599A519A55985B9A539A52985A9A84989F
:101AA0008C9A85988D9A86988E9A8F98879A479A5D
:101AB0003F9A8198899A769A6E9A469A3E9A2E9A79
:101AC000269A0895F8949FEF9093D1001092BF004A
:101AD00090E29093CF009091C400613051F49E7FCA
:101AE0009093C4009091C0009F7B9093C000469853
:101AF00008C091609093C4009091C000906490934E
:101B0000C0009091C00092609093C00090917200CC
:101B1000946090937200813069F030F0823041F02F
:101B2000833041F486E009C089E08093C10002C09F
:101B300087E003C08091C10088608093C10010924B
:101B400015061092BF001092BE00789408951F925F
:101B50000F920FB60F9211248F939F938091CF0015
:101B600090911506992319F0923039F00AC08F3FF1
:101B700031F491E09093150610C08F3F71F08F5FA4
:101B80000CC0811109C09091C0009F7B9093C00050
:101B90001092C100469A01C081508093CF009F915E
:101BA0008F910F900FBE0F901F901895292F3327FC
:101BB00023303105E1F058F42130310599F022301D
:101BC000310569F589E390E026E836E02CC0213242
:101BD000310501F12232310511F58FE390E021ED5D
:101BE00036E021C082E190E02FEB36E01CC099275F
:101BF0008130910549F028F0029789F4E8E2F6E097
:101C000005C0E2E8F6E002C0EAE5F6E0849190E083
:101C10009F0109C089E090E02FEA36E004C080E02F
:101C200090E020E030E0FA01318320830895CF93E3
:101C300042E160E071E087EE92E00E94791E87EE5B
:101C400092E00E94342187EE92E00E94772142E1E7
:101C500060E071E087EE92E00E94791EC82F40910B
:101C6000F1025091F2026091F3027091F40287EE5A
:101C700092E00E9487218C2FCF91089587EE92E009
:101C80000E94342187EE92E00C94772141E06AE1D2
:101C900072E087E093E00E94331E91E0811101C061
:101CA00090E0892F08958091E3029091E402A09141
:101CB000E502B091E602892B8A2B8B2BD9F4809117
:101CC000190390911A03A0911B03B0911C039C016E
:101CD000AD012250310941095109A0910903B0E039
:101CE0000E94F5376093E3027093E4028093E5026B
:101CF0009093E6026091E3027091E4028091E50224
:101D00009091E60208951F93CF93DF9300D0CDB753
:101D1000DEB7EAE6F7E001900020E9F73197EA56EE
:101D2000F740FA83E9834091F1025091F202609109
:101D3000F3027091F40287EE92E00E9487214981BC
:101D40005A819E012F5F3F4F6AE677E087EE92E06F
:101D50000E94A41F182F10926A0787EE92E00E943B
:101D6000342181E0111101C080E00F900F90DF91CC
:101D7000CF911F9108958ADF882321F08AE0809314
:101D80006907089566E072E080E091E00E94B5384E
:101D90004EDF6FE072E08AE697E00E94B538B3DF6D
:101DA0006DDF2FEF80E792E0215080409040E1F717
:101DB00000C00000EDCFEAE6F7E001900020E9F76F
:101DC00031979F012A563740263F91E0390708F0A6
:101DD00041C08D3081F59091E202F901E659F84F4A
:101DE000A9014F5F5F4F9D3021F090E29083FA018F
:101DF0001FC0D901A759B84F9C91B9016E5F7F4FA1
:101E0000903279F48C939AE09083FA01E659F84F76
:101E10008083FB01E659F84F9083F901E359F84FAD
:101E200016C08083FA01E659F84F9AE09083FB01CF
:101E3000E659F84F0CC0F901883019F4E759F84F0A
:101E400006C0E659F84F8083F901E559F84F108232
:101E50008093E2020895CF92DF92EF92FF920F9368
:101E60001F93CF93DF93CDB7DEB766970FB6F89485
:101E7000DEBF0FBECDBF10926A0708DF811147C0D9
:101E800061E080E01FDE8AE092E00E949C3B8C01D2
:101E90008031974210F000E010E08BE1C82E82E024
:101EA000D82E90E0E92E91E0F92E0F5F1F4F1F937F
:101EB0000F93DF92CF92FF92EF920E94E338BE0120
:101EC0006F5F7F4F80E091E00E942D230F900F9075
:101ED0000F900F900F900F90882339F38430B9F44E
:101EE0000E94492CF82E0E943F2B682F8F2D0E94B4
:101EF000AC2D8823A9F3833721F4909163069111C7
:101F000003C059DF1092630692DE882321F08AE035
:101F10008093690757C0B8018AE092E00E94CA3BEB
:101F2000109262061092610680916106909162069D
:101F300080329F4B08F041C00E94492C182F0E940C
:101F40003F2B682F812F0E94AC2D182F8823B9F0CA
:101F500032DF10926206109261061D3061F0812F0F
:101F60008D7F8C3241F08FED810F823020F01F3356
:101F700011F01A3321F460E082E0A4DDC4DE8FECBE
:101F800097E00197F1F700C0000080916106909101
:101F90006206893B9B4040F280916A07882321F2C8
:101FA00046988FEF9DE329E4815090402040E1F76F
:101FB00000C00000A8DE469AB7CF60E082E082DD74
:101FC000A2DE5CDE66960FB6F894DEBF0FBECDBF14
:101FD000DF91CF911F910F91FF90EF90DF90CF9005
:101FE000089523B123B10197E1F70895FC01680F2B
:101FF000791F919197FF02C02A9A01C02A98299AC5
:10200000299896FF02C02A9A01C02A98299A2998ED
:1020100095FF02C02A9A01C02A98299A299894FF0C
:1020200002C02A9A01C02A98299A299893FF02C0CF
:102030002A9A01C02A98299A299892FF02C02A9ABE
:1020400001C02A98299A299891FF02C02A9A01C0B2
:102050002A98299A299890FF02C02A9A01C02A98A2
:10206000299A2998E617F70721F608952A9AFC017C
:10207000680F791F93B1299A299893FB992790F9B2
:10208000990F1B999F5F299A2998990F1B999F5F18
:10209000299A2998990F1B999F5F299A2998990F36
:1020A0001B999F5F299A2998990F1B999F5F299ADD
:1020B0002998990F1B999F5F299A2998990F1B9925
:1020C0009F5F299A29989193E617F70799F6089543
:1020D0000F931F93CF93DF931F92CDB7DEB708E81E
:1020E00013E161E070E0CE010196C0DF89818F3F8E
:1020F00031F084E690E075DF0150110991F781E03D
:1021000090E0012B11F480E090E00F90DF91CF91EF
:102110001F910F910895CF93DF931F92CDB7DEB734
:10212000599A61E070E0CE010196A0DF0F90DF9137
:10213000CF9108950F931F93CF93DF931F92CDB745
:10214000DEB7599861E070E0CE0101968FDFC0DF05
:102150008C01892B11F4DFDF02C001E010E0C8011F
:102160000F90DF91CF911F910F910895CF92DF9241
:10217000EF92FF920F931F93CF93DF9300D0CDB7D1
:10218000DEB77C016B0108EE13E061E070E0CE0188
:1021900001966CDF89818F3F71F089818E3F91F4C8
:1021A000B601C70163DF62E070E0CE0101965EDF39
:1021B00081E090E009C084E690E013DF015011094E
:1021C00021F7EBCF80E090E00F900F90DF91CF915F
:1021D0001F910F91FF90EF90DF90CF900895DF92C5
:1021E000EF92FF920F931F93CF93DF93CDB7DEB79C
:1021F00027970FB6F894DEBF0FBECDBF182F042F60
:10220000F52EE62ED72E87FF09C040E050E0BA0138
:1022100087E3E5DF823008F039C01F771C3051F4C6
:10222000812F80648983DA82EB82FC820D83112303
:1022300029F106C070DF7EDF892B91F78FEF26C072
:10224000183011F487E801C081E08E8366E070E009
:10225000CE010196CBDE1C3029F461E070E0CE01A6
:10226000079604DF1AE061E070E0CE010796FEDE1B
:102270008F8187FF0BC01150B1F708C085E98E83AD
:1022800066E070E0CE010196B1DEECCF27960FB686
:10229000F894DEBF0FBECDBFDF91CF911F910F919C
:1022A000FF90EF90DF900895EF92FF921F93CF93EE
:1022B000DF9300D0CDB7DEB77C01162F09DF009782
:1022C00011F1198361E070E0CE0101968FDE1D3FB0
:1022D000C1F060E072E0C70189DE62E070E0CE012B
:1022E0000196C4DE61E070E0CE010196BFDE898117
:1022F0008F7131E020E0853009F030E0832F922F9C
:1023000002C081E090E00F900F90DF91CF911F917C
:10231000FF90EF900895811103C080910D01089501
:1023200081E00895EF92FF920F931F93CF93DF9375
:1023300000D000D0CDB7DEB7811178C080E197E240
:1023400050DE519A599A2998219A2998229A2B9AC3
:102350001AE061E070E0CE01019688DE1150C9F705
:1023600040E050E0BA0180E03ADF813009F042C03D
:102370004AEA51E060E070E088E031DF8130E1F46A
:1023800064E070E0CE01019671DE8B81813091F5C1
:102390008C818A3A79F508EE13E040E050E060E085
:1023A00070E489EA1CDF882339F188EE93E019DEB6
:1023B0000150110991F71EC040E050E0BA0189EACE
:1023C0000EDF823018F011E001E002C019EA02E0ED
:1023D00088EEE82E83E0F82E40E050E0BA01812F2D
:1023E000FEDE882339F188EE93E0FBDD81E0E81A18
:1023F000F10891F700E010C040E050E0BA018AE334
:10240000EEDE8111F7CF64E070E0CE0101962EDEA2
:10241000898186FD0DC004E00093350511E00111AE
:1024200010E010930D0177DE812F0DC083E00BC00B
:102430000CE0F2CF40E052E060E070E080E1CFDEFF
:102440008111D8CFE9CF0F900F900F900F90DF91AF
:10245000CF911F910F91FF90EF900895EF92FF920F
:102460000F931F93CF937B01BA01A901811103C080
:1024700080910D0101C081E080FD2DC08091350566
:1024800083FD07C089E0440F551F661F771F8A959B
:10249000D1F70230110510F4C1E101C0C2E18C2F67
:1024A0009EDE811112C060E072E0C7015FDE892B01
:1024B00029F08EEFF81A01501109A9F7C23129F459
:1024C00040E050E0BA018CE08ADE25DE81E0012B9D
:1024D00019F480E001C083E0CF911F910F91FF902C
:1024E000EF900895CF92DF92EF92FF920F931F9398
:1024F000CF93DF93EB0169017A01811103C08091D1
:102500000D0101C081E080FD43C08091350583FD50
:1025100007C099E0CC0CDD1CEE1CFF1C9A95D1F78E
:102520000130110589F4B701A60188E158DE811157
:1025300027C06EEFCE01B8DE31E020E0892B09F034
:1025400030E0032F122F1EC0867029F0A80160E032
:1025500070E087E944DEB701A60189E140DE811120
:1025600011C06CEFCE01A0DE892B21F0DE5F01509F
:102570001109B9F76DEF80E090E096DE892B11F438
:1025800001E010E0C8DD81E0012B19F480E001C01A
:1025900083E0DF91CF911F910F91FF90EF90DF903B
:1025A000CF9008950F931F93CF93DF93CDB7DEB7EE
:1025B00060970FB6F894DEBF0FBECDBF811103C088
:1025C00080910D0101C081E080FD7BC08A016130F6
:1025D00079F040F0633009F070C080E890E0A0E04E
:1025E000B0E064C0A7DD11E0892B09F467C063C0C7
:1025F00040E050E0BA0189E0F2DD882311F011E0FB
:102600005DC060E170E0CE010196B0DD892BB9F3C9
:102610009981929596959695937029854A85888596
:102620009130D9F430E0322F2227240F311D8F73DF
:1026300090E0A0E0B0E0DC01992788270196A11D79
:10264000B11D820F931FA11DB11DEAE0880F991FD4
:10265000AA1FBB1FEA95D1F729C02295269526957A
:102660002370F4E08F9FC0011124820F911D019609
:102670002F81237030E0322F2227330F330F820F48
:10268000931FA0E0B0E02E81322F3F702B85221FD8
:102690002227221F230F4370440F420F475004C0CC
:1026A000880F991FAA1FBB1F4A95D2F7F801808394
:1026B0009183A283B38310E001C014E02CDD812F4D
:1026C00001C083E060960FB6F894DEBF0FBECDBFA9
:1026D000DF91CF911F910F910895CF93DF93DB018D
:1026E000FC019A012230310538F0CD91DD91C19382
:1026F000D19322503109F6CF9A012E7FFC01E20FCF
:10270000F31FDB01A20FB31F4217530711F02C91E7
:102710002083DF91CF9108950F931F93CF93DF9381
:102720008B01FB013996DC011E964D915D916D91F7
:102730007C915197452B462B472BA9F15296CD9171
:10274000DC915397AE0180E090E03EE20196DA0121
:102750002D91AD01203251F0253009F425EE89305C
:10276000910511F430833196208331968B30910599
:1027700069F78B85D80118968C9318974C8D5D8DD1
:102780006E8D7F8D4D935D936D937C931397888DA4
:10279000998D15969C938E9314978E899F89179681
:1027A0009C938E9316971082DF91CF911F910F917A
:1027B0000895DC01ED91FC913097C1F0DF019D019E
:1027C0004D91413280F04A33D1F7AF014F5F5F4FF7
:1027D0002417350759F44081403341F42F5F3F4FB0
:1027E000FC013183208380E090E008958FEF9FEF1C
:1027F00008950097C1F0DC01ED91FC91119730979D
:1028000091F02081222379F02681378112968D91D3
:102810009C9113972817390731F481817CDD80FD65
:1028200004C080E0089589E0089583E008958F92C0
:102830009F92AF92BF92CF92DF92EF92FF920F934F
:102840001F93CF93DF93EC018AA49BA4ACA4BDA4F7
:102850006C018EE2C80ED11C01E010E0A5019401CC
:10286000B60189813FDE81112FC01C828E8D9F8D24
:10287000A8A1B9A1B501A401481B590B6A0B7B0B98
:102880008E899F89A88DB98D481759076A077B07DC
:1028900010F080E01AC0EB80F12C82E0E816F10421
:1028A000C0F38E899F89A88DB98D880E991EAA1EA6
:1028B000BB1E01E010E0A5019401B601898112DE82
:1028C00081E0E81AF108E9CF81E0DF91CF911F9113
:1028D0000F91FF90EF90DF90CF90BF90AF909F90BF
:1028E0008F900895FC0124812111A1CF80E00895EB
:1028F0008F929F92AF92BF92FF920F931F93CF93AD
:10290000DF93EC014A015B018AA59BA5ACA5BDA59F
:1029100084179507A607B707D9F0CE01E3DFF82E95
:10292000811117C001E010E0A5019401BE01625DB4
:102930007F4F898193DD882331F0FF24F39488242D
:102940008A94982C54018AA69BA6ACA6BDA601C069
:10295000F12C8F2DDF91CF911F910F91FF90BF90A0
:10296000AF909F908F900895CF93DF93EC011C82DE
:102970008FEF9FEFDC018AA79BA7ACA7BDA7CE0175
:10298000B7DF811122C0FE01E45DFD4F808191819E
:1029900085359A4AE1F4E85CF14080819181A28119
:1029A000B381BB2786349144A445B10591F0C0584A
:1029B000DF4F488159816A817B81772781E04634E6
:1029C00051446445710531F404C083E003C082E0E2
:1029D00001C080E0DF91CF9108952F923F924F92F6
:1029E0005F926F927F928F929F92AF92BF92CF929F
:1029F000DF92EF92FF920F931F93CF93DF93CDB7A8
:102A0000DEB76D970FB6F894DEBF0FBECDBF6C0179
:102A1000CB01B42ED6011D921C92CBDE7C0197FD1A
:102A20002CC2FC01EE0FFF1FE85CFA4F0081118100
:102A30000115110509F423C2F60111830083D801A1
:102A40008C91882361F011968C9165DC80FD07C024
:102A5000BB2009F416C282FF14C28AE033C2F80117
:102A60001082E1828E2D5EDC80FD0DC2BB2011F054
:102A700082FDF3CF40E050E0BA01C80175DF81303C
:102A8000C9F5F801E051FE4F9E012F5F3F4F6901EC
:102A9000C801805D9D4FD9012081222329F0448106
:102AA00055816681778103C040E050E0BA014D93C3
:102AB0005D936D937D937096E817F90769F77E0132
:102AC00031E1E30EF11CD6014D905D906D907D904B
:102AD0006D01411451046104710439F0B301A20184
:102AE000C80142DF811102C00FC082E0EC14FD0476
:102AF00051F703C0412C512C3201833009F4C5C178
:102B0000882311F08DE0DEC1F80181AD92AD811511
:102B10009240C1F7F801EC5BFF4F80809180A12CBF
:102B2000B12C81149104A104B10429F43E96808053
:102B30009180A280B380D80156968D929D92AD92DD
:102B4000BC925997DE964C91DE9713964C9313974F
:102B50008FEF840F8230B0F6DB96EC91DB97E98B38
:102B60001296EC931297EE2369F28E2F90E09C015F
:102B70002150310982239323892B21F6F801FF96F6
:102B80002080318019963C922E921897C1018F7047
:102B90009927892B09F0B6CF3296C080D180E12CDD
:102BA000F12CC114D104E104F10429F43D96C08054
:102BB000D180E280F380D801DC96ED91FC91DD9725
:102BC000309709F49FCFA42FB0E0A50194010E9493
:102BD000F5376E8B7F8B888F998F9F0140E050E097
:102BE0002A8F3B8F4C8F5D8FC10164E0969587954E
:102BF0006A95E1F7280F391F411D511DDA01C901FE
:102C00002E893F89488D598D280F391F4A1F5B1F18
:102C10002A8B3B8B4C8B5D8BC216D306E406F506E4
:102C200008F470CFC701B601621B730B840B950BC0
:102C3000E9892E2F30E040E050E00E94D337211583
:102C400031054105510509F45DCF69017A01F2E0D2
:102C5000CF0ED11CE11CF11C8A8D9B8DAC8DBD8DDE
:102C6000840D951DA61DB71D8A8F9B8FAC8FBD8FC0
:102C70008A899B89AC89BD89840D951DA61DB71DC8
:102C80008A8B9B8BAC8BBD8B263F9FE03907410520
:102C90005105B8F1263F3F4F4105510508F4F7C0F3
:102CA000F801C28AD38AE48AF58A428E538E648EF2
:102CB000758E2A8D3B8D4C8D5D8D268F378F40A371
:102CC00051A32A893B894C895D8926A337A340A754
:102CD00051A7232809F016CFE65AFF4F8081918132
:102CE000A281B381F80182A393A3A4A3B5A342E078
:102CF000CC0CDD1CEE1CFF1C4A95D1F7F3E0F98BE0
:102D00003EC0F1E0F98BD8015296CD92DD92ED9262
:102D1000FC925597F801428E538E648E758E2A8DE3
:102D20003B8D4C8D5D8D5E962D933D934D935C93C5
:102D300091972A893B894C895D8996962D933D937D
:102D40004D935C939997232809F4DCCE8A8D9B8D53
:102D5000AC8DBD8D2E893F89488D598D820F931F73
:102D6000A41FB51FF80182A393A3A4A3B5A3F98957
:102D7000F23009F08FC0CC0CDD1CEE1CFF1C4FEFB5
:102D8000C40E41E0D41EE11CF11C89E0F694E794E6
:102D9000D794C7948A95D1F78C149D04AE04BF04D0
:102DA00008F4B0CE8FEF9FEFDC01F801868797879C
:102DB000A08BB18B82879387A487B58780E88583B2
:102DC000F989F33009F048C0F801E25AFF4F8081D9
:102DD0009181019709F040C0B301A2014F5F5F4F9D
:102DE0006F4F7F4FC80184DD811136C0D801159621
:102DF0001C92F801E45DFD4F8081918185359A4AEE
:102E000059F5F80186A597A5A0A9B1A982359245E3
:102E1000A146B14409F5F801EE5EFD4F8081918134
:102E2000A281B38182379247A144B146A9F4349676
:102E300080819181A281B381F80186879787A08BD9
:102E4000B18BE65EFD4F80819181A281B381F80153
:102E500082879387A487B587E989D801EC9380910D
:102E60003605909137050196909337058093360586
:102E700017969C938E93169704C08BE023C08CE02A
:102E800021C080E01FC083E01DC081E01BC022E0A4
:102E9000298B39CFA3E0B0E0A70196010E94F53756
:102EA000DC01CB01B695A7959795879521E0C222C5
:102EB000DD24EE24FF24C80ED91EEA1EFB1E31E0DD
:102EC000398B5DCF6D960FB6F894DEBF0FBECDBFC8
:102ED000DF91CF911F910F91FF90EF90DF90CF90F6
:102EE000BF90AF909F908F907F906F905F904F902A
:102EF0003F902F9008950F931F93CF93DF93EC0192
:102F0000F1DC982F81115AC08881833009F04DC0BF
:102F10008D81813009F049C0BE01625D7F4FFB01A8
:102F2000CE01825D9D4FE817F90711F01192FBCF9A
:102F300085E59AEAFE01E45DFD4F9183808382E599
:102F400092E5A1E6B1E48EA79FA7A8ABB9AB82E753
:102F500092E7A1E4B1E67A9780839183A283B38359
:102F60008E859F85A889B989349680839183A283B1
:102F7000B3838A859B85AC85BD8534968083918398
:102F8000A283B3838A8D9B8DAC8DBD8D9C01AD01D9
:102F90002F5F3F4F4F4F5F4F2AA73BA74CA75DA71F
:102FA00001E010E089819EDA1D8240E050E060E09F
:102FB0008981F8DA91E0811101C090E0892FDF91D9
:102FC000CF911F910F9108950F931F93FC019A01C8
:102FD000AB01225031094109510982899389A489A1
:102FE000B5890297A109B109281739074A075B0774
:102FF00068F4A281B0E00E94F53706A117A120A5D0
:1030000031A5600F711F821F931F03C060E070E045
:10301000CB011F910F910895AF92BF92CF92DF9293
:10302000EF92FF920F931F93CF93DF93423051059E
:103030006105710508F4AAC0FC010289138924897D
:103040003589401751076207730708F09FC06A016E
:103050007B018C018081823009F44BC0833009F4FC
:103060006AC0813009F092C0EA01D695C795CC0DAF
:10307000DD1DCE01892F99278695468D578D60A13C
:1030800071A1480F591F611D711DCF0131DC8823CB
:1030900021F06FEF7FEFCB017DC05E01FFEFAF1A34
:1030A000BF0AD170C00FD11FCEA5C501892F9927A6
:1030B0008695F801468D578D60A171A1480F591F63
:1030C000611D711DC80114DC8111E3CFF1E0BF2245
:1030D000F801EA0DFB1D86A56C2F70E0782BC0FE71
:1030E00006C054E0769567955A95E1F721C07F7048
:1030F0001FC077276F2D5E2D4D2D868D978DA0A13A
:10310000B1A1480F591F6A1F7B1FCF01F1DB81114D
:10311000C0CFCC0CDD1CEE1CFF1CE894C0F8F1E025
:10312000DF22EE24FF24F801EC0DFD1D66A577A536
:1031300080E090E02FC0868D978DA0A1B1A127E0FF
:1031400076956795579547952A95D1F7480F591F5A
:103150006A1F7B1FCF01CCDB81119BCF82E0CC0C9F
:10316000DD1CEE1CFF1C8A95D1F7FCEFCF22F1E0AD
:10317000DF22EE24FF24F801EC0DFD1D86A597A5A6
:10318000A0A9B1A9BC01CD019F7004C061E070E0AD
:1031900080E090E0DF91CF911F910F91FF90EF9031
:1031A000DF90CF90BF90AF900895AF92BF92CF9233
:1031B000DF92EF92FF920F931F93CF93DF938C01D7
:1031C000EB01DC0115967C936E9314971696CD90C7
:1031D000DD90ED90FC901997B1E0CB16D104E1049D
:1031E000F10411F482E085C0DC01ED91FC9182894B
:1031F0009389A489B589C816D906EA06FB0690F713
:10320000C114D104E104F104B9F48081833041F4A4
:1032100082A193A1A4A1B5A10097A105B10551F484
:1032200080859185C817D907E8F662A173A184A1AA
:1032300095A130C06C017D01A280B0E1AB9E500130
:103240001124F80180819181B701A601CA15DB051F
:1032500000F1E2DE6B017C016F3FEFEF7E078E072E
:103260009E0709F445C0623071058105910508F497
:10327000B9CFD801ED91FC9182899389A489B58950
:10328000C816D906EA06FB0608F0ACCFCA19DB0956
:10329000D8CF9ADED8011A96CD92DD92ED92FC92AB
:1032A0001D97611571058105910509F49BCF9E015C
:1032B00044E0369527954A95E1F7DC01CB01820F72
:1032C000931FA11DB11DF80186879787A08BB18B35
:1032D000808191818E96CF70DD2755E0CC0FDD1F68
:1032E0005A95E1F7C80FD91FD38BC28B80E001C07C
:1032F00081E0DF91CF911F910F91FF90EF90DF90D0
:10330000CF90BF90AF9008954F925F926F927F924F
:103310008F929F92AF92BF92CF92DF92EF92FF92E5
:103320000F931F93CF93DF934230510561057105D1
:1033300008F4D1C0FC01C288D388E488F5884C1514
:103340005D056E057F0508F0C6C0280139016A01D8
:103350007B01EC018081823009F461C0833009F483
:1033600081C0813009F0B7C05A01B694A794A40E69
:10337000B51EC501892F992786954E8D5F8D68A151
:1033800079A1480F591F611D711DCE01B1DA81115C
:10339000A3C085010F5F1F4FF1E0BF22FE01EA0DC0
:1033A000FB1D4601570131E083229924AA24BB2446
:1033B000C0FE09C086A5282F2F7030E1439EC001B2
:1033C0001124822B01C0842D86A781E08C834E8D31
:1033D0005F8D68A179A1C801892F99278695480F2B
:1033E000591F611D711DCE0183DA811175C01170E5
:1033F000FE01E00FF11F89288A288B2841F054E054
:1034000076946794579447945A95D1F706C006A5C9
:10341000007F952D9F70402E492A46A659C07727D8
:103420006F2D5E2D4D2D868D978DA0A1B1A1480FDA
:10343000591F6A1F7B1FCF015BDA81114DC0CC0C75
:10344000DD1CEE1CFF1CE894C0F891E0D922EE24AC
:10345000FF24EEE2CE0ED11CFE01EC0DFD1D5182CB
:10346000408236C0868D978DA0A1B1A127E07695C8
:103470006795579547952A95D1F7480F591F6A1FA9
:103480007B1FCF0135DA811127C092E0CC0CDD1C07
:10349000EE1CFF1C9A95D1F7FCEFCF22F1E0DF2262
:1034A000EE24FF243EE2C30ED11CFE01EC0DFD1DF7
:1034B0000081118122813381002711272227307F4B
:1034C000402A512A622A732A408251826282738280
:1034D00091E09C8301C082E0DF91CF911F910F9119
:1034E000FF90EF90DF90CF90BF90AF909F908F9024
:1034F0007F906F905F904F9008954F925F926F9280
:103500007F928F929F92AF92BF92CF92DF92EF9273
:10351000FF920F931F93CF93DF93EC012A013B019E
:10352000411551056105710599F48A849B84AC8429
:10353000BD8481149104A104B10449F18A899B8955
:10354000AC89BD8988169906AA06BB0620F11FC062
:1035500063DD623071058105910508F48EC06F3F0F
:103560002FEF72078207920729F44FEF3FEF2FEFFB
:103570009FEF8BC0CA88DB88EC88FD886C157D05C1
:103580008E059F0508F47EC05301420104C0812CC2
:10359000912C54018394750164018FEFC81AD80AE5
:1035A000E80AF80A8A899B89AC89BD89C816D906B8
:1035B000EA06FB0668F022E082169104A104B10439
:1035C00010F440E05BC082E0C82ED12CE12CF12C3D
:1035D000B701A601CE0120DD6115710581059105B8
:1035E00099F06F3F2FEF72078207920709F4BDCF62
:1035F000613071058105910509F43FC0C814D904F3
:10360000EA04FB0451F6DDCF0FEF1FEF2FEF3FE091
:10361000B701A601CE0178DE81112CC041145104FE
:1036200061047104C9F4CA86DB86EC86FD868E854A
:103630009F85A889B9898F3F2FEF9207A207B2070C
:10364000A1F00197A109B1098E879F87A88BB98B3B
:103650008D8181608D8309C097018601B301A2012C
:10366000CE0152DE8823F9F205C04C2D3D2D2E2DC2
:103670009F2D0BC0813009F478CF41E030E020E08D
:1036800090E003C0462F372F282F642F732F822FEF
:10369000DF91CF911F910F91FF90EF90DF90CF902E
:1036A000BF90AF909F908F907F906F905F904F9062
:1036B00008957F928F929F92AF92BF92CF92DF92A6
:1036C000EF92FF920F931F93CF93DF93EC016B0167
:1036D0000C811D810F5F1F4F11F484E0DBC04E850C
:1036E0005F85688979894115510561057105A9F3DF
:1036F00078018FE0E822FF24E114F10409F0B9C059
:103700004F5F5F4F6F4F7F4F4E875F87688B798B1F
:103710004A855B856C857D8588819981FC01411591
:1037200051056105710531F48085918508171907E8
:10373000A0F69FC0228130E021503109F801A4E0B9
:10374000F695E795AA95E1F72E233F23232B09F061
:1037500090C062DC4B015C0162307105810591050E
:1037600010F482E097C08FEF88169806A806B80676
:1037700011F481E08FC088819981FC0142895389CD
:103780006489758984169506A606B70608F464C090
:10379000CD2809F4A2CF4A855B856C857D85ADDE99
:1037A0004B015C01611571058105910509F471C03A
:1037B0006130710581059105A1F28FEF8816980699
:1037C000A806B806B1F2888199818CD88111D1CF31
:1037D00088819981FC01BE96825D9D4FE817F907AB
:1037E00011F01192FBCFC880D980B501A401C601A8
:1037F000EBDBF60162A773A784A795A7C12CD12C98
:1038000077247394E881F981828190E0C816D90603
:10381000B8F474828881998165D88111AACFE88132
:10382000F98182A593A5A4A5B5A50196A11DB11DF9
:1038300082A793A7A4A7B5A7FFEFCF1ADF0AE2CF0D
:1038400082A593A5A4A5B5A58C199D09A109B109C7
:1038500082A793A7A4A7B5A78A869B86AC86BD86B8
:10386000B501A40188819981AFDB6E877F87888B42
:10387000998B1D830C83888199818E9625E0EE0CAF
:10388000FF1C2A95E1F7E80EF91EFB8AEA8A80E020
:1038900001C087E0DF91CF911F910F91FF90EF90D2
:1038A000DF90CF90BF90AF909F908F907F900895C2
:1038B0006F927F928F929F92AF92BF92CF92DF9240
:1038C000EF92FF920F931F93CF93DF93EC017B0155
:1038D000FB0180818F3211F08C3519F4FFEFEF1A64
:1038E000FF0A1E821F8218861986F70180818032A6
:1038F00028F050E2A52E65E0B62E62C060E070E0D0
:10390000CE0153DC1B8A1A8AE6C080E090E060E0BA
:1039100070E028E030E010E06F5F7F4FF30101912D
:103920003F01013208F064C0E60EF71E013208F4D0
:1039300085C040E0892B09F4AFC08C91853E09F425
:10394000BC922830310511F4110F110F812F8370B3
:10395000813009F44061812F8C70843009F4486013
:103960001B964C9360E070E0CE011FDC882309F4C5
:1039700067C0EC89FD899385811188C092FDABC039
:103980004A895B89FA01838584FF84C0828D938D87
:10399000A0E0B0E028813981F9012081233061F471
:1039A000FA014489558960E070E0BA01552744273F
:1039B000842B952BA62BB72B8E839F83A887B98743
:1039C00037017301D3018D918F3211F43D01F9CF8D
:1039D0008C35E1F3AC89BD89CD019D01255F3F4F59
:1039E0008217930709F491CFFC01A192CF01F8CF80
:1039F0000F3209F499CF0C3509F496CF0E3209F441
:103A000060C08217930708F047C007FF07C0136024
:103A1000402F50E049545E4FFA010081C02ED12C56
:103A200048E2842E42E0942EF40141914F01442358
:103A3000A9F150E0C416D506B9F72EC044E07ACFFC
:103A40004E855F8568897989888199810E9478147B
:103A500081118FCFEA89FB8990819923A9F0938501
:103A600093FD0DC0AC89BD89AF01455F5F4F4E1717
:103A70005F0709F47ECF21919D912917C1F360E082
:103A800070E0CE0116DE72CF84E073CF843019F57A
:103A900092FD21C085E01FC086E01DC04FEB400FA6
:103AA0004A3110F4126006C04FE9400F4A3110F459
:103AB00011600052AD01480F591FFA0100830196B1
:103AC0002BCF2830310541F7110F110F88E090E01E
:103AD0002BE030E021CFDF91CF911F910F91FF902C
:103AE000EF90DF90CF90BF90AF909F908F907F909E
:103AF0006F9008951F93CF93DF93EC0160E070E027
:103B000054DB182F811139C04E855F85688979890A
:103B1000888199810E947814182F81112EC0EA891A
:103B2000FB898081853E81F44E855F85688979892E
:103B3000888199810E947814182F811121C0EA8907
:103B4000FB89CF01809607C0882371F361E070E0A4
:103B5000CE01AFDDD6CF8E179F0711F01192FBCFAC
:103B60006C897D894BE050E08A899B890E946D13A6
:103B7000E881F98181E0848303C0143009F417E0FF
:103B8000812FDF91CF911F9108958F929F92AF92D5
:103B9000BF92CF92DF92EF92FF920F931F93CF933A
:103BA000DF93EC016A017B0142305105610571052B
:103BB00010F482E04BC08A899B89AC89BD89481783
:103BC00059076A077B07A8F78A899B89AC89BD8951
:103BD000C816D906EA06FB0650F4B701A601CE01C5
:103BE0001BDA4B015C01672B682B692B11F480E019
:103BF0002DC081E088169104A104B104D1F22FEF09
:103C000082169206A206B20601F100E010E09801C9
:103C1000B701A601CE0178DB811118C08E859F8582
:103C2000A889B9898F3F2FEF9207A207B20751F0F9
:103C30000196A11DB11D8E879F87A88BB98B8D81A1
:103C400081608D8375016401BFCF81E0DF91CF91E9
:103C50001F910F91FF90EF90DF90CF90BF90AF90AA
:103C60009F908F9008951F93CF93DF9300D000D043
:103C700000D0CDB7DEB79C838B837E836D83142FFA
:103C80007A836983CE0101960E94D91397FD24C0DF
:103C9000880F991FFC01E85CFA4F0190F081E02D3C
:103CA000309709F01082EB81FC81309709F0108287
:103CB0002B813C81FC01E85CFA4F31832083232B6C
:103CC00069F0113059F440E0BE016B5F7F4FCE01C7
:103CD00003960E94ED1403C08BE001C080E026969D
:103CE0000FB6F894DEBF0FBECDBFDF91CF911F910D
:103CF00008954F925F926F927F928F929F92AF92B0
:103D0000BF92DF92EF92FF920F931F93CF93DF93B7
:103D1000CDB7DEB7A4970FB6F894DEBF0FBECDBF08
:103D20007CA36BA3009709F4F2C0B42E7C01DC01E4
:103D30001D921C924E71BE016D5D7F4FCE010196AA
:103D40000E94ED148111EAC0CE0147969E8B8D8BA7
:103D50006BA17CA14697ACDD0B891C89811104C045
:103D60000115110509F486E0BB2DBF71DB2E9B2DDB
:103D70009C7109F46EC0882371F0843009F0CEC0C4
:103D8000CE010196B7DE8111C9C0ED2DE860DE2EAF
:103D90000B891C8908C0D8011B968C91817109F090
:103DA000BCC0B2FCB6C0D3FE64C080E090E0A9E61F
:103DB000B5E4F80186879787A08BB18B1386D8016D
:103DC000148E158E168E178EE981FA815A968D9073
:103DD0009C905B97A12CB12C8081833069F4549620
:103DE0004D915C91559760E070E0BA0155274427EA
:103DF000842A952AA62AB72AD8015B961C921E927D
:103E00005A9755961C921E92549781E08483811490
:103E10009104A104B10451F142A453A464A475A473
:103E2000B501A401CF01B1DE811178C089819A81E9
:103E3000B1E08B1A9108A108B108FC018286938633
:103E4000A486B586B301A2010E947814882361F08C
:103E500065C0811163C0D8011B968C9184FD5BC045
:103E6000B1FE02C080FD59C0D3FE03C0BD2DB062BB
:103E7000DB2EA980BA80F50142A553A564A575A5DE
:103E8000D7015A964D935D936D937C935D975F96A2
:103E90001C930E935E971496DC92149715961C92C1
:103EA000F801828D938DA0E0B0E0F50120812330F0
:103EB00061F4F8014489558960E070E0BA01552742
:103EC0004427842B952BA62BB72BF7018687978742
:103ED000A08BB18BF801848D958DA68DB78DF701E0
:103EE00082879387A487B5871682178210861186EA
:103EF000168A178A108E118EB182A082D50116966D
:103F00008D919C9117979383828380E007C089E00D
:103F100005C088E003C084E001C087E0A4960FB626
:103F2000F894DEBF0FBECDBFDF91CF911F910F91EF
:103F3000FF90EF90DF90BF90AF909F908F907F9019
:103F40006F905F904F9008952F923F924F925F92A3
:103F50006F927F928F929F92AF92BF92CF92DF9299
:103F6000EF92FF920F931F93CF93DF93EC015B01CE
:103F70006A011901F901118210820E94F91381115D
:103F800060C18D8181115DC18C8181FF59C18E819C
:103F90009F81A885B985AC01BD014C0D5D1D611DDA
:103FA000711D481759076A077B0708F0B3C08E8157
:103FB0009F81A885B9854A855B856C857D85481775
:103FC00059076A077B0708F036C18A879B87AC8749
:103FD000BD8731C14E815F8168857985DB01CA016A
:103FE0009170AA27BB27892B8A2B8B2B09F0F8C04D
:103FF000E881F981228121502A013B01A9E07694D0
:10400000679457944794AA95D1F7122F142109F475
:1040100086C088819981FC0142A453A464A475A43C
:104020004E895F89688D798D441655066606770638
:1040300009F4B4C0888099804A895B896C897D893C
:10404000C4010E94E417611571058105910509F409
:1040500088C02B013C01410E511C611C711C760172
:10406000EF2CFF24E694E114F10409F49DC0F4015F
:104070008281212F30E0A9014E0D5F1D90E0841751
:10408000950718F47C01E21AF30A8701A301920153
:10409000B501F40181810E94721281116AC0888188
:1040A0009981FC0142A553A564A575A5441955093C
:1040B000660977092701612C712C441555056605A1
:1040C000770570F4542F4427550FB501640F751F01
:1040D00040E052E08E960E946D13E881F9811482CF
:1040E000FE2CEE24FF0CAE0CBF1C8E819F81A88598
:1040F000B9858E0D9F1DA11DB11D8E839F83A8873D
:10410000B987F101808191818E0D9F1D91838083FC
:10411000CE18DF08C114D10409F05CCF48CF452B7D
:10412000462B472B69F46E857F85888999896115AF
:1041300071058105910581F440E050E0BA0104C0A9
:104140004A895B896C897D89CF01D7D96115710551
:104150008105910509F42BCF613071058105910529
:1041600011F482E007C06F3FFFEF7F078F079F07C3
:1041700019F481E08D8365C06A8B7B8B8C8B9D8B62
:104180004E845F846888798845284628472809F046
:1041900040CF6E877F87888B998B3BCF0E947214AC
:1041A000882309F447CFE5CF4E815F816885798503
:1041B0008A859B85AC85BD85481759076A077B07AB
:1041C00058F0C4010E9472148111D3CFE881F981A3
:1041D00042A653A664A675A64E8A5F8A688E798E1B
:1041E0008E819F81917020E032E0281B390B76018F
:1041F0002C153D0508F479014E895F89688D798D0C
:10420000888199810E9478148111B3CF8E819F811A
:10421000A885B9859170AA27BB278E9628813981F8
:10422000A701B501820F931F0E946D13E881F981E8
:1042300031E0348358CF8C8180628C8380E001C070
:1042400087E0DF91CF911F910F91FF90EF90DF906A
:10425000CF90BF90AF909F908F907F906F905F9026
:104260004F903F902F900895CF93DF93EC010E94E1
:10427000F913811139C09C8195FF36C04A8D5B8D41
:104280006C8D7D8D888199810E94781481112CC05C
:10429000EE8DFF8D8385806283878A859B85AC85C3
:1042A000BD85848F958FA68FB78F8E859F85A889B2
:1042B000B989938F828FB58BA48B80E090E0A9E6BB
:1042C000B5E4868B978BA08FB18F138A128A8C816D
:1042D0008F7D8C83E881F98181E084838881998155
:1042E000DF91CF910C947B17DF91CF910895CF93FD
:1042F000DF93EC01B9DF811107C0CE010E94F913F1
:10430000811102C019821882DF91CF9108954F92D6
:104310005F926F927F928F929F92AF92BF92CF9255
:10432000DF92EF92FF920F931F93CF93DF9300D012
:1043300000D000D0CDB7DEB79E838D836A017B01AC
:104340000E94F913811172C1AD81BE8115968C91C5
:10435000159781116BC11A968D919D910D90BC910D
:10436000A02D8C159D05AE05BF0538F4ED81FE81AD
:10437000248121FD02C06C017D01AD81BE811696B4
:104380004D905D906D907C901997FD01168217827B
:1043900010861186C114D104E104F10409F442C16C
:1043A000AD81BE810D911C91F8018280912CA12CD0
:1043B000B12C39E0880C991CAA1CBB1C3A95D1F78A
:1043C000411451046104710409F440C0F1E04F1A32
:1043D000510861087108C701B6016150710981096E
:1043E0009109A50194010E94D33729833A834B8315
:1043F0005C83C301B201A50194010E94D337898176
:104400009A81AB81BC8182179307A407B507F0F0AE
:1044100088279927DC0188199909AA09BB0948222C
:1044200059226A227B22AD81BE8116964D925D9201
:104430006D927C921997C418D508E608F708529631
:104440004D915D916D917C91559736C0ED81FE81C6
:10445000468557856089718941155105610571054A
:1044600029F540E050E0BA01C80147D8AB01BC01D2
:10447000413051056105710531F482E0AD81BE81A5
:1044800015968C93D3C04F3FBFEF5B076B077B073D
:1044900029F481E0ED81FE818583C8C0AD81BE81B4
:1044A0001E964D935D936D937C935197ED81FE81A4
:1044B000428B538B648B758B4115510561057105DA
:1044C00009F045C0C12CD12C76017CC0AD81BE81E4
:1044D00014962C9114978D919C9121FF3FC00DD87B
:1044E000AB01BC014115510561057105E1F14F3F7B
:1044F000BFEF5B076B077B0761F242305105610537
:10450000710508F4BACFAD81BE81ED91FC9182892D
:104510009389A489B589481759076A077B0708F06A
:10452000ACCFED81FE81428B538B648B758B868182
:104530009781A085B185880D991DAA1DBB1D868315
:104540009783A087B187C818D908EA08FB088C149C
:104550009D04AE04BF0408F4B9CF07C00E940C1834
:10456000AB01BC01C4CF75016401ED81FE81868180
:104570009781A085B1858C0D9D1DAE1DBF1D8683C5
:104580009783A087B187D701C6019170AA27BB275F
:10459000892B8A2B8B2B09F495CF808191810E94E6
:1045A000E417611571058105910509F466CF29E0CD
:1045B000F694E794D794C7942A95D1F7C60ED71EE0
:1045C000E81EF91EED81FE8186819781A085B18567
:1045D000AC01BD01517066277727452B462B472B31
:1045E00069F046895789608D718DC416D506E60637
:1045F000F70621F0C68AD78AE08EF18EED81FE8122
:104600004285538564857585481759076A077B0776
:1046100038F482879387A487B587848180628483F6
:1046200080E004C080E090E0DC01E8CF26960FB681
:10463000F894DEBF0FBECDBFDF91CF911F910F91D8
:10464000FF90EF90DF90CF90BF90AF909F908F90B2
:104650007F906F905F904F900895EF92FF921F931D
:10466000CF93DF93CDB7DEB7A4970FB6F894DEBF34
:104670000FBECDBF9CA38BA37B0140E0BE016D5D4F
:104680007F4FCE0101960E94ED14182F811119C0A1
:10469000CE0147969E8B8D8B6BA17CA1469708D946
:1046A000182F81110EC08B899C89892B49F0E11448
:1046B000F10439F0B701CE0101960E948C1301C0BC
:1046C00016E0812FA4960FB6F894DEBF0FBECDBFC3
:1046D000DF91CF911F91FF90EF900895BF92CF92FD
:1046E000DF92EF92FF920F931F93CF93DF93EC0132
:1046F000B62EC8A0DF8CEE8CFD8C0BA11AA10E94F7
:10470000530EC616D706E806F90668F08091100128
:10471000807F85608093100181E280931A0110925E
:104720001B0180E022C09801B701A601CE01BB2089
:1047300011F079D201C0D1D1C801A0E0B0E029E0E8
:10474000880F991FAA1FBB1F2A95D1F74C895D8935
:104750006E897F898A019B01081B190B2A0B3B0B71
:104760000C8B1D8B2E8B3F8B81E0DF91CF911F91A6
:104770000F91FF90EF90DF90CF90BF900895CF9270
:10478000DF92EF92FF920F931F93CF93DF93CDB7FA
:10479000DEB728970FB6F894DEBF0FBECDBF8C01F1
:1047A000FC01838D8D3109F4C2C088F4823109F196
:1047B00038F4882309F401C1833009F450C00CC1D6
:1047C0008A3109F4E0C08B3109F400C105C1883297
:1047D00009F4CAC038F48E3109F4F8C0853209F4FE
:1047E00066C0FAC08A3209F4B4C08F3209F4EEC050
:1047F000F3C0F801E78CF68C848D837019F4858DF5
:10480000882341F080911001807F856080931001A2
:1048100084E2E9C06701F5E2EF16F10418F094E2D2
:10482000C92ED12C40E050E0B60187EB92E00E9407
:104830005C3260E070E0C7018C199D090E941D3256
:104840008091E8008E778093E800F801848995894B
:10485000A689B7898C199D09A109B109A9C0F801D8
:10486000F78CEF2CF2E1FF1510F482E1E82ECE2C4C
:10487000D12C40E050E0B6018EE091E00E945C3225
:104880008F2D90E060E070E08C199D090E941D3230
:104890008091E8008E778093E800F80184899589FB
:1048A000A689B7898E199109A109B10981C014D2CD
:1048B000811108C080911001807F82608093100177
:1048C0008AE391C0809169078130A1F780E092E08E
:1048D000A0E0B0E089839A83AB83BC830E94530E2F
:1048E000DC01CB010197A109B1098D839E83AF83C0
:1048F000B88740E050E064E070E0CE0105960E9489
:10490000A63240E050E064E070E0CE0101960E94E3
:10491000A6328091E8008E778093E800F8018489C0
:104920009589A689B7890897A109B10941C0F801FD
:10493000848D82FF67CFD0D1811148C08091100152
:10494000807F84608093100110921A0110921B01E5
:1049500058C0C2D1882309F4ADCF80916907813056
:1049600009F0A8CF60E00AC0B7D1882309F4A2CF2C
:1049700080916907813009F09DCF61E0C801AEDE0A
:10498000811134C03EC01092F1001092F1001092DB
:10499000F1001092F1008091E8008E778093E8009A
:1049A000F80184899589A689B7890497A109B10975
:1049B000848B958BA68BB78B19C08ED1882309F475
:1049C00079CF80916907813009F074CFF801148A9A
:1049D000158A168A178A0AC080911001807F856027
:1049E0008093100180E280931A01B0CF8091100172
:1049F000807F8093100110921A0110921B0181E0B8
:104A000001C080E028960FB6F894DEBF0FBECDBF80
:104A1000DF91CF911F910F91FF90EF90DF90CF909A
:104A2000089580E00E949211811104C081E080937A
:104A30003A05089510923A0508950F931F93CF9366
:104A4000DF938C01EB018091E80085FF36C08091F7
:104A5000F100F801EC0FFD1F80838091F10081834C
:104A60008091F10082838091F10083838091F10035
:104A700084838091F10085838091F1008683809109
:104A8000F10087838091F10080878091F100818718
:104A90008091F10082878091F10083878091F100FD
:104AA00084878091F10085878091F10086878091CD
:104AB000F100878780E190E00BC08091E8008B7760
:104AC0008093E8000E94CF34882309F280E090E0D0
:104AD000DF91CF911F910F9108958F929F92AF9286
:104AE000BF92CF92DF92EF92FF920F931F93CF93DB
:104AF000DF936C014A015B0179010E94CF3481117F
:104B000033C0E114F10431F12E98C0E0D0E0BE01D1
:104B10008AE697E092DFC80FD91F8091AE098430F2
:104B200019F5F60180AD81111FC0C115F2E0DF0754
:104B300070F301E010E0A50194016AE677E00E94BD
:104B400072128FEF881A980AA80AB80AE1E0EE1AE2
:104B5000F108D7CF8091E80085FD05C08091E8007D
:104B60008B778093E8002E9ADF91CF911F910F9160
:104B7000FF90EF90DF90CF90BF90AF909F908F907D
:104B80000895EF92FF921F93CF93DF937C01EB0187
:104B90008091E800182F107285FF35C0F701EC0FE7
:104BA000FD1F80818093F10081818093F1008281DB
:104BB0008093F10083818093F10084818093F100E0
:104BC00085818093F10086818093F10087818093B5
:104BD000F10080858093F10081858093F1008285CA
:104BE0008093F10083858093F10084858093F100A8
:104BF00085858093F10086858093F1008785809379
:104C0000F10010E109C08091E8008E778093E80000
:104C10000E94CF34882311F2812FDF91CF911F9111
:104C2000FF90EF9008958F929F92AF92BF92CF9294
:104C3000DF92EF92FF920F931F93CF93DF936C015C
:104C40004A015B0179010E94CF34811138C0E1141F
:104C5000F10459F12E9801E010E0A50194016AE6F3
:104C600077E080E00E942E12C0E0D0E0BE018AE62C
:104C700097E087DFC80FD11DF60180AD81111FC0FD
:104C80008091AE09843021F08AE08093690717C0D3
:104C9000C115F2E0DF0750F38FEF881A980AA80ACF
:104CA000B80AE1E0EE1AF108D2CF8091E80085FD64
:104CB00005C08091E8008E778093E8002E9ADF91FE
:104CC000CF911F910F91FF90EF90DF90CF90BF9009
:104CD000AF909F908F90089580913A0508951F920C
:104CE0000F920FB60F9211242F938F939F93EF93F0
:104CF000FF938091C8009091CE008871E0913D05AE
:104D0000EF5FEF7320913C05E21739F0E0933D052A
:104D1000F0E0E05CFA4F908301C082E090913B05A7
:104D2000892B80933B05FF91EF919F918F912F915C
:104D30000F900FBE0F901F9018951F920F920FB6F5
:104D40000F9211248F939F93EF93FF9390913F05C0
:104D500080913E05981769F0E0913E05EF5FEF7393
:104D6000E0933E05F0E0E058FA4F80818093CE005A
:104D700005C08091C9008F7D8093C900FF91EF919C
:104D80009F918F910F900FBE0F901F9018951092CA
:104D90003F0510923E0510923D0510923C0597FF8D
:104DA00004C022E02093C8009F779093CD008093A9
:104DB000CC0088E98093C90086E08093CA000895FA
:104DC00090913D0580913C05981781F0E0913C055C
:104DD000EF5FEF73E0933C05F0E0E05CFA4F808119
:104DE00090913B0510923B0590E0089580E091E0A2
:104DF000089510923D0510923C05089590913F054D
:104E00009F5F9F7320913E059217E1F3E92FF0E039
:104E1000E058FA4F808390933F058091C9008062EB
:104E20008093C90008951F920F920FB60F9211241C
:104E30002F933F934F935F936F937F938F939F93A2
:104E4000AF93BF93EF93FF9380915F0690916006BD
:104E500001969093600680935F0680916106909121
:104E600062060196909362068093610680916907BD
:104E7000813079F0809169078D3059F080E391E0BD
:104E80000E94033180E291E00E94E82F0E949A374D
:104E900003C081E080931906FF91EF91BF91AF911C
:104EA0009F918F917F916F915F914F913F912F9142
:104EB0000F900FBE0F901F901895809119068130AA
:104EC00029F480E391E00E94033104C08091190627
:104ED000833029F480E291E00E94E82F08C080919D
:104EE0001906823031F480E391E00E9403310E9480
:104EF0009A371092190608958091D70081608093A7
:104F0000D70084B7877F84BF0FB6F894A8958091A7
:104F10006000886180936000109260000FBE85B7CA
:104F2000806885BF85B7806885BF85B7806885BF85
:104F300085B7806885BF90E080E80FB6F8948093CD
:104F40006100909361000FBE0E941E0D0E94320D01
:104F50002FE788E391E0215080409040E1F700C0C6
:104F6000000086E092E00E94943B91E0811101C034
:104F700090E09093680687E092E00E94943B91E075
:104F8000811101C090E09093160688E092E00E94A3
:104F9000943B91E0811101C090E09093EA0689E092
:104FA00092E00E94943B91E0811101C090E09093C7
:104FB00028070895089590DE882319F082E08093F1
:104FC000690708950895089580E291E0EED780E39F
:104FD00091E00E94E630E2EEF0E080818460808320
:104FE000089580E391E00E94A53080E291E0A8C698
:104FF00080912E0190912F01009729F001979093B5
:105000002F0180932E010895BACB0F931F93F901BE
:10501000A0916406B091650612968C91828390915E
:105020006706992311F084E004C0882321F0809161
:105030001B06808301C01082E0916406F091650632
:10504000128210921B0688E090E0F8019183808321
:1050500080E01F910F910895F901808180FD0EC0BD
:105060009091C10591110AC0E0916406F091650626
:1050700083E5828381E08093C105089581FF0DC09F
:105080008091C005811109C0E0916406F091650628
:1050900089E3828381E08093C0050895CF938DE0FA
:1050A00092E00E94943BC82FCCD362E055D57C9906
:1050B0000CC07D990AC07E9908C081E08093690781
:1050C00060E00E94620DE9D51FC07D9910C07E99F5
:1050D0000EC00E942E05882331F00E9402350E94E6
:1050E0008C0589E001C08AE0809369074DC07C99F6
:1050F00004C07D9902C08EE005C07C9907C07E99EE
:1051000005C086E080936907C1E03EC07C9902C07B
:1051100085E0F8CF7D9902C083E0E6CF7E9902C09A
:1051200084E0E2CF853531F481E080936907809394
:105130006306EACF833579F4CFDD882339F082E046
:105140008093690781E08093630603C08AE08093BF
:105150006907C2E019C0823471F40E9402350E94CE
:105160002E05882309F4BFCF0E948C0589E0809327
:105170006907C9E009C08C3429F48DE08093690780
:10518000CDE002C0C09369076C2F8DE092E0CF9113
:105190000C94A13BCF93DF931F92CDB7DEB78CE089
:1051A00080936907A9DEA3D51BD5F2D43ADC0E940F
:1051B0005A3583E390E0EBDD789470DF1DE00AE080
:1051C00080916907863009F484C09CF4833009F427
:1051D000DBC034F4813011F1823009F46FC0D9C0E2
:1051E000843009F43DC0853009F0D3C00E94FD072A
:1051F000CDC08B3009F45EC04CF4893009F46CC02A
:105200008A3009F0C6C00E940235A7C08D3031F047
:105210008E3009F0BEC00E94AF0BB8C00E94460E8F
:1052200038D3182F2CD28983BE016F5F7F4F812F17
:1052300075D4882351F0883121F49091630691113F
:1052400080E0109263066981A7D08FEC97E0019708
:10525000F1F700C0000080E291E0BAD62EDEE0CF88
:105260000E94023501E01092EB0619B189B129B113
:1052700093B112951170102786FB882780F980273B
:10528000180F2095221F2227221F120F929591702E
:105290009027190F74D4810F80FF03C0469A2E986F
:1052A00002C046982E9AEFECF7E03197F1F700C074
:1052B0000000D9CF0E9402350E94BB0E80911706D4
:1052C000882311F05D98559A0E9402350E942B0F99
:1052D00077CF0E9487075AC00E9402350E94D705E7
:1052E000813011F00E94BD0480911706882369F077
:1052F0005D98559A0AC0019741F0EFE1FEE43197BD
:10530000F1F700C00000799BF6CF799907C02E987D
:10531000469A0E94900589EE93E0EFCF2E9A469828
:1053200060E080E00E94E7030E943704799B48CF49
:10533000B0D2F82EA4D18983BE016F5F7F4F8F2D2D
:10534000EDD3882319F069810E94E7038FEC97E081
:105350000197F1F700C00000E9CF2E9A46989FEF21
:10536000E1EEF4E09150E040F040E1F700C00000D1
:10537000469A2E982FEF81EE94E021508040904085
:10538000E1F700C00000E9CF0E94A40A109369076A
:1053900017CF0093690714CFCF93DF93C82FD62F71
:1053A0001092600610925F06E0916406F091650627
:1053B0008281882399F080915F06909160068436FF
:1053C000910560F480916907813021F0809169072F
:1053D0008D3051F780E291E0FBD5E6CFC7FF02C0E8
:1053E000CF77D2E0C43711F4D1E0C8E2F894E0916D
:1053F0006406F0916506C283D0931B0680E291E0BB
:10540000E7D578948FE39CE90197F1F700C000009D
:10541000F89480E291E0DCD57894DF91CF91089503
:10542000EF92FF920F931F93CF93DF938C01FC01B8
:1054300001900020E9F73197EF01C81BD90B7C01DF
:10544000C701801B910B8C179D070CF05FC0F70103
:1054500081917F01803249F1883251F1893259F1CD
:105460008F3259F18F3359F18A3361F18D3069F1FF
:105470008A3059F18E3261F18D3369F18B3269F1E5
:10548000893071F1833279F1813281F1803389F190
:105490009FEC980F993018F4835160E02CC090E095
:1054A0000E9486388D5362E026C060E08CE223C003
:1054B00062E086E220C062E01DC060E001C062E000
:1054C00088E319C062E083E316C060E088E213C09D
:1054D00060E087E310C060E001C062E08EE20BC0D4
:1054E00060E08BE208C062E080E205C062E08EE12D
:1054F00002C060E087E250DFFFE728E381E0F1507F
:1055000020408040E1F700C000009ACFDF91CF91AA
:105510001F910F91FF90EF900895BC018CEE96E0E3
:105520000E948E388CEE96E07BCF1F93CF93DF9353
:10553000282F6AE00E94B437C92F822F90E08C1B7D
:10554000910964E670E00E94C0376AE070E00E9452
:10555000C037D62F162F283C18F060E08FE104C02A
:10556000243618F060E08EE117DF60E0112319F0B7
:105570008DE18D0F01C087E20FDF2FEF80E792E012
:10558000215080409040E1F700C0000060E0CC2353
:1055900019F08DE18C0F01C087E2FEDE2FEF80E76E
:1055A00092E0215080409040E1F700C00000DF9180
:1055B000CF911F9108950F931F93CF93DF93C82F1F
:1055C0006AE00E94B437D92F8C2F90E08D1B91098F
:1055D00064E670E00E94C0376AE070E00E94C03765
:1055E000162F062F81E0809367062FEF80E792E069
:1055F000215080409040E1F700C00000C7FF08C084
:1056000060E082E6C9DEC83C28F060E08AE504C0BC
:10561000C43618F060E089E5BFDE2FE788E391E04B
:10562000215080409040E1F700C0000060E000237E
:1056300019F088E5810F01C082E6AEDE2FE788E32E
:1056400091E0215080409040E1F700C0000060E010
:10565000DD2319F088E58D0F01C082E69DDE2FEF76
:1056600080E792E0215080409040E1F700C00000C8
:1056700010926706DF91CF911F910F91089580914D
:105680005E06823099F040F4813009F589B1829547
:1056900081709091680617C0833079F08430B9F436
:1056A00083B182958170909128070DC089B186FBE6
:1056B000882780F99091160606C089B1881F88272F
:1056C000881F9091EA06891302C082E001C080E041
:1056D0007C9B81607D9B84607E9B886008957F9227
:1056E0008F929F92AF92BF92CF92DF92EF92FF92F2
:1056F0000F931F93CF93DF93F894729A8FEC97E0F8
:105700000197F1F700C00000729878948FEC97E051
:105710000197F1F700C00000E12CF12C712C10E092
:10572000D0E0C0E0B0E0A0E0F0E0E0E01D9913C000
:1057300021E030E040E050E060E070E080E090E0A8
:105740000E2D0E940738722A132BD42BC52BB62B93
:10575000A72BF82BE92BF894729A9AE19A95F1F716
:1057600000C0729878948AE68A95F1F700C09FEF9E
:10577000E91AF90A80E3E816F104C1F68091EB0614
:105780008230E9F4272D312F4D2F5C2F6B2F7A2F8C
:105790008F2F9E2F0CE20E942238490191E089222E
:1057A00099248091660690E08816990641F0712C44
:1057B00010E0D0E0C0E0B0E0A0E0F0E0E0E08091F8
:1057C0005E06813051F099B19295917020916806F2
:1057D000921301C0E064823059F099B196FB992789
:1057E00090F920911606921301C0E062833059F0BF
:1057F00099B1991F9927991F2091EA06921301C028
:10580000E061843041F083B18295817090912807E6
:10581000891301C0E860272D312F4D2F5C2F6B2F8E
:105820007A2F8F2F9E2FDF91CF911F910F91FF9095
:10583000EF90DF90CF90BF90AF909F908F907F9030
:105840000895FF920F931F93CF93DF9348DFF22EBB
:10585000032F142FD52FC62FE72FB82FF92F8091A4
:10586000EB068111EF7E2F2D302F412F5D2F6C2FF6
:105870007E2F8B2F9F2FA0E00E943E3819F00E94B0
:10588000FF3701C080E0DF91CF911F910F91FF9012
:1058900008952F923F924F925F926F927F928F92D4
:1058A0009F92AF92BF92CF92DF92EF92FF920F93AF
:1058B0001F93CF93DF9300D01F92CDB7DEB70FDFDA
:1058C0004901142F5983F62FE72F482E392E809146
:1058D000EB068111EF7E5090180620905C0683ED58
:1058E000E82E85E0F82E9BEDA92E92E0B92EC12C72
:1058F000D12C712C612CDB82CA82511002C01B8218
:105900001A82D5010D915D01BFEFCB1ADB0A94011C
:10591000412F59816F2F7E2F842D932D0E94223885
:10592000217030E040E050E060E070E080E090E026
:10593000A0E00E943E38B1F0D7018C91821510F49E
:105940008F5F35C02A813B8121533A4F3B832A83A5
:10595000D9018C9181112CC021E02C937C2C6624E0
:10596000639426C0552039F0D7018C91882399F093
:105970008150D7011CC08091D305811113C0809143
:10598000D40581110FC08091D50581110BC0809184
:10599000D605811107C02A813B8121533A4FD90195
:1059A0001C9206C0D7018C91882311F081508C93F2
:1059B000BFEFEB1AFB0A24E0C216D10409F09BCF1B
:1059C000B9819401412F5B2F6F2F7E2F80E090E0F3
:1059D0002F3FAFEF3A074A075A076A077A07810550
:1059E000910509F459C08091CE05882389F02FE3F1
:1059F00030E0281B31093B832A8321E030E040E07E
:105A000050E060E070E080E00A810E94073829C021
:105A10009091CD05992359F18091CC058F5F8093AA
:105A2000CC0520915D06821728F01092CC051092CB
:105A3000CD051DC02FE330E0291B31093B832A83AC
:105A400021E030E040E050E060E070E080E090E095
:105A50000A810E94073820953095409550956095B1
:105A60007095822293221423B523F623E723940111
:105A7000412F5B2F6F2F7E2F80E090E0A0E00E94EF
:105A80003E3851F00E94FF379091CB059F5F909375
:105A9000CB051092CA0508C08091CA058F5F80931C
:105AA000CA051092CB0580E09091A9062091CB0504
:105AB000291758F09093CB059091CE05981799F03F
:105AC0008093CE056620A1F012C080911A069091B5
:105AD000CA05981740F08093CA058091CE0580933F
