:100000004CC2000067C2000065C2000063C200006D
:1000100061C200005FC200005DC200005BC2000060
:1000200059C2000057C200000C94AC3653C2000005
:1000300051C200004FC200004DC200004BC2000080
:1000400049C200000C94852645C2000043C200004E
:1000500041C200003FC200003DC200003BC20000A0
:1000600039C200000C94E1250C940F2633C2000025
:1000700031C200002FC200002DC200002BC20000C0
:1000800029C2000027C2000025C2000023C20000D0
:1000900021C200001FC200001DC200001BC20000E0
:1000A00019C200000C94440A15C200005345545470
:1000B000494E4753205341564544210D000D4947B1
:1000C0004E4F524520454E544552204B45592057DE
:1000D00048454E2053504143454241522049532008
:1000E00048454C443F0D000D4E4F5720534554207A
:1000F00052454544205245414354494F4E205449AE
:100100004D452E2E2E0D000D4E4F57205345542099
:1001100044454C4159204245545745454E20444F93
:1001200055424C45204B4559205052455353455359
:100130002E2E2E0D000D4E4F5720534554204B456B
:10014000592052454C454153452054494D452E2E8A
:100150002E0D005052455353204354524C20414ED3
:100160004420414C5420544F20534554204B455972
:10017000205245414354494F4E2054494D452E2E5F
:100180002E0D00505245535320434D44204B4559AA
:1001900020544F20434F4E54494E55452E2E2E0D80
:1001A0000041444A555354494E47204B455920532A
:1001B000454E53495449564954592E0D004E4F202F
:1001C00048414C4C204546464543542053454E53E8
:1001D0004F522044455445435445442E20284E4F09
:1001E0005420412050524F424C454D290D00484F5C
:1001F0004C4420444F574E20414E59204B455920E6
:10020000544F2043414C4942524154452048414CAF
:100210004C204546464543542053454E534F522E9D
:100220002E2E0D004241434B535041434500534550
:100230004E44005345434F4E4441525920454E547D
:10024000455200454E5445520053504143454241AA
:100250005200515549434B2043414C49425241546D
:10026000494F4E204D4F44452E2E2E0D0044554DE6
:100270004D59204C4F414420444541435449564137
:100280005445440D0044554D4D59204C4F41442098
:100290004143544956415445440D004552524F5232
:1002A0002E2E2E5348494654204D55535420424536
:1002B00020412052454544205357495443482E0D70
:1002C00000545950452054484520464F4C4C4F57F8
:1002D000494E47204B4559532028505245535320EF
:1002E000535041434520544F20534B4950292E2E03
:1002F0002E0D0043414C4942524154494E472E2E47
:100300002E0D00534420434152442053544F524138
:100310004745204D4F44450D00555342204B45590C
:10032000424F4152442F434152442052454144459B
:1003300052204D4F44450D004C49474854204D4FE5
:1003400044452028534420434152442052454144CF
:1003500045522044495341424C4544290D00424CEA
:100360005545544F4F5448204B4559424F415244F4
:10037000204D4F44450D0044454641554C542053B3
:10038000455454494E473A20004649524D57415230
:10039000452056455220352E322E313300555342DA
:1003A00020545950455752495445522028544D29FC
:1003B0000D00300355005300420020005400790026
:1003C00070006500770072006900740065007200BB
:1003D00020004B006500790062006F006100720030
:1003E0006400000026035500530042002000540022
:1003F0005900500045005700520049005400450084
:10040000520020004C004C0043000000040309048B
:1004100009023900020100800709040000020806F1
:10042000500007058302400005070504024000054F
:100430000904010001030101000921110100012249
:100440003F000705810308000512011001000000AC
:1004500008EB03612086000102DC0105010906A109
:1004600001050719E029E7150025017501950881A7
:100470000295017508810105081901290595057581
:10048000019102950175039101150025FF050719DA
:100490000029FF950675088100C011241FBECFEF0B
:1004A000DAE0DEBFCDBF13E0A0E0B1E0EEE4FAE7B2
:1004B00002C005900D92A03BB107D9F72AE0A0EB4E
:1004C000B3E001C01D92A735B207E1F70E946F2883
:1004D0000C94253D95CD8F982FE788E391E021502E
:1004E00080409040E1F700C000008F9A2FEF86E136
:1004F00091E1215080409040E1F700C000007698E3
:100500008FE097E20197F1F700C000000895CF92C5
:10051000DF92EF92FF921F93CF93DF938823A1F195
:100520002FEF80E792E0215080409040E1F700C03B
:100530000000E5E7F6E010821182128214827F014A
:100540000F2EF5EBCF2EF6E0DF2EF02DEF011C2F56
:100550001E190E9452269C012227232B31F0E12FE5
:10056000F0E0EB58F94F108204C08993CC15DD05FB
:1005700071F7809175068F3449F081E0909177068C
:100580009D3329F080E003C081E001C081E0DF916C
:10059000CF911F91FF90EF90DF90CF9008951F9320
:1005A000CF93DF93EC01162F0E946B26888188235E
:1005B00031F021960E94702689918111FBCF8DE048
:1005C0000E9470268AE00E947026812FA0DFDF91B2
:1005D000CF911F910895EF92FF920F931F93CF93A6
:1005E000DF93CDB7DEB7A4970FB6F894DEBF0FBE8A
:1005F000CDBF182F062F84E2EAE9F1E0DE01119663
:1006000001900D928A95E1F760E089E691E0C7DFFD
:100610008FEC97E00197F1F700C00000112314F46C
:100620001F7702E0143711F401E018E21F921F93C4
:100630001F920F930F2EF2E7EF2EF1E0FF2EF02D19
:10064000FF92EF928E010F5F1F4F1F930F930E9437
:10065000163A60E0C801A3DF8FEC97E00197F1F74D
:1006600000C000001F921F921F921F92FF92EF92F4
:100670001F930F930E94163A60E0C80190DF0FB6F7
:10068000F894DEBF0FBECDBFA4960FB6F894DEBFC0
:100690000FBECDBFDF91CF911F910F91FF90EF90D3
:1006A000089519DF2FEF89E698E1215080409040AE
:1006B000E1F700C0000081E02ADF61E08EEB91E00D
:1006C0006EDF2FEF89E698E1215080409040E1F7FE
:1006D00000C000000895CF9380914E0A8430E1F766
:1006E0002FEF84E39CE0215080409040E1F700C070
:1006F0000000F1DE2FEF8DE399E42150804090401F
:10070000E1F700C0000081E002DF61E089E691E0EE
:1007100046DFC82F61E08AEC91E041DF61E08EEBBB
:1007200091E03DDF61E088ED91E039DF2FEF84E378
:100730009CE0215080409040E1F700C0000061E063
:100740008DEE91E02CDF61E087E092E028DF8C2FD6
:10075000CF91089561E087E092E021CF0895CF9393
:10076000DF9300D000D0CDB7DEB78DE494E4ADE3E5
:10077000B0E089839A83AB83BC838DE092E00E94D2
:10078000C0292FEF89E698E1215080409040E1F7A1
:1007900000C0000060E089E691E001DF61E086E1F1
:1007A00092E0FDDEBE016F5F7F4F85E796E00E941D
:1007B000CF39BE016F5F7F4F80E090E00E94CF395C
:1007C000009741F0FC018181803321F461E08CE1EC
:1007D00092E0E5DE81E00F900F900F900F90DF9197
:1007E000CF91089582E292E00E94C02940E450E057
:1007F00060E070E08CEB96E00E94D43C40E450E076
:1008000060E470E08AE09AE00E94D43C40E450E06A
:1008100060E870E087E097E00E94D43C40E450E05C
:1008200060EC70E087EC97E00E94D43C40E450E03C
:1008300060E071E088E497E00E94D43C6091FF069C
:1008400085E092E00E94C23C6091060786E092E05B
:100850000E94C23C6091B60687E092E00E94C23CD2
:100860006091880788E092E00E94C23C6091C607D0
:1008700089E092E00C94C23C0895CF93DF931092EC
:1008800089070E947C2DD82F8EEE91E00E943F2A8E
:100890002FEF87EA91E6215080409040E1F700C0B9
:1008A00000000E947C2DC82FD81307C08DEB91E06B
:1008B0000E943F2A1092890723C08DE292E00E9495
:1008C000C02981E080938907C093050784E492E002
:1008D0000E94C02983E690E022E07C9B2093890758
:1008E000EFE5FAEE3197F1F700C000000197A9F7A4
:1008F00080918907823021F482E792E00E94C0292A
:100900007E9903C081E0809389076091890783E025
:1009100092E00E94C23C6091050784E092E00E9450
:10092000C23C81E090918907911101C080E0DF9184
:10093000CF9108952FEF81EE94E0215080409040B8
:10094000E1F700C000000E94A92B90E00097D9F3C6
:100950000895CF93DF93EB01423081F4FB01E95F0F
:10096000F84F80838BE892E00E94C02962E08EE21B
:100970000E947C298C2F0E94482A19C0443081F49F
:10098000FB01E65FF54F808381E992E00E94C02978
:1009900062E08EE20E947C298C2F0E94482A07C0C8
:1009A000FB01E454F94F8083862F0E94482A2FEFE1
:1009B00084E39CE0215080409040E1F700C00000BB
:1009C000DF91CF9108951F93CF93DF9384E292E05C
:1009D0000E943F2A60E08CE20E947C29ABDFEC01A0
:1009E0000E949E2A182FDD27482FBE018AE2B1DF20
:1009F00012FD04C0C953D84F88E0888360E088E2C4
:100A00000E947C2984E992E00E94C02960E08CE287
:100A10000E947C298FDFEC010E949E2ABE0177276D
:100A2000482F89E296DF60E088E20E947C2988E90D
:100A300092E00E94C02960E08CE20E947C297ADF6B
:100A4000EC010E949E2A182FDD27482FBE018BE261
:100A500080DF12FD09C0FE01E953F84F89E0808371
:100A6000C85BD84F84E7888360E088E20E947C29D5
:100A700083E492E00E943F2A60E08CE20E947C299D
:100A800059DFEC01DD2740E0BE0188E262DFC95397
:100A9000D84F8DE0888360E088E20E947C2983E360
:100AA00092E00E943F2A60E08CE20E947C2984E769
:100AB00090E040DFBC01772740E088E24ADF60E059
:100AC00088E20E947C298EE292E00E943F2A60E048
:100AD0008CE20E947C292EDFBC01772740E084E76E
:100AE00038DF60E088E20E947C2989E492E00E947D
:100AF0003F2A60E08CE20E947C291CDFEC01DD27AC
:100B000040E0BE018CE225DFC953D84F80E28883E4
:100B100060E088E20E947C29DF91CF911F910895C7
:100B200080914E0A8430E1F72FEF89E698E1215059
:100B300080409040E1F700C0000082E592E00E9412
:100B40003F2A99B181E0929591709827909306077A
:100B500099B196FB992790F998279093B60699B189
:100B60009095991F9927991F9093880793B1929513
:100B7000917089278093C60780DE81EC92E00E9405
:100B80003F2A8BE892E00E94C0291092FF0660E0A5
:100B90008CE20E947C29CEDE9FEF980F983028F4DB
:100BA0008093FF060E94482A04C08BE992E00E94CD
:100BB0003F2A60E088E20E947C2905DF13DE8CEA90
:100BC00090E00C943F2A08954F925F926F927F922B
:100BD0008F929F92AF92BF92CF92DF92EF92FF924D
:100BE0000F931F93CF93DF930E94EB2DC0914E0A7A
:100BF000C430E1F72FEF89E698E121508040904022
:100C0000E1F700C000008DE993E00E943F2A89E8E7
:100C100093E00E943F2A60E088E20E947C298DE0F8
:100C200092E00E94B53CD82F87E793E00E943F2ACC
:100C3000D23099F018F4D13031F019C0D93041F0E8
:100C4000DD3081F014C089E193E00E943F2A13C097
:100C50008EE593E00E943F2A0EC083E093E00E945D
:100C60003F2A09C088E393E00E943F2A04C08CE930
:100C700092E00E94C02983EF92E00E943F2A99B13E
:100C800081E09295917098279093060799B196FB11
:100C9000992790F998279093B60699B19095991F46
:100CA0009927991F9093880793B1929591708927FE
:100CB0008093C607E2DD7D9918C08091B70688232E
:100CC00039F01092B7068DE692E00E943F2A07C0E5
:100CD00081E08093B70685E892E00E943F2A609108
:100CE000B7068FE092E00E94C23C81EC92E00E9445
:100CF0003F2AD5E00F2EFEE1EF2EF02D02C0CF5F90
:100D0000DF5F62E08C2F0E947C2960E08CE20E9411
:100D10007C2910DE8C010E949E2AF82E1127482F74
:100D20004D7FB8018C2F15DECF3039F4F801E65F26
:100D3000F54FE082F2FCE1C102C0F2FC0CC0F80108
:100D4000E85BF84F8CE38D0F8083F801E953F84F8F
:100D50008CE58D0F808360E088E20E947C29DE3183
:100D600070F20F2EFCECCF2EF2E0DF2EF02D00E023
:100D700010E0F601E1906F0160E08E2D0E947C2969
:100D800060E08CE20E947C29D5DDEC010E949E2A65
:100D9000F82EDD27482F4D7FBE018E2DDADDF2FCC7
:100DA00015C0FE01E953F84FD801AE53BD4F8C91E9
:100DB0008083FE01E85BF84FD801A854BD4F8C91A9
:100DC0008083C65FD54F8AE3800F888360E088E226
:100DD0000E947C290F5F1F4F0A30110551F684EAEB
:100DE00092E00E94C02960E08CE20E947C29A2DD92
:100DF000EC010E949E2ABE017727482F8AE3A9DDD5
:100E000060E088E20E947C2987EA92E00E94C02983
:100E100060E08CE20E947C298DDDEC010E949E2A1C
:100E2000BE017727482F84E494DD60E088E20E94C9
:100E30007C298BEA92E00E94C02960E08CE20E944B
:100E40007C2978DDEC010E949E2ABE017727482F7D
:100E500085E47FDD60E088E20E947C298BE892E0F7
:100E60000E94C02960E08CE20E947C2963DD9FEF34
:100E7000980F983028F48093FF060E94482A04C0F7
:100E80008BE992E00E943F2AFFEF24E38CE0F150CF
:100E900020408040E1F700C0000060E088E20E944E
:100EA0007C291EE2CDE20F2EFEE2DF2EF02D0FE3B5
:100EB0000F2EFFE24F2EF02D0F2EFDE25F2EF02DB4
:100EC0000F2EFAE26F2EF02D0F2EF0E67F2EF02D72
:100ED0000F2EFEE78F2EF02D0F2EFDE39F2EF02D0F
:100EE0000F2EFBE2AF2EF02D0F2EFBE3BF2EF02DC9
:100EF0000F2EFAE3CF2EF02D02C0CF5F1F5FC2335B
:100F0000E1F360E08C2F0E947C2960E08CE20E947B
:100F10007C2910DD7C010E949E2AD82FFF24482FB7
:100F2000B7018C2F16DDD2FD4DC0C33349F4F70154
:100F3000E953F84FB082F701E85BF84FC08216C062
:100F4000CE3249F4F701E953F84F9082F701E85B9C
:100F5000F84FA08216C0C53349F4F701E953F84FA2
:100F60007082F701E85BF84F808216C0CD3249F4F9
:100F7000F701E953F84F5082F701E85BF84F6082C0
:100F800017C0C83349F4F701E953F84F4082F7011D
:100F9000E85BF84F008316C0C63351F4F701E953FC
:100FA000F84F8CE28083F701E85BF84F00830AC0BA
:100FB000C73341F4F701E953F84FD082F701E85BFA
:100FC000F84FD08260E088E20E947C29193308F44F
:100FD00094CF62E08FE10E947C2960E08CE20E9465
:100FE0007C29A8DCEC010E949E2A9E0133278230D6
:100FF00071F4F901E85BF84F80E480838BE892E0BC
:101000000E94C02962E08EE20E947C2907C082FD16
:1010100005C0F901E953F84F80E480838C2F0E94CA
:10102000482A60E088E20E947C299FEFE4E3FCE02C
:101030009150E040F040E1F700C0000062E088E33A
:101040000E947C2960E08CE20E947C2973DCEC0128
:101050000E949E2A9E013327823071F4F901E85BD9
:10106000F84F8FE380838BE892E00E94C02962E012
:101070008EE20E947C2907C082FD05C0F901E95378
:10108000F84F8FE380838C2F0E94482A60E088E22B
:101090000E947C292FEF84E39CE021508040904007
:1010A000E1F700C0000062E08EE90E947C2960E068
:1010B0008CE20E947C293EDCEC010E949E2A182FC3
:1010C000DD27482FBE018EE944DC123029F4C85BCD
:1010D000D84F81E2888306C012FD04C0C953D84F9F
:1010E00081E2888360E088E20E947C296CDC7ADB04
:1010F0008CEA90E00E943F2A05C060E088E20E94EE
:101100007C29FDCDDF91CF911F910F91FF90EF9042
:10111000DF90CF90BF90AF909F908F907F906F9017
:101120005F904F900895CF9381E092E00E94B53C8C
:101130008093470782E092E00E94B53C8093BA0614
:1011400080E092E00E94B53C8093FE0680914E0ABA
:101150008430E1F72FEF89E698E1215080409040FC
:10116000E1F700C0000081EA91E00E943F2A83E895
:1011700091E00E943F2A7E99FECF83E591E00E9494
:101180003F2A809147070E94482A60E088E20E9437
:101190007C291AC07C990BC0809147078F5F809390
:1011A00047070E94482A60E088E20E947C297D99D6
:1011B0000BC0809147078150809347070E94482ABF
:1011C00060E088E20E947C297E99E4CF85E391E08B
:1011D0000E943F2A8091BA060E94482A60E088E275
:1011E0000E947C291AC07C990BC08091BA068F5F3F
:1011F0008093BA060E94482A60E088E20E947C2917
:101200007D990BC08091BA0681508093BA060E94E6
:10121000482A60E088E20E947C297E99E4CF87E03A
:1012200091E00E943F2A8091FE060E94482A60E0D9
:1012300088E20E947C291AC07C990BC08091FE062E
:101240008F5F8093FE060E94482A60E088E20E9439
:101250007C297D990BC08091FE0681508093FE060B
:101260000E94482A60E088E20E947C297E99E4CFAF
:1012700087EE90E00E943F2A8091FD060E94482A56
:1012800060E088E20E947C291AC07C990BC08091A2
:10129000FD068F5F8093FD060E94482A60E088E289
:1012A0000E947C297D990BC08091FD06815080931E
:1012B000FD060E94482A60E088E20E947C297E990F
:1012C000E4CF8DEB90E00E943F2A8091B8068823FE
:1012D00029F08FEA92E00E94C0291AC083EB92E0C5
:1012E0000E94C02915C07C9906C01092B80683EBF5
:1012F00092E00E94C0297D9906C0C093B8068FEA8B
:1013000092E00E94C0297C9BFECF7D9BFCCF01C058
:10131000C1E07E99E8CF6091FE0680E092E00E94F5
:10132000C23C6091BA0682E092E00E94C23C6091A9
:10133000470781E092E00E94C23C6091FD068CE08C
:1013400092E00E94C23C6091B8068EE092E00E945A
:10135000C23C8CEA90E00E943F2ACF910895E4E6D7
:10136000F0E08081877F80838AE08093810087E23C
:101370008093890080E180938800EFE6F0E080812F
:101380008260808308952098289A54985C9A569891
:101390005E9A57985F9A24982C9A2B9A23982B9AA6
:1013A0002A9A22982A9A6A9A25982D9A299A2198F7
:1013B000299A599A519A55985B9A539A52985A9ADF
:1013C00084988C9A85988D9A86988E9A8F98879A09
:1013D000479A3F9A8198899A769A6E9A469A3E9A47
:1013E0002E9A269A0895F8949FEF9093D100109228
:1013F000BF0090E29093CF00613061F4E4ECF0E044
:1014000090819E7F9083E0ECF0E090819F7B9083C1
:1014100046980AC0E4ECF0E0908191609083E0ECA3
:10142000F0E0908190649083E0ECF0E09081926035
:101430009083E2E7F0E0908194609083813049F0FE
:1014400028F0823061F0833071F011C089E0809320
:10145000C100E1ECF0E08081886080830DC087E00E
:101460008093C10009C086E08093C10005C0E1EC13
:10147000F0E08081886080831092B5061092BF00F2
:101480001092BE00789408951F920F920FB60F929B
:1014900011248F939F93EF93FF938091CF009091AE
:1014A000B506992319F0923049F00CC08F3F21F412
:1014B00091E09093B50612C08F5F10C08F3F71F01E
:1014C0008F5F0CC0811109C0E0ECF0E090819F7B40
:1014D00090831092C100469A01C081508093CF0042
:1014E000FF91EF919F918F910F900FBE0F901F90E2
:1014F0001895292F332723303105C9F03CF42130CA
:10150000310559F02230310569F036C021323105FC
:1015100049F12232310559F12FC082E190E029E4EE
:1015200034E033C089E390E020E134E02EC0992715
:101530008130910559F08230910571F0892B09F5C0
:10154000ECE0F4E0849190E09F011FC0E4EEF3E052
:10155000849190E09F0119C0E2EBF3E0849190E068
:101560009F0113C089E090E029E334E00EC08FE3CF
:1015700090E02BE534E009C080E090E020E030E02E
:1015800004C080E090E020E030E0FA013183208365
:101590000895CF9342E160E071E087EB93E00E9411
:1015A000961D87EB93E00E944B2087EB93E00E940F
:1015B0008C2042E160E071E087EB93E00E94961D91
:1015C000C82F4091C1035091C2036091C303709131
:1015D000C40387EB93E00E949C208C2FCF91089549
:1015E00087EB93E00E944B2087EB93E00C948C20D8
:1015F000089541E06AEE72E087ED93E00E94431D9A
:1016000091E0811101C090E0892F08958091B3038A
:101610009091B403A091B503B091B603892B8A2BA6
:101620008B2BC1F4E7EDF3E0A281428953896489F1
:1016300075899A01AB012250310941095109B0E085
:101640000E942F396093B3037093B4038093B50362
:101650009093B6036091B3037091B4038091B50386
:101660009091B6030895FF920F931F93CF93DF934A
:1016700000D0CDB7DEB70AE018E0F80101900020F5
:10168000E9F73197EA50F840FA83E9834091C103C2
:101690005091C2036091C3037091C40387EB93E040
:1016A0000E949C2049815A819E012F5F3F4FB801C3
:1016B00087EB93E00E94B01EF82EF801108287EBB2
:1016C00093E00E944B2081E0F11001C080E00F9078
:1016D0000F90DF91CF911F910F91FF900895CF93BD
:1016E00088DF882321F08AE08093090820C089E000
:1016F000E6EDF2E0A0E0B1E001900D928A95E1F70D
:10170000CCE047DFEFEDF2E0AAE0B8E08C2F0190EB
:101710000D928A95E1F7A7DF63DF2FEF80E792E074
:10172000215080409040E1F700C00000EACFCF9107
:101730000895EAE0F8E001900020E9F73197EA50D7
:10174000F840E63F91E0F90708F04BC08D30D1F545
:101750009091B2039D3049F0DF01A65FB74F90E250
:101760009C93E55FF74F10823AC09F0121503109E9
:10177000D901A65FB74F9C919032B1F4D901A65F11
:10178000B74F4DE04C93DF01A65FB74F9AE09C93B3
:10179000DF01A55FB74F4C93DF01A45FB74F9C9368
:1017A000E35FF74F10821BC0DF01A65FB74F9DE0DC
:1017B0009C93DF01A55FB74F9AE09C93E45FF74FDE
:1017C00010820DC0883021F4E75FF74F108207C008
:1017D000DF01A65FB74F8C93E55FF74F10828093D0
:1017E000B2030895CF92DF92EF92FF920F931F936F
:1017F000CF93DF93CDB7DEB766970FB6F894DEBF11
:101800000FBECDBF10920A08F4DE882321F08AE0D3
:1018100080930908BBC061E080E0E5DD8AE092E0EA
:101820000E94BD3C8C018031974210F000E010E036
:101830000F2EFBEECF2EF2E0DF2EF02D0F2EF0E07C
:10184000EF2EF1E0FF2EF02D0F5F1F4F1F930F9330
:10185000DF92CF92FF92EF920E94163ABE016F5F25
:101860007F4FC7010E9453220F900F900F900F904F
:101870000F900F90882341F3843021F08AE0809309
:10188000090884C00E94D12BF82E0E949E2A682F3E
:101890008F2D0E94672D8823A9F34BDF7ADE8823E2
:1018A00021F08AE08093090871C0B8018AE092E0D3
:1018B0000E94EB3C10920808109207080F2EFAE0E5
:1018C000EF2EF8E0FF2EF02D49C00E94D12B182FEB
:1018D0000E949E2A682F812F0E94672D182F88232F
:1018E00001F1833729F480910207811145C045C079
:1018F000109202071EDF10920808109207081D3090
:1019000061F0812F8D7F8C3241F08FED810F82301D
:1019100020F01F3311F01A3321F460E082E063DD20
:10192000A2DE8FEC97E00197F1F700C000008091F4
:101930000708909108088137974180F0F70180816E
:10194000882361F04698FFEF2DE389E4F1502040B1
:101950008040E1F700C0000086DE469A80910708CB
:101960009091080880329F4B08F4AFCF60E082E08E
:101970003ADD79DE35DE0AC010E010920207812FD1
:10198000D8DE1092080810920708BBCF66960FB6F3
:10199000F894DEBF0FBECDBFDF91CF911F910F91A5
:1019A000FF90EF90DF90CF90089523B123B101977E
:1019B000E1F70895FC01680F791F9191992314F4C0
:1019C0002A9A01C02A98299A299896FF02C02A9A31
:1019D00001C02A98299A299895FF02C02A9A01C025
:1019E0002A98299A299894FF02C02A9A01C02A9815
:1019F000299A299893FF02C02A9A01C02A98299A05
:101A0000299892FF02C02A9A01C02A98299A2998F7
:101A100091FF02C02A9A01C02A98299A299890FF1A
:101A200002C02A9A01C02A98299A2998E617F7072E
:101A300021F608952A9AFC01680F791F93B1299A1B
:101A4000299893FB992790F9990F1B999F5F299AE1
:101A50002998990F1B999F5F299A2998990F1B998B
:101A60009F5F299A2998990F1B999F5F299A299816
:101A7000990F1B999F5F299A2998990F1B999F5F2E
:101A8000299A2998990F1B999F5F299A29989193D0
:101A9000E617F70799F608950F931F93CF93DF93F7
:101AA0001F92CDB7DEB708E813E161E070E0CE0128
:101AB0000196C0DF89818F3F31F084E690E075DFC9
:101AC0000150110991F781E090E0012B11F480E0C1
:101AD00090E00F90DF91CF911F910F910895CF93D8
:101AE000DF931F92CDB7DEB7599A61E070E0CE0167
:101AF0000196A0DF0F90DF91CF9108950F931F9370
:101B0000CF93DF931F92CDB7DEB7599861E070E0B5
:101B1000CE0101968FDFC0DF8C01892B11F4DFDF4E
:101B200002C001E010E0C8010F90DF91CF911F913A
:101B30000F910895CF92DF92EF92FF920F931F9330
:101B4000CF93DF9300D0CDB7DEB77C016B0108EEF9
:101B500013E061E070E0CE0101966CDF99819F3F58
:101B600031F484E690E021DF0150110991F7998169
:101B70009E3F59F4B601C7015DDF62E070E0CE011F
:101B8000019658DF81E090E002C080E090E00F9085
:101B90000F90DF91CF911F910F91FF90EF90DF9009
:101BA000CF900895EF92FF921F93CF93DF9300D0D1
:101BB000CDB7DEB77C01162F6FDF009711F11983C7
:101BC00061E070E0CE010196F5DE1D3FC1F060E0FE
:101BD00072E0C701EFDE62E070E0CE0101962ADF1D
:101BE00061E070E0CE01019625DF89818F7131E0DF
:101BF00020E0853009F030E0832F922F02C081E091
:101C000090E00F900F90DF91CF911F91FF90EF9098
:101C10000895DF92EF92FF920F931F93CF93DF937C
:101C2000CDB7DEB727970FB6F894DEBF0FBECDBF96
:101C3000182F042FF52EE62ED72E88234CF440E0E3
:101C400050E0BA0187E3E5DF823008F04FC01F772C
:101C50001C3009F144DF52DF892BD9F0812F8064D9
:101C60008A83DB82EC82FD820E831123B9F133C0BB
:101C700061E070E0CE010196DDDE1AE061E070E027
:101C8000CE010196D7DE8981882384F51150B1F702
:101C90002DC08FEF2BC08CE48A83DB82EC82FD8227
:101CA0000E8381E08F8366E070E0CE01029682DED3
:101CB0001C3019F7DDCF87E88F8366E070E0CE0136
:101CC000029678DEDACF81E08F8366E070E0CE01A5
:101CD000029670DED2CF183071F3F5CF85E98F838D
:101CE00066E070E0CE01029665DEC7CF27960FB69C
:101CF000F894DEBF0FBECDBFDF91CF911F910F9142
:101D0000FF90EF90DF900895811103C080910D0145
:101D1000089581E00895EF92FF920F931F93CF9360
:101D2000DF9300D000D0CDB7DEB78111A1C080E134
:101D300097E23BDE519A599A2998219A2998229A3A
:101D40002B9A1AE061E070E0CE01019673DE11502B
:101D5000C9F740E050E0BA0180E05BDF813009F074
:101D60006DC04AEA51E060E070E088E052DF813007
:101D7000A9F564E070E0CE0101965CDE8B818130D4
:101D800009F05EC08C818A3A09F05CC008EE13E06D
:101D900040E050E060E070E489EA3BDF882341F0F6
:101DA00088EE93E002DE0150110991F7F12C56C044
:101DB000012B09F449C040E050E0BA018AE329DF71
:101DC000811144C064E070E0CE01019633DE898168
:101DD00086FD3EC06894FF24F2F840C040E050E029
:101DE000BA0189EA16DF823028F0EE24E394FF245A
:101DF000F39407C00F2EF9EAEF2EF02D6894FF241C
:101E0000F1F808EE13E040E050E0BA018E2D01DF5A
:101E1000882341F088EE93E0C8DD0150110999F75D
:101E2000F12C1CC0012BC9F040E052E060E070E0F2
:101E300080E1EFDE882391F0F12C10C0F12C0EC070
:101E4000F12C0CC0F12C0AC0F12C08C0F12C06C0FA
:101E50000F2EFCE0FF2EF02D01C0F12CF0920506B4
:101E600011E0F11010E010930D0139DE812F01C057
:101E700083E00F900F900F900F90DF91CF911F9103
:101E80000F91FF90EF900895FF920F931F93CF93C0
:101E9000DF93EB0181113BC080910D0180FD39C0C2
:101EA0008091050683FD09C0012E19E0220F331F22
:101EB000441F551F1A95D1F7102D0230110528F433
:101EC0000F2EF1E1FF2EF02D04C00F2EF2E1FF2EB8
:101ED000F02DBA01A9018F2D9CDE811112C060E0A6
:101EE00072E0CE0127DE892B21F0DE5F015011095F
:101EF000B1F782E1F81205C040E050E0BA018CE091
:101F000088DEEDDD81E0012B29F480E003C083E071
:101F100001C083E0DF91CF911F910F91FF90089551
:101F2000CF92DF92EF92FF920F931F93CF93DF93A5
:101F3000EB0169017A01811149C080910D0180FD99
:101F400047C08091050683FD09C00B2EB9E0CC0C7B
:101F5000DD1CEE1CFF1CBA95D1F7B02D0130110528
:101F600089F4B701A60188E154DE811129C06EEF22
:101F7000CE0118DE31E020E0892B09F030E0032F9C
:101F8000122F1EC0867029F0A80160E070E087E97A
:101F900040DEB701A60189E13CDE811111C06CEF82
:101FA000CE0100DE892B21F0DE5F01501109B9F767
:101FB0006DEF80E090E0F6DD892B11F401E010E098
:101FC0008EDD81E0012B29F480E003C083E001C0B5
:101FD00083E0DF91CF911F910F91FF90EF90DF9001
:101FE000CF9008950F931F93CF93DF93CDB7DEB7B4
:101FF00060970FB6F894DEBF0FBECDBF811198C0B9
:1020000080910D0180FD96C08A01613061F020F061
:10201000633009F47AC084C071DD11E0892B09F4C2
:1020200084C010E082C040E050E0BA0189E0F1DDF8
:10203000811178C060E170E0CE0101967BDD892BD3
:1020400009F472C089818295869586958370813066
:1020500031F588858F7390E0A0E0B0E0DC0199272E
:1020600088270196A11DB11D298530E0322F222736
:102070004A85240F311D820F931FA11DB11D072E0C
:102080007AE0880F991FAA1FBB1F7A95D1F7702D90
:10209000F80180839183A283B38310E046C08985D1
:1020A0008295869586958370288590E0F4E02F9F31
:1020B000800D911D11249C012F5F3F4F9F819370D4
:1020C000892F90E0982F8827990F990F820F931FDF
:1020D000A0E0B0E02E81322F3F702B85221F2227F7
:1020E000221F230F3A853370330F230F275004C06C
:1020F000880F991FAA1FBB1F2A95D2F7F80180836A
:102100009183A283B38310E010C080E890E0A0E048
:10211000B0E0FA0180839183A283B38310E005C00D
:1021200014E003C011E001C011E0D9DC812F03C02D
:1021300083E001C083E060960FB6F894DEBF0FBE67
:10214000CDBFDF91CF911F910F910895CF93DF9372
:1021500042305105C0F0DB01FC019A01CD91DD91C7
:10216000C193D1932250310922303105B8F79A0139
:10217000225031092E7F2E5F3F4F820F931F620F37
:10218000731F417055274115510549F0DB01FC01D2
:10219000480F591F9D919193E417F507D9F7DF91E7
:1021A000CF9108950F931F93DC01FB01628D738D16
:1021B00080E090E02C91233059F40489158920E0C7
:1021C00030E0980111270027602B712B822B932B75
:1021D0001F910F9108950F931F93CF93DF93EB01FE
:1021E000FB013996DC011E964D915D916D917C91BC
:1021F0005197452B462B472BA9F152964D915C9157
:102200005397DA0180E090E06EE235EE01962D9171
:10221000203251F0253009F4232F8930910511F433
:1022200060833196208331968B30910579F7DA01FE
:102230001B968C911B9788875C960D911D912D9113
:102240003C915F97088319832A833B8358968D912D
:102250009C9159979D838C8356968D919C9157970D
:102260009F838E831082DF91CF911F910F910895EC
:10227000CF93DF93EC01A881B9811097F9F04C91CD
:10228000413258F04A3331F1FD0131969F0191916D
:10229000913228F09A33D1F704C0942F9D019A33DC
:1022A00081F4CD0101962817390771F4403379F490
:1022B0001296B983A88380E090E00EC08FEF9FEF65
:1022C0000BC080E090E008C08FEF9FEF05C08FEF5C
:1022D0009FEF02C09D01E5CFDF91CF9108958F92CE
:1022E0009F92AF92BF92CF92DF92EF92FF920F93A5
:1022F0001F93CF93DF93FC012481222309F444C070
:10230000EC01C2A4D3A4E4A4F5A45C01FEE2AF0EE8
:10231000B11C01E010E0A7019601B501898100DE42
:10232000811134C01C828E8D9F8DA8A1B9A1B701E7
:10233000A601481B590B6A0B7B0B8E899F89A88DC0
:10234000B98D481759076A077B0710F58B80912CC8
:1023500082E088169104F0F08E899F89A88DB98D4E
:10236000C80ED91EEA1EFB1E01E010E0A70196016F
:10237000B5018981D5DDE1E08E1A9108F1E08F1673
:10238000910451F780E007C080E005C081E003C000
:1023900080E001C080E0DF91CF911F910F91FF900D
:1023A000EF90DF90CF90BF90AF909F908F90089567
:1023B0008F929F92AF92BF92FF920F931F93CF93F2
:1023C000DF93EC014A015B018AA59BA5ACA5BDA5E5
:1023D00084179507A607B707D9F0CE0180DFF82E3E
:1023E000811117C001E010E0A5019401BE01625DFA
:1023F0007F4F898149DD882331F0FF24F3948824BD
:102400008A94982C54018AA69BA6ACA6BDA601C0AE
:10241000F12C8F2DDF91CF911F910F91FF90BF90E5
:10242000AF909F908F900895CF93DF93EC011C8223
:102430008FEF9FEFDC018AA79BA7ACA7BDA7CE01BA
:10244000B7DF811123C0FE01E45DFD4F80819181E2
:1024500085359A4AE9F4E85CF14080819181A28156
:10246000B381BB2786349144A445B10599F0C05887
:10247000DF4F488159816A817B81772781E046342B
:1024800051446445710539F480E005C083E003C020
:1024900082E001C080E0DF91CF9108950097C1F004
:1024A000DC01ED91FC9111973097A1F0208122235E
:1024B00099F02681378112968D919C911397281758
:1024C000390761F4818120DC80FD0AC080E0089535
:1024D00089E0089589E0089589E0089589E00895E4
:1024E00083E008952F923F924F925F926F927F9276
:1024F0008F929F92AF92BF92CF92DF92EF92FF9214
:102500000F931F93CF93DF93CDB7DEB76D970FB6C1
:10251000F894DEBF0FBECDBF6C01CB01B42ED60147
:102520001D921C92A5DE7C0199230CF400C2FC01D3
:10253000EE0FFF1FE85FF94F0081118101151105B2
:1025400009F4F7C1F60111830083D8018C91882327
:1025500061F011968C91D8DB80FD07C0BB2009F497
:10256000EAC182FFEAC18AE08AC2F8011082E182F0
:102570008E2DD1DB80FDE3C1BB2009F400C282FDBA
:10258000E0C1FDC18081882329F0448055806680A8
:10259000778004C04E2C5F2C672E762ED9014D9289
:1025A0005D926D927D929D017096E417F50751F74B
:1025B0004E01B1E18B0E911C6894772471F8F501FE
:1025C000C190D190E190F1905F01C114D104E10478
:1025D000F10439F0B701A601C80126DF811102C05C
:1025E00008C0872DA814B90451F703C0C12CD12C01
:1025F0007601833009F4A7C18111A7C1D801D9960A
:102600008D919C91DA978115924009F0A0C1F80153
:10261000EC5BFF4F40805180612C712C41145104C0
:102620006104710429F43E96408051806280738079
:10263000F801468A578A608E718EA6ADA3838FEF0C
:102640008A0F823008F085C1F3ADF98B2F2FF80186
:102650002283222309F47FC1822F90E09C01215024
:10266000310982239323892B09F077C1FF962080BB
:102670003180F80131862086C1018F709927892B1E
:1026800009F06DC1EF5BFF4F80809180A12CB12CD0
:1026900081149104A104B10429F43D9680809180B5
:1026A000A280B380F80104ACF5ADE02D309709F4B9
:1026B00058C1B0E0A30192010E942F396A8F7B8F2D
:1026C0008C8F9D8F9F0140E050E02E8B3F8B488F79
:1026D000598FC101929582958F7089279F708927A4
:1026E000280F391F411D511DDA01C9012A8D3B8D6B
:1026F0004C8D5D8D280F391F4A1F5B1F2A8B3B8B2A
:102700004C8B5D8B82169306A406B50608F42BC18C
:10271000C501B401621B730B840B950BE9892E2F45
:1027200030E040E050E00E940D39DA01C901211586
:1027300031054105510509F418C1263FFFE03F0767
:102740004105510518F0E2E0E98B02C0F1E0F98B98
:10275000863F9F4FA105B10508F028C149015A01E4
:1027600082E0880E911CA11CB11CD80152968D925A
:102770009D92AD92BC925597F801C28ED38EE48E95
:10278000F58E8E899F89A88DB98D8C0D9D1DAE1DEE
:10279000BF1D868F978FA0A3B1A34A895B896C89DF
:1027A0007D894C0D5D1D6E1D7F1D46A357A360A73F
:1027B00071A7F989F33069F5232809F0D8C0F80129
:1027C000E65AFF4F80819181A281B381F80182A3F3
:1027D00093A3A4A3B5A3880C991CAA1CBB1C880CAA
:1027E000991CAA1CBB1CFFEF8F0EF1E09F1EA11CC1
:1027F000B11C072E79E0B694A794979487947A95A4
:10280000D1F7702D481459046A047B0408F4B1C050
:102810001EC1232809F4AFC02A8D3B8D4C8D5D8DE0
:10282000820F931FA41FB51FF80182A393A3A4A333
:10283000B5A3F989F23029F4880C991CAA1CBB1C99
:10284000F0C0A3E0B0E0A50194010E942F39DC01A3
:10285000CB01B695A7959795879521E0822299247B
:10286000AA24BB24880E991EAA1EBB1EDAC0B7017B
:10287000A6014F5F5F4F6F4F7F4FC80199DD8111F8
:1028800039C0D80115961C92F801E45DFD4F808196
:10289000918185359A4A89F5F80186A597A5A0A961
:1028A000B1A982359245A146B14451F5F801EE5ED9
:1028B000FD4F80819181A281B38182379247A144EB
:1028C000B14609F5349680819181A281B381F801E6
:1028D00086879787A08BB18BE65EFD4F80819181C3
:1028E000A281B381F80182879387A487B587F3E03B
:1028F000F98B0BC0E3E0E98B08C0F3E0F98B05C06E
:10290000E3E0E98B02C0F3E0F98BE989D801EC93AD
:102910008091060690910706019690930706809392
:10292000060617969C938E93169780E0A8C08BE0BE
:10293000A6C08CE0A4C080E0A2C080E0A0C083E07C
:102940009EC08AE09CC081E09AC08DE098C08DE076
:1029500096C08DE094C08DE092C08DE090C08DE077
:102960008EC08DE08CC08DE08AC08DE088C08DE087
:1029700086C08DE084C08DE082C08DE080C040E0E4
:1029800050E0BA01C80150DD813009F02FCEF801C6
:10299000E051FE4F9E012F5F3F4F5901A801405D5E
:1029A0005D4FE12CF12C70E060E0ECCD49015A0163
:1029B00062E0860E911CA11CB11CD80152968D922A
:1029C0009D92AD92BC925597F801C28ED38EE48E43
:1029D000F58E8E899F89A88DB98D8C0D9D1DAE1D9C
:1029E000BF1D868F978FA0A3B1A38A899B89AC89CD
:1029F000BD898C0D9D1DAE1DBF1D86A397A3A0A7ED
:102A0000B1A7DACE8FEF9FEFDC01F80186879787B9
:102A1000A08BB18B82879387A487B58780E8858355
:102A200074CFFFEF8F0EF1E09F1EA11CB11C072E8B
:102A300079E0B694A794979487947A95D1F7702DFE
:102A4000481459046A047B0408F497CFDBCF8FEF56
:102A50009FEFDC01F80186879787A08BB18B828777
:102A60009387A487B58780E88583E25AFF4F8081EA
:102A70009181019709F4FBCEF3E0F98B46CF6D9677
:102A80000FB6F894DEBF0FBECDBFDF91CF911F917F
:102A90000F91FF90EF90DF90CF90BF90AF909F90FD
:102AA0008F907F906F905F904F903F902F90089500
:102AB0000F931F93CF93DF93EC0111DC982F8111BB
:102AC00059C08881833009F04CC08D81813009F074
:102AD00048C0BE01625D7F4FFB01CE01825D9D4F0C
:102AE0001192E817F907E1F785E59AEAFE01E45D3E
:102AF000FD4F9183808382E592E5A1E6B1E48EA744
:102B00009FA7A8ABB9AB82E792E7A1E4B1E67A97B9
:102B100080839183A283B3838E859F85A889B98999
:102B2000349680839183A283B3838A859B85AC8509
:102B3000BD85349680839183A283B3838A8D9B8DD8
:102B4000AC8DBD8D9C01AD012F5F3F4F4F4F5F4F4F
:102B50002AA73BA74CA75DA701E010E08981E0D937
:102B60001D8240E050E060E089813CDA91E0811113
:102B700001C090E0892FDF91CF911F910F910895AF
:102B8000CF92DF92EF92FF92FC019A01AB012250AB
:102B9000310941095109C288D388E488F58882E067
:102BA000C81AD108E108F1082C153D054E055F054E
:102BB00068F4A281B0E00E942F39C6A0D7A0E0A49B
:102BC000F1A46C0D7D1D8E1D9F1D03C060E070E0A3
:102BD000CB01FF90EF90DF90CF900895AF92BF921E
:102BE000CF92DF92EF92FF920F931F93CF93DF93D9
:102BF000EC016A017B01423051056105710508F461
:102C0000A7C08A899B89AC89BD89481759076A077B
:102C10007B0708F0A2C08881823009F44BC0833062
:102C200009F469C0813009F09DC08A0116950795A5
:102C3000040F151FC801892F992786954E8D5F8D2A
:102C400068A179A1480F591F611D711DCE01B0DB2C
:102C500081118DC058018FEFA81AB80A1170FE01BA
:102C6000E00FF11F16A5C501892F992786954E8D76
:102C70005F8D68A179A1480F591F611D711DCE019B
:102C800097DB811178C081E0B822CA0DDB1D8EA5CB
:102C9000612F70E0782BC0FE09C0729562956F704D
:102CA00067277F70672780E090E070C07F7080E0CA
:102CB00090E06CC0452F562F672F77278E8D9F8D04
:102CC000A8A1B9A1480F591F6A1F7B1FCE0170DB55
:102CD000811155C0CC0CDD1CEE1CFF1CE894C0F823
:102CE00081E0D822EE24FF24CC0DDD1D6EA57FA54A
:102CF00080E090E04BC08E8D9F8DA8A1B9A1689413
:102D000016F876956795579547951694D1F7480F1D
:102D1000591F6A1F7B1FCE014BDB811134C0CC0CC5
:102D2000DD1CEE1CFF1CCC0CDD1CEE1CFF1C8CEF14
:102D3000C82281E0D822EE24FF24FE01EC0DFD1D07
:102D400086A597A5A0A9B1A9BC01CD019F701EC001
:102D500061E070E080E090E019C061E070E080E048
:102D600090E014C061E070E080E090E00FC06FEF91
:102D70007FEFCB010BC06FEF7FEFCB0107C06FEF91
:102D80007FEFCB0103C06FEF7FEFCB01DF91CF91DE
:102D90001F910F91FF90EF90DF90CF90BF90AF9079
:102DA0000895AF92BF92CF92DF92EF92FF920F936E
:102DB0001F93CF93DF93EC018B017D836C83CE80D7
:102DC000DF80E884F98481E0C816D104E104F104CD
:102DD00009F48AC0E881F98182899389A489B58937
:102DE000C816D906EA06FB0608F080C0C114D10453
:102DF000E104F104C1F48081833041F482A193A104
:102E0000A4A1B5A10097A105B10559F480859185CC
:102E10000817190708F06CC062A173A184A195A1DD
:102E200035C06C017D01A28080E1A89E5001112473
:102E30000A151B0530F1B701A60188819981CEDE04
:102E40006B017C018FEFC816D806E806F80609F476
:102E500051C082E0C816D104E104F10408F44CC06A
:102E6000E881F98182899389A489B589C816D90630
:102E7000EA06FB0608F042C00A191B090A151B05E1
:102E8000D0F6B701A601888199817ADECA86DB86F1
:102E9000EC86FD86611571058105910589F1980122
:102EA000329522952F7023273F702327DC01CB0119
:102EB000820F931FA11DB11D8E879F87A88BB98B91
:102EC0000F701127000F111F02951295107F102708
:102ED000007F1027025D1F4F88819981800F911F0D
:102EE0009B8B8A8B80E00DC082E00BC082E009C022
:102EF00082E007C081E005C082E003C082E001C03B
:102F000082E0DF91CF911F910F91FF90EF90DF90C2
:102F1000CF90BF90AF9008954F925F926F927F9243
:102F20008F929F92AF92BF92CF92DF92EF92FF92D9
:102F30000F931F93CF93DF93EC016A017B0128016C
:102F40003901423051056105710508F4D2C08A8902
:102F50009B89AC89BD89481759076A077B0708F028
:102F6000CAC08881823009F462C0833009F485C008
:102F7000813009F0C2C05A01B694A794A40EB51EC0
:102F8000C501892F992786954E8D5F8D68A179A1FE
:102F9000480F591F611D711DCE010ADA182F8111CA
:102FA000CAC045018FEF881A980A31E0B322C0FEEB
:102FB00020C0FE01EA0DFB1D86A5282F2F7030E1F1
:102FC000439EC0011124822B86A781E08C834E8D05
:102FD0005F8D68A179A1C401892F99278695480F33
:102FE000591F611D711DCE01E3D9882309F48BC0DF
:102FF00086C0FE01EA0DFB1D46A681E08C834E8D46
:103000005F8D68A179A1C401892F99278695480F02
:10301000591F611D711DCE01CBD9882309F47EC0D3
:1030200070C0EC0FFD1F46A681E08C8384C0452F45
:10303000562F672F77278E8D9F8DA8A1B9A1480F96
:10304000591F6A1F7B1FCE01B3D9182F811173C07E
:10305000CC0CDD1CEE1CFF1CE894C0F881E0D822EB
:10306000EE24FF243EE2C30ED11CFE01EC0DFD1D3B
:103070005182408281E08C835EC08E8D9F8DA8A19D
:10308000B9A1689416F87695679557954795169463
:10309000D1F7480F591F6A1F7B1FCE0189D9182FFE
:1030A000811149C0CC0CDD1CEE1CFF1CCC0CDD1CBE
:1030B000EE1CFF1C8CEFC82281E0D822EE24FF24F6
:1030C0003EE2C30ED11CFE01EC0DFD1D80819181FD
:1030D000A281B38188279927AA27B07F482A592A35
:1030E0006A2A7B2A408251826282738281E08C83C9
:1030F00022C012E020C012E01EC012E01CC0182F37
:103100001AC0182F18C0F401F170689413F876945F
:103110006794579447941694D1F783CFF401F170D4
:10312000DE01AE0FBF1F9E969C91907F852D8F7004
:10313000492E482A76CF812FDF91CF911F910F9191
:10314000FF90EF90DF90CF90BF90AF909F908F90C7
:103150007F906F905F904F9008952F923F924F9283
:103160005F926F927F928F929F92AF92BF92CF9217
:10317000DF92EF92FF920F931F93CF93DF93EC01B7
:103180002A013B014115510561057105B9F48A8495
:103190009B84AC84BD8481149104A104B10459F1D1
:1031A0008A899B89AC89BD8988169906AA06BB06BF
:1031B00030F1812C912C5401839421C00FDD6B01DF
:1031C0007C01623071058105910508F496C08FEF8E
:1031D000C816D806E806F80609F494C08A899B89BF
:1031E000AC89BD89C816D906EA06FB0608F48FC06B
:1031F0005301420104C0812C912C54018394750128
:1032000064016894222421F8312C00E010E02FEFB3
:10321000C21AD20AE20AF20A8A899B89AC89BD895C
:10322000C816D906EA06FB0658F082E08816910413
:10323000A104B10408F470C0C22CD32CE02EF12EEE
:10324000B701A601CE01CADC6115710581059105A2
:1032500099F06F3F2FEF72078207920709F461C060
:10326000613071058105910509F460C0C814D90465
:10327000EA04FB0461F65FC08C2C9D2CAE2CBF2CA5
:103280000FEF1FEF2FEF3FE0B701A601CE0144DEA5
:1032900081112CC0411451046104710451F00C2DB2
:1032A0001D2D2E2D3F2DB301A201CE0135DE811142
:1032B0001DC08A869B86AC86BD868E859F85A88923
:1032C000B9898F3F2FEF9207A207B207C9F1019783
:1032D000A109B1098E879F87A88BB98B8D818160E9
:1032E0008D836C2D7D2D8E2D9F2D33C0813069F106
:1032F00061E070E080E090E02CC061E070E080E090
:1033000090E027C06FEF7FEF8FEF9FEF22C06C2D13
:103310007D2D8E2D9F2D1DC060E070E080E090E03F
:1033200018C06FEF7FEF8FEF9FEF13C061E070E089
:1033300080E090E00EC060E070E080E090E009C0C6
:103340006C2D7D2D8E2D9F2D04C06FEF7FEF8FEFA5
:103350009FEFDF91CF911F910F91FF90EF90DF9042
:10336000CF90BF90AF909F908F907F906F905F9025
:103370004F903F902F9008957F928F929F92AF929F
:10338000BF92CF92DF92EF92FF920F931F93CF9352
:10339000DF93DC011496CD91DC911597219609F409
:1033A00003C11E968D909D90AD90BC905197811455
:1033B0009104A104B10409F4F9C07B018C016E01F0
:1033C000BFE0CB22DD24C114D10409F0D1C0EFEF5E
:1033D0008E1A9E0AAE0ABE0ADC011E968D929D923E
:1033E000AD92BC9251971A964D915D916D917C91E1
:1033F0001D97411551056105710549F4ED91FC9149
:1034000080859185C817D90708F0D2C0B1C0DC010A
:10341000ED91FC91228130E021503109CE0192954D
:1034200082958F7089279F70892728233923232B22
:1034300009F09EC0CF01D2DB4B015C016230710507
:103440008105910508F4B6C06F3F7F4F8F4F9F4FA6
:1034500009F4B2C0D801ED91FC9182899389A489C5
:10346000B58988169906AA06BB0608F470C0EF282D
:1034700009F4A4C0D8011A964D915D916D917C918B
:103480001D97CF016ADE4B015C0161157105810555
:10349000910509F495C0613071058105910509F424
:1034A00091C06F3F7F4F8F4F9F4F09F48DC0D80160
:1034B0008D919C910E946F11811188C0F8018081CB
:1034C0009181FC01BE96825D9D4F1192E817F9072C
:1034D000E1F7D801ED90FC90B501A401C70150DBE4
:1034E000F70162A773A784A795A7E12CF12C772495
:1034F000739419C07482D8018D919C910E946F11B0
:10350000811166C0D801ED91FC9182A593A5A4A577
:10351000B5A50196A11DB11D82A793A7A4A7B5A724
:10352000BFEFEB1AFB0AD801ED91FC91828190E08C
:10353000E816F906F8F282A593A5A4A5B5A58E19FB
:103540009F09A109B10982A793A7A4A7B5A7F8016C
:1035500082869386A486B586B501A4018081918177
:103560000FDBD8011E966D937D938D939C9351979D
:10357000F801D583C483CC0CDD1CCC0CDD1CCC0C39
:10358000DD1CCC0CDD1CCC0CDD1CFEE2CF0ED11CF6
:10359000D8018D919C911197C80ED91E5396DC923B
:1035A000CE92529780E015C084E013C084E011C031
:1035B00084E00FC082E00DC081E00BC084E009C050
:1035C00087E007C082E005C081E003C081E001C060
:1035D00081E0DF91CF911F910F91FF90EF90DF90ED
:1035E000CF90BF90AF909F908F907F9008952F9233
:1035F0003F924F925F926F927F928F929F92AF9283
:10360000BF92CF92DF92EF92FF920F931F93CF93CF
:10361000DF9300D000D01F92CDB7DEB78C017B01C5
:10362000DB018C918F3211F08C3519F4BFEFEB1A5E
:10363000FB0AF8011682178210861186D7018C9139
:10364000803240F460E070E0C801ABDBF801138A1F
:10365000128A32C16894BB24B5F8A12C812C6894DD
:10366000772473F8512C612C7A825B820F2EF9EF4C
:103670002F2EF2E03F2EF02D1D830C835982F7018F
:103680002C813D81AF0181918F32E1F38C35D1F3F3
:103690003D832C83F901A489B589FD01CD010B96E9
:1036A000B192E817F907E1F73D832C83CA2CD82C97
:1036B0002A2D382D472C5980962C8A018C819D818A
:1036C0005D834C837C012F5F3F4FEC81FD816191D5
:1036D000FD83EC83613208F4D5C06F3209F4CBC0AE
:1036E0006C3509F4C8C06E3209F4B2C0C414D504F4
:1036F00008F0A2C00AC0990C990CCA80DB800F2E7A
:10370000FBE04F2EF02D512CDECF66230CF0A6C02F
:10371000F92DF3609F2EE62FF0E0E957FD4F608111
:103720009DC08191882309F4A0C090E048175907F3
:10373000C1F786E0C1C0892D8260982E08C08FE94C
:10374000860F8A3120F4992D9160992E6052FD01E7
:10375000EC0DFD1D6083F60131966F01B4CFCD28CD
:1037600009F46CC09C91953E11F4F5E0FC9398E04F
:103770004916510411F4990C990C992D93709130BC
:1037800009F48061992D9C70943009F488601B962F
:103790008C936A2D782D8C819D8103DB811181C0F2
:1037A0000C811D81D8011E964D915D916D917C918A
:1037B00051978D919C910E94D811811174C0F8018C
:1037C00062897389DB019C919923E9F01B969C9196
:1037D00093FD12C044895589FB01DA019B01255FE5
:1037E0003F4F680104C0E217F30709F452C011917A
:1037F0009D911917C1F386016A2D782DC801BCDD92
:10380000882381F250C00488F589E02D938592FDCC
:1038100017C085E051C0FB01838584FF13C0AC81D4
:10382000BD818D919C910E94D210EC81FD816683B7
:1038300077838087918723CF86E03EC086E03CC0B7
:1038400084E03AC085E038C086E036C086E034C007
:10385000F8E04F16510409F44ECFF6CF462F50E052
:103860004232510599F3F1015CCF8FEB860F8A311B
:1038700008F461CF64CFFD82EC827801E20EF31E82
:10388000862D6DCFFD82EC827801E20EF31E84E07E
:1038900066CFDD82CC82DA011B969C9192FFBBCF72
:1038A0000BC00C811D81D8015496ED91FC91559768
:1038B0009385843009F4ABCF0F900F900F900F9049
:1038C0000F90DF91CF911F910F91FF90EF90DF90BC
:1038D000CF90BF90AF909F908F907F906F905F90B0
:1038E0004F903F902F9008950F931F93CF938C018B
:1038F00060E070E056DAC82F811146C0D8011E96EC
:103900004D915D916D917C9151978D919C910E940B
:10391000D811C82F811138C0D8015296ED91FC9171
:1039200053978081853E51F0882341F061E070E03B
:10393000C80122DDC82F882309F326C0F801468577
:10394000578560897189808191810E94D811C82F23
:1039500081111DC0D8015296ED91FC915397CF0172
:1039600080961192E817F907E1F7F80164897589E3
:103970004BE050E0828993890E94A610D801ED9116
:10398000FC9181E0848303C0C43009F4C7E08C2F2C
:10399000CF911F910F9108958F929F92AF92BF92F6
:1039A000CF92DF92EF92FF920F931F93CF93DF930B
:1039B000EC016A017B01423051056105710508F493
:1039C0004CC08A899B89AC89BD89481759076A0709
:1039D0007B0708F044C035C0B701A601CE01FED870
:1039E0004B015C01672B682B692BD9F181E08816AC
:1039F0009104A104B104B9F12FEF82169206A20638
:103A0000B20699F100E010E09801B701A601CE01DD
:103A100083DA81112BC08E859F85A889B9898F3F54
:103A20002FEF9207A207B20751F00196A11DB11D19
:103A30008E879F87A88BB98B8D8181608D8375015F
:103A400064018A899B89AC89BD89C816D906EA06B2
:103A5000FB0608F4C1CF80E009C082E007C082E025
:103A600005C080E003C082E001C081E0DF91CF911A
:103A70001F910F91FF90EF90DF90CF90BF90AF908C
:103A80009F908F9008951F93CF93DF9300D000D025
:103A900000D0CDB7DEB79C838B837E836D83142FDC
:103AA0007A836983CE0101960E943811992334F1FB
:103AB000FC01EE0FFF1FE85FF94F0190F081E02D50
:103AC000309709F01082EB81FC813097E9F0108289
:103AD0002B813C81880F991FFC01E85FF94F3183EE
:103AE0002083232B69F0113069F440E0BE016B5F45
:103AF0007F4FCE0103960E9472120EC08BE00CC065
:103B000080E00AC080E008C0880F991FFC01E85FD0
:103B1000F94F1182108280E026960FB6F894DEBF2E
:103B20000FBECDBFDF91CF911F9108953F924F926D
:103B30005F926F927F928F929F92AF92BF92CF923D
:103B4000DF92EF92FF920F931F93CF93DF93CDB746
:103B5000DEB7A4970FB6F894DEBF0FBECDBF7CA32F
:103B60006BA3009709F4BAC0D42E8C01FC0111821A
:103B700010824E71BE016D5D7F4FCE0101960E9495
:103B800072128111D5C0FD2DFF713F2ECE014796D7
:103B90009E8B8D8B6BA17CA1469729DDEB88FC88E1
:103BA00081119EC0E114F10409F0A4C09EC08430CC
:103BB00009F0B0C0CE01019697DE232D2860322E89
:103BC000EB88FC88882341F09DC0F70183858171D3
:103BD00009F0ABC0D2FCABC033FE98C080E090E0EF
:103BE000A9E6B5E4F70186879787A08BB18B13868A
:103BF000148E158E168E178EC980DA80B701C60115
:103C00000E94D2102B013C01F701138E128E158AEF
:103C1000148A81E0F6018483411451046104710423
:103C200009F474C082A493A4A4A4B5A4B301A2010E
:103C3000C601B2DE811166C089819A81F1E04F1A16
:103C4000510861087108FC014286538664867586B6
:103C5000B501A4010E94D811882331F069C0D1FEBA
:103C600055C080FD4CC052C0F32DF0623F2EE9815B
:103C7000FA8182A593A5A4A5B5A5F801828F938F9B
:103C8000A48FB58FF78EE68EF80134821582C98035
:103C9000DA80B701C6010E94D210F80166877787E3
:103CA000808B918BF701848D958DA68DB78DF80152
:103CB00082879387A487B58716821782108611861C
:103CC000168A178A108E118ED182C082F6018681E3
:103CD0009781F8019383828380E02AC089E028C01D
:103CE0004D2D4C7109F063CF0DC04D2D4C7189F4F1
:103CF00086E008C08D2D8C7109F067CF11C087E078
:103D000001C084E0882309F4BFCF12C033FCACCFDC
:103D1000AECF86E0F32DF8603F2EEB88FC88F2CF23
:103D2000F701838584FDEDCF9ACF87E001C088E05D
:103D3000A4960FB6F894DEBF0FBECDBFDF91CF9132
:103D40001F910F91FF90EF90DF90CF90BF90AF90B9
:103D50009F908F907F906F905F904F903F900895CD
:103D60002F923F924F925F926F927F928F929F928B
:103D7000AF92BF92CF92DF92EF92FF920F931F9379
:103D8000CF93DF93EC014B016A015901F9011182D4
:103D900010820E944E1281116BC18D81811168C108
:103DA0008C8181FF64C18E819F81A885B985AC011A
:103DB000BD014C0D5D1D611D711D481759076A0736
:103DC0007B0708F43EC1C114D10409F43AC14E8105
:103DD0005F8168857985DB01CA019170AA27BB27BD
:103DE000892B8A2B8B2B09F0E6C0E881F98112819F
:103DF0001150DB01CA01072E79E0B695A79597957A
:103E000087957A95D1F7702D182309F040C0452B7E
:103E1000462B472B79F46E857F85888999896115B2
:103E200071058105910591F440E050E0BA01CF01A0
:103E300094D906C04A895B896C897D89CF018DD967
:103E4000611571058105910509F4FBC061307105AB
:103E50008105910519F482E08D830AC16F3FFFEF60
:103E60007F078F079F0719F481E08D8301C16A8B5B
:103E70007B8B8C8B9D8B4E845F84688879884528EA
:103E80004628472821F46E877F87888B998BE881A5
:103E9000F98142A553A564A575A58E899F89A88D32
:103EA000B98D481759076A077B0741F4CF010E9473
:103EB0006F11882319F081E08D83DAC02880398062
:103EC0004A895B896C897D89C1010E94C015611591
:103ED00071058105910519F482E08D83C9C02B011C
:103EE0003C01410E511C611C711C7601EF2CFF241A
:103EF000E694E114F10409F43FC0F1014281242F5A
:103F000030E0C701810F911D2817390718F4790196
:103F1000E11AF1088701A3019201B401F101818145
:103F20000E94900F882319F081E08D83A1C0E88161
:103F3000F98182A593A5A4A5B5A584199509A6091B
:103F4000B709A70160E070E084179507A607B707D7
:103F500078F4982F8827990FB401680F791F40E0F3
:103F600052E0CF018E960E94A610E881F98114825A
:103F7000FE2CEE24FF0C4CC04E815F816885798554
:103F80008A859B85AC85BD85481759076A077B07DD
:103F900070F0C1010E946F11882319F081E08D83B8
:103FA00067C0E881F98142A653A664A675A64E8A29
:103FB0005F8A688E798E2E813F81317080E092E039
:103FC000821B930B76018C159D0508F47C014E89AC
:103FD0005F89688D798D888199810E94D8118823A5
:103FE00019F081E08D8344C08E819F81A885B985B9
:103FF0009170AA27BB278E9628813981A701B40129
:10400000820F931F0E94A610E881F98121E024838A
:104010008E0C9F1C8E819F81A885B9858E0D9F1D5A
:10402000A11DB11D8E839F83A887B987F50180816B
:1040300091818E0D9F1D91838083CE18DF0809F03A
:10404000C6CE8E819F81A885B9854A855B856C85A2
:104050007D85481759076A077B0720F48A879B8765
:10406000AC87BD878C8180628C8380E001C087E053
:10407000DF91CF911F910F91FF90EF90DF90CF9044
:10408000BF90AF909F908F907F906F905F904F9078
:104090003F902F900895CF93DF93EC010E944E1232
:1040A000811137C09C8195FF34C04A8D5B8D6C8D2A
:1040B0007D8D888199810E94D81181112AC0EE8D51
:1040C000FF8D8385806283878A859B85AC85BD85CE
:1040D000848F958FA68FB78F8E859F85A889B98984
:1040E000938F828FB58BA48B80E090E0A9E6B5E436
:1040F000868B978BA08FB18F138A128A8C818F7DCC
:104100008C83E881F98181E08483888199810E9490
:104110005815DF91CF910895CF93DF93EC01BBDF6A
:10412000811107C0CE010E944E12811102C0198276
:104130001882DF91CF9108952F923F924F925F9214
:104140006F927F928F929F92AF92BF92CF92DF92A7
:10415000EF92FF920F931F93CF93DF9300D000D085
:10416000CDB7DEB71C016A017B010E944E1281119E
:1041700083C1D10115968C91159781117DC11A9635
:104180008D919D910D90BC91A02D8C159D05AE0536
:10419000BF0530F4F101248121FD02C06C017D01D5
:1041A000D10116964D905D906D907C901997F1011C
:1041B0001682178210861186C114D104E104F1041D
:1041C00009F457C100811181D80112968C90912C6D
:1041D000A12CB12C072E79E0880C991CAA1CBB1CC1
:1041E0007A95D1F7702D411451046104710409F4DA
:1041F0003FC0B1E04B1A510861087108C701B60110
:104200006150710981099109A50194010E940D393C
:1042100029833A834B835C83C301B201A5019401D6
:104220000E940D3989819A81AB81BC8182179307E5
:10423000A407B507E8F088279927DC0188199909B0
:10424000AA09BB09482259226A227B22D10116966B
:104250004D925D926D927C921997C418D508E6082C
:10426000F70852964D915D916D917C91559732C0B2
:10427000F1014685578560897189411551056105B0
:10428000710519F540E050E0BA01C8010E94AD186F
:10429000AB01BC01413051056105710529F482E093
:1042A000D10115968C93E8C04F3FBFEF5B076B07BA
:1042B0007B0721F481E0F1018583DEC0D1011E96E8
:1042C0004D935D936D937C935197F101428B538B8A
:1042D000648B758B411551056105710509F494C016
:1042E0008C149D04AE04BF0408F05CC0D101149688
:1042F0008C91149781FF0CC08D919C910E94AD18F8
:10430000AB01BC01411551056105710541F448C07F
:10431000F101808191810E94EE15AB01BC014F3FFC
:10432000FFEF5F076F077F0729F481E0D101159642
:104330008C93A2C0423051056105710560F0D10136
:10434000ED91FC9182899389A489B5894817590711
:104350006A077B0720F082E0F10185838DC0D101DF
:1043600052964D935D936D937C93559716968D91D0
:104370009D910D90BC91A02D880D991DAA1DBB1D6E
:10438000F10186839783A087B187C818D908EA0806
:10439000FB088C149D04AE04BF0408F4A7CF02C030
:1043A00075016401F10186819781A085B1858C0D2D
:1043B0009D1DAE1DBF1D86839783A087B187D70142
:1043C000C6019170AA27BB27892B8A2B8B2B01F161
:1043D000808191810E94C01561157105810591054B
:1043E00029F482E0D10115968C9346C00B2EB9E0DA
:1043F000F694E794D794C794BA95D1F7B02DC60E2A
:10440000D71EE81EF91E07C0C12CD12C760103C0AF
:10441000C12CD12C7601F10186819781A085B185CF
:10442000AC01BD01517066277727452B462B472BE2
:1044300069F046895789608D718D4C155D056E0553
:104440007F0521F0C68AD78AE08EF18EF101428580
:10445000538564857585481759076A077B0758F4A3
:1044600082879387A487B58784818062848380E074
:1044700003C080E001C080E00F900F900F900F907C
:10448000DF91CF911F910F91FF90EF90DF90CF9030
:10449000BF90AF909F908F907F906F905F904F9064
:1044A0003F902F900895EF92FF921F93CF93DF9349
:1044B000CDB7DEB7A4970FB6F894DEBF0FBECDBF61
:1044C0009CA38BA37B0140E0BE016D5D7F4FCE01BD
:1044D00001960E947212182F811119C0CE014796C1
:1044E0009E8B8D8B6BA17CA1469781D8182F811153
:1044F0000EC08B899C89892B49F0E114F10439F0B5
:10450000B701CE0101960E94EB1001C016E0812F89
:10451000A4960FB6F894DEBF0FBECDBFDF91CF914A
:104520001F91FF90EF900895BF92CF92DF92EF928C
:10453000FF920F931F93CF93DF93EC01B62EC8A089
:10454000DF8CEE8CFD8C0BA11AA10E94060BC61607
:10455000D706E806F90668F0E0E1F1E08081807FA7
:1045600085608083EEE0F1E081E28487158680E05B
:1045700028C0BB2031F09801B701A601CE01BFD2FF
:1045800005C09801B701A601CE011BD2C801A0E069
:10459000B0E0072E79E0880F991FAA1FBB1F7A95FC
:1045A000D1F7702D4C895D896E897F898A019B01C5
:1045B000081B190B2A0B3B0B0C8B1D8B2E8B3F8B77
:1045C00081E0DF91CF911F910F91FF90EF90DF90ED
:1045D000CF90BF900895CF92DF92EF92FF920F930A
:1045E0001F93CF93DF93CDB7DEB728970FB6F8941C
:1045F000DEBF0FBECDBF8C01FC01938D9D3109F450
:10460000DBC088F4923109F138F4992309F446C1EA
:10461000933009F45AC05CC19A3109F421C19B312D
:1046200009F436C155C1983209F402C138F49E31FB
:1046300009F42EC1953209F476C04AC19A3209F4C0
:10464000DFC09F3209F424C143C1F801E78CF68C26
:10465000948D937019F4858D882361F0E0E1F1E089
:104660008081807F85608083EEE0F1E084E2848752
:10467000158649C16701F5E2EF16F10428F00F2E07
:10468000F4E2CF2ED12CF02D40E050E0B60187E8C7
:1046900093E00E94693260E070E0C7018C199D09C7
:1046A0000E941A32E8EEF0E080818E778083F80174
:1046B00084899589A689B7898C199D09A109B109B1
:1046C000848B958BA68BB78B11C1F801F78CEF2CDF
:1046D000F2E1FF1520F40F2EF2E1EF2EF02DCE2C9B
:1046E000D12C40E050E0B6018EE091E00E946932AA
:1046F0008F2D90E060E070E08C199D090E941A32C5
:10470000E8EEF0E080818E778083F80184899589D6
:10471000A689B7898E199109A109B109848B958B56
:10472000A68BB78BE3C04AD2882321F08091090879
:10473000813069F0E0E1F1E08081807F82608083F8
:10474000EEE0F1E08AE38487158680E0DDC080E05A
:1047500092E0A0E0B0E089839A83AB83BC830E949F
:10476000060BDC01CB010197A109B1098D839E8362
:10477000AF83B88740E050E064E070E0CE0105967A
:104780000E94C63240E050E064E070E0CE01019645
:104790000E94C632E8EEF0E080818E778083F801D7
:1047A00084899589A689B7890897A109B109848B5D
:1047B000958BA68BB78B9AC0F801848D82FD0CC0B7
:1047C000E0E1F1E08081807F85608083EEE0F1E0D0
:1047D00084E28487158697C0F1D181110BC0E0E196
:1047E000F1E08081807F84608083EEE0F1E01486D8
:1047F000158689C0F801148A158A168A178A76C028
:10480000DDD1882321F080910908813069F0E0E151
:10481000F1E08081807F82608083EEE0F1E08AE3D6
:104820008487158680E070C060E0C8017DDE5CC0D2
:10483000C5D1882321F080910908813069F0E0E139
:10484000F1E08081807F82608083EEE0F1E08AE3A6
:104850008487158680E058C061E0C80165DE44C0E9
:10486000E1EFF0E01082108210821082E8EEF0E0BA
:1048700080818E778083F80184899589A689B7899C
:104880000497A109B109848B958BA68BB78B2EC099
:10489000F801148A158A168A178A28C08FD18823AE
:1048A00021F080910908813069F0E0E1F1E0808138
:1048B000807F82608083EEE0F1E08AE38487158662
:1048C00080E022C0F801148A158A168A178A0EC061
:1048D000E0E1F1E08081807F85608083EEE0F1E0BF
:1048E00080E2848715860FC0882359F0E0E1F1E06B
:1048F0008081807F8083EEE0F1E01486158681E080
:1049000003C080E001C080E028960FB6F894DEBFB7
:104910000FBECDBFDF91CF911F910F91FF90EF9010
:10492000DF90CF90089580E00E948B0E811104C02B
:1049300081E080930A06089510920A0608950F9365
:104940001F93CF93DF938C01EB019091E80095FDCD
:1049500009C0E8EEF0E080818B7780830E94F53516
:10496000811128C0A1EFB0E08C91F801EC0FFD1F80
:1049700080838C9181838C9182838C9183838C91B1
:1049800084838C9185838C9186838C9187838C9191
:1049900080878C9181878C9182878C9183878C9181
:1049A00084878C9185878C9186878C91878780E11D
:1049B00090E002C080E090E0DF91CF911F910F91D5
:1049C00008956F927F928F929F92AF92BF92CF92F3
:1049D000DF92EF92FF920F931F93CF93DF937C01AF
:1049E0004A015B0169010E94F535811136C0C1148D
:1049F000D10449F1612C712C2E98C62DD72DBE0102
:104A00008AE098E09CDFC80FD91F90914E0A94303D
:104A100021F5F70190AD911120C0C115F2E0DF073B
:104A200070F301E010E0A50194016AE078E080E015
:104A30000E94900F8FEF881A980AA80AB80AE1E03E
:104A4000CE1AD108C9F68091E80085FD05C0E8EED0
:104A5000F0E080818B7780832E9ADF91CF911F9138
:104A60000F91FF90EF90DF90CF90BF90AF909F900D
:104A70008F907F906F900895EF92FF920F931F9306
:104A8000CF937C018B019091E800C92FC07295FDF6
:104A900009C0E8EEF0E080818E7780830E94F535D2
:104AA000811126C0F701E00FF11F8081A1EFB0E076
:104AB0008C9381818C9382818C9383818C9384816C
:104AC0008C9385818C9386818C9387818C93808550
:104AD0008C9381858C9382858C9383858C9384853C
:104AE0008C9385858C9386858C9387858C93C0E188
:104AF0008C2FCF911F910F91FF90EF9008956F929F
:104B00007F928F929F92AF92BF92CF92DF92EF925D
:104B1000FF920F931F93CF93DF937C014A015B01B8
:104B200069010E94F53581113AC0C114D10469F1BF
:104B3000612C712C2E9801E010E0A50194016AE02F
:104B400078E080E00E94440FC62DD72DBE018AE098
:104B500098E092DFC80FD11DF70190AD91111FC0F1
:104B600090914E0A943021F08AE08093090817C092
:104B7000C115F2E0DF0750F38FEF881A980AA80AF0
:104B8000B80AE1E0CE1AD108A9F68091E80085FDC7
:104B900005C0E8EEF0E080818E7780832E9ADF9169
:104BA000CF911F910F91FF90EF90DF90CF90BF902A
:104BB000AF909F908F907F906F90089580910A069C
:104BC00008951F920F920FB60F9211242F938F9377
:104BD0009F93EF93FF938091C8002091CE0088713E
:104BE000E0910D06EF5FEF7390910C06E91739F035
:104BF000E0930D06F0E0E05FF94F208301C082E012
:104C000090910B06892B80930B06FF91EF919F915A
:104C10008F912F910F900FBE0F901F9018951F929C
:104C20000F920FB60F9211248F939F93EF93FF93E0
:104C300090910F0680910E06981769F0E0910E068C
:104C4000EF5FEF70E0930E06F0E0E05BF94F8081DC
:104C50008093CE0005C0E9ECF0E080818F7D8083F9
:104C6000FF91EF919F918F910F900FBE0F901F902A
:104C7000189510920F0610920E0610920D061092C3
:104C80000C06992324F422E02093C8009F77909388
:104C9000CD008093CC0088E98093C90086E08093A2
:104CA000CA00089590910D0680910C06981781F026
:104CB000E0910C06EF5FEF73E0930C06F0E0E05F2D
:104CC000F94F808190910B0610920B0690E00895A9
:104CD00080E091E0089510920D0610920C06089560
:104CE00020910F062F5F2F7090910E062917E1F388
:104CF000E22FF0E0E05BF94F808320930F06E9ECB0
:104D0000F0E080818062808308951F920F920FB639
:104D10000F9211242F933F934F935F936F937F9341
:104D20008F939F93AF93BF93EF93FF93809100076F
:104D3000909101070196909301078093000780915D
:104D40000708909108080196909308088093070837
:104D500080910908813079F0809109088D3059F0EF
:104D600080E391E00E94DF3080E291E00E94C72F53
:104D70000E94E03803C081E08093B906FF91EF9173
:104D8000BF91AF919F918F917F916F915F914F9163
:104D90003F912F910F900FBE0F901F90189580910B
:104DA000B906813059F480E391E00E94DF3080E25F
:104DB00091E00E94C72F0E94E03815C08091B9068B
:104DC000833039F480E291E00E94C72F0E94E038DE
:104DD0000AC08091B906823031F480E391E00E94EC
:104DE000DF300E94E0381092B906089584B7877FBB
:104DF00084BF0FB6F894A895809160008861809375
:104E00006000109260000FBE85B7806885BF85B7CF
:104E1000806885BF85B7806885BF85B7806885BF96
:104E200090E080E80FB6F894809361009093610061
:104E30000FBE0E94AF090E94C3092FE788E391E0EB
:104E4000215080409040E1F700C0000086E092E0F1
:104E50000E94B53C91E0811101C090E0909306075B
:104E600087E092E00E94B53C91E0811101C090E0A2
:104E70009093B60688E092E00E94B53C91E08111E3
:104E800001C090E09093880789E092E00E94B53CD1
:104E900091E0811101C090E09093C60708950895B4
:104EA0008DDE882319F082E0809309080895089523
:104EB000089580E291E00E94B32F80E391E00E9488
:104EC000C530E2EEF0E0808184608083089580E365
:104ED00091E00E94883080E291E0FAC608958091C6
:104EE0002E0190912F01009729F0019790932F01A7
:104EF00080932E0108956FCB08950F931F93E09137
:104F00000307F09104078281F9018283882321F04D
:104F10008091BB06808302C0F9011082E0910307F3
:104F2000F091040712821092BB0688E090E0F8012D
:104F30009183808380E01F910F910895F901808112
:104F400080FF07C0E0910307F091040781E08283AE
:104F5000089581FF07C0E0910307F091040782E004
:104F60008283089582FF06C0E0910307F091040751
:104F700084E082830895CF938DE092E00E94B53C57
:104F8000C82FE7D362E0A3D57C990DC07D990BC0F3
:104F90007E9909C081E08093090860E00E94F309CE
:104FA00040D6C1E095C07D991FC07E991DC00E946A
:104FB0006B03882371F00E94AA031092FC0660E044
:104FC00080E192E00E94C23C89E080930908C9E038
:104FD0007FC01092FC0660E080E192E00E94C23C3B
:104FE0008AE08093090874C07C9906C07D9904C04A
:104FF00082E0809309086CC07C9906C07E9904C049
:1050000086E08093090864C07C9904C085E08093A1
:1050100009085EC07D9904C083E08093090858C0E8
:105020007E9904C084E08093090852C0853539F424
:1050300081E08093090880930207C1E049C083356D
:1050400081F4BCDD882341F082E08093090881E08F
:1050500080930207C2E03CC08AE080930908C2E066
:1050600037C0823461F50E9436368091FC06882371
:1050700039F00E94AA0389E080930908C9E028C09A
:105080000E946B03882381F081E08093FC060E94DC
:10509000AA036091FC0680E192E00E94C23C89E094
:1050A00080930908C9E014C01092FC0660E080E11A
:1050B00092E00E94C23C8AE08093090809C08C34C7
:1050C00029F48DE080930908CDE002C0C09309085F
:1050D0006C2F8DE092E00E94C23CCF9108958CE04D
:1050E0008093090883DECDD539D50FD51CDC0E940D
:1050F0008E3683E390E0BDDD78940E9451033BDF60
:105100001DE00AE080910908853009F480C074F43C
:10511000823009F471C01CF48130C9F0EAC08330D8
:1051200009F4E2C0843009F439C0E3C08A3009F4DC
:10513000C2C03CF4863009F46FC0893009F471C0F4
:10514000D8C08B3009F454C08D3009F0D2C00E9411
:10515000F90A27D3C82FF2D1D82F682F8C2F9FD4CC
:10516000EC2FF0E0E65FF54F90819111DB7F882313
:1051700051F0883121F490910207911180E0109252
:1051800002076D2FB9D08FEC97E00197F1F700C0BF
:10519000000080E291E0FBD602DEDBCF0E943636D3
:1051A000D1E01092890789B1C9B129B193B1C6FB89
:1051B000CC27C0F9CD27829581708D27C80F209507
:1051C000221F2227221FC20F929591709D27C90F7F
:1051D00093D48C0F80FF03C0469A2E9802C0469845
:1051E0002E9A8FEC97E00197F1F700C00000D9CF1D
:1051F0000E9436360E946F0B8091B706882311F00B
:105200005D98559A0E9436360E94F20B7BCF0E9421
:10521000E4051093090876CF0E94900510930908C1
:1052200071CF0E9436368091B706882311F05D98C1
:10523000559A79990FC02E98469A0E94AF039FEF16
:1052400021E18AE7915020408040E1F700C0000052
:10525000799BF1CF799B56CF2E9A4698799B0FC0B8
:1052600060E08DE10E94EB029FEF2DE389E4915015
:1052700020408040E1F700C000007999F1CF91D241
:10528000C82F5CD1D82F682F8C2F09D4EC2FF0E0D9
:10529000E65FF54F90819111DB7F882319F06D2F28
:1052A0000E94EB028FEC97E00197F1F700C000003D
:1052B0007999D2CF27CF0E9436362E9A46989FEF03
:1052C00021EE84E0915020408040E1F700C00000D2
:1052D000469A2E989FEF21EE84E091502040804026
:1052E000E1F700C00000E9CF0E949308109309087D
:1052F00009CF0093090806CFCF93DF93C82FD62F8D
:1053000010920107109200070BC09091090891308C
:1053100021F0909109089D3019F480E291E037D690
:10532000E0910307F09104079281992339F02091CD
:105330000007309101072436310538F3CC2314F4EB
:10534000CF77D2E0C43711F4D1E0C8E2F894E0910D
:105350000307F0910407C283D093BB0680E291E07B
:1053600016D678948FE295E70197F1F700C0000018
:10537000F89480E291E00BD67894DF91CF91089574
:10538000DF92EF92FF920F931F93CF93DF93FC0175
:1053900001900020E9F73197E81BF90B1E161F0654
:1053A0000CF065C0EC018C010E0F1F1FF12C6894EE
:1053B000EE24E1F80F2EFEE1DF2EF02D99919032D0
:1053C00029F1983231F1993239F19F3241F19F330D
:1053D00049F19A3351F19D3059F19A3061F19E3281
:1053E00069F19D3371F1913279F1903381F18FEC54
:1053F000890F893020F48DEE890F6F2D2AC0892FF7
:1054000090E00E94C0398D536E2D23C06F2D8CE229
:1054100020C06E2D86E21DC06E2D87E21AC06F2D52
:1054200088E317C06E2D88E314C06E2D83E311C08E
:105430006F2D88E20EC06F2D88E20BC06F2D87E3C1
:1054400008C06F2D8EE205C06E2D8D2D02C06F2D10
:1054500087E252DF2FE788E391E0215080409040BF
:10546000E1F700C00000C017D10709F0A7CFDF9116
:10547000CF911F910F91FF90EF90DF900895BC01A5
:105480008AE897E00E94C8398AE897E079CF0895C2
:105490001F93CF93DF93282FCDEC8C9FC12D112428
:1054A000C695C695C695CC0F8C2F880F880FC80F50
:1054B000822F8C1BC82F822F90E08C1B910964E6F1
:1054C00070E00E94FA386AE070E00E94FA38D62F45
:1054D000162F283C20F060E08FE10EDF05C0243657
:1054E00018F060E08EE108DF112329F060E08DE123
:1054F0008D0F02DF03C060E087E2FEDE9FEF20E752
:1055000082E0915020408040E1F700C00000CC23B1
:1055100029F060E08DE18C0FEFDE03C060E087E2F0
:10552000EBDE9FEF20E782E0915020408040E1F7E2
:1055300000C00000DF91CF911F9108958091FF0678
:10554000823099F018F4813031F02FC08330C1F0EF
:10555000843009F12AC099B19295917081E020912F
:105560000607921719F180E021C099B196FB99279F
:1055700090F981E02091B6069217C1F080E016C044
:1055800099B1991F9927991F81E020918807921757
:1055900069F080E00BC093B19295917081E0209109
:1055A000C607921719F080E001C080E0882311F04F
:1055B00082E001C080E07C9B81607D9B84607E9B5B
:1055C000886008954F925F926F927F928F929F9220
:1055D000AF92BF92DF92EF92FF920F931F93CF9300
:1055E000DF93F894729A8FEC97E00197F1F700C07F
:1055F0000000729878948FEC97E00197F1F700C063
:105600000000E0E0F0E0D12CE12CF12C10E0D0E043
:10561000C0E0B0E0A0E01D9913C021E030E040E020
:1056200050E060E070E080E090E00E2F0E94413991
:10563000D22AE32AF42A152BD62BC72BB82BA92B59
:10564000F894729A9AE19A95F1F700C0729878945A
:105650008AE68A95F1F700C03196E033F105D9F674
:10566000809189078230F1F42D2D3E2D4F2D512F41
:105670006D2F7C2F8B2F9A2F0CE20E945C39422ECB
:10568000532EC201817099272091050730E08217BF
:10569000930741F0D12CE12CF12C10E0D0E0C0E0D8
:1056A000B0E0A0E08091FF06813049F199B1929578
:1056B000917020910607921301C0A064823041F1DD
:1056C00099B196FB992790F92091B606921301C0E3
:1056D000A062833059F099B1991F9927991F2091A1
:1056E0008807921301C0A0618430D9F083B18295FC
:1056F00081709091C607891314C0A86012C099B137
:1057000096FB992790F92091B6069213E4CFE0CF4B
:1057100099B1991F9927991F209188079213E6CF75
:10572000E2CF2D2D3E2D4F2D512F6D2F7C2F8B2F06
:105730009A2FDF91CF911F910F91FF90EF90DF9003
:10574000BF90AF909F908F907F906F905F904F90A1
:105750000895FF920F931F93CF93DF9333DFF22EC1
:10576000032F142FD52FC62FE72FB82FF92F809195
:1057700089078111EF7E2F2D302F412F5D2F6C2F48
:105780007E2F8B2F9F2FA0E00E94783919F00E9466
:10579000393901C080E0DF91CF911F910F91FF90C7
:1057A00008952F923F924F925F926F927F928F92C5
:1057B0009F92AF92BF92CF92DF92EF92FF920F93A0
:1057C0001F93CF93DF9300D01F92CDB7DEB7FADEE1
:1057D000822E932EA42EB52E162F682E492E809140
:1057E000890781117F7E7090B8063090FD0681E7B1
:1057F00096E00F2EFBEAEF2EF3E0FF2EF02DE0E017
:10580000F0E0212C512C9B838A8379836F017110E6
:1058100013C1F8C0C12CD12CAA81BB818C918315F6
:1058200018F48F5F8C933BC0C6018359994FDC01FC
:105830008C91811134C021E02C93222423942E0ECC
:10584000552453942CC0AA81BB818C91811106C030
:10585000CF018359994FDC011C9221C08150AA814C
:10586000BB818C931CC0A1E7B6E08C91811110C064
:105870008091720681110CC080917306811108C05D
:1058800080917406811104C0ADE6B6E01C9207C099
:10589000AA81BB818C91882311F081508C93319621
:1058A0008A819B8101969B838A839FEFE91AF90A7B
:1058B000E430F10509F0AACF7981E82CF92CCA2C43
:1058C000BB2DF12FE72FD12C00E0282D392D4A2DAB
:1058D0005B2D612F80E090E02F3FAFEF3A074A0742
:1058E0005A076A077A078105910509F45FC080911C
:1058F0006C068823A9F00FE310E0081B110921E0D2
:1059000030E040E050E060E070E080E00E9441392B
:10591000E222F322C422B523F623E72300E02EC0BF
:1059200090916B06992351F180916A068F5F809365
:105930006A062091FE06821728F010926A061092DD
:105940006B061CC00FE310E0091B110921E030E0D9
:1059500040E050E060E070E080E090E00E9441397B
:10596000209530954095509560957095E222F322F0
:10597000C422B523F623E723D12C00E02E2D3F2DA2
:105980004C2D5B2F6F2F7E2F8D2D902FA0E00E942E
:10599000783961F00E943939882341F09091690685
:1059A0009F5F909369061092680608C08091680610
:1059B0008F5F809368061092690680E09091470798
:1059C00020916906291760F09093690690916C0602
:1059D000891709F44BC080936C06511011C049C05F
:1059E0008091BA0690916806981708F43FC080939A
:1059F000680680916C0680936B0610926C0636C028
:105A0000822D37C0D7010C91282D392D4A2D5B2DC1
:105A1000612F7981862D942D0E945C39217030E0B0
:105A200040E050E060E070E080E090E0A0E00E94A4
:105A3000783909F0EFCE17CFD7010C91282D392DE9
:105A40004A2D5B2D612F7981862D942D0E945C3922
:105A5000217030E040E050E060E070E080E090E0F5
:105A6000A0E00E94783909F0D7CEEDCE5110C8CF12
:105A700080E00F900F900F90DF91CF911F910F91C9
:105A8000FF90EF90DF90CF90BF90AF909F908F905E
:105A90007F906F905F904F903F902F900895E82FE8
:105AA00062FF07C0A82FB0E0A65FB54F8C918111AF
:105AB0000DC061FF07C0AE2FB0E0A95FB84F8C9159
:105AC000811104C0F0E0E454F94F808108958823E7
:105AD00079F061FF07C0E82FF0E0E85BF84F9081B4
