:1000000092C30000ADC30000ABC30000A9C3000051
:10001000A7C30000A5C30000A3C30000A1C3000044
:100020009FC300009DC300000C94383599C30000A5
:1000300097C3000095C3000093C3000091C3000064
:100040008FC300000C94B1268BC3000089C300004D
:1000500087C3000085C3000083C3000081C3000084
:100060007FC300000C940D260C943B2679C300003E
:1000700077C3000075C3000073C3000071C30000A4
:100080006FC300006DC300006BC3000069C30000B4
:1000900067C3000065C3000063C3000061C30000C4
:1000A0005FC300000C94630D5BC3000041542B42FE
:1000B000503D30342C30372C30300041542B4354D9
:1000C0000041542B4D440041542B53503D303000DF
:1000D00041542B43500041542B494F3D3031004196
:1000E000542B494F3D30330041542B4D4D3D303161
:1000F0000041542B4D4D3D30300041542B46543D72
:1001000046462C30312C46462C31302C30312C30A8
:1001100031300041542B50463D30302C30312C30A2
:10012000302C30302C30300041542B42503D303098
:100130002C30300041542B55493D30310041542B77
:100140004E4D3D5553422054797065777269746500
:1001500072204254004E4F20424C5545544F4F544C
:1001600048204D4F44554C45204445544543544543
:10017000442E2E2E0D000D434841523A09434F4E56
:1001800054414354233A0D005245454400534849D5
:1001900046542B00507265737320434D442B5350CB
:1001A00041434542415220746F207361766520635C
:1001B00068616E67657320616E6420657869742E6E
:1001C0000D005072657373204354524C2B535041B1
:1001D000434542415220746F207363726F6C6C20F0
:1001E0006261636B77617264732E0D005072657388
:1001F0007320535041434542415220746F20736332
:10020000726F6C6C207468726F75676820636861C8
:10021000726163746572732E0D0050726573732082
:1002200053206966206368616E6765732073686F29
:10023000756C64206170706C7920746F2053442059
:100240006D6F64652E0D00507265737320552069C3
:1002500066206368616E6765732073686F756C6490
:10026000206170706C7920746F205553422F425476
:10027000206D6F64652E0D004D414E55414C20435D
:10028000414C4942524154494F4E204D4F44452E16
:100290002E2E0D0053455454494E4753205341567A
:1002A0004544210D000D49474E4F524520454E54BF
:1002B0004552204B4559205748454E205350414305
:1002C000454241522049532048454C443F0D000DC2
:1002D0004E4F5720534554205245454420524541E6
:1002E0004354494F4E2054494D452E2E2E0D000D9E
:1002F0004E4F57205345542044454C4159204245C8
:10030000545745454E20444F55424C45204B455986
:1003100020505245535345532E2E2E0D000D4E4F57
:100320005720534554204B45592052454C45415385
:10033000452054494D452E2E2E0D00505245535305
:10034000204354524C20414E4420414C5420544FA1
:1003500020534554204B4559205245414354494F61
:100360004E2054494D452E2E2E0D005052455353CC
:1003700020434D44204B455920544F20434F4E5469
:10038000494E55452E2E2E0D0041444A5553544991
:100390004E47204B45592053454E534954495649E1
:1003A00054592E0D004E4F2048414C4C2045464696
:1003B0004543542053454E534F52204445544543E2
:1003C0005445442E20284E4F5420412050524F4235
:1003D0004C454D290D00484F4C4420444F574E206A
:1003E000414E59204B455920544F2043414C4942DE
:1003F000524154452048414C4C20454646454354C3
:100400002053454E534F522E2E2E0D004241434B4A
:1004100053504143450053454E4409005345434F13
:100420004E4420454E544552004553430900544123
:10043000420900454E54455209005350414345423C
:10044000415200515549434B2043414C494252418E
:1004500054494F4E204D4F44452E2E2E0D00424CF8
:100460005545544F4F54482050494E20444953411C
:10047000424C45440D00424C5545544F4F54482082
:1004800050494E20454E41424C45440D0044554D87
:100490004D59204C4F414420444541435449564115
:1004A0005445440D0044554D4D59204C4F41442076
:1004B0004143544956415445440D00202844555267
:1004C000494E47205553422F4254204D4F44452911
:1004D0003A20202009002028445552494E472053F5
:1004E000442043415244204D4F4445293A09004598
:1004F00052524F522E2E2E5348494654204D55539A
:1005000054204245204120524545442053574954E8
:1005100043482E0D00545950452054484520464F1D
:100520004C4C4F57494E47204B4559532028505269
:1005300045535320535041434520544F20534B497A
:1005400050292E2E2E0D0043414C49425241544910
:100550004E472E2E2E0D005344204341524420532B
:10056000544F52414745204D4F44450D005553428D
:10057000204B4559424F4152442F4341524420524F
:100580004541444552204D4F44450D004C49474894
:1005900054204D4F44452028534420434152442089
:1005A0005245414445522044495341424C45442917
:1005B0000D00424C5545544F4F5448204B4559422D
:1005C0004F415244204D4F44450D0044454641554E
:1005D0004C542053455454494E473A200046495202
:1005E0004D574152452056455220352E342E382E37
:1005F0004548005553422054595045575249544597
:10060000522028544D290D00444F574E005550009C
:100610005249474854004C45465400504F525121CE
:10062000222324255F2627282931323334353637D3
:100630003839301E1F202122232425262730035538
:1006400000530042002000540079007000650077DC
:10065000007200690074006500720020004B0065A4
:1006600000790062006F00610072006400000026E3
:10067000035500530042002000540059005000452B
:100680000057005200490054004500520020004C21
:10069000004C004300000004030904090239000271
:1006A00001008007090400000208065000070583C6
:1006B000024000050705040240000509040100018D
:1006C00003010100092111010001223F00070581FA
:1006D000030800051201100100000008EB0361206F
:1006E00086000102DC0105010906A101050719E0E8
:1006F00029E7150025017501950881029501750806
:1007000081010508190129059505750191029501D9
:1007100075039101150025FF0507190029FF9506AE
:1007200075088100C00011241FBECFEFDAE0DEBFE4
:10073000CDBF12E0A0E0B1E0E0E6F7E702C005902F
:100740000D92A43EB107D9F729E0A4EEB2E001C0B2
:100750001D92A03AB207E1F70E9463280C94AE3BC9
:100760004FCC0F931F93CF932FEF80E792E0215050
:1007700080409040E1F700C000001092DB0510922D
:10078000DC051092DD051092DF050BED15E0C0E0F1
:100790000E947E269C012227232B31F0EC2FF0E0D3
:1007A000E552FA4F10820AC0CF3119F41092FA05BF
:1007B00005C0F80181938F01CF5FEACF9091DB05EF
:1007C0009F3449F08091DD058D3329F081E0933429
:1007D00019F080E001C081E0CF911F910F91089541
:1007E0001F93CF93DF931F92CDB7DEB7182F87FFEC
:1007F00002C01F7762E0143711F461E018E281EA69
:1008000069830E949C2681E00E949C266981862F34
:100810000E949C2680E00E949C26812F0E949C269C
:1008200080E00E949C2680E00E949C2680E00E943E
:100830009C2680E00E949C2680E00E949C268FE0FF
:1008400097E20197F1F700C0000081EA0E949C2620
:1008500081E00E949C2680E00E949C2680E00E940D
:100860009C2680E00E949C2680E00E949C2680E0DE
:100870000E949C2680E00E949C2680E00E949C268C
:1008800080E00F90DF91CF911F910C949C268F9860
:100890002FE788E391E0215080409040E1F700C0CD
:1008A00000008F9A2FEF84E39CE02150804090401D
:1008B000E1F700C000000895811153CF81E0089551
:1008C000EF92FF921F93CF93DF9300D0CDB7DEB7A7
:1008D000162F89839A830E9497268981E82E9A8110
:1008E000F92EF70181917F01882319F00E949C263F
:1008F000F8CF8DE00E949C268AE00E949C2681E031
:10090000112341F00F900F90DF91CF911F91FF9035
:10091000EF90D2CF0F900F90DF91CF911F91FF906A
:10092000EF900895CF93C62FBC0185ED96E00E940D
:100930004A386C2F85ED96E0CF91C2CF2FEF89E634
:1009400098E1215080409040E1F700C0000060E055
:1009500088E291E0E7DF2FEF89E698E121508040BF
:100960009040E1F700C00000089560E08CEA90E05C
:10097000D9CF83E390E00E94652689DF2FEF89E6D7
:1009800098E1215080409040E1F700C00000E9DE8E
:100990008823E1F0D3DF60E089E691E091DF2FEF7B
:1009A00080E792E0215080409040E1F700C00000D5
:1009B00088E090E00E946526D8DF2FEF80E792E084
:1009C000215080409040E1F700C0000088E090E0B6
:1009D0000E94652681E08093FB050895CF93DF9305
:1009E0001F92CDB7DEB7C5DFA9DF61E084E391E0F8
:1009F00099DF8983BADF89810F90DF91CF910895C4
:100A0000CF93B7DF9BDF61E084E391E08BDFC82FFA
:100A100061E08DE391E086DF61E088E291E082DFD2
:100A200061E083E191E07EDF2FEF84E39CE02150E1
:100A300080409040E1F700C0000061E08AEF90E064
:100A400071DF8091500661E0882339F081EF90E0FA
:100A500069DF61E08FED90E006C086ED90E062DF37
:100A600061E088EE90E05EDF61E087EC90E05ADFC5
:100A700061E080ED90E056DF78DF8C2FCF91089514
:100A800061E080ED90E04ECFCF93DF9300D000D0B7
:100A9000CDB7DEB78DE494E4ADE3B0E089839A830B
:100AA000AB83BC834BDF2FEF89E698E12150804078
:100AB0009040E1F700C0000060E084E391E032DFA5
:100AC00061E081EC90E02EDFBE016F5F7F4F8BED28
:100AD00095E00E945138BE016F5F7F4F80E090E04B
:100AE0000E945138009751F0FC018181803331F42C
:100AF000799904C061E08BEB90E014DF36DF81E090
:100B00000F900F900F900F90DF91CF9108958091EB
:100B1000FB05089580915006811108C08EE594E090
:100B20000E942D2A81E08093500606C086E794E05B
:100B30000E942D2A109250066091500680E192E0AA
:100B40000C944B3B8091FF05882329F01092FF0500
:100B50008DE894E005C081E08093FF0585EA94E08C
:100B60000E942D2A6091FF058FE092E00C944B3B90
:100B700082E791E00E94AE2940E450E060E070E03E
:100B800084E096E00E945D3B40E450E060E470E069
:100B900083E599E00E945D3B40E450E060E870E04E
:100BA00082E596E00E945D3B40E450E060EC70E03E
:100BB00082E197E00E945D3B40E450E060E071E03C
:100BC00083E996E00E945D3B6091460685E092E0F5
:100BD0000E944B3B6091510686E092E00E944B3BA5
:100BE0006091FE0587E092E00E944B3B6091D30646
:100BF00088E092E00E944B3B6091110789E092E00F
:100C00000C944B3BCF93DF931092D4060E94582D47
:100C1000D82F86ED93E00E942D2A2FEF87EA91E6E8
:100C2000215080409040E1F700C000000E94582D04
:100C3000C82FD81307C085EA93E00E942D2A10928E
:100C4000D40623C08DE791E00E94AE2981E0809315
:100C5000D406C0934E0684E991E00E94AE2983E653
:100C600090E022E07C9B2093D406EFE5FAEE3197EA
:100C7000F1F700C000000197A9F78091D4068230F7
:100C800021F482EC91E00E94AE297E9903C081E0BC
:100C90008093D4066091D40683E092E00E944B3B9F
:100CA00060914E0684E092E00E944B3B81E090917F
:100CB000D406911101C080E0DF91CF9108952FEF0C
:100CC00081EE94E0215080409040E1F700C00000A8
:100CD0000E94C12B90E00097D9F30895CF93DF9342
:100CE000EB01FB01423041F4EE5AF94F80838DE86D
:100CF00091E00E942D2A11C0443061F4ED5AF64F64
:100D000080838BED91E00E94AE2962E08EE20E942A
:100D1000632903C0EC5FF94F8083C630D10524F40A
:100D200088E891E00E942D2A8C2F0E94352A2FEF0F
:100D300084E39CE0215080409040E1F700C0000037
:100D4000DF91CF9108951F93CF93DF938CE094E0D0
:100D50000E942D2A60E08BE20E946329B0DFEC0143
:100D60000E94DF2A182FDD27482FBE018AE2B6DF56
:100D700012FD04C0CE5ED84F88E0888360E088E230
:100D80000E94632989E294E00E942D2A60E08BE2B0
:100D90000E94632994DFEC010E94DF2ABE017727BD
:100DA000482F89E29BDF60E088E20E9463298EE29F
:100DB00094E00E942D2A60E08BE20E9463297FDF8D
:100DC000EC010E94DF2A182FDD27482FBE018BE29D
:100DD00085DF12FD09C0FE01EE5EF84F89E08083D9
:100DE000CD56D94F84E7888360E088E20E9463296A
:100DF00083E394E00E942D2A60E08BE20E94632945
:100E00005EDFEC01DD2740E0BE0188E267DFCE5EF9
:100E1000D84F8DE0888360E088E20E9463298CE1EE
:100E200094E00E942D2A60E08BE20E94632984E70F
:100E300090E045DFBC01772740E088E24FDF60E0CB
:100E400088E20E94632986E194E00E942D2A60E0F6
:100E50008BE20E94632933DFBC01772740E084E7FF
:100E60003DDF60E088E20E9463298AE394E00E940B
:100E70002D2A60E08BE20E94632921DFEC01DD274F
:100E800040E0BE018CE22ADFCE5ED84F80E288834C
:100E900060E088E2DF91CF911F910C9463298091EB
:100EA00097098430E1F72FEF89E698E121508040DF
:100EB0009040E1F700C0000083E494E00E942D2AF6
:100EC0008DDD81110DC085E591E00E942D2A2FEF67
:100ED00083ED90E3215080409040E1F700C0000096
:100EE00099B181E09295917098279093510699B1AC
:100EF00096FB992790F998279093FE0599B19095C4
:100F0000991F9927991F9093D30693B19295917049
:100F100089278093110776DE85E195E00E942D2ACE
:100F20008EED91E00E94AE291092460660E08BE2C1
:100F30000E946329C4DE9FEF980F983058F4809385
:100F4000460688E891E00E942D2A809146060E947C
:100F5000352A04C08FEE94E00E942D2A60E088E2DA
:100F60000E946329F0DE04DE84E992E00C942D2ACD
:100F7000423021F4FB01ED56F94F05C042FD04C09B
:100F8000FB01EE5EF84F808308956F927F928F92FF
:100F90009F92AF92BF92CF92DF92EF92FF920F9308
:100FA0001F93CF93DF930E94C62D809197098430C1
:100FB000E1F72FEF89E698E1215080409040E1F77A
:100FC00000C0000083EF95E00E942D2A8DED95E092
:100FD0000E942D2A60E088E20E9463298DE092E061
:100FE0000E943E3BC82F8BEC95E00E942D2AC23018
:100FF00091F028F4C13091F48DE695E009C0C93034
:1010000029F0CD3059F48CE895E002C082EB95E0F0
:101010000E942D2A07C087E595E0FACF84EE91E083
:101020000E94AE2987E495E00E942D2A99B181E0C3
:101030009295917098279093510699B196FB9927B4
:1010400090F998279093FE0599B19095991F99274B
:10105000991F9093D30693B19295917089278093AD
:101060001107BCDC81110DC085E591E00E942D2A9D
:10107000EFEFF3ED20E3E150F0402040E1F700C056
:1010800000007E9B47DD7D9B5DDDBCDD85E195E05D
:101090000E942D2A86E791E00E942D2AC4E0FEE1FD
:1010A000FF2E62E08C2F0E94632960E08BE20E9499
:1010B000632905DE8C010E94DF2AD82F1127482FD3
:1010C0004D7FB8018C2F0ADECF3021F4F801ED5AA4
:1010D000F64FF082D2FD0CC0F801ED56F94F8DE3CA
:1010E0008C0F8083F801EE5EF84F8DE58C0F8083C6
:1010F00060E088E20E946329CF5FCE3191F600E084
:1011000010E0C8018D5C994F7C01FC01849160E086
:101110000E94632960E08BE20E946329D0DDEC012C
:101120000E94DF2AD82EDD27F70184914D2D4D7FB7
:10113000BE01D4DDD2FC15C0F801E75DF94FE491A2
:10114000DE01AE5EB84FEC93F801E15EF94FE49139
:10115000DE01AD56B94FEC93CD5AD64F8AE3800FDE
:10116000888360E088E20E9463290F5F1F4F0A3086
:10117000110509F0C6CF8AEE91E00E94AE2960E029
:101180008BE20E9463299BDDEC010E94DF2ABE01F5
:101190007727482F8AE3A2DD60E088E20E94632976
:1011A0008DEE91E00E94AE2960E08BE20E946329FF
:1011B00086DDEC010E94DF2ABE017727482F84E4F8
:1011C0008DDD60E088E20E94632981EF91E00E945A
:1011D000AE2960E08BE20E94632971DDEC010E9480
:1011E000DF2ABE017727482F85E478DD60E088E2BA
:1011F0000E9463298EED91E00E94AE2960E08BE2AF
:101200000E9463295CDD9FEF980F983058F480931B
:10121000460688E891E00E942D2A809146060E94A9
:10122000352A04C08FEE94E00E942D2AFFEF24E3BC
:101230008CE0F15020408040E1F700C0000060E009
:1012400088E20E9463291DE20EE28CE2D82E9FE321
:10125000F92E2FE2C22E3AE2B32E40E6A42E5EE72C
:10126000952E6DE3862E7BE3772EEAE36E2E123306
:1012700009F45BC060E0812F0E94632960E08BE28B
:101280000E9463291CDDEC010E94DF2AE82EDD2785
:10129000482FBE01812F22DDE2FC43C0133341F40D
:1012A000FE01EE5EF84F7082CD56D94F688239C08C
:1012B0001E3249F4FE01EE5EF84F8082CD56D94FC2
:1012C0008BE288832EC0153341F4FE01EE5EF84FA9
:1012D000A082CD56D94F988224C01D3241F4FE0120
:1012E000EE5EF84F1083CD56D94FB8821AC018332E
:1012F00029F4FE01EE5EF84FC08206C0163341F4B9
:10130000FE01EE5EF84FD082CD56D94FF88209C06B
:10131000173339F4FE01EE5EF84F0083CD56D94FF6
:10132000088360E088E20E9463291F5F193309F097
:101330009ECFC2E0D2E00BE116E0899199910E9424
:101340002D2A60E08BE20E946329B9DC7C010E94B7
:10135000DF2A482FF8018491B7017727BFDC60E0CE
:1013600088E20E9463290F5F1F4FF2E0CA30DF0757
:1013700021F762E08EE90E94632960E08BE20E941F
:1013800063299DDCEC010E94DF2A182FDD27482FFE
:10139000BE018EE9A3DC412FBE0181E2E9DD60E000
:1013A00088E20E94632962E08FE10E94632986ED52
:1013B00094E00E942D2A83DCC82F0E94DF2A82300D
:1013C00041F48EED91E00E94AE2962E08EE20E942F
:1013D00063298C2F0E94352A60E088E20E946329ED
:1013E0002FEF84E39CE0215080409040E1F700C063
:1013F000000062E08FE10E9463298BEB94E00E9481
:101400002D2A5DDCEC010E94DF2ABE017727482FE0
:101410008FE964DC60E088E20E94632962E088E38F
:101420000E94632986ED94E00E942D2A48DCEC019D
:101430000E94DF2A182FBE017727482F8FE398DDFF
:10144000123041F48EED91E00E94AE2962E08EE20E
:101450000E9463298C2F0E94352A60E088E20E9456
:101460006329EFEFF4E32CE0E150F0402040E1F796
:1014700000C0000062E088E30E9463298BEB94E0E7
:101480000E942D2A1CDCEC010E94DF2ABE01772776
:10149000482F88EB23DC60E088E20E94632953DC5C
:1014A00067DB84E992E0DF91CF911F910F91FF906C
:1014B000EF90DF90CF90BF90AF909F908F907F90F4
:1014C0006F900C942D2ACF9381E092E00E943E3BD6
:1014D0008093920682E092E00E943E3B8093020657
:1014E00080E092E00E943E3B809345068091970900
:1014F0008430E1F72FEF89E698E121508040904059
:10150000E1F700C0000089E893E00E942D2A8BE6F5
:1015100093E00E942D2A7E99FECF8BE393E00E94F8
:101520002D2A809192060E94352A60E088E20E946E
:1015300063297E9B15C07C990BC0809192068F5FBA
:10154000809392060E94352A60E088E20E94632917
:101550007D99EFCF80919206815080939206E3CFE0
:101560008DE193E00E942D2A809102060E94352A87
:1015700060E088E20E9463297E9B15C07C990BC0C5
:10158000809102068F5F809302060E94352A60E0F8
:1015900088E20E9463297D99EFCF809102068150F5
:1015A00080930206E3CF8FEE92E00E942D2A809175
:1015B00045060E94352A60E088E20E9463297E9BEE
:1015C00015C07C990BC0809145068F5F80934506BE
:1015D0000E94352A60E088E20E9463297D99EFCF5E
:1015E00080914506815080934506E3CF8FEC92E0D1
:1015F0000E942D2A809144060E94352A60E088E2EC
:101600000E9463297E9B15C07C990BC08091440683
:101610008F5F809344060E94352A60E088E20E9432
:1016200063297D99EFCF80914406815080934406D1
:10163000E3CF85EA92E00E942D2A8091000688235C
:1016400019F085EF91E002C089EF91E00E94AE2988
:10165000C1E07E9B15C07C9906C01092000689EF00
:1016600091E00E94AE297D9906C0C093000685EFE7
:1016700091E00E94AE297C9BFECF7D9BFCCFE9CF01
:101680006091450680E092E00E944B3B609102062B
:1016900082E092E00E944B3B6091920681E092E0F2
:1016A0000E944B3B609144068CE092E00E944B3BD1
:1016B000609100068EE092E00E944B3B84E992E04C
:1016C000CF910C942D2AFBDAFC01FF27EE5EF84F38
:1016D0008081853711F08337B1F708959F92AF92DB
:1016E000BF92CF92DF92EF92FF920F931F93CF930F
:1016F000DF93809197098430E1F72FEF89E698E135
:10170000215080409040E1F700C0000088E792E05F
:101710000E942D2A87E492E00E942D2A8AE192E01D
:101720000E942D2AD0DF082F8EEF91E00E94AE2973
:101730008CEE91E00E942D2A82EC91E00E942D2AED
:1017400084E991E00E942D2A053709F029C160E063
:101750008DE20E94632998EB992E1EE928E3E22E80
:10176000DDE2CD2FACDA5C010E94DF2AF82E6501A4
:10177000DD24F601EC5FF94F80818C3209F471C0F1
:10178000053729F44F2DB6018C2FA8DA19C003377D
:10179000B9F44F2DB6018C2FEBDBF1FE04C08DE8C0
:1017A00091E00E942D2A8A2D0E94352A8FE98C0F04
:1017B0008A3130F44F2D4260B60180EE8C0FD8DBB9
:1017C000CF5F41F09C1630F0EC1628F4C11718F4E6
:1017D000C12F01C0CD2F60E088E20E946329053748
:1017E00061F48C2F8068885A853010F4CF5FF9CF70
:1017F00060E08C2F0E9463292AC0C13421F0C033DD
:1018000039F4CAE305C0CBE503C0C43831F4CF5F77
:101810008FE78C0F8230C8F7FACF8C2F8F7E8D38F0
:10182000B1F3CB39A1F38C2F877F803A81F3C43B8E
:1018300071F38C2F8D7F8D3A51F389E48C0F8230B8
:1018400030F3C23909F4CBE98C2F0E947B2A2FEFA9
:1018500084E39CE0215080409040E1F700C000000C
:1018600081CF7C9943C0DC1730F41C1710F0EC16C4
:1018700020F0C15003C0C92D01C0CE2D60E088E228
:101880000E946329053741F48C2F8068885A85307F
:1018900008F046C0C150F8CFCA3531F0C93331F035
:1018A000CA3949F4C1E907C0C0E405C0CFE203C0AA
:1018B000C43831F4C1508FE78C0F8230C8F7FACFAB
:1018C0008C2F8F7E8D38B1F3CB39A1F38C2F877F8E
:1018D000803A81F3C43B71F38C2F8D7F8D3A51F3A5
:1018E00089E48C0F823008F047C0E4CF7E9B48C06B
:1018F000CF5F41F09C1630F0EC1628F4C11718F4B5
:10190000C12F01C0CD2F60E088E20E946329053716
:1019100061F48C2F8068885A853010F4CF5FF9CF3E
:1019200060E08C2F0E9463291DCFC13421F0C033A9
:1019300039F4CAE305C0CBE503C0C43831F4CF5F46
:101940008FE78C0F8230C8F7FACF8C2F8F7E8D38BF
:10195000B1F3CB39A1F38C2F877F803A81F3C43B5D
:1019600071F38C2F8D7F8D3A51F389E48C0F823087
:1019700030F3C23909F4CBE98C2F0E947B2AF2CED6
:10198000F7D884E992E0DF91CF911F910F91FF90FA
:10199000EF90DF90CF90BF90AF909F900C942D2A46
:1019A00081E20E947B2A99249A9419E98EE8E82E14
:1019B000D1E2D7CEE4E6F0E08081877F80838AE0C1
:1019C0008093810087E28093890080E18093880082
:1019D000EFE6F0E080818260808308952098289A65
:1019E00054985C9A56985E9A57985F9A24982C9AC5
:1019F0002B9A23982B9A2A9A22982A9A6A9A25989F
:101A00002D9A299A2198299A599A519A55985B9A10
:101A1000539A52985A9A84988C9A85988D9A869857
:101A20008E9A8F98879A479A3F9A8198899A769A40
:101A30006E9A469A3E9A2E9A269A0895F8949FEFA7
:101A40009093D1001092BF0090E29093CF009091BC
:101A5000C400613051F49E7F9093C4009091C00007
:101A60009F7B9093C000469808C091609093C400FB
:101A70009091C00090649093C0009091C0009260DB
:101A80009093C000909172009460909372008130A6
:101A900069F030F0823041F0833041F486E009C0D3
:101AA00089E08093C10002C087E003C08091C1003B
:101AB00088608093C1001092FD051092BF001092C3
:101AC000BE00789408951F920F920FB60F921124C2
:101AD0008F939F938091CF009091FD05992319F0EA
:101AE000923039F00AC08F3F31F491E09093FD05B8
:101AF00010C08F3F71F08F5F0CC0811109C09091B1
:101B0000C0009F7B9093C0001092C100469A01C014
:101B100081508093CF009F918F910F900FBE0F90B7
:101B20001F901895292F332723303105E1F05CF4FD
:101B30002130310599F02230310579F589E390E0C3
:101B40002BE936E02EC02132310511F12232310568
:101B500021F58FE390E026EE36E023C082E190E0AD
:101B600024ED36E01EC099278130910541F0823086
:101B7000910541F0892B89F4E7E9F6E005C0EFE62D
:101B8000F6E002C0EDE3F6E0849190E09F0109C029
:101B900089E090E024EC36E004C080E090E020E0B2
:101BA00030E0FA01318320830895CF9342E160E071
:101BB00071E08BEE92E00E942D1E8BEE92E00E946F
:101BC000E9208BEE92E00E942C2142E160E071E07E
:101BD0008BEE92E00E942D1EC82F4091F50250918D
:101BE000F6026091F7027091F8028BEE92E00E948B
:101BF0003C218C2FCF9108958BEE92E00E94E9203A
:101C00008BEE92E00C942C2141E06EE172E08BE0CF
:101C100093E00E94E51D91E0811101C090E0892FC1
:101C200008958091E7029091E802A091E902B091B5
:101C3000EA02892B8A2B8B2BD9F4A0910D034091BA
:101C40001D0350911E0360911F03709120039A01A0
:101C5000AB012250310941095109B0E00E94B1376E
:101C60006093E7027093E8028093E9029093EA029E
:101C70006091E7027091E8028091E9029091EA0296
:101C800008951F93CF93DF9300D0CDB7DEB7E3E580
:101C9000F7E001900020E9F73197E355F740FA8328
:101CA000E9834091F5025091F6026091F70270913C
:101CB000F8028BEE92E00E943C2149815A819E01FC
:101CC0002F5F3F4F63E577E08BEE92E00E94571F56
:101CD000182F109253078BEE92E00E94E92081E0CA
:101CE000111101C080E00F900F90DF91CF911F91F3
:101CF00008958ADF882321F08AE0809352070895AF
:101D00006AE072E080E091E00E9471384EDF63E1AA
:101D100072E083E597E00E947138B3DF6DDF2FEF4B
:101D200080E792E0215080409040E1F700C0000041
:101D3000EDCFE3E5F7E001900020E9F731979F014F
:101D400023553740263F91E0390708F041C08D30D8
:101D500081F59091E602F901ED5AF84FA9014F5F24
:101D60005F4F9D3021F090E29083FA011FC0D901AE
:101D7000AE5AB84F9C91B9016E5F7F4F903279F4A3
:101D80008C939AE09083FA01ED5AF84F8083FB011F
:101D9000ED5AF84F9083F901EA5AF84F16C0808344
:101DA000FA01ED5AF84F9AE09083FB01ED5AF84F93
:101DB0000CC0F901883019F4EE5AF84F06C0ED5AFC
:101DC000F84F8083F901EC5AF84F10828093E602B5
:101DD0000895CF92DF92EF92FF920F931F93CF93CC
:101DE000DF93CDB7DEB766970FB6F894DEBF0FBEB0
:101DF000CDBF1092530708DF811147C061E080E03A
:101E00001DDE8AE092E00E94463B8C0180319742C1
:101E100010F000E010E08FE1C82E82E0D82E90E0B4
:101E2000E92E91E0F92E0F5F1F4F1F930F93DF9262
:101E3000CF92FF92EF920E949F38BE016F5F7F4F5B
:101E400080E091E00E94CB220F900F900F900F90B6
:101E50000F900F90882339F38430B9F40E94E92B56
:101E6000F82E0E94DF2A682F8F2D0E94452D88238F
:101E7000A9F3833721F490914B06911103C059DFE8
:101E800010924B0692DE882321F08AE0809352075D
:101E900057C0B8018AE092E00E94743B10924A0653
:101EA000109249068091490690914A0680329F4BD4
:101EB00008F041C00E94E92B182F0E94DF2A682FEA
:101EC000812F0E94452D182F8823B9F032DF109200
:101ED0004A06109249061D3061F0812F8D7F8C32A9
:101EE00041F08FED810F823020F01F3311F01A3353
:101EF00021F460E082E0A2DDC4DE8FEC97E0019780
:101F0000F1F700C000008091490690914A06893B94
:101F10009B4040F280915307882321F246988FEF2F
:101F20009DE329E4815090402040E1F700C000008B
:101F3000A8DE469AB7CF60E082E080DDA2DE5CDEFC
:101F400066960FB6F894DEBF0FBECDBFDF91CF917E
:101F50001F910F91FF90EF90DF90CF90089523B1E4
:101F600023B10197E1F70895FC01680F791F919162
:101F700097FF02C02A9A01C02A98299A299896FFA9
:101F800002C02A9A01C02A98299A299895FF02C06E
:101F90002A9A01C02A98299A299894FF02C02A9A5D
:101FA00001C02A98299A299893FF02C02A9A01C051
:101FB0002A98299A299892FF02C02A9A01C02A9841
:101FC000299A299891FF02C02A9A01C02A98299A31
:101FD000299890FF02C02A9A01C02A98299A299824
:101FE000E617F70721F608952A9AFC01680F791F72
:101FF00093B1299A299893FB992790F9990F1B99E6
:102000009F5F299A2998990F1B999F5F299A299870
:10201000990F1B999F5F299A2998990F1B999F5F88
:10202000299A2998990F1B999F5F299A2998990FA6
:102030001B999F5F299A2998990F1B999F5F299A4D
:1020400029989193E617F70799F608950F931F9330
:10205000CF93DF931F92CDB7DEB708E813E161E0BD
:1020600070E0CE010196C0DF89818F3F31F084E6B8
:1020700090E075DF0150110991F781E090E0012BAC
:1020800011F480E090E00F90DF91CF911F910F91BC
:102090000895CF93DF931F92CDB7DEB7599A61E0D1
:1020A00070E0CE010196A0DF0F90DF91CF910895EF
:1020B000CF93DF9300D01F92CDB7DEB7599861E080
:1020C00070E0CE01019690DFC1DF009731F48A8382
:1020D0009B83DFDF8A819B8102C081E090E00F90CB
:1020E0000F900F90DF91CF910895CF92DF92EF92F2
:1020F000FF920F931F93CF93DF9300D0CDB7DEB73E
:102100007C016B0108EE13E061E070E0CE01019606
:102110006BDF89818F3F71F089818E3F91F4B60129
:10212000C70162DF62E070E0CE0101965DDF81E011
:1021300090E009C084E690E012DF0150110921F718
:10214000EBCF80E090E00F900F90DF91CF911F9147
:102150000F91FF90EF90DF90CF900895DF92EF9274
:10216000FF920F931F93CF93DF93CDB7DEB72797DF
:102170000FB6F894DEBF0FBECDBF182F042FF52E7B
:10218000E62ED72E87FF08C040E050E0BA0187E373
:10219000E5DF823090F51F771C3051F4812F806489
:1021A0008983DA82EB82FC820D83112359F006C009
:1021B00070DF7EDF892B91F78FEF1FC0183021F081
:1021C00081E003C085E901C087E88E8366E070E0A6
:1021D000CE010196C9DE1C3029F461E070E0CE0129
:1021E000079602DF1AE061E070E0CE010796FCDEA0
:1021F0008F8187FF02C01150B1F727960FB6F89470
:10220000DEBF0FBECDBFDF91CF911F910F91FF9029
:10221000EF90DF900895EF92FF921F93CF93DF939B
:1022200000D0CDB7DEB77C01162F10DF009711F17B
:10223000198361E070E0CE01019696DE1D3FC1F08A
:1022400060E072E0C70190DE62E070E0CE010196CE
:10225000CBDE61E070E0CE010196C6DE89818F7130
:1022600031E020E0853009F030E0832F922F02C06A
:1022700081E090E00F900F90DF91CF911F91FF9040
:10228000EF900895811103C080910D01089581E0C0
:102290000895EF92FF920F931F93CF93DF9300D097
:1022A00000D0CDB7DEB781115FC080E197E257DE85
:1022B000519A599A2998219A2998229A2B9A1AE088
:1022C00061E070E0CE0101968FDE1150C9F740E069
:1022D00050E0BA0180E042DF813009F06BC04AEA89
:1022E00051E060E070E088E039DF8130F1F464E0D3
:1022F00070E0CE01019678DE8B81813009F05AC002
:102300008C818A3A09F056C008EE13E040E050E0B4
:1023100060E070E489EA22DF882341F188EE93E0EF
:102320001EDE0150110991F745C040E050E0BA01AE
:1023300089EA14DF823018F001E011E002C009EAF6
:1023400012E088EEE82E83E0F82E40E050E0BA017B
:10235000802F04DF882331F188EE93E000DE81E0F6
:10236000E81AF10891F726C083E026C040E050E06B
:10237000BA018AE3F3DE81111DC064E070E0CE0192
:10238000019632DE898186FD02C014E001C01CE0A6
:102390001093390501E0111100E000930D0179DE81
:1023A000802F0AC040E052E060E070E080E1D6DEBD
:1023B000882371F310E0ECCF0F900F900F900F90E7
:1023C000DF91CF911F910F91FF90EF900895EF92C1
:1023D000FF920F931F93CF937B01BA01A901811143
:1023E00003C080910D0101C081E080FD2DC080916E
:1023F000390583FD07C089E0440F551F661F771F0D
:102400008A95D1F70230110510F4C1E101C0C2E193
:102410008C2FA4DE811112C060E072E0C70165DE7E
:10242000892B29F08EEFF81A01501109A9F7C23152
:1024300029F440E050E0BA018CE090DE2ADE81E031
:10244000012B19F480E001C083E0CF911F910F911F
:10245000FF90EF900895CF92DF92EF92FF920F934B
:102460001F93CF93DF93EB0169017A01811103C0C0
:1024700080910D0101C081E080FD43C0809139054C
:1024800083FD07C099E0CC0CDD1CEE1CFF1C9A9567
:10249000D1F70130110589F4B701A60188E15EDEAC
:1024A000811129C06EEFCE01B6DE31E020E0892B2C
:1024B00009F030E0032F122F1EC0867029F0A8010A
:1024C00060E070E087E94ADEB701A60189E146DEF7
:1024D000811111C06CEFCE019EDE892B21F0DE5FF1
:1024E00001501109B9F76DEF80E090E094DE892B7F
:1024F00011F401E010E0CDDD81E0012B19F480E062
:1025000001C083E0DF91CF911F910F91FF90EF9079
:10251000DF90CF9008950F931F93CF93DF93CDB7A4
:10252000DEB760970FB6F894DEBF0FBECDBF811146
:1025300003C080910D0101C081E080FD7CC08A0153
:10254000613079F040F0633009F071C080E890E0CC
:10255000A0E0B0E065C0ACDD11E0892B09F468C0F3
:1025600064C040E050E0BA0189E0F8DD882311F052
:1025700011E05EC060E170E0CE010196B6DD892B0E
:10258000B9F399819295969596959370888549852A
:102590002A859130E1F48F7390E0A0E0B0E0DC0197
:1025A000992788270196A11DB11D50E0542F44277B
:1025B000BA01620F711D860F971FA11DB11D7AE030
:1025C000880F991FAA1FBB1F7A95D1F729C0429582
:1025D000469546954370F4E08F9FC0011124840F07
:1025E000911D01964F81437050E0542F4427550FA1
:1025F000550F840F951FA0E0B0E03E81432F4F7030
:102600003B85331F3327331F340F2370220F230FD3
:10261000275004C0880F991FAA1FBB1F2A95D2F705
:10262000F80180839183A283B38310E001C014E09A
:1026300030DD812F01C083E060960FB6F894DEBFD5
:102640000FBECDBFDF91CF911F910F910895CF9312
:10265000DF93EB01DC01FA01E230F10530F0299162
:1026600039912D933D933297F7CF9A012E7FDC015C
:10267000A20FB31FFB01E20FF31F40FF02C0208136
:102680002C93DF91CF9108950F931F93CF93DF93F6
:102690008B01FB013996DC011E964D915D916D9188
:1026A0007C915197452B462B472BA9F15296CD9102
:1026B000DC915397AE0180E090E03EE20196DA01B2
:1026C0002D91AD01203251F0253009F425EE8930ED
:1026D000910511F430833196208331968B3091052A
:1026E00069F78B85D80118968C9318974C8D5D8D62
:1026F0006E8D7F8D4D935D936D937C931397888D35
:10270000998D15969C938E9314978E899F89179611
:102710009C938E9316971082DF91CF911F910F910A
:102720000895FC012081318121153105B1F0F901B5
:10273000BF014191413270F04A33D1F7F901419123
:102740006E177F0751F4403341F42E5F3F4FFC0179
:102750003183208380E090E008958FEF9FEF08950C
:102760000097C1F0DC01ED91FC911197309791F049
:102770002081222379F02681378112968D919C91B8
:1027800013972817390731F481817CDD80FD04C05F
:1027900080E0089589E0089583E008958F929F92E4
:1027A000AF92BF92CF92DF92EF92FF920F931F935F
:1027B000CF93DF93FC012481211102C080E040C04F
:1027C000EC01C2A4D3A4E4A4F5A45C01FEE2AF0E24
:1027D000B11C01E010E0A7019601B50189813BDE43
:1027E00081112DC01C828E8D9F8DA8A1B9A1B7012A
:1027F000A601481B590B6A0B7B0B8E899F89A88DFC
:10280000B98D481759076A077B07C0F68B80912C52
:10281000E2E08E16910490F28E899F89A88DB98D81
:10282000C80ED91EEA1EFB1E01E010E0A7019601AA
:10283000B501898110DE81E0881A9108E9CF81E035
:10284000DF91CF911F910F91FF90EF90DF90CF908C
:10285000BF90AF909F908F9008950F931F93CF9349
:10286000DF93EC019BDF982F81115AC08881833060
:1028700009F04DC08D81813009F049C0BE01625D13
:102880007F4FFB01CE01825D9D4FE817F90711F0E4
:102890001192FBCF85E59AEAFE01E45DFD4F91833D
:1028A000808382E592E5A1E6B1E48EA79FA7A8AB5D
:1028B000B9AB82E792E7A1E4B1E67A97808391838E
:1028C000A283B3838E859F85A889B9893496808336
:1028D0009183A283B3838A859B85AC85BD8534961D
:1028E00080839183A283B3838A8D9B8DAC8DBD8DB4
:1028F0009C01AD012F5F3F4F4F4F5F4F2AA73BA772
:102900004CA75DA701E010E08981A5DD1D8240E0B4
:1029100050E060E08981FFDD91E0811101C090E02D
:10292000892FDF91CF911F910F9108958F929F92E0
:10293000AF92BF92FF920F931F93CF93DF93EC015F
:102940004A015B018AA59BA5ACA5BDA548175907FF
:102950006A077B07D9F0CE0121DFF82E811117C05D
:1029600001E010E0A5019401BE01625D7F4F898105
:102970002EDD882331F0FF24F39488248A94982C48
:1029800054018AA69BA6ACA6BDA601C0F12C8F2D32
:10299000DF91CF911F910F91FF90BF90AF909F90CB
:1029A0008F900895CF93DF93EC011C828FEF9FEF00
:1029B000DC018AA79BA7ACA7BDA7CE01B7DF811119
:1029C00022C0FE01E45DFD4F8081918185359A4AE8
:1029D000E1F4E85CF14080819181A281B381BB2761
:1029E00086349144A445B10591F0C058DF4F488129
:1029F00059816A817B81772781E04634514464455F
:102A0000710531F404C083E003C082E001C080E0BE
:102A1000DF91CF9108952F923F924F925F926F92E4
:102A20007F928F929F92AF92BF92CF92DF92EF925E
:102A3000FF920F931F93CF93DF93CDB7DEB76D97C0
:102A40000FB6F894DEBF0FBECDBF5C01CB01D42E14
:102A5000D5011D921C9265DE7C0197FD18C2FC0118
:102A6000EE0FFF1FE45CFA4F008111810115110583
:102A700009F40FC2F50111830083D8018C918823DA
:102A800061F011968C91FEDB80FD07C0DD2009F41A
:102A900002C282FF00C28AE003C2F8011082E18212
:102AA0008E2DF7DB80FDF9C1DD2011F082FDF3CF23
:102AB00040E050E0BA01C80175DF8130C9F5F80186
:102AC000E051FE4F9E012F5F3F4F6901C801805DBD
:102AD0009D4FD9012081222329F0448155816681AF
:102AE000778103C040E050E0BA014D935D936D9350
:102AF0007D937096E817F90769F77E0131E1E30EDF
:102B0000F11CD6014D905D906D907D906D0141144A
:102B100051046104710439F0B301A201C80142DF1C
:102B2000811102C00FC082E0CE14DF0451F703C050
:102B3000412C512C3201833009F4B1C1882311F0AA
:102B40008DE0AEC1F80181AD92AD81159240C1F723
:102B5000F801EC5BFF4F80809180A12CB12C811497
:102B60009104A104B10429F43E9680809180A28052
:102B7000B380D80156968D929D92AD92BC92599792
:102B8000DE964C91DE9713964C9313978FEF840F3C
:102B90008230B0F6DB96EC91DB97E98B1296EC93E2
:102BA0001297EE2369F28E2F90E09C01215031099B
:102BB00082239323892B21F6F801FF962080318010
:102BC00019963C922E921897C1018F709927892BE4
:102BD00009F0B6CF3296C080D180E12CF12CC1141F
:102BE000D104E104F10429F43D96C080D180E28053
:102BF000F380D801DC96ED91FC91DD97309709F4D4
:102C00009FCFA42FB0E0A50194010E94B1376E8B35
:102C10007F8B888F998F9F0140E050E02A8F3B8FF8
:102C20004C8F5D8FC10164E0969587956A95E1F7B9
:102C3000280F391F411D511DDA01C9012E893F8915
:102C4000488D598D280F391F4A1F5B1F2A8B3B8BDC
:102C50004C8B5D8BC216D306E406F50608F470CFE4
:102C6000C701B601621B730B840B950BE9892E2FEC
:102C700030E040E050E00E948F37211531054105DA
:102C8000510509F45DCF263FFFE03F07410551059F
:102C900048F0263F8FEF38074105510530F492E0A8
:102CA000998B05C0A1E0A98B02C0B3E0B98B690183
:102CB0007A01E2E0CE0ED11CE11CF11CD801529643
:102CC000CD92DD92ED92FC925597F801428E538E93
:102CD000648E758E8A8D9B8DAC8DBD8D840D951DFA
:102CE000A61DB71D868F978FA0A3B1A34A895B89C4
:102CF0006C897D89440D551D661D771D46A357A31C
:102D000060A771A7F989F330B9F4232809F018CF27
:102D1000F801E65AFF4F80819181A281B381F801C9
:102D200082A393A3A4A3B5A342E0CC0CDD1CEE1CAC
:102D3000FF1C4A95D1F72DC0232809F401CF2E8915
:102D40003F89488D598D820F931FA41FB51FF8012D
:102D500082A393A3A4A3B5A3F989F23029F4CC0CE0
:102D6000DD1CEE1CFF1C15C0A3E0B0E0A70196011E
:102D70000E94B137DC01CB01B695A7959795879551
:102D800021E0C222DD24EE24FF24C80ED91EEA1E53
:102D9000FB1E3FEFC30E31E0D31EE11CF11C89E0A6
:102DA000F694E794D794C7948A95D1F78C149D0430
:102DB000AE04BF0408F4C4CE8FEF9FEFDC01F8012E
:102DC00086879787A08BB18B82879387A487B587E7
:102DD00080E88583F989F33009F048C0F801E25AA8
:102DE000FF4F80819181019709F040C0B301A2019A
:102DF0004F5F5F4F6F4F7F4FC80198DD811136C025
:102E0000D80115961C92F801E45DFD4F80819181F7
:102E100085359A4A59F5F80186A597A5A0A9B1A9C3
:102E200082359245A146B14409F5F801EE5EFD4FA9
:102E300080819181A281B38182379247A144B146BA
:102E4000A9F4349680819181A281B381F8018687AB
:102E50009787A08BB18BE65EFD4F80819181A28127
:102E6000B381F80182879387A487B587E989D80160
:102E7000EC9380913A0590913B05019690933B0528
:102E800080933A0517969C938E93169704C08BE017
:102E900007C08CE005C080E003C083E001C081E092
:102EA0006D960FB6F894DEBF0FBECDBFDF91CF9108
:102EB0001F910F91FF90EF90DF90CF90BF90AF9058
:102EC0009F908F907F906F905F904F903F902F904A
:102ED00008950F931F93FC019A01AB012250310911
:102EE0004109510982899389A489B5890297A10969
:102EF000B109281739074A075B0768F4A281B0E0D7
:102F00000E94B13706A117A120A531A5600F711F3E
:102F1000821F931F03C060E070E0CB011F910F91EF
:102F20000895AF92BF92CF92DF92EF92FF920F93EC
:102F30001F93CF93DF938C016A017B0142305105CF
:102F40006105710508F4A9C0F80182899389A489F3
:102F5000B589481759076A077B0708F09EC080812A
:102F6000823009F44BC0833009F46BC0813009F022
:102F700094C0EA01D695C795CC0DDD1DCE01892FF1
:102F800099278695468D578D60A171A1480F591FCD
:102F9000611D711DC801CADC882321F06FEF7FEF2E
:102FA000CB017FC05E01FFEFAF1ABF0AD170C00F27
:102FB000D11FCEA5C501892F99278695F801468D89
:102FC000578D60A171A1480F591F611D711DC80166
:102FD000ADDC8111E3CFF1E0BF22F801EA0DFB1D6A
:102FE00086A56C2F70E0782BC0FE06C054E0769565
:102FF00067955A95E1F722C07F7020C077276F2D23
:103000005E2D4D2DF801868D978DA0A1B1A1480FA1
:10301000591F6A1F7B1FC80189DC8111BFCFCC0CEF
:10302000DD1CEE1CFF1CE894C0F8F1E0DF22EE246A
:10303000FF24F801EC0DFD1D66A577A580E090E06A
:1030400030C0F801868D978DA0A1B1A127E07695BB
:103050006795579547952A95D1F7480F591F6A1FCD
:103060007B1FC80163DC811199CF82E0CC0CDD1C91
:10307000EE1CFF1C8A95D1F7FCEFCF22F1E0DF2296
:10308000EE24FF24F801EC0DFD1D86A597A5A0A94F
:10309000B1A9BC01CD019F7004C061E070E080E087
:1030A00090E0DF91CF911F910F91FF90EF90DF9013
:1030B000CF90BF90AF900895AF92BF92CF92DF9222
:1030C000EF92FF920F931F93CF93DF938C01EB014D
:1030D000DC0115967C936E9314971696CD90DD9037
:1030E000ED90FC901997B1E0CB16D104E104F10406
:1030F00011F482E087C0DC01ED91FC918289938913
:10310000A489B589C816D906EA06FB0690F7C1144A
:10311000D104E104F104B9F48081833041F482A147
:1031200093A1A4A1B5A10097A105B10551F4808593
:103130009185C817D907E8F662A173A184A195A16A
:1031400032C06C017D01A280B0E1AB9E5001112420
:10315000B701A601F80180819181CA15DB0500F154
:10316000E0DEAB01BC014F3FEFEF5E076E077E076D
:1031700009F447C0423051056105710508F4B9CF23
:10318000D801ED91FC9182899389A489B58948176A
:1031900059076A077B0708F0ACCFCA19DB09DACFF9
:1031A0006A017B0196DED8011A96CD92DD92ED92EE
:1031B000FC921D97611571058105910509F499CF60
:1031C0009E0144E0369527954A95E1F7DC01CB0155
:1031D000820F931FA11DB11DF80186879787A08BD1
:1031E000B18BCF70DD2755E0CC0FDD1F5A95E1F78D
:1031F000AE9680819181C80FD91FD38BC28B80E09E
:1032000001C081E0DF91CF911F910F91FF90EF906E
:10321000DF90CF90BF90AF9008952F923F924F9242
:103220005F926F927F928F929F92AF92BF92CF9256
:10323000DF92EF92FF920F931F93CF93DF9300D013
:1032400000D0CDB7DEB71C016A017B01280139012E
:10325000423051056105710508F4E0C0FC01828926
:103260009389A489B589481759076A077B0708F02D
:10327000D5C08081823009F471C0833009F492C0D6
:10328000813009F0CBC05A01B694A794A40EB51EA4
:10329000C501892F99278695468D578D60A171A10B
:1032A000480F591F611D711DC10140DB8111B7C05D
:1032B0004501FFEF8F1A9F0A21E0B222A20CB31C36
:1032C000A7019601217033274427552729833A8384
:1032D0004B835C83C0FE0BC0D5019E968C91282F3A
:1032E0002F70B0E14B9EC0011124822B01C0842DB0
:1032F000F50186A781E0D10114968C9314975E9610
:103300004D915D916D917C919197C401892F992781
:103310008695480F591F611D711DC10107DB811181
:103320007EC0B1E09B22F101E80DF91D29813A81AF
:103330004B815C81232B242B252B41F054E0769488
:103340006794579447945A95D1F706C026A5207FD5
:10335000952D9F70422E492A46A65BC077276F2D78
:103360005E2D4D2DF101868D978DA0A1B1A1480F45
:10337000591F6A1F7B1FC101D9DA811150C0CC0CC3
:10338000DD1CEE1CFF1CE894C0F8F1E0DF22EE2407
:10339000FF242EE2C20ED11CF101EC0DFD1D518265
:1033A000408237C0F101868D978DA0A1B1A127E0A1
:1033B00076956795579547952A95D1F7480F591FE8
:1033C0006A1F7B1FC101B2DA811129C092E0CC0CC7
:1033D000DD1CEE1CFF1C9A95D1F7FCEFCF22F1E02B
:1033E000DF22EE24FF242EE2C20ED11CF101EC0DEF
:1033F000FD1D4081518162817381442755276627D5
:10340000707F442A552A662A772A40825182628236
:10341000738291E0D10114969C9301C082E00F90D9
:103420000F900F900F90DF91CF911F910F91FF9010
:10343000EF90DF90CF90BF90AF909F908F907F9054
:103440006F905F904F903F902F9008954F925F92B2
:103450006F927F928F929F92AF92BF92CF92DF92A4
:10346000EF92FF920F931F93CF93DF93EC012A010A
:103470003B01411551056105710599F48A849B84CE
:10348000AC84BD8481149104A104B10459F18A89EA
:103490009B89AC89BD8988169906AA06BB0630F1BE
:1034A00021C03FDD6B017C01623071058105910512
:1034B00008F48AC08FEFC816D806E806F80629F483
:1034C0006FEF7FEF8FEF9FEF86C08A899B89AC8972
:1034D000BD89C816D906EA06FB0608F47AC053016E
:1034E000420104C0812C912C540183947501640124
:1034F0002FEFC21AD20AE20AF20A8A899B89AC89A2
:10350000BD89C816D906EA06FB0668F082E088166F
:103510009104A104B10410F460E057C082E0C82E09
:10352000D12CE12CF12CB701A601CE01FADC8B01E4
:103530009C01672B682B692BA1F00F3F8FEF1807B9
:103540002807380729F0013011052105310519F444
:10355000B801C90140C0C814D904EA04FB0441F60B
:10356000DBCF0FEF1FEF2FEF3FE0B701A601CE013A
:1035700054DE811126C04114510461047104C9F460
:10358000CA86DB86EC86FD868E859F85A889B989EB
:103590008F3F2FEF9207A207B207D9F00197A10939
:1035A000B1098E879F87A88BB98B8D8181608D83B0
:1035B00010C097018601B301A201CE012EDE88233F
:1035C000F9F2813009F47CCF61E070E080E090E0B6
:1035D00002C0B601C701DF91CF911F910F91FF90FB
:1035E000EF90DF90CF90BF90AF909F908F907F90A3
:1035F0006F905F904F9008957F928F929F92AF92BD
:10360000BF92CF92DF92EF92FF920F931F93CF93CF
:10361000DF93EC016B01EC80FD808FEFE81AF80A74
:1036200011F484E0DBC04E855F8568897989411596
:10363000510561057105A9F387010F701127011567
:10364000110509F0B9C04F5F5F4F6F4F7F4F4E8735
:103650005F87688B798B4A855B856C857D858881E2
:103660009981FC01411551056105710531F4808591
:103670009185E816F906A8F69FC0228130E0215016
:103680003109F701A4E0F695E795AA95E1F72E2315
:103690003F23232B09F090C044DC4B015C016230D6
:1036A00071058105910510F482E098C08FEF8816AE
:1036B0009806A806B80611F481E090C08881998127
:1036C000FC01428953896489758984169506A6068A
:1036D000B70608F464C0CD2809F4A3CF4A855B85FA
:1036E0006C857D85B3DE4B015C016115710581053B
:1036F000910509F472C06130710581059105A1F24F
:103700008FEF88169806A806B806B1F288819981CD
:1037100045D88111D1CF88819981FC01BE96825D07
:103720009D4FE817F90711F01192FBCFC880D9809F
:10373000B501A401C601CDDBF60162A773A784A77A
:1037400095A7C12CD12C77247394E881F9818281CB
:1037500090E0C816D906B8F47482888199811ED881
:103760008111AACFE881F98182A593A5A4A5B5A569
:103770000196A11DB11D82A793A7A4A7B5A7FFEF2E
:10378000CF1ADF0AE2CF82A593A5A4A5B5A58C190F
:103790009D09A109B10982A793A7A4A7B5A78A8605
:1037A0009B86AC86BD86B501A4018881998191DB99
:1037B0006E877F87888B998BFD82EC8285E0000F76
:1037C000111F8A95E1F7025D1F4F88819981080FCB
:1037D000191F1B8B0A8B80E001C087E0DF91CF911E
:1037E0001F910F91FF90EF90DF90CF90BF90AF901F
:1037F0009F908F907F9008954F925F926F927F92EB
:103800009F92AF92BF92CF92DF92EF92FF920F936F
:103810001F93CF93DF93EC018B01DB018C918F32EF
:1038200011F08C3511F40F5F1F4F1E821F82188616
:103830001986F8018081803228F070E2A72EE5E039
:10384000BE2E62C060E070E0CE0136DC1B8A1A8AB0
:10385000F4C0820120E030E080E090E048E050E0F9
:10386000912C0196D8017D918D01713208F063C0D1
:103870008201080F191F713208F487C080E0232BE2
:1038800009F4B7C09081953E09F4B08248305105E3
:1038900011F4990C990C992D9370913009F4806171
:1038A000992D9C70943009F48860838760E070E003
:1038B000CE0102DC882309F46AC0EC89FD89938576
:1038C00081118EC092FD91C04A895B89FA0183857E
:1038D00084FF8DC0828D938DA0E0B0E02881398176
:1038E000F9012081233061F4FA014489558960E0AF
:1038F00070E0BA0155274427842B952BA62BB72BB4
:103900008E839F83A887B9872801D8019C910F5F78
:103910001F4F9F32C9F39C35B9F3EC89FD89CF0164
:103920009F01255F3F4F8217930709F492CFDC0177
:10393000AD92CD01F8CF7F3209F49ACF7C3509F4EE
:1039400097CF7E3209F457C02417350708F051C0CD
:1039500077FF09C0B92DB3609B2E672F70E06554C7
:103960007E4FDB017C91C72ED12C6CE2E62E62E00B
:10397000F62ED7016D917D01662309F446C0662EAF
:10398000712C6C147D04A9F734C084E078CF4E8587
:103990005F8568897989888199810E94961481114F
:1039A0008CCFEA89FB8980818823B1F0838583FDF0
:1039B0000EC0AC89BD89AF01455F5F4FE417F507C5
:1039C00069F081912D9190E0821B9109B9F360E03B
:1039D00070E0CE0111DE6ECF84E06FCF80E06DCF5E
:1039E000843059F592FF03C028C080E026C085E0EE
:1039F00024C086E022C048305105D9F7990C990CB3
:103A000028E030E04BE050E02CCF6FEB670F6A31DD
:103A100020F4B92DB2609B2E08C06FE9670F6A31A0
:103A200020F4692D6160962E70527F01E20EF31E24
:103A3000D7017C932F5F3F4F14CFDF91CF911F9120
:103A40000F91FF90EF90DF90CF90BF90AF909F903D
:103A50007F906F905F904F9008951F93CF93DF9367
:103A6000EC0160E070E028DB182F811117C04E8553
:103A70005F8568897989888199810E949614182FB9
:103A800081110CC0EA89FB898081853E59F0882329
:103A900049F061E070E0CE01AFDDE6CF143011F502
:103AA00017E020C04E855F85688979898881998172
:103AB0000E949614182F811115C0EA89FB89CF0145
:103AC0008096E817F90711F01192FBCF6C897D8978
:103AD0004BE050E08A899B890E942713E881F98195
:103AE00081E08483812FDF91CF911F9108958F9280
:103AF0009F92AF92BF92CF92DF92EF92FF920F937D
:103B00001F93CF93DF93EC016A017B014230510593
:103B10006105710510F482E04BC08A899B89AC89EC
:103B2000BD89481759076A077B07A8F78A899B89C7
:103B3000AC89BD89C816D906EA06FB0650F4B70160
:103B4000A601CE01EED94B015C01672B682B692BD6
:103B500011F480E02DC081E088169104A104B10425
:103B6000D1F22FEF82169206A206B20601F100E012
:103B700010E09801B701A601CE014FDB811118C0FA
:103B80008E859F85A889B9898F3F2FEF9207A2075D
:103B9000B20751F00196A11DB11D8E879F87A88B9A
:103BA000B98B8D8181608D8375016401BFCF81E008
:103BB000DF91CF911F910F91FF90EF90DF90CF9009
:103BC000BF90AF909F908F900895CF93DF93CDB724
:103BD000DEB727970FB6F894DEBF0FBECDBF9C832C
:103BE0008B837E836D837A836983CE0101964F83B5
:103BF0000E9491134F8197FD24C0880F991FFC01EB
:103C0000E45CFA4F0190F081E02D309709F01082CA
:103C1000EB81FC81309709F010822B813C81FC0103
:103C2000E45CFA4F31832083232B69F0413059F44F
:103C300040E0BE016B5F7F4FCE0103960E940B15E3
:103C400003C08BE001C080E027960FB6F894DEBF7A
:103C50000FBECDBFDF91CF9108954F925F926F92CB
:103C60007F928F929F92AF92BF92DF92EF92FF92DC
:103C70000F931F93CF93DF93CDB7DEB7A4970FB603
:103C8000F894DEBF0FBECDBF7CA36BA3009709F4F1
:103C9000F1C0B42E7C01DC011D921C924E71BE015C
:103CA0006D5D7F4FCE0101960E940B158111E9C019
:103CB000CE0147969E8B8D8B6BA17CA146979CDD98
:103CC0000B891C89811104C00115110509F486E0D6
:103CD000BB2DBF71DB2E9B2D9C7109F46DC0882319
:103CE00069F0843019F4CE010196B7DEED2DE8605D
:103CF000DE2E0B891C89882349F0C3C0D8011B968E
:103D00008C91817109F0BCC0B2FCB6C0D3FE5FC01B
:103D100080E090E0A9E6B5E4F80186879787A08B5C
:103D2000B18B1386D801148E158E168E178EE981ED
:103D3000FA815A968D909C905B97A12CB12C808132
:103D4000833069F454964D915C91559760E070E032
:103D5000BA0155274427842A952AA62AB72AD801CA
:103D60005B961C921E925A9755961C921E925497DF
:103D700081E0848381149104A104B10441F142A43F
:103D800053A464A475A4B501A401CF01B0DE8111D0
:103D900078C089819A81B1E08B1A9108A108B10895
:103DA000FC0182869386A486B586B301A2010E9497
:103DB0009614882361F065C0811163C0D8011B96F9
:103DC0008C9184FD5BC0B1FE02C080FD59C0D3FE62
:103DD00003C0BD2DB062DB2EA980BA80F50142A5DB
:103DE00053A564A575A5D7015A964D935D936D9320
:103DF0007C935D975F961C930E935E971496DC926E
:103E0000149715961C92F801828D938DA0E0B0E076
:103E1000F5012081233061F4F8014489558960E07F
:103E200070E0BA0155274427842B952BA62BB72B7E
:103E3000F70186879787A08BB18BF801848D958DCC
:103E4000A68DB78DF70182879387A487B5871682E1
:103E5000178210861186168A178A108E118EB182EB
:103E6000A082D50116968D919C911797938382839A
:103E700080E007C089E005C088E003C084E001C09D
:103E800087E0A4960FB6F894DEBF0FBECDBFDF91DA
:103E9000CF911F910F91FF90EF90DF90BF90AF9067
:103EA0009F908F907F906F905F904F9008952F928A
:103EB0003F924F925F926F927F928F929F92AF92BA
:103EC000BF92CF92DF92EF92FF920F931F93CF9307
:103ED000DF93EC015B016A011901F9011182108283
:103EE0000E94B013811162C18D8181115FC18C81EB
:103EF00081FF5BC18E819F81A885B985AC01BD0121
:103F00004C0D5D1D611D711D481759076A077B0720
:103F100008F0A3C0C12CD12CA0C04E815F81688560
:103F20007985DB01CA019170AA27BB27892B8A2BCF
:103F30008B2B09F00AC1E881F981228121502A01E5
:103F40003B01A9E07694679457944794AA95D1F7DA
:103F5000122F142109F486C088819981FC0142A4A2
:103F600053A464A475A44E895F89688D798D441625
:103F700055066606770609F4C6C0888099804A8986
:103F80005B896C897D89C4010E946917611571057F
:103F90008105910509F49AC02B013C01410E511C89
:103FA000611C711C7601EF2CFF24E694E114F104EE
:103FB00009F4AFC0F4018281212F30E0A701420F44
:103FC000531F90E08417950718F47C01E21AF30A56
:103FD0008701A3019201B501F40181810E942B1296
:103FE00081117CC088819981FC0142A553A564A5FB
:103FF00075A544195509660977092701612C712CAB
:10400000441555056605770570F4542F4427550F60
:10401000B501640F751F40E052E08E960E94271391
:10402000E881F9811482FE2CEE24FF0CAE0CBF1C3B
:104030008E819F81A885B9858E0D9F1DA11DB11D03
:104040008E839F83A887B987F101808191818E0D2E
:104050009F1D91838083CE18DF08C114D10409F01D
:104060005CCF1CC0452B462B472B69F46E857F85A2
:1040700088899989611571058105910511F540E0DF
:1040800050E0BA0104C04A895B896C897D89CF01FF
:10409000DDD9611571058105910599F48E819F81A6
:1040A000A885B9854A855B856C857D854817590744
:1040B0006A077B0708F074C08A879B87AC87BD8737
:1040C0006FC0613071058105910511F482E007C070
:1040D0006F3FFFEF7F078F079F0719F481E08D8304
:1040E00065C06A8B7B8B8C8B9D8B4E845F846888CC
:1040F000798845284628472809F02ECF6E877F8784
:10410000888B998B29CF0E94CE13882309F435CF51
:10411000E5CF4E815F81688579858A859B85AC85F1
:10412000BD85481759076A077B0758F0C4010E94EC
:10413000CE138111D3CFE881F98142A653A664A69C
:1041400075A64E8A5F8A688E798E8E819F81917066
:1041500020E032E0281B390B76012C153D0508F4D0
:1041600079014E895F89688D798D888199810E9456
:1041700096148111B3CF8E819F81A885B9859170E6
:10418000AA27BB278E9628813981A701B501820F06
:10419000931F0E942713E881F98131E0348346CFD1
:1041A0008C8180628C8380E001C087E0DF91CF91B9
:1041B0001F910F91FF90EF90DF90CF90BF90AF9045
:1041C0009F908F907F906F905F904F903F902F9037
:1041D0000895CF93DF93EC010E94B013811139C091
:1041E0009C8195FF36C04A8D5B8D6C8D7D8D88815D
:1041F00099810E94961481112CC0EE8DFF8D8385CC
:10420000806283878A859B85AC85BD85848F958FE9
:10421000A68FB78F8E859F85A889B989938F828F46
:10422000B58BA48B80E090E0A9E6B5E4868B978BF4
:10423000A08FB18F138A128A8C818F7D8C83E88145
:10424000F98181E0848388819981DF91CF910C94F9
:104250002D14DF91CF910895CF93DF93EC01B9DF57
:10426000811107C0CE010E94B013811102C01982D2
:104270001882DF91CF9108952F923F924F925F92D3
:104280006F927F928F929F92AF92BF92CF92DF9266
:10429000EF92FF920F931F93CF93DF9300D000D044
:1042A000CDB7DEB71C016A017B010E94B0138111FA
:1042B0005BC1D10115968C911597811155C11A9644
:1042C0008D919D910D90BC91A02D8C159D05AE05F5
:1042D000BF0530F4F101248121FD02C06C017D0194
:1042E000D10116964D905D906D907C901997F101DB
:1042F0001682178210861186C114D104E104F104DC
:1043000021F4C12CD12C760102C100811181F80168
:104310008280912CA12CB12C39E0880C991CAA1C0C
:10432000BB1C3A95D1F7411451046104710409F49E
:104330003FC0F1E04F1A510861087108C701B6018A
:104340006150710981099109A50194010E948F377B
:1043500029833A834B835C83C301B201A501940195
:104360000E948F3789819A81AB81BC818217930724
:10437000A407B507E8F088279927DC01881999096F
:10438000AA09BB09482259226A227B22D10116962A
:104390004D925D926D927C921997C418D508E608EB
:1043A000F70852964D915D916D917C91559731C072
:1043B000F10146855785608971894115510561056F
:1043C000710511F540E050E0BA01C8013FD8AB01DA
:1043D000BC01413051056105710529F482E0D1012C
:1043E00015968C93C1C04F3FBFEF5B076B077B07F0
:1043F00021F481E0F1018583B7C0D1011E964D9370
:104400005D936D937C935197F101428B538B648B39
:10441000758B411551056105710509F472CF8C1436
:104420009D04AE04BF0408F046C0D10114962C913F
:1044300014978D919C9121FF09C008D8AB01BC0154
:10444000411551056105710529F433C00E9491178A
:10445000AB01BC014F3FBFEF5B076B077B0749F226
:10446000423051056105710508F4B8CFD101ED91D5
:10447000FC9182899389A489B589481759076A07ED
:104480007B0708F0ABCFF101428B538B648B758BAC
:1044900086819781A085B185880D991DAA1DBB1DB8
:1044A00086839783A087B187C818D908EA08FB08D4
:1044B000B6CF75016401F10186819781A085B18530
:1044C0008C0D9D1DAE1DBF1D86839783A087B18770
:1044D000D701C6019170AA27BB27892B8A2B8B2B6A
:1044E00009F40FCF808191810E94691761157105D0
:1044F0008105910509F472CF29E0F694E794D794E9
:10450000C7942A95D1F7C60ED71EE81EF91EF101F1
:1045100086819781A085B185AC01BD015170662768
:104520007727452B462B472B69F046895789608DA5
:10453000718DC416D506E606F70621F0C68AD78A1D
:10454000E08EF18EF10142855385648575854817AB
:1045500059076A077B0738F482879387A487B58752
:1045600084818062848380E00F900F900F900F9081
:10457000DF91CF911F910F91FF90EF90DF90CF903F
:10458000BF90AF909F908F907F906F905F904F9073
:104590003F902F900895EF92FF921F93CF93DF9358
:1045A000CDB7DEB7A4970FB6F894DEBF0FBECDBF70
:1045B0009CA38BA37B0140E0BE016D5D7F4FCE01CC
:1045C00001960E940B15182F811119C0CE01479634
:1045D0009E8B8D8B6BA17CA146970ED9182F8111D4
:1045E0000EC08B899C89892B49F0E114F10439F0C4
:1045F000B701CE0101960E94441301C016E0812F3D
:10460000A4960FB6F894DEBF0FBECDBFDF91CF9159
:104610001F91FF90EF900895BF92CF92DF92EF929B
:10462000FF920F931F93CF93DF93EC01B62EC8A098
:10463000DF8CEE8CFD8C0BA11AA10E94110EC61608
:10464000D706E806F90668F080911001807F856042
:104650008093100181E280931A0110921B0180E087
:1046600022C09801B701A601CE01BB2011F079D27A
:1046700001C0D1D1C801A0E0B0E029E0880F991FA6
:10468000AA1FBB1F2A95D1F74C895D896E897F8946
:104690008A019B01081B190B2A0B3B0B0C8B1D8BF2
:1046A0002E8B3F8B81E0DF91CF911F910F91FF9077
:1046B000EF90DF90CF90BF900895CF92DF92EF926E
:1046C000FF920F931F93CF93DF93CDB7DEB7289759
:1046D0000FB6F894DEBF0FBECDBF8C01FC01838DF9
:1046E0008D3109F4C2C088F4823109F138F488238D
:1046F00009F4FFC0833009F450C00AC18A3109F4BB
:10470000DEC08B3109F4FEC003C1883209F4C8C091
:1047100038F48E3109F4F6C0853209F466C0F8C069
:104720008A3209F4B2C08F3209F4ECC0F1C0F8014A
:10473000E78CF68C848D837019F4858D882341F085
:1047400080911001807F85608093100184E2E7C032
:104750006701F5E2EF16F10418F094E2C92ED12CAE
:1047600040E050E0B6018BEB92E00E940D3260E039
:1047700070E0C7018C199D090E94CF318091E8003B
:104780008E778093E800F80184899589A689B78996
:104790008C199D09A109B109A7C0F801F78CEF2C6C
:1047A000F2E1FF1510F482E1E82ECE2CD12C40E08E
:1047B00050E0B6018EE091E00E940D328F2D90E026
:1047C00060E070E08C199D090E94CF318091E80073
:1047D0008E778093E800F80184899589A689B78946
:1047E0008E199109A109B1097FC014D2811108C0A5
:1047F00080911001807F8260809310018AE38FC0D6
:10480000809152078130A1F780E092E0A0E0B0E013
:1048100089839A83AB83BC830E94110EDC01CB0198
:104820000197A109B1098D839E83AF83B88740E0CA
:1048300050E064E070E0CE0105960E94573240E0FF
:1048400050E064E070E0CE0101960E945732809102
:10485000E8008E778093E800F80184899589A6891D
:10486000B7890897A109B1093FC0F801848D82FF7B
:1048700067CFD0D1811146C080911001807F8460C4
:104880008093100110921A014CC0C4D1882309F4FE
:10489000AFCF80915207813009F0AACF60E00AC003
:1048A000B9D1882309F4A4CF80915207813009F04F
:1048B0009FCF61E0C801B0DE811136C040C01092C8
:1048C000F1001092F1001092F1001092F10080912D
:1048D000E8008E778093E800F80184899589A6899D
:1048E000B7890497A109B109848B958BA68BB78BE7
:1048F0001BC090D1882309F47BCF8091520781306F
:1049000009F076CFF801148A158A168A178A0CC026
:1049100080911001807F85608093100180E28093F8
:104920001A0110921B010BC080911001807F8093AF
:10493000100110921A0110921B0181E001C080E069
:1049400028960FB6F894DEBF0FBECDBFDF91CF9192
:104950001F910F91FF90EF90DF90CF90089580E02E
:104960000E944911811104C081E080933E050895A1
:1049700010923E0508950F931F93CF93DF938C0100
:10498000EB018091E80085FF36C08091F100F801CD
:10499000EC0FFD1F80838091F10081838091F100F5
:1049A00082838091F10083838091F10084838091E0
:1049B000F10085838091F10086838091F1008783E7
:1049C0008091F10080878091F10081878091F100D2
:1049D00082878091F10083878091F10084878091A4
:1049E000F10085878091F10086878091F1008787AB
:1049F00080E190E00BC09091E8009B779093E800F5
:104A00000E949134882309F280E090E0DF91CF91F9
:104A10001F910F9108958F929F92AF92BF92CF9264
:104A2000DF92EF92FF920F931F93CF93DF936C016E
:104A30004A015B0179010E949134811133C0E11474
:104A4000F10431F12E98C0E0D0E0BE0183E597E09B
:104A500092DFC80FD91F80919709843019F5F601AC
:104A600080AD81111FC0C115F2E0DF0770F301E0D6
:104A700010E0A501940163E577E00E942B128FEF0F
:104A8000881A980AA80AB80AE1E0EE1AF108D7CF06
:104A90008091E80085FD05C08091E8008B778093C8
:104AA000E8002E9ADF91CF911F910F91FF90EF9028
:104AB000DF90CF90BF90AF909F908F900895EF922E
:104AC000FF921F93CF93DF937C01EB019091E8005D
:104AD000192F107295FF35C0F701EC0FFD1F808173
:104AE0008093F10081818093F10082818093F100B5
:104AF00083818093F10084818093F100858180938C
:104B0000F10086818093F10087818093F100808598
:104B10008093F10081858093F10082858093F1007C
:104B200083858093F10084858093F100858580934F
:104B3000F10086858093F10087858093F10010E174
:104B400009C09091E8009E779093E8000E9491340C
:104B5000882311F2812FDF91CF911F91FF90EF9069
:104B600008958F929F92AF92BF92CF92DF92EF9271
:104B7000FF920F931F93CF93DF936C014A015B0168
:104B800079010E949134811138C0E114F10459F186
:104B90002E9801E010E0A501940163E577E080E044
:104BA0000E94E711C0E0D0E0BE0183E597E087DF17
:104BB000C80FD11DF60180AD81111FC080919709EA
:104BC000843021F08AE08093520717C0C115F2E0CB
:104BD000DF0750F38FEF881A980AA80AB80AE1E0B5
:104BE000EE1AF108D2CF8091E80085FD05C08091D2
:104BF000E8008E778093E8002E9ADF91CF911F9185
:104C00000F91FF90EF90DF90CF90BF90AF909F906B
:104C10008F90089580913E0508951F920F920FB6D0
:104C20000F9211242F938F939F93EF93FF93809173
:104C3000C8009091CE008871E0914105EF5FEF735D
:104C400020914005E21739F0E0934105F0E0EC5B7C
:104C5000FA4F908301C082E090913F05892B8093A9
:104C60003F05FF91EF919F918F912F910F900FBE74
:104C70000F901F9018951F920F920FB60F9211244C
:104C80008F939F93EF93FF939091430580914205FB
:104C9000981769F0E0914205EF5FEF73E0934205EA
:104CA000F0E0EC57FA4F80818093CE0005C08091F0
:104CB000C9008F7D8093C900FF91EF919F918F91E3
:104CC0000F900FBE0F901F901895109243051092F1
:104CD0004205109241051092400597FF04C022E062
:104CE0002093C8009F779093CD008093CC0088E9F3
:104CF0008093C90086E08093CA0008959091410591
:104D000080914005981781F0E0914005EF5FEF73C7
:104D1000E0934005F0E0EC5BFA4F808190913F0515
:104D200010923F0590E0089580E091E00895109280
:104D30004105109240050895909143059F5F9F7330
:104D4000209142059217E1F3E92FF0E0EC57FA4F7A
:104D50008083909343058091C90080628093C9004D
:104D600008951F920F920FB60F9211242F933F9325
:104D70004F935F936F937F938F939F93AF93BF9363
:104D8000EF93FF9380914706909148060196909388
:104D90004806809347068091490690914A060196FD
:104DA00090934A068093490680915207813079F0AA
:104DB000809152078D3059F080E391E00E94B53028
:104DC00080E291E00E94912F0E94563703C081E05B
:104DD00080930106FF91EF91BF91AF919F918F91C9
:104DE0007F916F915F914F913F912F910F900FBEE7
:104DF0000F901F90189580910106813029F480E36F
:104E000091E00E94B53004C080910106833029F4FE
:104E100080E291E00E94912F08C0809101068230CB
:104E200031F480E391E00E94B5300E945637109231
:104E30000106089584B7877F84BF0FB6F894A895BC
:104E400080916000886180936000109260000FBEC6
:104E500085B7806885BF85B7806885BF85B780685E
:104E600085BF85B7806885BF90E080E80FB6F8946D
:104E700080936100909361000FBE0E94DA0C0E9443
:104E8000EE0C2FE788E391E0215080409040E1F75D
:104E900000C0000086E092E00E943E3B91E081115C
:104EA00001C090E09093510687E092E00E943E3B63
:104EB00091E0811101C090E09093FE0588E092E0BE
:104EC0000E943E3B91E0811101C090E09093D30697
:104ED00089E092E00E943E3B91E0811101C090E0A8
:104EE000909311070895089595DE882319F082E0C4
:104EF0008093520708950895089580E291E0FED7C7
:104F000080E391E00E949830E2EEF0E080818460DE
:104F10008083089580E391E00E94573080E291E021
:104F2000B3C680912E0190912F01009729F001972F
:104F300090932F0180932E010895BFCB0F931F9361
:104F4000F901A0914C06B0914D0612968C91828386
:104F500090914F06992311F084E004C0882321F03A
:104F600080910306808301C01082E0914C06F0918D
:104F70004D0612821092030688E090E0F8019183BA
:104F8000808380E01F910F910895F901808180FD59
:104F90000EC09091C50591110AC0E0914C06F091A8
:104FA0004D0683E5828381E08093C505089581FFE6
:104FB0000DC08091C405811109C0E0914C06F091AB
:104FC0004D0689E3828381E08093C4050895CF93E1
:104FD0008DE092E00E943E3BC82FD3D362E055D5CE
:104FE0007C990CC07D990AC07E9908C081E08093AD
:104FF000520760E00E941E0DEFD51FC07D9910C0C2
:105000007E990EC00E940005882331F00E94C334AF
:105010000E94400589E001C08AE0809352074DC09C
:105020007C9904C07D9902C08EE005C07C9907C0C0
:105030007E9905C086E080935207C1E03EC07C990E
:1050400002C085E0F8CF7D9902C083E0E6CF7E996B
:1050500002C084E0E2CF853531F481E080935207CD
:1050600080934B06EACF833579F4D4DD882339F079
:1050700082E08093520781E080934B0603C08AE070
:1050800080935207C2E019C0823471F40E94C33485
:105090000E940005882309F4BFCF0E94400589E0E3
:1050A00080935207C9E009C08C3429F48DE08093C5
:1050B0005207CDE002C0C09352076C2F8DE092E002
:1050C000CF910C944B3BCF93DF931F92CDB7DEB7BC
:1050D0008CE080935207AEDEAED51BD5F2D43FDC18
:1050E0000E941B3583E390E0F0DD789470DF1DE0D3
:1050F0000AE080915207863009F484C09CF4833022
:1051000009F4D9C034F4813011F1823009F46FC050
:10511000D7C0843009F43DC0853009F0D1C00E9469
:10512000C507CBC08B3009F45EC04CF4893009F45C
:105130006CC08A3009F0C4C00E94C334A5C08D3051
:1051400031F08E3009F0BCC00E946E0BB6C00E94D8
:10515000040E3FD3182F33D28983BE016F5F7F4F78
:10516000812F75D4882351F0883121F490914B061A
:10517000911180E010924B066981A5D08FEC97E0E9
:105180000197F1F700C0000080E291E0CAD633DE5B
:10519000E0CF0E94C33401E01092D40689B119B166
:1051A00029B193B116FB112710F910278295817050
:1051B0008027180F2095221F2227221F120F929559
:1051C00091709027190F74D4810F80FF03C0469A05
:1051D0002E9802C046982E9AEFECF7E03197F1F73F
:1051E00000C00000D9CF0E94C3340E94790E809184
:1051F000FF05882311F05D98559A0E94C3340E94E0
:10520000E90E77CF0E944F0758C00E94C3340E9416
:105210008705813011F00E94B9048091FF05882331
:1052200069F05D98559A0AC0019741F0EFE1FEE4FC
:105230003197F1F700C00000799BF6CF799907C04C
:105240002E98469A0E94440589EE93E0EFCF2E9A5D
:10525000469860E080E00E94F003799B4ACFB9D283
:10526000F82EADD18983BE016F5F7F4F8F2DEFD3B5
:10527000882319F069810E94F0038FEC97E0019771
:10528000F1F700C00000E9CF2E9A46989FEFE1EEBB
:10529000F4E09150E040F040E1F700C00000469A91
:1052A0002E982FEF81EE94E0215080409040E1F75E
:1052B00000C00000E9CF0E94630A1093520719CF83
:1052C0000093520716CF1F93CF93DF931F92CDB752
:1052D000DEB7182F1092480610924706E0914C0650
:1052E000F0914D0682818823A9F080914706909124
:1052F00048068436910570F480915207813021F080
:10530000809152078D3051F780E291E0698309D690
:105310006981E4CF17FF02C01F7762E0143711F4F0
:1053200061E018E2F894E0914C06F0914D0612838A
:105330006093030680E291E0F4D578948FE39CE9D2
:105340000197F1F700C00000F89480E291E0E9D500
:1053500078940F90DF91CF911F910895EF92FF9273
:105360000F931F93CF93DF938C01FC0101900020DA
:10537000E9F73197EF01C81BD90B7C01C701801BEE
:10538000910B8C179D070CF061C0F70191917F0183
:10539000903259F1983261F1993269F19F3269F195
:1053A0009F3369F19A3371F19D3079F19A3069F147
:1053B0009E3271F19D3379F19B3279F1993081F10F
:1053C000933289F1913291F1903399F18FEC890FF9
:1053D000893020F48DEE890F60E02DC0892F90E098
:1053E0000E9442388D5362E026C060E08CE223C008
:1053F00062E086E220C062E01DC060E001C062E0C1
:1054000088E319C062E083E316C060E088E213C05D
:1054100060E087E310C060E001C062E08EE20BC094
:1054200060E08BE208C062E080E205C062E08EE1ED
:1054300002C060E087E247DFFFE728E381E0F15048
:1054400020408040E1F700C0000098CFDF91CF916D
:105450001F910F91FF90EF900895BC0185ED96E0AC
:105460000E944A3885ED96E079CF1F93CF93DF9362
:10547000282F6AE00E947037C92F822F90E08C1B82
:10548000910964E670E00E947C376AE070E00E9457
:105490007C37D62F162F283C18F060E08FE104C02F
:1054A000243618F060E08EE10EDF60E0112319F081
:1054B0008DE18D0F01C087E206DF2FEF80E792E0DC
:1054C000215080409040E1F700C0000060E0CC2314
:1054D00019F08DE18C0F01C087E2F5DE2FEF80E738
:1054E00092E0215080409040E1F700C00000DF9141
:1054F000CF911F9108950F931F93CF93DF93C82FE0
:105500006AE00E947037D92F8C2F90E08D1B910993
:1055100064E670E00E947C376AE070E00E947C37AD
:10552000162F062F81E080934F062FEF80E792E041
:10553000215080409040E1F700C00000C7FF08C044
:1055400060E082E6C0DEC83C28F060E08AE504C086
:10555000C43618F060E089E5B6DE2FE788E391E015
:10556000215080409040E1F700C0000060E000233F
:1055700019F088E5810F01C082E6A5DE2FE788E3F8
:1055800091E0215080409040E1F700C0000060E0D1
:10559000DD2319F088E58D0F01C082E694DE2FEF40
:1055A00080E792E0215080409040E1F700C0000089
:1055B00010924F06DF91CF911F910F910895809126
:1055C0004606823099F040F4813009F589B1829520
:1055D00081709091510617C0833079F08430B9F40E
:1055E00083B182958170909111070DC089B186FBBE
:1055F000882780F99091FE0506C089B1881F882709
:10560000881F9091D306891302C082E001C080E018
:105610007C9B81607D9B84607E9B886008957F92E7
:105620008F929F92AF92BF92CF92DF92EF92FF92B2
:105630000F931F93CF93DF93F894729A8FEC97E0B8
:105640000197F1F700C00000729878948FEC97E012
:105650000197F1F700C00000E12CF12C712C10E053
:10566000D0E0C0E0B0E0A0E0F0E0E0E01D9913C0C1
:1056700021E030E040E050E060E070E080E090E069
:105680000E2D0E94C337722A132BD42BC52BB62B99
:10569000A72BF82BE92BF894729A9AE19A95F1F7D7
:1056A00000C0729878948AE68A95F1F700C09FEF5F
:1056B000E91AF90A80E3E816F104C1F68091D406EC
:1056C0008230E9F4272D312F4D2F5C2F6B2F7A2F4D
:1056D0008F2F9E2F0CE20E94DE37490191E0892234
:1056E000992480914E0690E08816990641F0712C1D
:1056F00010E0D0E0C0E0B0E0A0E0F0E0E0E08091B9
:105700004606813051F099B19295917020915106E1
:10571000921301C0E064823059F099B196FB992749
:1057200090F92091FE05921301C0E062833059F098
:1057300099B1991F9927991F2091D306921301C0FF
:10574000E061843041F083B18295817090911107BE
:10575000891301C0E860272D312F4D2F5C2F6B2F4F
:105760007A2F8F2F9E2FDF91CF911F910F91FF9056
:10577000EF90DF90CF90BF90AF909F908F907F90F1
:105780000895FF920F931F93CF93DF9348DFF22E7C
:10579000032F142FD52FC62FE72FB82FF92F809165
:1057A000D4068111EF7E2F2D302F412F5D2F6C2FCE
:1057B0007E2F8B2F9F2FA0E00E94FA3719F00E94B6
:1057C000BB3701C080E0DF91CF911F910F91FF9017
:1057D00008952F923F924F925F926F927F928F9295
:1057E0009F92AF92BF92CF92DF92EF92FF920F9370
:1057F0001F93CF93DF9300D01F92CDB7DEB70FDF9B
:105800004901142F5983F62FE72F482E392E809106
:10581000D4068111EF7E509000062090440687ED5B
:10582000E82E85E0F82E9FEDA92E92E0B92EC12C2E
:10583000D12C712C612CDB82CA82511002C01B82D8
:105840001A82D5010D915D01BFEFCB1ADB0A9401DD
:10585000412F59816F2F7E2F842D932D0E94DE378B
:10586000217030E040E050E060E070E080E090E0E7
:10587000A0E00E94FA3799F0D7018C91821510F4BC
:105880008F5F31C0AA81BB81AD52BA4F8C9181111B
:105890002BC081E08C937C2C6624639425C055201A
:1058A00039F0D7018C91882399F08150D7011BC022
:1058B0008091D705811112C08091D80581110EC049
:1058C0008091D90581110AC08091DA05811106C045
:1058D000AA81BB81AD52BA4F1C9206C0D7018C91F0
:1058E000882311F081508C93BFEFEB1AFB0A84E000
:1058F000C816D10409F09FCFF9809401412F5F2D84
:105900006F2F7E2F80E090E02F3FAFEF3A074A07DE
:105910005A076A077A078105910509F455C08091F5
:10592000D205882379F0AFE3B0E0A81BB10921E0EC
:1059300030E040E050E060E070E080E00A2F0E943C
:10594000C33727C09091D105992349F18091D005A3
:105950008F5F8093D00520914506821728F0109222
:10596000D0051092D1051BC0AFE3B0E0A91BB1096F
:1059700021E030E040E050E060E070E080E090E066
:105980000A2F0E94C3372095309540955095609519
:105990007095822293221423F522F623E7239401A3
:1059A000412F5F2D6F2F7E2F80E090E0A0E00E94BE
:1059B000FA3751F00E94BB379091CF059F5F9093CB
:1059C000CF051092CE0508C08091CE058F5F8093E1
:1059D000CE051092CF0580E0909192062091CF05E0
:1059E000291758F09093CF059091D2058917B1F0FF
:1059F0008093D2056620A9F00FC080910206909195
:105A0000CE05981758F08093CE058091D2058093EB
:105A1000D1051092D20502C0872D03C06110FCCFC2
:105A200080E00F900F900F90DF91CF911F910F9119
:105A3000FF90EF90DF90CF90BF90AF909F908F90AE
:105A40007F906F905F904F903F902F900895FB0153
:105A50009081282F30E092FF08C0D901AD5AB64F8F
:105A60008C91882311F09B7F09C091FF09C0D90157
:105A7000AE5AB94F8C91882319F09D7F9083089579
:105A8000F901EC5FF94F80810895882379F0282F80
:105A900030E061FF06C0F901ED56F94F80818111B8
:105AA00006C0F901EE5EF84F8081089580E0089508
:105AB0000F93B5DD0CE20E94DE37822F81700F91CB
:105AC000089540E450E060E070E084E096E00E94D9
:105AD0002E3B40E450E060E470E083E599E00E94F2
