:10000000CEC00000E9C00000E7C00000E5C000006D
:10001000E3C00000E1C00000DFC00000DDC0000060
:10002000DBC00000D9C000000C9482230C944F2444
:10003000D3C00000D1C00000CFC00000CDC0000080
:10004000CBC000000C947219C7C00000C5C00000EE
:10005000C3C00000C1C00000BFC00000BDC00000A0
:10006000BBC000000C94CE180C94FC18B5C0000066
:10007000B3C00000B1C00000AFC00000ADC00000C0
:10008000ABC00000A9C00000A7C00000A5C00000D0
:10009000A3C00000A1C000009FC000009DC00000E0
:1000A0009BC0000099C0000097C0000048034C00AE
:1000B00055004600410020004D00610073007300B0
:1000C0002000530074006F0072006100670065003B
:1000D000200061006E00640020004B006500790084
:1000E00062006F006100720064002000440065003F
:1000F0006D006F00000018034400650061006E0091
:100100002000430061006D00650072006100000086
:1001100004030904090239000201008032090400C5
:100120000002080650000705830240000507050489
:100130000240000509040100010301010009211129
:10014000010001223F00070581030800051201108C
:100150000100000008EB03612001000102DC010541
:10016000010906A101050719E029E7150025017518
:100170000195088102950175088101050819012979
:1001800005950575019102950175039101150025ED
:10019000FF0507190029FF950675088100C0112485
:1001A0001FBECFEFDAE0DEBFCDBF13E0A0E0B1E0CD
:1001B000E0ECF3E502C005900D92A637B107D9F740
:1001C00029E0A6E7B3E001C01D92AD34B207E1F724
:1001D0000E943F1A0C94DE2913CF1F93CF93DF9315
:1001E0001F92CDB7DEB7182F769A87EC90E0019773
:1001F000F1F700C000007698EFE0F7E23197F1F7F1
:1002000000C000008EEF69830E945D1981E00E94AA
:100210005D196981862F0E945D19812F0E945D19E9
:100220008EEF0E945D1980E00E945D19769A0F9012
:10023000DF91CF911F910895CF93DF93EC018881D7
:10024000882319F00E945D19FACF8DE00E945D1994
:100250002FEF80E792E0215080409040E1F700C00E
:100260000000DF91CF9108958F982FEF80E792E003
:10027000215080409040E1F700C000008F9A2FEF9E
:1002800086E191E1215080409040E1F700C00000FC
:1002900076988FE097E20197F1F700C0000008958B
:1002A000CF9384E20E945D1984E20E945D1984E28A
:1002B0000E945D198FE19EE40197F1F700C00000F4
:1002C0000E9458190E943F19C82F0E943F190E948E
:1002D0003F1981E0C33409F080E0CF910895CF93B6
:1002E000DF93479AC1DFC5E0DBDFD82FD9DF882352
:1002F00041F0D11112C08AE08093FF06DF91CF91C7
:1003000008952FEF89E698E1215080409040E1F771
:1003100000C00000C15041F7ECCF86E691E08CDFD1
:100320002FEF80E792E0215080409040E1F700C03D
:1003300000008BE691E080DF83E791E07DDF8BE7D3
:1003400091E07ADF83E891E077DF89E891E074DF7C
:1003500081E991E071DF83EA91E06EDF8BEA91E061
:100360006BDF80EB91E068DFDF91CF917DCFCF93A2
:10037000DF93EB01FB01E55CF94F808382EC91E0B8
:100380000E94031B62E08EE20E94E31A8C2FDF9131
:10039000CF910C94521B2FEF80E792E021508040C8
:1003A0009040E1F700C000000E946F1C90E00097B1
:1003B000D9F30895CF93DF93EB01423019F4DF9125
:1003C000CF91D5CFFB01443061F4E050F74F8083EB
:1003D00088EC91E00E94031B62E08EE20E94E31A27
:1003E00003C0ED50FA4F80838C2FDF91CF910C9496
:1003F000521B6F927F928F929F92AF92BF92CF9239
:10040000DF92EF92FF920F931F93CF93DF93809130
:1004100044098430E1F72FEF89E698E121508040CC
:100420009040E1F700C000008BEC91E00E94031BBC
:1004300062E086E20E94E31A8BED91E00E94031BCA
:1004400062E087E20E94E31A88E592E00E94031BC3
:100450008EED91E00E94031B80EF91E00E94031B50
:1004600089B191E082958170892780933A0689B19C
:1004700086FB882780F989278093F00589B18095CC
:10048000881F8827881F8093BC0683B1829581705E
:1004900089278093BE067E9931C00E94861CD82F82
:1004A00080E092E00E94031BEFEFF3ED20E3E150C8
:1004B000F0402040E1F700C000000E94861CC82FD9
:1004C000D81307C089E392E00E94031B1092BD0677
:1004D00009C08AE592E00E94031B81E08093BD067B
:1004E000C09339066091BD0683E092E00E94D52852
:1004F0006091390684E092E00E94D5288FE592E071
:100500000E94031B14E062E0812F0E94E31A60E066
:100510008CE20E94E31A3FDFEC010E94881B082F47
:10052000DD27482F4D7FBE01812F44DF02FD0BC028
:10053000FE01E458F94F8DE3810F8083C154D94FF8
:100540008DE5810F888360E088E20E94E31A1F5FD7
:100550001E31C9F6FFEAEF2EF2E0FF2EC0E0D0E038
:10056000F701C1907F0160E08C2D0E94E31A60E0EA
:100570008CE20E94E31A0FDF8C010E94881BB82EC8
:10058000F82FFD7FDF2E11274F2FB8018C2D12DFA2
:10059000B2FC10C0F801E154F94FDE01AB55BD4F7C
:1005A0008C918083F801E458F94FDE01A456BD4FC9
:1005B0008C91808360E088E20E94E31A2196CA3021
:1005C000D10571F68BE792E00E94031B60E08CE29C
:1005D0000E94E31AE0DEEC01DD27FE01ED50FA4F48
:1005E0008CE280838C2F0E94521BFE01E154F94F54
:1005F00080E28083C458D94F888360E088E20E94FB
:10060000E31A82EC91E00E94031B60E08CE20E94FE
:10061000E31AC1DE9FEF980F983010F480933406F0
:100620001DE28EE2682E0FE39FE2F92E2AE2E22E0F
:1006300030E6C32E4EE7B42E5DE3A52E6BE2962E78
:100640007BE3872EEAE37E2E123309F45DC060E07F
:10065000812F0E94E31A60E08CE20E94E31A9BDE85
:10066000EC010E94881BD82E0E94521BDD274D2DC5
:10067000BE01812F9FDED2FC43C0133341F4FE0143
:10068000E154F94F8082C458D94F788239C01E3264
:1006900041F4FE01E154F94FA082C458D94F988229
:1006A0002FC0153341F4FE01E154F94FC082C45804
:1006B000D94FB88225C01D3241F4FE01E154F94FF3
:1006C0001083C458D94FE8821BC0183329F4FE01A7
:1006D000E154F94FF08207C0163349F4FE01E154AA
:1006E000F94F8CE28083C458D94F088309C017336F
:1006F00039F4FE01E154F94F6082C458D94F688241
:1007000060E088E20E94E31A1F5F193309F09CCF72
:1007100084E892E00E94031B60E08CE20E94E31AEE
:100720003ADEEC01DD27FE01ED50FA4F8AE28083CC
:100730008C2F0E94521BFE01E154F94F88E0808308
:10074000C458D94F888360E088E20E94E31A8EE89B
:1007500092E00E94031B60E08CE20E94E31A1BDE21
:10076000EC01DD27FE01ED50FA4F8BE280838C2FE8
:100770000E94521BD2FC09C0FE01E154F94F89E0EE
:100780008083C458D94F84E7888360E088E20E9460
:10079000E31A82E992E00E94031B60E08CE20E946F
:1007A000E31AF9DD9927FC01ED50FA4F99E29083A5
:1007B0000E94521B60E088E20E94E31A86E992E000
:1007C0000E94031B60E08CE20E94E31AE4DDEC016E
:1007D000DD27FE01ED50FA4F88E280838C2F0E94C6
:1007E000521BFE01E154F94F8DE08083C458D94F6C
:1007F000888360E088E20E94E31A8BE792E00E941F
:10080000031B60E08CE20E94E31AC5DDEC01DD27EA
:10081000FE01ED50FA4F8CE280838C2F0E94521B18
:10082000FE01E154F94F80E28083C458D94F888398
:1008300060E088E20E94E31A40E450E060E070E08B
:1008400083EF95E00E94E72840E450E060E470E028
:1008500080E099E00E94E72840E450E060E870E022
:100860008BE396E00E94E72840E450E060EC70E003
:100870008FEB96E00E94E72840E450E060E071E0F2
:100880008CE796E00E94E7286091340685E092E0CC
:100890000E94D52860913A0686E092E00E94D52811
:1008A0006091F00587E092E00E94D5286091BC0637
:1008B00088E092E00E94D5286091BE0689E092E02F
:1008C0000E94D528DF91CF911F910F91FF90EF905B
:1008D000DF90CF90BF90AF909F908F907F906F9060
:1008E0000C94CE19E4E6F0E08081877F80838AE073
:1008F0008093810087E28093890080E18093880063
:10090000EFE6F0E080818260808308952098289A45
:1009100054985C9A56985E9A57985F9A24982C9AA5
:1009200023982B9A22982A9A6A9A25982D9A219888
:10093000299A599A519A55985B9A539A52985A9A69
:1009400084988C9A85988D9A86988E9A8F98879A93
:10095000479A3F9A8198899A469A3E9A2E9A269A61
:100960000895292F332723303105B9F05CF4213065
:10097000310569F12230310579F589E390E024E110
:1009800031E02EC021323105E9F02232310521F566
:100990008FE390E02FE531E023C099278130910566
:1009A00041F08230910541F0892BB1F4E0E1F1E0B2
:1009B00005C0E6EFF0E002C0ECEAF0E0849190E0E0
:1009C0009F010EC089E090E02DE331E009C082E193
:1009D00090E02DE431E004C080E090E020E030E0E1
:1009E000FA01318320830895CF93809144098430A4
:1009F000D9F01092000742E160E071E087E793E0F0
:100A00000E94E912C82F40918103509182036091A6
:100A100083037091840387E793E00E94131481E0BD
:100A2000809376038C2F01C080E1CF91089541E03F
:100A300069E572E087E993E00E94A11291E08111DB
:100A400001C090E0892F0895CF92DF92EF92FF923C
:100A50000F931F93CF93DF93CDB7DEB766970FB693
:100A6000F894DEBF0FBECDBFE2DF811131C08AE056
:100A700092E00E94D0288C0189EBC82E82E0D82E0B
:100A800090E0E92E91E0F92E0F5F1F4F1F930F9317
:100A9000DF92CF92FF92EF920E94D626BE016F5F47
:100AA0007F4F80E091E00E94B1150F900F900F9062
:100AB0000F900F900F90882339F3843039F4B801E8
:100AC0008AE092E00E94FE288FDF05C01092760334
:100AD0008AE08093FF0666960FB6F894DEBF0FBEDD
:100AE000CDBFDF91CF911F910F91FF90EF90DF90DD
:100AF000CF900895A09199032091A9033091AA0362
:100B00004091AB035091AC03225031094109510986
:100B1000B0E00C94202623B123B101970097D9F7B8
:100B20000895680F791FFC012191CF0127FF02C0B2
:100B30002A9A01C02A98299A299826FF02C02A9A3F
:100B400001C02A98299A299825FF02C02A9A01C033
:100B50002A98299A299824FF02C02A9A01C02A9823
:100B6000299A299823FF02C02A9A01C02A98299A13
:100B7000299822FF02C02A9A01C02A98299A299806
:100B800021FF02C02A9A01C02A98299A299820FF99
:100B900002C02A9A01C02A98299A2998861797078D
:100BA00011F608952A9A680F791F23B1299A299876
:100BB00023FB222720F9220F1B992F5F299A2998BE
:100BC000220F1B992F5F299A2998220F1B992F5FBB
:100BD000299A2998220F1B992F5F299A2998220F69
:100BE0001B992F5F299A2998220F1B992F5F299A09
:100BF0002998220F1B992F5F299A2998FC0121938C
:100C0000CF01E617F70789F608950F931F93CF9347
:100C1000DF931F92CDB7DEB708E813E161E070E023
:100C2000CE010196BFDF89818F3F41F084E690E0DD
:100C300072DF015011090115110581F781E090E083
:100C4000012B11F480E090E00F90DF91CF911F9184
:100C50000F910895CF93DF931F92CDB7DEB7599AC6
:100C600061E070E0CE0101969DDF0F90DF91CF91A2
:100C70000895CF93DF9300D01F92CDB7DEB7599878
:100C800061E070E0CE0101968DDFBFDF009731F4A7
:100C90008A839B83DFDF8A819B8102C081E090E0B1
:100CA0000F900F900F90DF91CF910895CF92DF9228
:100CB000EF92FF920F931F93CF93DF9300D0CDB7A6
:100CC000DEB77C016B0108EE13E061E070E0CE015D
:100CD000019668DF89818F3F71F089818E3FA1F491
:100CE000B601C7015FDF62E070E0CE0101965ADF16
:100CF00081E090E00BC084E690E00DDF0150110927
:100D00000115110511F7E9CF80E090E00F900F90E9
:100D1000DF91CF911F910F91FF90EF90DF90CF90D7
:100D20000895DF92EF92FF920F931F93CF93DF937B
:100D3000CDB7DEB727970FB6F894DEBF0FBECDBF95
:100D4000182F042FF52EE62ED72E87FF08C040E07F
:100D500050E0BA0187E3E5DF823090F51F771C3061
:100D600051F4812F80648983DA82EB82FC820D83C7
:100D7000112359F006C06EDF7CDF892B91F78FEFCE
:100D80001FC0183021F081E003C085E901C087E869
:100D90008E8366E070E0CE010196C3DE1C3029F43C
:100DA00061E070E0CE010796FDDE1AE061E070E0E0
:100DB000CE010796F7DE8F8187FF02C01150B1F791
:100DC00027960FB6F894DEBF0FBECDBFDF91CF914F
:100DD0001F910F91FF90EF90DF900895FF920F9376
:100DE0001F93CF93DF9300D0CDB7DEB78C01F62EE3
:100DF0000CDF009719F1F98261E070E0CE010196F5
:100E000090DE8DEFF816C1F060E072E0C80189DE77
:100E100062E070E0CE010196C5DE61E070E0CE01D7
:100E20000196C0DE89818F7131E020E0853009F0C4
:100E300030E0832F922F02C081E090E00F900F905E
:100E4000DF91CF911F910F91FF900895811103C001
:100E500080910A01089581E00895EF92FF920F9327
:100E60001F93CF93DF9300D000D0CDB7DEB78111B1
:100E700076C080E197E24FDE519A599A2998219ADB
:100E80002998229A2B9A1AE061E070E0CE0101962F
:100E900089DE1150C9F740E050E0BA0180E041DF3F
:100EA000813009F051C04AEA51E060E070E088E02A
:100EB00038DF813001F564E070E0CE01019672DE2A
:100EC0008B81813009F040C08C818A3A09F03CC0A6
:100ED00008EE13E040E050E060E070E489EA21DFD2
:100EE000882359F188EE93E016DE015011090115AF
:100EF000110581F729C040E050E0BA0189EA11DF0D
:100F0000823028F499EAE92E22E0F22E04C0EE2481
:100F1000E394FF24F39408EE13E040E050E0BA01BC
:100F20008E2DFFDE882359F188EE93E0F4DD015029
:100F300011090115110589F707C040E050E0BA0119
:100F40008AE3EFDE882369F0F12CF092C50511E009
:100F5000F11010E010930A017DDE812F19C083E0AB
:100F600017C064E070E0CE0101961CDE898186FF27
:100F700003C03CE0F32EE9CF84E0F82EE6CF40E05A
:100F800052E060E070E080E1CCDE8111DDCFDDCFAA
:100F90000F900F900F900F90DF91CF911F910F91B5
:100FA000FF90EF900895FF920F931F93CF93DF93DD
:100FB000EB01BA01A901811103C080910A0101C0AE
:100FC00081E080FD31C08091C50583FD07C0A9E0A7
:100FD000440F551F661F771FAA95D1F702301105E0
:100FE00018F0F2E1FF2E02C0E1E1FE2E8F2D99DE16
:100FF000811114C060E072E0CE0158DE892B31F01F
:10100000DE5F0150110901151105A1F782E1F81207
:1010100005C040E050E0BA018CE083DE1BDE81E0D9
:10102000012B19F480E001C083E0DF91CF911F9183
:101030000F91FF900895CF92DF92EF92FF920F935E
:101040001F93CF93DF93EB0169017A01811103C0F4
:1010500080910A0101C081E080FD45C08091C505F5
:1010600083FD07C0B9E0CC0CDD1CEE1CFF1CBA955B
:10107000D1F70130110589F4B701A60188E151DEED
:1010800081112BC06EEFCE01A9DE31E020E0892B6B
:1010900009F030E0032F122F20C0867029F0A8013C
:1010A00060E070E087E93DDEB701A60189E139DE45
:1010B000811113C06CEFCE0191DE892B31F0DE5F20
:1010C0000150110901151105A9F76DEF80E090E0BD
:1010D00085DE892B11F401E010E0BCDD81E0012BFD
:1010E00019F480E001C083E0DF91CF911F910F914F
:1010F000FF90EF90DF90CF900895CF93DF93DB01C7
:10110000FC019A012230310538F0CD91DD91C19377
:10111000D19322503109F6CFDA01AE7FFB01EA0FFD
:10112000FB1FA80FB91F417055274E0F5F1FE41713
:10113000F50719F081918D93FACFDF91CF91089542
:10114000CF93DF93EB01FB013996DC011E964D91A5
:101150005D916D917C915197452B462B472BA1F1C9
:1011600052962D913C915397D90180E090E05EE238
:1011700001964D91403251F0453009F445EE8930E9
:10118000910511F450833196408331968B3091054F
:1011900079F7D9011B968C911B9788875C964D91A6
:1011A0005D916D917C915F97488359836A837B83BE
:1011B00058968D919C9159979D838C8356968D91CD
:1011C0009C9157979F838E831082DF91CF910895D2
:1011D000FC012081318121153105B1F0F901AF0108
:1011E0006191613270F06A33D1F7F90161914E1764
:1011F0005F0751F4603341F42E5F3F4FFC013183B0
:10120000208380E090E008958FEF9FEF089500978E
:10121000C1F0DC01ED91FC911197309791F02081A4
:10122000222379F02681378112968D919C91139714
:101230002817390731F4818109DE80FF04C083E07B
:10124000089589E0089580E008954F925F926F922B
:101250007F92AF92BF92CF92DF92EF92FF920F9365
:101260001F93CF93DF93EC018C81882309F443C053
:101270004AA45BA46CA47DA46E018EE2C80ED11CAE
:1012800001E010E0A3019201B6018981D4DE811151
:1012900030C01C828E8D9F8DA8A1B9A1B301A2017F
:1012A000481B590B6A0B7B0B8E899F89A88DB98DC2
:1012B000481759076A077B07F0F4AB80B12CE12C83
:1012C000F12CC5018E199F090297A8F08E899F897C
:1012D000A88DB98D480E591E6A1E7B1E01E010E0D4
:1012E000A3019201B6018981A6DE8FEFE81AF80A00
:1012F000E8CF81E001C080E0DF91CF911F910F9195
:10130000FF90EF90DF90CF90BF90AF907F906F9065
:101310005F904F900895BF92CF92DF92EF92FF922D
:101320000F931F93CF93DF93EC016A017B018AA592
:101330009BA5ACA5BDA5481759076A077B07D9F03F
:10134000CE0183DFB82E811117C001E010E0A701A4
:101350009601BE01625D7F4F898125DE882331F0D1
:10136000BB24B394CC24CA94DC2C7601CAA6DBA699
:10137000ECA6FDA601C0B12C8B2DDF91CF911F9162
:101380000F91FF90EF90DF90CF90BF9008950F9353
:101390001F93CF93DF93EC011C820FEF1FEF980197
:1013A0000AA71BA72CA73DA7B6DF811122C0FE010B
:1013B000E45DFD4F8081918185359A4AE1F4E85CD6
:1013C000F1404081518162817381772746345144D5
:1013D0006445710591F0C058DF4F488159816A8199
:1013E0007B81772781E0463451446445710531F4AF
:1013F00004C083E003C082E001C080E0DF91CF91B0
:101400001F910F9108952F923F924F925F926F928A
:101410007F928F929F92AF92BF92CF92DF92EF9284
:10142000FF920F931F93CF93DF93CDB7DEB76D97E6
:101430000FB6F894DEBF0FBECDBF6C01CB01B42E4A
:10144000D6011D921C92C4DE7C0197FD1DC2FC01D9
:10145000EE0FFF1FE853FA4F0081118101151105AE
:1014600009F414C2F60111830083D8018C918823FA
:1014700059F011968C91EADC80FD06C0BB2009F47E
:1014800007C282FD09C204C2F8011082E1828E2DDA
:10149000E4DC80FDFFC1BB2011F082FDFDC140E016
:1014A00050E0BA01C80173DF813009F03FC0FE018E
:1014B000319620E030E0C801820F931FDC01A0517B
:1014C000BE4F4C91442339F014968D919D910D900F
:1014D000BC91A02D03C080E090E0DC01819391934A
:1014E000A193B193205F3F4F2034310521F76E0166
:1014F000F1E1CF0ED11C9E012F5F3F4F7901D70143
:101500004D905D906D907D907D014114510461047A
:10151000710439F0B301A201C80139DF811102C0A1
:101520000FC082E0EC14FD0451F703C0412C512C94
:101530003201833009F4B2C1882311F08DE0AFC1CC
:10154000F80181AD92AD81159240C1F7F801EC5BD5
:10155000FF4FC080D180E12CF12CC114D104E104F3
:10156000F10429F43E96C080D180E280F380D80156
:101570005696CD92DD92ED92FC925997DE964C9163
:10158000DE9713964C9313978FEF840F8230B0F64B
:10159000DB96EC91DB97E98B1296EC931297EE2396
:1015A00069F22E2F30E0C901019782239323892B02
:1015B00029F6F801FF962080318019963C922E92F0
:1015C0001897C1018F709927892B09F0B7CF3296F0
:1015D00080809180A12CB12C81149104A104B104CC
:1015E00029F43D9680809180A280B380D801DC965A
:1015F000ED91FC91DD97309709F4A0CFA42FB0E0D6
:10160000A70196010E9420266E8B7F8B888F998F71
:101610009F0140E050E02A8F3B8F4C8F5D8FC101CE
:1016200064E0969587956A95E1F7280F391F411D6B
:10163000511D8E899F89A88DB98D280F391F4A1F8A
:101640005B1F2A8B3B8B4C8B5D8B82169306A4060B
:10165000B50608F473CFC501B401621B730B840B8C
:10166000950BE9892E2F30E040E050E00E94FE25E6
:10167000211531054105510509F460CF263FFFE0F2
:101680003F074105510548F0263F8FEF38074105D8
:10169000510530F492E0998B05C0A1E0A98B02C0FE
:1016A000B3E0B98B49015A01E2E08E0E911CA11CF6
:1016B000B11CD80152968D929D92AD92BC925597D5
:1016C000F801428E538E648E758E8A8D9B8DAC8D03
:1016D000BD8D840D951DA61DB71D868F978FA0A368
:1016E000B1A34A895B896C897D89440D551D661DAE
:1016F000771D46A357A360A771A7F989F330C9F4F2
:10170000232809F01BCFF801E65AFF4F8081918111
:10171000A281B381F80182A393A3A4A3B5A3C501B9
:10172000B40152E0660F771F881F991F5A95D1F7B1
:101730002DC0232809F402CF2E893F89488D598D69
:10174000820F931FA41FB51FF80182A393A3A4A324
:10175000B5A3F989F23039F4C501B401660F771FDA
:10176000881F991F13C0A3E0B0E0A50194010E9457
:101770002026969587957795679521E08222992472
:10178000AA24BB24680D791D8A1D9B1DDC01CB0199
:1017900081509E4FAF4FBF4F29E0B695A7959795C3
:1017A00087952A95D1F7C816D906EA06FB0608F4EC
:1017B000C5CE8FEF9FEFDC01F80186879787A08B5E
:1017C000B18B82879387A487B58780E88583F98961
:1017D000F33009F048C0F801E25AFF4F808191814F
:1017E000019709F040C0B301A2014F5F5F4F6F4FF7
:1017F0007F4FC80190DD811136C0D80115961C922B
:10180000F801E45DFD4F8081918185359A4A59F553
:10181000F80186A597A5A0A9B1A982359245A14650
:10182000B14409F5F801EE5EFD4F80819181A281FE
:10183000B38182379247A144B146A9F4349680819E
:101840009181A281B381F80186879787A08BB18BA4
:10185000E65EFD4F80819181A281B381F80182878C
:101860009387A487B587E989D801EC938091C60551
:101870009091C70501969093C7058093C60517966A
:101880009C938E93169704C08BE009C08CE007C030
:1018900080E005C083E003C08AE001C081E06D966E
:1018A0000FB6F894DEBF0FBECDBFDF91CF911F9171
:1018B0000F91FF90EF90DF90CF90BF90AF909F90EF
:1018C0008F907F906F905F904F903F902F900895F2
:1018D0000F931F93FC01425051096109710902895C
:1018E00013892489358902501109210931094017CA
:1018F00051076207730778F4A281B0E09A01AB0147
:101900000E94202606A117A120A531A5600F711FF6
:10191000821F931F03C060E070E0CB011F910F9105
:101920000895AF92BF92CF92DF92EF92FF920F9302
:101930001F93CF93DF93EC016A017B014230510585
:101940006105710508F4A2C08A899B89AC89BD89AB
:10195000481759076A077B0708F098C088818230CA
:1019600009F449C0833009F468C0813009F08EC0A1
:101970005A01B694A794A40EB51EC501892F9927C4
:1019800086954E8D5F8D68A179A1480F591F611D05
:10199000711DCE01C0DC882321F06FEF7FEFCB01FA
:1019A00079C085010F5F1F4FF501F170EC0FFD1F2E
:1019B000B6A4C801892F992786954E8D5F8D68A1A1
:1019C00079A1480F591F611D711DCE01A4DC811141
:1019D000E4CFF801F170EC0FFD1F86A56B2D70E0D0
:1019E000782BC0FE06C0C4E076956795CA95E1F7EE
:1019F00021C07F701FC0452F562F672F77278E8DF0
:101A00009F8DA8A1B9A1480F591F6A1F7B1FCE0146
:101A100082DC8111C2CFCC0CDD1CEE1CFF1CE894D3
:101A2000C0F881E0D822EE24FF24FE01EC0DFD1D5C
:101A300066A577A580E090E02DC0F7E076956795E4
:101A400057954795FA95D1F78E8D9F8DA8A1B9A18D
:101A5000480F591F6A1F7B1FCE015DDC81119DCF8E
:101A6000E2E0CC0CDD1CEE1CFF1CEA95D1F78CEFFC
:101A7000C82281E0D822EE24FF24FE01EC0DFD1DDA
:101A800066A577A580A991A99F7004C061E070E068
:101A900080E090E0DF91CF911F910F91FF90EF9048
:101AA000DF90CF90BF90AF900895AF92BF92CF924A
:101AB000DF92EF92FF920F931F93CF93DF93EC018E
:101AC0008B017D836C83CE80DF80E884F98481E0A4
:101AD000C816D104E104F10411F482E080C0E88169
:101AE000F98182899389A489B589C816D906EA063D
:101AF000FB0698F7C114D104E104F104B9F4808124
:101B0000833041F482A193A1A4A1B5A10097A105BE
:101B1000B10551F48085918508171907F0F662A187
:101B200073A184A195A12FC06C017D01A28080E1E9
:101B3000A89E5001112488819981B701A6010A1538
:101B40001B0500F1EEDE6B017C018FEFC816D80695
:101B5000E806F80609F442C082E0C816D104E104A0
:101B6000F10408F4BACFE881F98182899389A489C4
:101B7000B589C816D906EA06FB0608F0AECF0A19E1
:101B80001B09D9CFA5DECA86DB86EC86FD866115EA
:101B900071058105910509F4A0CF980154E03695AF
:101BA00027955A95E1F7DC01CB01820F931FA11D08
:101BB000B11D8E879F87A88BB98B0F70112765E0A9
:101BC000000F111F6A95E1F7025D1F4F888199810F
:101BD000800F911F9B8B8A8B80E001C081E0DF9199
:101BE000CF911F910F91FF90EF90DF90CF90BF901A
:101BF000AF9008954F925F926F927F928F929F92D3
:101C0000AF92BF92CF92DF92EF92FF920F931F930A
:101C1000CF93DF93EC016A017B0128013901423047
:101C200051056105710508F4C5C08A899B89AC8995
:101C3000BD89481759076A077B0708F0BBC0888130
:101C4000823009F45FC0833009F47DC0813009F02F
:101C5000B1C05A01B694A794A40EB51EC501892F30
:101C6000992786954E8D5F8D68A179A1480F591FE0
:101C7000611D711DCE014FDB81119DC085010F5F7C
:101C80001F4FF501F170EC0FFD1F4601570181E078
:101C900088229924AA24BB24C0FE08C026A52F7040
:101CA00030E1439EC0011124282B01C0242D26A71A
:101CB00081E08C834E8D5F8D68A179A1C801892F49
:101CC00099278695480F591F611D711DCE0123DB91
:101CD000811171C0F801F170EC0FFD1F89288A286D
:101CE0008B2849F0B4E07694679457944794BA955A
:101CF000D1F7942D05C096A5907F252D2F70922B9E
:101D000096A755C0452F562F672F77278E8D9F8D0D
:101D1000A8A1B9A1480F591F6A1F7B1FCE01FBDA8A
:101D2000811149C0CC0CDD1CEE1CFF1CE894C0F8EE
:101D300091E0D922EE24FF24F601BE96EC0FFD1FA0
:101D40005182408234C0E7E0769567955795479574
:101D5000EA95D1F78E8D9F8DA8A1B9A1480F591F83
:101D60006A1F7B1FCE01D7DA811125C072E0CC0C2F
:101D7000DD1CEE1CFF1C7A95D1F73CEFC32231E04D
:101D8000D322EE24FF24F601BE96EC0FFD1F408106
:101D9000518162817381442755276627707F4429CA
:101DA000552966297729408351836283738391E0A3
:101DB0009C8301C082E0DF91CF911F910F91FF9032
:101DC000EF90DF90CF90BF90AF909F908F907F90DB
:101DD0006F905F904F9008954F925F926F927F92B5
:101DE0008F929F92AF92BF92CF92DF92EF92FF922B
:101DF0000F931F93CF93DF93EC012A013B01411511
:101E000051056105710599F48A849B84AC84BD8475
:101E100081149104A104B10449F14A895B896C8958
:101E20007D8984169506A606B70600F523C079DDE0
:101E3000623071058105910508F492C06F3F2FEF64
:101E400072078207920729F44FEF3FEF2FEF9FEFC2
:101E50008CC0CA88DB88EC88FD886C157D058E05F2
:101E60009F0508F47FC05301420104C0812C912CCE
:101E700054018394750164018FEFC81AD80AE80AE7
:101E8000F80A4A895B896C897D89C416D506E606FD
:101E9000F70680F022E082169104A104B10428F430
:101EA00040E030E020E090E060C052E0C52ED12C50
:101EB000E12CF12CB701A601CE0133DD61157105CE
:101EC0008105910599F06F3F2FEF72078207920706
:101ED00009F4BACF613071058105910509F440C05C
:101EE000C814D904EA04FB0439F6DACF0FEF1FEF68
:101EF0002FEF3FE0B701A601CE017CDE81112DC09E
:101F00004114510461047104D1F4CA86DB86EC8665
:101F1000FD864E855F85688979894F3F8FEF580729
:101F200068077807A9F041505109610971094E8786
:101F30005F87688B798B8D8181608D8309C0970164
:101F40008601B301A201CE0155DE8823F1F205C05E
:101F50004C2D3D2D2E2D9F2D08C0813009F474CFBE
:101F600041E09FCF462F372F282F642F732F822FCA
:101F7000DF91CF911F910F91FF90EF90DF90CF9065
:101F8000BF90AF909F908F907F906F905F904F9099
:101F900008957F928F929F92AF92BF92CF92DF92DD
:101FA000EF92FF920F931F93CF93DF93EC016B019E
:101FB0000C811D810F5F1F4F0115110511F484E085
:101FC000DBC08E859F85A889B9890097A105B105D9
:101FD000B1F378012FE0E222FF24E114F10409F0CB
:101FE000B8C00196A11DB11D8E879F87A88BB98BA4
:101FF0004A855B856C857D8588819981FC014115C9
:1020000051056105710531F480859185081719071F
:10201000B0F69FC0228130E021503109F801A4E0E0
:10202000F695E795AA95E1F72E233F23232B09F098
:1020300090C077DC4B015C01623071058105910530
:1020400010F482E099C06F3F2FEF7207820792076A
:1020500011F481E091C088819981FC014289538902
:102060006489758984169506A606B70608F464C0C7
:10207000CD2809F4A4CF4A855B856C857D85ACDECF
:102080004B015C01611571058105910509F473C06F
:102090006130710581059105A1F26F3F2FEF720745
:1020A00082079207B1F288819981CFD88111D1CF6F
:1020B00088819981FC01BE96825D9D4FE817F907E2
:1020C00011F01192FBCFC880D980B501A401C601DF
:1020D000FFDBF60162A773A784A795A7C12CD12CBB
:1020E00077247394E881F981828190E0C816D9063B
:1020F000B8F4748288819981A8D88111AACFE88127
:10210000F98182A593A5A4A5B5A50196A11DB11D30
:1021100082A793A7A4A7B5A7FFEFCF1ADF0AE2CF44
:1021200082A593A5A4A5B5A58C199D09A109B109FE
:1021300082A793A7A4A7B5A78A869B86AC86BD86EF
:10214000B501A40188819981C3DB6E877F87888B65
:10215000998B1D830C8375E0EE0CFF1C7A95E1F7DB
:102160002EE2E20EF11C888199818E0D9F1D9B8BC2
:102170008A8B80E001C087E0DF91CF911F910F91A2
:10218000FF90EF90DF90CF90BF90AF909F908F9097
:102190007F9008956F927F928F929F92AF92BF929D
:1021A000CF92DF92EF92FF920F931F93CF93DF9323
:1021B000EC018B01DB018C918F3211F08C3511F425
:1021C0000F5F1F4F1E821F8218861986F8018081BB
:1021D000803238F460E070E0CE0167DC1B8A1A8A36
:1021E000E4C030E2A32E45E0B42E3801D8018C9132
:1021F0000F5F1F4F8F32C9F38C35B9F3EC89FD891E
:10220000CF019F01255F3F4F8217930721F0DC012B
:10221000AD92CD01F9CF430180E090E060E070E045
:1022200028E030E050E06F5F7F4FD4014D914D01C9
:10223000413218F14F3209F14C35F9F04E3209F4C0
:10224000AAC08217930708F091C047FF07C05360E8
:10225000042F10E00E5A1D4FD8014C91E42EF12CA2
:1022600003EC12E0D801CD908D01CC2009F480C0A0
:10227000D12CCE14DF04B1F779C08301060F171FEC
:10228000413210F444E001C040E0892B09F46EC0F3
:102290008081853E09F4B0822830310511F4550F54
:1022A000550F852F8370813009F44061852F8C7024
:1022B000843009F44860438760E070E0CE01F5DBCC
:1022C000811124C04E855F856889798988819981CB
:1022D00022D881111BC0EA89FB898081882399F06B
:1022E000838583FD0BC0AC89BD89CF010B96E817B0
:1022F000F90759F031912D913217C9F360E070E080
:10230000CE0147DEDDCF84E001C080E0EC89FD89AD
:102310009385882331F0843009F047C092FF24C0B0
:1023200044C092FD42C04A895B89FA01838584FFDB
:102330001BC0828D938DA0E0B0E028813981F90126
:102340002081233061F4FA014489558960E070E00E
:10235000BA0155274427842B952BA62BB72B8E83A8
:102360009F83A887B98741CF85E01FC086E01DC045
:102370001FEB140F1A3110F4526006C01FE9140F3E
:102380001A3110F4516040527F01E80EF91ED70156
:102390004C93019648CF2830310541F7550F550F22
:1023A00088E090E02BE030E03ECFDF91CF911F91AD
:1023B0000F91FF90EF90DF90CF90BF90AF909F90E4
:1023C0008F907F906F9008951F93CF93DF93EC01D0
:1023D00060E070E06ADB182F811117C04E855F85C1
:1023E00068897989888199810E948B09182F8111C8
:1023F0000CC0EA89FB898081853E59F0882349F029
:1024000061E070E0CE01C5DDE6CF143019F517E0CC
:1024100021C04E855F8568897989888199810E946C
:102420008B09182F811116C0EA89FB899F01205E54
:102430003F4FE217F30711F01192FBCF6C897D89B2
:102440004BE050E08A899B890E947D08E881F981F0
:1024500081E08483812FDF91CF911F9108958F9226
:102460009F92AF92BF92CF92DF92EF92FF920F9323
:102470001F93CF93DF93EC016A017B01423051053A
:102480006105710508F44FC04A895B896C897D89B3
:10249000C416D506E606F70608F045C04A895B89EA
:1024A0006C897D89C416D506E606F70658F4B7018F
:1024B000A601CE0136DA4B015C016115710581057B
:1024C000910511F480E030C081E088169104A104E8
:1024D000B10449F18FEF88169806A806B80609F1ED
:1024E00000E010E09801B701A601CE0183DB811165
:1024F0001BC04E855F85688979894F3F8FEF5807EC
:102500006807780759F04F5F5F4F6F4F7F4F4E87D7
:102510005F87688B798B8D8181608D837501640104
:10252000BDCF81E001C082E0DF91CF911F910F917B
:10253000FF90EF90DF90CF90BF90AF909F908F90E3
:102540000895CF93DF93CDB7DEB727970FB6F894F2
:10255000DEBF0FBECDBF9C838B837E836D837A836A
:102560006983CE0101964F830E94E8084F8197FD51
:1025700024C0880F991FFC01E853FA4F0190F081A5
:10258000E02D309709F01082EB81FC81309709F043
:1025900010822B813C81FC01E853FA4F3183208368
:1025A000232B69F0413059F440E0BE016B5F7F4F4F
:1025B000CE0103960E94030A03C08BE001C080E0B5
:1025C00027960FB6F894DEBF0FBECDBFDF91CF9137
:1025D00008954F925F926F927F929F92AF92BF92B7
:1025E000CF92DF92EF92FF920F931F93CF93DF93DF
:1025F000CDB7DEB7A4970FB6F894DEBF0FBECDBF40
:102600005C017CA36BA3F42E009709F4EFC0DC01FE
:102610001D921C924E71BE016D5D7F4FCE010196E1
:102620000E94030A8111E9C0CE0147969E8B8D8BD3
:102630006BA17CA14697AEDD0B891C89811104C07A
:102640000115110509F486E0BF2DBF719B2E9F2D4A
:102650009C7109F46DC0882369F0843019F4CE01AF
:102660000196B2DEE92DE8609E2E0B891C89882335
:1026700049F0C3C0D8011B968C91817109F0BCC090
:10268000F2FCB6C093FE5FC080E090E0A9E6B5E43E
:10269000F80186879787A08BB18B1386D801148E9B
:1026A000158E168E178EE981FA815A96CD90DC90A0
:1026B0005B97E12CF12C8081833069F454964D9125
:1026C0005C91559760E070E0BA0155274427C42A11
:1026D000D52AE62AF72AD8015B961C921E925A97B1
:1026E00055961C921E92549781E08483C114D104A4
:1026F000E104F10441F142A453A464A475A4B70118
:10270000A601CF01ACDE811178C089819A81B1E048
:10271000CB1AD108E108F108FC01C286D386E48611
:10272000F586B301A2010E948B09882361F065C080
:10273000811163C0D8011B968C9184FD5BC0F1FEB2
:1027400002C080FD59C093FE03C0B92DB0629B2E1C
:10275000E980FA80F70142A553A564A575A5D501C6
:102760005A964D935D936D937C935D975F961C9302
:102770000E935E9714969C92149715961C92F801EE
:10278000828D938DA0E0B0E0F7012081233061F4C9
:10279000F8014489558960E070E0BA015527442763
:1027A000842B952BA62BB72BF50186879787A08BBB
:1027B000B18BF801848D958DA68DB78DF50182873B
:1027C0009387A487B5871682178210861186168A8A
:1027D000178A108E118EF182E082D70116968D91A4
:1027E0009C9117979383828380E007C089E005C09E
:1027F00088E003C084E001C087E0A4960FB6F89497
:10280000DEBF0FBECDBFDF91CF911F910F91FF9023
:10281000EF90DF90CF90BF90AF909F907F906F90A0
:102820005F904F9008952F923F924F925F926F92D8
:102830007F928F929F92AF92BF92CF92DF92EF9250
:10284000FF920F931F93CF93DF93CDB7DEB72897F7
:102850000FB6F894DEBF0FBECDBF1C014D835E8363
:102860006F8378870E9407094D815E816F8178852B
:1028700081115EC1D10115968C911597811158C1B6
:102880001A96CD90DD90ED90FC901D97C416D5065C
:10289000E606F70618F06A017B0104C0F1018481A5
:1028A00081FDF9CFD10116964D905D906D907C9091
:1028B0001997F1011682178210861186C114D1046E
:1028C000E104F10421F4C12CD12C760104C1008172
:1028D0001181F8018280912CA12CB12C89E0880C07
:1028E000991CAA1CBB1C8A95D1F7411451046104A0
:1028F0007104D9F1F1E04F1A510861087108C7015C
:10290000B6016150710981099109A50194010E94E4
:10291000FE2529833A834B835C83C301B201A50161
:1029200094010E94FE2589819A81AB81BC81821726
:102930009307A407B507C8F088279927DC018819F1
:102940009909AA09BB0984219521A621B721F10182
:1029500086839783A087B187C81AD90AEA0AFB0A37
:1029600042895389648975892CC0D1011E964D9185
:102970005D916D917C9151974115510561057105EE
:10298000C9F440E050E0BA01C80126DAAB01BC014D
:10299000413051056105710509F462C04F3FFFEFF9
:1029A0005F076F077F0709F459C0F1014687578712
:1029B000608B718BD10152964D935D936D937C9397
:1029C0005597411551056105710509F47CCF2CC05F
:1029D000423051056105710508F442C0D101ED9105
:1029E000FC9182899389A489B589481759076A0798
:1029F0007B07B0F5D10152964D935D936D937C9317
:102A0000559716968D919D910D90BC91A02D880D96
:102A1000991DAA1DBB1DF10186839783A087B187ED
:102A2000C818D908EA08FB088C149D04AE04BF043A
:102A300010F5F10124818081918121FF15C0CCD94D
:102A4000AB01BC01411551056105710591F04F3F86
:102A5000FFEF5F076F077F0709F0BACF81E02CC057
:102A600082E0F101858364C00E94910CAB01BC013E
:102A7000EECF75016401F10186819781A085B18552
:102A80008C0D9D1DAE1DBF1D86839783A087B187CA
:102A9000D701C6019170AA27BB27892B8A2B8B2BC4
:102AA00009F411CF808191810E94680C6115710534
:102AB0008105910529F482E0D10115968C9338C0E7
:102AC000B9E0F694E794D794C794BA95D1F7C60EB7
:102AD000D71EE81EF91EF10186819781A085B18578
:102AE000AC01BD01517066277727452B462B472B3C
:102AF00069F046895789608D718DC416D506E60642
:102B0000F70621F0C68AD78AE08EF18EF101428560
:102B1000538564857585481759076A077B0738F41C
:102B200082879387A487B58784818062848380E0CD
:102B300028960FB6F894DEBF0FBECDBFDF91CF91C0
:102B40001F910F91FF90EF90DF90CF90BF90AF90CB
:102B50009F908F907F906F905F904F903F902F90BD
:102B60000895FF920F931F93CF93DF93CDB7DEB7F6
:102B7000A4970FB6F894DEBF0FBECDBF9CA38BA366
:102B80008B0140E0BE016D5D7F4FCE0101960E943A
:102B9000030AF82E81111AC0CE0147969E8B8D8BA9
:102BA0006BA17CA14697F6DAF82E81110FC02B8914
:102BB0003C89232B49F00115110541F0B801CE01E4
:102BC00001960E94A00802C026E0F22E8F2DA49646
:102BD0000FB6F894DEBF0FBECDBFDF91CF911F912E
:102BE0000F91FF900895BF92CF92DF92EF92FF92E4
:102BF0000F931F93CF93DF93EC01B62EC8A0DF8C09
:102C0000EE8CFD8C0BA11AA10E947A05C616D70680
:102C1000E806F90668F080910D01807F8560809359
:102C20000D0181E2809317011092180180E020C00D
:102C30009801B701A601CE01BB2011F05CD201C002
:102C4000C1D16801E12CF12C89E0CC0CDD1CEE1C1B
:102C5000FF1C8A95D1F74C895D896E897F894C1953
:102C60005D096E097F094C8B5D8B6E8B7F8B81E0DC
:102C7000DF91CF911F910F91FF90EF90DF90CF9058
:102C8000BF900895CF92DF92EF92FF920F931F9320
:102C9000CF93DF93CDB7DEB728970FB6F894DEBF9A
:102CA0000FBECDBF8C01FC01838D8D3109F4BAC0FC
:102CB00088F4823109F138F4882309F4F8C08330AC
:102CC00009F449C0FEC08A3109F4D6C08B3109F439
:102CD000F2C0F7C0883209F4C5C038F48E3109F467
:102CE000EAC0853209F463C0ECC08A3209F4B4C08A
:102CF0008F3209F4E0C0E5C0F801E78CF68C848DD2
:102D0000837009F093C0858D811190C06701F5E251
:102D1000EF16F10418F024E2C22ED12C40E050E06E
:102D2000B60182E593E00E94832060E070E0C70175
:102D30008C199D090E9446208091E8008E7780932F
:102D4000E800F80184899589A689B7898C199D09BD
:102D5000A109B10927C0F801C78CDC2CF2E1FC15F0
:102D600010F492E1D92EED2CF12C40E050E0B701A7
:102D70008BE091E00E9483208C2D90E060E070E079
:102D80008E199F090E9446208091E8008E778093DB
:102D9000E800F80184899589A689B7898D19910978
:102DA000A109B109848B958BA68BB78B94C0F3D105
:102DB000811108C080910D01807F826080930D0198
:102DC0008AE386C080E092E0A0E0B0E089839A8345
:102DD000AB83BC830E947A05615071098109910916
:102DE0006D837E838F83988740E050E064E070E0DD
:102DF000CE0105960E94CA2040E050E064E070E0F9
:102E0000CE0101960E94CA208091E8008E778093BF
:102E1000E800F80184899589A689B7890897A109EE
:102E2000B109C0CFF801848D82FD08C080910D01E9
:102E3000807F856080930D0184E24AC0ACD181110E
:102E40003AC080910D01807F846080930D011092C3
:102E50001701109218014AC09ED1882309F4AACF05
:102E600060E005C098D1882309F4A4CF61E0C801CF
:102E7000BADE8823D9F12FC01092F1001092F10030
:102E80001092F1001092F1008091E8008E7780930B
:102E9000E800F801448955896689778944505109C9
:102EA00061097109448B558B668B778B14C073D184
:102EB000882309F47FCFF801148A158A168A178AA5
:102EC0000AC080910D01807F856080930D0180E2B2
:102ED00080931701BECF80910D01807F80930D01FB
:102EE000109217011092180181E001C080E028962D
:102EF0000FB6F894DEBF0FBECDBFDF91CF911F910B
:102F00000F91FF90EF90DF90CF90089580E00E94A6
:102F10002D07811104C081E08093CA0508951092A5
:102F2000CA0508950F931F93CF93DF93EC018B0194
:102F30008091E80085FF36C08091F100FE01E00F2E
:102F4000F11F80838091F10081838091F100828361
:102F50008091F10083838091F10084838091F1005E
:102F600085838091F10086838091F1008783809131
:102F7000F10080878091F10081878091F100828744
:102F80008091F10083878091F10084878091F10026
:102F900085878091F10086878091F100878780E1A5
:102FA00090E00BC08091E8008B778093E8000E944E
:102FB000F522882309F280E090E0DF91CF911F9104
:102FC0000F910895AF92BF92CF92DF92EF92FF924E
:102FD0000F931F93CF93DF935C016A017B01E9019B
:102FE0000E94F52281112EC0209719F100E010E017
:102FF000B80180E097E096DF080F191F809144091F
:10300000843001F5F50180AD81111CC00115F2E09D
:103010001F0770F301E010E0A701960160E077E080
:103020000E941B088FEFC81AD80AE80AF80A2197ED
:10303000DBCF8091E80085FD05C08091E8008B77AB
:103040008093E800DF91CF911F910F91FF90EF9057
:10305000DF90CF90BF90AF9008950F931F93CF93C1
:10306000DF93EC018B018091E80085FF35C0FE0104
:10307000E00FF11F80818093F10081818093F10046
:1030800082818093F10083818093F1008481809319
:10309000F10085818093F10086818093F100878122
:1030A0008093F10080858093F10081858093F10009
:1030B00082858093F10083858093F10084858093DD
:1030C000F10085858093F10086858093F1008785E6
:1030D0008093F10080E10AC08091E8008E778093B0
:1030E000E8000E94F522882311F280E0DF91CF9161
:1030F0001F910F910895AF92BF92CF92DF92EF92FE
:10310000FF920F931F93CF93DF935C016A017B01C2
:10311000E9010E94F522811133C0209741F101E0BD
:1031200010E0A701960160E077E080E00E94D307FD
:1031300000E010E0B80180E097E08FDF080F111D7C
:10314000F50180AD81111CC080914409843021F0CB
:103150008AE08093FF0614C00115F2E01F0750F3C8
:103160008FEFC81AD80AE80AF80A2197D6CF8091BB
:10317000E80085FD05C08091E8008E778093E80027
:10318000DF91CF911F910F91FF90EF90DF90CF9043
:10319000BF90AF9008958091CA0508951F920F9235
:1031A0000FB60F9211242F938F939F93EF93FF935A
:1031B0008091C8009091CE008871E091CD05EF5FBD
:1031C000E7702091CC05E21739F0E093CD05F0E0EF
:1031D000E053FA4F908301C082E09091CB05982B89
:1031E0009093CB05FF91EF919F918F912F910F902D
:1031F0000FBE0F901F9018951F920F920FB60F924F
:1032000011248F939F93EF93FF939091CF0580911B
:10321000CE05981769F0E091CE05EF5FEF70E0936F
:10322000CE05F0E0E852FA4F80818093CE0005C0D1
:103230008091C9008F7D8093C900FF91EF919F918C
:103240008F910F900FBE0F901F9018951092CF0581
:103250001092CE051092CD051092CC0597FF04C0B8
:1032600022E02093C8009F779093CD008093CC00FC
:1032700088E98093C90086E08093CA000895909100
:10328000CD058091CC05981781F0E091CC05EF5FDA
:10329000E770E093CC05F0E0E053FA4F8081909125
:1032A000CB051092CB0590E0089580E091E0089561
:1032B0001092CD051092CC0508959091CF059F5F97
:1032C0009F702091CE059217E1F3E92FF0E0E852CC
:1032D000FA4F80839093CF058091C90080628093DC
:1032E000C90008951F920F920FB60F9211248F9369
:1032F0009F938091350690913606019690933606FD
:10330000809335069F918F910F900FBE0F901F9065
:10331000189508950895089508958DE191E070D469
:103320008DE291E07FD5E2EEF0E0808184608083E1
:1033300008958DE291E037D58DE191E02DC3809124
:103340002B0190912C01009729F0019790932C016B
:1033500080932B01089596CC0F931F93F901A091B0
:103360003706B091380612968C918283882321F01B
:103370008091F205808301C01082E0913706F091C0
:10338000380612821092F20588E090E0F8019183ED
:10339000808380E01F910F91089508957C9903C068
:1033A0002E9885E003C07E9904C084E08093FF06D8
:1033B000089581E08093FF068F9A089584B7877FF0
:1033C00084BF88E10FB6F89480936000109260008B
:1033D0000FBE85B7806885BF85B7806885BF85B714
:1033E000806885BF85B7806885BF90E080E80FB6AC
:1033F000F89480936100909361000FBE0E94720464
:103400000E9486042FE788E391E02150804090409D
:10341000E1F700C0000086E092E00E94C82891E039
:10342000811101C090E090933A0687E092E00E94FB
:10343000C82891E0811101C090E09093F00588E0E8
:1034400092E00E94C82891E0811101C090E0909321
:10345000BC0689E092E00E94C82891E0811101C079
:1034600090E09093BE069ADF8091FF06823031F0A3
:103470008091FF06833011F00C9465230895CF935B
:10348000DF931F92CDB7DEB71092FF0697DF47D2CA
:103490003DDD84DF789411E00AE08091FF068430FE
:1034A00009F43AC06CF48130B9F0823009F088C078
:1034B0008091E00081608093E0000E942405EDCFC0
:1034C000893009F448C08A3009F463C0853009F0B6
:1034D00077C00E94F901E1CF0E9417054698E0915C
:1034E0003706F0913806828181110FC0F8D1182F6C
:1034F0000FD1682F112349F0812F6983D3D06981BF
:1035000080E061D060E088E25ED08DE291E0A7D4F7
:103510008DE191E088D3E3CFF9D129B189B199B197
:1035200033B186FB882780F98127229521702127D6
:10353000820F9095991F9927991F890F34FB99271E
:1035400090F99127890F80FF03C0469A2E98A5CF46
:1035500046982E9AA2CF8091E00081608093E0008F
:1035600083E390E073DE0E946F017D99FECF60E0FF
:1035700084E00E94ED002FEF84E39CE02150804026
:103580009040E1F700C0000060E08DE10E94ED0096
:10359000ECCF2E9A4698EFEFF1EE24E0E150F040A8
:1035A0002040E1F700C00000469A2E988FEF91EE80
:1035B000E4E081509040E040E1F700C00000E9CF36
:1035C0000093FF066ACF1092360610923506E091FE
:1035D0003706F0913806928191110DC08283609375
:1035E000F2052FEF80E792E0215080409040E1F714
:1035F00000C0000008952091350630913606243130
:1036000031054CF3EBCFCF92DF92EF92FF920F9305
:103610001F93CF93DF931F92CDB7DEB78C01FC01D0
:1036200001900020E9F7CF0101976C01C01AD10A7F
:10363000780120E0C701801B910B8C159D0544F596
:10364000F70181917F018D3091F08E3299F08132B6
:10365000A1F08033B1F03FEC380F90E0393010F436
:10366000439711C00E94B126CD9722E00CC088E29A
:1036700090E009C087E390E006C022E08EE190E090
:1036800002C087E290E0622F29839DDF2981D2CF9B
:103690000F90DF91CF911F910F91FF90EF90DF90EE
:1036A000CF900895CF93282F6AE00E94DF25C92F7D
:1036B000822F90E08C1B910964E670E00E94EB255C
:1036C0006AE070E00E94EB25862F60E0882311F00D
:1036D000835E01C087E277DF2FEF80E792E0215021
:1036E00080409040E1F700C0000060E0CC2319F07A
:1036F0008DE18C0F01C087E266DF2FEF80E792E05B
:10370000215080409040E1F700C00000CF91089523
:1037100080913406823099F040F48130F9F429B177
:10372000207130E080913A0615C0833071F084300A
:10373000A9F423B1207130E08091BE060BC029B1FD
:10374000207430E08091F00505C029B1207830E088
:103750008091BC0690E02817390711F080E001C085
:1037600082E07C9B81607D9B84607E9B8860089565
:103770005F926F927F928F929F92AF92BF92CF9201
:10378000DF92EF92FF920F931F93CF93DF93729A82
:103790008FEC97E00197F1F700C0000072988FEC72
:1037A00097E00197F1F700C00000E0E0F0E0512C55
:1037B000612C712C10E0D0E0C0E0B0E0A0E01D99D9
:1037C00013C021E030E040E050E060E070E080E0D5
:1037D00090E00E2F0E943226522A632A742A152B5B
:1037E000D62BC72BB82BA92BF894729A9AE19A95ED
:1037F000F1F700C0729878948AE68A95F1F700C0D4
:103800003196E033F105D9F68091BD068823E9F0C1
:10381000252D362D472D512F6D2F7C2F8B2F9A2F35
:103820000CE20E944D26490191E089229924809161
:10383000390690E08816990641F0512C612C712CC4
:1038400010E0D0E0C0E0B0E0A0E0409134064130AC
:1038500061F029B1207130E080913A0690E028179C
:10386000390709F4A068423061F029B1207430E0D2
:103870008091F00590E02817390709F4A0644330DF
:1038800061F029B1207830E08091BC0690E02817E3
:10389000390709F4A062443051F083B1807190E09F
:1038A000E091BE06F0E08E179F0709F4A061252D78
:1038B000362D472D512F6D2F7C2F8B2F9A2FDF9177
:1038C000CF911F910F91FF90EF90DF90CF90BF901D
:1038D000AF909F908F907F906F905F900895FF9230
:1038E0000F931F93CF93DF9343DFE72FEF7E7E2F5E
:1038F000A0E00E94692619F00E942A2601C080E0FB
:10390000DF91CF911F910F91FF9008950F9330DFBA
:103910000CE20E944D26822F81700F910895CF9363
:10392000DF938FEF93E00E94C828873491F1C0E0C5
:10393000D0E060E0CE010E94D5282196C13581E01B
:10394000D807B9F7C0E0D2E060E0CE010E94D528E8
:103950002196C03182E0D807B9F76AE080E092E0B2
:103960000E94D5286AE081E092E00E94D5286AE0B2
:1039700082E092E00E94D52860E070E08AE092E068
:103980000E94FE2867E48FEF93E0DF91CF910C94C3
:10399000F028DF91CF9108956F927F928F929F923E
:1039A000AF92BF92CF92DF92EF92FF920F931F934D
:1039B000CF93DF9300D01F92CDB7DEB77C01ADB6B9
:1039C000BEB68091E80083FF04C1F701808190E0DA
:1039D0002091490930914A092817390709F0F9C09F
:1039E00080914609833009F49BC030F4813071F036
:1039F000823009F4D2C0EDC08A3009F4B6C08B30F1
:103A000009F49FC0893009F0E4C04DC08091450998
:103A1000813A09F0DEC08DB69EB61A821982809175
:103A20004709109148098B83F701408550E08DB715
:103A30009EB7841B950B0FB6F8949EBF0FBE8DBF2B
:103A4000EDB7FEB731966F0160E070E0CF010E94E4
:103A5000CF264FEF410F8E010F5F1F4F9601BE0122
:103A60006D5F7F4FC70178DCF701868197810097F2
:103A700029F0408550E0B6010E94C6261092E90068
:103A80008091E800877F8093E8008B81811180938B
:103A9000F10069817A81C60112D48091E8008B77A8
:103AA0008093E80037C080914509813209F091C0C8
:103AB0008DB69EB600914B0910914C097090470944
:103AC000609048098DB79EB7801B910B0FB6F89494
:103AD0009EBF0FBE8DBFEDB7FEB731966F018091CF
:103AE000E800877F8093E800B801CF0149D4809136
:103AF000E8008E778093E80021E0711001C020E09B
:103B000030E0021B130B2C0D3D1D4FEF460D672DB2
:103B1000C70143DC0FB6F8949EBE0FBE8DBE59C0E0
:103B200080914509813A09F054C08091E800877F6F
:103B30008093E8008091E80080FFFCCFF701818549
:103B400040C080914509813209F043C08091E8006E
:103B5000877F8093E80028D59091470981E09111F3
:103B600001C080E0F701818734C08091450981322E
:103B700081F58091E800877F8093E80015D58091DA
:103B8000470990914809882736E0969587953A9598
:103B9000E1F7F701958784871CC080914509813A38
:103BA000C1F48091E800877F8093E8008091E8006D
:103BB00080FFFCCFF701848595859695879596952E
:103BC00087958093F1008091E8008E778093E800DC
:103BD000EBD40FB6F894BEBE0FBEADBE0F900F90E3
:103BE0000F90DF91CF911F910F91FF90EF90DF9099
:103BF000CF90BF90AF909F908F907F906F900895DF
:103C0000FC01399627E0DF011D922A95E9F721E0B2
:103C1000FC01218724EF31E03587248723E02483CA
:103C200061E0019684C45F926F927F928F929F921F
:103C3000AF92BF92CF92DF92EF92FF920F931F93BA
:103C4000CF93DF9300D01F92CDB7DEB77C01ADB626
:103C5000BEB680914409843009F08DC08091E400A3
:103C60009091E500F701228533852817390709F47B
:103C700082C081818F708093E9008091E80085FF88
:103C80007AC08DB69EB6408550E08DB79EB7841B36
:103C9000950B0FB6F8949EBF0FBE8DBFEDB7FEB764
:103CA00031966F011B821A82198260E070E0CF01A9
:103CB0000E94CF268E010F5F1F4F960140E0BE018C
:103CC0006D5F7F4FC70148DB682EF70184859585BE
:103CD000892B41F021E086859785892B09F020E02A
:103CE000722E01C0712CF701068117810115110593
:103CF00099F049815A81B801C6010E94B92655241C
:103D00005394892B09F4512CF701408550E0B601FA
:103D1000C8010E94C62601C0512C29813A81232B5B
:103D2000F1F0611004C0511002C070FE18C0F7011C
:103D3000848595859787868781818F708093E90038
:103D40008B8181118093F10069817A8140E050E09C
:103D5000C601D9D18091E8008E778093E8008091E8
:103D6000E4009091E500F701938782870FB6F894FD
:103D70009EBE0FBE8DBE0FB6F894BEBE0FBEADBECA
:103D80000F900F900F90DF91CF911F910F91FF90A7
:103D9000EF90DF90CF90BF90AF909F908F907F90EB
:103DA0006F905F900895CF93DF93EC018091E800CE
:103DB00083FF35C0888190E02091490930914A09FC
:103DC0002817390761F5809146098E3F79F08F3FBA
:103DD00031F580914509813211F58091E800877FA6
:103DE0008093E800E1D381E088AF19C08091450954
:103DF000813AA9F48091E800877F8093E800809160
:103E0000E80080FFFCCF8B8581508093F10080918A
:103E1000E8008E778093E800DF91CF91C5C3DF91F2
:103E2000CF910895CF93DF93EC01FC013C968DE296
:103E3000DF011D928A95E9F782E08C83898761E032
:103E4000CE01019674D3882331F061E0CE0106964D
:103E5000DF91CF916CC380E0DF91CF910895EF9215
:103E6000FF920F931F93CF93DF9300D0CDB7DEB7B0
:103E70008C0180914409843009F0FFC0F8018681EB
:103E80008F708093E9008091E80082FFBCC086813A
:103E90008F708093E9001A8219827801FCE0EF0E9E
:103EA000F11CAE014F5F5F4F6FE070E0C701C0D102
:103EB000F801853021F480AD882399F3A4C084856E
:103EC0009585A685B78585359345A244B34461F4AD
:103ED000F801918D8385981738F4808D8F7121F4C6
:103EE000828D8150803180F08091EB0080628093E0
:103EF000EB00F80181818F708093E9008091EB00E5
:103F000080628093EB007FC01A8219827801FBE106
:103F1000EF0EF11CF801628D70E0AE014F5F5F4F54
:103F2000C70186D1853029F4F80180AD882391F34B
:103F30006AC08091E8008B778093E800F801808D5B
:103F400087FF04C081818F708093E900C80103DA84
:103F500091E09827F80197AB45E553E562E473E5F6
:103F600043A754A765A776A74089518962897389B9
:103F700047A750AB61AB72AB448955896689778995
:103F800043AB54AB65AB76AB811109C0452B462BD7
:103F9000472B29F08091EB0080628093EB00F801C1
:103FA00086818F708093E9008091EB00F80185FF96
:103FB00004C080AD8823C1F326C081818F708093B7
:103FC000E9008091EB0085FF05C0F80180AD8823F2
:103FD000C1F319C01A8219827801FBE2EF0EF11CBD
:103FE000AE014F5F5F4F6DE070E0C7018CD0853050
:103FF00029F4F80180AD882399F305C08091E80089
:104000008E778093E800F80180AD8823B1F1268196
:104010002F7081E090E0AC0102C0440F551F2A953B
:10402000E2F74093EA001092EA0021812F70022EFD
:1040300001C0880F0A94EAF78093EA001092EA0020
:1040400086818F708093E9008091EB00806180937E
:10405000EB008091EB0088608093EB0081818F7092
:104060008093E9008091EB0080618093EB00809168
:10407000EB0088608093EB0010AE0F900F90DF9103
:10408000CF911F910F91FF90EF900895EF92FF92C3
:104090000F931F93CF93DF938C01EB01A6D2811175
:1040A0002BC0209721F088819981081B190BE12CE6
:1040B000F12C01151105F9F08091E80085FD13C080
:1040C0008091E8008E778093E800209741F0888106
:1040D00099818E0D9F1D9983888385E00DC085D2BF
:1040E000882339F309C01092F100015011098FEFB4
:1040F000E81AF80ADECF80E0DF91CF911F910F918F
:10410000FF90EF900895CF92DF92EF92FF920F937E
:104110001F93CF93DF937C018B01EA0166D281115B
:1041200030C0209731F088819981081B190BE80E67
:10413000F91EC12CD12C0115110511F18091E80057
:1041400085FD13C08091E8008E778093E80020976A
:1041500041F0888199818C0D9D1D9983888385E02C
:1041600010C043D2882339F30CC0F70181917F013D
:104170008093F10001501109FFEFCF1ADF0ADBCF66
:1041800080E0DF91CF911F910F91FF90EF90DF9032
:10419000CF900895CF92DF92EF92FF920F931F93EB
:1041A000CF93DF936C018B017A011FD2811137C04D
:1041B000E8012197CC0DDD1DE114F10439F0F70180
:1041C00080819181081B190BC81BD90BC12CD12CE4
:1041D0000115110519F18091E80085FD15C0809148
:1041E000E8008E778093E800E114F10449F0F701CC
:1041F000808191818C0D9D1D9183808385E00FC00E
:10420000F4D1882329F30BC088818093F100219792
:1042100001501109FFEFCF1ADF0ADACF80E0DF91FA
:10422000CF911F910F91FF90EF90DF90CF90089565
:10423000CF92DF92EF92FF920F931F93CF93DF9372
:104240007C018B01EA01D1D1811130C0209731F07E
:1042500088819981081B190BE80EF91EC12CD12CFD
:104260000115110511F18091E80085FD13C08091C1
:10427000E8008B778093E800209741F0888199814E
:104280008C0D9D1D9983888385E010C0AED1882355
:1042900039F30CC08091F100F70181937F01015047
:1042A0001109FFEFCF1ADF0ADBCF80E0DF91CF915A
:1042B0001F910F91FF90EF90DF90CF900895209184
:1042C0004B0930914C092617370748F061157105E5
:1042D00039F42091E8002E772093E80001C0B9015D
:1042E000FC0120E061157105B9F180914409882332
:1042F00009F440C0853009F43FC08091E80083FD97
:104300003DC08091E80082FF06C08091E80082FFF6
:1043100026C080E008958091E80080FFE3CF2091DF
:10432000F3008091F20090E0922B6115710551F03D
:104330008830910538F421912093F1006150710982
:104340000196F3CF21E0089709F020E08091E80082
:104350008E778093E800C6CF2111C7CFD6CF80914A
:104360004409882339F0853039F08091E80083FFD3
:10437000CCCF04C082E0089583E0089581E00895E1
:104380006115710529F42091E8002B772093E8004E
:104390006115710541F120914409222369F125300D
:1043A00069F12091E80023FD23C02091E80022FF5D
:1043B000F2CFFC01CF014091F3002091F20030E0F8
:1043C000342B232B01F38091F1008193CF016150B5
:1043D00071096115710571F7D6CF80914409882361
:1043E00059F0853059F08091E80080FFF6CF02C087
:1043F00081E0089580E0089582E0089583E00895C3
:1044000020914B0930914C092617370748F0611568
:10441000710539F42091E8002E772093E80001C05F
:10442000B901FC0120E061157105C1F180914409D9
:10443000882309F441C0853009F440C08091E80028
:1044400083FD3EC08091E80082FF06C08091E800B5
:1044500082FF27C080E008958091E80080FFE3CFCD
:104460002091F3008091F20090E0922B611571058C
:1044700059F08830910540F424912093F100319651
:10448000615071090196F2CF21E0089709F020E010
:104490008091E8008E778093E800C5CF2111C6CFC8
:1044A000D5CF80914409882339F0853039F0809147
:1044B000E80083FFCBCF04C082E0089583E0089535
:1044C00081E00895982F973058F59093E900981758
:1044D00039F07091EC002091ED005091F00003C094
:1044E000242F762F50E021FF19C03091EB003E7F42
:1044F0003093EB003091ED003D7F3093ED00309133
:10450000EB0031603093EB007093EC002093ED00F2
:104510005093F0002091EE0027FF07C09F5FD3CF9C
:104520008F708093E90081E0089580E008950F93F3
:104530001F93CF93DF93062FEC0110E0101771F15A
:104540009881992341F12C81E981FA817B81892F1E
:104550008F70873010F080E022C0223010F056E0DB
:1045600001C052E028E030E040E02E173F0720F481
:104570004F5F220F331FF9CF4295407F452B692FA4
:10458000661F6627661F90E4799F90011124622BB5
:1045900099DF882301F31F5F2596D0CF81E0DF915B
:1045A000CF911F910F9108958091450987FD05C016
:1045B0008091E80080FF0EC012C08091E80082FD6B
:1045C00005C0809144098111F8CF08958091E800D9
:1045D0008B7708C0809144098111EACF08958091BA
:1045E000E8008E778093E80008958091E400909130
:1045F000E50045E62091EC0020FF21C02091E80075
:1046000020FD21C020914409222389F0253089F022
:104610002091EB0025FD0FC02091E4003091E500D2
:104620002817390739F3415041F0C901E3CF82E03F
:10463000089583E0089581E0089584E0089520912D
:10464000E80022FFDFCF80E008950F931F93CF9300
:10465000DF934BD052D0C8EDD0E088818F7788832C
:1046600088818068888388818F7D888319BC1092B7
:10467000440910924009109242091092410900EE3B
:1046800010E0F80180818B7F80838881816088833E
:1046900042E060E080E016DFE1EEF0E080818E7FB6
:1046A0008083E2EEF0E08081816080838081886099
:1046B0008083F80180818E7F8083888180618883F8
:1046C000DF91CF911F910F910895E8EDF0E0808187
:1046D0008F7E8083E7EDF0E080818160808384E0DD
:1046E00082BF81E080934309B0CFE8EDF0E08081A4
:1046F0008E7F80831092E20008951092DA0010926B
:10470000E10008951F920F920FB60F9211242F937C
:104710003F934F935F936F937F938F939F93AF9349
:10472000BF93EF93FF938091E10082FF0BC08091D4
:10473000E20082FF07C08091E1008B7F8093E1005F
:104740000E949F198091DA0080FF1DC08091D800DF
:1047500080FF19C08091DA008E7F8093DA0080910B
:10476000D90019BC80FF0BC082E089BD09B400FEEE
:10477000FDCF81E0809344090E94891904C0109202
:1047800044090E948A198091E10080FF19C080913C
:10479000E20080FF15C08091E2008E7F8093E200EE
:1047A0008091E20080618093E2008091D800806275
:1047B0008093D80019BC85E0809344090E948B192E
:1047C0008091E10084FF2FC08091E20084FF2BC024
:1047D00019BC82E089BD09B400FEFDCF8091D800EC
:1047E0008F7D8093D8008091E1008F7E8093E100DF
:1047F0008091E2008F7E8093E2008091E2008160F0
:104800008093E20080914009882311F084E007C082
:104810008091E30087FF02C083E001C081E08093C4
:1048200044090E948C198091E10083FF27C0809188
:10483000E20083FF23C08091E100877F8093E10045
:1048400082E080934409109240098091E1008E7FBC
:104850008093E1008091E2008E7F8093E20080915E
:10486000E20080618093E20042E060E080E02ADEC6
:104870008091F00088608093F000A0D1FF91EF91CB
:10488000BF91AF919F918F917F916F915F914F9168
:104890003F912F910F900FBE0F901F9018951F9270
:1048A0000F920FB60F9211242F933F934F935F9364
:1048B0006F937F938F939F93AF93BF93CF93EF9318
:1048C000FF93C091E900CF708091EC001092E90055
:1048D0008091F000877F8093F00078941BD0109235
:1048E000E9008091F00088608093F000C093E900B7
:1048F000FF91EF91CF91BF91AF919F918F917F9158
:104900006F915F914F913F912F910F900FBE0F903C
:104910001F9018951F93CF93DF93CDB7DEB7AA975B
:104920000FB6F894DEBF0FBECDBFE5E4F9E080918D
:10493000F100819329E0ED34F207C9F70E9499193B
:104940008091E80083FF22C190914509809146093A
:10495000853009F477C030F4813081F168F083301C
:1049600069F114C1883009F4E2C0893009F4F1C05A
:10497000863009F00BC188C0903881F0923809F078
:1049800005C1809149098F708093E9008091EB0007
:1049900085FB882780F91092E90006C080914109C3
:1049A00090914209911182609091E800977F9093D5
:1049B000E8008093F1001092F100C4C0292F2D7FF0
:1049C00009F0E4C0992319F0923061F0DFC09091B2
:1049D0004709913009F0DAC0833009F090E09093F4
:1049E00042092AC090914709911126C02091490996
:1049F0002F7009F4CBC02093E9009091EB0090FF59
:104A00001BC0833021F48091EB00806213C0809141
:104A1000EB0080618093EB0081E090E0022E01C00A
:104A2000880F0A94EAF78093EA001092EA008091D6
:104A3000EB0088608093EB001092E9008091E80021
:104A4000877F83C09111A2C0109147091F77809181
:104A5000E3008078812B8093E3008091E800877FDA
:104A60008093E800A1DD8091E80080FFFCCF809179
:104A7000E30080688093E300112311F083E001C01C
:104A800082E08093440982C09058923008F07EC042
:104A900080914709909148098C3D23E0920771F578
:104AA00083E08A838AE289834FB7F894DE01139604
:104AB00020E03EE051E2E32FF0E050935700E49114
:104AC00020FF03C0E295EF703F5FEF708E2F90E004
:104AD000EA3010F0C79601C0C0968D939D932F5F6A
:104AE000243149F74FBF8091E800877F8093E80029
:104AF0006AE270E0CE010196E2DB13C0AE014F5FC7
:104B00005F4F609149090E94B104009709F43EC0CB
:104B10002091E800277F2093E800BC0189819A81D9
:104B20006FDC8091E8008B778093E8002FC090388D
:104B300069F58091E800877F8093E80080914009C3
:104B40008093F1008091E8008E778093E8002CDD5F
:104B50001DC091111BC0909147099230B8F480910B
:104B6000E800877F8093E800909340091DDD8091E5
:104B70004009811104C08091E30087FF02C084E0F6
:104B800001C081E0809344090E948D198091E80062
:104B900083FF0AC08091E800877F8093E8008091BE
:104BA000EB0080628093EB00AA960FB6F894DEBF0C
:104BB0000FBECDBFDF91CF911F9108950895991B2E
:104BC00079E004C0991F961708F0961B881F7A9504
:104BD000C9F78095089597FB072E16F4009406D028
:104BE00077FD08D082D007FC05D03EF490958195E2
:104BF0009F4F0895709561957F4F0895A1E21A2EF9
:104C0000AA1BBB1BFD010DC0AA1FBB1FEE1FFF1F70
:104C1000A217B307E407F50720F0A21BB30BE40BC0
:104C2000F50B661F771F881F991F1A9469F7609507
:104C30007095809590959B01AC01BD01CF010895C1
:104C400081D0A59F900DB49F900DA49F800D911DC4
:104C5000112408955ED085FF0895B901CA0159D085
:104C6000805E08950F93083090F0982F872F762F4D
:104C7000652F542F432F322F22270850F4CF220FB5
:104C8000331F441F551F661F771F881F991F0A95E2
:104C9000B2F70F91089597FB10F8169400080F9340
:104CA000083098F00850232F342F452F562F672FA8
:104CB000782F892F902DF4CF059497958795779528
:104CC000679557954795379527950A95AAF70F91B8
:104CD00008950024A7FD00942A17300540055005CB
:104CE00060057005800590050895AA1BBB1B51E166
:104CF00007C0AA1FBB1FA617B70710F0A61BB70B4C
:104D0000881F991F5A95A9F780959095BC01CD01F0
:104D1000089506D084FF0895CB0102D0805F0895E6
:104D2000AA27992329F4A85F982B11F480E108950C
:104D3000903118F4AD5F9295A395990FE8F78A2FFB
:104D400099270895A29FB001B39FC001A39F700D42
:104D5000811D1124911DB29F700D811D1124911D83
:104D600008959111089581568A5108F4805285580A
:104D70000895FB01DC0104C08D910190801921F49C
:104D800041505040C8F7881B990B0895FB01DC0186
:104D900002C001900D9241505040D8F70895DC01B7
:104DA00001C06D9341505040E0F70895AEE0B0E08F
:104DB000EBEDF6E2DAC20D891E8986E08C831A8358
:104DC00009838FEF9FE79E838D83AE01475E5F4F20
:104DD0006F89788DCE01019608D0EF81F885E00FBC
:104DE000F11F10822E96E4E0DCC2ACE0B0E0EAEF06
:104DF000F6E2ADC27C016B018A01FC0117821682CA
:104E0000838181FFB0C1CE0101964C01F7019381EE
:104E1000F60193FD859193FF81916F01882309F439
:104E20009EC1853239F493FD859193FF81916F0185
:104E3000853221F4B70190E0FAD1E8CF512C312C22
:104E400020E02032A0F48B3269F030F4803259F047
:104E5000833269F420612CC08D3239F0803339F40B
:104E6000216026C02260246023C0286021C027FD65
:104E700027C030ED380F3A3078F426FF06C0FAE04C
:104E80005F9E300D1124532E13C08AE0389E300DE2
:104E90001124332E20620CC08E3221F426FD5FC116
:104EA000206406C08C3611F4206802C0883641F4B4
:104EB000F60193FD859193FF81916F018111C1CF1F
:104EC000982F9F7D9554933028F40C5F1F4FFFE37C
:104ED000F9830DC0833631F0833771F0833509F0E3
:104EE00057C021C0F801808189830E5F1F4F442481
:104EF0004394512C540114C03801F2E06F0E711C20
:104F0000F801A080B18026FF03C0652D70E002C0CB
:104F10006FEF7FEFC5012C877FD12C0183012C859A
:104F20002F77222E16C03801F2E06F0E711CF801A7
:104F3000A080B18026FF03C0652D70E002C06FEF36
:104F40007FEFC5012C875DD12C012C852068222E96
:104F5000830123FC19C0832D90E048165906A0F464
:104F6000B70180E290E063D13A94F5CFF50127FCD8
:104F7000859127FE81915F01B70190E058D13110F2
:104F80003A94F1E04F1A51084114510479F7DEC008
:104F9000843611F0893631F5F80127FF07C06081AA
:104FA0007181828193810C5F1F4F08C06081718184
:104FB000882777FD8095982F0E5F1F4F2F76B22E92
:104FC00097FF09C090958095709561957F4F8F4FA1
:104FD0009F4F2068B22E2AE030E0A4015AD1A82EBB
:104FE000A81843C0853729F42F7EB22E2AE030E07E
:104FF00025C0F22FF97FBF2E8F36C1F018F4883507
:1050000079F0ADC0803719F0883721F0A8C02F2F74
:105010002061B22EB4FE0DC08B2D8460B82E09C065
:1050200024FF0AC09F2F9660B92E06C028E030E00A
:1050300005C020E130E002C020E132E0F801B7FE17
:1050400007C060817181828193810C5F1F4F06C010
:105050006081718180E090E00E5F1F4FA40119D143
:10506000A82EA818FB2DFF77BF2EB6FE0BC02B2D48
:105070002E7FA51450F4B4FE0AC0B2FC08C02B2D3C
:105080002E7E05C07A2C2B2D03C07A2C01C0752CE6
:1050900024FF0DC0FE01EA0DF11D8081803311F463
:1050A000297E09C022FF06C07394739404C0822F26
:1050B000867809F0739423FD12C020FF06C05A2C95
:1050C000731418F4530C5718732C731460F4B7014D
:1050D00080E290E02C87ABD073942C85F6CF7314CC
:1050E00010F4371801C0312C24FF11C0B70180E340
:1050F00090E02C879CD02C8522FF16C021FF03C096
:1051000088E590E002C088E790E0B7010CC0822FEC
:10511000867851F021FD02C080E201C08BE227FDBC
:105120008DE2B70190E083D0A51430F4B70180E39D
:1051300090E07DD05A94F8CFAA94F401EA0DF11DC5
:105140008081B70190E073D0A110F6CF332009F42D
:105150005DCEB70180E290E06AD03A94F7CFF701D4
:105160008681978102C08FEF9FEF2C96E2E10BC101
:10517000DC01CB01FC01F999FECF06C0F2BDE1BD17
:10518000F89A319600B40D9241505040B8F7089506
:10519000F999FECF92BD81BDF89A992780B50895FF
:1051A000A8E1B0E042E050E0E5CF262FF999FECF2C
:1051B00092BD81BDF89A019700B4021639F01FBA6A
:1051C00020BD0FB6F894FA9AF99A0FBE0895DC0143
:1051D000CB0102C02D9105D041505040D8F7089521
:1051E000262FF999FECF1FBA92BD81BD20BD0FB603
:1051F000F894FA9AF99A0FBE01960895F1DF272FD5
:10520000F0CFFC010590615070400110D8F78095F7
:1052100090958E0F9F1F0895FC0161507040019082
:105220000110D8F7809590958E0F9F1F08950F93CA
:105230001F93CF93DF93182F092FEB018B8181FDF3
:1052400003C08FEF9FEF20C082FF10C04E815F81AF
:105250002C813D81421753077CF4E881F9819F013D
:105260002F5F3F4F39832883108306C0E885F98577
:10527000812F0995892B29F72E813F812F5F3F4F81
:105280003F832E83812F902FDF91CF911F910F911C
:105290000895FA01AA27283051F1203181F1E894CC
:1052A0006F936E7F6E5F7F4F8F4F9F4FAF4FB1E019
:1052B0003ED0B4E03CD0670F781F891F9A1FA11D14
:1052C000680F791F8A1F911DA11D6A0F711D811D15
:1052D000911DA11D20D009F468943F912AE0269FDA
:1052E00011243019305D3193DEF6CF010895462F39
:1052F0004770405D4193B3E00FD0C9F7F6CF462F1A
:105300004F70405D4A3318F0495D31FD4052419382
:1053100002D0A9F7EACFB4E0A6959795879577953F
:105320006795BA95C9F700976105710508959B01C6
:10533000AC010A2E06945795479537952795BA954F
:10534000C9F7620F731F841F951FA01D08952F9228
:105350003F924F925F926F927F928F929F92AF9205
:10536000BF92CF92DF92EF92FF920F931F93CF9352
:10537000DF93CDB7DEB7CA1BDB0B0FB6F894DEBFE9
:105380000FBECDBF09942A88398848885F846E840F
:105390007D848C849B84AA84B984C884DF80EE8059
:1053A000FD800C811B81AA81B981CE0FD11D0FB662
:1053B000F894DEBF0FBECDBFED010895F894FFCF86
:1053C000504147452030303031000170000000006E
:1053D00000000A0000000000000000000001810839
:1053E000000001E805080000000000000000834004
:1053F0000000010440000001010000000000000066
:10540000000000000000000000000000000000009C
:10541000000000000000000000000000000000008C
:1054200000000000000053462C310053432C303064
:1054300030300053442C303534300053482C303356
:10544000303100534D2C30340053502C3132333432
:105450000053532C55534220547970657772697408
:1054600065720053572C3830353000537E2C36008F
:10547000532D2C55534220547970657772697465A9
:105480007200534849465400464E0055534220543A
:105490005950455752495445522000544D004649F1
:1054A000524D574152452056455220352E300D0061
:1054B00043414C4942524154494E472E2E2E0D0035
:1054C0004649524D4C5920505245535320414E5954
:1054D000204B455920544F2043414C49425241549E
:1054E000452048414C4C20454646454354205345B1
:1054F0004E534F522E2E2E0D004E4F2048414C4CF5
:10550000204546464543542053454E534F52204470
:1055100045544543544544210D004F4B210D005443
:105520005950452054484520464F4C4C4F57494E02
:1055300047204B4559532E2E2E0D005350414345C5
:10554000424152004241434B535041434500544174
:10555000420045534300454E544552002921222321
:1055600024255F2A2830313233343536373839270D
:105570001E1F202122232425265041474520253067
:10558000346400222A2B2C3A3B3C3D3E3F5B5D7C41
:105590007F00809A90418E418F8045454549494919
:1055A0008E8F9092924F994F555559999A9B9C9DE9
:1055B0009E9F41494F55A5A5A6A7A8A9AAABAC2176
:1055C000AEAFB0B1B2B3B4B5B6B7B8B9BABBBCBD83
:1055D000BEBFC0C1C2C3C4C5C6C7C8C9CACBCCCD73
:1055E000CECFD0D1D2D3D4D5D6D7D8D9DADBDCDD63
:1055F000DEDFE0E1E2E3E4E5E6E7E8E9EAEBECED53
:10560000EEEFF0F1F2F3F4F5F6F7F8F9FAFBFCFD42
:10561000FEFF008000021F0000004C5546410000C4
:10562000000044617461666C617368204469736B47
:065630000000302E3030B6
:00000001FF
