:10000000B2C00000CCC00000CAC00000C8C00000E0
:10001000C6C00000C4C00000C2C00000C0C00000D4
:10002000BEC00000BCC000000C94C809B8C00000ED
:10003000B6C00000B4C00000B2C00000B0C00000F4
:10004000AEC000009CC20000AAC00000A8C0000012
:10005000A6C00000A4C00000A2C00000A0C0000014
:100060009EC0000006C2000032C2000098C000001E
:1000700096C0000094C0000092C0000090C0000034
:100080008EC000008CC000008AC0000088C0000044
:1000900086C0000084C0000082C0000080C0000054
:1000A0007EC000007CC000007AC0000026034C0027
:1000B00055004600410020004B00650079006200B9
:1000C0006F006100720064002000440065006D0054
:1000D0006F00000018034400650061006E002000FE
:1000E000430061006D0065007200610000000403C0
:1000F000090409022200010100C0320904000001C4
:1001000003010100092111010001223F00070581BF
:10011000030800051201100100000008EB03422053
:1001200001000102000105010906A101050719E00E
:1001300029E71500250175019508810295017508CB
:10014000810105081901290595057501910295019F
:1001500075039101150025FF0507190029FF950674
:1001600075088100C00011241FBECFEFDAE0DEBFAA
:10017000CDBF11E0A0E0B1E0E6E5F9E102C00590F5
:100180000D92A435B107D9F722E0A4E5B1E001C092
:100190001D92A135B207E1F750D20C94A90C30CFD3
:1001A000CF93C82F8CE0D6D180E0D4D181EAD2D1D0
:1001B00081E0D0D180E0CED180E0CCD18C2FCAD1EB
:1001C00080E0C8D180E0C6D180E0C4D180E0C2D157
:1001D00080E0C0D18CE0BED180E0BCD181EABAD150
:1001E00081E0B8D180E0B6D180E0B4D180E0B2D176
:1001F00080E0B0D180E0AED180E0ACD180E0AAD187
:1002000080E0CF91A7C1CF93DF93D82FF5D3C82F2C
:10021000282F30E021153105C9F3F9017F9906C077
:10022000EE53FE4FD08380E191E007C07E990AC073
:10023000EC5FFD4FD08386E191E0E6D262E08EE292
:10024000C3D203C0E658FE4FD0838C2F08D360E0A2
:1002500088E2BAD22FEF84E39CE0215080409040A6
:10026000E1F700C00000DF91CF910895CF93809116
:1002700048028430E1F72FEF89E698E12150804071
:100280009040E1F700C0000089E191E0BDD262E05A
:1002900086E29AD262E087E197D262E080E194D26E
:1002A00062E087E291D260E088E28ED288E291E05B
:1002B000ABD262E08CE288D260E081E285D260E07D
:1002C00087E382D260E08FE17FD260E088E27CD277
:1002D0008CE291E099D260E087E376D260E087E338
:1002E00073D260E087E370D260E088E26DD288E389
:1002F00091E08AD260E087E367D260E087E364D26E
:1003000060E087E361D260E088E25ED2C4E062E050
:100310008C2F5AD260E08CE257D28C2F74DF60E0D1
:1003200088E252D2CF5FCE3191F7CF9146C0E4E65A
:10033000F0E08081877F80838AE08093810087E27C
:100340008093890080E180938800EFE6F0E080816F
:1003500082608083089527982F9A56985E9A5798BE
:100360005F9A24982C9A25982D9A23982B9A229854
:100370002A9A269A3E98469A2198299A2898209A4D
:100380006E98769A5D98559A54985C9A53985B9AB1
:1003900052985A9A599A519A589A509A729A6A9AB5
:1003A00085988D9A86988E9A87988F9A8C9A849A37
:1003B000899A819A889A809A08957D9907C07E9B30
:1003C00005C07F9B03C085E090E00BC07D9B07C00C
:1003D0007E9B05C07F9903C084E090E002C089E065
:1003E00090E090930302809302020895292F33270F
:1003F00023303105B9F05CF42130310569F1223048
:10040000310579F582E290E022EF30E02EC0213212
:100410003105E9F02232310521F58FE390E026E243
:1004200031E023C099278130910541F08230910558
:1004300041F0892BB1F4EEEEF0E005C0E4EDF0E020
:1004400002C0ECEAF0E0849190E09F010EC089E0E8
:1004500090E024E031E009C082E190E024E131E065
:1004600004C080E090E020E030E0FA013183208396
:1004700008951F920F920FB60F9211242F938F930E
:100480009F93EF93FF938091C8009091CE00887165
:10049000E0915601EF5FE77020915501E21739F0C6
:1004A000E0935601F0E0E75AFE4F908301C082E0EE
:1004B00090915401982B90935401FF91EF919F914B
:1004C0008F912F910F900FBE0F901F9018951F9234
:1004D0000F920FB60F9211248F939F93EF93FF9378
:1004E0009091580180915701981769F0E091570158
:1004F000EF5FEF70E0935701F0E0EF59FE4F80811E
:100500008093CE0005C08091C9008F7D8093C90083
:10051000FF91EF919F918F910F900FBE0F901F90C1
:10052000189510925801109257011092560110928E
:10053000550197FF04C022E02093C8009F77909355
:10054000CD008093CC0088E98093C90086E0809339
:10055000CA000895909158019F5F9F7020915701A4
:100560009217E1F3E92FF0E0EF59FE4F808390936B
:1005700058018091C90080628093C90008951F923C
:100580000F920FB60F9211242F933F934F935F93C7
:100590006F937F938F939F93AF93BF93EF93FF934B
:1005A0008091BE019091BF0101969093BF0180930D
:1005B000BE0180E091E0C4D30E94DF0BFF91EF9178
:1005C000BF91AF919F918F917F916F915F914F916B
:1005D0003F912F910F900FBE0F901F90189584B7E9
:1005E000877F84BF88E10FB6F894809360001092F3
:1005F00060000FBE90E080E80FB6F8948093610031
:10060000909361000FBE93DEA6DE2FE788E391E0B2
:10061000215080409040E1F700C00000CEDE809184
:10062000020290910302029739F0809102029091A8
:100630000302039709F08FC60895109203021092E7
:100640000202CDDF78942FEF83ED90E321508040BC
:100650009040E1F700C0000011E0C4E0D0E08091DC
:100660004802843011F4899801C0899A809102026D
:10067000909103028430910509F12CF4019709F05F
:1006800060C0CCD10AC085309105B1F1099709F05D
:1006900058C08CE090E045DF51C07E99FECFE091DC
:1006A000C001F091C10182818111FDCFA5D1C82F78
:1006B00080E591E0A9D08C2FD2D0F1CF39B189B1AA
:1006C00023B193B18095881F8827881F36FB332775
:1006D00030F93127830F229521702127820F95FB56
:1006E000992790F99127890F80FF03C0899A8898EC
:1006F000B6CF8998889AB3CFB9DDB1CF6699FECFCE
:10070000669BFECF60E084E04BDD2FEF84E39CE04E
:10071000215080409040E1F700C000006699FECF74
:10072000669BFECF60E08DE13BDD2FEF84E39CE034
:10073000215080409040E1F700C000007E99FECF3C
:10074000DDCFD0930302C093020289CF08950895AC
:100750000895089580E091E0E0D2E2EEF0E080813B
:1007600084608083089580E091E0A5C180910E01AE
:1007700090910F01009729F0019790930F018093BA
:100780000E0108950F931F93F901A091C001B0913C
:10079000C10112968C918283882321F08091790186
:1007A000808301C01082E091C001F091C1011282EA
:1007B0001092790188E090E0F8019183808380E0D5
:1007C0001F910F91089508951092BF011092BE01DC
:1007D000E091C001F091C101928191110DC082831D
:1007E000609379012FEF80E792E0215080409040A4
:1007F000E1F700C0000008952091BE013091BF01D3
:10080000243131054CF3EBCFEF92FF920F931F93FE
:10081000CF93DF938C01EC0109900020E9F7219739
:10082000C81BD90B7C01C701801B910B8C179D073E
:100830007CF4F70181917F01803229F090E00E94E1
:10084000740CCD9702C08CE290E062E0BDDFEBCF8C
:10085000DF91CF911F910F91FF90EF900895CF936B
:10086000282F6AE0C8D7C92F822F90E08C1B9109EE
:1008700064E670E0CCD76AE070E0C9D7862F60E00C
:10088000882311F0835E01C087E29EDF2FEF80E7AF
:1008900092E0215080409040E1F700C0000060E00D
:1008A000CC2319F08DE18C0F01C087E28DDF2FEF93
:1008B00080E792E0215080409040E1F700C00000C6
:1008C000CF910895DF92EF92FF920F931F93CF93F2
:1008D000DF932E98479A72982FEF80E792E021508D
:1008E00080409040E1F700C00000E0E0F0E0D12C53
:1008F000E12CF12C10E0D0E0C0E0B0E0A0E03699AF
:1009000012C021E030E040E050E060E070E080E0C4
:1009100090E00E2F97D7D22AE32AF42A152BD62B54
:10092000C72BB82BA92B2E9A000000000000000056
:1009300000000000000000000000000000000000B7
:1009400000000000000000000000000000000000A7
:100950000000000000000000000000000000000097
:10096000000000002E9800000000000000000000C1
:100970000000000000000000000000000000000077
:100980000000000000000000000000000000000067
:100990000000000000000000000000000000000057
:1009A00000003196E033F10509F0A9CF729A0000FA
:1009B0000000000000000000000000000000000037
:1009C0000000000000000000000000000000000027
:1009D00000000000000047982D2D3E2D4F2D512F77
:1009E0006D2F7C2F8B2F9A2FDF91CF911F910F911D
:1009F000FF90EF90DF900895FF920F931F93CF9396
:100A0000DF9360DFA0E037D711F014D701C080E09A
:100A1000DF91CF911F910F91FF90089540E450E036
:100A200060E070E08AE791E084D740E450E060E461
:100A300070E084E092E07DD740E450E060E870E050
:100A400082EC91E076D744E050E060EC70E08AEB15
:100A500091E06FD7EAE7F1E081E0EA3BF80731F097
:100A600080818F3F09F410823196F6CFE4E0F2E006
:100A700082E0E434F80731F080818F3F09F410827E
:100A80003196F6CFE2ECF1E082E0E230F80731F0A7
:100A900080818F3F09F410823196F6CFEAEBF1E0C6
:100AA00081E0EE3BF80731F080818F3F09F410823E
:100AB0003196F6CF08956F927F928F929F92AF9268
:100AC000BF92CF92DF92EF92FF920F931F93CF933B
:100AD000DF9300D01F92CDB7DEB77C01ADB6BEB6B6
:100AE0008091E80083FF02C1F701808190E02091AE
:100AF0004D0230914E022817390709F0F7C0809156
:100B00004A02833009F499C030F4813071F08230A8
:100B100009F4D0C0EBC08A3009F4B4C08B3009F4BA
:100B20009DC0893009F0E2C04BC080914902813AF2
:100B300009F0DCC08DB69EB61A82198280914B02F4
:100B400010914C028B83F701408550E08DB79EB722
:100B5000841B950B0FB6F8949EBF0FBE8DBFEDB7EB
:100B6000FEB731966F0160E070E0CF01DBD64FEF4A
:100B7000410F8E010F5F1F4F9601BE016D5F7F4FCA
:100B8000C70100DEF70186819781009721F040853B
:100B900050E0B601BED61092E9008091E800877F50
:100BA0008093E8008B8181118093F10069817A81C3
:100BB000C601CBD18091E8008B778093E80037C0E5
:100BC00080914902813209F091C08DB69EB60091A4
:100BD0004F021091500270904B0260904C028DB702
:100BE0009EB7801B910B0FB6F8949EBF0FBE8DBFB2
:100BF000EDB7FEB731966F018091E800877F809353
:100C0000E800B801CF0102D28091E8008E7780938E
:100C1000E80021E0711001C020E030E0021B130B5E
:100C20002C0D3D1D4FEF460D672DC701CCDD0FB6D6
:100C3000F8949EBE0FBE8DBE59C080914902813A84
:100C400009F054C08091E800877F8093E80080918C
:100C5000E80080FFFCCFF701818540C08091490208
:100C6000813209F043C08091E800877F8093E800DB
:100C7000E1D290914B0281E0911101C080E0F70137
:100C8000818734C080914902813281F58091E800EA
:100C9000877F8093E800CED280914B0290914C02E6
:100CA000882736E0969587953A95E1F7F70195877D
:100CB00084871CC080914902813AC1F48091E80088
:100CC000877F8093E8008091E80080FFFCCFF701E8
:100CD0008485958596958795969587958093F1005F
:100CE0008091E8008E778093E800A4D20FB6F89444
:100CF000BEBE0FBEADBE0F900F900F90DF91CF9193
:100D00001F910F91FF90EF90DF90CF90BF90AF9029
:100D10009F908F907F906F900895FC01399627E007
:100D2000DF011D922A95E9F721E0FC01218724EFDC
:100D300031E03587248723E0248361E001963DC2BA
:100D40005F926F927F928F929F92AF92BF92CF925B
:100D5000DF92EF92FF920F931F93CF93DF9300D018
:100D60001F92CDB7DEB77C01ADB6BEB6809148020A
:100D7000843009F08AC08091E4009091E500F70189
:100D8000228533852817390709F47FC081818F7048
:100D90008093E9008091E80085FF77C08DB69EB60C
:100DA000408550E08DB79EB7841B950B0FB6F89425
:100DB0009EBF0FBE8DBFEDB7FEB731966F011B8290
:100DC0001A82198260E070E0CF01ACD58E010F5F0E
:100DD0001F4F960140E0BE016D5F7F4FC701D2DC1F
:100DE000682EF70184859585892B41F021E0868561
:100DF0009785892B09F020E0722E01C0712CF70134
:100E0000068117810115110589F049815A81B801C0
:100E1000C60172D555245394892B09F4512CF7013E
:100E2000408550E0B601C80174D501C0512C29811C
:100E30003A81232BF1F0611004C0511002C070FE02
:100E400018C0F701848595859787868781818F7083
:100E50008093E9008B8181118093F10069817A810F
:100E600040E050E0C60129D08091E8008E77809361
:100E7000E8008091E4009091E500F7019387828774
:100E80000FB6F8949EBE0FBE8DBE0FB6F894BEBED0
:100E90000FBEADBE0F900F900F90DF91CF911F91BD
:100EA0000F91FF90EF90DF90CF90BF90AF909F9009
:100EB0008F907F906F905F900895CF92DF92EF9226
:100EC000FF920F931F93CF93DF937C018B01EA0175
:100ED000D2D1811131C0209731F088819981081BCE
:100EE000190BE80EF91EC12CD12C0115110519F1B1
:100EF0008091E80085FD14C08091E8008E77809392
:100F0000E8005DD4209741F0888199818C0D9D1D6A
:100F10009983888385E010C0AED1882331F30CC05B
:100F2000F70181917F018093F10001501109FFEFDA
:100F3000CF1ADF0ADACF80E0DF91CF911F910F91B6
:100F4000FF90EF90DF90CF90089520914F02309165
:100F500050022617370748F06115710539F42091C2
:100F6000E8002E772093E80001C0B901FC0120E0E1
:100F700061157105B9F180914802882309F440C0D8
:100F8000853009F43FC08091E80083FD3DC0809129
:100F9000E80082FF06C08091E80082FF26C080E062
:100FA00008958091E80080FFE3CF2091F3008091C5
:100FB000F20090E0922B6115710551F08830910597
:100FC00038F421912093F100615071090196F3CF1B
:100FD00021E0089709F020E08091E8008E77809367
:100FE000E800C6CF2111C7CFD6CF80914802882311
:100FF00039F0853039F08091E80083FFCCCF04C010
:1010000082E0089583E0089581E0089561157105F7
:1010100029F42091E8002B772093E80061157105F1
:1010200041F120914802222369F1253069F1209194
:10103000E80023FD23C02091E80022FFF2CFFC014D
:10104000CF014091F3002091F20030E0342B232BAC
:1010500001F38091F1008193CF0161507109611515
:10106000710571F7D6CF80914802882359F08530F9
:1010700059F08091E80080FFF6CF02C081E008952A
:1010800080E0089582E0089583E0089520914F0262
:10109000309150022617370748F06115710539F471
:1010A0002091E8002E772093E80001C0B901FC01EF
:1010B00020E061157105C1F180914802882309F48F
:1010C00041C0853009F440C08091E80083FD3EC0F6
:1010D0008091E80082FF06C08091E80082FF27C06F
:1010E00080E008958091E80080FFE3CF2091F30035
:1010F0008091F20090E0922B6115710559F08830D3
:10110000910540F424912093F100319661507109CA
:101110000196F2CF21E0089709F020E08091E800E5
:101120008E778093E800C5CF2111C6CFD5CF8091AF
:101130004802882339F0853039F08091E80083FF38
:10114000CBCF04C082E0089583E0089581E0089544
:10115000982F973058F59093E900981739F07091CF
:10116000EC002091ED005091F00003C0242F762F69
:1011700050E021FF19C03091EB003E7F3093EB002F
:101180003091ED003D7F3093ED003091EB00316008
:101190003093EB007093EC002093ED005093F0003F
:1011A0002091EE0027FF07C09F5FD3CF8F70809301
:1011B000E90081E0089580E008950F931F93CF9395
:1011C000DF93062FEC0110E0101771F1988199233D
:1011D00041F12C81E981FA817B81892F8F708730E1
:1011E00010F080E022C0223010F056E001C052E042
:1011F00028E030E040E02E173F0720F44F5F220F39
:10120000331FF9CF4295407F452B692F661F662714
:10121000661F90E4799F90011124622B99DF882347
:1012200001F31F5F2596D0CF81E0DF91CF911F9111
:101230000F9108958091490287FD05C08091E800D3
:1012400080FF0EC012C08091E80082FD05C0809131
:1012500048028111F8CF08958091E8008B7708C08B
:10126000809148028111EACF08958091E8008E773D
:101270008093E80008958091E4009091E50045E6B0
:101280002091EC0020FF21C02091E80020FD21C02A
:1012900020914802222389F0253089F02091EB002B
:1012A00025FD0FC02091E4003091E5002817390793
:1012B00039F3415041F0C901E3CF82E0089583E062
:1012C000089581E0089584E008952091E80022FFC8
:1012D000DFCF80E008950F931F93CF93DF934BD020
:1012E00052D0C8EDD0E088818F778883888180686C
:1012F000888388818F7D888319BC10924802109260
:101300004402109246021092450200EE10E0F801ED
:1013100080818B7F808388818160888342E060E068
:1013200080E016DFE1EEF0E080818E7F8083E2EEE8
:10133000F0E0808181608083808188608083F80113
:1013400080818E7F8083888180618883DF91CF91C7
:101350001F910F910895E8EDF0E080818F7E8083EA
:10136000E7EDF0E080818160808384E082BF81E0EE
:1013700080934702B0CFE8EDF0E080818E7F8083DC
:101380001092E20008951092DA001092E1000895A0
:101390001F920F920FB60F9211242F933F934F93EA
:1013A0005F936F937F938F939F93AF93BF93EF93CD
:1013B000FF938091E10082FF0AC08091E20082FFEA
:1013C00006C08091E1008B7F8093E100CFD98091AE
:1013D000DA0080FF1BC08091D80080FF17C0809189
:1013E000DA008E7F8093DA008091D90019BC80FFEB
:1013F0000AC082E089BD09B400FEFDCF81E0809380
:101400004802A4D903C010924802A1D98091E100FA
:1014100080FF18C08091E20080FF14C08091E2003C
:101420008E7F8093E2008091E20080618093E200F1
:101430008091D80080628093D80019BC85E08093A9
:10144000480286D98091E10084FF2EC08091E2009D
:1014500084FF2AC019BC82E089BD09B400FEFDCF1B
:101460008091D8008F7D8093D8008091E1008F7E9D
:101470008093E1008091E2008F7E8093E200809172
:10148000E20081608093E20080914402882311F0A1
:1014900084E007C08091E30087FF02C083E001C0C1
:1014A00081E08093480255D98091E10083FF22C0FA
:1014B0008091E20083FF1EC08091E100877F8093CE
:1014C000E10082E080934802109244028091E100A2
:1014D0008E7F8093E1008091E2008E7F8093E20016
:1014E0008091E20080618093E20042E060E080E071
:1014F0002FDE64D1FF91EF91BF91AF919F918F91BA
:101500007F916F915F914F913F912F910F900FBEFF
:101510000F901F9018951F93CF93DF93CDB7DEB731
:10152000AA970FB6F894DEBF0FBECDBFE9E4F2E094
:101530008091F100819322E0E135F207C9F713D9D8
:101540008091E80083FF22C19091490280914A0274
:10155000853009F477C030F4813081F168F0833050
:1015600069F114C1883009F4E2C0893009F4F1C08E
:10157000863009F00BC188C0903881F0923809F0AC
:1015800005C180914D028F708093E9008091EB003E
:1015900085FB882780F91092E90006C080914502FA
:1015A00090914602911182609091E800977F90930C
:1015B000E8008093F1001092F100C4C0292F2D7F24
:1015C00009F0E4C0992319F0923061F0DFC09091E6
:1015D0004B02913009F0DAC0833009F090E090932B
:1015E00046022AC090914B02911126C020914D02D3
:1015F0002F7009F4CBC02093E9009091EB0090FF8D
:101600001BC0833021F48091EB00806213C0809175
:10161000EB0080618093EB0081E090E0022E01C03E
:10162000880F0A94EAF78093EA001092EA0080910A
:10163000EB0088608093EB001092E9008091E80055
:10164000877F83C09111A2C010914B021F778091B8
:10165000E3008078812B8093E3008091E800877F0E
:101660008093E800E7DD8091E80080FFFCCF809167
:10167000E30080688093E300112311F083E001C050
:1016800082E08093480282C09058923008F07EC079
:1016900080914B0290914C028C3D23E0920771F5B2
:1016A00083E08A838AE289834FB7F894DE01139638
:1016B00020E03EE051E2E32FF0E050935700E49148
:1016C00020FF03C0E295EF703F5FEF708E2F90E038
:1016D000EA3010F0C79601C0C0968D939D932F5F9E
:1016E000243149F74FBF8091E800877F8093E8005D
:1016F0006AE270E0CE01019628DC13C0AE014F5FB4
:101700005F4F60914D020E94F601009709F43EC0C0
:101710002091E800277F2093E800BC0189819A810D
:10172000B5DC8091E8008B778093E8002FC090387B
:1017300069F58091E800877F8093E80080914402FA
:101740008093F1008091E8008E778093E80072DD4D
:101750001DC091111BC090914B029230B8F4809142
:10176000E800877F8093E8009093440263DD8091D6
:101770004402811104C08091E30087FF02C084E02D
:1017800001C081E0809348020E94AA038091E80092
:1017900083FF0AC08091E800877F8093E8008091F2
:1017A000EB0080628093EB00AA960FB6F894DEBF40
:1017B0000FBECDBFDF91CF911F9108950895CF93B4
:1017C000809148028823A9F08091E9008F70909160
:1017D000EC0090FF02C090E801C090E0C92FC82B38
:1017E0001092E9008091E80083FD95DECF70C093F0
:1017F000E900CF910895991B79E004C0991F9617CD
:1018000008F0961B881F7A95C9F78095089597FB75
:10181000072E16F4009406D077FD08D038D007FCC8
:1018200005D03EF4909581959F4F089570956195F0
:101830007F4F089540D085FF0895B901CA013BD07C
:10184000805E08950F93083090F0982F872F762FA1
:10185000652F542F432F322F22270850F4CF220F09
:10186000331F441F551F661F771F881F991F0A9536
:10187000B2F70F9108950024A7FD00942A173005B0
:101880004005500560057005800590050895AA1B68
:10189000BB1B51E107C0AA1FBB1FA617B70710F05B
:1018A000A61BB70B881F991F5A95A9F7809590958D
:1018B000BC01CD01089506D084FF0895CB0102D06C
:1018C000805F0895AA27992329F4A85F982B11F423
:1018D00080E10895903118F4AD5F9295A395990F2A
:1018E000E8F78A2F992708959111089581568A5112
:1018F00008F4805285580895FB01DC0104C08D91E5
:101900000190801921F441505040C8F7881B990B71
:101910000895FB01DC0102C001900D92415050403E
:10192000D8F70895DC0101C06D9341505040E0F7B5
:101930000895DC01CB01FC01F999FECF06C0F2BD90
:10194000E1BDF89A319600B40D9241505040B8F77D
:061950000895F894FFCF9A
:10195600008108000001710108000000000000007D
:10196600534849465400464E005553422054595058
:1019760045575249544552005645520043414C4939
:1019860042524154494E4700545950452054484507
:1019960020464F4C4C4F57494E47204B4559530014
:0419A6004B45590054
:00000001FF
