S01A00005553422054797065777269746572205032532E73726563CC
S113000080C300009BC3000099C3000097C3000095
S113001095C3000093C3000091C300008FC3000088
S11300208DC300008BC300000C94A73587C3000068
S113003085C3000083C3000081C300007FC30000A8
S11300407DC300000C941E2779C3000077C3000011
S113005075C3000073C3000071C300006FC30000C8
S11300606DC300000C947A260C94A82667C3000084
S113007065C3000063C3000061C300005FC30000E8
S11300805DC300005BC3000059C3000057C30000F8
S113009055C3000053C3000051C300004FC3000008
S11300A04DC300000C94D00D49C3000041542B42B1
S11300B0503D30342C30372C30300041542B4354D5
S11300C00041542B4D440041542B53503D303000DB
S11300D041542B43500041542B46543D46462C304A
S11300E0312C46462C31302C30312C30313030001C
S11300F041542B50463D30302C30312C30302C3094
S1130100302C30300041542B42503D30302C3030B4
S11301100041542B55493D30310041542B4E4D3D47
S11301205553422054797065777269746572204220
S113013054004E4F20424C5545544F4F5448204D87
S11301404F44554C452044455445435445442E2E74
S11301502E0D000D434841523A09434F4E5441433A
S113016054233A0D00524545440053484946542B04
S113017000507265737320434D442B5350414345E3
S113018042415220746F2073617665206368616E0A
S113019067657320616E6420657869742E0D005064
S11301A072657373204354524C2B53504143454260
S11301B0415220746F207363726F6C6C20626163B0
S11301C06B77617264732E0D0050726573732053E4
S11301D05041434542415220746F207363726F6CE7
S11301E06C207468726F75676820636861726163FC
S11301F0746572732E0D00507265737320532069F9
S113020066206368616E6765732073686F756C64DC
S1130210206170706C7920746F205344206D6F647A
S1130220652E0D0050726573732055206966206336
S113023068616E6765732073686F756C64206170A4
S1130240706C7920746F205553422F4254206D6F87
S113025064652E0D004D414E55414C2043414C499F
S113026042524154494F4E204D4F44452E2E2E0D9F
S11302700053455454494E47532053415645442155
S11302800D000D49474E4F524520454E54455220CE
S11302904B4559205748454E205350414345424110
S11302A0522049532048454C443F0D000D4E4F57B2
S11302B02053455420524545442052454143544916
S11302C04F4E2054494D452E2E2E0D000D4E4F57A6
S11302D0205345542044454C4159204245545745E8
S11302E0454E20444F55424C45204B4559205052D1
S11302F045535345532E2E2E0D000D4E4F5720536C
S11303004554204B45592052454C454153452054B2
S1130310494D452E2E2E0D00505245535320435423
S1130320524C20414E4420414C5420544F205345BC
S113033054204B4559205245414354494F4E205473
S1130340494D452E2E2E0D00505245535320434DFA
S113035044204B455920544F20434F4E54494E5549
S1130360452E2E2E0D0041444A555354494E4720E4
S11303704B45592053454E53495449564954592ED7
S11303800D004E4F2048414C4C20454646454354B1
S11303902053454E534F52204445544543544544FD
S11303A02E20284E4F5420412050524F424C454D50
S11303B0290D00484F4C4420444F574E20414E597C
S11303C0204B455920544F2043414C4942524154FB
S11303D0452048414C4C204546464543542053450E
S11303E04E534F522E2E2E0D004241434B5350413B
S11303F043450053454E4409005345434F4E442062
S1130400454E5445520045534309005441420900A6
S1130410454E544552090053504143454241520010
S1130420515549434B2043414C4942524154494F51
S11304304E204D4F44452E2E2E0D00424C55455412
S11304404F4F54482050494E2044495341424C4553
S1130450440D00424C5545544F4F54482050494E8A
S113046020454E41424C45440D0044554D4D5920C4
S11304704C4F41442044454143544956415445441A
S11304800D0044554D4D59204C4F41442041435497
S11304904956415445440D002028445552494E477D
S11304A0205553422F4254204D4F4445293A202091
S11304B02009002028445552494E472053442043E4
S11304C0415244204D4F4445293A09004552524F68
S11304D0522E2E2E5348494654204D5553542042F3
S11304E04520412052454544205357495443482E02
S11304F00D00545950452054484520464F4C4C4F0C
S113050057494E47204B4559532028505245535381
S113051020535041434520544F20534B4950292EDA
S11305202E2E0D0043414C4942524154494E472E10
S11305302E2E0D00534420434152442053544F5215
S1130540414745204D4F44450D00555342204B45EE
S113055059424F4152442F43415244205245414451
S11305604552204D4F44450D004C49474854204DB9
S11305704F4445202853442043415244205245418E
S11305804445522044495341424C4544290D0042BC
S11305904C5545544F4F5448204B4559424F4152B6
S11305A044204D4F44450D0044454641554C54208C
S11305B053455454494E473A20004649524D5741F9
S11305C052452056455220352E352E302E454800B2
S11305D055534220545950455752495445522028A6
S11305E0544D290D00444F574E0055500052494771
S11305F04854004C45465400504F52512122232464
S1130600255F2627282931323334353637383930B7
S11306101E1F2021222324252627300355005300A2
S113062042002000540079007000650077007200D9
S1130630690074006500720020004B0065007900B9
S113064062006F0061007200640000002603550020
S11306505300420020005400590050004500570048
S11306605200490054004500520020004C004C0048
S11306704300000004030904090239000201008058
S11306800709040000020806500007058302400021
S113069005070504024000050904010001030101E6
S11306A000092111010001223F0007058103080010
S11306B0051201100100000008EB0361208600010F
S11306C002DC0105010906A101050719E029E71566
S11306D000250175019508810295017508810105C0
S11306E00819012905950575019102950175039174
S11306F001150025FF0507190029FF9506750881D6
S113070000C011241FBECFEFDAE0DEBFCDBF13E07F
S1130710A0E0B1E0EEE3F8E702C005900D92AA3341
S1130720B107D9F729E0AAE3B3E001C01D92A63FBF
S1130730B207E1F70E94D1280C941D3C61CC0F93C1
S11307401F93CF932FEF80E792E021508040904099
S1130750E1F700C0000010923106109232061092A8
S113076033061092350601E316E0C0E00E94EB2642
S11307709C012227232B31F0EC2FF0E0EF5CF94FA2
S113078010820AC0CF3119F41092500605C0F80146
S113079081938F01CF5FEACF909131069F3449F066
S11307A0809133068D3329F081E0933419F080E091
S11307B001C081E0CF911F910F9108951F93CF93B2
S11307C0DF931F92CDB7DEB7182F87FF02C01F77C4
S11307D062E0143711F461E018E281EA69830E944F
S11307E0092781E00E9409276981862F0E94092731
S11307F080E00E940927812F0E94092780E00E943F
S1130800092780E00E94092780E00E94092780E0F0
S11308100E94092780E00E9409278FE097E2019750
S1130820F1F700C0000081EA0E94092781E00E94DC
S1130830092780E00E94092780E00E94092780E0C0
S11308400E94092780E00E94092780E00E9409276E
S113085080E00E94092780E00E94092780E00F9031
S1130860DF91CF911F910C94092781EA0E940927F7
S113087082E00E94092788E00E94092780E00E9404
S113088009278FE097E20197F1F700C0000081EAA1
S11308900E94092782E00E94092780E00E9409271C
S11308A080E00C9409278F982FE788E391E021508A
S11308B080409040E1F700C000008F9A2FEF84E35E
S11308C09CE0215080409040E1F700C00000089572
S11308D0811135CF81E00895EF92FF921F93CF935A
S11308E0DF9300D0CDB7DEB7162F89839A830E9499
S11308F004278981E82E9A81F92EF70181917F01DD
S1130900882319F00E940927F8CF8DE00E94092757
S11309108AE00E94092781E0112341F00F900F9093
S1130920DF91CF911F91FF90EF90D2CF0F900F9056
S1130930DF91CF911F91FF90EF900895CF93C62F31
S1130940BC018BE297E00E94B9386C2F8BE297E0F0
S1130950CF91C2CF2FEF89E698E12150804090409B
S1130960E1F700C0000060E085E091E0E7DF2FEFF1
S113097089E698E1215080409040E1F700C00000F2
S1130980089560E08CEA90E0D9CF83E390E00E9480
S1130990D22689DF2FEF89E698E1215080409040EC
S11309A0E1F700C00000CBDE8823E1F0D3DF60E094
S11309B08DE891E091DF2FEF80E792E021508040B5
S11309C09040E1F700C0000088E090E00E94D22649
S11309D0D8DF2FEF80E792E0215080409040E1F78C
S11309E000C0000088E090E00E94D22681E080935D
S11309F051060895CF93DF931F92CDB7DEB7C5DFBD
S1130A00A9DF61E081E191E099DF8983BADF89811F
S1130A100F90DF91CF91089561E080ED90E08ECF4B
S1130A20CF93DF9300D000D0CDB7DEB78DE494E44C
S1130A30ADE3B0E089839A83AB83BC838BDF2FEF74
S1130A4089E698E1215080409040E1F700C0000021
S1130A5060E081E191E072DF61E081EC90E06EDFC3
S1130A60BE016F5F7F4F81E396E00E94C038BE01F4
S1130A706F5F7F4F80E090E00E94C038009751F094
S1130A80FC018181803331F4799904C061E08BEBFE
S1130A9090E054DF76DF81E00F900F900F900F907D
S1130AA0DF91CF9108959F938F9386E991E09F936F
S1130AB08F9380E091E09F938F930E940E390F9063
S1130AC00F900F900F900F900F9061E080E091E0F5
S1130AD003CF4F925F926F927F928F929F92AF92C9
S1130AE0BF92CF92DF92EF92FF9280EAC82E86E8FF
S1130AF0D82EEE24E394F12C812C912C54019AE00D
S1130B00492E512C612C712C0E94582C60E00E94BB
S1130B10B42D8C3619F08823A9F001C081E3A0ED2F
S1130B20A80FB0E0A70196010E942038860E971EF8
S1130B30A81EB91EC701B601A30192010E94FE3787
S1130B4069017A01C114D104E104F104E9F6C40194
S1130B50FF90EF90DF90CF90BF90AF909F908F90D9
S1130B607F906F905F904F909ECFCF930EDFF2DE19
S1130B7061E081E191E0E2DEC82F61E08AE191E089
S1130B80DDDE61E085E091E0D9DE61E080EF90E0B8
S1130B90D5DE2FEF84E39CE0215080409040E1F7C4
S1130BA000C0000061E086ED90E0C8DE61E081EA0B
S1130BB091E092DE61E08AEA91E08EDE61E083EB0F
S1130BC091E08ADE61E080EC91E086DE61E087EC12
S1130BD090E0B4DE61E080ED90E0B0DE2E9879DF45
S1130BE0D0DE8C2FCF910895809151060895809185
S1130BF05A06813039F48BE394E00E949C2A1092C7
S1130C005A0607C083E594E00E949C2A81E0809301
S1130C105A0660915A0680E192E00C94BA3B8091A6
S1130C205506882329F0109255068AE694E005C0FB
S1130C3081E08093550682E894E00E949C2A6091AA
S1130C4055068FE092E00C94BA3B89EC91E00E9447
S1130C501D2A40E450E060E070E08BE596E00E94DD
S1130C60CC3B40E450E060E470E089EA99E00E9403
S1130C70CC3B40E450E060E870E088EA96E00E94F3
S1130C80CC3B40E450E060EC70E088E697E00E94E2
S1130C90CC3B40E450E060E071E089EE96E00E94D5
S1130CA0CC3B60919D0685E092E00E94BA3B609146
S1130CB0A70686E092E00E94BA3B6091540687E062
S1130CC092E00E94BA3B6091290788E092E00E947A
S1130CD0BA3B6091670789E092E00C94BA3BCF93EA
S1130CE0DF9310922A070E94C72DD82F83EB93E03D
S1130CF00E949C2A2FEF87EA91E621508040904081
S1130D00E1F700C000000E94C72DC82FD81307C008
S1130D1082E893E00E949C2A10922A0723C084ED63
S1130D2091E00E941D2A81E080932A07C093A506C2
S1130D308BEE91E00E941D2A83E690E022E07C9BEA
S1130D4020932A07EFE5FAEE3197F1F700C000008F
S1130D500197A9F780912A07823021F489E192E072
S1130D600E941D2A7E9903C081E080932A07609126
S1130D702A0783E092E00E94BA3B6091A50684E0D2
S1130D8092E00E94BA3B81E090912A07911101C040
S1130D9080E0DF91CF9108952FEF81EE94E0215010
S1130DA080409040E1F700C000000E94302C90E0A9
S1130DB00097D9F30895CF93DF93EB01FB01423001
S1130DC041F4E855F94F80838AE691E00E949C2A19
S1130DD011C0443061F4E755F64F808382E392E01A
S1130DE00E941D2A62E08EE20E94D22903C0E55AC5
S1130DF0F94F8083C630D10524F485E691E00E9442
S1130E009C2A8C2F0E94A42A2FEF84E39CE021507B
S1130E1080409040E1F700C00000DF91CF91089539
S1130E201F93CF93DF9389EE93E00E949C2A60E0A6
S1130E308BE20E94D229B0DFEC010E944E2B182FC6
S1130E40DD27482FBE018AE2B6DF12FD04C0C8596F
S1130E50D84F88E0888360E088E20E94D22986E047
S1130E6094E00E949C2A60E08BE20E94D22994DFE5
S1130E70EC010E944E2BBE017727482F89E29BDFAD
S1130E8060E088E20E94D2298BE094E00E949C2AD0
S1130E9060E08BE20E94D2297FDFEC010E944E2B9E
S1130EA0182FDD27482FBE018BE285DF12FD09C014
S1130EB0FE01E859F84F89E08083C751D94F84E790
S1130EC0888360E088E20E94D22980E194E00E9455
S1130ED09C2A60E08BE20E94D2295EDFEC01DD27D0
S1130EE040E0BE0188E267DFC859D84F8DE08883AF
S1130EF060E088E20E94D22989EF93E00E949C2A54
S1130F0060E08BE20E94D22984E790E045DFBC01D7
S1130F10772740E088E24FDF60E088E20E94D22930
S1130F2083EF93E00E949C2A60E08BE20E94D22926
S1130F3033DFBC01772740E084E73DDF60E088E2EF
S1130F400E94D22987E194E00E949C2A60E08BE20F
S1130F500E94D22921DFEC01DD2740E0BE018CE2B2
S1130F602ADFC859D84F80E2888360E088E2DF91A5
S1130F70CF911F910C94D2298091ED098430E1F72F
S1130F802FEF89E698E1215080409040E1F700C0BE
S1130F90000080E294E00E949C2A2CDD81110DC0A7
S1130FA082E391E00E949C2A2FEF83ED90E321508D
S1130FB080409040E1F700C0000099B181E0929533
S1130FC0917098279093A70699B196FB992790F969
S1130FD098279093540699B19095991F9927991F32
S1130FE09093290793B1929591708927809367070D
S1130FF076DE82EF94E00E949C2A85E392E00E94D0
S11310001D2A10929D0660E08BE20E94D229C4DE64
S11310109FEF980F983058F480939D0685E691E0F1
S11310200E949C2A80919D060E94A42A04C08CECF4
S113103094E00E949C2A60E088E20E94D229F0DEBB
S113104004DE81E792E00C949C2A423021F4FB01F7
S1131050E751F94F05C042FD04C0FB01E859F84FC0
S1131060808308956F927F928F929F92AF92BF92E6
S1131070CF92DF92EF92FF920F931F93CF93DF9360
S11310800E94352E8091ED098430E1F72FEF89E637
S113109098E1215080409040E1F700C0000080EDCD
S11310A095E00E949C2A8AEB95E00E949C2A60E0CD
S11310B088E20E94D2298DE092E00E94AD3BC82FC5
S11310C088EA95E00E949C2AC23091F028F4C1304D
S11310D091F48AE495E009C0C93029F0CD3059F47F
S11310E089E695E002C08FE895E00E949C2A07C03B
S11310F084E395E0FACF8BE392E00E941D2A84E218
S113110095E00E949C2A99B181E09295917098276C
S11311109093A70699B196FB992790F998279093F5
S1131120540699B19095991F9927991F909329076F
S113113093B1929591708927809367075BDC811145
S11311400DC082E391E00E949C2AEFEFF3ED20E3CF
S1131150E150F0402040E1F700C000007E9B47DDF5
S11311607D9B5DDDBCDD82EF94E00E949C2A83E5DB
S113117091E00E949C2AC4E0FEE1FF2E62E08C2FE5
S11311800E94D22960E08BE20E94D22905DE8C0104
S11311900E944E2BD82F1127482F4D7FB8018C2F3A
S11311A00ADECF3021F4F801E755F64FF082D2FD84
S11311B00CC0F801E751F94F8DE38C0F8083F801DF
S11311C0E859F84F8DE58C0F808360E088E20E9437
S11311D0D229CF5FCE3191F600E010E0C801805FE4
S11311E0994F7C01FC01849160E00E94D22960E067
S11311F08BE20E94D229D0DDEC010E944E2BD82E26
S1131200DD27F70184914D2D4D7FBE01D4DDD2FC45
S113121015C0F801EA5FF94FE491DE01A859B84F0F
S1131220EC93F801E450FA4FE491DE01A751B94F71
S1131230EC93C755D64F8AE3800F888360E088E239
S11312400E94D2290F5F1F4F0A30110509F0C6CF43
S113125081E492E00E941D2A60E08BE20E94D22980
S11312609BDDEC010E944E2BBE017727482F8AE3B9
S1131270A2DD60E088E20E94D22984E492E00E9428
S11312801D2A60E08BE20E94D22986DDEC010E94D7
S11312904E2BBE017727482F84E48DDD60E088E281
S11312A00E94D22988E492E00E941D2A60E08BE229
S11312B00E94D22971DDEC010E944E2BBE017727DA
S11312C0482F85E478DD60E088E20E94D22985E336
S11312D092E00E941D2A60E08BE20E94D2295CDD2C
S11312E09FEF980F983058F480939D0685E691E01F
S11312F00E949C2A80919D060E94A42A04C08CEC22
S113130094E00E949C2AFFEF24E38CE0F1502040FB
S11313108040E1F700C0000060E088E20E94D2292A
S11313201DE20EE28CE2D82E9FE3F92E2FE2C22EAC
S11313303AE2B32E40E6A42E5EE7952E6DE3862EA8
S11313407BE3772EEAE36E2E123309F45BC060E090
S1131350812F0E94D22960E08BE20E94D2291CDDF9
S1131360EC010E944E2BE82EDD27482FBE01812F71
S113137022DDE2FC43C0133341F4FE01E859F84F87
S11313807082C751D94F688239C01E3249F4FE01B8
S1131390E859F84F8082C751D94F8BE288832EC019
S11313A0153341F4FE01E859F84FA082C751D94FD3
S11313B0988224C01D3241F4FE01E859F84F10838D
S11313C0C751D94FB8821AC0183329F4FE01E8591D
S11313D0F84FC08206C0163341F4FE01E859F84FB5
S11313E0D082C751D94FF88209C0173339F4FE01AE
S11313F0E859F84F0083C751D94F088360E088E269
S11314000E94D2291F5F193309F09ECFC9E5D2E0AB
S113141008EF15E0899199910E949C2A60E08BE283
S11314200E94D229B9DC7C010E944E2B482FF8017E
S11314308491B7017727BFDC60E088E20E94D2295B
S11314400F5F1F4FF2E0C136DF0721F762E08EE93C
S11314500E94D22960E08BE20E94D2299DDCEC013B
S11314600E944E2B182FDD27482FBE018EE9A3DCE6
S1131470412FBE0181E2E9DD60E088E20E94D229C9
S113148062E08FE10E94D22983EB94E00E949C2ABF
S113149083DCC82F0E944E2B823041F485E392E016
S11314A00E941D2A62E08EE20E94D2298C2F0E94A3
S11314B0A42A60E088E20E94D2292FEF84E39CE012
S11314C0215080409040E1F700C0000062E08FE1CD
S11314D00E94D22988E994E00E949C2A5DDCEC01F8
S11314E00E944E2BBE017727482F8FE964DC60E011
S11314F088E20E94D22962E088E30E94D22983EB29
S113150094E00E949C2A48DCEC010E944E2B182F88
S1131510BE017727482F8FE398DD123041F485E32D
S113152092E00E941D2A62E08EE20E94D2298C2F52
S11315300E94A42A60E088E20E94D229EFEFF4E33B
S11315402CE0E150F0402040E1F700C0000062E0F0
S113155088E30E94D22988E994E00E949C2A1CDC3A
S1131560EC010E944E2BBE017727482F88EB23DC29
S113157060E088E20E94D22953DC67DB81E792E0D5
S1131580DF91CF911F910F91FF90EF90DF90CF905B
S1131590BF90AF909F908F907F906F900C949C2AF7
S11315A0CF9381E092E00E94AD3B8093E80682E015
S11315B092E00E94AD3B8093580680E092E00E9446
S11315C0AD3B80939C068091ED098430E1F72FEFC9
S11315D089E698E1215080409040E1F700C0000086
S11315E086E693E00E949C2A88E493E00E949C2A69
S11315F07E99FECF88E193E00E949C2A8091E806C0
S11316000E94A42A60E088E20E94D2297E9B15C031
S11316107C990BC08091E8068F5F8093E8060E9456
S1131620A42A60E088E20E94D2297D99EFCF8091BC
S1131630E80681508093E806E3CF8AEF92E00E94A7
S11316409C2A809158060E94A42A60E088E20E94A5
S1131650D2297E9B15C07C990BC0809158068F5F60
S1131660809358060E94A42A60E088E20E94D2294E
S11316707D99EFCF80915806815080935806E3CF2F
S11316808CEC92E00E949C2A80919C060E94A42AE1
S113169060E088E20E94D2297E9B15C07C990BC031
S11316A080919C068F5F80939C060E94A42A60E030
S11316B088E20E94D2297D99EFCF80919C068150C7
S11316C080939C06E3CF8CEA92E00E949C2A80914E
S11316D09B060E94A42A60E088E20E94D2297E9B95
S11316E015C07C990BC080919B068F5F80939B06ED
S11316F00E94A42A60E088E20E94D2297D99EFCF5B
S113170080919B06815080939B06E3CF82E892E010
S11317100E949C2A80915606882319F08CE492E05A
S113172002C080E592E00E941D2AC1E07E9B15C0A4
S11317307C9906C01092560680E592E00E941D2A0C
S11317407D9906C0C09356068CE492E00E941D2A3F
S11317507C9BFECF7D9BFCCFE9CF60919C0680E013
S113176092E00E94BA3B6091580682E092E00E94A7
S1131770BA3B6091E80681E092E00E94BA3B609136
S11317809B068CE092E00E94BA3B609156068EE084
S113179092E00E94BA3B81E792E0CF910C949C2A9C
S11317A0FBDAFC01FF27E859F84F8081853711F0F7
S11317B08337B1F708959F92AF92BF92CF92DF9291
S11317C0EF92FF920F931F93CF93DF938091ED09D4
S11317D08430E1F72FEF89E698E121508040904072
S11317E0E1F700C0000085E592E00E949C2A84E2B3
S11317F092E00E949C2A87EF91E00E949C2AD0DF0D
S1131800082F85E592E00E941D2A89EC91E00E9450
S11318109C2A8FE991E00E949C2A81E791E00E9432
S11318209C2A053709F029C160E08DE20E94D22983
S113183098EB992E1EE928E3E22EDDE2CD2FACDAF7
S11318405C010E944E2BF82E6501DD24F601E55A59
S1131850F94F80818C3209F471C0053729F44F2D7A
S1131860B6018C2FA8DA19C00337B9F44F2DB6018D
S11318708C2FEBDBF1FE04C08AE691E00E949C2AE7
S11318808A2D0E94A42A8FE98C0F8A3130F44F2DBF
S11318904260B60180EE8C0FD8DBCF5F41F09C161E
S11318A030F0EC1628F4C11718F4C12F01C0CD2F65
S11318B060E088E20E94D229053761F48C2F8068A9
S11318C0885A853010F4CF5FF9CF60E08C2F0E94E6
S11318D0D2292AC0C13421F0C03339F4CAE305C087
S11318E0CBE503C0C43831F4CF5F8FE78C0F82306F
S11318F0C8F7FACF8C2F8F7E8D38B1F3CB39A1F393
S11319008C2F877F803A81F3C43B71F38C2F8D7FBA
S11319108D3A51F389E48C0F823030F3C23909F4E3
S1131920CBE98C2F0E94EA2A2FEF84E39CE021501C
S113193080409040E1F700C0000081CF7C9943C013
S1131940DC1730F41C1710F0EC1620F0C15003C063
S1131950C92D01C0CE2D60E088E20E94D22905374E
S113196041F48C2F8068885A853008F046C0C150F5
S1131970F8CFCA3531F0C93331F0CA3949F4C1E975
S113198007C0C0E405C0CFE203C0C43831F4C1507D
S11319908FE78C0F8230C8F7FACF8C2F8F7E8D386B
S11319A0B1F3CB39A1F38C2F877F803A81F3C43B09
S11319B071F38C2F8D7F8D3A51F389E48C0F823033
S11319C008F047C0E4CF7E9B48C0CF5F41F09C162F
S11319D030F0EC1628F4C11718F4C12F01C0CD2F34
S11319E060E088E20E94D229053761F48C2F806878
S11319F0885A853010F4CF5FF9CF60E08C2F0E94B5
S1131A00D2291DCFC13421F0C03339F4CAE305C053
S1131A10CBE503C0C43831F4CF5F8FE78C0F82303D
S1131A20C8F7FACF8C2F8F7E8D38B1F3CB39A1F361
S1131A308C2F877F803A81F3C43B71F38C2F8D7F89
S1131A408D3A51F389E48C0F823030F3C23909F4B2
S1131A50CBE98C2F0E94EA2AF2CEF7D881E792E0F4
S1131A60DF91CF911F910F91FF90EF90DF90CF9076
S1131A70BF90AF909F900C949C2A81E20E94EA2A26
S1131A8099249A9419E98EE8E82ED1E2D7CEE4E6B7
S1131A90F0E08081877F80838AE08093810087E201
S1131AA08093890080E180938800EFE6F0E08081F4
S1131AB08260808308952098289A54985C9A569856
S1131AC05E9A57985F9A24982C9A2B9A23982B9A6B
S1131AD02A9A22982A9A6A9A25982D9A299A2198BC
S1131AE0299A599A519A55985B9A539A52985A9AA4
S1131AF084988C9A85988D9A86988E9A8F98879ACE
S1131B00479A3F9A8198899A769A6E9A469A3E9A0B
S1131B102E9A269A0895F8949FEF9093D1001092EC
S1131B20BF0090E29093CF009091C400613051F4D3
S1131B309E7F9093C4009091C0009F7B9093C000BF
S1131B40469808C091609093C4009091C00090643E
S1131B509093C0009091C00092609093C0009091C7
S1131B607200946090937200813069F030F082309A
S1131B7041F0833041F486E009C089E08093C100DC
S1131B8002C087E003C08091C10088608093C100D7
S1131B90109253061092BF001092BE0078940895DC
S1131BA01F920F920FB60F9211248F939F938091DF
S1131BB0CF0090915306992319F0923039F00AC05E
S1131BC08F3F31F491E09093530610C08F3F71F032
S1131BD08F5F0CC0811109C09091C0009F7B9093CE
S1131BE0C0001092C100469A01C081508093CF007A
S1131BF09F918F910F900FBE0F901F901895292FD2
S1131C00332723303105E1F05CF42130310599F0BC
S1131C102230310579F589E390E028E736E02EC0DB
S1131C202132310511F12232310521F58FE390E0A3
S1131C3023EC36E023C082E190E021EB36E01EC0C5
S1131C4099278130910541F08230910541F0892B2B
S1131C5089F4E4E7F6E005C0ECE4F6E002C0EAE16A
S1131C60F6E0849190E09F0109C089E090E021EAC8
S1131C7036E004C080E090E020E030E0FA013183F7
S1131C8020830895CF9342E164E271E081E493E01C
S1131C900E949A1E81E493E00E94562181E493E01D
S1131CA00E94992142E164E271E081E493E00E94A0
S1131CB09A1EC82F40914B0350914C0360914D03E1
S1131CC070914E0381E493E00E94A9218C2FCF915F
S1131CD0089581E493E00E94562181E493E00C94FA
S1131CE0992141E065E772E081E693E00E94521E8B
S1131CF091E0811101C090E0892F089580913D0306
S1131D0090913E03A0913F03B0914003892B8A2B0D
S1131D108B2BD9F4A0916303409173035091740306
S1131D2060917503709176039A01AB0122503109D9
S1131D3041095109B0E00E94203860933D0370933B
S1131D403E0380933F039093400360913D03709161
S1131D503E0380913F039091400308951F93CF93D6
S1131D60DF9300D0CDB7DEB7E9EAF7E001900020B9
S1131D70E9F73197E95AF740FA83E98340914B0335
S1131D8050914C0360914D0370914E0381E493E0B4
S1131D900E94A92149815A819E012F5F3F4F69EA20
S1131DA077E081E493E00E94C41F182F1092A907E2
S1131DB081E493E00E94562181E0111101C080E08A
S1131DC00F900F90DF91CF911F9108958ADF8823A0
S1131DD021F08AE08093A807089561E672E084E226
S1131DE091E00E94E0384EDF6AE672E089EA97E00B
S1131DF00E94E038B3DF6DDF2FEF80E792E02150DF
S1131E0080409040E1F700C00000EDCFE9EAF7E040
S1131E1001900020E9F731979F01295A3740263F66
S1131E2091E0390708F041C08D3081F590913C0371
S1131E30F901E755F84FA9014F5F5F4F9D3021F03D
S1131E4090E29083FA011FC0D901A855B84F9C9124
S1131E50B9016E5F7F4F903279F48C939AE090834E
S1131E60FA01E755F84F8083FB01E755F84F90835B
S1131E70F901E455F84F16C08083FA01E755F84F8D
S1131E809AE09083FB01E755F84F0CC0F9018830C4
S1131E9019F4E855F84F06C0E755F84F8083F90167
S1131EA0E655F84F108280933C030895CF92DF9259
S1131EB0EF92FF920F931F93CF93DF93CDB7DEB7CB
S1131EC066970FB6F894DEBF0FBECDBF1092A90778
S1131ED008DF811147C061E080E01DDE8AE092E006
S1131EE00E94B53B8C018031974210F000E010E075
S1131EF086E7C82E82E0D82E94E2E92E91E0F92EEE
S1131F000F5F1F4F1F930F93DF92CF92FF92EF92B9
S1131F100E940E39BE016F5F7F4F84E291E00E9400
S1131F2038230F900F900F900F900F900F908823ED
S1131F3039F38430B9F40E94582CF82E0E944E2BA9
S1131F40682F8F2D0E94B42D8823A9F3833721F4A1
S1131F509091A206911103C059DF1092A20692DE5D
S1131F60882321F08AE08093A80757C0B8018AE04B
S1131F7092E00E94E33B1092A1061092A006809189
S1131F80A0069091A10680329F4B08F041C00E94A8
S1131F90582C182F0E944E2B682F812F0E94B42D8D
S1131FA0182F8823B9F032DF1092A1061092A006F0
S1131FB01D3061F0812F8D7F8C3241F08FED810FC8
S1131FC0823020F01F3311F01A3321F460E082E0F4
S1131FD0A2DDC4DE8FEC97E00197F1F700C00000AA
S1131FE08091A0069091A106893B9B4040F280918C
S1131FF0A907882321F246988FEF9DE329E48150B5
S113200090402040E1F700C00000A8DE469AB7CF18
S113201060E082E080DDA2DE5CDE66960FB6F894B6
S1132020DEBF0FBECDBFDF91CF911F910F91FF9007
S1132030EF90DF90CF90089523B123B10197E1F79A
S11320400895FC01680F791F919197FF02C02A9AA5
S113205001C02A98299A299896FF02C02A9A01C099
S11320602A98299A299895FF02C02A9A01C02A9889
S1132070299A299894FF02C02A9A01C02A98299A79
S1132080299893FF02C02A9A01C02A98299A29986C
S113209092FF02C02A9A01C02A98299A299891FF8E
S11320A002C02A9A01C02A98299A299890FF02C04E
S11320B02A9A01C02A98299A2998E617F70721F63F
S11320C008952A9AFC01680F791F93B1299A2998D7
S11320D093FB992790F9990F1B999F5F299A299847
S11320E0990F1B999F5F299A2998990F1B999F5FB4
S11320F0299A2998990F1B999F5F299A2998990FD2
S11321001B999F5F299A2998990F1B999F5F299A78
S11321102998990F1B999F5F299A29989193E617FB
S1132120F70799F608950F931F93CF93DF931F92A8
S1132130CDB7DEB708E813E161E070E0CE010196A7
S1132140C0DF89818F3F31F084E690E075DF015074
S1132150110991F781E090E0012B11F480E090E007
S11321600F90DF91CF911F910F910895CF93DF933B
S11321701F92CDB7DEB7599A61E070E0CE010196A7
S1132180A0DF0F90DF91CF910895CF93DF9300D01C
S11321901F92CDB7DEB7599861E070E0CE01019689
S11321A090DFC1DF009731F48A839B83DFDF8A816C
S11321B09B8102C081E090E00F900F900F90DF911F
S11321C0CF910895CF92DF92EF92FF920F931F93D6
S11321D0CF93DF9300D0CDB7DEB77C016B0108EE5F
S11321E013E061E070E0CE0101966BDF89818F3FDF
S11321F071F089818E3F91F4B601C70162DF62E01C
S113220070E0CE0101965DDF81E090E009C084E6D4
S113221090E012DF0150110921F7EBCF80E090E04C
S11322200F900F90DF91CF911F910F91FF90EF903E
S1132230DF90CF900895DF92EF92FF920F931F9358
S1132240CF93DF93CDB7DEB727970FB6F894DEBFF1
S11322500FBECDBF182F042FF52EE62ED72E87FFE5
S113226008C040E050E0BA0187E3E5DF823090F532
S11322701F771C3051F4812F80648983DA82EB82CA
S1132280FC820D83112359F006C070DF7EDF892B99
S113229091F78FEF1FC0183021F081E003C085E96A
S11322A001C087E88E8366E070E0CE010196C9DE46
S11322B01C3029F461E070E0CE01079602DF1AE0D9
S11322C061E070E0CE010796FCDE8F8187FF02C0DB
S11322D01150B1F727960FB6F894DEBF0FBECDBFED
S11322E0DF91CF911F910F91FF90EF90DF900895B0
S11322F0EF92FF921F93CF93DF9300D0CDB7DEB759
S11323007C01162F10DF009711F1198361E070E052
S1132310CE01019696DE1D3FC1F060E072E0C70178
S113232090DE62E070E0CE010196CBDE61E070E009
S1132330CE010196C6DE89818F7131E020E08530BF
S113234009F030E0832F922F02C081E090E00F90DB
S11323500F90DF91CF911F91FF90EF90089581111D
S113236003C080913101089581E00895EF92FF92B6
S11323700F931F93CF93DF9300D000D0CDB7DEB778
S113238081115FC080E197E257DE519A599A2998EA
S1132390219A2998229A2B9A1AE061E070E0CE01E2
S11323A001968FDE1150C9F740E050E0BA0180E099
S11323B042DF813009F06BC04AEA51E060E070E02E
S11323C088E039DF8130F1F464E070E0CE010196F9
S11323D078DE8B81813009F05AC08C818A3A09F009
S11323E056C008EE13E040E050E060E070E489EA93
S11323F022DF882341F188EE93E01EDE01501109AB
S113240091F745C040E050E0BA0189EA14DF823018
S113241018F001E011E002C009EA12E088EEE82EAB
S113242083E0F82E40E050E0BA01802F04DF8823D7
S113243031F188EE93E000DE81E0E81AF10891F7CB
S113244026C083E026C040E050E0BA018AE3F3DE10
S113245081111DC064E070E0CE01019632DE8981F5
S113246086FD02C014E001C01CE010938F0501E05A
S1132470111100E00093310179DE802F0AC040E0A1
S113248052E060E070E080E1D6DE882371F310E072
S1132490ECCF0F900F900F900F90DF91CF911F9181
S11324A00F91FF90EF900895EF92FF920F931F9377
S11324B0CF937B01BA01A901811103C0809131013D
S11324C001C081E080FD2DC080918F0583FD07C090
S11324D089E0440F551F661F771F8A95D1F7023094
S11324E0110510F4C1E101C0C2E18C2FA4DE8111F9
S11324F012C060E072E0C70165DE892B29F08EEF1F
S1132500F81A01501109A9F7C23129F440E050E04A
S1132510BA018CE090DE2ADE81E0012B19F480E020
S113252001C083E0CF911F910F91FF90EF90089528
S1132530CF92DF92EF92FF920F931F93CF93DF938B
S1132540EB0169017A01811103C08091310101C05D
S113255081E080FD43C080918F0583FD07C099E031
S1132560CC0CDD1CEE1CFF1C9A95D1F70130110533
S113257089F4B701A60188E15EDE811129C06EEFFE
S1132580CE01B6DE31E020E0892B09F030E0032FE4
S1132590122F1EC0867029F0A80160E070E087E960
S11325A04ADEB701A60189E146DE811111C06CEF54
S11325B0CE019EDE892B21F0DE5F01501109B9F7AF
S11325C06DEF80E090E094DE892B11F401E010E0DF
S11325D0CDDD81E0012B19F480E001C083E0DF91BF
S11325E0CF911F910F91FF90EF90DF90CF900895BE
S11325F00F931F93CF93DF93CDB7DEB760970FB6DA
S1132600F894DEBF0FBECDBF811103C080913101AC
S113261001C081E080FD7CC08A01613079F040F026
S1132620633009F071C080E890E0A0E0B0E065C0DC
S1132630ACDD11E0892B09F468C064C040E050E0CF
S1132640BA0189E0F8DD882311F011E05EC060E191
S113265070E0CE010196B6DD892BB9F3998192958C
S1132660969596959370888549852A859130E1F4ED
S11326708F7390E0A0E0B0E0DC01992788270196F1
S1132680A11DB11D50E0542F4427BA01620F711DE2
S1132690860F971FA11DB11D7AE0880F991FAA1FED
S11326A0BB1F7A95D1F729C042954695469543704C
S11326B0F4E08F9FC0011124840F911D01964F8176
S11326C0437050E0542F4427550F550F840F951F26
S11326D0A0E0B0E03E81432F4F703B85331F33278A
S11326E0331F340F2370220F230F275004C0880F89
S11326F0991FAA1FBB1F2A95D2F7F80180839183E3
S1132700A283B38310E001C014E030DD812F01C047
S113271083E060960FB6F894DEBF0FBECDBFDF91A5
S1132720CF911F910F910895CF93DF93EB01DC01BB
S1132730FA01E230F10530F0299139912D933D935E
S11327403297F7CF9A012E7FDC01A20FB31FFB0152
S1132750E20FF31F40FF02C020812C93DF91CF9141
S113276008950F931F93CF93DF938B01FB01399649
S1132770DC011E964D915D916D917C915197452B95
S1132780462B472BA9F15296CD91DC915397AE017C
S113279080E090E03EE20196DA012D91AD01203215
S11327A051F0253009F425EE8930910511F4308378
S11327B03196208331968B30910569F78B85D8014A
S11327C018968C9318974C8D5D8D6E8D7F8D4D93DF
S11327D05D936D937C931397888D998D15969C9337
S11327E08E9314978E899F8917969C938E93169730
S11327F01082DF91CF911F910F910895FC012081E8
S1132800318121153105B1F0F901BF014191413206
S113281070F04A33D1F7F90141916E177F0751F4F3
S1132820403341F42E5F3F4FFC013183208380E02D
S113283090E008958FEF9FEF08950097C1F0DC01B9
S1132840ED91FC911197309791F02081222379F03A
S11328502681378112968D919C91139728173907F9
S113286031F481817CDD80FD04C080E0089589E03D
S1132870089583E008958F929F92AF92BF92CF9272
S1132880DF92EF92FF920F931F93CF93DF93FC019C
S11328902481211102C080E040C0EC01C2A4D3A471
S11328A0E4A4F5A45C01FEE2AF0EB11C01E010E06B
S11328B0A7019601B50189813BDE81112DC01C82DF
S11328C08E8D9F8DA8A1B9A1B701A601481B590BF4
S11328D06A0B7B0B8E899F89A88DB98D4817590780
S11328E06A077B07C0F68B80912CE2E08E16910478
S11328F090F28E899F89A88DB98DC80ED91EEA1EC3
S1132900FB1E01E010E0A7019601B501898110DEEC
S113291081E0881A9108E9CF81E0DF91CF911F917E
S11329200F91FF90EF90DF90CF90BF90AF909F906A
S11329308F9008950F931F93CF93DF93EC019BDF48
S1132940982F81115AC08881833009F04DC08D8140
S1132950813009F049C0BE01625D7F4FFB01CE01A9
S1132960825D9D4FE817F90711F01192FBCF85E5C1
S11329709AEAFE01E45DFD4F9183808382E592E54E
S1132980A1E6B1E48EA79FA7A8ABB9AB82E792E713
S1132990A1E4B1E67A9780839183A283B3838E8581
S11329A09F85A889B989349680839183A283B38350
S11329B08A859B85AC85BD85349680839183A2836B
S11329C0B3838A8D9B8DAC8DBD8D9C01AD012F5F32
S11329D03F4F4F4F5F4F2AA73BA74CA75DA701E08E
S11329E010E08981A5DD1D8240E050E060E089812E
S11329F0FFDD91E0811101C090E0892FDF91CF913B
S1132A001F910F9108958F929F92AF92BF92FF9260
S1132A100F931F93CF93DF93EC014A015B018AA5C7
S1132A209BA5ACA5BDA5481759076A077B07D9F034
S1132A30CE0121DFF82E811117C001E010E0A501BD
S1132A409401BE01625D7F4F89812EDD882331F0C0
S1132A50FF24F39488248A94982C54018AA69BA674
S1132A60ACA6BDA601C0F12C8F2DDF91CF911F9193
S1132A700F91FF90BF90AF909F908F900895CF9348
S1132A80DF93EC011C828FEF9FEFDC018AA79BA7E9
S1132A90ACA7BDA7CE01B7DF811122C0FE01E45D62
S1132AA0FD4F8081918185359A4AE1F4E85CF140DB
S1132AB080819181A281B381BB2786349144A4454E
S1132AC0B10591F0C058DF4F488159816A817B81FB
S1132AD0772781E0463451446445710531F404C0DC
S1132AE083E003C082E001C080E0DF91CF910895CC
S1132AF02F923F924F925F926F927F928F929F920A
S1132B00AF92BF92CF92DF92EF92FF920F931F93F7
S1132B10CF93DF93CDB7DEB76D970FB6F894DEBFD2
S1132B200FBECDBF5C01CB01D42ED5011D921C92EA
S1132B3065DE7C0197FD18C2FC01EE0FFF1FEE5607
S1132B40FA4F008111810115110509F40FC2F50135
S1132B5011830083D8018C91882361F011968C91A4
S1132B60FEDB80FD07C0DD2009F402C282FF00C243
S1132B708AE003C2F8011082E1828E2DF7DB80FD2A
S1132B80F9C1DD2011F082FDF3CF40E050E0BA013D
S1132B90C80175DF8130C9F5F801E051FE4F9E018F
S1132BA02F5F3F4F6901C801805D9D4FD90120818E
S1132BB0222329F0448155816681778103C040E056
S1132BC050E0BA014D935D936D937D937096E81731
S1132BD0F90769F77E0131E1E30EF11CD6014D904E
S1132BE05D906D907D906D014114510461047104F8
S1132BF039F0B301A201C80142DF811102C00FC044
S1132C0082E0CE14DF0451F703C0412C512C320171
S1132C10833009F4B1C1882311F08DE0AEC1F8010D
S1132C2081AD92AD81159240C1F7F801EC5BFF4F85
S1132C3080809180A12CB12C81149104A104B10451
S1132C4029F43E9680809180A280B380D801569664
S1132C508D929D92AD92BC925997DE964C91DE97DF
S1132C6013964C9313978FEF840F8230B0F6DB9654
S1132C70EC91DB97E98B1296EC931297EE2369F2B1
S1132C808E2F90E09C012150310982239323892BBC
S1132C9021F6F801FF962080318019963C922E92FD
S1132CA01897C1018F709927892B09F0B6CF3296F6
S1132CB0C080D180E12CF12CC114D104E104F104D1
S1132CC029F43D96C080D180E280F380D801DC965F
S1132CD0ED91FC91DD97309709F49FCFA42FB0E0DC
S1132CE0A50194010E9420386E8B7F8B888F998F69
S1132CF09F0140E050E02A8F3B8F4C8F5D8FC101D4
S1132D0064E0969587956A95E1F7280F391F411D70
S1132D10511DDA01C9012E893F89488D598D280F2B
S1132D20391F4A1F5B1F2A8B3B8B4C8B5D8BC21652
S1132D30D306E406F50608F470CFC701B601621B9A
S1132D40730B840B950BE9892E2F30E040E050E0A3
S1132D500E94FE37211531054105510509F45DCF67
S1132D60263FFFE03F074105510548F0263F8FEF1E
S1132D7038074105510530F492E0998B05C0A1E074
S1132D80A98B02C0B3E0B98B69017A01E2E0CE0EEF
S1132D90D11CE11CF11CD8015296CD92DD92ED922A
S1132DA0FC925597F801428E538E648E758E8A8DEF
S1132DB09B8DAC8DBD8D840D951DA61DB71D868F75
S1132DC0978FA0A3B1A34A895B896C897D89440D3F
S1132DD0551D661D771D46A357A360A771A7F989E2
S1132DE0F330B9F4232809F018CFF801E65AFF4F5D
S1132DF080819181A281B381F80182A393A3A4A3CA
S1132E00B5A342E0CC0CDD1CEE1CFF1C4A95D1F7A7
S1132E102DC0232809F401CF2E893F89488D598D6F
S1132E20820F931FA41FB51FF80182A393A3A4A329
S1132E30B5A3F989F23029F4CC0CDD1CEE1CFF1C7F
S1132E4015C0A3E0B0E0A70196010E942038DC0180
S1132E50CB01B695A7959795879521E0C222DD24ED
S1132E60EE24FF24C80ED91EEA1EFB1E3FEFC30E3C
S1132E7031E0D31EE11CF11C89E0F694E794D79469
S1132E80C7948A95D1F78C149D04AE04BF0408F44A
S1132E90C4CE8FEF9FEFDC01F80186879787A08B64
S1132EA0B18B82879387A487B58780E88583F98966
S1132EB0F33009F048C0F801E25AFF4F8081918154
S1132EC0019709F040C0B301A2014F5F5F4F6F4FFC
S1132ED07F4FC80198DD811136C0D80115961C9228
S1132EE0F801E45DFD4F8081918185359A4A59F559
S1132EF0F80186A597A5A0A9B1A982359245A14656
S1132F00B14409F5F801EE5EFD4F80819181A28103
S1132F10B38182379247A144B146A9F434968081A3
S1132F209181A281B381F80186879787A08BB18BA9
S1132F30E65EFD4F80819181A281B381F801828791
S1132F409387A487B587E989D801EC93809190058C
S1132F509091910501969093910580939005179611
S1132F609C938E93169704C08BE007C08CE005C039
S1132F7080E003C083E001C081E06D960FB6F89451
S1132F80DEBF0FBECDBFDF91CF911F910F91FF9098
S1132F90EF90DF90CF90BF90AF909F908F907F90F5
S1132FA06F905F904F903F902F9008950F931F93D1
S1132FB0FC019A01AB01225031094109510982896E
S1132FC09389A489B5890297A109B10928173907FA
S1132FD04A075B0768F4A281B0E00E94203806A18A
S1132FE017A120A531A5600F711F821F931F03C075
S1132FF060E070E0CB011F910F910895AF92BF92F2
S1133000CF92DF92EF92FF920F931F93CF93DF93B0
S11330108C016A017B01423051056105710508F498
S1133020A9C0F80182899389A489B58948175907E9
S11330306A077B0708F09EC08081823009F44BC088
S1133040833009F46BC0813009F094C0EA01D6954D
S1133050C795CC0DDD1DCE01892F99278695468D08
S1133060578D60A171A1480F591F611D711DC801C1
S1133070CADC882321F06FEF7FEFCB017FC05E01B4
S1133080FFEFAF1ABF0AD170C00FD11FCEA5C50183
S1133090892F99278695F801468D578D60A171A1D6
S11330A0480F591F611D711DC801ADDC8111E3CFAB
S11330B0F1E0BF22F801EA0DFB1D86A56C2F70E03C
S11330C0782BC0FE06C054E0769567955A95E1F7D3
S11330D022C07F7020C077276F2D5E2D4D2DF80103
S11330E0868D978DA0A1B1A1480F591F6A1F7B1F20
S11330F0C80189DC8111BFCFCC0CDD1CEE1CFF1C88
S1133100E894C0F8F1E0DF22EE24FF24F801EC0D8E
S1133110FD1D66A577A580E090E030C0F801868D9E
S1133120978DA0A1B1A127E076956795579547950E
S11331302A95D1F7480F591F6A1F7B1FC80163DC0A
S1133140811199CF82E0CC0CDD1CEE1CFF1C8A950A
S1133150D1F7FCEFCF22F1E0DF22EE24FF24F801C7
S1133160EC0DFD1D86A597A5A0A9B1A9BC01CD01B3
S11331709F7004C061E070E080E090E0DF91CF9147
S11331801F910F91FF90EF90DF90CF90BF90AF9081
S11331900895AF92BF92CF92DF92EF92FF920F9376
S11331A01F93CF93DF938C01EB01DC0115967C9385
S11331B06E9314971696CD90DD90ED90FC90199730
S11331C0B1E0CB16D104E104F10411F482E087C02C
S11331D0DC01ED91FC9182899389A489B589C81693
S11331E0D906EA06FB0690F7C114D104E104F10400
S11331F0B9F48081833041F482A193A1A4A1B5A143
S11332000097A105B10551F480859185C817D907A8
S1133210E8F662A173A184A195A132C06C017D017D
S1133220A280B0E1AB9E50011124B701A601F801C0
S113323080819181CA15DB0500F1E0DEAB01BC01A0
S11332404F3FEFEF5E076E077E0709F447C0423039
S113325051056105710508F4B9CFD801ED91FC91D0
S113326082899389A489B589481759076A077B0716
S113327008F0ACCFCA19DB09DACF6A017B0196DE0C
S1133280D8011A96CD92DD92ED92FC921D976115AC
S113329071058105910509F499CF9E0144E03695A5
S11332A027954A95E1F7DC01CB01820F931FA11DFD
S11332B0B11DF80186879787A08BB18BCF70DD276E
S11332C055E0CC0FDD1F5A95E1F7AE9680819181D0
S11332D0C80FD91FD38BC28B80E001C081E0DF917E
S11332E0CF911F910F91FF90EF90DF90CF90BF90FF
S11332F0AF9008952F923F924F925F926F927F9278
S11333008F929F92AF92BF92CF92DF92EF92FF92F1
S11333100F931F93CF93DF9300D000D0CDB7DEB7C8
S11333201C016A017B012801390142305105610504
S1133330710508F4E0C0FC0182899389A489B589E8
S1133340481759076A077B0708F0D5C08081823087
S113335009F471C0833009F492C0813009F0CBC004
S11333605A01B694A794A40EB51EC501892F9927B6
S11333708695468D578D60A171A1480F591F611D17
S1133380711DC10140DB8111B7C04501FFEF8F1AE8
S11333909F0A21E0B222A20CB31CA701960121705E
S11333A033274427552729833A834B835C83C0FE04
S11333B00BC0D5019E968C91282F2F70B0E14B9EA7
S11333C0C0011124822B01C0842DF50186A781E060
S11333D0D10114968C9314975E964D915D916D91E5
S11333E07C919197C401892F99278695480F591F7D
S11333F0611D711DC10107DB81117EC0B1E09B22FB
S1133400F101E80DF91D29813A814B815C81232B5F
S1133410242B252B41F054E07694679457944794D9
S11334205A95D1F706C026A5207F952D9F70422E70
S1133430492A46A65BC077276F2D5E2D4D2DF101DD
S1133440868D978DA0A1B1A1480F591F6A1F7B1FBC
S1133450C101D9DA811150C0CC0CDD1CEE1CFF1C5B
S1133460E894C0F8F1E0DF22EE24FF242EE2C20E3D
S1133470D11CF101EC0DFD1D5182408237C0F101D8
S1133480868D978DA0A1B1A127E076956795579574
S113349047952A95D1F7480F591F6A1F7B1FC10111
S11334A0B2DA811129C092E0CC0CDD1CEE1CFF1CA9
S11334B09A95D1F7FCEFCF22F1E0DF22EE24FF242E
S11334C02EE2C20ED11CF101EC0DFD1D4081518193
S11334D062817381442755276627707F442A552AC1
S11334E0662A772A408251826282738291E0D101F6
S11334F014969C9301C082E00F900F900F900F9050
S1133500DF91CF911F910F91FF90EF90DF90CF90BB
S1133510BF90AF909F908F907F906F905F904F90EF
S11335203F902F9008954F925F926F927F928F9267
S11335309F92AF92BF92CF92DF92EF92FF920F933E
S11335401F93CF93DF93EC012A013B0141155105F1
S11335506105710599F48A849B84AC84BD848114CB
S11335609104A104B10459F18A899B89AC89BD896C
S113357088169906AA06BB0630F121C03FDD6B010F
S11335807C01623071058105910508F48AC08FEFD2
S1133590C816D806E806F80629F46FEF7FEF8FEF18
S11335A09FEF86C08A899B89AC89BD89C816D906D4
S11335B0EA06FB0608F47AC05301420104C0812CD8
S11335C0912C54018394750164012FEFC21AD20A1D
S11335D0E20AF20A8A899B89AC89BD89C816D90690
S11335E0EA06FB0668F082E088169104A104B1049F
S11335F010F460E057C082E0C82ED12CE12CF12CED
S1133600B701A601CE01FADC8B019C01672B682B64
S1133610692BA1F00F3F8FEF18072807380729F00F
S1133620013011052105310519F4B801C90140C063
S1133630C814D904EA04FB0441F6DBCF0FEF1FEFF3
S11336402FEF3FE0B701A601CE0154DE811126C061
S11336504114510461047104C9F4CA86DB86EC8602
S1133660FD868E859F85A889B9898F3F2FEF9207A4
S1133670A207B207D9F00197A109B1098E879F87E4
S1133680A88BB98B8D8181608D8310C097018601D1
S1133690B301A201CE012EDE8823F9F2813009F4B0
S11336A07CCF61E070E080E090E002C0B601C70129
S11336B0DF91CF911F910F91FF90EF90DF90CF900A
S11336C0BF90AF909F908F907F906F905F904F903E
S11336D008957F928F929F92AF92BF92CF92DF9282
S11336E0EF92FF920F931F93CF93DF93EC016B0143
S11336F0EC80FD808FEFE81AF80A11F484E0DBC057
S11337004E855F8568897989411551056105710583
S1133710A9F387010F7011270115110509F0B9C02C
S11337204F5F5F4F6F4F7F4F4E875F87688B798BFB
S11337304A855B856C857D8588819981FC0141156D
S113374051056105710531F480859185E816F90606
S1133750A8F69FC0228130E021503109F701A4E08E
S1133760F695E795AA95E1F72E233F23232B09F03D
S113377090C044DC4B015C01623071058105910508
S113378010F482E098C08FEF88169806A806B80651
S113379011F481E090C088819981FC0142895389A8
S11337A06489758984169506A606B70608F464C06C
S11337B0CD2809F4A3CF4A855B856C857D85B3DE6E
S11337C04B015C01611571058105910509F472C015
S11337D06130710581059105A1F28FEF8816980675
S11337E0A806B806B1F28881998145D88111D1CF54
S11337F088819981FC01BE96825D9D4FE817F90787
S113380011F01192FBCFC880D980B501A401C60183
S1133810CDDBF60162A773A784A795A7C12CD12C91
S113382077247394E881F981828190E0C816D906DF
S1133830B8F47482888199811ED88111AACFE88155
S1133840F98182A593A5A4A5B5A50196A11DB11DD5
S113385082A793A7A4A7B5A7FFEFCF1ADF0AE2CFE9
S113386082A593A5A4A5B5A58C199D09A109B109A3
S113387082A793A7A4A7B5A78A869B86AC86BD8694
S1133880B501A4018881998191DB6E877F87888B3C
S1133890998BFD82EC8285E0000F111F8A95E1F778
S11338A0025D1F4F88819981080F191F1B8B0A8B9A
S11338B080E001C087E0DF91CF911F910F91FF90CD
S11338C0EF90DF90CF90BF90AF909F908F907F90BC
S11338D008954F925F926F927F929F92AF92BF92A0
S11338E0CF92DF92EF92FF920F931F93CF93DF93C8
S11338F0EC018B01DB018C918F3211F08C3511F4CA
S11339000F5F1F4F1E821F8218861986F80180815F
S1133910803228F070E2A72EE5E0BE2E62C060E09F
S113392070E0CE0136DC1B8A1A8AF4C0820120E0E2
S113393030E080E090E048E050E0912C0196D8011E
S11339407D918D01713208F063C08201080F191F47
S1133950713208F487C080E0232B09F4B7C090814A
S1133960953E09F4B0824830510511F4990C990C34
S1133970992D9370913009F48061992D9C70943045
S113398009F48860838760E070E0CE0102DC88235C
S113399009F46AC0EC89FD89938581118EC092FD7A
S11339A091C04A895B89FA01838584FF8DC0828D29
S11339B0938DA0E0B0E028813981F9012081233082
S11339C061F4FA014489558960E070E0BA01552731
S11339D04427842B952BA62BB72B8E839F83A887F4
S11339E0B9872801D8019C910F5F1F4F9F32C9F3FB
S11339F09C35B9F3EC89FD89CF019F01255F3F4FC9
S1133A008217930709F492CFDC01AD92CD01F8CF70
S1133A107F3209F49ACF7C3509F497CF7E3209F4CA
S1133A2057C02417350708F051C077FF09C0B92DD6
S1133A30B3609B2E672F70E06E5E7D4FDB017C913F
S1133A40C72ED12C63E8E62E62E0F62ED7016D91E5
S1133A507D01662309F446C0662E712C6C147D0426
S1133A60A9F734C084E078CF4E855F856889798969
S1133A70888199810E94031581118CCFEA89FB8981
S1133A8080818823B1F0838583FD0EC0AC89BD8914
S1133A90AF01455F5F4FE417F50769F081912D9100
S1133AA090E0821B9109B9F360E070E0CE0111DE71
S1133AB06ECF84E06FCF80E06DCF843059F592FFF4
S1133AC003C028C080E026C085E024C086E022C070
S1133AD048305105D9F7990C990C28E030E04BE0B7
S1133AE050E02CCF6FEB670F6A3120F4B92DB26030
S1133AF09B2E08C06FE9670F6A3120F4692D61605D
S1133B00962E70527F01E20EF31ED7017C932F5F35
S1133B103F4F14CFDF91CF911F910F91FF90EF9002
S1133B20DF90CF90BF90AF909F907F906F905F9009
S1133B304F9008951F93CF93DF93EC0160E070E002
S1133B4028DB182F811117C04E855F856889798914
S1133B50888199810E940315182F81110CC0EA896C
S1133B60FB898081853E59F0882349F061E070E04B
S1133B70CE01AFDDE6CF143011F517E020C04E853D
S1133B805F8568897989888199810E940315182F36
S1133B90811115C0EA89FB89CF018096E817F907DE
S1133BA011F01192FBCF6C897D894BE050E08A893A
S1133BB09B890E949413E881F98181E08483812F99
S1133BC0DF91CF911F9108958F929F92AF92BF92F0
S1133BD0CF92DF92EF92FF920F931F93CF93DF93D5
S1133BE0EC016A017B01423051056105710510F455
S1133BF082E04BC08A899B89AC89BD8948175907E3
S1133C006A077B07A8F78A899B89AC89BD89C8168E
S1133C10D906EA06FB0650F4B701A601CE01EED997
S1133C204B015C01672B682B692B11F480E02DC0DC
S1133C3081E088169104A104B104D1F22FEF821619
S1133C409206A206B20601F100E010E09801B70165
S1133C50A601CE014FDB811118C08E859F85A889EE
S1133C60B9898F3F2FEF9207A207B20751F001964F
S1133C70A11DB11D8E879F87A88BB98B8D81816013
S1133C808D8375016401BFCF81E0DF91CF911F91D6
S1133C900F91FF90EF90DF90CF90BF90AF909F90E7
S1133CA08F900895CF93DF93CDB7DEB727970FB6E4
S1133CB0F894DEBF0FBECDBF9C838B837E836D8360
S1133CC07A836983CE0101964F830E94FE134F814C
S1133CD097FD24C0880F991FFC01EE56FA4F0190FE
S1133CE0F081E02D309709F01082EB81FC81309750
S1133CF009F010822B813C81FC01EE56FA4F31838E
S1133D002083232B69F0413059F440E0BE016B5FFE
S1133D107F4FCE0103960E94781503C08BE001C04B
S1133D2080E027960FB6F894DEBF0FBECDBFDF91BB
S1133D30CF9108954F925F926F927F928F929F924C
S1133D40AF92BF92DF92EF92FF920F931F93CF93A4
S1133D50DF93CDB7DEB7A4970FB6F894DEBF0FBEDE
S1133D60CDBF7CA36BA3009709F4F1C0B42E7C01F2
S1133D70DC011D921C924E71BE016D5D7F4FCE0120
S1133D8001960E9478158111E9C0CE0147969E8B59
S1133D908D8B6BA17CA146979CDD0B891C898111BD
S1133DA004C00115110509F486E0BB2DBF71DB2E9B
S1133DB09B2D9C7109F46DC0882369F0843019F43B
S1133DC0CE010196B7DEED2DE860DE2E0B891C894D
S1133DD0882349F0C3C0D8011B968C91817109F0E6
S1133DE0BCC0B2FCB6C0D3FE5FC080E090E0A9E6E0
S1133DF0B5E4F80186879787A08BB18B1386D80129
S1133E00148E158E168E178EE981FA815A968D902E
S1133E109C905B97A12CB12C8081833069F45496DB
S1133E204D915C91559760E070E0BA0155274427A5
S1133E30842A952AA62AB72AD8015B961C921E9238
S1133E405A9755961C921E92549781E0848381144C
S1133E509104A104B10441F142A453A464A475A43F
S1133E60B501A401CF01B0DE811178C089819A81A6
S1133E70B1E08B1A9108A108B108FC0182869386EF
S1133E80A486B586B301A2010E940315882361F0BC
S1133E9065C0811163C0D8011B968C9184FD5BC001
S1133EA0B1FE02C080FD59C0D3FE03C0BD2DB06277
S1133EB0DB2EA980BA80F50142A553A564A575A59A
S1133EC0D7015A964D935D936D937C935D975F965E
S1133ED01C930E935E971496DC92149715961C927D
S1133EE0F801828D938DA0E0B0E0F50120812330AC
S1133EF061F4F8014489558960E070E0BA015527FE
S1133F004427842B952BA62BB72BF70186879787FD
S1133F10A08BB18BF801848D958DA68DB78DF7019B
S1133F2082879387A487B5871682178210861186A5
S1133F30168A178A108E118EB182A082D501169628
S1133F408D919C9117979383828380E007C089E0C9
S1133F5005C088E003C084E001C087E0A4960FB6E2
S1133F60F894DEBF0FBECDBFDF91CF911F910F91AB
S1133F70FF90EF90DF90BF90AF909F908F907F90D5
S1133F806F905F904F9008952F923F924F925F925F
S1133F906F927F928F929F92AF92BF92CF92DF9255
S1133FA0EF92FF920F931F93CF93DF93EC015B018A
S1133FB06A011901F901118210820E941D148111F4
S1133FC062C18D8181115FC18C8181FF5BC18E8152
S1133FD09F81A885B985AC01BD014C0D5D1D611D96
S1133FE0711D481759076A077B0708F0A3C0C12C45
S1133FF0D12CA0C04E815F8168857985DB01CA011F
S11340009170AA27BB27892B8A2B8B2B09F00AC115
S1134010E881F981228121502A013B01A9E07694AB
S1134020679457944794AA95D1F7122F142109F451
S113403086C088819981FC0142A453A464A475A418
S11340404E895F89688D798D441655066606770614
S113405009F4C6C0888099804A895B896C897D8906
S1134060C4010E94D617611571058105910509F4F3
S11340709AC02B013C01410E511C611C711C76013C
S1134080EF2CFF24E694E114F10409F4AFC0F40129
S11340908281212F30E0A701420F531F90E0841743
S11340A0950718F47C01E21AF30A8701A30192012F
S11340B0B501F40181810E94981281117CC088812C
S11340C09981FC0142A553A564A575A54419550918
S11340D0660977092701612C712C4415550566057D
S11340E0770570F4542F4427550FB501640F751FDD
S11340F040E052E08E960E949413E881F981148284
S1134100FE2CEE24FF0CAE0CBF1C8E819F81A88573
S1134110B9858E0D9F1DA11DB11D8E839F83A88718
S1134120B987F101808191818E0D9F1D91838083D8
S1134130CE18DF08C114D10409F05CCF1CC0452B94
S1134140462B472B69F46E857F858889998961158B
S113415071058105910511F540E050E0BA0104C0F4
S11341604A895B896C897D89CF01DDD96115710527
S11341708105910599F48E819F81A885B9854A8529
S11341805B856C857D85481759076A077B0708F0AE
S113419074C08A879B87AC87BD876FC06130710507
S11341A08105910511F482E007C06F3FFFEF7F079F
S11341B08F079F0719F481E08D8365C06A8B7B8B21
S11341C08C8B9D8B4E845F8468887988452846282B
S11341D0472809F02ECF6E877F87888B998B29CF4C
S11341E00E943B14882309F435CFE5CF4E815F81CB
S11341F0688579858A859B85AC85BD85481759076F
S11342006A077B0758F0C4010E943B148111D3CF85
S1134210E881F98142A653A664A675A64E8A5F8AF0
S1134220688E798E8E819F81917020E032E0281B08
S1134230390B76012C153D0508F479014E895F8907
S1134240688D798D888199810E9403158111B3CF7E
S11342508E819F81A885B9859170AA27BB278E96E8
S113426028813981A701B501820F931F0E949413FD
S1134270E881F98131E0348346CF8C8180628C837C
S113428080E001C087E0DF91CF911F910F91FF90F3
S1134290EF90DF90CF90BF90AF909F908F907F90E2
S11342A06F905F904F903F902F900895CF93DF933E
S11342B0EC010E941D14811139C09C8195FF36C008
S11342C04A8D5B8D6C8D7D8D888199810E9403154B
S11342D081112CC0EE8DFF8D8385806283878A8552
S11342E09B85AC85BD85848F958FA68FB78F8E8572
S11342F09F85A889B989938F828FB58BA48B80E021
S113430090E0A9E6B5E4868B978BA08FB18F138AD2
S1134310128A8C818F7D8C83E881F98181E084838A
S113432088819981DF91CF910C949A14DF91CF9178
S11343300895CF93DF93EC01B9DF811107C0CE015B
S11343400E941D14811102C019821882DF91CF913D
S113435008952F923F924F925F926F927F928F9225
S11343609F92AF92BF92CF92DF92EF92FF920F9300
S11343701F93CF93DF9300D000D0CDB7DEB71C01DD
S11343806A017B010E941D1481115BC1D101159644
S11343908C911597811155C11A968D919D910D900F
S11343A0BC91A02D8C159D05AE05BF0530F4F1011F
S11343B0248121FD02C06C017D01D10116964D902E
S11343C05D906D907C901997F1011682178210868A
S11343D01186C114D104E104F10421F4C12CD12CBF
S11343E0760102C100811181F8018280912CA12CF7
S11343F0B12C39E0880C991CAA1CBB1C3A95D1F746
S1134400411451046104710409F43FC0F1E04F1AEE
S1134410510861087108C701B60161507109810929
S11344209109A50194010E94FE3729833A834B83A5
S11344305C83C301B201A50194010E94FE37898106
S11344409A81AB81BC8182179307A407B507E8F072
S113445088279927DC0188199909AA09BB094822E8
S113446059226A227B22D10116964D925D926D9259
S11344707C921997C418D508E608F70852964D910E
S11344805D916D917C91559731C0F10146855785B9
S113449060897189411551056105710511F540E087
S11344A050E0BA01C8013FD8AB01BC01413051050D
S11344B06105710529F482E0D10115968C93C1C080
S11344C04F3FBFEF5B076B077B0721F481E0F101EE
S11344D08583B7C0D1011E964D935D936D937C93F4
S11344E05197F101428B538B648B758B41155105A8
S11344F06105710509F472CF8C149D04AE04BF04E8
S113450008F046C0D10114962C9114978D919C917A
S113451021FF09C008D8AB01BC0141155105610553
S1134520710529F433C00E94FE17AB01BC014F3F53
S1134530BFEF5B076B077B0749F24230510561050A
S1134540710508F4B8CFD101ED91FC91828993896A
S1134550A489B589481759076A077B0708F0ABCFC8
S1134560F101428B538B648B758B86819781A08577
S1134570B185880D991DAA1DBB1D86839783A087CD
S1134580B187C818D908EA08FB08B6CF75016401D9
S1134590F10186819781A085B1858C0D9D1DAE1D8D
S11345A0BF1D86839783A087B187D701C601917009
S11345B0AA27BB27892B8A2B8B2B09F40FCF808149
S11345C091810E94D617611571058105910509F441
S11345D072CF29E0F694E794D794C7942A95D1F73B
S11345E0C60ED71EE81EF91EF10186819781A085AB
S11345F0B185AC01BD01517066277727452B462B49
S1134600472B69F046895789608D718DC416D5068C
S1134610E606F70621F0C68AD78AE08EF18EF1010C
S11346204285538564857585481759076A077B0752
S113463038F482879387A487B587848180628483D2
S113464080E00F900F900F900F90DF91CF911F910A
S11346500F91FF90EF90DF90CF90BF90AF909F901D
S11346608F907F906F905F904F903F902F90089520
S1134670EF92FF921F93CF93DF93CDB7DEB7A4974A
S11346800FB6F894DEBF0FBECDBF9CA38BA37B01F6
S113469040E0BE016D5D7F4FCE0101960E9478150A
S11346A0182F811119C0CE0147969E8B8D8B6BA15B
S11346B07CA146970ED9182F81110EC08B899C8935
S11346C0892B49F0E114F10439F0B701CE010196C8
S11346D00E94B11301C016E0812FA4960FB6F8947E
S11346E0DEBF0FBECDBFDF91CF911F91FF90EF9042
S11346F00895BF92CF92DF92EF92FF920F931F9390
S1134700CF93DF93EC01B62EC8A0DF8CEE8CFD8C2A
S11347100BA11AA10E947E0EC616D706E806F9065A
S113472068F080913401807F85608093340181E258
S113473080933E0110923F0180E022C09801B701AE
S1134740A601CE01BB2011F079D201C0D1D1C8019C
S1134750A0E0B0E029E0880F991FAA1FBB1F2A958B
S1134760D1F74C895D896E897F898A019B01081B79
S1134770190B2A0B3B0B0C8B1D8B2E8B3F8B81E073
S1134780DF91CF911F910F91FF90EF90DF90CF9029
S1134790BF900895CF92DF92EF92FF920F931F93F1
S11347A0CF93DF93CDB7DEB728970FB6F894DEBF6B
S11347B00FBECDBF8C01FC01838D8D3109F4C2C0C5
S11347C088F4823109F138F4882309F4FFC0833076
S11347D009F450C00AC18A3109F4DEC08B3109F4EE
S11347E0FEC003C1883209F4C8C038F48E3109F41C
S11347F0F6C0853209F466C0F8C08A3209F4B2C042
S11348008F3209F4ECC0F1C0F801E78CF68C848D8A
S1134810837019F4858D882341F080913401807F61
S113482085608093340184E2E7C06701F5E2EF1606
S1134830F10418F094E2C92ED12C40E050E0B60106
S113484082E193E00E947C3260E070E0C7018C1941
S11348509D090E943E328091E8008E778093E800A3
S1134860F80184899589A689B7898C199D09A109BC
S1134870B109A7C0F801F78CEF2CF2E1FF1510F491
S113488082E1E82ECE2CD12C40E050E0B60182E348
S113489091E00E947C328F2D90E060E070E08C19F2
S11348A09D090E943E328091E8008E778093E80053
S11348B0F80184899589A689B7898E199109A10976
S11348C0B1097FC014D2811108C080913401807F66
S11348D08260809334018AE38FC08091A80781307D
S11348E0A1F780E092E0A0E0B0E089839A83AB83F3
S11348F0BC830E947E0EDC01CB010197A109B109A2
S11349008D839E83AF83B88740E050E064E070E01D
S1134910CE0105960E94C63240E050E064E070E0AB
S1134920CE0101960E94C6328091E8008E77809372
S1134930E800F80184899589A689B7890897A109AF
S1134940B1093FC0F801848D82FF67CFD0D18111B6
S113495046C080913401807F84608093340110923A
S11349603E014CC0C4D1882309F4AFCF8091A8077D
S1134970813009F0AACF60E00AC0B9D1882309F4D4
S1134980A4CF8091A807813009F09FCF61E0C801CE
S1134990B0DE811136C040C01092F1001092F100D7
S11349A01092F1001092F1008091E8008E778093CC
S11349B0E800F80184899589A689B7890497A10933
S11349C0B109848B958BA68BB78B1BC090D18823A0
S11349D009F47BCF8091A807813009F076CFF801E4
S11349E0148A158A168A178A0CC080913401807F34
S11349F085608093340180E280933E0110923F01F0
S1134A000BC080913401807F8093340110923E0169
S1134A1010923F0181E001C080E028960FB6F8941F
S1134A20DEBF0FBECDBFDF91CF911F910F91FF90DD
S1134A30EF90DF90CF90089580E00E94B61181112D
S1134A4004C081E08093940508951092940508951C
S1134A500F931F93CF93DF938C01EB018091E800B8
S1134A6085FF36C08091F100F801EC0FFD1F8083B3
S1134A708091F10081838091F10082838091F10023
S1134A8083838091F10084838091F10085838091F8
S1134A90F10086838091F10087838091F100808703
S1134AA08091F10081878091F10082878091F100EB
S1134AB083878091F10084878091F10085878091BC
S1134AC0F10086878091F100878780E190E00BC038
S1134AD09091E8009B779093E8000E94003588232A
S1134AE009F280E090E0DF91CF911F910F9108953A
S1134AF08F929F92AF92BF92CF92DF92EF92FF92EA
S1134B000F931F93CF93DF936C014A015B017901EB
S1134B100E940035811133C0E114F10431F12E9863
S1134B20C0E0D0E0BE0189EA97E092DFC80FD91F48
S1134B308091ED09843019F5F60180AD81111FC013
S1134B40C115F2E0DF0770F301E010E0A501940164
S1134B5069EA77E00E9498128FEF881A980AA80AE7
S1134B60B80AE1E0EE1AF108D7CF8091E80085FD9C
S1134B7005C08091E8008B778093E8002E9ADF913E
S1134B80CF911F910F91FF90EF90DF90CF90BF9046
S1134B90AF909F908F900895EF92FF921F93CF93C1
S1134BA0DF937C01EB019091E800192F107295FFBF
S1134BB035C0F701EC0FFD1F80818093F1008181E6
S1134BC08093F10082818093F10083818093F100CE
S1134BD084818093F10085818093F10086818093A4
S1134BE0F10087818093F10080858093F1008185B5
S1134BF08093F10082858093F10083858093F10096
S1134C0084858093F10085858093F1008685809367
S1134C10F10087858093F10010E109C09091E800CC
S1134C209E779093E8000E940035882311F2812F2B
S1134C30DF91CF911F91FF90EF9008958F929F92F3
S1134C40AF92BF92CF92DF92EF92FF920F931F9396
S1134C50CF93DF936C014A015B0179010E94003517
S1134C60811138C0E114F10459F12E9801E010E0EB
S1134C70A501940169EA77E080E00E945412C0E043
S1134C80D0E0BE0189EA97E087DFC80FD11DF601A5
S1134C9080AD81111FC08091ED09843021F08AE03C
S1134CA08093A80717C0C115F2E0DF0750F38FEF18
S1134CB0881A980AA80AB80AE1E0EE1AF108D2CFD5
S1134CC08091E80085FD05C08091E8008E7780938F
S1134CD0E8002E9ADF91CF911F910F91FF90EF90F2
S1134CE0DF90CF90BF90AF909F908F900895809168
S1134CF0940508951F920F920FB60F9211242F93CB
S1134D008F939F93EF93FF938091C8009091CE006F
S1134D108871E0919705EF5FEF7320919605E21794
S1134D2039F0E0939705F0E0E656FA4F908301C01E
S1134D3082E090919505892B80939505FF91EF91E1
S1134D409F918F912F910F900FBE0F901F901895E8
S1134D501F920F920FB60F9211248F939F93EF938C
S1134D60FF939091990580919805981769F0E091C7
S1134D709805EF5FEF73E0939805F0E0E652FA4F81
S1134D8080818093CE0005C08091C9008F7D80937F
S1134D90C900FF91EF919F918F910F900FBE0F90DB
S1134DA01F901895109299051092980510929705E6
S1134DB01092960597FF04C022E02093C8009F77C5
S1134DC09093CD008093CC0088E98093C90086E05D
S1134DD08093CA000895909197058091960598173D
S1134DE081F0E0919605EF5FEF73E0939605F0E0B4
S1134DF0E656FA4F8081909195051092950590E0C2
S1134E00089580E091E00895109297051092960518
S1134E100895909199059F5F9F732091980592172B
S1134E20E1F3E92FF0E0E652FA4F8083909399057D
S1134E308091C90080628093C90008951F920F92E7
S1134E400FB60F9211242F933F934F935F936F9359
S1134E507F938F939F93AF93BF93EF93FF9380912F
S1134E609E0690919F06019690939F0680939E06BE
S1134E708091A0069091A10601969093A10680933B
S1134E80A0068091A807813079F08091A8078D3021
S1134E9059F084E591E00E94243184E491E00E9479
S1134EA000300E94C53703C081E080935706FF910C
S1134EB0EF91BF91AF919F918F917F916F915F918E
S1134EC04F913F912F910F900FBE0F901F90189507
S1134ED080915706813029F484E591E00E942431C1
S1134EE004C080915706833029F484E491E00E9441
S1134EF0003008C080915706823031F484E591E097
S1134F000E9424310E94C53710925706089584B731
S1134F10877F84BF0FB6F894A8958091600088615C
S1134F2080936000109260000FBE85B7806885BFD3
S1134F3085B7806885BF85B7806885BF85B7806879
S1134F4085BF90E080E80FB6F89480936100909359
S1134F5061000FBE0E94470D0E945B0D2FE788E39E
S1134F6091E0215080409040E1F700C0000086E0CD
S1134F7092E00E94AD3B91E0811101C090E09093DA
S1134F80A70687E092E00E94AD3B91E0811101C049
S1134F9090E09093540688E092E00E94AD3B91E04B
S1134FA0811101C090E09093290789E092E00E946A
S1134FB0AD3B91E0811101C090E0909367070895A3
S1134FC0089595DE882319F082E08093A807089558
S1134FD00895089584E491E00E94ED2F84E591E022
S1134FE00E940731E2EEF0E08081846080830895BE
S1134FF084E591E00E94C63084E491E0B4C68091D7
S1135000520190915301009729F001979093530115
S1135010809352010895BECB0F931F93F901A09181
S1135020A306B091A40612968C9182839091A60651
S1135030992311F084E004C0882321F0809159065B
S1135040808301C01082E091A306F091A40612822D
S11350501092590688E090E0F8019183808380E003
S11350601F910F910895F901808180FD0EC09091E8
S11350701B0691110AC0E091A306F091A40683E5F2
S1135080828381E080931B06089581FF0DC0809187
S11350901A06811109C0E091A306F091A40689E3E0
S11350A0828381E080931A060895CF938DE092E085
S11350B00E94AD3BC82FD4D362E056D57C990CC076
S11350C07D990AC07E9908C081E08093A80760E0BA
S11350D00E948B0DF0D51FC07D9910C07E990EC023
S11350E00E94B505882331F00E9432350E940C05D8
S11350F089E001C08AE08093A8074DC07C9904C070
S11351007D9902C08EE005C07C9907C07E9905C0D8
S113511086E08093A807C1E03EC07C9902C085E088
S1135120F8CF7D9902C083E0E6CF7E9902C084E087
S1135130E2CF853531F481E08093A8078093A206FD
S1135140EACF833579F4D3DD882339F082E0809384
S1135150A80781E08093A20603C08AE08093A80791
S1135160C2E019C0823471F40E9432350E94B50540
S1135170882309F4BFCF0E940C0589E08093A80717
S1135180C9E009C08C3429F48DE08093A807CDE0F0
S113519002C0C093A8076C2F8DE092E0CF910C94CD
S11351A0BA3BCF93DF931F92CDB7DEB78CE08093E9
S11351B0A807ADDEAFD51CD5F3D43EDC0E948A35FA
S11351C083E390E0EFDD789470DF1DE00AE08091E6
S11351D0A807863009F484C09CF4833009F4DAC04B
S11351E034F4813011F1823009F46FC0D8C08430B6
S11351F009F43DC0853009F0D2C00E943208CCC009
S11352008B3009F45EC04CF4893009F46CC08A30E8
S113521009F0C5C00E943235A6C08D3031F08E3001
S113522009F0BDC00E94DB0BB7C00E94710E40D3D1
S1135230182F34D28983BE016F5F7F4F812F76D4BC
S1135240882351F0883121F49091A206911180E0D5
S11352501092A2066981A6D08FEC97E00197F1F72E
S113526000C0000084E491E0CBD632DEE0CF0E949F
S1135270323501E010922A0789B119B129B193B1ED
S113528016FB112710F91027829581708027180FBB
S11352902095221F2227221F120F9295917090278A
S11352A0190F75D4810F80FF03C0469A2E9802C04F
S11352B046982E9AEFECF7E03197F1F700C0000022
S11352C0D9CF0E9432350E94E60E8091550688237C
S11352D011F05D98559A0E9432350E94560F77CF8F
S11352E00E94BC0759C00E9432350E94F4058130E7
S11352F011F00E94C50480915506882369F05D98D9
S1135300559A0AC0019741F0EFE1FEE43197F1F7B5
S113531000C00000799BF6CF79991CC02E98469A5C
S11353200E94100589EE93E0EFCF2E9A4698C0D2E2
S1135330F82EB4D18983BE016F5F7F4F8F2DF6D3D2
S1135340893259F40E9435048FEC97E00197F1F704
S113535000C000007999E9CF3ACF8823A9F3698185
S11353600E94DE03F1CF2E9A46989FEFE1EEF4E01F
S11353709150E040F040E1F700C00000469A2E98BA
S11353802FEF81EE94E0215080409040E1F700C07F
S11353900000E9CF0E94D00A1093A80718CF009309
S11353A0A80715CF1F93CF93DF931F92CDB7DEB716
S11353B0182F10929F0610929E06E091A306F0917A
S11353C0A40682818823A9F080919E0690919F066D
S11353D08436910570F48091A807813021F0809182
S11353E0A8078D3051F784E491E0698309D6698177
S11353F0E4CF17FF02C01F7762E0143711F461E0B5
S113540018E2F894E091A306F091A4061283609345
S1135410590684E491E0F4D578948FE39CE90197EC
S1135420F1F700C00000F89484E491E0E9D57894A1
S11354300F90DF91CF911F910895EF92FF920F93F8
S11354401F93CF93DF938C01FC0101900020E9F7B7
S11354503197EF01C81BD90B7C01C701801B910B4D
S11354608C179D070CF061C0F70191917F01903278
S113547059F1983261F1993269F19F3269F19F33A0
S113548069F19A3371F19D3079F19A3069F19E3264
S113549071F19D3379F19B3279F1993081F1933235
S11354A089F1913291F1903399F18FEC890F893020
S11354B020F48DEE890F60E02DC0892F90E00E94CA
S11354C0B1388D5362E026C060E08CE223C062E014
S11354D086E220C062E01DC060E001C062E088E3B3
S11354E019C062E083E316C060E088E213C060E0A4
S11354F087E310C060E001C062E08EE20BC060E0B0
S11355008BE208C062E080E205C062E08EE102C086
S113551060E087E247DFFFE728E381E0F1502040C5
S11355208040E1F700C0000098CFDF91CF911F9138
S11355300F91FF90EF900895BC018BE297E00E94D9
S1135540B9388BE297E079CF1F93CF93DF93282F5D
S11355506AE00E94DF37C92F822F90E08C1B9109EB
S113556064E670E00E94EB376AE070E00E94EB377B
S1135570D62F162F283C18F060E08FE104C02436A3
S113558018F060E08EE10EDF60E0112319F08DE188
S11355908D0F01C087E206DF2FEF80E792E02150F4
S11355A080409040E1F700C0000060E0CC2319F097
S11355B08DE18C0F01C087E2F5DE2FEF80E792E0EA
S11355C0215080409040E1F700C00000DF91CF916E
S11355D01F9108950F931F93CF93DF93C82F6AE011
S11355E00E94DF37D92F8C2F90E08D1B910964E640
S11355F070E00E94EB376AE070E00E94EB37162FF0
S1135600062F81E08093A6062FEF80E792E02150D9
S113561080409040E1F700C00000C7FF08C060E090
S113562082E6C0DEC83C28F060E08AE504C0C436E7
S113563018F060E089E5B6DE2FE788E391E02150B9
S113564080409040E1F700C0000060E0002319F0C2
S113565088E5810F01C082E6A5DE2FE788E391E0AB
S1135660215080409040E1F700C0000060E0DD235D
S113567019F088E58D0F01C082E694DE2FEF80E7F4
S113568092E0215080409040E1F700C00000109269
S1135690A606DF91CF911F910F91089580919D06E9
S11356A0823099F040F4813009F589B18295817096
S11356B09091A70617C0833079F08430B9F483B190
S11356C082958170909167070DC089B186FB882708
S11356D080F99091540606C089B1881F8827881FD5
S11356E090912907891302C082E001C080E07C9B6D
S11356F081607D9B84607E9B886008957F928F92F9
S11357009F92AF92BF92CF92DF92EF92FF920F934C
S11357101F93CF93DF93F894729A8FEC97E00197DD
S1135720F1F700C00000729878948FEC97E001972D
S1135730F1F700C00000E12CF12C712C10E0D0E056
S1135740C0E0B0E0A0E0F0E0E0E01D9913C021E08B
S113575030E040E050E060E070E080E090E00E2D4A
S11357600E943238722A132BD42BC52BB62BA72BAD
S1135770F82BE92BF894729A9AE19A95F1F700C004
S1135780729878948AE68A95F1F700C09FEFE91A37
S1135790F90A80E3E816F104C1F680912A07823001
S11357A0E9F4272D312F4D2F5C2F6B2F7A2F8F2F5C
S11357B09E2F0CE20E944D38490191E089229924E0
S11357C08091A50690E08816990641F0712C10E0AE
S11357D0D0E0C0E0B0E0A0E0F0E0E0E080919D0621
S11357E0813051F099B1929591702091A70692134E
S11357F001C0E064823059F099B196FB992790F981
S113580020915406921301C0E062833059F099B19B
S1135810991F9927991F20912907921301C0E061CC
S1135820843041F083B18295817090916707891328
S113583001C0E860272D312F4D2F5C2F6B2F7A2F5D
S11358408F2F9E2FDF91CF911F910F91FF90EF909B
S1135850DF90CF90BF90AF909F908F907F900895EE
S1135860FF920F931F93CF93DF9348DFF22E032F02
S1135870142FD52FC62FE72FB82FF92F80912A0781
S11358808111EF7E2F2D302F412F5D2F6C2F7E2F16
S11358908B2F9F2FA0E00E94693819F00E942A38AC
S11358A001C080E0DF91CF911F910F91FF90089587
S11358B02F923F924F925F926F927F928F929F921C
S11358C0AF92BF92CF92DF92EF92FF920F931F930A
S11358D0CF93DF9300D01F92CDB7DEB70FDF49011E
S11358E0142F5983F62FE72F482E392E80912A073B
S11358F08111EF7E5090560620909B068DE2E82E93
S113590086E0F82E96E3A92E93E0B92EC12CD12C73
S1135910712C612CDB82CA82511002C01B821A8254
S1135920D5010D915D01BFEFCB1ADB0A9401412F24
S113593059816F2F7E2F842D932D0E944D38217015
S113594030E040E050E060E070E080E090E0A0E013
S11359500E94693899F0D7018C91821510F48F5FF9
S113596031C0AA81BB81A75DB94F8C9181112BC035
S113597081E08C937C2C6624639425C0552039F0F7
S1135980D7018C91882399F08150D7011BC0809155
S11359902D06811112C080912E0681110EC08091B6
S11359A02F0681110AC080913006811106C0AA8198
S11359B0BB81A75DB94F1C9206C0D7018C91882387
S11359C011F081508C93BFEFEB1AFB0A84E0C816E8
S11359D0D10409F09FCFF9809401412F5F2D6F2FDF
S11359E07E2F80E090E02F3FAFEF3A074A075A0737
S11359F06A077A078105910509F455C08091280644
S1135A00882379F0AFE3B0E0A81BB10921E030E0CE
S1135A1040E050E060E070E080E00A2F0E943238FD
S1135A2027C090912706992349F1809126068F5F1C
S1135A308093260620919C06821728F01092260651
S1135A40109227061BC0AFE3B0E0A91BB10921E007
S1135A5030E040E050E060E070E080E090E00A2F49
S1135A600E943238209530954095509560957095F8
S1135A70822293221423F522F623E7239401412F53
S1135A805F2D6F2F7E2F80E090E0A0E00E946938A8
S1135A9051F00E942A38909125069F5F9093250625
S1135AA01092240608C0809124068F5F80932406F8
S1135AB01092250680E09091E8062091250629178A
S1135AC058F090932506909128068917B1F0809399
S1135AD028066620A9F00FC08091580690912406EC
S1135AE0981758F0809324068091280680932706FF
S1135AF01092280602C0872D03C06110FCCF80E0FD
S1135B000F900F900F90DF91CF911F910F91FF9005
S1135B10EF90DF90CF90BF90AF909F908F907F9049
S1135B206F905F904F903F902F900895FB0190816C
S1135B30282F30E092FF08C0D901A755B64F8C91A9
S1135B40882311F09B7F09C091FF09C0D901A85592
S1135B50B94F8C91882319F09D7F90830895F901A2
S1135B60E55AF94F80810895882379F0282F30E091
S1135B7061FF06C0F901E751F94F8081811106C028
S1135B80F901E859F84F8081089580E008950F9352
S1135B90B5DD0CE20E944D38822F81700F9108957B
S1135BA040E450E060E070E08BE596E00E949D3BAD
S1135BB040E450E060E470E089EA99E00E949D3B93
S1135BC040E450E060E870E088EA96E00E949D3B83
S1135BD040E450E060EC70E088E697E00E949D3B72
S1135BE040E450E060E071E089EE96E00C949D3B67
S1135BF082E092E00E94AD3B8093580681E092E0FF
S1135C000E94AD3B8093E80680E092E00E94AD3BA9
S1135C1080939C068CE092E00E94AD3B80939B06AF
S1135C2083E092E00E94AD3B80932A0784E092E0F7
S1135C300E94AD3B8093A50685E092E00E94AD3BB7
S1135C4080939D068EE092E00E94AD3B80935606C1
S1135C508FE092E00E94AD3B8093550680E192E094
S1135C600E94AD3B80935A06089580E4EBE5F6E08C
S1135C70DF01982F1D929A95E9F7E9EAF9E0DF012F
S1135C80982F1D929A95E9F7E8EAF6E0DF01982F3C
S1135C901D929A95E9F7E8E6F7E0DF01982F1D9247
S1135CA09A95E9F7E9EEF6E0DF011D928A95E9F7A6
S1135CB010929D06089565E080E092E00E94BA3B50
S1135CC066E081E092E00E94BA3B63E082E092E009
S1135CD00E94BA3B63E08CE092E00E94BA3B60E031
S1135CE08EE092E00E94BA3B61E08DE092E00E9477
