S01A00005553422054797065777269746572205032532E73726563CC
S113000046C3000061C300005FC300005DC300007D
S11300105BC3000059C3000057C3000055C3000070
S113002053C3000051C300000C943B344DC3000083
S11300304BC3000049C3000047C3000045C3000090
S113004043C300000C94D1253FC300003DC300000E
S11300503BC3000039C3000037C3000035C30000B0
S113006033C300000C942D250C945B252DC3000094
S11300702BC3000029C3000027C3000025C30000D0
S113008023C3000021C300001FC300001DC30000E0
S11300901BC3000019C3000017C3000015C30000F0
S11300A013C300000C94800C0FC3000041542B4276
S11300B0503D30342C30372C30300041542B4349E0
S11300C00041542B4D440041542B53503D303000DB
S11300D041542B43500041542B494F3D3033004190
S11300E0542B4D4D3D30300041542B46543D30305F
S11300F02C30312C46462C30352C30312C303235D6
S1130100380041542B50463D30302C30312C3030A7
S11301102C30302C30300041542B42503D30302CA8
S113012030300041542B55493D30310041542B4E61
S11301304D3D5553422054797065777269746572E8
S113014020425400204348415241435445522053D5
S1130150454C45435445442E205052455353204169
S1130160204B455920544F2041535349474E2E2E7E
S11301702E2000507265737320434D4420746F2009
S11301807361766520616E6420657869742E0D0054
S1130190507265737320414C5420746F2073656CE6
S11301A06563742061206368617261637465722E93
S11301B00D005072657373204354524C20746F20A9
S11301C07363726F6C6C207468726F7567682063F8
S11301D06861726163746572732E0D005072657389
S11301E0732053206966206368616E6765732073AA
S11301F0686F756C64206170706C7920746F205323
S113020044206D6F64652E0D005072657373205524
S1130210206966206368616E6765732073686F7513
S11302206C64206170706C7920746F205553422F78
S11302304254206D6F64652E0D004D414E55414C66
S11302402043414C4942524154494F4E204D4F4462
S1130250452E2E2E0D0053455454494E47532053DA
S113026041564544210D000D49474E4F5245204506
S11302704E544552204B4559205748454E20535023
S11302804143454241522049532048454C443F0D87
S1130290000D4E4F5720534554205245454420529B
S11302A045414354494F4E2054494D452E2E2E0D61
S11302B0000D4E4F57205345542044454C4159207E
S11302C04245545745454E20444F55424C45204BDA
S11302D0455920505245535345532E2E2E0D000D93
S11302E04E4F5720534554204B45592052454C45B9
S11302F04153452054494D452E2E2E0D0050524554
S11303005353204354524C20414E4420414C5420DA
S1130310544F20534554204B455920524541435492
S1130320494F4E2054494D452E2E2E0D0050524516
S1130330535320434D44204B455920544F20434FA1
S11303404E54494E55452E2E2E0D0041444A5553C8
S113035054494E47204B45592053454E534954491F
S1130360564954592E0D004E4F2048414C4C2045BF
S113037046464543542053454E534F52204445541A
S113038045435445442E20284E4F5420412050527A
S11303904F424C454D290D00484F4C4420444F5783
S11303A04E20414E59204B455920544F2043414C37
S11303B04942524154452048414C4C20454646450B
S11303C043542053454E534F522E2E2E0D0042417E
S11303D0434B53504143450053454E44005345431A
S11303E04F4E4441525920454E54455200454E54B7
S11303F045520053504143454241520051554943EF
S11304004B2043414C4942524154494F4E204D4F99
S113041044452E2E2E0D0044554D4D59204C4F4130
S1130420442044454143544956415445440D0044F5
S1130430554D4D59204C4F41442041435449564158
S11304405445440D00204B455920544F20555345E5
S113045020445552494E47205553422F424C55454E
S1130460544F4F5448204D4F44453A00204B455972
S113047020544F2055534520445552494E4720534C
S1130480442043415244204D4F44453A0045525282
S11304904F522E2E2E5348494654204D5553542026
S11304A0424520412052454544205357495443482E
S11304B02E0D00545950452054484520464F4C4C6D
S11304C04F57494E47204B455953202850524553C6
S11304D05320535041434520544F20534B495029F6
S11304E02E2E2E0D0043414C4942524154494E4751
S11304F02E2E2E0D00534420434152442053544F7A
S113050052414745204D4F44450D00555342204B21
S11305104559424F4152442F434152442052454190
S1130520444552204D4F44450D004C494748542002
S11305304D4F4445202853442043415244205245C2
S1130540414445522044495341424C4544290D00FD
S1130550424C5545544F4F5448204B4559424F4106
S11305605244204D4F44450D0044454641554C549A
S11305702053455454494E473A20004649524D575A
S11305804152452056455220352E332E302E4500FB
S113059055534220545950455752495445522028E6
S11305A0544D290D003003550053004200200054DF
S11305B000790070006500770072006900740065BE
S11305C000720020004B006500790062006F00613A
S11305D0007200640000002603550053004200200E
S11305E0005400590050004500570052004900547F
S11305F0004500520020004C004C00430000000461
S113060003090409023900020100800709040000FB
S1130610020806500007058302400005070504028E
S11306204000050904010001030101000921110131
S11306300001223F00070581030800051201100193
S113064000000008EB03612086000102DC010501C3
S11306500906A101050719E029E71500250175011F
S1130660950881029501750881010508190129057C
S1130670950575019102950175039101150025FFFA
S11306800507190029FF950675088100C00011248B
S11306901FBECFEFDAE0DEBFCDBF13E0A0E0B1E0D4
S11306A0E6E6F5E702C005900D92A430B107D9F74C
S11306B029E0A4E0B3E001C01D92AF3BB207E1F72B
S11306C00E9480270C94B13A9BCC0F931F93CF9335
S11306D02FEF80E792E0215080409040E1F700C086
S11306E000001092FB051092FC051092FD0510927B
S11306F0FF050BEF15E0C0E00E949E259C01222718
S1130700232B31F0EC2FF0E0E550FA4F10820AC0B1
S1130710CF3119F410921A0605C0F80181938F01A4
S1130720CF5FEACF9091FB059F3449F08091FD059E
S11307308D3329F081E0933419F080E001C081E029
S1130740CF911F910F9108951F93CF93DF931F9221
S1130750CDB7DEB7182F87FF02C01F7762E01437CA
S113076011F461E018E281EA69830E94BC2581E00A
S11307700E94BC256981862F0E94BC2580E00E94CE
S1130780BC25812F0E94BC2580E00E94BC2580E00E
S11307900E94BC2580E00E94BC2580E00E94BC250C
S11307A080E00E94BC258FE097E20197F1F700C03A
S11307B0000081EA0E94BC2581E00E94BC2580E003
S11307C00E94BC2580E00E94BC2580E00E94BC25DC
S11307D080E00E94BC2580E00E94BC2580E00E944D
S11307E0BC2580E00E94BC2580E00F90DF91CF9172
S11307F01F910C94BC258F982FE788E391E021503A
S113080080409040E1F700C000008F9A2FEF84E30E
S11308109CE0215080409040E1F700C000007698B1
S11308208FE097E20197F1F700C00000089581116D
S11308304CCF81E00895EF92FF921F93CF93DF9303
S113084000D0CDB7DEB7162F89839A830E94B725CF
S11308508981E82E9A81F92EF70181917F018823FD
S113086019F00E94BC25F8CF8DE00E94BC258AE0D7
S11308700E94BC2581E0112341F00F900F90DF917D
S1130880CF911F91FF90EF90D2CF0F900F90DF91F7
S1130890CF911F91FF90EF900895CF93C62FBC0185
S11308A084EF96E00E944D376C2F84EF96E0CF9151
S11308B0C2CF2FEF89E698E1215080409040E1F7C4
S11308C000C0000060E087E191E0E7DF2FEF89E6F8
S11308D098E1215080409040E1F700C00000089565
S11308E060E08CEA90E0D9CF86DF2FEF89E698E1CB
S11308F0215080409040E1F700C00000E6DE2FEF79
S113090080E792E0215080409040E1F700C0000071
S1130910D0DF60E089E691E08EDF2FEF84E39CE096
S1130920215080409040E1F700C0000088E090E052
S11309300E94852581E080931B060895CF93D4DF20
S113094061E083E291E0A9DFC82F61E08CE291E0ED
S1130950A4DF61E087E191E0A0DF61E082E091E063
S11309609CDF2FEF84E39CE0215080409040E1F72E
S113097000C0000061E088EE90E08FDF61E08FED61
S113098090E08BDF61E086ED90E087DF61E087EC4B
S113099090E083DF61E080ED90E07FDF60E08CEA4F
S11309A090E07BDF8C2FCF91089561E080ED90E0A3
S11309B074CF80911B060895CF93DF9300D000D0AD
S11309C0CDB7DEB78DE494E4ADE3B0E089839A83D8
S11309D0AB83BC832FEF89E698E12150804090409F
S11309E0E1F700C0000060E083E291E056DF61E0DF
S11309F081EC90E052DFBE016F5F7F4F8BEF95E09B
S1130A000E945437BE016F5F7F4F80E090E00E94E8
S1130A105437009741F0FC018181803321F461E077
S1130A208BEB90E03ADF81E00F900F900F900F90E6
S1130A30DF91CF91089582E791E00E94CC2840E4B1
S1130A4050E060E070E084E296E00E94603A40E4A6
S1130A5050E060E470E082E799E00E94603A40E48C
S1130A6050E060E870E081E796E00E94603A40E47C
S1130A7050E060EC70E081E397E00E94603A40E46B
S1130A8050E060E071E082EB96E00E94603A609191
S1130A90660685E092E00E944E3A6091700686E018
S1130AA092E00E944E3A60911E0687E092E00E9416
S1130AB04E3A6091F20688E092E00E944E3A6091CC
S1130AC0300789E092E00C944E3ACF93DF93109272
S1130AD0F3060E94612CD82F88E993E00E943D29F7
S1130AE02FEF87EA91E6215080409040E1F700C063
S1130AF000000E94612CC82FD81307C087E693E03A
S1130B000E943D291092F30623C08DE791E00E94D4
S1130B10CC2881E08093F306C0936E0684E991E0CB
S1130B200E94CC2883E690E022E07C9B2093F3068D
S1130B30EFE5FAEE3197F1F700C000000197A9F74D
S1130B408091F306823021F482EC91E00E94CC285B
S1130B507E9903C081E08093F3066091F30683E0FD
S1130B6092E00E944E3A60916E0684E092E00E9408
S1130B704E3A81E09091F306911101C080E0DF913B
S1130B80CF9108952FEF81EE94E021508040904062
S1130B90E1F700C000000E94CA2A90E00097D9F350
S1130BA00895CF93DF93EB01FB01423031F4EF580A
S1130BB0F94F80838BED91E007C0443061F4EE5827
S1130BC0F64F808381EE91E00E94CC2862E08EE2B1
S1130BD00E94812803C0EC5DF94F80838C2F0E9412
S1130BE045292FEF84E39CE0215080409040E1F7B9
S1130BF000C00000DF91CF9108951F93CF93DF933E
S1130C008EEC93E00E943D2960E08CE20E948128F2
S1130C10B9DFEC010E94E829182FDD27482FBE0117
S1130C208AE2BFDF12FD04C0CF5CD84F88E088831E
S1130C3060E088E20E94812884EE91E00E94CC2842
S1130C4060E08CE20E9481289DDFEC010E94E8298B
S1130C50BE017727482F89E2A4DF60E088E20E9482
S1130C60812888EE91E00E94CC2860E08CE20E940A
S1130C70812888DFEC010E94E829182FDD27482FFE
S1130C80BE018BE28EDF12FD09C0FE01EF5CF84F5E
S1130C9089E08083CE54D94F84E7888360E088E27A
S1130CA00E9481288DEE93E00E943D2960E08CE251
S1130CB00E94812867DFEC01DD27FE01EC5DF94F1E
S1130CC018E210838C2F0E9445292FEF84E39CE0C7
S1130CD0215080409040E1F700C00000CF5CD84F25
S1130CE08DE0888360E088E20E9481288DED93E0A6
S1130CF00E943D2960E08CE20E94812884E790E014
S1130D0041DF9927FC01EC5DF94F10830E944529CE
S1130D102FEF84E39CE0215080409040E1F700C035
S1130D20000060E088E20E94812888ED93E00E9440
S1130D303D2960E08CE20E94812824DF9927FC0190
S1130D40EC5DF94F94E790830E9445292FEF84E3EB
S1130D509CE0215080409040E1F700C0000060E03A
S1130D6088E20E94812883EF93E00E943D2960E09D
S1130D708CE20E94812806DFEC01DD27FE01EC5D98
S1130D80F94F8CE280838C2F0E9445292FEF84E356
S1130D909CE0215080409040E1F700C00000CF5C0F
S1130DA0D84F80E2888360E088E2DF91CF911F9181
S1130DB00C9481288091B6098430E1F72FEF89E6FD
S1130DC098E1215080409040E1F700C000008CEF92
S1130DD093E00E943D2999B181E092959170982702
S1130DE09093700699B196FB992790F99827909360
S1130DF01E0699B19095991F9927991F9093F20611
S1130E0093B1929591708927809330075EDE83EBCE
S1130E1094E00E943D298BED91E00E94CC28109231
S1130E20660660E08CE20E948128ACDE9FEF980F9A
S1130E30983028F4809366060E94452904C08DE802
S1130E4094E00E943D2960E088E20E948128D5DE7A
S1130E50F2DD86E592E00C943D29423021F4FB0159
S1130E60EE54F94F05C042FD04C0FB01EF5CF84F9E
S1130E70808308955F926F927F928F929F92AF9238
S1130E80BF92CF92DF92EF92FF920F931F93CF9373
S1130E90DF93CDB7DEB729970FB6F894DEBF0FBE48
S1130EA0CDBF0E94C92C8091B6098430E1F72FEFA1
S1130EB089E698E1215080409040E1F700C00000AD
S1130EC080E995E00E943D298BE795E00E943D2949
S1130ED060E088E20E9481288DE092E00E94413A1D
S1130EE0182F89E695E00E943D29123091F028F4EC
S1130EF0113091F48BE095E009C0193029F01D30D0
S1130F0059F48AE295E002C080E595E00E943D290B
S1130F1007C085EF94E0FACF8CEE91E00E94CC28D4
S1130F2085EE94E00E943D2989B111E0829581709B
S1130F3081278093700689B186FB882780F98127F1
S1130F4080931E0689B18095881F8827881F809307
S1130F50F20683B182958170812780933007B5DDD5
S1130F607D9915C080911F06882329F010921F06D1
S1130F7087E194E004C010931F068FE294E00E947E
S1130F803D2960911F068FE092E00E944E3A83EB68
S1130F9094E00E943D2914E00EE1D02E62E0812FFE
S1130FA00E94812860E08CE20E948128EBDD7C01B4
S1130FB00E94E829082FFF24482F4D7FB701812F75
S1130FC0F0DD1F3021F4F701EE58F64FD08202FD18
S1130FD00CC0F701EE54F94F8DE3810F8083F701C4
S1130FE0EF5CF84F8DE5810F808360E088E20E941A
S1130FF081281F5F1E3191F6B0E2CB2EB2E0DB2ECA
S1131000E12CF12CF601A1906F0160E08A2D0E9481
S1131010812860E08CE20E948128B4DD8C010E946A
S1131020E829B82E1127482F4D7FB8018A2DB9DD44
S1131030B2FC16C0F801EF5CF84FD701AA5EBD4FB1
S11310408C918083F801EE54F94FD701A45FBD4F12
S11310508C918083F801EE58F64F8AE38E0D8083DD
S113106060E088E20E948128FFEFEF1AFF0A2AE07D
S1131070E216F10439F684EF91E00E94CC2860E096
S11310808CE20E9481287EDD8C010E94E829B8014F
S11310907727482F8AE385DD60E088E20E94812873
S11310A087EF91E00E94CC2860E08CE20E948128C6
S11310B069DD8C010E94E829B8017727482F84E470
S11310C070DD60E088E20E9481288BEF91E00E944D
S11310D0CC2860E08CE20E94812854DD8C010E94BF
S11310E0E829B8017727482F85E45BDD60E088E2D2
S11310F00E9481288BED91E00E94CC2860E08CE274
S11311000E9481283FDD9FEF980F983028F4809348
S113111066060E94452904C08DE894E00E943D299A
S11311208FEF94E3ECE081509040E040E1F700C0A1
S1131130000060E088E20E9481282DE28EE2F82E11
S11311409FE3E92E3FE2C32E4AE2B42E50E6A52ED9
S11311506EE7962E7DE3872EEBE27E2EFBE36F2E69
S1131160AAE35A2E223309F466C060E0822F29874D
S11311700E94812860E08CE20E94812803DD8C01BA
S11311800E94E829D82E1127482FB8012985822FDB
S113119008DD2985D2FC49C0233349F4F801EF5C0A
S11311A0F84F6082F801EE54F94F50823EC02E325F
S11311B049F4F801EF5CF84F8082F801EE54F94FDE
S11311C0708233C0253349F4F801EF5CF84FA082F4
S11311D0F801EE54F94F908228C02D3249F4F801F9
S11311E0EF5CF84F2083F801EE54F94FB0821DC034
S11311F0283329F4F801EF5CF84FC08207C0263386
S113120051F4F801EF5CF84F8CE28083F801EE545E
S1131210F94FE0820AC0273341F4F801EF5CF84F3C
S1131220F082F801EE54F94FF08260E088E22987F9
S11312300E94812829852F5F293309F093CF80E507
S11312408D838FE48E8382E58F8381E588878BE1AC
S113125089838AE18A8388E18B8389E18C838E0187
S11312600F5F1F4F7E01F5E0EF0EF11C5701F801EF
S113127081918F010E948B2960E08CE20E94812879
S113128081DC6C010E94E829B6017727482FF70119
S113129081917F0186DC60E088E20E9481280A1542
S11312A01B0529F762E08FE10E9481288CE694E017
S11312B00E943D2960E08CE20E94812863DC182FA3
S11312C00E94E829823041F48BED91E00E94CC2801
S11312D062E08EE20E948128812F0E94452960E00D
S11312E088E20E948128FFEF24E38CE0F150204043
S11312F08040E1F700C0000062E08FE10E94812895
S113130085E494E00E943D293DDC8C010E94E8299B
S1131310B8017727482F8FE944DC60E088E20E9417
S1131320812862E088E30E9481288CE694E00E9490
S11313303D2960E08CE20E94812824DC8C010E941B
S1131340E829F82EB8017727482F8FE386DD92E04D
S1131350F91208C08BED91E00E94CC2862E08EE285
S11313600E948128802F0E94452960E088E20E9423
S11313708128EFEFF4E32CE0E150F0402040E1F766
S113138000C0000062E088E30E94812885E494E0C4
S11313900E943D29F7DB8C010E94E829B8017727D8
S11313A0482F88EBFEDB60E088E20E94812862E03F
S11313B08EE90E94812860E08CE20E948128E2DBB1
S11313C08C010E94E829F82E1127482FB8018EE9D4
S11313D0E8DB4F2DB80181E240DD60E088E20E9445
S11313E081280BDC28DB86E592E029960FB6F89479
S11313F0DEBF0FBECDBFDF91CF911F910F91FF9044
S1131400EF90DF90CF90BF90AF909F908F907F90A0
S11314106F905F900C943D29CF9381E092E00E94FD
S1131420413A8093B10682E092E00E94413A80936F
S1131430220680E092E00E94413A80936506809102
S1131440B6098430E1F72FEF89E698E12150804016
S11314509040E1F700C000008BE493E00E943D2936
S11314608DE293E00E943D297E99FECF8DEF92E0BC
S11314700E943D298091B1060E94452960E088E2DE
S11314800E9481287E9B15C07C990BC08091B10677
S11314908F5F8093B1060E94452960E088E20E9434
S11314A081287D99EFCF8091B10681508093B10658
S11314B0E3CF8FED92E00E943D29809122060E94A5
S11314C0452960E088E20E9481287E9B15C07C99B2
S11314D00BC0809122068F5F809322060E944529CB
S11314E060E088E20E9481287D99EFCF80912206F6
S11314F0815080932206E3CF81EB92E00E943D2944
S1131500809165060E94452960E088E20E94812856
S11315107E9B15C07C990BC0809165068F5F80937C
S113152065060E94452960E088E20E9481287D9931
S1131530EFCF80916506815080936506E3CF81E902
S113154092E00E943D29809164060E94452960E052
S113155088E20E9481287E9B15C07C990BC08091F3
S113156064068F5F809364060E94452960E088E2E8
S11315700E9481287D99EFCF8091640681508093E9
S11315806406E3CF87E692E00E943D29809120061D
S1131590882319F08FEF91E002C083E092E00E946B
S11315A0CC28C1E07E9B15C07C9906C01092200611
S11315B083E092E00E94CC287D9906C0C093200667
S11315C08FEF91E00E94CC287C9BFECF7D9BFCCFCB
S11315D0E9CF6091650680E092E00E944E3A609106
S11315E0220682E092E00E944E3A6091B10681E0C8
S11315F092E00E944E3A609164068CE092E00E9470
S11316004E3A609120068EE092E00E944E3A86E5C2
S113161092E0CF910C943D29B5DAFC01FF27EF5CF1
S1131620F84F8081853711F08337B1F70895CF9251
S1131630DF92EF92FF920F931F93CF93DF938091EA
S1131640B6098430E1F72FEF89E698E12150804014
S11316509040E1F700C000008AE392E00E943D2937
S113166089E092E00E943D298CED91E00E943D29A1
S1131670D3DF082F88E092E00E94CC2882EB91E02F
S11316800E943D2980E991E00E943D2983E791E091
S11316900E943D29053709F0A0C060E08DE20E9458
S11316A0812828EBE22E1EE938E3F32EDDE2CD2F6C
S11316B07E9B86C07C9934C0CF5F41F0EC1630F03D
S11316C0FC1628F4C11718F4C12F01C0CD2F60E017
S11316D088E20E948128053761F48C2F8068885A3B
S11316E0853010F4CF5FF9CF60E08C2F0E94812801
S11316F00EC0C13631F0C13431F0C03329F4CAE32D
S113170003C0CBE701C0CBE58C2F0E948B292FEFC0
S113171084E39CE0215080409040E1F700C0000049
S11317207D99C6CF84E491E00E943D292BDA6C01B7
S11317300E94E829482FB60177278C2F053711F42A
S113174030DA04C08ADB8C2D0E94452960E088E2EF
S11317500E94812870D9CF5F41F0EC1630F0FC165E
S113176028F4C11718F4C12F01C0CD2F60E088E21E
S11317700E948128053761F48C2F8068885A85304F
S113178010F4CF5FF9CF60E08C2F0E9481280EC047
S1131790C13631F0C13431F0C03329F4CAE303C097
S11317A0CBE701C0CBE58C2F0E948B292FEF84E37C
S11317B09CE0215080409040E1F700C0000078CFC9
S11317C03AD986E592E0DF91CF911F910F91FF9076
S11317D0EF90DF90CF900C943D2981E20E948B29F9
S11317E08BEFE82E10EE9FEAF92ED1E260CFE4E60B
S11317F0F0E08081877F80838AE08093810087E2A4
S11318008093890080E180938800EFE6F0E0808196
S11318108260808308952098289A54985C9A5698F8
S11318205E9A57985F9A24982C9A2B9A23982B9A0D
S11318302A9A22982A9A6A9A25982D9A299A21985E
S1131840299A599A519A55985B9A539A52985A9A46
S113185084988C9A85988D9A86988E9A8F98879A70
S1131860479A3F9A8198899A769A6E9A469A3E9AAE
S11318702E9A269A0895F8949FEF9093D10010928F
S1131880BF0090E29093CF009091C400613051F476
S11318909E7F9093C4009091C0009F7B9093C00062
S11318A0469808C091609093C4009091C0009064E1
S11318B09093C0009091C00092609093C00090916A
S11318C07200946090937200813069F030F082303D
S11318D041F0833041F486E009C089E08093C1007F
S11318E002C087E003C08091C10088608093C1007A
S11318F010921D061092BF001092BE0078940895B5
S11319001F920F920FB60F9211248F939F93809181
S1131910CF0090911D06992319F0923039F00AC036
S11319208F3F31F491E090931D0610C08F3F71F00A
S11319308F5F0CC0811109C09091C0009F7B909370
S1131940C0001092C100469A01C081508093CF001C
S11319509F918F910F900FBE0F901F901895292F74
S1131960332723303105E1F05CF42130310599F05F
S11319702230310579F589E390E023E036E02EC08A
S11319802132310511F12232310521F58FE390E046
S11319902EE436E023C082E190E02CE336E01EC062
S11319A099278130910541F08230910541F0892BCE
S11319B089F4EFEFF5E005C0E7EDF5E002C0E5EAF4
S11319C0F5E0849190E09F0109C089E090E02CE269
S11319D036E004C080E090E020E030E0FA0131839A
S11319E020830895CF9342E160E071E08BE093E0BF
S11319F00E944D1D8BE093E00E9409208BE093E050
S1131A000E944C2042E160E071E08BE093E00E9490
S1131A104D1DC82F40911503509116036091170373
S1131A20709118038BE093E00E945C208C2FCF917F
S1131A3008958BE093E00E9409208BE093E00C94DE
S1131A404C2041E06EE372E08BE293E00E94051DBE
S1131A5091E0811101C090E0892F089580910703DE
S1131A6090910803A0910903B0910A03892B8A2B52
S1131A708B2BD9F4A0912D0340913D0350913E034B
S1131A8060913F03709140039A01AB0122503109E8
S1131A9041095109B0E00E94B43660930703709382
S1131AA008038093090390930A03609107037091DC
S1131AB008038091090390910A0308951F93CF931B
S1131AC0DF9300D0CDB7DEB7E2E7F7E00190002066
S1131AD0E9F73197E257F740FA83E9834091150318
S1131AE05091160360911703709118038BE093E0F3
S1131AF00E945C2049815A819E012F5F3F4F62E71B
S1131B0077E08BE093E00E94771E182F1092720703
S1131B108BE093E00E94092081E0111101C080E074
S1131B200F900F90DF91CF911F9108958ADF882342
S1131B3021F08AE08093710708956AE272E080E000
S1131B4091E00E9474374EDF63E372E082E797E02E
S1131B500E947437B3DF6DDF2FEF80E792E02150EE
S1131B6080409040E1F700C00000EDCFE2E7F7E0ED
S1131B7001900020E9F731979F0122573740263F13
S1131B8091E0390708F041C08D3081F5909106034A
S1131B90F901EE58F84FA9014F5F5F4F9D3021F0D6
S1131BA090E29083FA011FC0D901AF58B84F9C91BD
S1131BB0B9016E5F7F4F903279F48C939AE09083F1
S1131BC0FA01EE58F84F8083FB01EE58F84F9083EA
S1131BD0F901EB58F84F16C08083FA01EE58F84F1C
S1131BE09AE09083FB01EE58F84F0CC0F90188305D
S1131BF019F4EF58F84F06C0EE58F84F8083F901F6
S1131C00ED58F84F1082809306030895CF92DF9227
S1131C10EF92FF920F931F93CF93DF93CDB7DEB76D
S1131C2066970FB6F894DEBF0FBECDBF1092720751
S1131C3008DF81113FC061E080E01DDE8AE092E0B0
S1131C400E94493A8C018031974210F000E010E084
S1131C508FE3C82E82E0D82E90E0E92E91E0F92E91
S1131C600F5F1F4F1F930F93DF92CF92FF92EF925C
S1131C700E94A237BE016F5F7F4F80E091E00E9417
S1131C80EB210F900F900F900F900F900F908823DF
S1131C9039F3843079F40E94F22AF82E0E94E8295C
S1131CA0682F8F2D0E944E2C8823A9F35FDF9ADEC4
S1131CB0882321F08AE08093710762C0B8018AE02A
S1131CC092E00E94773A10926A0610926906809117
S1131CD0690690916A0680329F4B08F04CC00E94BE
S1131CE0F22A182F0E94E829682F812F0E944E2C77
S1131CF0182F882301F1833721F480916B06811119
S1131D0010E010926B06812F31DF10926A06109258
S1131D1069061D3061F0812F8D7F8C3241F08FED8B
S1131D20810F823020F01F3311F01A3321F460E068
S1131D3082E0A1DDC3DE8FEC97E00197F1F700C0EC
S1131D4000008091690690916A06893B9B4008F4E3
S1131D50BECF80917207882309F4B9CF46988FEFDC
S1131D609DE329E4815090402040E1F700C0000049
S1131D70A5DE469AACCF60E082E07DDD9FDE59DED1
S1131D8066960FB6F894DEBF0FBECDBFDF91CF913C
S1131D901F910F91FF90EF90DF90CF90089523B1A2
S1131DA023B10197E1F70895FC01680F791F919120
S1131DB097FF02C02A9A01C02A98299A299896FF67
S1131DC002C02A9A01C02A98299A299895FF02C02C
S1131DD02A9A01C02A98299A299894FF02C02A9A1B
S1131DE001C02A98299A299893FF02C02A9A01C00F
S1131DF02A98299A299892FF02C02A9A01C02A98FF
S1131E00299A299891FF02C02A9A01C02A98299AEE
S1131E10299890FF02C02A9A01C02A98299A2998E1
S1131E20E617F70721F608952A9AFC01680F791F2F
S1131E3093B1299A299893FB992790F9990F1B99A3
S1131E409F5F299A2998990F1B999F5F299A29982E
S1131E50990F1B999F5F299A2998990F1B999F5F46
S1131E60299A2998990F1B999F5F299A2998990F64
S1131E701B999F5F299A2998990F1B999F5F299A0B
S1131E8029989193E617F70799F608950F931F93EE
S1131E90CF93DF931F92CDB7DEB708E813E161E07B
S1131EA070E0CE010196C0DF89818F3F31F084E676
S1131EB090E075DF0150110991F781E090E0012B6A
S1131EC011F480E090E00F90DF91CF911F910F917A
S1131ED00895CF93DF931F92CDB7DEB7599A61E08F
S1131EE070E0CE010196A0DF0F90DF91CF910895AD
S1131EF0CF93DF9300D01F92CDB7DEB7599861E03E
S1131F0070E0CE01019690DFC1DF009731F48A833F
S1131F109B83DFDF8A819B8102C081E090E00F9088
S1131F200F900F90DF91CF910895CF92DF92EF92AF
S1131F30FF920F931F93CF93DF9300D0CDB7DEB7FB
S1131F407C016B0108EE13E061E070E0CE010196C4
S1131F506BDF89818F3F71F089818E3F91F4B601E7
S1131F60C70162DF62E070E0CE0101965DDF81E0CF
S1131F7090E009C084E690E012DF0150110921F7D6
S1131F80EBCF80E090E00F900F90DF91CF911F9105
S1131F900F91FF90EF90DF90CF900895DF92EF9232
S1131FA0FF920F931F93CF93DF93CDB7DEB727979D
S1131FB00FB6F894DEBF0FBECDBF182F042FF52E39
S1131FC0E62ED72E87FF08C040E050E0BA0187E331
S1131FD0E5DF823090F51F771C3051F4812F806447
S1131FE08983DA82EB82FC820D83112359F006C0C7
S1131FF070DF7EDF892B91F78FEF1FC0183021F03F
S113200081E003C085E901C087E88E8366E070E063
S1132010CE010196C9DE1C3029F461E070E0CE01E6
S1132020079602DF1AE061E070E0CE010796FCDE5D
S11320308F8187FF02C01150B1F727960FB6F8942D
S1132040DEBF0FBECDBFDF91CF911F910F91FF90E7
S1132050EF90DF900895EF92FF921F93CF93DF9359
S113206000D0CDB7DEB77C01162F10DF009711F139
S1132070198361E070E0CE01019696DE1D3FC1F048
S113208060E072E0C70190DE62E070E0CE0101968C
S1132090CBDE61E070E0CE010196C6DE89818F71EE
S11320A031E020E0853009F030E0832F922F02C028
S11320B081E090E00F900F90DF91CF911F91FF90FE
S11320C0EF900895811103C080910D01089581E07E
S11320D00895EF92FF920F931F93CF93DF9300D055
S11320E000D0CDB7DEB781115FC080E197E257DE43
S11320F0519A599A2998219A2998229A2B9A1AE046
S113210061E070E0CE0101968FDE1150C9F740E026
S113211050E0BA0180E042DF813009F06BC04AEA46
S113212051E060E070E088E039DF8130F1F464E090
S113213070E0CE01019678DE8B81813009F05AC0BF
S11321408C818A3A09F056C008EE13E040E050E072
S113215060E070E489EA22DF882341F188EE93E0AD
S11321601EDE0150110991F745C040E050E0BA016C
S113217089EA14DF823018F001E011E002C009EAB4
S113218012E088EEE82E83E0F82E40E050E0BA0139
S1132190802F04DF882331F188EE93E000DE81E0B4
S11321A0E81AF10891F726C083E026C040E050E029
S11321B0BA018AE3F3DE81111DC064E070E0CE0150
S11321C0019632DE898186FD02C014E001C01CE064
S11321D01093590501E0111100E000930D0179DE1F
S11321E0802F0AC040E052E060E070E080E1D6DE7B
S11321F0882371F310E0ECCF0F900F900F900F90A5
S1132200DF91CF911F910F91FF90EF900895EF927E
S1132210FF920F931F93CF937B01BA01A901811100
S113222003C080910D0101C081E080FD2DC080912B
S1132230590583FD07C089E0440F551F661F771FAA
S11322408A95D1F70230110510F4C1E101C0C2E151
S11322508C2FA4DE811112C060E072E0C70165DE3C
S1132260892B29F08EEFF81A01501109A9F7C23110
S113227029F440E050E0BA018CE090DE2ADE81E0EF
S1132280012B19F480E001C083E0CF911F910F91DD
S1132290FF90EF900895CF92DF92EF92FF920F9309
S11322A01F93CF93DF93EB0169017A01811103C07E
S11322B080910D0101C081E080FD43C080915905EA
S11322C083FD07C099E0CC0CDD1CEE1CFF1C9A9525
S11322D0D1F70130110589F4B701A60188E15EDE6A
S11322E0811129C06EEFCE01B6DE31E020E0892BEA
S11322F009F030E0032F122F1EC0867029F0A801C8
S113230060E070E087E94ADEB701A60189E146DEB4
S1132310811111C06CEFCE019EDE892B21F0DE5FAE
S113232001501109B9F76DEF80E090E094DE892B3C
S113233011F401E010E0CDDD81E0012B19F480E01F
S113234001C083E0DF91CF911F910F91FF90EF9037
S1132350DF90CF9008950F931F93CF93DF93CDB762
S1132360DEB760970FB6F894DEBF0FBECDBF811104
S113237003C080910D0101C081E080FD7CC08A0111
S1132380613079F040F0633009F071C080E890E08A
S1132390A0E0B0E065C0ACDD11E0892B09F468C0B1
S11323A064C040E050E0BA0189E0F8DD882311F010
S11323B011E05EC060E170E0CE010196B6DD892BCC
S11323C0B9F39981929596959695937088854985E8
S11323D02A859130E1F48F7390E0A0E0B0E0DC0155
S11323E0992788270196A11DB11D50E0542F442739
S11323F0BA01620F711D860F971FA11DB11D7AE0EE
S1132400880F991FAA1FBB1F7A95D1F729C042953F
S1132410469546954370F4E08F9FC0011124840FC4
S1132420911D01964F81437050E0542F4427550F5E
S1132430550F840F951FA0E0B0E03E81432F4F70ED
S11324403B85331F3327331F340F2370220F230F91
S1132450275004C0880F991FAA1FBB1F2A95D2F7C3
S1132460F80180839183A283B38310E001C014E058
S113247030DD812F01C083E060960FB6F894DEBF93
S11324800FBECDBFDF91CF911F910F910895CF93D0
S1132490DF93EB01DC01FA01E230F10530F0299120
S11324A039912D933D933297F7CF9A012E7FDC011A
S11324B0A20FB31FFB01E20FF31F40FF02C02081F4
S11324C02C93DF91CF9108950F931F93CF93DF93B4
S11324D08B01FB013996DC011E964D915D916D9146
S11324E07C915197452B462B472BA9F15296CD91C0
S11324F0DC915397AE0180E090E03EE20196DA0170
S11325002D91AD01203251F0253009F425EE8930AA
S1132510910511F430833196208331968B309105E7
S113252069F78B85D80118968C9318974C8D5D8D1F
S11325306E8D7F8D4D935D936D937C931397888DF2
S1132540998D15969C938E9314978E899F891796CF
S11325509C938E9316971082DF91CF911F910F91C8
S11325600895FC012081318121153105B1F0F90173
S1132570BF014191413270F04A33D1F7F9014191E1
S11325806E177F0751F4403341F42E5F3F4FFC0137
S11325903183208380E090E008958FEF9FEF0895CA
S11325A00097C1F0DC01ED91FC911197309791F007
S11325B02081222379F02681378112968D919C9176
S11325C013972817390731F481817CDD80FD04C01D
S11325D080E0089589E0089583E008958F929F92A2
S11325E0AF92BF92CF92DF92EF92FF920F931F931D
S11325F0CF93DF93FC012481211102C080E040C00D
S1132600EC01C2A4D3A4E4A4F5A45C01FEE2AF0EE1
S1132610B11C01E010E0A7019601B50189813BDE00
S113262081112DC01C828E8D9F8DA8A1B9A1B701E7
S1132630A601481B590B6A0B7B0B8E899F89A88DB9
S1132640B98D481759076A077B07C0F68B80912C10
S1132650E2E08E16910490F28E899F89A88DB98D3F
S1132660C80ED91EEA1EFB1E01E010E0A701960168
S1132670B501898110DE81E0881A9108E9CF81E0F3
S1132680DF91CF911F910F91FF90EF90DF90CF904A
S1132690BF90AF909F908F9008950F931F93CF9307
S11326A0DF93EC019BDF982F81115AC0888183301E
S11326B009F04DC08D81813009F049C0BE01625DD1
S11326C07F4FFB01CE01825D9D4FE817F90711F0A2
S11326D01192FBCF85E59AEAFE01E45DFD4F9183FB
S11326E0808382E592E5A1E6B1E48EA79FA7A8AB1B
S11326F0B9AB82E792E7A1E4B1E67A97808391834C
S1132700A283B3838E859F85A889B98934968083F3
S11327109183A283B3838A859B85AC85BD853496DA
S113272080839183A283B3838A8D9B8DAC8DBD8D71
S11327309C01AD012F5F3F4F4F4F5F4F2AA73BA72F
S11327404CA75DA701E010E08981A5DD1D8240E072
S113275050E060E08981FFDD91E0811101C090E0EB
S1132760892FDF91CF911F910F9108958F929F929E
S1132770AF92BF92FF920F931F93CF93DF93EC011D
S11327804A015B018AA59BA5ACA5BDA548175907BD
S11327906A077B07D9F0CE0121DFF82E811117C01B
S11327A001E010E0A5019401BE01625D7F4F8981C3
S11327B02EDD882331F0FF24F39488248A94982C06
S11327C054018AA69BA6ACA6BDA601C0F12C8F2DF0
S11327D0DF91CF911F910F91FF90BF90AF909F9089
S11327E08F900895CF93DF93EC011C828FEF9FEFBE
S11327F0DC018AA79BA7ACA7BDA7CE01B7DF8111D7
S113280022C0FE01E45DFD4F8081918185359A4AA5
S1132810E1F4E85CF14080819181A281B381BB271E
S113282086349144A445B10591F0C058DF4F4881E6
S113283059816A817B81772781E04634514464451C
S1132840710531F404C083E003C082E001C080E07C
S1132850DF91CF9108952F923F924F925F926F92A2
S11328607F928F929F92AF92BF92CF92DF92EF921C
S1132870FF920F931F93CF93DF93CDB7DEB76D977E
S11328800FB6F894DEBF0FBECDBF5C01CB01D42ED2
S1132890D5011D921C9265DE7C0197FD18C2FC01D6
S11328A0EE0FFF1FE45AFA4F008111810115110543
S11328B009F40FC2F50111830083D8018C91882398
S11328C061F011968C91FEDB80FD07C0DD2009F4D8
S11328D002C282FF00C28AE003C2F8011082E182D0
S11328E08E2DF7DB80FDF9C1DD2011F082FDF3CFE1
S11328F040E050E0BA01C80175DF8130C9F5F80144
S1132900E051FE4F9E012F5F3F4F6901C801805D7A
S11329109D4FD9012081222329F04481558166816C
S1132920778103C040E050E0BA014D935D936D930D
S11329307D937096E817F90769F77E0131E1E30E9C
S1132940F11CD6014D905D906D907D906D01411408
S113295051046104710439F0B301A201C80142DFDA
S1132960811102C00FC082E0CE14DF0451F703C00E
S1132970412C512C3201833009F4B1C1882311F068
S11329808DE0AEC1F80181AD92AD81159240C1F7E1
S1132990F801EC5BFF4F80809180A12CB12C811455
S11329A09104A104B10429F43E9680809180A28010
S11329B0B380D80156968D929D92AD92BC92599750
S11329C0DE964C91DE9713964C9313978FEF840FFA
S11329D08230B0F6DB96EC91DB97E98B1296EC93A0
S11329E01297EE2369F28E2F90E09C012150310959
S11329F082239323892B21F6F801FF9620803180CE
S1132A0019963C922E921897C1018F709927892BA1
S1132A1009F0B6CF3296C080D180E12CF12CC114DC
S1132A20D104E104F10429F43D96C080D180E28010
S1132A30F380D801DC96ED91FC91DD97309709F491
S1132A409FCFA42FB0E0A50194010E94B4366E8BF1
S1132A507F8B888F998F9F0140E050E02A8F3B8FB6
S1132A604C8F5D8FC10164E0969587956A95E1F777
S1132A70280F391F411D511DDA01C9012E893F89D3
S1132A80488D598D280F391F4A1F5B1F2A8B3B8B9A
S1132A904C8B5D8BC216D306E406F50608F470CFA2
S1132AA0C701B601621B730B840B950BE9892E2FAA
S1132AB030E040E050E00E94923621153105410596
S1132AC0510509F45DCF263FFFE03F07410551055D
S1132AD048F0263F8FEF38074105510530F492E066
S1132AE0998B05C0A1E0A98B02C0B3E0B98B690141
S1132AF07A01E2E0CE0ED11CE11CF11CD801529601
S1132B00CD92DD92ED92FC925597F801428E538E50
S1132B10648E758E8A8D9B8DAC8DBD8D840D951DB7
S1132B20A61DB71D868F978FA0A3B1A34A895B8981
S1132B306C897D89440D551D661D771D46A357A3D9
S1132B4060A771A7F989F330B9F4232809F018CFE5
S1132B50F801E65AFF4F80819181A281B381F80187
S1132B6082A393A3A4A3B5A342E0CC0CDD1CEE1C6A
S1132B70FF1C4A95D1F72DC0232809F401CF2E89D3
S1132B803F89488D598D820F931FA41FB51FF801EB
S1132B9082A393A3A4A3B5A3F989F23029F4CC0C9E
S1132BA0DD1CEE1CFF1C15C0A3E0B0E0A7019601DC
S1132BB00E94B436DC01CB01B695A795979587950D
S1132BC021E0C222DD24EE24FF24C80ED91EEA1E11
S1132BD0FB1E3FEFC30E31E0D31EE11CF11C89E064
S1132BE0F694E794D794C7948A95D1F78C149D04EE
S1132BF0AE04BF0408F4C4CE8FEF9FEFDC01F801EC
S1132C0086879787A08BB18B82879387A487B587A4
S1132C1080E88583F989F33009F048C0F801E25A65
S1132C20FF4F80819181019709F040C0B301A20157
S1132C304F5F5F4F6F4F7F4FC80198DD811136C0E2
S1132C40D80115961C92F801E45DFD4F80819181B5
S1132C5085359A4A59F5F80186A597A5A0A9B1A981
S1132C6082359245A146B14409F5F801EE5EFD4F67
S1132C7080819181A281B38182379247A144B14678
S1132C80A9F4349680819181A281B381F801868769
S1132C909787A08BB18BE65EFD4F80819181A281E5
S1132CA0B381F80182879387A487B587E989D8011E
S1132CB0EC9380915A0590915B05019690935B0586
S1132CC080935A0517969C938E93169704C08BE0B5
S1132CD007C08CE005C080E003C083E001C081E050
S1132CE06D960FB6F894DEBF0FBECDBFDF91CF91C6
S1132CF01F910F91FF90EF90DF90CF90BF90AF9016
S1132D009F908F907F906F905F904F903F902F9007
S1132D1008950F931F93FC019A01AB0122503109CE
S1132D204109510982899389A489B5890297A10926
S1132D30B109281739074A075B0768F4A281B0E094
S1132D400E94B43606A117A120A531A5600F711FFA
S1132D50821F931F03C060E070E0CB011F910F91AD
S1132D600895AF92BF92CF92DF92EF92FF920F93AA
S1132D701F93CF93DF938C016A017B01423051058D
S1132D806105710508F4A9C0F80182899389A489B1
S1132D90B589481759076A077B0708F09EC08081E8
S1132DA0823009F44BC0833009F46BC0813009F0E0
S1132DB094C0EA01D695C795CC0DDD1DCE01892FAF
S1132DC099278695468D578D60A171A1480F591F8B
S1132DD0611D711DC801CADC882321F06FEF7FEFEC
S1132DE0CB017FC05E01FFEFAF1ABF0AD170C00FE5
S1132DF0D11FCEA5C501892F99278695F801468D47
S1132E00578D60A171A1480F591F611D711DC80123
S1132E10ADDC8111E3CFF1E0BF22F801EA0DFB1D27
S1132E2086A56C2F70E0782BC0FE06C054E0769522
S1132E3067955A95E1F722C07F7020C077276F2DE0
S1132E405E2D4D2DF801868D978DA0A1B1A1480F5F
S1132E50591F6A1F7B1FC80189DC8111BFCFCC0CAD
S1132E60DD1CEE1CFF1CE894C0F8F1E0DF22EE2428
S1132E70FF24F801EC0DFD1D66A577A580E090E028
S1132E8030C0F801868D978DA0A1B1A127E0769579
S1132E906795579547952A95D1F7480F591F6A1F8B
S1132EA07B1FC80163DC811199CF82E0CC0CDD1C4F
S1132EB0EE1CFF1C8A95D1F7FCEFCF22F1E0DF2254
S1132EC0EE24FF24F801EC0DFD1D86A597A5A0A90D
S1132ED0B1A9BC01CD019F7004C061E070E080E045
S1132EE090E0DF91CF911F910F91FF90EF90DF90D1
S1132EF0CF90BF90AF900895AF92BF92CF92DF92E0
S1132F00EF92FF920F931F93CF93DF938C01EB010A
S1132F10DC0115967C936E9314971696CD90DD90F4
S1132F20ED90FC901997B1E0CB16D104E104F104C3
S1132F3011F482E087C0DC01ED91FC9182899389D0
S1132F40A489B589C816D906EA06FB0690F7C11408
S1132F50D104E104F104B9F48081833041F482A105
S1132F6093A1A4A1B5A10097A105B10551F4808551
S1132F709185C817D907E8F662A173A184A195A128
S1132F8032C06C017D01A280B0E1AB9E50011124DE
S1132F90B701A601F80180819181CA15DB0500F112
S1132FA0E0DEAB01BC014F3FEFEF5E076E077E072B
S1132FB009F447C0423051056105710508F4B9CFE1
S1132FC0D801ED91FC9182899389A489B589481728
S1132FD059076A077B0708F0ACCFCA19DB09DACFB7
S1132FE06A017B0196DED8011A96CD92DD92ED92AC
S1132FF0FC921D97611571058105910509F499CF1E
S11330009E0144E0369527954A95E1F7DC01CB0112
S1133010820F931FA11DB11DF80186879787A08B8E
S1133020B18BCF70DD2755E0CC0FDD1F5A95E1F74A
S1133030AE9680819181C80FD91FD38BC28B80E05B
S113304001C081E0DF91CF911F910F91FF90EF902C
S1133050DF90CF90BF90AF9008952F923F924F9200
S11330605F926F927F928F929F92AF92BF92CF9214
S1133070DF92EF92FF920F931F93CF93DF9300D0D1
S113308000D0CDB7DEB71C016A017B0128013901EC
S1133090423051056105710508F4E0C0FC018289E4
S11330A09389A489B589481759076A077B0708F0EB
S11330B0D5C08081823009F471C0833009F492C094
S11330C0813009F0CBC05A01B694A794A40EB51E62
S11330D0C501892F99278695468D578D60A171A1C9
S11330E0480F591F611D711DC10140DB8111B7C01B
S11330F04501FFEF8F1A9F0A21E0B222A20CB31CF4
S1133100A7019601217033274427552729833A8341
S11331104B835C83C0FE0BC0D5019E968C91282FF7
S11331202F70B0E14B9EC0011124822B01C0842D6D
S1133130F50186A781E0D10114968C9314975E96CD
S11331404D915D916D917C919197C401892F99273F
S11331508695480F591F611D711DC10107DB81113F
S11331607EC0B1E09B22F101E80DF91D29813A816D
S11331704B815C81232B242B252B41F054E0769446
S11331806794579447945A95D1F706C026A5207F93
S1133190952D9F70422E492A46A65BC077276F2D36
S11331A05E2D4D2DF101868D978DA0A1B1A1480F03
S11331B0591F6A1F7B1FC101D9DA811150C0CC0C81
S11331C0DD1CEE1CFF1CE894C0F8F1E0DF22EE24C5
S11331D0FF242EE2C20ED11CF101EC0DFD1D518223
S11331E0408237C0F101868D978DA0A1B1A127E05F
S11331F076956795579547952A95D1F7480F591FA6
S11332006A1F7B1FC101B2DA811129C092E0CC0C84
S1133210DD1CEE1CFF1C9A95D1F7FCEFCF22F1E0E8
S1133220DF22EE24FF242EE2C20ED11CF101EC0DAC
S1133230FD1D408151816281738144275527662792
S1133240707F442A552A662A772A408251826282F4
S1133250738291E0D10114969C9301C082E00F9097
S11332600F900F900F90DF91CF911F910F91FF90CE
S1133270EF90DF90CF90BF90AF909F908F907F9012
S11332806F905F904F903F902F9008954F925F9270
S11332906F927F928F929F92AF92BF92CF92DF9262
S11332A0EF92FF920F931F93CF93DF93EC012A01C8
S11332B03B01411551056105710599F48A849B848C
S11332C0AC84BD8481149104A104B10459F18A89A8
S11332D09B89AC89BD8988169906AA06BB0630F17C
S11332E021C03FDD6B017C016230710581059105D0
S11332F008F48AC08FEFC816D806E806F80629F441
S11333006FEF7FEF8FEF9FEF86C08A899B89AC892F
S1133310BD89C816D906EA06FB0608F47AC053012B
S1133320420104C0812C912C5401839475016401E1
S11333302FEFC21AD20AE20AF20A8A899B89AC895F
S1133340BD89C816D906EA06FB0668F082E088162D
S11333509104A104B10410F460E057C082E0C82EC7
S1133360D12CE12CF12CB701A601CE01FADC8B01A2
S11333709C01672B682B692BA1F00F3F8FEF180777
S11333802807380729F0013011052105310519F402
S1133390B801C90140C0C814D904EA04FB0441F6C9
S11333A0DBCF0FEF1FEF2FEF3FE0B701A601CE01F8
S11333B054DE811126C04114510461047104C9F41E
S11333C0CA86DB86EC86FD868E859F85A889B989A9
S11333D08F3F2FEF9207A207B207D9F00197A109F7
S11333E0B1098E879F87A88BB98B8D8181608D836E
S11333F010C097018601B301A201CE012EDE8823FD
S1133400F9F2813009F47CCF61E070E080E090E073
S113341002C0B601C701DF91CF911F910F91FF90B8
S1133420EF90DF90CF90BF90AF909F908F907F9060
S11334306F905F904F9008957F928F929F92AF927A
S1133440BF92CF92DF92EF92FF920F931F93CF938D
S1133450DF93EC016B01EC80FD808FEFE81AF80A32
S113346011F484E0DBC04E855F8568897989411554
S1133470510561057105A9F387010F701127011525
S1133480110509F0B9C04F5F5F4F6F4F7F4F4E87F3
S11334905F87688B798B4A855B856C857D858881A0
S11334A09981FC01411551056105710531F480854F
S11334B09185E816F906A8F69FC0228130E02150D4
S11334C03109F701A4E0F695E795AA95E1F72E23D3
S11334D03F23232B09F090C044DC4B015C01623094
S11334E071058105910510F482E098C08FEF88166C
S11334F09806A806B80611F481E090C088819981E5
S1133500FC01428953896489758984169506A60647
S1133510B70608F464C0CD2809F4A3CF4A855B85B7
S11335206C857D85B3DE4B015C01611571058105F8
S1133530910509F472C06130710581059105A1F20C
S11335408FEF88169806A806B806B1F2888199818B
S113355045D88111D1CF88819981FC01BE96825DC5
S11335609D4FE817F90711F01192FBCFC880D9805D
S1133570B501A401C601CDDBF60162A773A784A738
S113358095A7C12CD12C77247394E881F981828189
S113359090E0C816D906B8F47482888199811ED83F
S11335A08111AACFE881F98182A593A5A4A5B5A527
S11335B00196A11DB11D82A793A7A4A7B5A7FFEFEC
S11335C0CF1ADF0AE2CF82A593A5A4A5B5A58C19CD
S11335D09D09A109B10982A793A7A4A7B5A78A86C3
S11335E09B86AC86BD86B501A4018881998191DB57
S11335F06E877F87888B998BFD82EC8285E0000F34
S1133600111F8A95E1F7025D1F4F88819981080F88
S1133610191F1B8B0A8B80E001C087E0DF91CF91DB
S11336201F910F91FF90EF90DF90CF90BF90AF90DC
S11336309F908F907F9008954F925F926F927F92A8
S11336409F92AF92BF92CF92DF92EF92FF920F932D
S11336501F93CF93DF93EC018B01DB018C918F32AD
S113366011F08C3511F40F5F1F4F1E821F821886D4
S11336701986F8018081803228F070E2A72EE5E0F7
S1133680BE2E62C060E070E0CE0136DC1B8A1A8A6E
S1133690F4C0820120E030E080E090E048E050E0B7
S11336A0912C0196D8017D918D01713208F063C08F
S11336B08201080F191F713208F487C080E0232BA0
S11336C009F4B7C09081953E09F4B08248305105A1
S11336D011F4990C990C992D9370913009F480612F
S11336E0992D9C70943009F48860838760E070E0C1
S11336F0CE0102DC882309F46AC0EC89FD89938534
S113370081118EC092FD91C04A895B89FA0183853B
S113371084FF8DC0828D938DA0E0B0E02881398133
S1133720F9012081233061F4FA014489558960E06C
S113373070E0BA0155274427842B952BA62BB72B71
S11337408E839F83A887B9872801D8019C910F5F36
S11337501F4F9F32C9F39C35B9F3EC89FD89CF0122
S11337609F01255F3F4F8217930709F492CFDC0135
S1133770AD92CD01F8CF7F3209F49ACF7C3509F4AC
S113378097CF7E3209F457C02417350708F051C08B
S113379077FF09C0B92DB3609B2E672F70E0655287
S11337A07E4FDB017C91C72ED12C6CE4E62E62E0C7
S11337B0F62ED7016D917D01662309F446C0662E6D
S11337C0712C6C147D04A9F734C084E078CF4E8545
S11337D05F8568897989888199810E94B6138111EE
S11337E08CCFEA89FB8980818823B1F0838583FDAE
S11337F00EC0AC89BD89AF01455F5F4FE417F50783
S113380069F081912D9190E0821B9109B9F360E0F8
S113381070E0CE0111DE6ECF84E06FCF80E06DCF1B
S1133820843059F592FF03C028C080E026C085E0AB
S113383024C086E022C048305105D9F7990C990C70
S113384028E030E04BE050E02CCF6FEB670F6A319B
S113385020F4B92DB2609B2E08C06FE9670F6A315E
S113386020F4692D6160962E70527F01E20EF31EE2
S1133870D7017C932F5F3F4F14CFDF91CF911F91DE
S11338800F91FF90EF90DF90CF90BF90AF909F90FB
S11338907F906F905F904F9008951F93CF93DF9325
S11338A0EC0160E070E028DB182F811117C04E8511
S11338B05F8568897989888199810E94B613182F58
S11338C081110CC0EA89FB898081853E59F08823E7
S11338D049F061E070E0CE01AFDDE6CF143011F5C0
S11338E017E020C04E855F85688979898881998130
S11338F00E94B613182F811115C0EA89FB89CF01E4
S11339008096E817F90711F01192FBCF6C897D8935
S11339104BE050E08A899B890E944712E881F98133
S113392081E08483812FDF91CF911F9108958F923D
S11339309F92AF92BF92CF92DF92EF92FF920F933A
S11339401F93CF93DF93EC016A017B014230510551
S11339506105710510F482E04BC08A899B89AC89AA
S1133960BD89481759076A077B07A8F78A899B8985
S1133970AC89BD89C816D906EA06FB0650F4B7011E
S1133980A601CE01EED94B015C01672B682B692B94
S113399011F480E02DC081E088169104A104B104E3
S11339A0D1F22FEF82169206A206B20601F100E0D0
S11339B010E09801B701A601CE014FDB811118C0B8
S11339C08E859F85A889B9898F3F2FEF9207A2071B
S11339D0B20751F00196A11DB11D8E879F87A88B58
S11339E0B98B8D8181608D8375016401BFCF81E0C6
S11339F0DF91CF911F910F91FF90EF90DF90CF90C7
S1133A00BF90AF909F908F900895CF93DF93CDB7E1
S1133A10DEB727970FB6F894DEBF0FBECDBF9C83E9
S1133A208B837E836D837A836983CE0101964F8372
S1133A300E94B1124F8197FD24C0880F991FFC0189
S1133A40E45AFA4F0190F081E02D309709F010828A
S1133A50EB81FC81309709F010822B813C81FC01C1
S1133A60E45AFA4F31832083232B69F0413059F40F
S1133A7040E0BE016B5F7F4FCE0103960E942B1482
S1133A8003C08BE001C080E027960FB6F894DEBF38
S1133A900FBECDBFDF91CF9108954F925F926F9289
S1133AA07F928F929F92AF92BF92DF92EF92FF929A
S1133AB00F931F93CF93DF93CDB7DEB7A4970FB6C1
S1133AC0F894DEBF0FBECDBF7CA36BA3009709F4AF
S1133AD0F1C0B42E7C01DC011D921C924E71BE011A
S1133AE06D5D7F4FCE0101960E942B148111E9C0B8
S1133AF0CE0147969E8B8D8B6BA17CA146979CDD56
S1133B000B891C89811104C00115110509F486E093
S1133B10BB2DBF71DB2E9B2D9C7109F46DC08823D6
S1133B2069F0843019F4CE010196B7DEED2DE8601A
S1133B30DE2E0B891C89882349F0C3C0D8011B964B
S1133B408C91817109F0BCC0B2FCB6C0D3FE5FC0D9
S1133B5080E090E0A9E6B5E4F80186879787A08B1A
S1133B60B18B1386D801148E158E168E178EE981AB
S1133B70FA815A968D909C905B97A12CB12C8081F0
S1133B80833069F454964D915C91559760E070E0F0
S1133B90BA0155274427842A952AA62AB72AD80188
S1133BA05B961C921E925A9755961C921E9254979D
S1133BB081E0848381149104A104B10441F142A4FD
S1133BC053A464A475A4B501A401CF01B0DE81118E
S1133BD078C089819A81B1E08B1A9108A108B10853
S1133BE0FC0182869386A486B586B301A2010E9455
S1133BF0B613882361F065C0811163C0D8011B9698
S1133C008C9184FD5BC0B1FE02C080FD59C0D3FE1F
S1133C1003C0BD2DB062DB2EA980BA80F50142A598
S1133C2053A564A575A5D7015A964D935D936D93DD
S1133C307C935D975F961C930E935E971496DC922B
S1133C40149715961C92F801828D938DA0E0B0E034
S1133C50F5012081233061F4F8014489558960E03D
S1133C6070E0BA0155274427842B952BA62BB72B3C
S1133C70F70186879787A08BB18BF801848D958D8A
S1133C80A68DB78DF70182879387A487B58716829F
S1133C90178210861186168A178A108E118EB182A9
S1133CA0A082D50116968D919C9117979383828358
S1133CB080E007C089E005C088E003C084E001C05B
S1133CC087E0A4960FB6F894DEBF0FBECDBFDF9198
S1133CD0CF911F910F91FF90EF90DF90BF90AF9025
S1133CE09F908F907F906F905F904F9008952F9248
S1133CF03F924F925F926F927F928F929F92AF9278
S1133D00BF92CF92DF92EF92FF920F931F93CF93C4
S1133D10DF93EC015B016A011901F9011182108240
S1133D200E94D012811162C18D8181115FC18C8189
S1133D3081FF5BC18E819F81A885B985AC01BD01DE
S1133D404C0D5D1D611D711D481759076A077B07DE
S1133D5008F0A3C0C12CD12CA0C04E815F8168851E
S1133D607985DB01CA019170AA27BB27892B8A2B8D
S1133D708B2B09F00AC1E881F981228121502A01A3
S1133D803B01A9E07694679457944794AA95D1F798
S1133D90122F142109F486C088819981FC0142A460
S1133DA053A464A475A44E895F89688D798D4416E3
S1133DB055066606770609F4C6C0888099804A8944
S1133DC05B896C897D89C4010E948916611571051E
S1133DD08105910509F49AC02B013C01410E511C47
S1133DE0611C711C7601EF2CFF24E694E114F104AC
S1133DF009F4AFC0F4018281212F30E0A701420F02
S1133E00531F90E08417950718F47C01E21AF30A13
S1133E108701A3019201B501F40181810E944B1134
S1133E2081117CC088819981FC0142A553A564A5B8
S1133E3075A544195509660977092701612C712C68
S1133E40441555056605770570F4542F4427550F1E
S1133E50B501640F751F40E052E08E960E94471230
S1133E60E881F9811482FE2CEE24FF0CAE0CBF1CF9
S1133E708E819F81A885B9858E0D9F1DA11DB11DC1
S1133E808E839F83A887B987F101808191818E0DEC
S1133E909F1D91838083CE18DF08C114D10409F0DB
S1133EA05CCF1CC0452B462B472B69F46E857F8560
S1133EB088899989611571058105910511F540E09D
S1133EC050E0BA0104C04A895B896C897D89CF01BD
S1133ED0DDD9611571058105910599F48E819F8164
S1133EE0A885B9854A855B856C857D854817590702
S1133EF06A077B0708F074C08A879B87AC87BD87F5
S1133F006FC0613071058105910511F482E007C02D
S1133F106F3FFFEF7F078F079F0719F481E08D83C1
S1133F2065C06A8B7B8B8C8B9D8B4E845F84688889
S1133F30798845284628472809F02ECF6E877F8741
S1133F40888B998B29CF0E94EE12882309F435CFF0
S1133F50E5CF4E815F81688579858A859B85AC85AF
S1133F60BD85481759076A077B0758F0C4010E94AA
S1133F70EE128111D3CFE881F98142A653A664A63B
S1133F8075A64E8A5F8A688E798E8E819F81917024
S1133F9020E032E0281B390B76012C153D0508F48E
S1133FA079014E895F89688D798D888199810E9414
S1133FB0B6138111B3CF8E819F81A885B985917085
S1133FC0AA27BB278E9628813981A701B501820FC4
S1133FD0931F0E944712E881F98131E0348346CF70
S1133FE08C8180628C8380E001C087E0DF91CF9177
S1133FF01F910F91FF90EF90DF90CF90BF90AF9003
S11340009F908F907F906F905F904F903F902F90F4
S11340100895CF93DF93EC010E94D012811139C02F
S11340209C8195FF36C04A8D5B8D6C8D7D8D88811A
S113403099810E94B61381112CC0EE8DFF8D83856A
S1134040806283878A859B85AC85BD85848F958FA7
S1134050A68FB78F8E859F85A889B989938F828F04
S1134060B58BA48B80E090E0A9E6B5E4868B978BB2
S1134070A08FB18F138A128A8C818F7D8C83E88103
S1134080F98181E0848388819981DF91CF910C94B7
S11340904D13DF91CF910895CF93DF93EC01B9DFF6
S11340A0811107C0CE010E94D012811102C0198271
S11340B01882DF91CF9108952F923F924F925F9291
S11340C06F927F928F929F92AF92BF92CF92DF9224
S11340D0EF92FF920F931F93CF93DF9300D000D002
S11340E0CDB7DEB71C016A017B010E94D012811199
S11340F05BC1D10115968C911597811155C11A9602
S11341008D919D910D90BC91A02D8C159D05AE05B2
S1134110BF0530F4F101248121FD02C06C017D0151
S1134120D10116964D905D906D907C901997F10198
S11341301682178210861186C114D104E104F10499
S113414021F4C12CD12C760102C100811181F80126
S11341508280912CA12CB12C39E0880C991CAA1CCA
S1134160BB1C3A95D1F7411451046104710409F45C
S11341703FC0F1E04F1A510861087108C701B60148
S11341806150710981099109A50194010E94923637
S113419029833A834B835C83C301B201A501940153
S11341A00E94923689819A81AB81BC8182179307E0
S11341B0A407B507E8F088279927DC01881999092D
S11341C0AA09BB09482259226A227B22D1011696E8
S11341D04D925D926D927C921997C418D508E608A9
S11341E0F70852964D915D916D917C91559731C030
S11341F0F10146855785608971894115510561052D
S1134200710511F540E050E0BA01C8013FD8AB0197
S1134210BC01413051056105710529F482E0D101E9
S113422015968C93C1C04F3FBFEF5B076B077B07AD
S113423021F481E0F1018583B7C0D1011E964D932D
S11342405D936D937C935197F101428B538B648BF7
S1134250758B411551056105710509F472CF8C14F4
S11342609D04AE04BF0408F046C0D10114962C91FD
S113427014978D919C9121FF09C008D8AB01BC0112
S1134280411551056105710529F433C00E94B11629
S1134290AB01BC014F3FBFEF5B076B077B0749F2E4
S11342A0423051056105710508F4B8CFD101ED9193
S11342B0FC9182899389A489B589481759076A07AB
S11342C07B0708F0ABCFF101428B538B648B758B6A
S11342D086819781A085B185880D991DAA1DBB1D76
S11342E086839783A087B187C818D908EA08FB0892
S11342F0B6CF75016401F10186819781A085B185EE
S11343008C0D9D1DAE1DBF1D86839783A087B1872D
S1134310D701C6019170AA27BB27892B8A2B8B2B27
S113432009F40FCF808191810E948916611571056E
S11343308105910509F472CF29E0F694E794D794A6
S1134340C7942A95D1F7C60ED71EE81EF91EF101AF
S113435086819781A085B185AC01BD015170662726
S11343607727452B462B472B69F046895789608D63
S1134370718DC416D506E606F70621F0C68AD78ADB
S1134380E08EF18EF1014285538564857585481769
S113439059076A077B0738F482879387A487B58710
S11343A084818062848380E00F900F900F900F903F
S11343B0DF91CF911F910F91FF90EF90DF90CF90FD
S11343C0BF90AF909F908F907F906F905F904F9031
S11343D03F902F900895EF92FF921F93CF93DF9316
S11343E0CDB7DEB7A4970FB6F894DEBF0FBECDBF2E
S11343F09CA38BA37B0140E0BE016D5D7F4FCE018A
S113440001960E942B14182F811119C0CE014796D2
S11344109E8B8D8B6BA17CA146970ED9182F811191
S11344200EC08B899C89892B49F0E114F10439F081
S1134430B701CE0101960E94641201C016E0812FDB
S1134440A4960FB6F894DEBF0FBECDBFDF91CF9117
S11344501F91FF90EF900895BF92CF92DF92EF9259
S1134460FF920F931F93CF93DF93EC01B62EC8A056
S1134470DF8CEE8CFD8C0BA11AA10E942E0DC616AA
S1134480D706E806F90668F080911001807F856000
S11344908093100181E280931A0110921B0180E045
S11344A022C09801B701A601CE01BB2011F079D238
S11344B001C0D1D1C801A0E0B0E029E0880F991F64
S11344C0AA1FBB1F2A95D1F74C895D896E897F8904
S11344D08A019B01081B190B2A0B3B0B0C8B1D8BB0
S11344E02E8B3F8B81E0DF91CF911F910F91FF9035
S11344F0EF90DF90CF90BF900895CF92DF92EF922C
S1134500FF920F931F93CF93DF93CDB7DEB7289716
S11345100FB6F894DEBF0FBECDBF8C01FC01838DB6
S11345208D3109F4C2C088F4823109F138F488234A
S113453009F4FFC0833009F450C00AC18A3109F478
S1134540DEC08B3109F4FEC003C1883209F4C8C04F
S113455038F48E3109F4F6C0853209F466C0F8C027
S11345608A3209F4B2C08F3209F4ECC0F1C0F80108
S1134570E78CF68C848D837019F4858D882341F043
S113458080911001807F85608093100184E2E7C0F0
S11345906701F5E2EF16F10418F094E2C92ED12C6C
S11345A040E050E0B6018BED92E00E94103160E0F3
S11345B070E0C7018C199D090E94D2308091E800F7
S11345C08E778093E800F80184899589A689B78954
S11345D08C199D09A109B109A7C0F801F78CEF2C2A
S11345E0F2E1FF1510F482E1E82ECE2CD12C40E04C
S11345F050E0B6018EE091E00E9410318F2D90E0E2
S113460060E070E08C199D090E94D2308091E8002E
S11346108E778093E800F80184899589A689B78903
S11346208E199109A109B1097FC014D2811108C062
S113463080911001807F8260809310018AE38FC093
S1134640809171078130A1F780E092E0A0E0B0E0B2
S113465089839A83AB83BC830E942E0DDC01CB013A
S11346600197A109B1098D839E83AF83B88740E088
S113467050E064E070E0CE0105960E945A3140E0BB
S113468050E064E070E0CE0101960E945A318091BE
S1134690E8008E778093E800F80184899589A689DB
S11346A0B7890897A109B1093FC0F801848D82FF39
S11346B067CFD0D1811146C080911001807F846082
S11346C08093100110921A014CC0C4D1882309F4BC
S11346D0AFCF80917107813009F0AACF60E00AC0A2
S11346E0B9D1882309F4A4CF80917107813009F0EE
S11346F09FCF61E0C801B0DE811136C040C0109286
S1134700F1001092F1001092F1001092F1008091EA
S1134710E8008E778093E800F80184899589A6895A
S1134720B7890497A109B109848B958BA68BB78BA4
S11347301BC090D1882309F47BCF8091710781300D
S113474009F076CFF801148A158A168A178A0CC0E4
S113475080911001807F85608093100180E28093B6
S11347601A0110921B010BC080911001807F80936D
S1134770100110921A0110921B0181E001C080E027
S113478028960FB6F894DEBF0FBECDBFDF91CF9150
S11347901F910F91FF90EF90DF90CF90089580E0EC
S11347A00E946910811104C081E080935E05089520
S11347B010925E0508950F931F93CF93DF938C019E
S11347C0EB018091E80085FF36C08091F100F8018B
S11347D0EC0FFD1F80838091F10081838091F100B3
S11347E082838091F10083838091F100848380919E
S11347F0F10085838091F10086838091F1008783A5
S11348008091F10080878091F10081878091F1008F
S113481082878091F10083878091F1008487809161
S1134820F10085878091F10086878091F100878768
S113483080E190E00BC09091E8009B779093E800B2
S11348400E949433882309F280E090E0DF91CF91B5
S11348501F910F9108958F929F92AF92BF92CF9222
S1134860DF92EF92FF920F931F93CF93DF936C012C
S11348704A015B0179010E949433811133C0E11430
S1134880F10431F12E98C0E0D0E0BE0182E797E058
S113489092DFC80FD91F8091B609843019F5F6014B
S11348A080AD81111FC0C115F2E0DF0770F301E094
S11348B010E0A501940162E777E00E944B118FEFAD
S11348C0881A980AA80AB80AE1E0EE1AF108D7CFC4
S11348D08091E80085FD05C08091E8008B77809386
S11348E0E8002E9ADF91CF911F910F91FF90EF90E6
S11348F0DF90CF90BF90AF909F908F900895EF92EC
S1134900FF921F93CF93DF937C01EB019091E8001A
S1134910192F107295FF35C0F701EC0FFD1F808130
S11349208093F10081818093F10082818093F10072
S113493083818093F10084818093F1008581809349
S1134940F10086818093F10087818093F100808556
S11349508093F10081858093F10082858093F1003A
S113496083858093F10084858093F100858580930D
S1134970F10086858093F10087858093F10010E132
S113498009C09091E8009E779093E8000E949433C8
S1134990882311F2812FDF91CF911F91FF90EF9027
S11349A008958F929F92AF92BF92CF92DF92EF922F
S11349B0FF920F931F93CF93DF936C014A015B0126
S11349C079010E949433811138C0E114F10459F142
S11349D02E9801E010E0A501940162E777E080E001
S11349E00E940711C0E0D0E0BE0182E797E087DFB4
S11349F0C80FD11DF60180AD81111FC08091B60989
S1134A00843021F08AE08093710717C0C115F2E069
S1134A10DF0750F38FEF881A980AA80AB80AE1E072
S1134A20EE1AF108D2CF8091E80085FD05C080918F
S1134A30E8008E778093E8002E9ADF91CF911F9142
S1134A400F91FF90EF90DF90CF90BF90AF909F9029
S1134A508F90089580915E0508951F920F920FB66E
S1134A600F9211242F938F939F93EF93FF93809131
S1134A70C8009091CE008871E0916105EF5FEF73FB
S1134A8020916005E21739F0E0936105F0E0EC59FC
S1134A90FA4F908301C082E090915F05892B809347
S1134AA05F05FF91EF919F918F912F910F900FBE12
S1134AB00F901F9018951F920F920FB60F9211240A
S1134AC08F939F93EF93FF93909163058091620579
S1134AD0981769F0E0916205EF5FEF73E093620568
S1134AE0F0E0EC55FA4F80818093CE0005C08091B0
S1134AF0C9008F7D8093C900FF91EF919F918F91A1
S1134B000F900FBE0F901F9018951092630510928E
S1134B106205109261051092600597FF04C022E0BF
S1134B202093C8009F779093CD008093CC0088E9B0
S1134B308093C90086E08093CA000895909161052E
S1134B4080916005981781F0E0916005EF5FEF7345
S1134B50E0936005F0E0EC59FA4F808190915F0595
S1134B6010925F0590E0089580E091E0089510921E
S1134B706105109260050895909163059F5F9F738E
S1134B80209162059217E1F3E92FF0E0EC55FA4F1A
S1134B908083909363058091C90080628093C900EB
S1134BA008951F920F920FB60F9211242F933F93E3
S1134BB04F935F936F937F938F939F93AF93BF9321
S1134BC0EF93FF9380916706909168060196909306
S1134BD06806809367068091690690916A0601963B
S1134BE090936A068093690680917107813079F009
S1134BF0809171078D3059F080E391E00E94B82FC5
S1134C0080E291E00E94942E0E94593603C081E014
S1134C1080932106FF91EF91BF91AF919F918F9166
S1134C207F916F915F914F913F912F910F900FBEA4
S1134C300F901F90189580912106813029F480E30C
S1134C4091E00E94B82F04C080912106833029F49A
S1134C5080E291E00E94942E08C080912106823067
S1134C6031F480E391E00E94B82F0E9459361092EB
S1134C702106089584B7877F84BF0FB6F894A8955A
S1134C8080916000886180936000109260000FBE84
S1134C9085B7806885BF85B7806885BF85B780681C
S1134CA085BF85B7806885BF90E080E80FB6F8942B
S1134CB080936100909361000FBE0E94F70B0E94E5
S1134CC00B0C2FE788E391E0215080409040E1F7FE
S1134CD000C0000086E092E00E94413A91E0811118
S1134CE001C090E09093700687E092E00E94413A00
S1134CF091E0811101C090E090931E0688E092E05B
S1134D000E94413A91E0811101C090E09093F20633
S1134D1089E092E00E94413A91E0811101C090E063
S1134D20909330070895089595DE882319F082E062
S1134D308093710708950895089580E291E0E1D782
S1134D4080E391E00E949B2FE2EEF0E0808184609A
S1134D508083089580E391E00E945A2F80E291E0DD
S1134D6096C680912E0190912F01009729F001970A
S1134D7090932F0180932E010895BFCB0F931F931F
S1134D80F901A0916C06B0916D0612968C91828304
S1134D9090916F06992311F084E004C0882321F0D8
S1134DA080912306808301C01082E0916C06F0910B
S1134DB06D0612821092230688E090E0F801918338
S1134DC0808380E01F910F910895F901808180FD17
S1134DD00EC09091E50591110AC0E0916C06F09126
S1134DE06D0683E5828381E08093E505089581FF64
S1134DF00DC08091E405811109C0E0916C06F09129
S1134E006D0689E3828381E08093E4050895CF935E
S1134E108DE092E00E94413AC82FBCD362E03ED5B7
S1134E207C990CC07D990AC07E9908C081E080936A
S1134E30710760E00E943B0CD2D531C07D9910C04F
S1134E407E990EC00E949E04882331F00E94C633CE
S1134E500E94D50489E001C08AE0809371074AC0AA
S1134E607C9904C07D9902C08EE0F7CF7C9904C080
S1134E707E9902C086E0F1CF7C9902C085E0EDCF37
S1134E807D9902C083E0E9CF7E9902C084E0E5CF3A
S1134E90853539F481E08093710780936B06C1E016
S1134EA029C0833579F4D6DD882339F082E08093F4
S1134EB0710781E080936B0603C08AE080937107D9
S1134EC0C2E018C0823469F40E94C6330E949E0472
S1134ED0882311F20E94D50489E080937107C9E008
S1134EE009C08C3429F48DE080937107CDE002C0B1
S1134EF0C09371076C2F8DE092E0CF910C944E3AE1
S1134F00CF93DF931F92CDB7DEB78CE08093710708
S1134F10B1DE94D507D5DED442DC0E941E3483E38F
S1134F2090E0F3DD789473DF1DE00AE0809171076F
S1134F30863009F484C09CF4833009F4DAC034F474
S1134F40813011F1823009F46FC0D8C0843009F483
S1134F503DC0853009F0D2C00E943A07CCC08B30E6
S1134F6009F45EC04CF4893009F46CC08A3009F04D
S1134F70C5C00E94C633A6C08D3031F08E3009F012
S1134F80BDC00E94170BB7C00E94210D2BD3182F50
S1134F901FD28983BE016F5F7F4F812F61D4882325
S1134FA051F0883121F490916B06911180E01092B8
S1134FB06B066981A6D08FEC97E00197F1F700C0EA
S1134FC0000080E291E0B0D636DEE0CF0E94C63326
S1134FD001E01092F30689B119B129B193B116FB1E
S1134FE0112710F91027829581708027180F2095BA
S1134FF0221F2227221F120F929591709027190FBA
S113500060D4810F80FF03C0469A2E9802C0469850
S11350102E9A8FEC97E00197F1F700C00000D9CFEA
S11350200E94C6330E94960D80911F06882311F0BA
S11350305D98559A0E94C6330E94060E77CF0E944F
S1135040DA0659C00E94C6330E94D904813011F097
S11350500E94740480911F06882311F05D98559A6C
S113506079990EC02E98469A0E94DC049FEF27EA95
S113507081E6915020408040E1F700C00000F0CF6D
S11350802E9A46980E94700460E080E00E94A40377
S1135090799B15C0A7D2F82E9BD18983BE016F5F7F
S11350A07F4F8F2DDDD3882319F069810E94A403DB
S11350B08FEC97E00197F1F700C00000E9CF0E9460
S11350C0590434CF2E9A46989FEF21EE84E09150F4
S11350D020408040E1F700C00000469A2E989FEFE0
S11350E021EE84E0915020408040E1F700C00000B0
S11350F0E9CF0E940C0A1093710718CF009371072F
S113510015CF1F93CF93DF931F92CDB7DEB7182F20
S11351101092680610926706E0916C06F0916D0695
S113512082818823A9F0809167069091680684366D
S1135130910570F480917107813021F0809171079D
S11351408D3051F780E291E06983EED56981E4CF37
S113515017FF02C01F7762E0143711F461E018E210
S1135160F894E0916C06F0916D0612836093230627
S113517080E291E0D9D578948FE39CE90197F1F727
S113518000C00000F89480E291E0CED578940F90AE
S1135190DF91CF911F910895EF92FF920F931F9388
S11351A0CF93DF938C01FC0101900020E9F7319744
S11351B0EF01C81BD90B7C01C701801B910B8C1715
S11351C09D070CF053C0F70191917F01903229F1B2
S11351D0983231F1993239F19F3239F19F3339F1F3
S11351E09A3341F19D3049F19A3039F19E3241F1BF
S11351F09D3349F1913251F1903359F18FEC890F7C
S1135200893020F48DEE890F60E025C0892F90E06D
S11352100E9445378D5362E01EC060E08CE21BC0E3
S113522062E086E218C062E015C060E001C062E09E
S113523088E311C062E083E30EC060E088E20BC043
S113524060E087E308C060E08EE205C062E08EE1C2
S113525002C060E087E255DFFFE728E381E0F15018
S113526020408040E1F700C00000A6CFDF91CF913D
S11352701F910F91FF90EF900895BC0184EF96E089
S11352800E944D3784EF96E087CF1F93CF93DF932F
S1135290282F6AE00E947336C92F822F90E08C1B5E
S11352A0910964E670E00E947F366AE070E00E9433
S11352B07F36D62F162F283C18F060E08FE104C00B
S11352C0243618F060E08EE11CDF60E0112319F051
S11352D08DE18D0F01C087E214DF2FEF80E792E0AC
S11352E0215080409040E1F700C0000060E0CC23F2
S11352F019F08DE18C0F01C087E203DF2FEF80E707
S113530092E0215080409040E1F700C00000DF911E
S1135310CF911F9108951F93CF93DF93282F6AE0B5
S11353200E947336C92F822F90E08C1B910964E68A
S113533070E00E947F366AE070E00E947F36D62FCC
S1135340162F81E080936F063FEF80E792E03150A3
S113535080409040E1F700C00000283C18F060E075
S11353608AE504C0243618F060E089E5CADE2FE738
S113537038E381E0215030408040E1F700C0000074
S113538060E0112319F088E58D0F01C082E6B9DED3
S11353909FE728E331E0915020403040E1F700C01E
S11353A0000060E0CC2319F088E58C0F01C082E690
S11353B0A8DE8FEF90E722E0815090402040E1F793
S11353C000C0000010926F06DF91CF911F910895E5
S11353D080916606823099F040F4813009F589B1F4
S11353E0829581709091700617C0833079F0843073
S11353F0B9F483B182958170909130070DC089B161
S113540086FB882780F990911E0606C089B1881F03
S11354108827881F9091F206891302C082E001C098
S113542080E07C9B81607D9B84607E9B8860089586
S11354307F928F929F92AF92BF92CF92DF92EF9220
S1135440FF920F931F93CF93DF93F894729A8FEC8C
S113545097E00197F1F700C00000729878948FEC00
S113546097E00197F1F700C00000E12CF12C712CBA
S113547010E0D0E0C0E0B0E0A0E0F0E0E0E01D9992
S113548013C021E030E040E050E060E070E080E0F4
S113549090E00E2D0E94C636722A132BD42BC52BF6
S11354A0B62BA72BF82BE92BF894729A9AE19A95CC
S11354B0F1F700C0729878948AE68A95F1F700C0F3
S11354C09FEFE91AF90A80E3E816F104C1F6809126
S11354D0F3068230E9F4272D312F4D2F5C2F6B2FEB
S11354E07A2F8F2F9E2F0CE20E94E136490191E022
S11354F08922992480916E0690E08816990641F0DD
S1135500712C10E0D0E0C0E0B0E0A0E0F0E0E0E01A
S113551080916606813051F099B1929591702091F5
S11355207006921301C0E064823059F099B196FB81
S1135530992790F920911E06921301C0E0628330EE
S113554059F099B1991F9927991F2091F206921346
S113555001C0E061843041F083B182958170909103
S11355603007891301C0E860272D312F4D2F5C2FA0
S11355706B2F7A2F8F2F9E2FDF91CF911F910F9139
S1135580FF90EF90DF90CF90BF90AF909F908F905F
S11355907F900895FF920F931F93CF93DF9348DF7B
S11355A0F22E032F142FD52FC62FE72FB82FF92F44
S11355B08091F3068111EF7E2F2D302F412F5D2F27
S11355C06C2F7E2F8B2F9F2FA0E00E94FD3619F0A9
S11355D00E94BE3601C080E0DF91CF911F910F91F0
S11355E0FF9008952F923F924F925F926F927F9215
S11355F08F929F92AF92BF92CF92DF92EF92FF92DF
S11356000F931F93CF93DF9300D01F92CDB7DEB7D4
S11356100FDF4901142F5983F62FE72F482E392E17
S11356208091F3068111EF7E50902006209064064D
S113563087EFE82E85E0F82E9FEFA92E92E0B92E91
S1135640C12CD12C712C612CDB82CA82511002C076
S11356501B821A82D5010D915D01BFEFCB1ADB0AC3
S11356609401412F59816F2F7E2F842D932D0E94F9
S1135670E136217030E040E050E060E070E080E02E
S113568090E0A0E00E94FD3699F0D7018C9182153C
S113569010F48F5F31C0AA81BB81AD50BA4F8C9199
S11356A081112BC081E08C937C2C6624639425C0EB
S11356B0552039F0D7018C91882399F08150D70176
S11356C01BC08091F705811112C08091F8058111EA
S11356D00EC08091F90581110AC08091FA058111EB
S11356E006C0AA81BB81AD50BA4F1C9206C0D70137
S11356F08C91882311F081508C93BFEFEB1AFB0A35
S113570084E0C816D10409F09FCFF9809401412F99
S11357105F2D6F2F7E2F80E090E02F3FAFEF3A0791
S11357204A075A076A077A078105910509F455C0A3
S11357308091F205882379F0AFE3B0E0A81BB109AA
S113574021E030E040E050E060E070E080E00A2FCB
S11357500E94C63627C09091F105992349F18091A2
S1135760F0058F5F8093F00520916506821728F07D
S11357701092F0051092F1051BC0AFE3B0E0A91B35
S1135780B10921E030E040E050E060E070E080E00A
S113579090E00A2F0E94C63620953095409550958A
S11357A060957095822293221423F522F623E72331
S11357B09401412F5F2D6F2F7E2F80E090E0A0E0B9
S11357C00E94FD3651F00E94BE369091EF059F5F16
S11357D09093EF051092EE0508C08091EE058F5F5F
S11357E08093EE051092EF0580E09091B106209130
S11357F0EF05291758F09093EF059091F20589175A
S1135800B1F08093F2056620A9F00FC080912206C2
S11358109091EE05981758F08093EE058091F2056B
S11358208093F1051092F20502C0872D03C0611028
S1135830FCCF80E00F900F900F90DF91CF911F91DC
S11358400F91FF90EF90DF90CF90BF90AF909F901B
S11358508F907F906F905F904F903F902F9008951E
S1135860FB019081282F30E092FF08C0D901AE5887
S1135870B64F8C91882311F09B7F09C091FF09C01A
S1135880D901AF58B94F8C91882319F09D7F90832B
S11358900895F901EC5DF94F80810895882379F02A
S11358A0282F30E061FF06C0F901EE54F94F8081E2
S11358B0811106C0F901EF5CF84F8081089580E002
S11358C008950F93B5DD0CE20E94E136822F8170BA
S11358D00F91089540E450E060E070E084E296E0C7
S11358E00E94313A40E450E060E470E082E799E0DD
S11358F00E94313A40E450E060E870E081E796E0CD
S11359000E94313A40E450E060EC70E081E397E0BB
S11359100E94313A40E450E060E071E082EB96E0AE
S11359200C94313A82E092E00E94413A809322063C
S113593081E092E00E94413A8093B10680E092E0D7
S11359400E94413A809365068CE092E00E94413ABD
S11359508093640683E092E00E94413A8093F306C8
S113596084E092E00E94413A80936E0685E092E0E2
S11359700E94413A809366068EE092E00E94413A8A
S1135980809320068FE092E00E94413A80931F06A4
S1135990089580E4E4E2F6E0DF01982F1D929A95E1
S11359A0E9F7E2E7F9E0DF01982F1D929A95E9F70C
S11359B0E1E7F6E0DF01982F1D929A95E9F7E1E31C
S11359C0F7E0DF01982F1D929A95E9F7E2EBF6E0F4
S11359D0DF011D928A95E9F710926606089565E045
S11359E080E092E00E944E3A66E081E092E00E94FC
S11359F04E3A63E082E092E00E944E3A63E08CE02B
S1135A0092E00E944E3A60E08EE092E00E944E3AAC
S1135A1061E08DE092E00E944E3A60E08FE092E017
S1135A200E944E3A60E070E08AE092E00E94773A89
S1135A3060E083E092E00E94693A74CFCF93DF93F1
S1135A408FEF93E00E94413A8734F1F0C0E0D0E058
S1135A5060E0CE010E944E3A2196C13581E0D8071C
S1135A60B9F7C0E0D2E060E0CE010E944E3A219640
S1135A70C23182E0D807B9F7B2DF67E48FEF93E071
S1135A80DF91CF910C94693ADF91CF9108956F9291
S1135A907F928F929F92AF92BF92CF92DF92EF92BA
S1135AA0FF920F931F93CF93DF9300D01F92CDB734
S1135AB0DEB77C01CDB6DEB68091E80083FF0AC173
S1135AC0F701808190E02091BB093091BC0928172F
S1135AD0390709F0FFC08091B809833009F4A1C0E7
S1135AE030F4813071F0823009F4D8C0F3C08A30C8
S1135AF009F4BCC08B3009F4A5C0893009F0EAC0B0
S1135B0053C08091B709813A09F0E4C08DB69EB6BE
S1135B101A8219828091B9091091BA098B83F7010D
S1135B208085482F50E08DB79EB7841B950B0FB628
S1135B30F8949EBF0FBE8DBFEDB7FEB731965F01DF
S1135B4060E070E0CF010E946D374FEF410F8E018E
S1135B500F5F1F4F9501BE016D5F7F4FC7010ED9C7
S1135B60F70186819781009729F0408550E0B501BF
S1135B700E9464371092E9008091E800877F809347
S1135B80E8008B8181118093F10069817A81C501DC
S1135B902BD48091E8008B778093E8000FB6F894BB
S1135BA09EBE0FBE8DBE96C08091B709813209F0AA
S1135BB091C0ADB6BEB60091BD091091BE097090FA
S1135BC0B9096090BA098DB79EB7801B910B0FB6C7
S1135BD0F8949EBF0FBE8DBFEDB7FEB731964F014F
S1135BE08091E800877F8093E800B801CF015FD4FB
S1135BF08091E8008E778093E80021E0711001C065
S1135C0020E030E0021B130B280D391D4FEF460D29
S1135C10672DC701DAD80FB6F894BEBE0FBEADBE6D
S1135C2059C08091B709813A09F054C08091E800C5
S1135C30877F8093E8008091E80080FFFCCFF70124
S1135C40818540C08091B709813209F043C08091B9
S1135C50E800877F8093E80048D59091B90981E0F6
S1135C60911101C080E0F701818734C08091B709A8
S1135C70813281F58091E800877F8093E80035D5F3
S1135C808091B9099091BA09882736E0969587954D
S1135C903A95E1F7F701958784871CC08091B7098D
S1135CA0813AC1F48091E800877F8093E800809175
S1135CB0E80080FFFCCFF70184859585969587954C
S1135CC0969587958093F1008091E8008E77809374
S1135CD0E8000BD50FB6F894DEBE0FBECDBE0F9014
S1135CE00F900F90DF91CF911F910F91FF90EF9044
