:100000004CC3000067C3000065C3000063C3000069
:1000100061C300005FC300005DC300005BC300005C
:1000200059C3000057C300000C94DF3353C30000D2
:1000300051C300004FC300004DC300004BC300007C
:1000400049C300000C947E2545C3000043C3000053
:1000500041C300003FC300003DC300003BC300009C
:1000600039C300000C94DA240C94082533C3000033
:1000700031C300002FC300002DC300002BC30000BC
:1000800029C3000027C3000025C3000023C30000CC
:1000900021C300001FC300001DC300001BC30000DC
:1000A00019C300000C942D0C15C3000041542B4BB8
:1000B000523D41312C30312C30302C30302C30300E
:1000C0002C30302C30302C30302C30302C30300074
:1000D00041542B43490041542B4D440041542B4380
:1000E000500041542B494F3D30330041542B4D4D6E
:1000F0003D30300041542B46543D30302C30312CB3
:1001000046462C30352C30312C30323538004154B5
:100110002B50463D30302C30312C30302C30302CB0
:1001200030300041542B42503D30302C30300041B3
:10013000542B55493D30310041542B4E4D3D5553C4
:100140004220547970657772697465722042540058
:10015000204348415241435445522053454C454366
:100160005445442E2050524553532041204B45596D
:1001700020544F2041535349474E2E2E2E200050DD
:100180007265737320434D4420746F2073617665EC
:1001900020616E6420657869742E0D00507265735D
:1001A0007320414C5420746F2073656C6563742018
:1001B00061206368617261637465722E0D00507214
:1001C000657373204354524C20746F207363726FB5
:1001D0006C6C207468726F75676820636861726107
:1001E00063746572732E0D00507265737320532013
:1001F0006966206368616E6765732073686F756CEC
:1002000064206170706C7920746F205344206D6F8E
:1002100064652E0D00507265737320552069662049
:100220006368616E6765732073686F756C642061C5
:1002300070706C7920746F205553422F4254206D9A
:100240006F64652E0D004D414E55414C2043414C8D
:100250004942524154494F4E204D4F44452E2E2E77
:100260000D0053455454494E47532053415645447D
:10027000210D000D49474E4F524520454E544552E1
:10028000204B4559205748454E2053504143454245
:1002900041522049532048454C443F0D000D4E4FDC
:1002A000572053455420524545442052454143541C
:1002B000494F4E2054494D452E2E2E0D000D4E4FC8
:1002C00057205345542044454C41592042455457EA
:1002D00045454E20444F55424C45204B45592050F2
:1002E0005245535345532E2E2E0D000D4E4F572081
:1002F000534554204B45592052454C4541534520C8
:1003000054494D452E2E2E0D005052455353204337
:1003100054524C20414E4420414C5420544F2053C1
:100320004554204B4559205245414354494F4E2096
:1003300054494D452E2E2E0D005052455353204307
:100340004D44204B455920544F20434F4E54494E65
:1003500055452E2E2E0D0041444A555354494E47C3
:10036000204B45592053454E5349544956495459F9
:100370002E0D004E4F2048414C4C204546464543EB
:10038000542053454E534F52204445544543544501
:10039000442E20284E4F5420412050524F424C456D
:1003A0004D290D00484F4C4420444F574E20414E9C
:1003B00059204B455920544F2043414C494252410A
:1003C00054452048414C4C20454646454354205313
:1003D000454E534F522E2E2E0D004241434B53504B
:1003E0004143450053454E44005345434F4E44411D
:1003F000525920454E54455200454E5445520053E3
:100400005041434542415200515549434B204341DD
:100410004C4942524154494F4E204D4F44452E2E97
:100420002E0D0044554D4D59204C4F41442044451C
:100430004143544956415445440D0044554D4D598E
:10044000204C4F4144204143544956415445440DAA
:1004500000204B455920544F2055534520445552B8
:10046000494E47205553422F424C5545544F4F5407
:1004700048204D4F44453A00204B455920544F20C9
:1004800055534520445552494E472053442043413B
:100490005244204D4F44453A004552524F522E2E61
:1004A0002E5348494654204D55535420424520412F
:1004B0002052454544205357495443482E0D00547B
:1004C0005950452054484520464F4C4C4F57494EB3
:1004D00047204B45595320285052455353205350E1
:1004E00041434520544F20534B4950292E2E2E0D69
:1004F0000043414C4942524154494E472E2E2E0D45
:1005000000534420434152442053544F52414745E5
:10051000204D4F44450D00555342204B4559424F05
:100520004152442F434152442052454144455220B8
:100530004D4F44450D004C49474854204D4F4445CC
:1005400020285344204341524420524541444552BF
:100550002044495341424C4544290D00424C5545E5
:10056000544F4F5448204B4559424F415244204D1F
:100570004F44450D0044454641554C542053455485
:1005800054494E473A20004649524D574152452062
:1005900056455220352E332E302E450055534220DD
:1005A000545950455752495445522028544D290D0D
:1005B00000300355005300420020005400790070C1
:1005C0000065007700720069007400650072002009
:1005D000004B006500790062006F006100720064EA
:1005E000000000260355005300420020005400592B
:1005F0000050004500570052004900540045005289
:100600000020004C004C00430000000403090409D2
:1006100002390002010080070904000002080650A8
:100620000007058302400005070504024000050994
:100630000401000103010100092111010001223F11
:1006400000070581030800051201100100000008E1
:10065000EB03612086000102DC0105010906A1010E
:10066000050719E029E715002501750195088102A4
:100670009501750881010508190129059505750180
:100680009102950175039101150025FF05071900D9
:1006900029FF950675088100C00011241FBECFEF09
:1006A000DAE0DEBFCDBF13E0A0E0B1E0EEEAF4E7B0
:1006B00002C005900D92A035B107D9F729E0A0E559
:1006C000B3E001C01D92AB3DB207E1F70E942D27B8
:1006D0000C94553A95CC8F982FE788E391E0215000
:1006E00080409040E1F700C000008F9A2FEF84E334
:1006F0009CE0215080409040E1F700C000007698D7
:100700008FE097E20197F1F700C0000008950F9382
:100710001F93CF93811102C081E034C02FEF80E797
:1007200092E0215080409040E1F700C0000010921C
:100730001706109218061092190610921B0607E170
:1007400016E0C0E00E944B259C012227232B31F0AC
:10075000EC2FF0E0E95EF94F10820AC0CF3119F4B6
:100760001092360605C0F80181938F01CF5FEACF62
:10077000809117068F3481F281E0909119069D33A4
:1007800009F080E0CF911F910F910895EF92FF92B1
:100790001F93CF93DF9300D0CDB7DEB7162F898399
:1007A0009A830E9464258981E82E9A81F92EF701A7
:1007B00081917F01882319F00E946925F8CF8DE08F
:1007C0000E9469258AE00E946925812F0F900F9071
:1007D000DF91CF911F91FF90EF9099CFCF93C62FCC
:1007E000BC0180E197E00E94F1366C2F80E197E038
:1007F000CF91CCCFCF93DF93C82FD62F60E08DE879
:1008000091E0C4DF8FEC97E00197F1F700C00000A2
:10081000C7FF02C0CF77D2E0C43711F4D1E0C8E2FD
:100820001F92CF931F92DF9386E991E09F938F935E
:1008300080E091E09F938F930E94463760E080E0D4
:1008400091E0A4DF8FEC97E00197F1F700C0000082
:100850008DB79EB708960FB6F8949EBF0FBE8DBF9A
:1008600060E08CEA90E0DF91CF91B8CF34DF2FEFDA
:1008700089E698E1215080409040E1F700C00000F7
:1008800081E045DF61E083E291E0A8DF2FEF89E6B8
:1008900098E1215080409040E1F700C0000081E0E5
:1008A000809337060895CF93E1DF61E08FE291E016
:1008B00095DFC82F61E088E391E090DF61E083E29B
:1008C00091E08CDF61E08EE091E088DF2FEF84E340
:1008D0009CE0215080409040E1F700C0000061E0C2
:1008E00084EF90E07BDF61E08BEE90E077DF61E00A
:1008F00082EE90E073DF61E08CED90E06FDF8C2F93
:10090000CF91089561E08CED90E068CF809137063B
:100910000895CF93DF9300D000D0CDB7DEB78DE43C
:1009200094E4ADE3B0E089839A83AB83BC832FEF7B
:1009300089E698E1215080409040E1F700C0000036
:1009400060E08FE291E04ADF61E086ED90E046DF13
:10095000BE016F5F7F4F87E196E00E94F836BE01CF
:100960006F5F7F4F80E090E00E94F836009741F083
:10097000FC018181803321F461E080ED90E02EDF85
:1009800081E00F900F900F900F90DF91CF9108951D
:100990008EEB91E00E94702840E450E060E070E04F
:1009A00080E496E00E94043A40E450E060E470E0A5
:1009B0008EE899E00E94043A40E450E060E870E07C
:1009C0008DE896E00E94043A40E450E060EC70E06C
:1009D0008DE497E00E94043A40E450E060E071E06A
:1009E0008EEC96E00E94043A6091820685E092E0E7
:1009F0000E94F23960918C0686E092E00E94F23902
:100A000060913A0687E092E00E94F23960910E0709
:100A100088E092E00E94F23960914C0789E092E010
:100A20000C94F239CF93DF9310920F070E94052C9C
:100A3000D82F84EA93E00E94E1282FEF87EA91E61D
:100A4000215080409040E1F700C000000E94052C3A
:100A5000C82FD81307C083E793E00E94E1281092C3
:100A60000F0723C089EC91E00E94702881E08093F9
:100A70000F07C0938A0680EE91E00E94702883E6FB
:100A800090E022E07C9B20930F07EFE5FAEE319790
:100A9000F1F700C000000197A9F780910F0782309D
:100AA00021F48EE092E00E9470287E9903C081E0DC
:100AB00080930F0760910F0783E092E00E94F23964
:100AC00060918A0684E092E00E94F23981E0909180
:100AD0000F07911101C080E0DF91CF9108952FEFB2
:100AE00081EE94E0215080409040E1F700C000008A
:100AF0000E946E2A90E00097D9F30895CF93DF9378
:100B0000EB01FB01423031F4E357F94F808387E278
:100B100092E007C0443061F4E257F64F80838DE2E3
:100B200092E00E94702862E08EE20E94252803C0B5
:100B3000E05CF94F80838C2F0E94E9282FEF84E33B
:100B40009CE0215080409040E1F700C00000DF9120
:100B5000CF9108951F93CF93DF938AED93E00E9486
:100B6000E12860E08CE20E942528B9DFEC010E94B8
:100B70008C29182FDD27482FBE018AE2BFDF12FD26
:100B800004C0C35BD84F88E0888360E088E20E949D
:100B9000252880E392E00E94702860E08CE20E94A9
:100BA00025289DDFEC010E948C29BE017727482F64
:100BB00089E2A4DF60E088E20E94252884E392E0D5
:100BC0000E94702860E08CE20E94252888DFEC01FA
:100BD0000E948C29182FDD27482FBE018BE28EDF63
:100BE00012FD09C0FE01E35BF84F89E08083C25328
:100BF000D94F84E7888360E088E20E94252889EF46
:100C000093E00E94E12860E08CE20E94252867DFE3
:100C1000EC01DD27FE01E05CF94F18E210838C2F18
:100C20000E94E9282FEF84E39CE02150804090400F
:100C3000E1F700C00000C35BD84F8DE0888360E01F
:100C400088E20E94252889EE93E00E94E12860E076
:100C50008CE20E94252884E790E041DF9927FC017F
:100C6000E05CF94F10830E94E9282FEF84E39CE0B9
:100C7000215080409040E1F700C0000060E088E231
:100C80000E94252884EE93E00E94E12860E08CE237
:100C90000E94252824DF9927FC01E05CF94F94E7A6
:100CA00090830E94E9282FEF84E39CE0215080404C
:100CB0009040E1F700C0000060E088E20E94252833
:100CC0008FEF93E00E94E12860E08CE20E942528EB
:100CD00006DFEC01DD27FE01E05CF94F8CE280834A
:100CE0008C2F0E94E9282FEF84E39CE02150804064
:100CF0009040E1F700C00000C35BD84F80E28883DA
:100D000060E088E2DF91CF911F910C9425288091BB
:100D1000D2098430E1F72FEF89E698E12150804035
:100D20009040E1F700C0000088E094E00E94E128D4
:100D300099B181E092959170982790938C0699B122
:100D400096FB992790F9982790933A0699B1909538
:100D5000991F9927991F90930E0793B192959170BF
:100D6000892780934C075EDE8FEB94E00E94E12898
:100D700087E292E00E9470281092820660E08CE286
:100D80000E942528ACDE9FEF980F983028F48093BE
:100D900082060E94E92804C089E994E00E94E128C3
:100DA00060E088E20E942528D5DEF2DD82E692E04E
:100DB0000C94E128423021F4FB01E253F94F05C0C5
:100DC00042FD04C0FB01E35BF84F808308955F920E
:100DD0006F927F928F929F92AF92BF92CF92DF924B
:100DE000EF92FF920F931F93CF93DF93CDB7DEB7B0
:100DF00029970FB6F894DEBF0FBECDBF0E946D2CB1
:100E00008091D2098430E1F72FEF89E698E12150F3
:100E100080409040E1F700C000008CE995E00E941E
:100E2000E12887E895E00E94E12860E088E20E94DE
:100E300025288DE092E00E94E539182F85E795E09E
:100E40000E94E128123091F028F4113091F487E1EA
:100E500095E009C0193029F01D3059F486E395E07A
:100E600002C08CE595E00E94E12807C081E095E092
:100E7000FACF88E392E00E94702881EF94E00E940C
:100E8000E12889B111E082958170812780938C06D9
:100E900089B186FB882780F9812780933A0689B13A
:100EA0008095881F8827881F80930E0783B18295BD
:100EB0008170812780934C07B5DD7D9915C08091A5
:100EC0003B06882329F010923B0683E294E004C09D
:100ED00010933B068BE394E00E94E12860913B066F
:100EE0008FE092E00E94F2398FEB94E00E94E128BB
:100EF00014E00EE1D02E62E0812F0E94252860E0F0
:100F00008CE20E942528EBDD7C010E948C29082FB1
:100F1000FF24482F4D7FB701812FF0DD1F3021F4D2
:100F2000F701E257F64FD08202FD0CC0F701E25301
:100F3000F94F8DE3810F8083F701E35BF84F8DE577
:100F4000810F808360E088E20E9425281F5F1E31A8
:100F500091F6BCE6CB2EB2E0DB2EE12CF12CF601B3
:100F6000A1906F0160E08A2D0E94252860E08CE24C
:100F70000E942528B4DD8C010E948C29B82E1127EF
:100F8000482F4D7FB8018A2DB9DDB2FC16C0F8019B
:100F9000E35BF84FD701AE59BD4F8C918083F801C8
:100FA000E253F94FD701A85ABD4F8C918083F801C5
:100FB000E257F64F8AE38E0D808360E088E20E945C
:100FC0002528FFEFEF1AFF0A2AE0E216F10439F6AE
:100FD00080E492E00E94702860E08CE20E94252864
:100FE0007EDD8C010E948C29B8017727482F8AE387
:100FF00085DD60E088E20E94252883E492E00E947B
:10100000702860E08CE20E94252869DD8C010E9436
:101010008C29B8017727482F84E470DD60E088E2EE
:101020000E94252887E492E00E94702860E08CE20C
:101030000E94252854DD8C010E948C29B801772755
:10104000482F85E45BDD60E088E20E94252887E286
:1010500092E00E94702860E08CE20E9425283FDD2B
:101060009FEF980F983028F4809382060E94E92819
:1010700004C089E994E00E94E1288FEF94E3ECE05A
:1010800081509040E040E1F700C0000060E088E25D
:101090000E9425282DE28EE2F82E9FE3E92E3FE202
:1010A000C32E4AE2B42E50E6A52E6EE7962E7DE3BF
:1010B000872EEBE27E2EFBE36F2EAAE35A2E22331D
:1010C00009F466C060E0822F29870E94252860E02D
:1010D0008CE20E94252803DD8C010E948C29D82EE9
:1010E0001127482FB8012985822F08DD2985D2FCD8
:1010F00049C0233349F4F801E35BF84F6082F801FB
:10110000E253F94F50823EC02E3249F4F801E35BBE
:10111000F84F8082F801E253F94F708233C02533D3
:1011200049F4F801E35BF84FA082F801E253F94F6C
:10113000908228C02D3249F4F801E35BF84F2083F8
:10114000F801E253F94FB0821DC0283329F4F801A9
:10115000E35BF84FC08207C0263351F4F801E35B2C
:10116000F84F8CE28083F801E253F94FE0820AC025
:10117000273341F4F801E35BF84FF082F801E253C2
:10118000F94FF08260E088E229870E9425282985AE
:101190002F5F293309F093CF80E58D838FE48E8311
:1011A00082E58F8381E588878BE189838AE18A8361
:1011B00088E18B8389E18C838E010F5F1F4F7E0155
:1011C000F5E0EF0EF11C5701F80181918F010E94AB
:1011D0002F2960E08CE20E94252881DC6C010E94AE
:1011E0008C29B6017727482FF70181917F0186DC92
:1011F00060E088E20E9425280A151B0529F762E0B5
:101200008FE10E94252888E794E00E94E12860E0B1
:101210008CE20E94252863DC182F0E948C298230E2
:1012200041F487E292E00E94702862E08EE20E9420
:101230002528812F0E94E92860E088E20E94252865
:10124000FFEF24E38CE0F15020408040E1F700C044
:10125000000062E08FE10E94252881E594E00E9471
:10126000E1283DDC8C010E948C29B8017727482FAA
:101270008FE944DC60E088E20E94252862E088E390
:101280000E94252888E794E00E94E12860E08CE233
:101290000E94252824DC8C010E948C29F82EB8019C
:1012A0007727482F8FE386DD92E0F91208C087E2A6
:1012B00092E00E94702862E08EE20E942528802F32
:1012C0000E94E92860E088E20E942528EFEFF4E31D
:1012D0002CE0E150F0402040E1F700C0000062E067
:1012E00088E30E94252881E594E00E94E128F7DB4D
:1012F0008C010E948C29B8017727482F88EBFEDBF0
:1013000060E088E20E94252862E08EE90E9425289C
:1013100060E08CE20E942528E2DB8C010E948C298F
:10132000F82E1127482FB8018EE9E8DB4F2DB801C0
:1013300081E240DD60E088E20E9425280BDC28DBAA
:1013400082E692E029960FB6F894DEBF0FBECDBFBD
:10135000DF91CF911F910F91FF90EF90DF90CF9091
:10136000BF90AF909F908F907F906F905F900C9404
:10137000E128CF9381E092E00E94E5398093CD0689
:1013800082E092E00E94E53980933E0680E092E0A0
:101390000E94E539809381068091D2098430E1F77B
:1013A0002FEF89E698E1215080409040E1F700C09E
:1013B000000087E593E00E94E12889E393E00E9422
:1013C000E1287E99FECF89E093E00E94E128809198
:1013D000CD060E94E92860E088E20E9425287E9BD5
:1013E00015C07C990BC08091CD068F5F8093CD0690
:1013F0000E94E92860E088E20E9425287D99EFCFCD
:101400008091CD0681508093CD06E3CF8BEE92E0A4
:101410000E94E12880913E060E94E92860E088E26F
:101420000E9425287E9B15C07C990BC080913E06AA
:101430008F5F80933E060E94E92860E088E20E9468
:1014400025287D99EFCF80913E06815080933E06FE
:10145000E3CF8DEB92E00E94E128809181060E940B
:10146000E92860E088E20E9425287E9B15C07C99CF
:101470000BC0809181068F5F809381060E94E928CE
:1014800060E088E20E9425287D99EFCF8091810657
:10149000815080938106E3CF8DE992E00E94E1289C
:1014A000809180060E94E92860E088E20E94252859
:1014B0007E9B15C07C990BC0809180068F5F8093C6
:1014C00080060E94E92860E088E20E9425287D9934
:1014D000EFCF80918006815080938006E3CF83E731
:1014E00092E00E94E12880913C06882319F08BE469
:1014F00092E002C08FE492E00E947028C1E07E9BDF
:1015000015C07C9906C010923C068FE492E00E94C0
:1015100070287D9906C0C0933C068BE492E00E943F
:1015200070287C9BFECF7D9BFCCFE9CF609181062C
:1015300080E092E00E94F23960913E0682E092E003
:101540000E94F2396091CD0681E092E00E94F2396A
:10155000609180068CE092E00E94F23960913C0636
:101560008EE092E00E94F23982E692E0CF910C94F4
:10157000E128B5DAFC01FF27E35BF84F808185376E
:1015800011F08337B1F70895CF92DF92EF92FF9277
:101590000F931F93CF93DF938091D2098430E1F7AB
:1015A0002FEF89E698E1215080409040E1F700C09C
:1015B000000086E492E00E94E12885E192E00E942A
:1015C000E12888EE91E00E94E128D3DF082F84E52E
:1015D00092E00E9470288EEB91E00E94E1288CE955
:1015E00091E00E94E1288FE791E00E94E128053711
:1015F00009F0A0C060E08DE20E94252828EBE22ED1
:101600001EE938E3F32EDDE2CD2F7E9B86C07C9968
:1016100034C0CF5F41F0EC1630F0FC1628F4C1174F
:1016200018F4C12F01C0CD2F60E088E20E94252868
:10163000053761F48C2F8068885A853010F4CF5FAD
:10164000F9CF60E08C2F0E9425280EC0C13631F002
:10165000C13431F0C03329F4CAE303C0CBE701C081
:10166000CBE58C2F0E942F292FEF84E39CE02150A3
:1016700080409040E1F700C000007D99C6CF80E532
:1016800091E00E94E1282BDA6C010E948C29482FFE
:10169000B60177278C2F053711F430DA04C08ADBC6
:1016A0008C2D0E94E92860E088E20E94252870D9EC
:1016B000CF5F41F0EC1630F0FC1628F4C11718F497
:1016C000C12F01C0CD2F60E088E20E942528053798
:1016D00061F48C2F8068885A853010F4CF5FF9CF81
:1016E00060E08C2F0E9425280EC0C13631F0C13435
:1016F00031F0C03329F4CAE303C0CBE701C0CBE526
:101700008C2F0E942F292FEF84E39CE021508040F2
:101710009040E1F700C0000078CF3AD982E692E02D
:10172000DF91CF911F910F91FF90EF90DF90CF90BD
:101730000C94E12881E20E942F298BEFE82E10EE15
:101740009FEAF92ED1E260CFE4E6F0E08081877F66
:1017500080838AE08093810087E28093890080E122
:1017600080938800EFE6F0E08081826080830895B6
:101770002098289A54985C9A56985E9A57985F9A3F
:1017800024982C9A2B9A23982B9A2A9A22982A9A50
:101790006A9A25982D9A299A2198299A599A519AA4
:1017A00055985B9A539A52985A9A84988C9A85982D
:1017B0008D9A86988E9A8F98879A479A3F9A8198A1
:1017C000899A769A6E9A469A3E9A2E9A269A089501
:1017D000F8949FEF9093D1001092BF0090E2909305
:1017E000CF009091C400613051F49E7F9093C4006B
:1017F0009091C0009F7B9093C000469808C0916074
:101800009093C4009091C00090649093C000909118
:10181000C00092609093C000909172009460909389
:101820007200813069F030F0823041F0833041F451
:1018300086E009C089E08093C10002C087E003C050
:101840008091C10088608093C10010923906109287
:10185000BF001092BE00789408951F920F920FB6A9
:101860000F9211248F939F938091CF00909139060E
:10187000992319F0923039F00AC08F3F31F491E08A
:101880009093390610C08F3F71F08F5F0CC08111AB
:1018900009C09091C0009F7B9093C0001092C1003E
:1018A000469A01C081508093CF009F918F910F90F5
:1018B0000FBE0F901F901895292F33272330310525
:1018C000E1F05CF42130310599F02230310579F5F1
:1018D00089E390E02FE036E02EC02132310511F18E
:1018E0002232310521F58FE390E02AE536E023C06E
:1018F00082E190E028E436E01EC09927813091050E
:1019000041F08230910541F0892B89F4EBE0F6E05B
:1019100005C0E3EEF5E002C0E1EBF5E0849190E074
:101920009F0109C089E090E028E336E004C080E030
:1019300090E020E030E0FA01318320830895CF93D6
:1019400042E164E271E087E593E00E94FA1C87E5DA
:1019500093E00E94B61F87E593E00E94F91F42E1E1
:1019600064E271E087E593E00E94FA1CC82F409181
:10197000610350916203609163037091640387E592
:1019800093E00E9409208C2FCF91089587E593E082
:101990000E94B61F87E593E00C94F91F41E06AE8C6
:1019A00072E087E793E00E94B21C91E0811101C0D0
:1019B00090E0892F08958091530390915403A09152
:1019C0005503B0915603892B8A2B8B2BD9F4A09108
:1019D00079034091890350918A0360918B03709140
:1019E0008C039A01AB012250310941095109B0E041
:1019F0000E945836609353037093540380935503A9
:101A00009093560360915303709154038091550352
:101A10009091560308951F93CF93DF9300D0CDB7D5
:101A2000DEB7EEE8F7E001900020E9F73197EE58D5
:101A3000F740FA83E983409161035091620360911A
:101A400063037091640387E593E00E940920498154
:101A50005A819E012F5F3F4F6EE877E087E593E064
:101A60000E94241E182F10928E0787E593E00E9493
:101A7000B61F81E0111101C080E00F900F90DF913F
:101A8000CF911F9108958ADF882321F08AE0809307
:101A90008D07089566E772E084E291E00E941837AE
:101AA0004EDF6FE772E08EE897E00E941837B3DFF1
:101AB0006DDF2FEF80E792E0215080409040E1F70A
:101AC00000C00000EDCFEEE8F7E001900020E9F75C
:101AD00031979F012E583740263F91E0390708F093
:101AE00041C08D3081F590915203F901E257F84FD2
:101AF000A9014F5F5F4F9D3021F090E29083FA0182
:101B00001FC0D901A357B84F9C91B9016E5F7F4F99
:101B1000903279F48C939AE09083FA01E257F84F6F
:101B20008083FB01E257F84F9083F901EF56F84F9D
:101B300016C08083FA01E257F84F9AE09083FB01C8
:101B4000E257F84F0CC0F901883019F4E357F84F09
:101B500006C0E257F84F8083F901E157F84F108231
:101B6000809352030895CF92DF92EF92FF920F93EA
:101B70001F93CF93DF93CDB7DEB766970FB6F89478
:101B8000DEBF0FBECDBF10928E0708DF81113FC0B0
:101B900061E080E01DDE8AE092E00E94ED398C0178
:101BA0008031974210F000E010E08BE8C82E82E010
:101BB000D82E94E2E92E91E0F92E0F5F1F4F1F936C
:101BC0000F93DF92CF92FF92EF920E944637BE01B1
:101BD0006F5F7F4F84E291E00E9498210F900F90F9
:101BE0000F900F900F900F90882339F3843079F481
:101BF0000E94962AF82E0E948C29682F8F2D0E9411
:101C0000F22B8823A9F35FDF9ADE882321F08AE094
:101C100080938D0762C0B8018AE092E00E941B3A6F
:101C20001092860610928506809185069091860610
:101C300080329F4B08F04CC00E94962A182F0E94B9
:101C40008C29682F812F0E94F22B182F882301F1F5
:101C5000833721F480918706811110E01092870666
:101C6000812F31DF10928606109285061D3061F0BB
:101C7000812F8D7F8C3241F08FED810F823020F0EB
:101C80001F3311F01A3321F460E082E0A1DDC3DEDE
:101C90008FEC97E00197F1F700C000008091850676
:101CA00090918606893B9B4008F4BECF80918E07B9
:101CB000882309F4B9CF46988FEF9DE329E481503A
:101CC00090402040E1F700C00000A5DE469AACCF6E
:101CD00060E082E07DDD9FDE59DE66960FB6F89407
:101CE000DEBF0FBECDBFDF91CF911F910F91FF904F
:101CF000EF90DF90CF90089523B123B10197E1F7E2
:101D00000895FC01680F791F919197FF02C02A9AEC
:101D100001C02A98299A299896FF02C02A9A01C0E0
:101D20002A98299A299895FF02C02A9A01C02A98D0
:101D3000299A299894FF02C02A9A01C02A98299AC0
:101D4000299893FF02C02A9A01C02A98299A2998B3
:101D500092FF02C02A9A01C02A98299A299891FFD5
:101D600002C02A9A01C02A98299A299890FF02C095
:101D70002A9A01C02A98299A2998E617F70721F686
:101D800008952A9AFC01680F791F93B1299A29981E
:101D900093FB992790F9990F1B999F5F299A29988E
:101DA000990F1B999F5F299A2998990F1B999F5FFB
:101DB000299A2998990F1B999F5F299A2998990F19
:101DC0001B999F5F299A2998990F1B999F5F299AC0
:101DD0002998990F1B999F5F299A29989193E61743
:101DE000F70799F608950F931F93CF93DF931F92F0
:101DF000CDB7DEB708E813E161E070E0CE010196EF
:101E0000C0DF89818F3F31F084E690E075DF0150BB
:101E1000110991F781E090E0012B11F480E090E04E
:101E20000F90DF91CF911F910F910895CF93DF9382
:101E30001F92CDB7DEB7599A61E070E0CE010196EE
:101E4000A0DF0F90DF91CF910895CF93DF9300D063
:101E50001F92CDB7DEB7599861E070E0CE010196D0
:101E600090DFC1DF009731F48A839B83DFDF8A81B3
:101E70009B8102C081E090E00F900F900F90DF9166
:101E8000CF910895CF92DF92EF92FF920F931F931D
:101E9000CF93DF9300D0CDB7DEB77C016B0108EEA6
:101EA00013E061E070E0CE0101966BDF89818F3F26
:101EB00071F089818E3F91F4B601C70162DF62E063
:101EC00070E0CE0101965DDF81E090E009C084E61C
:101ED00090E012DF0150110921F7EBCF80E090E094
:101EE0000F900F90DF91CF911F910F91FF90EF9086
:101EF000DF90CF900895DF92EF92FF920F931F93A0
:101F0000CF93DF93CDB7DEB727970FB6F894DEBF38
:101F10000FBECDBF182F042FF52EE62ED72E87FF2C
:101F200008C040E050E0BA0187E3E5DF823090F579
:101F30001F771C3051F4812F80648983DA82EB8211
:101F4000FC820D83112359F006C070DF7EDF892BE0
:101F500091F78FEF1FC0183021F081E003C085E9B1
:101F600001C087E88E8366E070E0CE010196C9DE8D
:101F70001C3029F461E070E0CE01079602DF1AE020
:101F800061E070E0CE010796FCDE8F8187FF02C022
:101F90001150B1F727960FB6F894DEBF0FBECDBF34
:101FA000DF91CF911F910F91FF90EF90DF900895F7
:101FB000EF92FF921F93CF93DF9300D0CDB7DEB7A0
:101FC0007C01162F10DF009711F1198361E070E09A
:101FD000CE01019696DE1D3FC1F060E072E0C701C0
:101FE00090DE62E070E0CE010196CBDE61E070E051
:101FF000CE010196C6DE89818F7131E020E0853007
:1020000009F030E0832F922F02C081E090E00F9022
:102010000F90DF91CF911F91FF90EF900895811164
:1020200003C080913101089581E00895EF92FF92FD
:102030000F931F93CF93DF9300D000D0CDB7DEB7BF
:1020400081115FC080E197E257DE519A599A299831
:10205000219A2998229A2B9A1AE061E070E0CE0129
:1020600001968FDE1150C9F740E050E0BA0180E0E0
:1020700042DF813009F06BC04AEA51E060E070E075
:1020800088E039DF8130F1F464E070E0CE01019640
:1020900078DE8B81813009F05AC08C818A3A09F050
:1020A00056C008EE13E040E050E060E070E489EADA
:1020B00022DF882341F188EE93E01EDE01501109F2
:1020C00091F745C040E050E0BA0189EA14DF823060
:1020D00018F001E011E002C009EA12E088EEE82EF3
:1020E00083E0F82E40E050E0BA01802F04DF88231F
:1020F00031F188EE93E000DE81E0E81AF10891F713
:1021000026C083E026C040E050E0BA018AE3F3DE57
:1021100081111DC064E070E0CE01019632DE89813C
:1021200086FD02C014E001C01CE01093A50501E08B
:10213000111100E00093310179DE802F0AC040E0E8
:1021400052E060E070E080E1D6DE882371F310E0B9
:10215000ECCF0F900F900F900F90DF91CF911F91C8
:102160000F91FF90EF900895EF92FF920F931F93BE
:10217000CF937B01BA01A901811103C08091310184
:1021800001C081E080FD2DC08091A50583FD07C0C1
:1021900089E0440F551F661F771F8A95D1F70230DB
:1021A000110510F4C1E101C0C2E18C2FA4DE811140
:1021B00012C060E072E0C70165DE892B29F08EEF66
:1021C000F81A01501109A9F7C23129F440E050E092
:1021D000BA018CE090DE2ADE81E0012B19F480E068
:1021E00001C083E0CF911F910F91FF90EF90089570
:1021F000CF92DF92EF92FF920F931F93CF93DF93D3
:10220000EB0169017A01811103C08091310101C0A4
:1022100081E080FD43C08091A50583FD07C099E062
:10222000CC0CDD1CEE1CFF1C9A95D1F7013011057A
:1022300089F4B701A60188E15EDE811129C06EEF45
:10224000CE01B6DE31E020E0892B09F030E0032F2B
:10225000122F1EC0867029F0A80160E070E087E9A7
:102260004ADEB701A60189E146DE811111C06CEF9B
:10227000CE019EDE892B21F0DE5F01501109B9F7F6
:102280006DEF80E090E094DE892B11F401E010E026
:10229000CDDD81E0012B19F480E001C083E0DF9106
:1022A000CF911F910F91FF90EF90DF90CF90089505
:1022B0000F931F93CF93DF93CDB7DEB760970FB621
:1022C000F894DEBF0FBECDBF811103C080913101F4
:1022D00001C081E080FD7CC08A01613079F040F06E
:1022E000633009F071C080E890E0A0E0B0E065C024
:1022F000ACDD11E0892B09F468C064C040E050E017
:10230000BA0189E0F8DD882311F011E05EC060E1D8
:1023100070E0CE010196B6DD892BB9F399819295D3
:10232000969596959370888549852A859130E1F434
:102330008F7390E0A0E0B0E0DC0199278827019638
:10234000A11DB11D50E0542F4427BA01620F711D29
:10235000860F971FA11DB11D7AE0880F991FAA1F34
:10236000BB1F7A95D1F729C0429546954695437093
:10237000F4E08F9FC0011124840F911D01964F81BD
:10238000437050E0542F4427550F550F840F951F6D
:10239000A0E0B0E03E81432F4F703B85331F3327D1
:1023A000331F340F2370220F230F275004C0880FD0
:1023B000991FAA1FBB1F2A95D2F7F801808391832A
:1023C000A283B38310E001C014E030DD812F01C08F
:1023D00083E060960FB6F894DEBF0FBECDBFDF91ED
:1023E000CF911F910F910895CF93DF93EB01DC0103
:1023F000FA01E230F10530F0299139912D933D93A6
:102400003297F7CF9A012E7FDC01A20FB31FFB0199
:10241000E20FF31F40FF02C020812C93DF91CF9188
:1024200008950F931F93CF93DF938B01FB01399690
:10243000DC011E964D915D916D917C915197452BDC
:10244000462B472BA9F15296CD91DC915397AE01C3
:1024500080E090E03EE20196DA012D91AD0120325C
:1024600051F0253009F425EE8930910511F43083BF
:102470003196208331968B30910569F78B85D80191
:1024800018968C9318974C8D5D8D6E8D7F8D4D9326
:102490005D936D937C931397888D998D15969C937E
:1024A0008E9314978E899F8917969C938E93169777
:1024B0001082DF91CF911F910F910895FC0120812F
:1024C000318121153105B1F0F901BF01419141324E
:1024D00070F04A33D1F7F90141916E177F0751F43B
:1024E000403341F42E5F3F4FFC013183208380E075
:1024F00090E008958FEF9FEF08950097C1F0DC0101
:10250000ED91FC911197309791F02081222379F081
:102510002681378112968D919C9113972817390740
:1025200031F481817CDD80FD04C080E0089589E084
:10253000089583E008958F929F92AF92BF92CF92B9
:10254000DF92EF92FF920F931F93CF93DF93FC01E3
:102550002481211102C080E040C0EC01C2A4D3A4B8
:10256000E4A4F5A45C01FEE2AF0EB11C01E010E0B2
:10257000A7019601B50189813BDE81112DC01C8226
:102580008E8D9F8DA8A1B9A1B701A601481B590B3B
:102590006A0B7B0B8E899F89A88DB98D48175907C7
:1025A0006A077B07C0F68B80912CE2E08E169104BF
:1025B00090F28E899F89A88DB98DC80ED91EEA1E0A
:1025C000FB1E01E010E0A7019601B501898110DE34
:1025D00081E0881A9108E9CF81E0DF91CF911F91C6
:1025E0000F91FF90EF90DF90CF90BF90AF909F90B2
:1025F0008F9008950F931F93CF93DF93EC019BDF90
:10260000982F81115AC08881833009F04DC08D8187
:10261000813009F049C0BE01625D7F4FFB01CE01F0
:10262000825D9D4FE817F90711F01192FBCF85E508
:102630009AEAFE01E45DFD4F9183808382E592E595
:10264000A1E6B1E48EA79FA7A8ABB9AB82E792E75A
:10265000A1E4B1E67A9780839183A283B3838E85C8
:102660009F85A889B989349680839183A283B38397
:102670008A859B85AC85BD85349680839183A283B2
:10268000B3838A8D9B8DAC8DBD8D9C01AD012F5F79
:102690003F4F4F4F5F4F2AA73BA74CA75DA701E0D5
:1026A00010E08981A5DD1D8240E050E060E0898175
:1026B000FFDD91E0811101C090E0892FDF91CF9182
:1026C0001F910F9108958F929F92AF92BF92FF92A8
:1026D0000F931F93CF93DF93EC014A015B018AA50F
:1026E0009BA5ACA5BDA5481759076A077B07D9F07C
:1026F000CE0121DFF82E811117C001E010E0A50105
:102700009401BE01625D7F4F89812EDD882331F007
:10271000FF24F39488248A94982C54018AA69BA6BB
:10272000ACA6BDA601C0F12C8F2DDF91CF911F91DA
:102730000F91FF90BF90AF909F908F900895CF938F
:10274000DF93EC011C828FEF9FEFDC018AA79BA730
:10275000ACA7BDA7CE01B7DF811122C0FE01E45DA9
:10276000FD4F8081918185359A4AE1F4E85CF14022
:1027700080819181A281B381BB2786349144A44595
:10278000B10591F0C058DF4F488159816A817B8142
:10279000772781E0463451446445710531F404C023
:1027A00083E003C082E001C080E0DF91CF91089513
:1027B0002F923F924F925F926F927F928F929F9251
:1027C000AF92BF92CF92DF92EF92FF920F931F933F
:1027D000CF93DF93CDB7DEB76D970FB6F894DEBF1A
:1027E0000FBECDBF5C01CB01D42ED5011D921C9232
:1027F00065DE7C0197FD18C2FC01EE0FFF1FE85556
:10280000FA4F008111810115110509F40FC2F5017C
:1028100011830083D8018C91882361F011968C91EB
:10282000FEDB80FD07C0DD2009F402C282FF00C28A
:102830008AE003C2F8011082E1828E2DF7DB80FD71
:10284000F9C1DD2011F082FDF3CF40E050E0BA0184
:10285000C80175DF8130C9F5F801E051FE4F9E01D6
:102860002F5F3F4F6901C801805D9D4FD9012081D5
:10287000222329F0448155816681778103C040E09D
:1028800050E0BA014D935D936D937D937096E81778
:10289000F90769F77E0131E1E30EF11CD6014D9095
:1028A0005D906D907D906D0141145104610471043F
:1028B00039F0B301A201C80142DF811102C00FC08B
:1028C00082E0CE14DF0451F703C0412C512C3201B9
:1028D000833009F4B1C1882311F08DE0AEC1F80155
:1028E00081AD92AD81159240C1F7F801EC5BFF4FCD
:1028F00080809180A12CB12C81149104A104B10499
:1029000029F43E9680809180A280B380D8015696AB
:102910008D929D92AD92BC925997DE964C91DE9726
:1029200013964C9313978FEF840F8230B0F6DB969B
:10293000EC91DB97E98B1296EC931297EE2369F2F8
:102940008E2F90E09C012150310982239323892B03
:1029500021F6F801FF962080318019963C922E9244
:102960001897C1018F709927892B09F0B6CF32963D
:10297000C080D180E12CF12CC114D104E104F10418
:1029800029F43D96C080D180E280F380D801DC96A6
:10299000ED91FC91DD97309709F49FCFA42FB0E023
:1029A000A50194010E9458366E8B7F8B888F998F7A
:1029B0009F0140E050E02A8F3B8F4C8F5D8FC1011B
:1029C00064E0969587956A95E1F7280F391F411DB8
:1029D000511DDA01C9012E893F89488D598D280F73
:1029E000391F4A1F5B1F2A8B3B8B4C8B5D8BC2169A
:1029F000D306E406F50608F470CFC701B601621BE2
:102A0000730B840B950BE9892E2F30E040E050E0EA
:102A10000E943636211531054105510509F45DCF77
:102A2000263FFFE03F074105510548F0263F8FEF65
:102A300038074105510530F492E0998B05C0A1E0BB
:102A4000A98B02C0B3E0B98B69017A01E2E0CE0E36
:102A5000D11CE11CF11CD8015296CD92DD92ED9271
:102A6000FC925597F801428E538E648E758E8A8D36
:102A70009B8DAC8DBD8D840D951DA61DB71D868FBC
:102A8000978FA0A3B1A34A895B896C897D89440D86
:102A9000551D661D771D46A357A360A771A7F98929
:102AA000F330B9F4232809F018CFF801E65AFF4FA4
:102AB00080819181A281B381F80182A393A3A4A311
:102AC000B5A342E0CC0CDD1CEE1CFF1C4A95D1F7EF
:102AD0002DC0232809F401CF2E893F89488D598DB7
:102AE000820F931FA41FB51FF80182A393A3A4A371
:102AF000B5A3F989F23029F4CC0CDD1CEE1CFF1CC7
:102B000015C0A3E0B0E0A70196010E945836DC0191
:102B1000CB01B695A7959795879521E0C222DD2434
:102B2000EE24FF24C80ED91EEA1EFB1E3FEFC30E83
:102B300031E0D31EE11CF11C89E0F694E794D794B0
:102B4000C7948A95D1F78C149D04AE04BF0408F491
:102B5000C4CE8FEF9FEFDC01F80186879787A08BAB
:102B6000B18B82879387A487B58780E88583F989AD
:102B7000F33009F048C0F801E25AFF4F808191819B
:102B8000019709F040C0B301A2014F5F5F4F6F4F43
:102B90007F4FC80198DD811136C0D80115961C926F
:102BA000F801E45DFD4F8081918185359A4A59F5A0
:102BB000F80186A597A5A0A9B1A982359245A1469D
:102BC000B14409F5F801EE5EFD4F80819181A2814B
:102BD000B38182379247A144B146A9F434968081EB
:102BE0009181A281B381F80186879787A08BB18BF1
:102BF000E65EFD4F80819181A281B381F8018287D9
:102C00009387A487B587E989D801EC938091A605BD
:102C10009091A70501969093A7058093A605179616
:102C20009C938E93169704C08BE007C08CE005C080
:102C300080E003C083E001C081E06D960FB6F89498
:102C4000DEBF0FBECDBFDF91CF911F910F91FF90DF
:102C5000EF90DF90CF90BF90AF909F908F907F903C
:102C60006F905F904F903F902F9008950F931F9318
:102C7000FC019A01AB0122503109410951098289B5
:102C80009389A489B5890297A109B1092817390741
:102C90004A075B0768F4A281B0E00E94583606A19B
:102CA00017A120A531A5600F711F821F931F03C0BC
:102CB00060E070E0CB011F910F910895AF92BF9239
:102CC000CF92DF92EF92FF920F931F93CF93DF93F8
:102CD0008C016A017B01423051056105710508F4E0
:102CE000A9C0F80182899389A489B5894817590731
:102CF0006A077B0708F09EC08081823009F44BC0D0
:102D0000833009F46BC0813009F094C0EA01D69594
:102D1000C795CC0DDD1DCE01892F99278695468D4F
:102D2000578D60A171A1480F591F611D711DC80108
:102D3000CADC882321F06FEF7FEFCB017FC05E01FB
:102D4000FFEFAF1ABF0AD170C00FD11FCEA5C501CA
:102D5000892F99278695F801468D578D60A171A11D
:102D6000480F591F611D711DC801ADDC8111E3CFF2
:102D7000F1E0BF22F801EA0DFB1D86A56C2F70E083
:102D8000782BC0FE06C054E0769567955A95E1F71A
:102D900022C07F7020C077276F2D5E2D4D2DF8014A
:102DA000868D978DA0A1B1A1480F591F6A1F7B1F67
:102DB000C80189DC8111BFCFCC0CDD1CEE1CFF1CCF
:102DC000E894C0F8F1E0DF22EE24FF24F801EC0DD6
:102DD000FD1D66A577A580E090E030C0F801868DE6
:102DE000978DA0A1B1A127E0769567955795479556
:102DF0002A95D1F7480F591F6A1F7B1FC80163DC52
:102E0000811199CF82E0CC0CDD1CEE1CFF1C8A9551
:102E1000D1F7FCEFCF22F1E0DF22EE24FF24F8010E
:102E2000EC0DFD1D86A597A5A0A9B1A9BC01CD01FA
:102E30009F7004C061E070E080E090E0DF91CF918E
:102E40001F910F91FF90EF90DF90CF90BF90AF90C8
:102E50000895AF92BF92CF92DF92EF92FF920F93BD
:102E60001F93CF93DF938C01EB01DC0115967C93CC
:102E70006E9314971696CD90DD90ED90FC90199777
:102E8000B1E0CB16D104E104F10411F482E087C073
:102E9000DC01ED91FC9182899389A489B589C816DA
:102EA000D906EA06FB0690F7C114D104E104F10447
:102EB000B9F48081833041F482A193A1A4A1B5A18A
:102EC0000097A105B10551F480859185C817D907F0
:102ED000E8F662A173A184A195A132C06C017D01C5
:102EE000A280B0E1AB9E50011124B701A601F80108
:102EF00080819181CA15DB0500F1E0DEAB01BC01E8
:102F00004F3FEFEF5E076E077E0709F447C0423080
:102F100051056105710508F4B9CFD801ED91FC9117
:102F200082899389A489B589481759076A077B075D
:102F300008F0ACCFCA19DB09DACF6A017B0196DE53
:102F4000D8011A96CD92DD92ED92FC921D976115F3
:102F500071058105910509F499CF9E0144E03695EC
:102F600027954A95E1F7DC01CB01820F931FA11D44
:102F7000B11DF80186879787A08BB18BCF70DD27B5
:102F800055E0CC0FDD1F5A95E1F7AE968081918117
:102F9000C80FD91FD38BC28B80E001C081E0DF91C5
:102FA000CF911F910F91FF90EF90DF90CF90BF9046
:102FB000AF9008952F923F924F925F926F927F92BF
:102FC0008F929F92AF92BF92CF92DF92EF92FF9239
:102FD0000F931F93CF93DF9300D000D0CDB7DEB710
:102FE0001C016A017B01280139014230510561054C
:102FF000710508F4E0C0FC0182899389A489B58930
:10300000481759076A077B0708F0D5C080818230CE
:1030100009F471C0833009F492C0813009F0CBC04B
:103020005A01B694A794A40EB51EC501892F9927FD
:103030008695468D578D60A171A1480F591F611D5E
:10304000711DC10140DB8111B7C04501FFEF8F1A2F
:103050009F0A21E0B222A20CB31CA70196012170A5
:1030600033274427552729833A834B835C83C0FE4B
:103070000BC0D5019E968C91282F2F70B0E14B9EEE
:10308000C0011124822B01C0842DF50186A781E0A7
:10309000D10114968C9314975E964D915D916D912C
:1030A0007C919197C401892F99278695480F591FC4
:1030B000611D711DC10107DB81117EC0B1E09B2242
:1030C000F101E80DF91D29813A814B815C81232BA7
:1030D000242B252B41F054E0769467945794479421
:1030E0005A95D1F706C026A5207F952D9F70422EB8
:1030F000492A46A65BC077276F2D5E2D4D2DF10125
:10310000868D978DA0A1B1A1480F591F6A1F7B1F03
:10311000C101D9DA811150C0CC0CDD1CEE1CFF1CA2
:10312000E894C0F8F1E0DF22EE24FF242EE2C20E84
:10313000D11CF101EC0DFD1D5182408237C0F1011F
:10314000868D978DA0A1B1A127E0769567955795BB
:1031500047952A95D1F7480F591F6A1F7B1FC10158
:10316000B2DA811129C092E0CC0CDD1CEE1CFF1CF0
:103170009A95D1F7FCEFCF22F1E0DF22EE24FF2475
:103180002EE2C20ED11CF101EC0DFD1D40815181DA
:1031900062817381442755276627707F442A552A08
:1031A000662A772A408251826282738291E0D1013D
:1031B00014969C9301C082E00F900F900F900F9097
:1031C000DF91CF911F910F91FF90EF90DF90CF9003
:1031D000BF90AF909F908F907F906F905F904F9037
:1031E0003F902F9008954F925F926F927F928F92AF
:1031F0009F92AF92BF92CF92DF92EF92FF920F9386
:103200001F93CF93DF93EC012A013B014115510538
:103210006105710599F48A849B84AC84BD84811412
:103220009104A104B10459F18A899B89AC89BD89B3
:1032300088169906AA06BB0630F121C03FDD6B0156
:103240007C01623071058105910508F48AC08FEF19
:10325000C816D806E806F80629F46FEF7FEF8FEF5F
:103260009FEF86C08A899B89AC89BD89C816D9061B
:10327000EA06FB0608F47AC05301420104C0812C1F
:10328000912C54018394750164012FEFC21AD20A64
:10329000E20AF20A8A899B89AC89BD89C816D906D7
:1032A000EA06FB0668F082E088169104A104B104E6
:1032B00010F460E057C082E0C82ED12CE12CF12C34
:1032C000B701A601CE01FADC8B019C01672B682BAC
:1032D000692BA1F00F3F8FEF18072807380729F057
:1032E000013011052105310519F4B801C90140C0AB
:1032F000C814D904EA04FB0441F6DBCF0FEF1FEF3B
:103300002FEF3FE0B701A601CE0154DE811126C0A8
:103310004114510461047104C9F4CA86DB86EC8649
:10332000FD868E859F85A889B9898F3F2FEF9207EB
:10333000A207B207D9F00197A109B1098E879F872B
:10334000A88BB98B8D8181608D8310C09701860118
:10335000B301A201CE012EDE8823F9F2813009F4F7
:103360007CCF61E070E080E090E002C0B601C70170
:10337000DF91CF911F910F91FF90EF90DF90CF9051
:10338000BF90AF909F908F907F906F905F904F9085
:1033900008957F928F929F92AF92BF92CF92DF92C9
:1033A000EF92FF920F931F93CF93DF93EC016B018A
:1033B000EC80FD808FEFE81AF80A11F484E0DBC09E
:1033C0004E855F85688979894115510561057105CB
:1033D000A9F387010F7011270115110509F0B9C074
:1033E0004F5F5F4F6F4F7F4F4E875F87688B798B43
:1033F0004A855B856C857D8588819981FC014115B5
:1034000051056105710531F480859185E816F9064D
:10341000A8F69FC0228130E021503109F701A4E0D5
:10342000F695E795AA95E1F72E233F23232B09F084
:1034300090C044DC4B015C0162307105810591054F
:1034400010F482E098C08FEF88169806A806B80698
:1034500011F481E090C088819981FC0142895389EF
:103460006489758984169506A606B70608F464C0B3
:10347000CD2809F4A3CF4A855B856C857D85B3DEB5
:103480004B015C01611571058105910509F472C05C
:103490006130710581059105A1F28FEF88169806BC
:1034A000A806B806B1F28881998145D88111D1CF9B
:1034B00088819981FC01BE96825D9D4FE817F907CE
:1034C00011F01192FBCFC880D980B501A401C601CB
:1034D000CDDBF60162A773A784A795A7C12CD12CD9
:1034E00077247394E881F981828190E0C816D90627
:1034F000B8F47482888199811ED88111AACFE8819D
:10350000F98182A593A5A4A5B5A50196A11DB11D1C
:1035100082A793A7A4A7B5A7FFEFCF1ADF0AE2CF30
:1035200082A593A5A4A5B5A58C199D09A109B109EA
:1035300082A793A7A4A7B5A78A869B86AC86BD86DB
:10354000B501A4018881998191DB6E877F87888B83
:10355000998BFD82EC8285E0000F111F8A95E1F7BF
:10356000025D1F4F88819981080F191F1B8B0A8BE1
:1035700080E001C087E0DF91CF911F910F91FF9014
:10358000EF90DF90CF90BF90AF909F908F907F9003
:1035900008954F925F926F927F929F92AF92BF92E7
:1035A000CF92DF92EF92FF920F931F93CF93DF930F
:1035B000EC018B01DB018C918F3211F08C3511F411
:1035C0000F5F1F4F1E821F8218861986F8018081A7
:1035D000803228F070E2A72EE5E0BE2E62C060E0E7
:1035E00070E0CE0136DC1B8A1A8AF4C0820120E02A
:1035F00030E080E090E048E050E0912C0196D80166
:103600007D918D01713208F063C08201080F191F8E
:10361000713208F487C080E0232B09F4B7C0908191
:10362000953E09F4B0824830510511F4990C990C7B
:10363000992D9370913009F48061992D9C7094308C
:1036400009F48860838760E070E0CE0102DC8823A3
:1036500009F46AC0EC89FD89938581118EC092FDC1
:1036600091C04A895B89FA01838584FF8DC0828D70
:10367000938DA0E0B0E028813981F90120812330C9
:1036800061F4FA014489558960E070E0BA01552778
:103690004427842B952BA62BB72B8E839F83A8873B
:1036A000B9872801D8019C910F5F1F4F9F32C9F342
:1036B0009C35B9F3EC89FD89CF019F01255F3F4F10
:1036C0008217930709F492CFDC01AD92CD01F8CFB8
:1036D0007F3209F49ACF7C3509F497CF7E3209F412
:1036E00057C02417350708F051C077FF09C0B92D1E
:1036F000B3609B2E672F70E0695D7D4FDB017C918D
:10370000C72ED12C68E9E62E62E0F62ED7016D9126
:103710007D01662309F446C0662E712C6C147D046D
:10372000A9F734C084E078CF4E855F8568897989B0
:10373000888199810E94631381118CCFEA89FB896A
:1037400080818823B1F0838583FD0EC0AC89BD895B
:10375000AF01455F5F4FE417F50769F081912D9147
:1037600090E0821B9109B9F360E070E0CE0111DEB8
:103770006ECF84E06FCF80E06DCF843059F592FF3B
:1037800003C028C080E026C085E024C086E022C0B7
:1037900048305105D9F7990C990C28E030E04BE0FE
:1037A00050E02CCF6FEB670F6A3120F4B92DB26077
:1037B0009B2E08C06FE9670F6A3120F4692D6160A4
:1037C000962E70527F01E20EF31ED7017C932F5F7D
:1037D0003F4F14CFDF91CF911F910F91FF90EF904A
:1037E000DF90CF90BF90AF909F907F906F905F9051
:1037F0004F9008951F93CF93DF93EC0160E070E04A
:1038000028DB182F811117C04E855F85688979895B
:10381000888199810E946313182F81110CC0EA8955
:10382000FB898081853E59F0882349F061E070E092
:10383000CE01AFDDE6CF143011F517E020C04E8584
:103840005F8568897989888199810E946313182F1F
:10385000811115C0EA89FB89CF018096E817F90725
:1038600011F01192FBCF6C897D894BE050E08A8981
:103870009B890E94F411E881F98181E08483812F82
:10388000DF91CF911F9108958F929F92AF92BF9237
:10389000CF92DF92EF92FF920F931F93CF93DF931C
:1038A000EC016A017B01423051056105710510F49C
:1038B00082E04BC08A899B89AC89BD89481759072A
:1038C0006A077B07A8F78A899B89AC89BD89C816D6
:1038D000D906EA06FB0650F4B701A601CE01EED9DF
:1038E0004B015C01672B682B692B11F480E02DC024
:1038F00081E088169104A104B104D1F22FEF821661
:103900009206A206B20601F100E010E09801B701AC
:10391000A601CE014FDB811118C08E859F85A88935
:10392000B9898F3F2FEF9207A207B20751F0019696
:10393000A11DB11D8E879F87A88BB98B8D8181605A
:103940008D8375016401BFCF81E0DF91CF911F911D
:103950000F91FF90EF90DF90CF90BF90AF909F902E
:103960008F900895CF93DF93CDB7DEB727970FB62B
:10397000F894DEBF0FBECDBF9C838B837E836D83A7
:103980007A836983CE0101964F830E945E124F8134
:1039900097FD24C0880F991FFC01E855FA4F01904C
:1039A000F081E02D309709F01082EB81FC81309797
:1039B00009F010822B813C81FC01E855FA4F3183DC
:1039C0002083232B69F0413059F440E0BE016B5F46
:1039D0007F4FCE0103960E94D81303C08BE001C035
:1039E00080E027960FB6F894DEBF0FBECDBFDF9103
:1039F000CF9108954F925F926F927F928F929F9294
:103A0000AF92BF92DF92EF92FF920F931F93CF93EB
:103A1000DF93CDB7DEB7A4970FB6F894DEBF0FBE25
:103A2000CDBF7CA36BA3009709F4F1C0B42E7C0139
:103A3000DC011D921C924E71BE016D5D7F4FCE0167
:103A400001960E94D8138111E9C0CE0147969E8B42
:103A50008D8B6BA17CA146979CDD0B891C89811104
:103A600004C00115110509F486E0BB2DBF71DB2EE2
:103A70009B2D9C7109F46DC0882369F0843019F482
:103A8000CE010196B7DEED2DE860DE2E0B891C8994
:103A9000882349F0C3C0D8011B968C91817109F02D
:103AA000BCC0B2FCB6C0D3FE5FC080E090E0A9E627
:103AB000B5E4F80186879787A08BB18B1386D80170
:103AC000148E158E168E178EE981FA815A968D9076
:103AD0009C905B97A12CB12C8081833069F4549623
:103AE0004D915C91559760E070E0BA0155274427ED
:103AF000842A952AA62AB72AD8015B961C921E9280
:103B00005A9755961C921E92549781E08483811493
:103B10009104A104B10441F142A453A464A475A486
:103B2000B501A401CF01B0DE811178C089819A81ED
:103B3000B1E08B1A9108A108B108FC018286938636
:103B4000A486B586B301A2010E946313882361F0A5
:103B500065C0811163C0D8011B968C9184FD5BC048
:103B6000B1FE02C080FD59C0D3FE03C0BD2DB062BE
:103B7000DB2EA980BA80F50142A553A564A575A5E1
:103B8000D7015A964D935D936D937C935D975F96A5
:103B90001C930E935E971496DC92149715961C92C4
:103BA000F801828D938DA0E0B0E0F50120812330F3
:103BB00061F4F8014489558960E070E0BA01552745
:103BC0004427842B952BA62BB72BF7018687978745
:103BD000A08BB18BF801848D958DA68DB78DF701E3
:103BE00082879387A487B5871682178210861186ED
:103BF000168A178A108E118EB182A082D501169670
:103C00008D919C9117979383828380E007C089E010
:103C100005C088E003C084E001C087E0A4960FB629
:103C2000F894DEBF0FBECDBFDF91CF911F910F91F2
:103C3000FF90EF90DF90BF90AF909F908F907F901C
:103C40006F905F904F9008952F923F924F925F92A6
:103C50006F927F928F929F92AF92BF92CF92DF929C
:103C6000EF92FF920F931F93CF93DF93EC015B01D1
:103C70006A011901F901118210820E947D128111DD
:103C800062C18D8181115FC18C8181FF5BC18E8199
:103C90009F81A885B985AC01BD014C0D5D1D611DDD
:103CA000711D481759076A077B0708F0A3C0C12C8C
:103CB000D12CA0C04E815F8168857985DB01CA0166
:103CC0009170AA27BB27892B8A2B8B2B09F00AC15D
:103CD000E881F981228121502A013B01A9E07694F3
:103CE000679457944794AA95D1F7122F142109F499
:103CF00086C088819981FC0142A453A464A475A460
:103D00004E895F89688D798D44165506660677065B
:103D100009F4C6C0888099804A895B896C897D894D
:103D2000C4010E943616611571058105910509F4DB
:103D30009AC02B013C01410E511C611C711C760183
:103D4000EF2CFF24E694E114F10409F4AFC0F40170
:103D50008281212F30E0A701420F531F90E084178A
:103D6000950718F47C01E21AF30A8701A301920176
:103D7000B501F40181810E94F81081117CC0888115
:103D80009981FC0142A553A564A575A5441955095F
:103D9000660977092701612C712C441555056605C4
:103DA000770570F4542F4427550FB501640F751F24
:103DB00040E052E08E960E94F411E881F98114826D
:103DC000FE2CEE24FF0CAE0CBF1C8E819F81A885BB
:103DD000B9858E0D9F1DA11DB11D8E839F83A88760
:103DE000B987F101808191818E0D9F1D9183808320
:103DF000CE18DF08C114D10409F05CCF1CC0452BDC
:103E0000462B472B69F46E857F85888999896115D2
:103E100071058105910511F540E050E0BA0104C03B
:103E20004A895B896C897D89CF01DDD9611571056E
:103E30008105910599F48E819F81A885B9854A8570
:103E40005B856C857D85481759076A077B0708F0F5
:103E500074C08A879B87AC87BD876FC0613071054E
:103E60008105910511F482E007C06F3FFFEF7F07E6
:103E70008F079F0719F481E08D8365C06A8B7B8B68
:103E80008C8B9D8B4E845F84688879884528462872
:103E9000472809F02ECF6E877F87888B998B29CF93
:103EA0000E949B12882309F435CFE5CF4E815F81B4
:103EB000688579858A859B85AC85BD8548175907B6
:103EC0006A077B0758F0C4010E949B128111D3CF6F
:103ED000E881F98142A653A664A675A64E8A5F8A38
:103EE000688E798E8E819F81917020E032E0281B50
:103EF000390B76012C153D0508F479014E895F894F
:103F0000688D798D888199810E9463138111B3CF67
:103F10008E819F81A885B9859170AA27BB278E962F
:103F200028813981A701B501820F931F0E94F411E6
:103F3000E881F98131E0348346CF8C8180628C83C3
:103F400080E001C087E0DF91CF911F910F91FF903A
:103F5000EF90DF90CF90BF90AF909F908F907F9029
:103F60006F905F904F903F902F900895CF93DF9385
:103F7000EC010E947D12811139C09C8195FF36C0F1
:103F80004A8D5B8D6C8D7D8D888199810E94631334
:103F900081112CC0EE8DFF8D8385806283878A8599
:103FA0009B85AC85BD85848F958FA68FB78F8E85B9
:103FB0009F85A889B989938F828FB58BA48B80E068
:103FC00090E0A9E6B5E4868B978BA08FB18F138A1A
:103FD000128A8C818F7D8C83E881F98181E08483D2
:103FE00088819981DF91CF910C94FA12DF91CF9162
:103FF0000895CF93DF93EC01B9DF811107C0CE01A3
:104000000E947D12811102C019821882DF91CF9126
:1040100008952F923F924F925F926F927F928F926C
:104020009F92AF92BF92CF92DF92EF92FF920F9347
:104030001F93CF93DF9300D000D0CDB7DEB71C0124
:104040006A017B010E947D1281115BC1D10115962D
:104050008C911597811155C11A968D919D910D9056
:10406000BC91A02D8C159D05AE05BF0530F4F10166
:10407000248121FD02C06C017D01D10116964D9075
:104080005D906D907C901997F101168217821086D1
:104090001186C114D104E104F10421F4C12CD12C06
:1040A000760102C100811181F8018280912CA12C3E
:1040B000B12C39E0880C991CAA1CBB1C3A95D1F78D
:1040C000411451046104710409F43FC0F1E04F1A36
:1040D000510861087108C701B60161507109810971
:1040E0009109A50194010E94363629833A834B83B6
:1040F0005C83C301B201A50194010E943636898117
:104100009A81AB81BC8182179307A407B507E8F0B9
:1041100088279927DC0188199909AA09BB0948222F
:1041200059226A227B22D10116964D925D926D92A0
:104130007C921997C418D508E608F70852964D9155
:104140005D916D917C91559731C0F1014685578500
:1041500060897189411551056105710511F540E0CE
:1041600050E0BA01C8013FD8AB01BC014130510554
:104170006105710529F482E0D10115968C93C1C0C7
:104180004F3FBFEF5B076B077B0721F481E0F10135
:104190008583B7C0D1011E964D935D936D937C933B
:1041A0005197F101428B538B648B758B41155105EF
:1041B0006105710509F472CF8C149D04AE04BF042F
:1041C00008F046C0D10114962C9114978D919C91C2
:1041D00021FF09C008D8AB01BC014115510561059B
:1041E000710529F433C00E945E16AB01BC014F3F3C
:1041F000BFEF5B076B077B0749F242305105610552
:10420000710508F4B8CFD101ED91FC9182899389B1
:10421000A489B589481759076A077B0708F0ABCF0F
:10422000F101428B538B648B758B86819781A085BE
:10423000B185880D991DAA1DBB1D86839783A08714
:10424000B187C818D908EA08FB08B6CF7501640120
:10425000F10186819781A085B1858C0D9D1DAE1DD4
:10426000BF1D86839783A087B187D701C601917050
:10427000AA27BB27892B8A2B8B2B09F40FCF808190
:1042800091810E943616611571058105910509F429
:1042900072CF29E0F694E794D794C7942A95D1F782
:1042A000C60ED71EE81EF91EF10186819781A085F2
:1042B000B185AC01BD01517066277727452B462B90
:1042C000472B69F046895789608D718DC416D506D4
:1042D000E606F70621F0C68AD78AE08EF18EF10154
:1042E0004285538564857585481759076A077B079A
:1042F00038F482879387A487B5878481806284831A
:1043000080E00F900F900F900F90DF91CF911F9151
:104310000F91FF90EF90DF90CF90BF90AF909F9064
:104320008F907F906F905F904F903F902F90089567
:10433000EF92FF921F93CF93DF93CDB7DEB7A49791
:104340000FB6F894DEBF0FBECDBF9CA38BA37B013D
:1043500040E0BE016D5D7F4FCE0101960E94D813F3
:10436000182F811119C0CE0147969E8B8D8B6BA1A2
:104370007CA146970ED9182F81110EC08B899C897C
:10438000892B49F0E114F10439F0B701CE0101960F
:104390000E94111201C016E0812FA4960FB6F89466
:1043A000DEBF0FBECDBFDF91CF911F91FF90EF9089
:1043B0000895BF92CF92DF92EF92FF920F931F93D7
:1043C000CF93DF93EC01B62EC8A0DF8CEE8CFD8C72
:1043D0000BA11AA10E94DB0CC616D706E806F90647
:1043E00068F080913401807F85608093340181E2A0
:1043F00080933E0110923F0180E022C09801B701F6
:10440000A601CE01BB2011F079D201C0D1D1C801E3
:10441000A0E0B0E029E0880F991FAA1FBB1F2A95D2
:10442000D1F74C895D896E897F898A019B01081BC0
:10443000190B2A0B3B0B0C8B1D8B2E8B3F8B81E0BA
:10444000DF91CF911F910F91FF90EF90DF90CF9070
:10445000BF900895CF92DF92EF92FF920F931F9338
:10446000CF93DF93CDB7DEB728970FB6F894DEBFB2
:104470000FBECDBF8C01FC01838D8D3109F4C2C00C
:1044800088F4823109F138F4882309F4FFC08330BD
:1044900009F450C00AC18A3109F4DEC08B3109F435
:1044A000FEC003C1883209F4C8C038F48E3109F463
:1044B000F6C0853209F466C0F8C08A3209F4B2C089
:1044C0008F3209F4ECC0F1C0F801E78CF68C848DD2
:1044D000837019F4858D882341F080913401807FA9
:1044E00085608093340184E2E7C06701F5E2EF164E
:1044F000F10418F094E2C92ED12C40E050E0B6014E
:1045000087E293E00E94B43060E070E0C7018C194C
:104510009D090E9476308091E8008E778093E800B4
:10452000F80184899589A689B7898C199D09A10903
:10453000B109A7C0F801F78CEF2CF2E1FF1510F4D8
:1045400082E1E82ECE2CD12C40E050E0B60182E38F
:1045500091E00E94B4308F2D90E060E070E08C1903
:104560009D090E9476308091E8008E778093E80064
:10457000F80184899589A689B7898E199109A109BD
:10458000B1097FC014D2811108C080913401807FAD
:104590008260809334018AE38FC080918D078130DF
:1045A000A1F780E092E0A0E0B0E089839A83AB833A
:1045B000BC830E94DB0CDC01CB010197A109B1098E
:1045C0008D839E83AF83B88740E050E064E070E065
:1045D000CE0105960E94FE3040E050E064E070E0BD
:1045E000CE0101960E94FE308091E8008E77809384
:1045F000E800F80184899589A689B7890897A109F7
:10460000B1093FC0F801848D82FF67CFD0D18111FD
:1046100046C080913401807F846080933401109281
:104620003E014CC0C4D1882309F4AFCF80918D07DF
:10463000813009F0AACF60E00AC0B9D1882309F41B
:10464000A4CF80918D07813009F09FCF61E0C80130
:10465000B0DE811136C040C01092F1001092F1001E
:104660001092F1001092F1008091E8008E77809313
:10467000E800F80184899589A689B7890497A1097A
:10468000B109848B958BA68BB78B1BC090D18823E7
:1046900009F47BCF80918D07813009F076CFF80146
:1046A000148A158A168A178A0CC080913401807F7B
:1046B00085608093340180E280933E0110923F0137
:1046C0000BC080913401807F8093340110923E01B1
:1046D00010923F0181E001C080E028960FB6F89467
:1046E000DEBF0FBECDBFDF91CF911F910F91FF9025
:1046F000EF90DF90CF90089580E00E941610811116
:1047000004C081E08093AA0508951092AA05089537
:104710000F931F93CF93DF938C01EB018091E800FF
:1047200085FF36C08091F100F801EC0FFD1F8083FA
:104730008091F10081838091F10082838091F1006A
:1047400083838091F10084838091F100858380913F
:10475000F10086838091F10087838091F10080874A
:104760008091F10081878091F10082878091F10032
:1047700083878091F10084878091F1008587809103
:10478000F10086878091F100878780E190E00BC07F
:104790009091E8009B779093E8000E94383388233B
:1047A00009F280E090E0DF91CF911F910F91089581
:1047B0008F929F92AF92BF92CF92DF92EF92FF9231
:1047C0000F931F93CF93DF936C014A015B01790133
:1047D0000E943833811133C0E114F10431F12E9875
:1047E000C0E0D0E0BE018EE897E092DFC80FD91F8D
:1047F0008091D209843019F5F60180AD81111FC076
:10480000C115F2E0DF0770F301E010E0A5019401AB
:104810006EE877E00E94F8108FEF881A980AA80ACD
:10482000B80AE1E0EE1AF108D7CF8091E80085FDE3
:1048300005C08091E8008B778093E8002E9ADF9185
:10484000CF911F910F91FF90EF90DF90CF90BF908D
:10485000AF909F908F900895EF92FF921F93CF9308
:10486000DF937C01EB019091E800192F107295FF06
:1048700035C0F701EC0FFD1F80818093F10081812D
:104880008093F10082818093F10083818093F10015
:1048900084818093F10085818093F10086818093EB
:1048A000F10087818093F10080858093F1008185FC
:1048B0008093F10082858093F10083858093F100DD
:1048C00084858093F10085858093F10086858093AF
:1048D000F10087858093F10010E109C09091E80014
:1048E0009E779093E8000E943833882311F2812F3D
:1048F000DF91CF911F91FF90EF9008958F929F923B
:10490000AF92BF92CF92DF92EF92FF920F931F93DD
:10491000CF93DF936C014A015B0179010E94383328
:10492000811138C0E114F10459F12E9801E010E032
:10493000A50194016EE877E080E00E94B410C0E029
:10494000D0E0BE018EE897E087DFC80FD11DF601E9
:1049500080AD81111FC08091D209843021F08AE09E
:1049600080938D0717C0C115F2E0DF0750F38FEF7A
:10497000881A980AA80AB80AE1E0EE1AF108D2CF1C
:104980008091E80085FD05C08091E8008E778093D6
:10499000E8002E9ADF91CF911F910F91FF90EF9039
:1049A000DF90CF90BF90AF909F908F9008958091AF
:1049B000AA0508951F920F920FB60F9211242F93FC
:1049C0008F939F93EF93FF938091C8009091CE00B7
:1049D0008871E091AD05EF5FEF732091AC05E217B0
:1049E00039F0E093AD05F0E0E055FA4F908301C057
:1049F00082E09091AB05892B8093AB05FF91EF91FD
:104A00009F918F912F910F900FBE0F901F9018952F
:104A10001F920F920FB60F9211248F939F93EF93D3
:104A2000FF939091AF058091AE05981769F0E091E2
:104A3000AE05EF5FEF70E093AE05F0E0E051FA4FA6
:104A400080818093CE0005C08091C9008F7D8093C6
:104A5000C900FF91EF919F918F910F900FBE0F9022
:104A60001F9018951092AF051092AE051092AD05EB
:104A70001092AC0597FF04C022E02093C8009F77F6
:104A80009093CD008093CC0088E98093C90086E0A4
:104A90008093CA0008959091AD058091AC05981758
:104AA00081F0E091AC05EF5FEF73E093AC05F0E0CF
:104AB000E055FA4F80819091AB051092AB0590E0E4
:104AC000089580E091E008951092AD051092AC0534
:104AD00008959091AF059F5F9F702091AE0592174A
:104AE000E1F3E92FF0E0E051FA4F80839093AF05B6
:104AF0008091C90080628093C90008951F920F922F
:104B00000FB60F9211242F933F934F935F936F93A0
:104B10007F938F939F93AF93BF93EF93FF93809176
:104B20008306909184060196909384068093830671
:104B300080918506909186060196909386068093D3
:104B4000850680918D07813079F080918D078D30B9
:104B500059F084E591E00E945C2F84E491E00E948A
:104B6000382E0E94FD3503C081E080933D06FF9101
:104B7000EF91BF91AF919F918F917F916F915F91D5
:104B80004F913F912F910F900FBE0F901F9018954E
:104B900080913D06813029F484E591E00E945C2FEC
:104BA00004C080913D06833029F484E491E00E94A2
:104BB000382E08C080913D06823031F484E591E0C2
:104BC0000E945C2F0E94FD3510923D06089584B727
:104BD000877F84BF0FB6F894A895809160008861A4
:104BE00080936000109260000FBE85B7806885BF1B
:104BF00085B7806885BF85B7806885BF85B78068C1
:104C000085BF90E080E80FB6F894809361009093A0
:104C100061000FBE0E94A40B0E94B80B2FE788E32F
:104C200091E0215080409040E1F700C0000086E014
:104C300092E00E94E53991E0811101C090E09093EB
:104C40008C0687E092E00E94E53991E0811101C075
:104C500090E090933A0688E092E00E94E53991E076
:104C6000811101C090E090930E0789E092E00E94CC
:104C7000E53991E0811101C090E090934C070895CF
:104C8000089595DE882319F082E080938D070895BA
:104C90000895089584E491E0D8D784E591E00E94D6
:104CA0003F2FE2EEF0E0808184608083089584E508
:104CB00091E00E94FE2E84E491E08DC68091520125
:104CC00090915301009729F001979093530180939D
:104CD00052010895BFCB0F931F93F901A09188064D
:104CE000B091890612968C91828390918B069923BC
:104CF00011F084E004C0882321F080913F06808376
:104D000001C01082E0918806F0918906128210920B
:104D10003F0688E090E0F8019183808380E01F9156
:104D20000F910895F901808180FD0EC090910106D8
:104D300091110AC0E0918806F091890683E582838B
:104D400081E080930106089581FF0DC080910006E7
:104D5000811109C0E0918806F091890689E3828378
:104D600081E0809300060895CF938DE092E00E9449
:104D7000E539C82FB3D362E035D57C990CC07D9955
:104D80000AC07E9908C081E080938D0760E00E9490
:104D9000E80BC9D531C07D9910C07E990EC00E9424
:104DA0005304882331F00E946A330E94820489E010
:104DB00001C08AE080938D074AC07C9904C07D9928
:104DC00002C08EE0F7CF7C9904C07E9902C086E0D5
:104DD000F1CF7C9902C085E0EDCF7D9902C083E0E0
:104DE000E9CF7E9902C084E0E5CF853539F481E0D2
:104DF00080938D0780938706C1E029C0833579F4BD
:104E0000D6DD882339F082E080938D0781E080939E
:104E1000870603C08AE080938D07C2E018C0823401
:104E200069F40E946A330E945304882311F20E949D
:104E3000820489E080938D07C9E009C08C3429F48D
:104E40008DE080938D07CDE002C0C0938D076C2F5D
:104E50008DE092E0CF910C94F239CF93DF931F92C3
:104E6000CDB7DEB78CE080938D07B1DE8BD5FED455
:104E7000D5D442DC0E94C23383E390E0F3DD789422
:104E800073DF1DE00AE080918D07863009F484C04D
:104E90009CF4833009F4D1C034F4813011F18230B4
:104EA00009F46FC0CFC0843009F43DC0853009F0EB
:104EB000C9C00E94E706C3C08B3009F45EC04CF441
:104EC000893009F46CC08A3009F0BCC00E946A3392
:104ED0009DC08D3031F08E3009F0B4C00E94C40AFC
:104EE000AEC00E94CE0C22D3182F16D28983BE01E9
:104EF0006F5F7F4F812F58D4882351F0883121F480
:104F000090918706911180E01092870669819DD06B
:104F10008FEC97E00197F1F700C0000084E491E086
:104F2000A7D636DEE0CF0E946A3301E010920F0769
:104F300089B119B129B193B116FB112710F91027C6
:104F4000829581708027180F2095221F2227221F0B
:104F5000120F929591709027190F57D4810F80FFEF
:104F600003C0469A2E9802C046982E9A8FEC97E07E
:104F70000197F1F700C00000D9CF0E946A330E9468
:104F8000430D80913B06882311F05D98559A0E944D
:104F90006A330E94B30D77CF0E94870650C00E94EB
:104FA0006A330E948604813011F00E943604809199
:104FB0003B06882311F05D98559A79990EC02E987A
:104FC000469A0E9489049FEF27EA81E6915020408B
:104FD0008040E1F700C00000F0CF2E9A4698799B00
:104FE00052CFA4D2F82E98D18983BE016F5F7F4F34
:104FF0008F2DDAD3882319F069810E94FA038FEC90
:1050000097E00197F1F700C00000E9CF2E9A46988B
:105010009FEF21EE84E0915020408040E1F700C0F6
:105020000000469A2E989FEF21EE84E09150204098
:105030008040E1F700C00000E9CF0E94B909109359
:105040008D0721CF00938D071ECF1F93CF93DF9342
:105050001F92CDB7DEB7182F1092840610928306E8
:10506000E0918806F091890682818823A9F08091D9
:105070008306909184068436910570F480918D07A3
:10508000813021F080918D078D3051F784E491E0DB
:105090006983EED56981E4CF17FF02C01F7762E014
:1050A000143711F461E018E2F894E0918806F09169
:1050B0008906128360933F0684E491E0D9D5789401
:1050C0008FE39CE90197F1F700C00000F89484E4B5
:1050D00091E0CED578940F90DF91CF911F910895F4
:1050E000EF92FF920F931F93CF93DF938C01FC01FC
:1050F00001900020E9F73197EF01C81BD90B7C0123
:10510000C701801B910B8C179D070CF053C0F70152
:1051100091917F01903229F1983231F1993239F130
:105120009F3239F19F3339F19A3341F19D3049F182
:105130009A3039F19E3241F19D3349F1913251F16A
:10514000903359F18FEC890F893020F48DEE890F5F
:1051500060E025C0892F90E00E94E9368D5362E01F
:105160001EC060E08CE21BC062E086E218C062E014
:1051700015C060E001C062E088E311C062E083E333
:105180000EC060E088E20BC060E087E308C060E02A
:105190008EE205C062E08EE102C060E087E255DF8A
:1051A000FFE728E381E0F15020408040E1F700C0B4
:1051B0000000A6CFDF91CF911F910F91FF90EF904C
:1051C0000895BC0180E197E00E94F13680E197E00C
:1051D00087CF1F93CF93DF93282F6AE00E94173663
:1051E000C92F822F90E08C1B910964E670E00E9429
:1051F00023366AE070E00E942336D62F162F283C13
:1052000018F060E08FE104C0243618F060E08EE111
:105210001CDF60E0112319F08DE18D0F01C087E2E2
:1052200014DF2FEF80E792E0215080409040E1F7BB
:1052300000C0000060E0CC2319F08DE18C0F01C0AC
:1052400087E203DF2FEF80E792E02150804090401B
:10525000E1F700C00000DF91CF911F9108951F93E7
:10526000CF93DF93282F6AE00E941736C92F822F31
:1052700090E08C1B910964E670E00E9423366AE09E
:1052800070E00E942336D62F162F81E080938B0684
:105290003FEF80E792E0315080409040E1F700C05E
:1052A0000000283C18F060E08AE504C0243618F0BD
:1052B00060E089E5CADE2FE738E381E02150304025
:1052C0008040E1F700C0000060E0112319F088E59C
:1052D0008D0F01C082E6B9DE9FE728E331E09150EF
:1052E00020403040E1F700C0000060E0CC2319F01E
:1052F00088E58C0F01C082E6A8DE8FEF90E722E000
:10530000815090402040E1F700C0000010928B06D1
:10531000DF91CF911F91089580918206823099F09C
:1053200040F4813009F589B18295817090918C06A5
:1053300017C0833079F08430B9F483B182958170DD
:1053400090914C070DC089B186FB882780F9909118
:105350003A0606C089B1881F8827881F90910E07DA
:10536000891302C082E001C080E07C9B81607D9B4C
:1053700084607E9B886008957F928F929F92AF9207
:10538000BF92CF92DF92EF92FF920F931F93CF9332
:10539000DF93F894729A8FEC97E00197F1F700C0D1
:1053A0000000729878948FEC97E00197F1F700C0B5
:1053B0000000E12CF12C712C10E0D0E0C0E0B0E056
:1053C000A0E0F0E0E0E01D9913C021E030E040E013
:1053D00050E060E070E080E090E00E2D0E946A36C0
:1053E000722A132BD42BC52BB62BA72BF82BE92B0A
:1053F000F894729A9AE19A95F1F700C072987894AD
:105400008AE68A95F1F700C09FEFE91AF90A80E36E
:10541000E816F104C1F680910F078230E9F4272DD8
:10542000312F4D2F5C2F6B2F7A2F8F2F9E2F0CE259
:105430000E948536490191E08922992480918A064B
:1054400090E08816990641F0712C10E0D0E0C0E0A1
:10545000B0E0A0E0F0E0E0E080918206813051F021
:1054600099B19295917020918C06921301C0E064DD
:10547000823059F099B196FB992790F920913A061C
:10548000921301C0E062833059F099B1991F9927B6
:10549000991F20910E07921301C0E061843041F002
:1054A00083B18295817090914C07891301C0E860A7
:1054B000272D312F4D2F5C2F6B2F7A2F8F2F9E2F63
:1054C000DF91CF911F910F91FF90EF90DF90CF90E0
:1054D000BF90AF909F908F907F900895FF920F9311
:1054E0001F93CF93DF9348DFF22E032F142FD52F76
:1054F000C62FE72FB82FF92F80910F078111EF7E6C
:105500002F2D302F412F5D2F6C2F7E2F8B2F9F2F14
:10551000A0E00E94A13619F00E94623601C080E02E
:10552000DF91CF911F910F91FF9008952F923F929D
:105530004F925F926F927F928F929F92AF92BF92A3
:10554000CF92DF92EF92FF920F931F93CF93DF934F
:1055500000D01F92CDB7DEB70FDF4901142F59835A
:10556000F62FE72F482E392E80910F078111EF7EFD
:1055700050903C062090800683E1E82E86E0F82ECD
:105580009BE4A92E93E0B92EC12CD12C712C612C57
:10559000DB82CA82511002C01B821A82D5010D9192
:1055A0005D01BFEFCB1ADB0A9401412F59816F2FA8
:1055B0007E2F842D932D0E948536217030E040E0AF
:1055C00050E060E070E080E090E0A0E00E94A13652
:1055D00099F0D7018C91821510F48F5F31C0AA81A8
:1055E000BB81A15FB94F8C9181112BC081E08C935D
:1055F0007C2C6624639425C0552039F0D7018C910A
:10560000882399F08150D7011BC080911306811126
:1056100012C08091140681110EC08091150681116F
:105620000AC080911606811106C0AA81BB81A15FC4
:10563000B94F1C9206C0D7018C91882311F081507C
:105640008C93BFEFEB1AFB0A84E0C816D10409F073
:105650009FCFF9809401412F5F2D6F2F7E2F80E027
:1056600090E02F3FAFEF3A074A075A076A077A07D9
:105670008105910509F455C080910E06882379F0C3
:10568000AFE3B0E0A81BB10921E030E040E050E01A
:1056900060E070E080E00A2F0E946A3627C0909197
:1056A0000D06992349F180910C068F5F80930C06BB
:1056B00020918106821728F010920C0610920D0698
:1056C0001BC0AFE3B0E0A91BB10921E030E040E02E
:1056D00050E060E070E080E090E00A2F0E946A36BF
:1056E0002095309540955095609570958222932233
:1056F0001423F522F623E7239401412F5F2D6F2F0A
:105700007E2F80E090E0A0E00E94A13651F00E9440
:10571000623690910B069F5F90930B0610920A06DB
:1057200008C080910A068F5F80930A0610920B06CC
:1057300080E09091CD0620910B06291758F09093A8
:105740000B0690910E068917B1F080930E06662025
:10575000A9F00FC080913E0690910A06981758F064
:1057600080930A0680910E0680930D0610920E0615
:1057700002C0872D03C06110FCCF80E00F900F9016
:105780000F90DF91CF911F910F91FF90EF90DF90DD
:10579000CF90BF90AF909F908F907F906F905F90D1
:1057A0004F903F902F900895FB019081282F30E07B
:1057B00092FF08C0D901A257B64F8C91882311F0EF
:1057C0009B7F09C091FF09C0D901A357B94F8C91A4
:1057D000882319F09D7F90830895F901E05CF94FCB
:1057E00080810895882379F0282F30E061FF06C07A
:1057F000F901E253F94F8081811106C0F901E35BA1
:10580000F84F8081089580E008950F93B5DD0CE294
:105810000E948536822F81700F91089540E450E0F8
:1058200060E070E080E496E00E94D53940E450E00A
:1058300060E470E08EE899E00E94D53940E450E0E1
:1058400060E870E08DE896E00E94D53940E450E0D1
:1058500060EC70E08DE497E00E94D53940E450E0C0
:1058600060E071E08EEC96E00C94D53982E092E035
:105870000E94E53980933E0681E092E00E94E5397E
:105880008093CD0680E092E00E94E5398093810606
:105890008CE092E00E94E5398093800683E092E0FC
:1058A0000E94E53980930F0784E092E00E94E53979
:1058B00080938A0685E092E00E94E5398093820613
:1058C0008EE092E00E94E53980933C068FE092E002
:1058D0000E94E53980933B06089580E4E0E4F6E019
:1058E000DF01982F1D929A95E9F7EEE8F9E0DF01C4
:1058F000982F1D929A95E9F7EDE8F6E0DF01982FD1
:105900001D929A95E9F7EDE4F7E0DF01982F1D92DB
:105910009A95E9F7EEECF6E0DF011D928A95E9F73A
:1059200010928206089565E080E092E00E94F239CC
:1059300066E081E092E00E94F23963E082E092E06A
:105940000E94F23963E08CE092E00E94F23960E05C
:105950008EE092E00E94F23961E08DE092E00E94D8
:10596000F23960E08FE092E00E94F23960E070E08E
:105970008AE092E00E941B3A60E083E092E00E949D
:105980000D3A74CFCF93DF938FEF93E00E94E53908
:105990008734F1F0C0E0D0E060E0CE010E94F2393F
:1059A0002196C13581E0D807B9F7C0E0D2E060E0C8
:1059B000CE010E94F2392196C23182E0D807B9F7B0
:1059C000B2DF67E48FEF93E0DF91CF910C940D3A53
:1059D000DF91CF9108956F927F928F929F92AF92B5
:1059E000BF92CF92DF92EF92FF920F931F93CF93CC
:1059F000DF9300D01F92CDB7DEB77C01CDB6DEB607
:105A00008091E80083FF0AC1F701808190E0209136
:105A1000D7093091D8092817390709F0FFC08091BC
:105A2000D409833009F4A1C030F4813071F08230A0
:105A300009F4D8C0F3C08A3009F4BCC08B3009F433
:105A4000A5C0893009F0EAC053C08091D309813ADA
:105A500009F0E4C08DB69EB61A8219828091D509EC
:105A60001091D6098B83F7018085482F50E08DB7C0
:105A70009EB7841B950B0FB6F8949EBF0FBE8DBFCB
:105A8000EDB7FEB731965F0160E070E0CF010E9494
:105A900011374FEF410F8E010F5F1F4F9501BE0170
:105AA0006D5F7F4FC70117D9F701868197810097F6
:105AB00029F0408550E0B5010E9408371092E900B6
:105AC0008091E800877F8093E8008B81811180932B
:105AD000F10069817A81C5012BD48091E8008B7730
