S01A00005553422054797065777269746572205032532E73726563CC
S1130000CEC00000E9C00000E7C00000E5C0000069
S1130010E3C00000E1C00000DFC00000DDC000005C
S1130020DBC00000D9C000000C949320D5C00000B0
S1130030D3C00000D1C00000CFC00000CDC000007C
S1130040CBC000000C943C17C7C00000C5C0000022
S1130050C3C00000C1C00000BFC00000BDC000009C
S1130060BBC000000C94B6160C94E416B5C0000096
S1130070B3C00000B1C00000AFC00000ADC00000BC
S1130080ABC00000A9C00000A7C00000A5C00000CC
S1130090A3C00000A1C000009FC000009DC00000DC
S11300A09BC0000099C0000097C0000048034C00AA
S11300B055004600410020004D00610073007300AC
S11300C02000530074006F00720061006700650037
S11300D0200061006E00640020004B006500790080
S11300E062006F006100720064002000440065003B
S11300F06D006F00000018034400650061006E008D
S11301002000430061006D00650072006100000082
S113011004030904090239000201008032090400C1
S11301200002080650000705830240000507050485
S11301300240000509040100010301010009211125
S1130140010001223F000705810308000512011088
S11301500100000008EB03612001000102DC01053D
S1130160010906A101050719E029E7150025017514
S11301700195088102950175088101050819012975
S113018005950575019102950175039101150025E9
S1130190FF0507190029FF950675088100C0112481
S11301A01FBECFEFDAE0DEBFCDBF12E0A0E0B1E0CA
S11301B0ECE9F7E402C005900D92AA36B107D9F72D
S11301C027E0AAE6B2E001C01D92AC3BB207E1F71A
S11301D00E9422180C94CC2313CFCF93C82F8CE009
S11301E00E94271780E00E94271781EA0E942717A0
S11301F081E00E94271780E00E94271780E00E9478
S113020027178C2F0E94271780E00E94271780E071
S11302100E94271780E00E94271780E00E9427177A
S113022080E00E9427178CE00E94271780E00E943C
S1130230271781EA0E94271781E00E94271780E090
S11302400E94271780E00E94271780E00E9427174A
S113025080E00E94271780E00E94271780E00E9418
S1130260271780E00E94271780E0CF910C9427176E
S1130270CF93DF93D82F0E947319C82F282F30E013
S113028021153105C1F3F9017F9906C0E35DF84FEB
S1130290D0838CE591E007C07E990CC0E159F84FFA
S11302A0D08382E691E00E94BA1862E08EE20E9456
S11302B09A1803C0EB51F94FD0838C2F0E94E51894
S11302C060E088E20E949A182FEF84E39CE02150BA
S11302D080409040E1F700C00000DF91CF91089585
S11302E0CF938091B3078430E1F72FEF89E698E14B
S11302F0215080409040E1F700C0000085E691E085
S11303000E94BA1862E086E20E949A1884E791E09B
S11303100E94BA1862E087E20E949A1860E088E2BC
S11303200E949A1887E791E00E94BA1862E08CE272
S11303300E949A1860E082E20E949A1860E087E3C3
S11303400E949A1860E087E20E949A1860E088E2AE
S11303500E949A1884E891E00E94BA1860E087E34A
S11303600E949A1860E087E30E949A1860E087E38D
S11303700E949A1860E088E20E949A1880E991E04D
S11303800E94BA1860E087E30E949A1860E087E34D
S11303900E949A1860E087E30E949A1860E088E25D
S11303A00E949A18C4E062E08C2F0E949A1860E0C0
S11303B08CE20E949A188C2F5BDF60E088E20E9436
S11303C09A18CF5FCE3179F740E450E060E070E0F6
S11303D085EE96E00E94B52340E450E060E470E0CE
S11303E08FE697E00E94B52340E450E060E870E0B7
S11303F08DE297E00E94B52344E050E060EC70E0A9
S113040085E297E00E94B523CF9146C0E4E6F0E090
S11304108081877F80838AE08093810087E2809354
S1130420890080E180938800EFE6F0E080818260BB
S11304308083089527982F9A56985E9A57985F9AC2
S113044024982C9A25982D9A23982B9A22982A9AA4
S1130450269A3E98469A2198299A2898209A6E9826
S1130460769A5D98559A54985C9A53985B9A5298E8
S11304705A9A5198599A5098589A729A6A9A8598A1
S11304808D9A86988E9A87988F9A8C9A849A899A4C
S1130490819A889A809A08957D9907C07E9B05C0A9
S11304A07F9B03C085E090E008C07D9B0BC07E9BD2
S11304B009C07F9907C084E090E090936E07809311
S11304C06D07089581E090E090936E0780936D0727
S11304D08C9A0895292F332723303105B9F05CF421
S11304E02130310569F12230310579F589E390E055
S11304F024E131E02EC021323105E9F02232310508
S113050021F58FE390E02FE531E023C09927813076
S1130510910541F08230910541F0892BB1F4E0E17D
S1130520F1E005C0E6EFF0E002C0ECEAF0E084910F
S113053090E09F010EC089E090E02DE331E009C016
S113054082E190E02DE431E004C080E090E020E01E
S113055030E0FA0131832083089523B123B1019758
S11305600097D9F70895680F791FFC012191CF01F5
S113057027FF02C02A9A01C02A98299A299826FF9F
S113058002C02A9A01C02A98299A299825FF02C0F4
S11305902A9A01C02A98299A299824FF02C02A9AE3
S11305A001C02A98299A299823FF02C02A9A01C0D7
S11305B02A98299A299822FF02C02A9A01C02A98C7
S11305C0299A299821FF02C02A9A01C02A98299AB7
S11305D0299820FF02C02A9A01C02A98299A2998AA
S11305E08617970711F608952A9A680F791F23B181
S11305F0299A299823FB222720F9220F1B992F5F80
S1130600299A2998220F1B992F5F299A2998220F3A
S11306101B992F5F299A2998220F1B992F5F299ADA
S11306202998220F1B992F5F299A2998220F1B9929
S11306302F5F299A2998220F1B992F5F299A2998AD
S1130640FC012193CF01E617F70789F608950F936C
S11306501F93CF93DF931F92CDB7DEB708E813E162
S113066061E070E0CE010196BFDF89818F3F41F0E8
S113067084E690E072DF015011090115110581F73C
S113068081E090E0012B11F480E090E00F90DF9185
S1130690CF911F910F910895CF93DF931F92CDB700
S11306A0DEB7599A61E070E0CE0101969DDF0F90AC
S11306B0DF91CF910895CF93DF9300D01F92CDB7F0
S11306C0DEB7599861E070E0CE0101968DDFBFDF9F
S11306D0009731F48A839B83DFDF8A819B8102C088
S11306E081E090E00F900F900F90DF91CF910895EB
S11306F0CF92DF92EF92FF920F931F93CF93DF93EA
S113070000D0CDB7DEB77C016B0108EE13E061E0E9
S113071070E0CE01019668DF89818F3F71F0898195
S11307208E3FA1F4B601C7015FDF62E070E0CE0145
S113073001965ADF81E090E00BC084E690E00DDF83
S1130740015011090115110511F7E9CF80E090E07E
S11307500F900F90DF91CF911F910F91FF90EF9029
S1130760DF90CF900895DF92EF92FF920F931F9343
S1130770CF93DF93CDB7DEB727970FB6F894DEBFDC
S11307800FBECDBF182F042FF52EE62ED72E87FFD0
S113079008C040E050E0BA0187E3E5DF823090F51D
S11307A01F771C3051F4812F80648983DA82EB82B5
S11307B0FC820D83112359F006C06EDF7CDF892B88
S11307C091F78FEF1FC0183021F081E003C085E955
S11307D001C087E88E8366E070E0CE010196C3DE37
S11307E01C3029F461E070E0CE010796FDDE1AE0CA
S11307F061E070E0CE010796F7DE8F8187FF02C0CB
S11308001150B1F727960FB6F894DEBF0FBECDBFD7
S1130810DF91CF911F910F91FF90EF90DF9008959A
S1130820FF920F931F93CF93DF9300D0CDB7DEB722
S11308308C01F62E0CDF009719F1F98261E070E06B
S1130840CE01019690DE8DEFF816C1F060E072E003
S1130850C80189DE62E070E0CE010196C5DE61E088
S113086070E0CE010196C0DE89818F7131E020E015
S1130870853009F030E0832F922F02C081E090E0B0
S11308800F900F90DF91CF911F910F91FF900895DA
S1130890811103C080910001089581E00895EF92D1
S11308A0FF920F931F93CF93DF9300D000D0CDB767
S11308B0DEB7811176C080E197E24FDE519A599AF2
S11308C02998219A2998229A2B9A1AE061E070E0DB
S11308D0CE01019689DE1150C9F740E050E0BA011B
S11308E080E041DF813009F051C04AEA51E060E024
S11308F070E088E038DF813001F564E070E0CE011B
S1130900019672DE8B81813009F040C08C818A3A75
S113091009F03CC008EE13E040E050E060E070E411
S113092089EA21DF882359F188EE93E016DE01502D
S113093011090115110581F729C040E050E0BA0101
S113094089EA11DF823028F499EAE92E22E0F22EB6
S113095004C0EE24E394FF24F39408EE13E040E093
S113096050E0BA018E2DFFDE882359F188EE93E022
S1130970F4DD015011090115110589F707C040E0A4
S113098050E0BA018AE3EFDE882369F0F12CF0929B
S11309906A0211E0F11010E0109300017DDE812F56
S11309A019C083E017C064E070E0CE0101961CDE3C
S11309B0898186FF03C03CE0F32EE9CF84E0F82E62
S11309C0E6CF40E052E060E070E080E1CCDE8111EF
S11309D0DDCFDDCF0F900F900F900F90DF91CF916F
S11309E01F910F91FF90EF900895FF920F931F9323
S11309F0CF93DF93EB01BA01A901811103C0809168
S1130A00000101C081E080FD31C080916A0283FD54
S1130A1007C0A9E0440F551F661F771FAA95D1F799
S1130A200230110518F0F2E1FF2E02C0E1E1FE2EC2
S1130A308F2D99DE811114C060E072E0CE0158DE82
S1130A40892B31F0DE5F0150110901151105A1F761
S1130A5082E1F81205C040E050E0BA018CE083DE88
S1130A601BDE81E0012B19F480E001C083E0DF91FB
S1130A70CF911F910F91FF900895CF92DF92EF9243
S1130A80FF920F931F93CF93DF93EB0169017A01D8
S1130A90811103C08091000101C081E080FD45C047
S1130AA080916A0283FD07C0B9E0CC0CDD1CEE1C0A
S1130AB0FF1CBA95D1F70130110589F4B701A601DD
S1130AC088E151DE81112BC06EEFCE01A9DE31E049
S1130AD020E0892B09F030E0032F122F20C086700C
S1130AE029F0A80160E070E087E93DDEB701A601C6
S1130AF089E139DE811113C06CEFCE0191DE892BBF
S1130B0031F0DE5F0150110901151105A9F76DEFF0
S1130B1080E090E085DE892B11F401E010E0BCDD7B
S1130B2081E0012B19F480E001C083E0DF91CF91D3
S1130B301F910F91FF90EF90DF90CF9008950F9346
S1130B401F93CF93DF93CDB7DEB760970FB6F894BA
S1130B50DEBF0FBECDBF8A01811103C080910001A9
S1130B6001C081E080FD7AC0613079F040F06330EB
S1130B7009F070C080E890E0A0E0B0E064C09BDDC4
S1130B8011E0892B09F467C063C040E050E0BA016A
S1130B9089E0E9DD882311F011E05DC060E170E0D7
S1130BA0CE010196A5DD892BB9F39981929596958D
S1130BB096959370888529855A859130D9F48F73D9
S1130BC090E0A0E0B0E0DC01992788270196A11D00
S1130BD0B11D30E0322F2227250F311D820F931FC4
S1130BE0A11DB11DEAE0880F991FAA1FBB1FEA953A
S1130BF0D1F729C02295269526952370F4E08F9F7E
S1130C00C0011124820F911D01962F81237030E0C1
S1130C10322F2227330F330F820F931FA0E0B0E04F
S1130C202E812F704B85441F4427441F240F352FDA
S1130C303370330F230F275004C0880F991FAA1F46
S1130C40BB1F2A95D2F7F80180839183A283B383D3
S1130C5010E001C014E020DD812F01C083E0609624
S1130C600FB6F894DEBF0FBECDBFDF91CF911F91B9
S1130C700F910895CF93DF93DB01FC019A01223099
S1130C80310538F0CD91DD91C193D19322503109D2
S1130C90F6CFDA01AE7FFB01EA0FFB1FA80FB91FE5
S1130CA0417055274E0F5F1FE417F50719F0819126
S1130CB08D93FACFDF91CF910895FC01208131818A
S1130CC021153105B1F0F901AF016191613270F084
S1130CD06A33D1F7F90161914E175F0751F460331C
S1130CE041F42E5F3F4FFC013183208380E090E08C
S1130CF008958FEF9FEF08950097C1F0DC01ED9107
S1130D00FC911197309791F02081222379F026816C
S1130D10378112968D919C9113972817390731F4D6
S1130D208181B6DD80FF04C083E0089589E00895E1
S1130D3080E008954F925F926F927F92AF92BF923C
S1130D40CF92DF92EF92FF920F931F93CF93DF9393
S1130D50EC018C81882309F443C04AA45BA46CA4ED
S1130D607DA46E018EE2C80ED11C01E010E0A30147
S1130D709201B601898181DE811130C01C828E8D81
S1130D809F8DA8A1B9A1B301A201481B590B6A0BFD
S1130D907B0B8E899F89A88DB98D481759076A07DF
S1130DA07B07F0F4AB80B12CE12CF12CC5018E193A
S1130DB09F090297A8F08E899F89A88DB98D480E46
S1130DC0591E6A1E7B1E01E010E0A3019201B601C8
S1130DD0898153DE8FEFE81AF80AE8CF81E001C079
S1130DE080E0DF91CF911F910F91FF90EF90DF9002
S1130DF0CF90BF90AF907F906F905F904F90089589
S1130E00BF92CF92DF92EF92FF920F931F93CF93F3
S1130E10DF93EC016A017B018AA59BA5ACA5BDA566
S1130E20481759076A077B07D9F0CE0183DFB82E2C
S1130E30811117C001E010E0A7019601BE01625DB7
S1130E407F4F8981D2DD882331F0BB24B394CC2435
S1130E50CA94DC2C7601CAA6DBA6ECA6FDA601C0CA
S1130E60B12C8B2DDF91CF911F910F91FF90EF90BB
S1130E70DF90CF90BF9008950F931F93CF93DF938C
S1130E80EC011C820FEF1FEF98010AA71BA72CA7E8
S1130E903DA7B6DF811122C0FE01E45DFD4F8081D4
S1130EA0918185359A4AE1F4E85CF14040815181B1
S1130EB0628173817727463451446445710591F00A
S1130EC0C058DF4F488159816A817B81772781E04F
S1130ED0463451446445710531F404C083E003C0D1
S1130EE082E001C080E0DF91CF911F910F910895BE
S1130EF02F923F924F925F926F927F928F929F9226
S1130F00AF92BF92CF92DF92EF92FF920F931F9313
S1130F10CF93DF93CDB7DEB76D970FB6F894DEBFEE
S1130F200FBECDBF6C01CB01B42ED6011D921C9215
S1130F30C4DE7C0197FD1DC2FC01EE0FFF1FE359C7
S1130F40FD4F008111810115110509F414C2F60148
S1130F5011830083D8018C91882359F011968C91C8
S1130F6097DC80FD06C0BB2009F407C282FD09C2DC
S1130F7004C2F8011082E1828E2D91DC80FDFFC154
S1130F80BB2011F082FDFDC140E050E0BA01C80170
S1130F9073DF813009F03FC0FE01319620E030E07C
S1130FA0C801820F931FDC01A051BE4F4C91442312
S1130FB039F014968D919D910D90BC91A02D03C094
S1130FC080E090E0DC0181939193A193B193205F41
S1130FD03F4F2034310521F76E01F1E1CF0ED11CD2
S1130FE09E012F5F3F4F7901D7014D905D906D9029
S1130FF07D907D01411451046104710439F0B30101
S1131000A201C80139DF811102C00FC082E0EC14D3
S1131010FD0451F703C0412C512C3201833009F4F3
S1131020B2C1882311F08DE0AFC1F80181AD92AD5A
S113103081159240C1F7F801EC5BFF4FC080D1806D
S1131040E12CF12CC114D104E104F10429F43E96FD
S1131050C080D180E280F380D8015696CD92DD9293
S1131060ED92FC925997DE964C91DE9713964C9331
S113107013978FEF840F8230B0F6DB96EC91DB97F9
S1131080E98B1296EC931297EE2369F22E2F30E03F
S1131090C901019782239323892B29F6F801FF962E
S11310A02080318019963C922E921897C1018F703E
S11310B09927892B09F0B7CF329680809180A12C93
S11310C0B12C81149104A104B10429F43D968080CB
S11310D09180A280B380D801DC96ED91FC91DD97DC
S11310E0309709F4A0CFA42FB0E0A70196010E9485
S11310F00D236E8B7F8B888F998F9F0140E050E08A
S11311002A8F3B8F4C8F5D8FC10164E09695879544
S11311106A95E1F7280F391F411D511D8E899F895A
S1131120A88DB98D280F391F4A1F5B1F2A8B3B8B53
S11311304C8B5D8B82169306A406B50608F473CF18
S1131140C501B401621B730B840B950BE9892E2F27
S113115030E040E050E00E94EB22211531054105CA
S1131160510509F460CF263FFFE03F0741055105D3
S113117048F0263F8FEF38074105510530F492E0DF
S1131180998B05C0A1E0A98B02C0B3E0B98B4901DA
S11311905A01E2E08E0E911CA11CB11CD80152969A
S11311A08D929D92AD92BC925597F801428E538ECA
S11311B0648E758E8A8D9B8DAC8DBD8D840D951D31
S11311C0A61DB71D868F978FA0A3B1A34A895B89FB
S11311D06C897D89440D551D661D771D46A357A353
S11311E060A771A7F989F330C9F4232809F01BCF4C
S11311F0F801E65AFF4F80819181A281B381F80101
S113120082A393A3A4A3B5A3C501B40152E0660FBE
S1131210771F881F991F5A95D1F72DC0232809F4E9
S113122002CF2E893F89488D598D820F931FA41FA9
S1131230B51FF80182A393A3A4A3B5A3F989F2303F
S113124039F4C501B401660F771F881F991F13C0B5
S1131250A3E0B0E0A50194010E940D239695879523
S11312607795679521E082229924AA24BB24680DEE
S1131270791D8A1D9B1DDC01CB0181509E4FAF4F10
S1131280BF4F29E0B695A795979587952A95D1F7ED
S1131290C816D906EA06FB0608F4C5CE8FEF9FEF01
S11312A0DC01F80186879787A08BB18B82879387AF
S11312B0A487B58780E88583F989F33009F048C0AD
S11312C0F801E25AFF4F80819181019709F040C0F3
S11312D0B301A2014F5F5F4F6F4F7F4FC80190DD95
S11312E0811136C0D80115961C92F801E45DFD4FBA
S11312F08081918185359A4A59F5F80186A597A58B
S1131300A0A9B1A982359245A146B14409F5F801D5
S1131310EE5EFD4F80819181A281B3818237924735
S1131320A144B146A9F4349680819181A281B3810C
S1131330F80186879787A08BB18BE65EFD4F80818D
S11313409181A281B381F80182879387A487B587AD
S1131350E989D801EC9380916B0290916C0201961B
S113136090936C0280936B0217969C938E931697BE
S113137004C08BE009C08CE007C080E005C083E0B6
S113138003C08AE001C081E06D960FB6F894DEBF19
S11313900FBECDBFDF91CF911F910F91FF90EF90C2
S11313A0DF90CF90BF90AF909F908F907F906F9081
S11313B05F904F903F902F9008950F931F93CF937A
S11313C0DF93EC01B7DC982F811158C088818330FA
S11313D009F04BC08D81813009F047C0CE018E9653
S11313E0FC019E01225D3D4FE217F30711F01192BB
S11313F0FBCF25E53AEAFE01E45DFD4F318320830E
S113140042E552E561E671E44EA75FA768AB79ABAC
S113141042E752E761E471E67A974083518362833D
S113142073834E855F8568897989349640835183B7
S1131430628373834A855B856C857D85349640839E
S11314405183628373832A8D3B8D4C8D5D8D2F5F19
S11314503F4F4F4F5F4F2AA73BA74CA75DA701E023
S113146010E0BC01898109DB1D8240E050E060E0AE
S1131470898165DB91E0811101C090E0892FDF91C2
S1131480CF911F910F9108950F931F93FC01425028
S11314905109610971090289138924893589025026
S11314A0110921093109401751076207730778F4BC
S11314B0A281B0E09A01AB010E940D2306A117A1FD
S11314C020A531A5600F711F821F931F03C060E028
S11314D070E0CB011F910F910895AF92BF92CF920C
S11314E0DF92EF92FF920F931F93CF93DF93EC0160
S11314F06A017B01423051056105710508F4A2C0FF
S11315008A899B89AC89BD89481759076A077B0773
S113151008F098C08881823009F449C0833009F406
S113152068C0813009F08EC05A01B694A794A40E05
S1131530B51EC501892F992786954E8D5F8D68A1AB
S113154079A1480F591F611D711DCE0159DC8823F3
S113155021F06FEF7FEFCB0179C085010F5F1F4F43
S1131560F501F170EC0FFD1FB6A4C801892F99276E
S113157086954E8D5F8D68A179A1480F591F611D15
S1131580711DCE013DDC8111E4CFF801F170EC0F47
S1131590FD1F86A56B2D70E0782BC0FE06C0C4E04D
S11315A076956795CA95E1F721C07F701FC0452FD6
S11315B0562F672F77278E8D9F8DA8A1B9A1480F2D
S11315C0591F6A1F7B1FCE011BDC8111C2CFCC0CBB
S11315D0DD1CEE1CFF1CE894C0F881E0D822EE2448
S11315E0FF24FE01EC0DFD1D66A577A580E090E0CB
S11315F02DC0F7E07695679557954795FA95D1F7FD
S11316008E8D9F8DA8A1B9A1480F591F6A1F7B1FFA
S1131610CE01F6DB81119DCFE2E0CC0CDD1CEE1C8B
S1131620FF1CEA95D1F78CEFC82281E0D822EE2482
S1131630FF24FE01EC0DFD1D66A577A580A991A9E7
S11316409F7004C061E070E080E090E0DF91CF9192
S11316501F910F91FF90EF90DF90CF90BF90AF90CC
S11316600895AF92BF92CF92DF92EF92FF920F93C1
S11316701F93CF93DF93EC018B017D836C83CE802A
S1131680DF80E884F98481E0C816D104E104F10420
S113169011F482E080C0E881F98182899389A48968
S11316A0B589C816D906EA06FB0698F7C114D10411
S11316B0E104F104B9F48081833041F482A193A15F
S11316C0A4A1B5A10097A105B10551F48085918528
S11316D008171907F0F662A173A184A195A12FC080
S11316E06C017D01A28080E1A89E500111248881B3
S11316F09981B701A6010A151B0500F1EEDE6B0105
S11317007C018FEFC816D806E806F80609F442C033
S113171082E0C816D104E104F10408F4BACFE881E8
S1131720F98182899389A489B589C816D906EA06FC
S1131730FB0608F0AECF0A191B09D9CFA5DECA866D
S1131740DB86EC86FD86611571058105910509F43A
S1131750A0CF980154E0369527955A95E1F7DC011E
S1131760CB01820F931FA11DB11D8E879F87A88B6C
S1131770B98B0F70112765E0000F111F6A95E1F70F
S1131780025D1F4F88819981800F911F9B8B8A8BEB
S113179080E001C081E0DF91CF911F910F91FF9014
S11317A0EF90DF90CF90BF90AF9008954F925F92EB
S11317B06F927F928F929F92AF92BF92CF92DF925D
S11317C0EF92FF920F931F93CF93DF93EC016A0183
S11317D07B0128013901423051056105710508F486
S11317E0C5C08A899B89AC89BD89481759076A078E
S11317F07B0708F0BBC08881823009F45FC0833066
S113180009F47DC0813009F0B1C05A01B694A7949F
S1131810A40EB51EC501892F992786954E8D5F8D1F
S113182068A179A1480F591F611D711DCE01E8DA25
S113183081119DC085010F5F1F4FF501F170EC0F01
S1131840FD1F4601570181E088229924AA24BB2464
S1131850C0FE08C026A52F7030E1439EC0011124AC
S1131860282B01C0242D26A781E08C834E8D5F8D0B
S113187068A179A1C801892F99278695480F591F16
S1131880611D711DCE01BCDA811171C0F801F170C6
S1131890EC0FFD1F89288A288B2849F0B4E0769440
S11318A0679457944794BA95D1F7942D05C096A59B
S11318B0907F252D2F70922B96A755C0452F562F1C
S11318C0672F77278E8D9F8DA8A1B9A1480F591F27
S11318D06A1F7B1FCE0194DA811149C0CC0CDD1C38
S11318E0EE1CFF1CE894C0F891E0D922EE24FF24FA
S11318F0F601BE96EC0FFD1F5182408234C0E7E032
S11319007695679557954795EA95D1F78E8D9F8D76
S1131910A8A1B9A1480F591F6A1F7B1FCE0170DA15
S1131920811125C072E0CC0CDD1CEE1CFF1C7A95E5
S1131930D1F73CEFC32231E0D322EE24FF24F60199
S1131940BE96EC0FFD1F4081518162817381442753
S113195055276627707F44295529662977294083AE
S113196051836283738391E09C8301C082E0DF91A1
S1131970CF911F910F91FF90EF90DF90CF90BF9088
S1131980AF909F908F907F906F905F904F9008954D
S11319904F925F926F927F928F929F92AF92BF927B
S11319A0CF92DF92EF92FF920F931F93CF93DF9327
S11319B0EC012A013B01411551056105710599F4BA
S11319C08A849B84AC84BD8481149104A104B104F1
S11319D049F14A895B896C897D8984169506A60636
S11319E0B70600F523C079DD6230710581059105E4
S11319F008F492C06F3F2FEF72078207920729F411
S1131A004FEF3FEF2FEF9FEF8CC0CA88DB88EC8845
S1131A10FD886C157D058E059F0508F47FC0530174
S1131A20420104C0812C912C5401839475016401FA
S1131A308FEFC81AD80AE80AF80A4A895B896C89C0
S1131A407D89C416D506E606F70680F022E08216E4
S1131A509104A104B10428F440E030E020E090E0D7
S1131A6060C052E0C52ED12CE12CF12CB701A601A7
S1131A70CE0133DD611571058105910599F06F3F44
S1131A802FEF72078207920709F4BACF613071050C
S1131A908105910509F440C0C814D904EA04FB0483
S1131AA039F6DACF0FEF1FEF2FEF3FE0B701A601B2
S1131AB0CE017CDE81112DC04114510461047104F6
S1131AC0D1F4CA86DB86EC86FD864E855F856889FF
S1131AD079894F3F8FEF580768077807A9F041507D
S1131AE05109610971094E875F87688B798B8D81F4
S1131AF081608D8309C097018601B301A201CE01E3
S1131B0055DE8823F1F205C04C2D3D2D2E2D9F2D41
S1131B1008C0813009F474CF41E09FCF462F372F9E
S1131B20282F642F732F822FDF91CF911F910F9154
S1131B30FF90EF90DF90CF90BF90AF909F908F90E9
S1131B407F906F905F904F9008957F928F929F92B5
S1131B50AF92BF92CF92DF92EF92FF920F931F93B7
S1131B60CF93DF93EC016B010C811D810F5F1F4F3D
S1131B700115110511F484E0DBC08E859F85A889C9
S1131B80B9890097A105B105B1F378012FE0E222EC
S1131B90FF24E114F10409F0B8C00196A11DB11DA0
S1131BA08E879F87A88BB98B4A855B856C857D85DD
S1131BB088819981FC01411551056105710531F454
S1131BC08085918508171907B0F69FC0228130E0FF
S1131BD021503109F801A4E0F695E795AA95E1F7BB
S1131BE02E233F23232B09F090C077DC4B015C01AB
S1131BF0623071058105910510F482E099C06F3F50
S1131C002FEF72078207920711F481E091C0888157
S1131C109981FC01428953896489758984169506E2
S1131C20A606B70608F464C0CD2809F4A4CF4A85F3
S1131C305B856C857D85ACDE4B015C0161157105AE
S1131C408105910509F473C0613071058105910521
S1131C50A1F26F3F2FEF720782079207B1F28881DA
S1131C60998168D88111D1CF88819981FC01BE9670
S1131C70825D9D4FE817F90711F01192FBCFC880E0
S1131C80D980B501A401C601FFDBF60162A773A7E1
S1131C9084A795A7C12CD12C77247394E881F9816A
S1131CA0828190E0C816D906B8F47482888199813B
S1131CB041D88111AACFE881F98182A593A5A4A571
S1131CC0B5A50196A11DB11D82A793A7A4A7B5A789
S1131CD0FFEFCF1ADF0AE2CF82A593A5A4A5B5A58D
S1131CE08C199D09A109B10982A793A7A4A7B5A737
S1131CF08A869B86AC86BD86B501A40188819981BC
S1131D00C3DB6E877F87888B998B1D830C8375E07B
S1131D10EE0CFF1C7A95E1F72EE2E20EF11C8881AD
S1131D2099818E0D9F1D9B8B8A8B80E001C087E07B
S1131D30DF91CF911F910F91FF90EF90DF90CF90A3
S1131D40BF90AF909F908F907F9008956F927F92F5
S1131D508F929F92AF92BF92CF92DF92EF92FF92B7
S1131D600F931F93CF93DF93EC018B01DB018C91D5
S1131D708F3211F08C3511F40F5F1F4F1E821F82BA
S1131D8018861986F8018081803238F460E070E0AA
S1131D90CE0167DC1B8A1A8AE5C030E2A32E45E037
S1131DA0B42E3801D8018C910F5F1F4F8F32C9F3C5
S1131DB08C35B9F3EC89FD89CF019F01255F3F4F35
S1131DC08217930721F0DC01AD92CD01F9CF4301D5
S1131DD080E090E060E070E028E030E050E06F5F89
S1131DE07F4FD4014D914D01413218F14F3209F129
S1131DF04C35F9F04E3209F4ABC08217930708F062
S1131E0092C047FF07C05360042F10E0095C1E4FC7
S1131E10D8014C91E42EF12C08EA11E0D801CD90C0
S1131E208D01CC2009F481C0D12CCE14DF04B1F78C
S1131E307AC08301060F171F413210F444E001C039
S1131E4040E0892B09F46FC08081853E09F4B0829B
S1131E502830310511F4550F550F852F83708130CB
S1131E6009F44061852F8C70843009F448604387FD
S1131E7060E070E0CE01F5DB811125C04E855F8501
S1131E8068897989888199810E94000781111BC022
S1131E90EA89FB898081882399F0838583FD0BC0BF
S1131EA0AC89BD89CF010B96E817F90759F0319138
S1131EB02D913217C9F360E070E0CE0146DEDCCF2D
S1131EC084E001C080E0EC89FD899385882331F0AA
S1131ED0843009F047C092FF24C044C092FD42C040
S1131EE04A895B89FA01838584FF1BC0828D938DA7
S1131EF0A0E0B0E028813981F9012081233061F428
S1131F00FA014489558960E070E0BA0155274427F5
S1131F10842B952BA62BB72B8E839F83A887B987F9
S1131F2040CF85E01FC086E01DC01FEB140F1A319F
S1131F3010F4526006C01FE9140F1A3110F45160F6
S1131F4040527F01E80EF91ED7014C93019647CF0A
S1131F502830310541F7550F550F88E090E02BE00C
S1131F6030E03DCFDF91CF911F910F91FF90EF9023
S1131F70DF90CF90BF90AF909F908F907F906F90A5
S1131F8008951F93CF93DF93EC0160E070E069DB69
S1131F90182F811117C04E855F85688979898881DA
S1131FA099810E940007182F81110CC0EA89FB89CE
S1131FB08081853E59F0882349F061E070E0CE01CC
S1131FC0C4DDE6CF143019F517E021C04E855F85D6
S1131FD068897989888199810E940007182F811165
S1131FE016C0EA89FB899F01205E3F4FE217F30781
S1131FF011F01192FBCF6C897D894BE050E08A8906
S11320009B890E943A06E881F98181E08483812FCB
S1132010DF91CF911F9108958F929F92AF92BF92BB
S1132020CF92DF92EF92FF920F931F93CF93DF93A0
S1132030EC016A017B01423051056105710508F428
S11320404FC04A895B896C897D89C416D506E6062A
S1132050F70608F045C04A895B896C897D89C416F6
S1132060D506E606F70658F4B701A601CE0135DA1F
S11320704B015C01611571058105910511F480E046
S113208030C081E088169104A104B10449F18FEFB6
S113209088169806A806B80609F100E010E0980131
S11320A0B701A601CE0182DB81111BC04E855F857D
S11320B0688979894F3F8FEF58076807780759F087
S11320C04F5F5F4F6F4F7F4F4E875F87688B798B72
S11320D08D8181608D8375016401BDCF81E001C074
S11320E082E0DF91CF911F910F91FF90EF90DF90ED
S11320F0CF90BF90AF909F908F900895CF93DF9330
S1132100CDB7DEB727970FB6F894DEBF0FBECDBFAD
S11321109C838B837E836D837A836983CE0101964E
S11321204F830E945D064F8197FD24C0880F991F3D
S1132130FC01E359FD4F0190F081E02D309709F047
S11321401082EB81FC81309709F010822B813C8155
S1132150FC01E359FD4F31832083232B69F0413087
S113216059F440E0BE016B5F7F4FCE0103960E949D
S1132170780703C08BE001C080E027960FB6F8947F
S1132180DEBF0FBECDBFDF91CF9108954F925F9216
S11321906F927F929F92AF92BF92CF92DF92EF9213
S11321A0FF920F931F93CF93DF93CDB7DEB7A4971E
S11321B00FB6F894DEBF0FBECDBF5C017CA36BA34A
S11321C0F42E009709F4EFC0DC011D921C924E71AD
S11321D0BE016D5D7F4FCE0101960E94780781118B
S11321E0E9C0CE0147969E8B8D8B6BA17CA146974F
S11321F0ADDD0B891C89811104C00115110509F499
S113220086E0BF2DBF719B2E9F2D9C7109F46DC07C
S1132210882369F0843019F4CE010196B2DEE92DE9
S1132220E8609E2E0B891C89882349F0C3C0D8011D
S11322301B968C91817109F0BCC0F2FCB6C093FE70
S11322405FC080E090E0A9E6B5E4F801868797874F
S1132250A08BB18B1386D801148E158E168E178E13
S1132260E981FA815A96CD90DC905B97E12CF12CB0
S11322708081833069F454964D915C91559760E068
S113228070E0BA0155274427C42AD52AE62AF72A3A
S1132290D8015B961C921E925A9755961C921E92D8
S11322A0549781E08483C114D104E104F10441F121
S11322B042A453A464A475A4B701A601CF01ACDE63
S11322C0811178C089819A81B1E0CB1AD108E108E3
S11322D0F108FC01C286D386E486F586B301A20127
S11322E00E940007882361F065C0811163C0D80192
S11322F01B968C9184FD5BC0F1FE02C080FD59C029
S113230093FE03C0B92DB0629B2EE980FA80F701D9
S113231042A553A564A575A5D5015A964D935D9321
S11323206D937C935D975F961C930E935E971496C2
S11323309C92149715961C92F801828D938DA0E0BF
S1132340B0E0F7012081233061F4F8014489558914
S113235060E070E0BA0155274427842B952BA62B07
S1132360B72BF50186879787A08BB18BF801848DF5
S1132370958DA68DB78DF50182879387A487B58740
S11323801682178210861186168A178A108E118E6D
S1132390F182E082D70116968D919C9117979383D1
S11323A0828380E007C089E005C088E003C084E040
S11323B001C087E0A4960FB6F894DEBF0FBECDBF70
S11323C0DF91CF911F910F91FF90EF90DF90CF900D
S11323D0BF90AF909F907F906F905F904F900895C3
S11323E0CF93DF93EC010E947C06811139C09C815C
S11323F095FF36C04A8D5B8D6C8D7D8D888199816A
S11324000E94000781112CC0EE8DFF8D83858062B0
S113241083874A855B856C857D85448F558F668F60
S1132420778F4E855F8568897989538F428F758B45
S1132430648B40E050E069E675E4468B578B608F0F
S1132440718F138A128A8C818F7D8C83E881F98144
S113245081E0848388819981DF91CF910C94DD0997
S1132460DF91CF910895CF93DF93EC01B9DF811110
S113247007C0CE010E947C06811102C01982188215
S1132480DF91CF9108952F923F924F925F926F9276
S11324907F928F929F92AF92BF92CF92DF92EF92F0
S11324A0FF920F931F93CF93DF93CDB7DEB7289797
S11324B00FB6F894DEBF0FBECDBF1C014D835E8303
S11324C06F8378870E947C064D815E816F81788559
S11324D081115EC1D10115968C911597811158C156
S11324E01A96CD90DD90ED90FC901D97C416D506FC
S11324F0E606F70618F06A017B0104C0F101848145
S113250081FDF9CFD10116964D905D906D907C9030
S11325101997F1011682178210861186C114D1040D
S1132520E104F10421F4C12CD12C760104C1008111
S11325301181F8018280912CA12CB12C89E0880CA6
S1132540991CAA1CBB1C8A95D1F74114510461043F
S11325507104D9F1F1E04F1A510861087108C701FB
S1132560B6016150710981099109A50194010E9484
S1132570EB2229833A834B835C83C301B201A50117
S113258094010E94EB2289819A81AB81BC818217DC
S11325909307A407B507C8F088279927DC01881991
S11325A09909AA09BB0984219521A621B721F10122
S11325B086839783A087B187C81AD90AEA0AFB0AD7
S11325C042895389648975892CC0D1011E964D9125
S11325D05D916D917C91519741155105610571058E
S11325E0C9F440E050E0BA01C801D2D9AB01BC0142
S11325F0413051056105710509F462C04F3FFFEF99
S11326005F076F077F0709F459C0F10146875787B1
S1132610608B718BD10152964D935D936D937C9336
S11326205597411551056105710509F47CCF2CC0FE
S1132630423051056105710508F442C0D101ED91A4
S1132640FC9182899389A489B589481759076A0737
S11326507B07B0F5D10152964D935D936D937C93B6
S1132660559716968D919D910D90BC91A02D880D36
S1132670991DAA1DBB1DF10186839783A087B1878D
S1132680C818D908EA08FB088C149D04AE04BF04DA
S113269010F5F10124818081918121FF15C078D941
S11326A0AB01BC01411551056105710591F04F3F26
S11326B0FFEF5F076F077F0709F0BACF81E02CC0F7
S11326C082E0F101858364C00E946D0AAB01BC0104
S11326D0EECF75016401F10186819781A085B185F2
S11326E08C0D9D1DAE1DBF1D86839783A087B1876A
S11326F0D701C6019170AA27BB27892B8A2B8B2B64
S113270009F411CF808191810E94440A61157105F9
S11327108105910529F482E0D10115968C9338C086
S1132720B9E0F694E794D794C794BA95D1F7C60E56
S1132730D71EE81EF91EF10186819781A085B18517
S1132740AC01BD01517066277727452B462B472BDB
S113275069F046895789608D718DC416D506E606E1
S1132760F70621F0C68AD78AE08EF18EF101428500
S1132770538564857585481759076A077B0738F4BC
S113278082879387A487B58784818062848380E06D
S113279028960FB6F894DEBF0FBECDBFDF91CF9160
S11327A01F910F91FF90EF90DF90CF90BF90AF906B
S11327B09F908F907F906F905F904F903F902F905D
S11327C00895BF92CF92DF92EF92FF920F931F93DF
S11327D0CF93DF93EC01B62EC8A0DF8CEE8CFD8C7A
S11327E00BA11AA1F3D3C616D706E806F90668F0BA
S11327F080910301807F85608093030181E280934F
S11328000D0110920E0180E020C09801B701A601CD
S1132810CE01BB2011F05BD201C0C0D16801E12C14
S1132820F12C89E0CC0CDD1CEE1CFF1C8A95D1F741
S11328304C895D896E897F894C195D096E097F0910
S11328404C8B5D8B6E8B7F8B81E0DF91CF911F91E1
S11328500F91FF90EF90DF90CF90BF900895CF92AB
S1132860DF92EF92FF920F931F93CF93DF93CDB735
S1132870DEB728970FB6F894DEBF0FBECDBF8C012C
S1132880FC01838D8D3109F4B9C088F4823109F1DA
S113289038F4882309F4F7C0833009F449C0FDC033
S11328A08A3109F4D5C08B3109F4F1C0F6C08832FD
S11328B009F4C4C038F48E3109F4E9C0853209F44E
S11328C063C0EBC08A3209F4B3C08F3209F4DFC0AD
S11328D0E4C0F801E78CF68C848D837009F092C013
S11328E0858D81118FC06701F5E2EF16F10418F0B0
S11328F024E2C22ED12C40E050E0B60187E392E0FE
S11329000E94911D60E070E0C7018C199D090E942E
S1132910541D8091E8008E778093E800F801848943
S11329209589A689B7898C199D09A109B10927C080
S1132930F801C78CDC2CF2E1FC1510F492E1D92EDD
S1132940ED2CF12C40E050E0B70181E091E00E94D1
S1132950911D8C2D90E060E070E08E199F090E941B
S1132960541D8091E8008E778093E800F8018489F3
S11329709589A689B7898D199109A109B109848B13
S1132980958BA68BB78B93C0EED1811108C0809133
S11329900301807F8260809303018AE385C080E025
S11329A092E0A0E0B0E089839A83AB83BC830ED32A
S11329B061507109810991096D837E838F839887A2
S11329C040E050E064E070E0CE0105960E94D91D1D
S11329D040E050E064E070E0CE0101960E94D91D11
S11329E08091E8008E778093E800F80184899589C6
S11329F0A689B7890897A109B109C1CFF801848DC7
S1132A0082FD08C080910301807F8560809303016B
S1132A1084E24AC0A8D181113AC080910301807F29
S1132A2084608093030110920D0110920E014AC03C
S1132A309AD1882309F4ABCF60E005C094D18823F0
S1132A4009F4A5CF61E0C801BCDE8823D9F12FC009
S1132A501092F1001092F1001092F1001092F10026
S1132A608091E8008E778093E800F80144895589C5
S1132A70668977894450510961097109448B558BE2
S1132A80668B778B14C06FD1882309F480CFF8014B
S1132A90148A158A168A178A0AC080910301807FD6
S1132AA085608093030180E280930D01BECF809105
S1132AB00301807F8093030110920D0110920E0197
S1132AC081E001C080E028960FB6F894DEBF0FBE07
S1132AD0CDBFDF91CF911F910F91FF90EF90DF90C9
S1132AE0CF90089580E00E944F04811104C081E0DA
S1132AF080936F02089510926F0208950F931F93AD
S1132B00CF93DF93EC018B018091E80085FF36C001
S1132B108091F100FE01E00FF11F80838091F100AC
S1132B2081838091F10082838091F100838380917D
S1132B30F10084838091F10085838091F100868384
S1132B408091F10087838091F10080878091F1006A
S1132B5081878091F10082878091F1008387809141
S1132B60F10084878091F10085878091F100868748
S1132B708091F100878780E190E00BC08091E800AC
S1132B808B778093E8000E940620882309F280E076
S1132B9090E0DF91CF911F910F910895AF92BF9272
S1132BA0CF92DF92EF92FF920F931F93CF93DF9315
S1132BB05C016A017B01E9010E94062081112EC09B
S1132BC0209719F100E010E0B80180E792E096DF69
S1132BD0080F191F8091B307843001F5F50180AD0A
S1132BE081111CC00115F2E01F0770F301E010E031
S1132BF0A701960160E772E00E943D058FEFC81AB5
S1132C00D80AE80AF80A2197DBCF8091E80085FD0D
S1132C1005C08091E8008B778093E800DF91CF9125
S1132C201F910F91FF90EF90DF90CF90BF90AF90E6
S1132C3008950F931F93CF93DF93EC018B01809141
S1132C40E80085FF35C0FE01E00FF11F808180930D
S1132C50F10081818093F10082818093F10083816E
S1132C608093F10084818093F10085818093F10049
S1132C7086818093F10087818093F1008085809321
S1132C80F10081858093F10082858093F100838532
S1132C908093F10084858093F10085858093F10011
S1132CA086858093F10087858093F10080E10AC0D6
S1132CB08091E8008E778093E8000E9406208823A4
S1132CC011F280E0DF91CF911F910F910895AF929F
S1132CD0BF92CF92DF92EF92FF920F931F93CF9305
S1132CE0DF935C016A017B01E9010E9406208111E6
S1132CF02FC0209721F101E010E0A701960160E7C1
S1132D0072E080E00E94F50400E010E0B80180E782
S1132D1092E08FDF080F111DF50180AD811118C0FD
S1132D208091B3078430A1F40115F2E01F0770F31A
S1132D308FEFC81AD80AE80AF80A2197DACF8091E7
S1132D40E80085FD05C08091E8008E778093E80057
S1132D50DF91CF911F910F91FF90EF90DF90CF9073
S1132D60BF90AF90089580916F0208951F920F92C3
S1132D700FB60F9211242F938F939F93EF93FF938A
S1132D808091C8009091CE008871E0917204EF5F49
S1132D90E77020917104E21739F0E0937204F0E0D7
S1132DA0EB58FB4F908301C082E090917004982B04
S1132DB090937004FF91EF919F918F912F910F90B9
S1132DC00FBE0F901F9018951F920F920FB60F927F
S1132DD011248F939F93EF93FF93909174048091A8
S1132DE07304981769F0E0917304EF5FEF70E09358
S1132DF07304F0E0E358FB4F80818093CE0005C05C
S1132E008091C9008F7D8093C900FF91EF919F91BC
S1132E108F910F900FBE0F901F901895109274040D
S1132E2010927304109272041092710497FF04C0FC
S1132E3022E02093C8009F779093CD008093CC002C
S1132E4088E98093C90086E08093CA000895909130
S1132E5074049F5F9F70209173049217E1F3E92F2C
S1132E60F0E0E358FB4F8083909374048091C90091
S1132E7080628093C90008951F920F920FB60F923B
S1132E8011242F933F934F935F936F937F938F936B
S1132E909F93AF93BF93EF93FF93809129079091F2
S1132EA02A07019690932A078093290783E291E0E9
S1132EB0E1D483E191E0C3D30E94B022FF91EF916A
S1132EC0BF91AF919F918F917F916F915F914F913E
S1132ED03F912F910F900FBE0F901F90189584B7BC
S1132EE0877F84BF88E10FB6F894809360001092C6
S1132EF060000FBE90E080E80FB6F8948093610004
S1132F00909361000FBE0E9406020E941A022FE7EE
S1132F1088E391E0215080409040E1F700C0000038
S1132F200E944C0280916D0790916E07029741F0C8
S1132F3080916D0790916E07039711F00C947620A1
S1132F400895089508950895089583E191E064D360
S1132F5083E291E072D4E2EEF0E0808184608083C9
S1132F60089583E291E02AD483E191E021C2809123
S1132F70210190912201009729F001979093220159
S1132F808093210108956BCC0F931F93F901A091B5
S1132F902B07B0912C0712968C918283882321F001
S1132FA08091E406808301C01082E0912B07F091A8
S1132FB02C0712821092E40688E090E0F8019183D5
S1132FC0808380E01F910F9108950895A091B80423
S1132FD02091C8043091C9044091CA045091CB0493
S1132FE02250310941095109B0E00C940D23CF93CB
S1132FF041E06FE871E086EB94E080D8C82F81113E
S113300015C042E16BE572E086E994E0BFD8C82FB1
S11330104091A0045091A1046091A2047091A30472
S113302086E994E030DA81E0809395048C2FCF9187
S1133030089586E994E0D4D986E994E014DA1092EC
S11330409504089510926E0710926D0748DF4ADDCB
S113305078942FEF89E698E1215080409040E1F781
S113306000C0000011E0C4E0D0E080916D079091B1
S11330706E078430910521F14CF48130910581F083
S1133080029709F052C0B3DFD4DFEFCF853091054A
S1133090A9F1099709F049C082E390E0BFDE42C07C
S11330A036D1E0912B07F0912C0782818111FDCF5D
S11330B01AD18823B1F389D060E088E23BD0F1CF04
S11330C039B189B123B193B18095881F8827881FAE
S11330D036FB332730F93127830F229521702127BE
S11330E0820F95FB992790F99127890F80FF03C0E0
S11330F0899A8898BACF8998889AB7CF0E94700124
S1133100B4CF60E084E00E94ED002FEF84E39CE004
S1133110215080409040E1F700C0000060E08DE164
S11331200E94ED007E99FECFECCFD0936E07C09342
S11331306D079BCF10922A0710922907E0912B0765
S1133140F0912C07928191110DC082836093E40663
S11331502FEF80E792E0215080409040E1F700C0DB
S1133160000008952091290730912A072431310560
S11331704CF3EBCFEF92FF920F931F93CF93DF9318
S11331808C01EC0109900020E9F72197C81BD90BA9
S11331907C01C701801B910B8C179D077CF4F70100
S11331A081917F01803229F090E00E948023CD97A5
S11331B002C08CE290E062E0BDDFEBCFDF91CF9103
S11331C01F910F91FF90EF900895CF93282F6AE0FD
S11331D00E94CC22C92F822F90E08C1B910964E6B7
S11331E070E00E94D8226AE070E00E94D822862F04
S11331F060E0882311F0835E01C087E29BDF2FEF3C
S113320080E792E0215080409040E1F700C0000048
S113321060E0CC2319F08DE18C0F01C087E28ADFD6
S11332202FEF80E792E0215080409040E1F700C00A
S11332300000CF910895DF92EF92FF920F931F93B6
S1133240CF93DF932E9A8FEC97E00197F1F700C0AC
S113325000002E988FEC97E00197F1F700C0000072
S1133260E0E0F0E0D12CE12CF12C10E0D0E0C0E063
S1133270B0E0A0E0369913C021E030E040E050E037
S113328060E070E080E090E00E2F0E941F23D22ABD
S1133290E32AF42A152BD62BC72BB82BA92BF89489
S11332A02E9A8FE891E00197F1F700C000002E9864
S11332B078948FE391E00197F1F700C00000319614
S11332C0E033F105B9F62D2D3E2D4F2D512F6D2FE5
S11332D07C2F8B2F9A2FDF91CF911F910F91FF900D
S11332E0EF90DF900895FF920F931F93CF93DF9396
S11332F0A2DFA0E00E94382319F00E94172301C026
S113330080E0DF91CF911F910F91FF90089540E4E9
S113331050E060E070E085EE96E00E94A52340E472
S113332050E060E470E08FE697E00E94A52340E45B
S113333050E060E870E08DE297E00E94A52344E04D
S113334050E060EC70E085E297E00E94A523E5EE92
S1133350F6E087E0E532F80731F080818F3F09F429
S113336010823196F6CFEFE6F7E087E0EF3AF80700
S113337031F080818F3F09F410823196F6CFEDE26F
S1133380F7E087E0ED36F80731F080818F3F09F4EC
S113339010823196F6CFE5E2F7E087E0E932F807EC
S11333A031F080818F3F09F410823196F6CF089571
S11333B06F927F928F929F92AF92BF92CF92DF9241
S11333C0EF92FF920F931F93CF93DF9300D01F923E
S11333D0CDB7DEB77C01ADB6BEB68091E80083FF01
S11333E004C1F701808190E02091B8073091B907BA
S11333F02817390709F0F9C08091B507833009F41B
S11334009BC030F4813071F0823009F4D2C0EDC039
S11334108A3009F4B6C08B3009F49FC0893009F0B2
S1133420E4C04DC08091B407813A09F0DEC08DB686
S11334309EB61A8219828091B6071091B7078B83C2
S1133440F701408550E08DB79EB7841B950B0FB6EE
S1133450F8949EBF0FBE8DBFEDB7FEB731966F01D6
S113346060E070E0CF010E949E234FEF410F8E0178
S11334700F5F1F4F9601BE016D5F7F4FC70184DD53
S1133480F70186819781009729F0408550E0B601C5
S11334900E9495231092E9008091E800877F809331
S11334A0E8008B8181118093F10069817A81C601E2
S11334B017D48091E8008B778093E80037C080911F
S11334C0B407813209F091C08DB69EB60091BA0757
S11334D01091BB077090B6076090B7078DB79EB781
S11334E0801B910B0FB6F8949EBF0FBE8DBFEDB736
S11334F0FEB731966F018091E800877F8093E800E2
S1133500B801CF014ED48091E8008E778093E80013
S113351021E0711001C020E030E0021B130B2C0DE0
S11335203D1D4FEF460D672DC7014FDD0FB6F894D3
S11335309EBE0FBE8DBE59C08091B407813A09F07A
S113354054C08091E800877F8093E8008091E80070
S113355080FFFCCFF701818540C08091B4078132A0
S113356009F043C08091E800877F8093E8002DD55F
S11335709091B60781E0911101C080E0F701818745
S113358034C08091B407813281F58091E800877F4F
S11335908093E8001AD58091B6079091B7078827E1
S11335A036E0969587953A95E1F7F70195878487F4
S11335B01CC08091B407813AC1F48091E800877FF0
S11335C08093E8008091E80080FFFCCFF7018485B8
S11335D0958596958795969587958093F10080912A
S11335E0E8008E778093E800F0D40FB6F894BEBE5E
S11335F00FBEADBE0F900F900F90DF91CF911F9132
S11336000F91FF90EF90DF90CF90BF90AF909F907D
S11336108F907F906F900895FC01399627E0DF0129
S11336201D922A95E9F721E0FC01218724EF31E07E
S11336303587248723E0248361E0019689C45F925F
S11336406F927F928F929F92AF92BF92CF92DF92AE
S1133650EF92FF920F931F93CF93DF9300D01F92AB
S1133660CDB7DEB77C01ADB6BEB68091B30784306A
S113367009F08CC08091E4009091E500F701228567
S113368033852817390709F481C081818F708093AD
S1133690E9008091E80085FF79C08DB69EB640852B
S11336A050E08DB79EB7841B950B0FB6F8949EBF60
S11336B00FBE8DBFEDB7FEB731966F011B821A8224
S11336C0198260E070E0CF010E949E238E010F5F9B
S11336D01F4F960140E0BE016D5F7F4FC70154DC70
S11336E0682EF70184859585892B41F021E0868534
S11336F09785892B09F020E0722E01C0712CF70107
S1133700068117810115110591F049815A81B8018B
S1133710C601FED755245394892B09F4512CF70183
S1133720408550E0B601C8010E94952301C0512C88
S113373029813A81232BF1F0611004C0511002C099
S113374070FE18C0F70184859585978786878181E7
S11337508F708093E9008B8181118093F1006981DE
S11337607A8140E050E0C601DCD18091E8008E7798
S11337708093E8008091E4009091E500F70193873D
S113378082870FB6F8949EBE0FBE8DBE0FB6F89416
S1133790BEBE0FBEADBE0F900F900F90DF91CF91C4
S11337A01F910F91FF90EF90DF90CF90BF90AF905B
S11337B09F908F907F906F905F900895CF93DF9349
S11337C0EC018091E80083FF35C0888190E020916E
S11337D0B8073091B9072817390761F58091B50703
S11337E08E3F79F08F3F31F58091B407813211F526
S11337F08091E800877F8093E800E7D381E088AF79
S113380019C08091B407813AA9F48091E800877FB8
S11338108093E8008091E80080FFFCCF8B85815085
S11338208093F1008091E8008E778093E800DF9127
S1133830CF91CBC3DF91CF910895CF93DF93EC0168
S1133840FC013C968DE2DF011D928A95E9F782E046
S11338508C83898761E0CE0101967AD3882331F085
S113386061E0CE010696DF91CF9172C380E0DF91D3
S1133870CF910895EF92FF920F931F93CF93DF930D
S113388000D0CDB7DEB78C018091B307843009F046
S113389002C1F80186818F708093E9008091E8006D
S11338A082FFBFC086818F708093E9001A821982DB
S11338B07801FCE0EF0EF11CAE014F5F5F4F6FE04B
S11338C070E0C701C5D1F801853021F480AD8823AB
S11338D099F3A7C084859585A685B78585359345D5
S11338E0A244B34461F4F801918D8385981738F4A8
S11338F0808D8F7121F4828D8150803180F0809190
S1133900EB0080628093EB00F80181818F708093DB
S1133910E9008091EB0080628093EB0082C01A8200
S113392019827801FBE1EF0EF11CF801628D70E061
S1133930AE014F5F5F4FC7018BD1853029F4F80189
S113394080AD882391F36DC08091E8008B778093DC
S1133950E800F801808D87FF04C081818F70809317
S1133960E900C80110DB91E09827F80197AB45E521
S113397053E562E473E543A754A765A776A7408996
S113398051896289738947A750AB61AB72AB448993
S113399055896689778943AB54AB65AB76AB8111A6
S11339A009C0452B462B472B29F08091EB00806200
S11339B08093EB00F80186818F708093E9008091F9
S11339C0EB0085FF06C0CCD5F80180AD8823B9F3A0
S11339D028C0F80181818F708093E9008091EB0009
S11339E085FF06C0BDD5F80180AD8823B9F319C0A1
S11339F01A8219827801FBE2EF0EF11CAE014F5FCF
S1133A005F4F6DE070E0C7018CD0853029F4F80178
S1133A1080AD882399F305C08091E8008E77809368
S1133A20E800F80180AD8823B1F126812F7081E090
S1133A3090E0AC0102C0440F551F2A95E2F7409371
S1133A40EA001092EA0021812F70022E01C0880F33
S1133A500A94EAF78093EA001092EA0086818F7054
S1133A608093E9008091EB0080618093EB0080916A
S1133A70EB0088608093EB0081818F708093E90074
S1133A808091EB0080618093EB008091EB00886073
S1133A908093EB0010AE0F900F90DF91CF911F91A8
S1133AA00F91FF90EF900895EF92FF920F931F9361
S1133AB0CF93DF938C01EB01A9D281112BC0209706
S1133AC021F088819981081B190BE12CF12C011537
S1133AD01105F9F08091E80085FD13C08091E8009C
S1133AE08E778093E800209741F0888199818E0D2C
S1133AF09F1D9983888385E00DC088D2882339F37C
S1133B0009C01092F100015011098FEFE81AF80A68
S1133B10DECF80E0DF91CF911F910F91FF90EF9066
S1133B200895CF92DF92EF92FF920F931F93CF935A
S1133B30DF937C018B01EA0169D2811131C02097A6
S1133B4031F088819981081B190BE80EF91EC12CEC
S1133B50D12C0115110519F18091E80085FD14C0DF
S1133B608091E8008E778093E800FAD4209741F0A2
S1133B70888199818C0D9D1D9983888385E010C06F
S1133B8045D2882331F30CC0F70181917F018093E2
S1133B90F10001501109FFEFCF1ADF0ADACF80E0FC
S1133BA0DF91CF911F910F91FF90EF90DF90CF9015
S1133BB00895CF92DF92EF92FF920F931F93CF93CA
S1133BC0DF936C018B017A0121D2811138C0E801A5
S1133BD02197CC0DDD1DE114F10439F0F70180814A
S1133BE09181081B190BC81BD90BC12CD12C0115B1
S1133BF0110521F18091E80085FD16C08091E8004F
S1133C008E778093E800ACD4E114F10449F0F70115
S1133C10808191818C0D9D1D9183808385E00FC0EF
S1133C20F5D1882321F30BC088818093F10021977B
S1133C3001501109FFEFCF1ADF0AD9CF80E0DF91DD
S1133C40CF911F910F91FF90EF90DF90CF90089547
S1133C50CF92DF92EF92FF920F931F93CF93DF9354
S1133C607C018B01EA01D2D1811131C0209731F05E
S1133C7088819981081B190BE80EF91EC12CD12CDF
S1133C800115110519F18091E80085FD14C080919A
S1133C90E8008B778093E80063D4209741F0888113
S1133CA099818C0D9D1D9983888385E010C0AED1C8
S1133CB0882331F30CC08091F100F70181937F01D7
S1133CC001501109FFEFCF1ADF0ADACF80E0DF914C
S1133CD0CF911F910F91FF90EF90DF90CF900895B7
S1133CE02091BA073091BB072617370748F06115B2
S1133CF0710539F42091E8002E772093E80001C083
S1133D00B901FC0120E061157105B9F18091B30797
S1133D10882309F440C0853009F43FC08091E8004D
S1133D2083FD3DC08091E80082FF06C08091E800D9
S1133D3082FF26C080E008958091E80080FFE3CFF1
S1133D402091F3008091F20090E0922B61157105AF
S1133D5051F08830910538F421912093F10061509D
S1133D6071090196F3CF21E0089709F020E08091D2
S1133D70E8008E778093E800C6CF2111C7CFD6CF55
S1133D808091B307882339F0853039F08091E800B9
S1133D9083FFCCCF04C082E0089583E0089581E0DE
S1133DA008956115710529F42091E8002B7720937B
S1133DB0E8006115710541F12091B307222369F1EF
S1133DC0253069F12091E80023FD23C02091E8000B
S1133DD022FFF2CFFC01CF014091F3002091F200C9
S1133DE030E0342B232B01F38091F1008193CF0138
S1133DF0615071096115710571F7D6CF8091B307D0
S1133E00882359F0853059F08091E80080FFF6CF7F
S1133E1002C081E0089580E0089582E0089583E07F
S1133E2008952091BA073091BB072617370748F049
S1133E306115710539F42091E8002E772093E8008C
S1133E4001C0B901FC0120E061157105C1F1809147
S1133E50B307882309F441C0853009F440C0809138
S1133E60E80083FD3EC08091E80082FF06C0809197
S1133E70E80082FF27C080E008958091E80080FF79
S1133E80E3CF2091F3008091F20090E0922B611532
S1133E90710559F08830910540F424912093F10084
S1133EA03196615071090196F2CF21E0089709F02B
S1133EB020E08091E8008E778093E800C5CF21113F
S1133EC0C6CFD5CF8091B307882339F0853039F038
S1133ED08091E80083FFCBCF04C082E0089583E0A3
S1133EE0089581E00895982F973058F59093E9004C
S1133EF0981739F07091EC002091ED005091F0008A
S1133F0003C0242F762F50E021FF19C03091EB001D
S1133F103E7F3093EB003091ED003D7F3093ED0018
S1133F203091EB0031603093EB007093EC00209300
S1133F30ED005093F0002091EE0027FF07C09F5F33
S1133F40D3CF8F708093E90081E0089580E00895D5
S1133F500F931F93CF93DF93062FEC0110E01017FC
S1133F6071F19881992341F12C81E981FA817B8156
S1133F70892F8F70873010F080E022C0223010F03B
S1133F8056E001C052E028E030E040E02E173F0741
S1133F9020F44F5F220F331FF9CF4295407F452B0A
S1133FA0692F661F6627661F90E4799F900111248C
S1133FB0622B99DF882301F31F5F2596D0CF81E020
S1133FC0DF91CF911F910F9108958091B40787FDE0
S1133FD005C08091E80080FF0EC012C08091E80007
S1133FE082FD05C08091B3078111F8CF08958091B7
S1133FF0E8008B7708C08091B3078111EACF089558
S11340008091E8008E778093E80008958091E40021
S11340109091E50045E62091EC0020FF21C020911D
S1134020E80020FD21C02091B307222389F0253028
S113403089F02091EB0025FD0FC02091E400309120
S1134040E5002817390739F3415041F0C901E3CF9E
S113405082E0089583E0089581E0089584E008955E
S11340602091E80022FFDFCF80E008950F931F9393
S1134070CF93DF934BD052D0C8EDD0E088818F77B7
S1134080888388818068888388818F7D888319BC30
S11340901092B3071092AF071092B1071092B007B5
S11340A000EE10E0F80180818B7F8083888181603D
S11340B0888342E060E080E016DFE1EEF0E080819A
S11340C08E7F8083E2EEF0E0808181608083808156
S11340D088608083F80180818E7F808388818061FD
S11340E08883DF91CF911F910F910895E8EDF0E05F
S11340F080818F7E8083E7EDF0E080818160808322
S113410084E082BF81E08093B207B0CFE8EDF0E0B5
S113411080818E7F80831092E20008951092DA00ED
S11341201092E10008951F920F920FB60F9211247E
S11341302F933F934F935F936F937F938F939F93AB
S1134140AF93BF93EF93FF938091E10082FF0BC085
S11341508091E20082FF07C08091E1008B7F809311
S1134160E1000E94B7178091DA0080FF1DC08091A2
S1134170D80080FF19C08091DA008E7F8093DA0026
S11341808091D90019BC80FF0BC082E089BD09B4BD
S113419000FEFDCF81E08093B3070E94A11704C005
S11341A01092B3070E94A2178091E10080FF19C00A
S11341B08091E20080FF15C08091E2008E7F8093A1
S11341C0E2008091E20080618093E2008091D80057
S11341D080628093D80019BC85E08093B3070E9465
S11341E0A3178091E10084FF2FC08091E20084FF37
S11341F02BC019BC82E089BD09B400FEFDCF8091BB
S1134200D8008F7D8093D8008091E1008F7E8093C9
S1134210E1008091E2008F7E8093E2008091E200D1
S113422081608093E2008091AF07882311F084E0DD
S113423007C08091E30087FF02C083E001C081E0F2
S11342408093B3070E94A4178091E10083FF22C0EA
S11342508091E20083FF1EC08091E100877F8093FC
S1134260E10082E08093B3071092AF078091E100F0
S11342708E7F8093E1008091E2008E7F8093E20044
S11342808091E20080618093E20042E060E080E09F
S11342902ADE65D1FF91EF91BF91AF919F918F91EC
S11342A07F916F915F914F913F912F910F900FBE2E
S11342B00F901F9018951F93CF93DF93CDB7DEB760
S11342C0AA970FB6F894DEBF0FBECDBFE4EBF7E0BC
S11342D08091F100819327E0EC3BF207C9F70E943B
S11342E0B1178091E80083FF22C19091B4078091B7
S11342F0B507853009F477C030F4813081F168F076
S1134300833069F114C1883009F4E2C0893009F4BA
S1134310F1C0863009F00BC188C0903881F0923822
S113432009F005C18091B8078F708093E9008091EE
S1134330EB0085FB882780F91092E90006C0809184
S1134340B0079091B107911182609091E800977F36
S11343509093E8008093F1001092F100C4C0292FDB
S11343602D7F09F0E4C0992319F0923061F0DFC089
S11343709091B607913009F0DAC0833009F090E0EB
S11343809093B1072AC09091B607911126C020914D
S1134390B8072F7009F4CBC02093E9009091EB008B
S11343A090FF1BC0833021F48091EB00806213C026
S11343B08091EB0080618093EB0081E090E0022E1D
S11343C001C0880F0A94EAF78093EA001092EA0089
S11343D08091EB0088608093EB001092E90080915B
S11343E0E800877F83C09111A2C01091B6071F77A0
S11343F08091E3008078812B8093E3008091E80032
S1134400877F8093E800E1DD8091E80080FFFCCFA6
S11344108091E30080688093E300112311F083E02E
S113442001C082E08093B30782C09058923008F0B4
S11344307EC08091B6079091B7078C3D23E0920728
S113444071F583E08A838AE289834FB7F894DE01A9
S1134450139620E03EE051E2E32FF0E05093570042
S1134460E49120FF03C0E295EF703F5FEF708E2F61
S113447090E0EA3010F0C79601C0C0968D939D93EA
S11344802F5F243149F74FBF8091E800877F8093E5
S1134490E8006AE270E0CE01019622DC13C0AE01AE
S11344A04F5F5F4F6091B8070E946A02009709F45A
S11344B03EC02091E800277F2093E800BC01898159
S11344C09A81AFDC8091E8008B778093E8002FC05D
S11344D0903869F58091E800877F8093E8008091A7
S11344E0AF078093F1008091E8008E778093E80015
S11344F06CDD1DC091111BC09091B6079230B8F4C9
S11345008091E800877F8093E8009093AF075DDD9A
S11345108091AF07811104C08091E30087FF02C03E
S113452084E001C081E08093B3070E94A5178091C5
S1134530E80083FF0AC08091E800877F8093E80049
S11345408091EB0080628093EB00AA960FB6F894FA
S1134550DEBF0FBECDBFDF91CF911F9108950895A7
S1134560CF938091B3078823A9F08091E9008F70DD
S11345709091EC0090FF02C090E801C090E0C92F38
S1134580C82B1092E9008091E80083FD94DECF707F
S1134590C093E900CF910895991B79E004C0991F55
S11345A0961708F0961B881F7A95C9F78095089589
S11345B097FB072E16F4009406D077FD08D064D03C
S11345C007FC05D03EF4909581959F4F0895709512
S11345D061957F4F0895A1E21A2EAA1BBB1BFD0112
S11345E00DC0AA1FBB1FEE1FFF1FA217B307E407CE
S11345F0F50720F0A21BB30BE40BF50B661F771F26
S1134600881F991F1A9469F7609570958095909505
S11346109B01AC01BD01CF01089563D0A59F900D0E
S1134620B49F900DA49F800D911D1124089540D036
S113463085FF0895B901CA013BD0805E08950F93A8
S1134640083090F0982F872F762F652F542F432F03
S1134650322F22270850F4CF220F331F441F551F37
S1134660661F771F881F991F0A95B2F70F91089547
S11346700024A7FD00942A17300540055005600565
S11346807005800590050895AA1BBB1B51E107C066
S1134690AA1FBB1FA617B70710F0A61BB70B881FCE
S11346A0991F5A95A9F780959095BC01CD0108955D
S11346B006D084FF0895CB0102D0805F0895AA2715
S11346C0992329F4A85F982B11F480E1089590317F
S11346D018F4AD5F9295A395990FE8F78A2F99275F
S11346E00895A29FB001B39FC001A39F700D811DC7
S11346F01124911DB29F700D811D1124911D0895E7
S11347009111089581568A5108F48052855808956C
S1134710FB01DC0104C08D910190801921F441500A
S11347205040C8F7881B990B0895FB01DC0102C0B7
S113473001900D9241505040D8F70895DC0101C01A
S11347406D9341505040E0F70895DC01CB01FC012A
S1134750F999FECF06C0F2BDE1BDF89A319600B4D6
S11347600D9241505040B8F70895DC01CB0102C0CE
S11347702D9105D041505040D8F70895262FF9992E
S1134780FECF1FBA92BD81BD20BD0FB6F894FA9A30
S10F4790F99A0FBE01960895F894FFCF2B
S113479C01700000000000000A000000000000008E
S11347AC0000000181080000018D040800000000D5
S11347BC00000000834000000104400000010100DF
S11347CC00000000000000000000000000000000D9
S11347DC00000000000000000000000000000000C9
S11347EC000000000000000000000000534849468F
S11347FC5400464E00555342205459504557524983
S113480C54455200544D004649524D57415245208F
S113481C5645520043414C4942524154494E47007B
S113482C545950452054484520464F4C4C4F5749F9
S113483C4E47204B45595300222A2B2C3A3B3C3DE6
S113484C3E3F5B5D7C7F00809A90418E418F80451A
S113485C45454949498E8F9092924F994F555559D8
S113486C999A9B9C9D9E9F41494F55A5A5A6A7A887
S113487CA9AAABAC21AEAFB0B1B2B3B4B5B6B7B8AC
S113488CB9BABBBCBDBEBFC0C1C2C3C4C5C6C7C810
S113489CC9CACBCCCDCECFD0D1D2D3D4D5D6D7D800
S11348ACD9DADBDCDDDEDFE0E1E2E3E4E5E6E7E8F0
S11348BCE9EAEBECEDEEEFF0F1F2F3F4F5F6F7F8E0
S11348CCF9FAFBFCFDFEFF008000021F0000004C07
S11348DC5546410000000044617461666C61736864
S11348EC204469736B0000302E30304D594C4F47C7
S10D48FC46494C452E747874000000
S9030000FC
