:1000000041C200005CC200005AC2000058C2000099
:1000100056C2000054C2000052C2000050C200008C
:100020004EC200004CC200000C94382F48C20000A1
:1000300046C2000044C2000042C2000040C20000AC
:100040003EC200000C94DA213AC2000038C200001F
:1000500036C2000034C2000032C2000030C20000CC
:100060002EC200000C9436210C94642128C200009A
:1000700026C2000024C2000022C2000020C20000EC
:100080001EC200001CC200001AC2000018C20000FC
:1000900016C2000014C2000012C2000010C200000C
:1000A0000EC200000C94B1080AC20000534554541B
:1000B000494E4753205341564544210D000D4947B1
:1000C0004E4F524520454E544552204B45592057DE
:1000D00048454E2053504143454241522049532008
:1000E00048454C443F0D000D4E4F5720534554207A
:1000F00052454544205245414354494F4E205449AE
:100100004D452E2E2E0D000D4E4F57205345542099
:1001100044454C4159204245545745454E20444F93
:1001200055424C45204B4559205052455353455359
:100130002E2E2E0D000D4E4F5720534554204B456B
:10014000592052454C454153452054494D452E2E8A
:100150002E0D005052455353204354524C20414ED3
:100160004420414C5420544F20534554204B455972
:10017000205245414354494F4E2054494D452E2E5F
:100180002E0D00505245535320434D44204B4559AA
:1001900020544F20434F4E54494E55452E2E2E0D80
:1001A0000041444A555354494E47204B455920532A
:1001B000454E53495449564954592E0D004E4F202F
:1001C00048414C4C204546464543542053454E53E8
:1001D0004F522044455445435445442E20284E4F09
:1001E0005420412050524F424C454D290D00484F5C
:1001F0004C4420444F574E20414E59204B455920E6
:10020000544F2043414C4942524154452048414CAF
:100210004C204546464543542053454E534F522E9D
:100220002E2E0D004241434B535041434500454E55
:1002300054455200535041434542415200515549A3
:10024000434B2043414C4942524154494F4E204D6B
:100250004F44452E2E2E0D0044554D4D59204C4FE8
:1002600041442044454143544956415445440D00BE
:1002700044554D4D59204C4F41442041435449561B
:10028000415445440D004552524F522E2E2E534894
:10029000494654204D555354204245204120524553
:1002A0004544205357495443482E0D005459504556
:1002B0002054484520464F4C4C4F57494E47204B01
:1002C00045595320285052455353205350414345DC
:1002D00020544F20534B4950292E2E2E0D004341C0
:1002E0004C4942524154494E472E2E2E0D00534444
:1002F00020434152442053544F52414745204D4FD3
:1003000044450D00555342204B4559424F415244FC
:100310002F4341524420524541444552204D4F44C1
:10032000450D004C49474854204D4F444520285323
:1003300044204341524420524541444552204449BF
:100340005341424C4544290D00424C5545544F4FB2
:100350005448204B4559424F415244204D4F44454B
:100360000D0044454641554C542053455454494E84
:10037000473A20004649524D574152452056455272
:1003800020352E302E3500555342205459504557B4
:1003900052495445522028544D290D003003550030
:1003A000530042002000540079007000650077007F
:1003B0007200690074006500720020004B00650047
:1003C000790062006F006100720064000000260383
:1003D00055005300420020005400590050004500D1
:1003E00057005200490054004500520020004C00C4
:1003F0004C00430000000403090409023900020113
:100400000080070904000002080650000705830267
:10041000400005070504024000050904010001032E
:10042000010100092111010001223F00070581039C
:100430000800051201100100000008EB036120868E
:10044000000102DC0105010906A101050719E029E7
:10045000E715002501750195088102950175088150
:100460000105081901290595057501910295017588
:10047000039101150025FF0507190029FF95067551
:10048000088100C011241FBECFEFDAE0DEBFCDBF70
:1004900012E0A0E0B1E0E0E0FBE602C005900D92C2
:1004A000A83FB107D9F729E0A8EFB2E001C01D923B
:1004B000AC32B207E1F70E9467230C947E35A0CDE1
:1004C0001F93CF93DF931F92CDB7DEB7182F769887
:1004D0008FE19EE40197F1F700C000008EEF698381
:1004E0000E94C52182E00E94C5216981862F0E9459
:1004F000C521812F0E94C52187E40E94C5218EEF6E
:100500000E94C52180E00F90DF91CF911F910C9444
:10051000C5218F982FE788E391E0215080409040DB
:10052000E1F700C000008F9A2FEF84E39CE0215098
:1005300080409040E1F700C0000076988FE097E29D
:100540000197F1F700C000000895E3CFCF932FE7A4
:1005500088E391E0215080409040E1F700C0000026
:100560000E94A721C82F0E94A7210E94A7210E94B4
:10057000A72181E0C33419F0C13409F080E0CF91A4
:1005800008950F931F93CF93DF9300D0CDB7DEB7BD
:1005900089839A830E94C0218981082F9A81192F0B
:1005A000F80181918F01882319F00E94C521F8CFAD
:1005B0008DE00E94C5210F900F90DF91CF911F9188
:1005C0000F91C4CF0E94C02184E20E94C52184E221
:1005D0000E94C52184E20E94C521B8CFCF9399DF44
:1005E000C5E0F0DF2FEF31EE94E021503040904035
:1005F000E1F700C00000C15019F0882391F307C053
:10060000811105C08AE08093DE0680E045C089E65E
:1006100091E0B7DF2FEF39E688E12150304080408C
:10062000E1F700C000008EE691E0ABDFC82F86E75F
:1006300091E0A7DFC8238EE791E0A3DFC82383E81A
:1006400091E09FDFC8238BE891E09BDFC82380E91E
:1006500091E097DFC82388E991E093DFC82384EA1B
:1006600091E08FDFC8238BEA91E08BDFC82383EB17
:1006700091E087DFC82385EC91E083DFC8238AEC13
:1006800091E07FDF8C239FEF24E33CE091502040FA
:100690003040E1F700C00000CF91089540E450E001
:1006A00060E070E082E995E00E94873440E450E029
:1006B00060E470E08FED98E00E94873440E450E001
:1006C00060E870E08CED95E00E94873440E450E0F3
:1006D00060EC70E08CE996E00E94873440E450E0E2
:1006E00060E071E08DE196E00E9487346091D4056E
:1006F00085E092E00E9475346091DB0586E092E02F
:100700000E94753460918C0587E092E00E947534F8
:1007100060915D0688E092E00E94753460919B06CE
:1007200089E092E00C947534CF93DF9310925E06CB
:100730000E948027D82F8EEE91E00E94EA242FEFAE
:1007400087EA91E6215080409040E1F700C0000028
:100750000E948027C82FD81307C08DEB91E00E941C
:10076000EA2410925E0609C08EEC91E00E9481247A
:1007700081E080935E06C093DA0560915E0683E0B7
:1007800092E00E9475346091DA0584E092E00E9464
:10079000753481E090915E06911101C080E0DF9197
:1007A000CF9108952FEF81EE94E02150804090404A
:1007B000E1F700C000000E941E2690E00097D9F3E8
:1007C0000895CF93DF93EB01FB01423031F4E45203
:1007D000FA4F808383ED91E007C0443061F4E15229
:1007E000F74F808389ED91E00E94812462E08EE2E0
:1007F0000E943A2403C0EE56FA4F80838C2F0E9449
:10080000F2242FEF84E39CE0215080409040E1F7F8
:1008100000C00000DF91CF9108951F93CF93DF9325
:1008200084E292E00E94EA2460E08CE20E943A2492
:10083000B9DFEC010E943825182FDD27482FBE01B3
:100840008AE2BFDF12FD04C0C456D94F88E0888316
:1008500060E088E20E943A248CED91E00E948124BD
:1008600060E08CE20E943A249DDFEC010E94382572
:10087000BE017727482F89E2A4DF60E088E20E946A
:100880003A2480EE91E00E94812460E08CE20E9494
:100890003A2488DFEC010E943825182FDD27482FE5
:1008A000BE018BE28EDF12FD09C0FE01E456F94F56
:1008B00089E08083C35ED94F84E7888360E088E263
:1008C0000E943A248EE292E00E94EA2460E08CE2E8
:1008D0000E943A2467DFEC01DD27FE01EE56FA4F55
:1008E00088E280838C2F0E94F2242FEF84E39CE027
:1008F000215080409040E1F700C00000C456D94F1D
:100900008DE0888360E088E20E943A2484E392E0EC
:100910000E94EA2460E08CE20E943A2443DFEC016A
:10092000DD27FE01EE56FA4F8CE280838C2F0E9469
:10093000F2242FEF84E39CE0215080409040E1F7C7
:1009400000C00000C456D94F80E2888360E088E28E
:10095000DF91CF911F910C943A2480912309843028
:10096000E1F72FEF89E698E1215080409040E1F7D0
:1009700000C000008DE392E00E94EA2489B191E07A
:100980008295817089278093DB0589B186FB882752
:1009900080F9892780938C0589B18095881F8827E5
:1009A000881F80935D0683B182958170892780932B
:1009B0009B06BADE8CEA92E00E94EA2483ED91E085
:1009C0000E9481241092D40560E08CE20E943A24B7
:1009D000E9DE9FEF980F983028F48093D4050E94A9
:1009E000F22404C086E892E00E94EA2460E088E2F3
:1009F0000E943A2412DF52DE8CEA90E00C94EA2442
:100A0000423021F4FB01E35EF94F05C042FD04C012
:100A1000FB01E456F94F808308956F927F928F9285
:100A20009F92AF92BF92CF92DF92EF92FF920F937D
:100A30001F93CF93DF930E94E8278091230984308E
:100A4000E1F72FEF89E698E1215080409040E1F7EF
:100A500000C0000087E893E00E94EA2484E793E066
:100A60000E94EA2460E088E20E943A248DE092E04D
:100A70000E946834C82F82E693E00E94EA24C230C4
:100A800091F028F4C13091F484E093E009C0C930BA
:100A900029F0CD3059F483E293E002C089E493E079
:100AA0000E94EA2407C08EEE92E0FACF84EE91E035
:100AB0000E9481248EED92E00E94EA2489B191E0A7
:100AC0008295817089278093DB0589B186FB882711
:100AD00080F9892780938C0589B18095881F8827A4
:100AE000881F80935D0683B18295817089278093EA
:100AF0009B067E9B19DE7D9916C080918D0588230B
:100B000029F010928D0588E592E005C081E0809380
:100B10008D0580E792E00E94EA2460918D058FE0C8
:100B200092E00E9475348CEA92E00E94EA2414E07C
:100B300062E0812F0E943A2460E08CE20E943A2415
:100B400031DEEC010E943825082FDD27482F4D7F2C
:100B5000BE01812F36DE02FD0BC0FE01E35EF94FC0
:100B60008DE3810F8083C456D94F8DE5810F888333
:100B700060E088E20E943A241F5F1E31C9F6F4E16A
:100B8000EF2EF2E0FF2EC0E0D0E0F701D1907F0120
:100B900060E08D2D0E943A2460E08CE20E943A24AD
:100BA00001DE8C010E943825C82E1127482F4D7F69
:100BB000B8018D2D06DEC2FC16C0F801E456F94FCF
:100BC000DE01A65FBD4F8C918083F801E35EF94F93
:100BD000DE01A050BE4F8C918083F801E152F74FA7
:100BE0008C2F865C808360E088E20E943A24219604
:100BF000CA30D10551F68CEE91E00E94812460E06C
:100C00008CE20E943A24CEDDEC010E943825BE0120
:100C10007727482F8AE3D5DD60E088E20E943A24F6
:100C20008FEE91E00E94812460E08CE20E943A24E1
:100C3000B9DDEC010E943825BE017727482F84E4F6
:100C4000C0DD60E088E20E943A2483EF91E00E94D8
:100C5000812460E08CE20E943A24A4DDEC010E9431
:100C60003825BE017727482F85E4ABDD60E088E2B8
:100C70000E943A2483ED91E00E94812460E08CE29E
:100C80000E943A248FDD9FEF980F983028F48093CC
:100C9000D4050E94F22404C086E892E00E94EA246F
:100CA00060E088E20E943A241DE28EE2682E0FE3A3
:100CB0009FE2F92E2AE2E22E30E6D32E4EE7C42E32
:100CC0005DE3B52E6BE2A62E7BE3972EEAE38E2E34
:100CD000123309F45BC060E0812F0E943A2460E087
:100CE0008CE20E943A245EDDEC010E943825782EC9
:100CF000DD27482FBE01812F64DD72FC43C0133312
:100D000041F4FE01E456F94F9082C35ED94F8882C8
:100D100039C01E3241F4FE01E456F94FB082C35E81
:100D2000D94FA8822FC0153341F4FE01E456F94F84
:100D3000D082C35ED94FC88225C01D3241F4FE0166
:100D4000E456F94F1083C35ED94FE8821BC01833B5
:100D500029F4FE01E456F94FF08207C0163349F436
:100D6000FE01E456F94F8CE28083C35ED94F0883BD
:100D700009C0173339F4FE01E456F94F6082C35EAF
:100D8000D94F688260E088E20E943A241F5F1933DD
:100D900009F09ECF62E08FE10E943A2460E08CE28D
:100DA0000E943A24FFDCEC010E943825BE0177271F
:100DB000482F80E425DE8C2F0E94F22460E088E238
:100DC0000E943A2462E088E30E943A2460E08CE2C8
:100DD0000E943A24E7DCEC010E943825BE01772707
:100DE000482F8FE30DDE8C2F0E94F22460E088E212
:100DF0000E943A2462E08EE90E943A2460E08CE28C
:100E00000E943A24CFDCEC010E943825182FDD2700
:100E1000482FBE018EE9D5DC412FBE0181E2F0DD15
:100E200060E088E20E943A24F8DC38DC8CEA90E04A
:100E3000DF91CF911F910F91FF90EF90DF90CF90B6
:100E4000BF90AF909F908F907F906F900C94EA240A
:100E5000CF9381E092E00E94683480931C0682E088
:100E600092E00E9468348093900580E092E00E94B6
:100E700068348093D305809123098430E1F72FEF04
:100E800089E698E1215080409040E1F700C00000E1
:100E900081EA91E00E94EA2483E891E00E94EA243A
:100EA0007E99FECF83E591E00E94EA2480911C06A2
:100EB0000E94F22460E088E20E943A247E9B15C0E2
:100EC0007C990BC080911C068F5F80931C060E944A
:100ED000F22460E088E20E943A247D99EFCF80916D
:100EE0001C06815080931C06E3CF85E391E00E94AD
:100EF000EA24809190050E94F22460E088E20E943A
:100F00003A247E9B15C07C990BC0809190058F5F21
:100F1000809390050E94F22460E088E20E943A24C7
:100F20007D99EFCF80919005815080939005E3CF1C
:100F300087E091E00E94EA248091D3050E94F22488
:100F400060E088E20E943A247E9B15C07C990BC029
:100F50008091D3058F5F8093D3050E94F22460E0D7
:100F600088E20E943A247D99EFCF8091D305815089
:100F70008093D305E3CF87EE90E00E94EA2480912E
:100F8000D2050E94F22460E088E20E943A247E9B0F
:100F900015C07C990BC08091D2058F5F8093D205DC
:100FA0000E94F22460E088E20E943A247D99EFCF0B
:100FB0008091D20581508093D205E3CF8DEB90E0F4
:100FC0000E94EA2480918E05882319F087EF91E032
:100FD00002C08BEF91E00E948124C1E07E9B15C08E
:100FE0007C9906C010928E058BEF91E00E948124BF
:100FF0007D9906C0C0938E0587EF91E00E94812401
:101000007C9BFECF7D9BFCCFE9CF6091D30580E038
:1010100092E00E9475346091900582E092E00E9417
:10102000753460911C0681E092E00E9475346091F5
:10103000D2058CE092E00E94753460918E058EE0BE
:1010400092E00E9475348CEA90E0CF910C94EA24EF
:10105000E4E6F0E08081877F80838AE080938100EE
:1010600087E28093890080E180938800EFE6F0E0DA
:1010700080818260808308952098289A54985C9A91
:1010800056985E9A57985F9A24982C9A2B9A239890
:101090002B9A2A9A22982A9A6A9A25982D9A299AFE
:1010A0002198299A599A519A55985B9A539A52982D
:1010B0005A9A84988C9A85988D9A86988E9A8F9849
:1010C000879A479A3F9A8198899A769A6E9A469A11
:1010D0003E9A2E9A269A0895F8949FEF9093D10005
:1010E0001092BF0090E29093CF009091C4006130C5
:1010F00051F49E7F9093C4009091C0009F7B909389
:10110000C000469808C091609093C4009091C000C0
:1011100090649093C0009091C00092609093C00042
:1011200090917200946090937200813069F030F079
:10113000823041F0833041F486E009C089E0809339
:10114000C10002C087E003C08091C1008860809325
:10115000C10010928B051092BF001092BE007894CF
:1011600008951F920F920FB60F9211248F939F93A1
:101170008091CF0090918B05992319F0923039F02E
:101180000AC08F3F31F491E090938B0510C08F3FE0
:1011900071F08F5F0CC0811109C09091C0009F7BDE
:1011A0009093C0001092C100469A01C08150809374
:1011B000CF009F918F910F900FBE0F901F901895A9
:1011C000292F332723303105B9F05CF42130310564
:1011D00069F12230310579F589E390E02AEF33E0B7
:1011E0002EC021323105E9F02232310521F58FE39D
:1011F00090E025E434E023C099278130910541F047
:101200008230910541F0892BB1F4E6EFF3E005C09F
:10121000EEECF3E002C0ECE9F3E0849190E09F0192
:101220000EC089E090E023E234E009C082E190E062
:1012300023E334E004C080E090E020E030E0FA01F5
:10124000318320830895CF9342E160E071E08DEF18
:1012500092E00E9453198DEF92E00E940F1C8DEFD7
:1012600092E00E94521C42E160E071E08DEF92E05A
:101270000E945319C82F40910703509108036091B1
:10128000090370910A038DEF92E00E94621C8C2F7B
:10129000CF9108958DEF92E00E940F1C8DEF92E0A8
:1012A0000C94521C41E062E372E08DE193E00E94F5
:1012B0000B1991E0811101C090E0892F0895809170
:1012C000F9029091FA02A091FB02B091FC02892BE5
:1012D0008A2B8B2BC9F4A0911F0320912F033091EF
:1012E00030034091310350913203225031094109BA
:1012F0005109B0E00E94B2316093F9027093FA0292
:101300008093FB029093FC026091F9027091FA02C3
:101310008091FB029091FC0208951F93CF93DF937D
:1013200000D0CDB7DEB7EFEDF6E001900020E9F791
:101330003197EF5DF640FA83E983409107035091BE
:1013400008036091090370910A038DEF92E00E94F7
:10135000621C49815A819E012F5F3F4F6FED76E0FD
:101360008DEF92E00E947D1A182F1092DF068DEF0C
:1013700092E00E940F1C81E0111101C080E00F90EB
:101380000F90DF91CF911F9108958CDF882321F07A
:101390008AE08093DE0608956EE172E080E091E0DD
:1013A0000E946F3250DF67E272E08FED96E00E949C
:1013B0006F32B3DF6FDF2FEF80E792E02150804084
:1013C0009040E1F700C00000EDCFCF93DF93EFED49
:1013D000F6E001900020E9F73197EF5DF640E63F37
:1013E00091E0F90708F03FC08D3079F59091F8024F
:1013F000DF01A152B94F9F012F5F3F4F9D3021F078
:1014000090E29C93F9011EC0EF01C252D94F98811E
:10141000AF014E5F5F4F903271F488839AE09C93E6
:10142000D901A152B94F8C93DA01A152B94F9C93C3
:10143000EE51F94F15C08C93F901E152F94F9AE042
:101440009083FA01E152F94F0BC0883019F4E2524F
:10145000F94F06C0DF01A152B94F8C93E052F94F0A
:1014600010828093F802DF91CF910895CF92DF929E
:10147000EF92FF920F931F93CF93DF93CDB7DEB719
:1014800066970FB6F894DEBF0FBECDBF1092DF0691
:1014900009DF811140C061E080E01EDE8AE092E059
:1014A0000E9470348C01803127E2920710F000E036
:1014B00010E083E3C82E82E0D82E90E0E92E91E080
:1014C000F92E0F5F1F4F1F930F93DF92CF92FF9262
:1014D000EF920E947632BE016F5F7F4F80E091E015
:1014E0000E94011E0F900F900F900F900F900F9081
:1014F000882339F3843079F40E943526F82E0E942F
:101500003825682F8F2D0E946D278823A9F35DDF72
:101510009ADE882321F08AE08093DE0654C0B80169
:101520008AE092E00E949E341092DD061092DC0662
:101530008091DC069091DD0680329F4B08F03EC022
:101540000E943526182F0E943825682F812F0E946F
:101550006D27182F8823A1F0833721F48091D705B8
:10156000811110E01092D705812F2FDF1092DD0638
:101570001092DC061D3021F460E082E0ADDDCDDEAE
:101580008FE99FE00197F1F700C000008091DC0631
:101590009091DD068137974158F28091DF068823CC
:1015A00039F246988FEF9DE329E481509040204026
:1015B000E1F700C00000B1DE469ABACF60E082E0F9
:1015C0008BDDABDE67DE66960FB6F894DEBF0FBE2E
:1015D000CDBFDF91CF911F910F91FF90EF90DF90E2
:1015E000CF90089523B123B101970097D9F70895BB
:1015F000680F791FFC012191CF0127FF02C02A9AB1
:1016000001C02A98299A299826FF02C02A9A01C067
:101610002A98299A299825FF02C02A9A01C02A9857
:10162000299A299824FF02C02A9A01C02A98299A47
:10163000299823FF02C02A9A01C02A98299A29983A
:1016400022FF02C02A9A01C02A98299A299821FFCC
:1016500002C02A9A01C02A98299A299820FF02C01C
:101660002A9A01C02A98299A29988617970711F66D
:1016700008952A9A680F791F23B1299A299823FB84
:10168000222720F9220F1B992F5F299A2998220FD0
:101690001B992F5F299A2998220F1B992F5F299A4E
:1016A0002998220F1B992F5F299A2998220F1B999D
:1016B0002F5F299A2998220F1B992F5F299A299821
:1016C000220F1B992F5F299A2998FC012193CF01A2
:1016D000E617F70789F608950F931F93CF93DF93CB
:1016E0001F92CDB7DEB708E813E161E070E0CE01EC
:1016F0000196BFDF89818F3F41F084E690E072DF81
:10170000015011090115110581F781E090E0012BCD
:1017100011F480E090E00F90DF91CF911F910F9135
:101720000895CF93DF931F92CDB7DEB7599A61E04A
:1017300070E0CE0101969DDF0F90DF91CF9108956B
:10174000CF93DF9300D01F92CDB7DEB7599861E0F9
:1017500070E0CE0101968DDFBFDF009731F48A8300
:101760009B83DFDF8A819B8102C081E090E00F9044
:101770000F900F90DF91CF910895CF92DF92EF926B
:10178000FF920F931F93CF93DF9300D0CDB7DEB7B7
:101790007C016B0108EE13E061E070E0CE01019680
:1017A00068DF89818F3F71F089818E3FA1F4B60196
:1017B000C7015FDF62E070E0CE0101965ADF81E091
:1017C00090E00BC084E690E00DDF01501109011597
:1017D000110511F7E9CF80E090E00F900F90DF91B5
:1017E000CF911F910F91FF90EF90DF90CF900895D0
:1017F000DF92EF92FF920F931F93CF93DF93CDB7BA
:10180000DEB727970FB6F894DEBF0FBECDBF182FF7
:10181000042FF52EE62ED72E87FF08C040E050E0BB
:10182000BA0187E3E5DF823090F51F771C3051F471
:10183000812F80648983DA82EB82FC820D831123FD
:1018400059F006C06EDF7CDF892B91F78FEF1FC048
:10185000183021F081E003C085E901C087E88E835C
:1018600066E070E0CE010196C3DE1C3029F461E031
:1018700070E0CE010796FDDE1AE061E070E0CE0177
:101880000796F7DE8F8187FF02C01150B1F72796C8
:101890000FB6F894DEBF0FBECDBFDF91CF911F9181
:1018A0000F91FF90EF90DF900895FF920F931F9399
:1018B000CF93DF9300D0CDB7DEB78C01F62E0CDFCF
:1018C000009719F1F98261E070E0CE01019690DE97
:1018D0008DEFF816C1F060E072E0C80189DE62E0C9
:1018E00070E0CE010196C5DE61E070E0CE010196A8
:1018F000C0DE89818F7131E020E0853009F030E071
:10190000832F922F02C081E090E00F900F90DF9123
:10191000CF911F910F91FF900895811103C0809185
:101920000D01089581E00895EF92FF920F931F93A8
:10193000CF93DF9300D000D0CDB7DEB7811176C052
:1019400080E197E24FDE519A599A2998219A299875
:10195000229A2B9A1AE061E070E0CE01019689DEAE
:101960001150C9F740E050E0BA0180E041DF81301A
:1019700009F051C04AEA51E060E070E088E038DFE9
:10198000813001F564E070E0CE01019672DE8B815A
:10199000813009F040C08C818A3A09F03CC008EEE1
:1019A00013E040E050E060E070E489EA21DF882342
:1019B00059F188EE93E016DE015011090115110569
:1019C00081F729C040E050E0BA0189EA11DF823096
:1019D00028F499EAE92E22E0F22E04C0EE24E394E2
:1019E000FF24F39408EE13E040E050E0BA018E2D9E
:1019F000FFDE882359F188EE93E0F4DD01501109F0
:101A00000115110589F707C040E050E0BA018AE3EB
:101A1000EFDE882369F0F12CF0924B0511E0F11014
:101A200010E010930D017DDE812F19C083E017C0F7
:101A300064E070E0CE0101961CDE898186FF03C060
:101A40003CE0F32EE9CF84E0F82EE6CF40E052E010
:101A500060E070E080E1CCDE8111DDCFDDCF0F9062
:101A60000F900F900F90DF91CF911F910F91FF90EA
:101A7000EF900895FF920F931F93CF93DF93EB01A5
:101A8000BA01A901811103C080910D0101C081E05B
:101A900080FD31C080914B0583FD07C0A9E0440F54
:101AA000551F661F771FAA95D1F70230110518F050
:101AB000F2E1FF2E02C0E1E1FE2E8F2D99DE8111B1
:101AC00014C060E072E0CE0158DE892B31F0DE5F99
:101AD0000150110901151105A1F782E1F81205C0A5
:101AE00040E050E0BA018CE083DE1BDE81E0012B98
:101AF00019F480E001C083E0DF91CF911F910F9135
:101B0000FF900895CF92DF92EF92FF920F931F9371
:101B1000CF93DF93EB0169017A01811103C08091BA
:101B20000D0101C081E080FD45C080914B0583FD22
:101B300007C0B9E0CC0CDD1CEE1CFF1CBA95D1F738
:101B40000130110589F4B701A60188E151DE811148
:101B50002BC06EEFCE01A9DE31E020E0892B09F029
:101B600030E0032F122F20C0867029F0A80160E01A
:101B700070E087E93DDEB701A60189E139DE811118
:101B800013C06CEFCE0191DE892B31F0DE5F015086
:101B9000110901151105A9F76DEF80E090E085DED0
:101BA000892B11F401E010E0BCDD81E0012B19F478
:101BB00080E001C083E0DF91CF911F910F91FF90F2
:101BC000EF90DF90CF9008950F931F93CF93DF9303
:101BD000CDB7DEB760970FB6F894DEBF0FBECDBFAE
:101BE0008A01811103C080910D0101C081E080FD57
:101BF0007AC0613079F040F0633009F070C080E85D
:101C000090E0A0E0B0E064C09BDD11E0892B09F416
:101C100067C063C040E050E0BA0189E0E9DD882395
:101C200011F011E05DC060E170E0CE010196A5DD2C
:101C3000892BB9F39981929596959695937088859D
:101C400029855A859130D9F48F7390E0A0E0B0E0F7
:101C5000DC01992788270196A11DB11D30E0322FA4
:101C60002227250F311D820F931FA11DB11DEAE010
:101C7000880F991FAA1FBB1FEA95D1F729C022958B
:101C8000269526952370F4E08F9FC0011124820FC2
:101C9000911D01962F81237030E0322F2227330FC0
:101CA000330F820F931FA0E0B0E02E812F704B8581
:101CB000441F4427441F240F352F3370330F230F45
:101CC000275004C0880F991FAA1FBB1F2A95D2F75F
:101CD000F80180839183A283B38310E001C014E0F4
:101CE00020DD812F01C083E060960FB6F894DEBF3F
:101CF0000FBECDBFDF91CF911F910F910895CF936C
:101D0000DF93DB01FC019A012230310538F0CD91DF
:101D1000DD91C193D19322503109F6CFDA01AE7F24
:101D2000FB01EA0FFB1FA80FB91F417055274E0F8B
:101D30005F1FE417F50719F081918D93FACFDF91BA
:101D4000CF910895CF93DF93EB01FB013996DC012E
:101D50001E964D915D916D917C915197452B462B2F
:101D6000472BA1F152962D913C915397D90180E0D8
:101D700090E05EE201964D91403251F0453009F419
:101D800045EE8930910511F45083319640833196A8
:101D90008B30910579F7D9011B968C911B97888719
:101DA0005C964D915D916D917C915F9748835983CD
:101DB0006A837B8358968D919C9159979D838C83E0
:101DC00056968D919C9157979F838E831082DF91B9
:101DD000CF910895FC012081318121153105B1F0A9
:101DE000F901AF016191613270F06A33D1F7F90105
:101DF00061914E175F0751F4603341F42E5F3F4FFE
:101E0000FC013183208380E090E008958FEF9FEF05
:101E100008950097C1F0DC01ED91FC911197309786
:101E200091F02081222379F02681378112968D91BD
:101E30009C9113972817390731F481816EDD80FF5B
:101E400004C083E0089589E0089580E008954F92EA
:101E50005F926F927F92AF92BF92CF92DF92EF929A
:101E6000FF920F931F93CF93DF93EC018C81882314
:101E700009F443C04AA45BA46CA47DA46E018EE265
:101E8000C80ED11C01E010E0A3019201B6018981C6
:101E900039DE811130C01C828E8D9F8DA8A1B9A121
:101EA000B301A201481B590B6A0B7B0B8E899F89DA
:101EB000A88DB98D481759076A077B07F0F4AB80E6
:101EC000B12CE12CF12CC5018E199F090297A8F0C5
:101ED0008E899F89A88DB98D480E591E6A1E7B1E5A
:101EE00001E010E0A3019201B60189810BDE8FEFC2
:101EF000E81AF80AE8CF81E001C080E0DF91CF91D5
:101F00001F910F91FF90EF90DF90CF90BF90AF9017
:101F10007F906F905F904F900895BF92CF92DF9225
:101F2000EF92FF920F931F93CF93DF93EC016A011F
:101F30007B018AA59BA5ACA5BDA5481759076A07D3
:101F40007B07D9F0CE0183DFB82E811117C001E0E5
:101F500010E0A7019601BE01625D7F4F89818ADD95
:101F6000882331F0BB24B394CC24CA94DC2C7601B2
:101F7000CAA6DBA6ECA6FDA601C0B12C8B2DDF9175
:101F8000CF911F910F91FF90EF90DF90CF90BF9076
:101F900008950F931F93CF93DF93EC011C820FEFF3
:101FA0001FEF98010AA71BA72CA73DA7B6DF811139
:101FB00022C0FE01E45DFD4F8081918185359A4A02
:101FC000E1F4E85CF14040815181628173817727BF
:101FD000463451446445710591F0C058DF4F488143
:101FE00059816A817B81772781E046345144644579
:101FF000710531F404C083E003C082E001C080E0D9
:10200000DF91CF911F910F9108952F923F924F92A0
:102010005F926F927F928F929F92AF92BF92CF9278
:10202000DF92EF92FF920F931F93CF93DF93CDB781
:10203000DEB76D970FB6F894DEBF0FBECDBF6C0153
:10204000CB01B42ED6011D921C92C4DE7C0197FDFB
:102050001DC2FC01EE0FFF1FE25BFA4F00811181F0
:102060000115110509F414C2F60111830083D8018A
:102070008C91882359F011968C914FDC80FD06C01D
:10208000BB2009F407C282FD09C204C2F801108214
:10209000E1828E2D49DC80FDFFC1BB2011F082FD65
:1020A000FDC140E050E0BA01C80173DF813009F0A2
:1020B0003FC0FE01319620E030E0C801820F931F3F
:1020C000DC01A051BE4F4C91442339F014968D9100
:1020D0009D910D90BC91A02D03C080E090E0DC01AB
:1020E00081939193A193B193205F3F4F20343105A9
:1020F00021F76E01F1E1CF0ED11C9E012F5F3F4F02
:102100007901D7014D905D906D907D907D014114D6
:1021100051046104710439F0B301A201C80139DF2F
:10212000811102C00FC082E0EC14FD0451F703C01E
:10213000412C512C3201833009F4B2C1882311F0B3
:102140008DE0AFC1F80181AD92AD81159240C1F72C
:10215000F801EC5BFF4FC080D180E12CF12CC11461
:10216000D104E104F10429F43E96C080D180E280DC
:10217000F380D8015696CD92DD92ED92FC9259975C
:10218000DE964C91DE9713964C9313978FEF840F46
:102190008230B0F6DB96EC91DB97E98B1296EC93EC
:1021A0001297EE2369F22E2F30E0C90101978223A6
:1021B0009323892B29F6F801FF9620803180199608
:1021C0003C922E921897C1018F709927892B09F0A4
:1021D000B7CF329680809180A12CB12C81149104CC
:1021E000A104B10429F43D9680809180A280B3803F
:1021F000D801DC96ED91FC91DD97309709F4A0CFE2
:10220000A42FB0E0A70196010E94B2316E8B7F8BA4
:10221000888F998F9F0140E050E02A8F3B8F4C8F31
:102220005D8FC10164E0969587956A95E1F7280F67
:10223000391F411D511D8E899F89A88DB98D280F89
:10224000391F4A1F5B1F2A8B3B8B4C8B5D8B821681
:102250009306A406B50608F473CFC501B401621B4A
:10226000730B840B950BE9892E2F30E040E050E092
:102270000E949031211531054105510509F460CFC7
:10228000263FFFE03F074105510548F0263F8FEF0D
:1022900038074105510530F492E0998B05C0A1E063
:1022A000A98B02C0B3E0B98B49015A01E2E08E0E5E
:1022B000911CA11CB11CD80152968D929D92AD9299
:1022C000BC925597F801428E538E648E758E8A8D1E
:1022D0009B8DAC8DBD8D840D951DA61DB71D868F64
:1022E000978FA0A3B1A34A895B896C897D89440D2E
:1022F000551D661D771D46A357A360A771A7F989D1
:10230000F330C9F4232809F01BCFF801E65AFF4F38
:1023100080819181A281B381F80182A393A3A4A3B8
:10232000B5A3C501B40152E0660F771F881F991F3E
:102330005A95D1F72DC0232809F402CF2E893F8961
:10234000488D598D820F931FA41FB51FF80182A3DA
:1023500093A3A4A3B5A3F989F23039F4C501B4015C
:10236000660F771F881F991F13C0A3E0B0E0A50177
:1023700094010E94B231969587957795679521E0F3
:1023800082229924AA24BB24680D791D8A1D9B1DD5
:10239000DC01CB0181509E4FAF4FBF4F29E0B69576
:1023A000A795979587952A95D1F7C816D906EA0675
:1023B000FB0608F4C5CE8FEF9FEFDC01F80186879E
:1023C0009787A08BB18B82879387A487B58780E896
:1023D0008583F989F33009F048C0F801E25AFF4FCC
:1023E00080819181019709F040C0B301A2014F5F44
:1023F0005F4F6F4F7F4FC80190DD811136C0D8010C
:1024000015961C92F801E45DFD4F80819181853520
:102410009A4A59F5F80186A597A5A0A9B1A98235D0
:102420009245A146B14409F5F801EE5EFD4F808169
:102430009181A281B38182379247A144B146A9F428
:10244000349680819181A281B381F8018687978734
:10245000A08BB18BE65EFD4F80819181A281B3811B
:10246000F80182879387A487B587E989D801EC931F
:1024700080914C0590914D05019690934D05809368
:102480004C0517969C938E93169704C08BE009C059
:102490008CE007C080E005C083E003C08AE001C093
:1024A00081E06D960FB6F894DEBF0FBECDBFDF9111
:1024B000CF911F910F91FF90EF90DF90CF90BF9041
:1024C000AF909F908F907F906F905F904F903F90D4
:1024D0002F9008950F931F93CF93DF93EC01B7DCF8
:1024E000982F811158C08881833009F04BC08D81AD
:1024F000813009F047C0CE018E96FC019E01225D1D
:102500003D4FE217F30711F01192FBCF25E53AEAB0
:10251000FE01E45DFD4F3183208342E552E561E633
:1025200071E44EA75FA768AB79AB42E752E761E47D
:1025300071E67A9740835183628373834E855F850A
:1025400068897989349640835183628373834A858D
:102550005B856C857D85349640835183628373836C
:102560002A8D3B8D4C8D5D8D2F5F3F4F4F4F5F4FC1
:102570002AA73BA74CA75DA701E010E0BC01898119
:10258000C1DA1D8240E050E060E089811DDB91E00E
:10259000811101C090E0892FDF91CF911F910F91A0
:1025A00008950F931F93FC0142505109610971096D
:1025B00002891389248935890250110921093109B9
:1025C000401751076207730778F4A281B0E09A01BF
:1025D000AB010E94B23106A117A120A531A5600F61
:1025E000711F821F931F03C060E070E0CB011F9139
:1025F0000F910895AF92BF92CF92DF92EF92FF9228
:102600000F931F93CF93DF93EC016A017B0142305C
:1026100051056105710508F4A2C08A899B89AC89BE
:10262000BD89481759076A077B0708F098C0888159
:10263000823009F449C0833009F468C0813009F060
:102640008EC05A01B694A794A40EB51EC501892F59
:10265000992786954E8D5F8D68A179A1480F591FE6
:10266000611D711DCE0159DC882321F06FEF7FEFD2
:10267000CB0179C085010F5F1F4FF501F170EC0FA1
:10268000FD1FB6A4C801892F992786954E8D5F8DB1
:1026900068A179A1480F591F611D711DCE013DDC54
:1026A0008111E4CFF801F170EC0FFD1F86A56B2DB1
:1026B00070E0782BC0FE06C0C4E076956795CA9599
:1026C000E1F721C07F701FC0452F562F672F772756
:1026D0008E8D9F8DA8A1B9A1480F591F6A1F7B1F1E
:1026E000CE011BDC8111C2CFCC0CDD1CEE1CFF1C0B
:1026F000E894C0F881E0D822EE24FF24FE01EC0D1E
:10270000FD1D66A577A580E090E02DC0F7E07695E9
:10271000679557954795FA95D1F78E8D9F8DA8A10E
:10272000B9A1480F591F6A1F7B1FCE01F6DB81112B
:102730009DCFE2E0CC0CDD1CEE1CFF1CEA95D1F72E
:102740008CEFC82281E0D822EE24FF24FE01EC0D9C
:10275000FD1D66A577A580A991A99F7004C061E0C1
:1027600070E080E090E0DF91CF911F910F91FF909A
:10277000EF90DF90CF90BF90AF900895AF92BF924F
:10278000CF92DF92EF92FF920F931F93CF93DF933D
:10279000EC018B017D836C83CE80DF80E884F9843B
:1027A00081E0C816D104E104F10411F482E080C094
:1027B000E881F98182899389A489B589C816D906E7
:1027C000EA06FB0698F7C114D104E104F104B9F458
:1027D0008081833041F482A193A1A4A1B5A1009787
:1027E000A105B10551F48085918508171907F0F608
:1027F00062A173A184A195A12FC06C017D01A2806B
:1028000080E1A89E5001112488819981B701A60119
:102810000A151B0500F1EEDE6B017C018FEFC81677
:10282000D806E806F80609F442C082E0C816D104CA
:10283000E104F10408F4BACFE881F981828993892F
:10284000A489B589C816D906EA06FB0608F0AECFFA
:102850000A191B09D9CFA5DECA86DB86EC86FD8660
:10286000611571058105910509F4A0CF980154E027
:10287000369527955A95E1F7DC01CB01820F931F1E
:10288000A11DB11D8E879F87A88BB98B0F70112753
:1028900065E0000F111F6A95E1F7025D1F4F888107
:1028A0009981800F911F9B8B8A8B80E001C081E012
:1028B000DF91CF911F910F91FF90EF90DF90CF901C
:1028C000BF90AF9008954F925F926F927F928F92D8
:1028D0009F92AF92BF92CF92DF92EF92FF920F93AF
:1028E0001F93CF93DF93EC016A017B01280139012B
:1028F000423051056105710508F4C5C08A899B897C
:10290000AC89BD89481759076A077B0708F0BBC027
:102910008881823009F45FC0833009F47DC0813042
:1029200009F0B1C05A01B694A794A40EB51EC50112
:10293000892F992786954E8D5F8D68A179A1480FC3
:10294000591F611D711DCE01E8DA81119DC08501FD
:102950000F5F1F4FF501F170EC0FFD1F460157018E
:1029600081E088229924AA24BB24C0FE08C026A5A1
:102970002F7030E1439EC0011124282B01C0242D6B
:1029800026A781E08C834E8D5F8D68A179A1C80157
:10299000892F99278695480F591F611D711DCE01FA
:1029A000BCDA811171C0F801F170EC0FFD1F8928AC
:1029B0008A288B2849F0B4E076946794579447941A
:1029C000BA95D1F7942D05C096A5907F252D2F702F
:1029D000922B96A755C0452F562F672F77278E8DA0
:1029E0009F8DA8A1B9A1480F591F6A1F7B1FCE0157
:1029F00094DA811149C0CC0CDD1CEE1CFF1CE8945C
:102A0000C0F891E0D922EE24FF24F601BE96EC0F27
:102A1000FD1F5182408234C0E7E076956795579557
:102A20004795EA95D1F78E8D9F8DA8A1B9A1480F42
:102A3000591F6A1F7B1FCE0170DA811125C072E019
:102A4000CC0CDD1CEE1CFF1C7A95D1F73CEFC322A9
:102A500031E0D322EE24FF24F601BE96EC0FFD1FD9
:102A60004081518162817381442755276627707F99
:102A700044295529662977294083518362837383CA
:102A800091E09C8301C082E0DF91CF911F910F9173
:102A9000FF90EF90DF90CF90BF90AF909F908F907E
:102AA0007F906F905F904F9008954F925F926F92DA
:102AB0007F928F929F92AF92BF92CF92DF92EF92CE
:102AC000FF920F931F93CF93DF93EC012A013B01F9
:102AD000411551056105710599F48A849B84AC8484
:102AE000BD8481149104A104B10449F14A895B8930
:102AF0006C897D8984169506A606B70600F523C065
:102B000079DD623071058105910508F492C06F3F4F
:102B10002FEF72078207920729F44FEF3FEF2FEF55
:102B20009FEF8CC0CA88DB88EC88FD886C157D051A
:102B30008E059F0508F47FC05301420104C0812C1B
:102B4000912C54018394750164018FEFC81AD80A3F
:102B5000E80AF80A4A895B896C897D89C416D5061A
:102B6000E606F70680F022E082169104A104B10483
:102B700028F440E030E020E090E060C052E0C52E54
:102B8000D12CE12CF12CB701A601CE0133DD61156A
:102B900071058105910599F06F3F2FEF720782074C
:102BA000920709F4BACF613071058105910509F4E6
:102BB00040C0C814D904EA04FB0439F6DACF0FEF99
:102BC0001FEF2FEF3FE0B701A601CE017CDE8111A0
:102BD0002DC04114510461047104D1F4CA86DB860E
:102BE000EC86FD864E855F85688979894F3F8FEF3A
:102BF000580768077807A9F0415051096109710920
:102C00004E875F87688B798B8D8181608D8309C04A
:102C100097018601B301A201CE0155DE8823F1F2AE
:102C200005C04C2D3D2D2E2D9F2D08C0813009F45F
:102C300074CF41E09FCF462F372F282F642F732F5B
:102C4000822FDF91CF911F910F91FF90EF90DF9036
:102C5000CF90BF90AF909F908F907F906F905F903C
:102C60004F9008957F928F929F92AF92BF92CF9292
:102C7000DF92EF92FF920F931F93CF93DF93EC01BC
:102C80006B010C811D810F5F1F4F0115110511F4A0
:102C900084E0DBC08E859F85A889B9890097A1054E
:102CA000B105B1F378012FE0E222FF24E114F10431
:102CB00009F0B8C00196A11DB11D8E879F87A88B12
:102CC000B98B4A855B856C857D8588819981FC01FE
:102CD000411551056105710531F48085918508170D
:102CE0001907B0F69FC0228130E021503109F80168
:102CF000A4E0F695E795AA95E1F72E233F23232B31
:102D000009F090C077DC4B015C01623071058105F0
:102D1000910510F482E099C06F3F2FEF7207820790
:102D2000920711F481E091C088819981FC01428968
:102D300053896489758984169506A606B70608F432
:102D400064C0CD2809F4A4CF4A855B856C857D8558
:102D5000ACDE4B015C01611571058105910509F43B
:102D600073C06130710581059105A1F26F3F2FEFAE
:102D7000720782079207B1F28881998168D8811120
:102D8000D1CF88819981FC01BE96825D9D4FE81765
:102D9000F90711F01192FBCFC880D980B501A401C9
:102DA000C601FFDBF60162A773A784A795A7C12C14
:102DB000D12C77247394E881F981828190E0C81640
:102DC000D906B8F474828881998141D88111AACF3B
:102DD000E881F98182A593A5A4A5B5A50196A11DB9
:102DE000B11D82A793A7A4A7B5A7FFEFCF1ADF0A4B
:102DF000E2CF82A593A5A4A5B5A58C199D09A1092B
:102E0000B10982A793A7A4A7B5A78A869B86AC869B
:102E1000BD86B501A40188819981C3DB6E877F8758
:102E2000888B998B1D830C8375E0EE0CFF1C7A95C3
:102E3000E1F72EE2E20EF11C888199818E0D9F1D33
:102E40009B8B8A8B80E001C087E0DF91CF911F913F
:102E50000F91FF90EF90DF90CF90BF90AF909F9039
:102E60008F907F9008956F927F928F929F92AF92F2
:102E7000BF92CF92DF92EF92FF920F931F93CF9367
:102E8000DF93EC018B01DB018C918F3211F08C35DB
:102E900011F40F5F1F4F1E821F8218861986F801DA
:102EA0008081803238F460E070E0CE0167DC1B8AFC
:102EB0001A8AE5C030E2A32E45E0B42E3801D801CD
:102EC0008C910F5F1F4F8F32C9F38C35B9F3EC89AA
:102ED000FD89CF019F01255F3F4F8217930721F0A6
:102EE000DC01AD92CD01F9CF430180E090E060E0DC
:102EF00070E028E030E050E06F5F7F4FD4014D91EB
:102F00004D01413218F14F3209F14C35F9F04E3292
:102F100009F4ABC08217930708F092C047FF07C0BF
:102F20005360042F10E001531E4FD8014C91E42E42
:102F3000F12C00E412E0D801CD908D01CC2009F4F1
:102F400081C0D12CCE14DF04B1F77AC08301060F03
:102F5000171F413210F444E001C040E0892B09F40E
:102F60006FC08081853E09F4B0822830310511F4AC
:102F7000550F550F852F8370813009F44061852FDF
:102F80008C70843009F44860438760E070E0CE01C3
:102F9000F5DB811125C04E855F8568897989888137
:102FA00099810E948D0F81111BC0EA89FB89808164
:102FB000882399F0838583FD0BC0AC89BD89CF013F
:102FC0000B96E817F90759F031912D913217C9F393
:102FD00060E070E0CE0146DEDCCF84E001C080E03E
:102FE000EC89FD899385882331F0843009F047C04E
:102FF00092FF24C044C092FD42C04A895B89FA0115
:10300000838584FF1BC0828D938DA0E0B0E0288172
:103010003981F9012081233061F4FA01448955890D
:1030200060E070E0BA0155274427842B952BA62B2E
:10303000B72B8E839F83A887B98740CF85E01FC0B9
:1030400086E01DC01FEB140F1A3110F4526006C049
:103050001FE9140F1A3110F4516040527F01E80E3D
:10306000F91ED7014C93019647CF2830310541F71F
:10307000550F550F88E090E02BE030E03DCFDF9119
:10308000CF911F910F91FF90EF90DF90CF90BF9065
:10309000AF909F908F907F906F9008951F93CF93E4
:1030A000DF93EC0160E070E069DB182F811117C03D
:1030B0004E855F8568897989888199810E948D0F05
:1030C000182F81110CC0EA89FB898081853E59F057
:1030D000882349F061E070E0CE01C4DDE6CF143012
:1030E00019F517E021C04E855F8568897989888147
:1030F00099810E948D0F182F811116C0EA89FB89D2
:103100009F01205E3F4FE217F30711F01192FBCFB2
:103110006C897D894BE050E08A899B890E947F0EF3
:10312000E881F98181E08483812FDF91CF911F9124
:1031300008958F929F92AF92BF92CF92DF92EF92BB
:10314000FF920F931F93CF93DF93EC016A017B01F2
:10315000423051056105710508F44FC04A895B8909
:103160006C897D89C416D506E606F70608F045C0C9
:103170004A895B896C897D89C416D506E606F706FF
:1031800058F4B701A601CE0135DA4B015C01611597
:1031900071058105910511F480E030C081E0881649
:1031A0009104A104B10449F18FEF88169806A8068E
:1031B000B80609F100E010E09801B701A601CE01C0
:1031C00082DB81111BC04E855F85688979894F3FFD
:1031D0008FEF58076807780759F04F5F5F4F6F4FC1
:1031E0007F4F4E875F87688B798B8D8181608D8360
:1031F00075016401BDCF81E001C082E0DF91CF9114
:103200001F910F91FF90EF90DF90CF90BF90AF9004
:103210009F908F900895CF93DF93CDB7DEB7279718
:103220000FB6F894DEBF0FBECDBF9C838B837E8329
:103230006D837A836983CE0101964F830E94EA0EE3
:103240004F8197FD24C0880F991FFC01E25BFA4F64
:103250000190F081E02D309709F01082EB81FC8124
:10326000309709F010822B813C81FC01E25BFA4F20
:1032700031832083232B69F0413059F440E0BE01B3
:103280006B5F7F4FCE0103960E94051003C08BE059
:1032900001C080E027960FB6F894DEBF0FBECDBF09
:1032A000DF91CF9108954F925F926F927F929F929C
:1032B000AF92BF92CF92DF92EF92FF920F931F9344
:1032C000CF93DF93CDB7DEB7A4970FB6F894DEBFE8
:1032D0000FBECDBF5C017CA36BA3F42E009709F455
:1032E000EFC0DC011D921C924E71BE016D5D7F4FDF
:1032F000CE0101960E9405108111E9C0CE014796CA
:103300009E8B8D8B6BA17CA14697ADDD0B891C89B3
:10331000811104C00115110509F486E0BF2DBF71AC
:103320009B2E9F2D9C7109F46DC0882369F0843019
:1033300019F4CE010196B2DEE92DE8609E2E0B89CC
:103340001C89882349F0C3C0D8011B968C918171D8
:1033500009F0BCC0F2FCB6C093FE5FC080E090E014
:10336000A9E6B5E4F80186879787A08BB18B138611
:10337000D801148E158E168E178EE981FA815A9611
:10338000CD90DC905B97E12CF12C8081833069F447
:1033900054964D915C91559760E070E0BA015527C5
:1033A0004427C42AD52AE62AF72AD8015B961C921C
:1033B0001E925A9755961C921E92549781E08483D0
:1033C000C114D104E104F10441F142A453A464A462
:1033D00075A4B701A601CF01ACDE811178C0898147
:1033E0009A81B1E0CB1AD108E108F108FC01C2864C
:1033F000D386E486F586B301A2010E948D0F88234F
:1034000061F065C0811163C0D8011B968C9184FD69
:103410005BC0F1FE02C080FD59C093FE03C0B92D10
:10342000B0629B2EE980FA80F70142A553A564A5FE
:1034300075A5D5015A964D935D936D937C935D97D9
:103440005F961C930E935E9714969C921497159614
:103450001C92F801828D938DA0E0B0E0F7012081ED
:10346000233061F4F8014489558960E070E0BA01C5
:1034700055274427842B952BA62BB72BF501868740
:103480009787A08BB18BF801848D958DA68DB78D14
:10349000F50182879387A487B587168217821086E5
:1034A0001186168A178A108E118EF182E082D7015A
:1034B00016968D919C9117979383828380E007C025
:1034C00089E005C088E003C084E001C087E0A496DD
:1034D0000FB6F894DEBF0FBECDBFDF91CF911F9125
:1034E0000F91FF90EF90DF90CF90BF90AF909F90A3
:1034F0007F906F905F904F9008952F923F924F92E0
:103500005F926F927F928F929F92AF92BF92CF9273
:10351000DF92EF92FF920F931F93CF93DF93EC0113
:103520005B017A011901F901118210820E94090FD1
:10353000811162C18D8181115FC18C8181FF5BC16D
:103540008E819F81A885B985AC01BD014E0D5F1D9F
:10355000611D711D481759076A077B0708F0A2C053
:10356000E12CF12C9FC04E815F8168857985DB015C
:10357000CA019170AA27BB27892B8A2B8B2B09F0B4
:1035800007C1E881F981128111502A013B01A9E0AC
:103590007694679457944794AA95D1F7142109F427
:1035A00086C088819981FC0142A453A464A475A4B7
:1035B0004E895F89688D798D4416550666067706B3
:1035C00009F4C2C0888099804A895B896C897D89A9
:1035D000C4010E94D112611571058105910509F49C
:1035E000B9C02B013C01410E511C611C711C6701CB
:1035F000CD2CDD24C694C114D10409F4ADC0F4016E
:103600008281212F30E0A601420F531F90E08417E2
:10361000950718F46C01C21AD30A8601A30192011E
:10362000B501F40181810E94820D8111C7C088819A
:103630009981FC0142A553A564A575A544195509B6
:10364000660977092601612C712C4415550566051C
:10365000770570F4BA01762F6627770F6A0D7B1D08
:1036600040E052E08E960E947F0EE881F98114823C
:10367000DC2CCC24DD0CAC0CBD1C8E819F81A8857C
:10368000B9858C0D9D1DA11DB11D8E839F83A887BB
:10369000B987F101808191818C0D9D1D918380837B
:1036A000EC18FD08E114F10409F05DCF1CC0452BB6
:1036B000462B472B69F46E857F858889998961152A
:1036C00071058105910511F540E050E0BA0104C093
:1036D0004A895B896C897D89CF01E7D961157105BC
:1036E0008105910599F48E819F81A885B9854A85C8
:1036F0005B856C857D85481759076A077B0708F04D
:1037000075C08A879B87AC87BD8770C061307105A3
:1037100081059105F9F06F3FFFEF7F078F079F0746
:1037200009F44CC06A8B7B8B8C8B9D8B4E845F84A1
:103730006888798845284628472809F032CF6E875F
:103740007F87888B998B2DCF0E94270F882309F4C0
:1037500039CF34C082E033C04E815F81688579857E
:103760008A859B85AC85BD85481759076A077B0705
:1037700058F0C4010E94270F811120C0E881F9810F
:1037800042A653A664A675A64E8A5F8A688E798E75
:103790008E819F81917020E032E0281B390B6701F8
:1037A0002E153F0508F469014E895F89688D798D72
:1037B000888199810E948D0F882319F081E08D8383
:1037C0001BC08E819F81A885B9859170AA27BB27D0
:1037D0008E9628813981A601B501820F931F0E9420
:1037E0007F0EE881F98131E0348345CF8C8180629E
:1037F0008C8380E001C087E0DF91CF911F910F9112
:10380000FF90EF90DF90CF90BF90AF909F908F9000
:103810007F906F905F904F903F902F900895CF933F
:10382000DF93EC010E94090F811139C09C8195FF43
:1038300036C04A8D5B8D6C8D7D8D888199810E940B
:103840008D0F81112CC0EE8DFF8D83858062838763
:103850004A855B856C857D85448F558F668F778F14
:103860004E855F8568897989538F428F758B648B0C
:1038700040E050E069E675E4468B578B608F718FAE
:10388000138A128A8C818F7D8C83E881F98181E093
:10389000848388819981DF91CF910C946A12DF91A2
:1038A000CF910895CF93DF93EC01B9DF811107C069
:1038B000CE010E94090F811102C019821882DF9186
:1038C000CF9108952F923F924F925F926F927F9285
:1038D0008F929F92AF92BF92CF92DF92EF92FF9220
:1038E0000F931F93CF93DF93CDB7DEB728970FB613
:1038F000F894DEBF0FBECDBF1C014D835E836F8386
:1039000078870E94090F4D815E816F8178858111D2
:103910005FC1D10115968C911597811159C11A96E5
:10392000CD90DD90ED90FC901D97C416D506E6066F
:10393000F70618F06A017B0104C0F101848181FD62
:10394000F9CFD10116964D905D906D907C901997AE
:10395000F1011682178210861186C114D104E10488
:10396000F10421F4C12CD12C760105C10081118113
:10397000F8018280912CA12CB12C89E0880C991C33
:10398000AA1CBB1C8A95D1F741145104610471042F
:10399000D9F1F1E04F1A510861087108C701B60169
:1039A0006150710981099109A50194010E9490312A
:1039B00029833A834B835C83C301B201A50194013F
:1039C0000E94903189819A81AB81BC8182179307D3
:1039D000A407B507C8F088279927DC018819990939
:1039E000AA09BB0984219521A621B721F10186836B
:1039F0009783A087B187C81AD90AEA0AFB0A4289C5
:103A00005389648975892CC0D1011E964D915D91B1
:103A10006D917C9151974115510561057105C9F46E
:103A200040E050E0BA01C80140D8AB01BC014130D0
:103A300051056105710509F463C04F3FFFEF5F0752
:103A40006F077F0709F45AC0F10146875787608BDB
:103A5000718BD10152964D935D936D937C935597E5
:103A6000411551056105710509F47CCF2CC0423028
:103A700051056105710508F443C0D101ED91FC9138
:103A800082899389A489B589481759076A077B07F2
:103A9000B8F5D10152964D935D936D937C935597F4
:103AA00016968D919D910D90BC91A02D880D991D1C
:103AB000AA1DBB1DF10186839783A087B187C81813
:103AC000D908EA08FB088C149D04AE04BF0418F55D
:103AD000F10124818081918121FF16C00E9455153A
:103AE000AB01BC01411551056105710591F04F3FD6
:103AF000FFEF5F076F077F0709F0B9CF81E02CC0A8
:103B000082E0F101858364C00E94FA12AB01BC011E
:103B1000EECF75016401F10186819781A085B185A1
:103B20008C0D9D1DAE1DBF1D86839783A087B18719
:103B3000D701C6019170AA27BB27892B8A2B8B2B13
:103B400009F410CF808191810E94D1126115710515
:103B50008105910529F482E0D10115968C9338C036
:103B6000B9E0F694E794D794C794BA95D1F7C60E06
:103B7000D71EE81EF91EF10186819781A085B185C7
:103B8000AC01BD01517066277727452B462B472B8B
:103B900069F046895789608D718DC416D506E60691
:103BA000F70621F0C68AD78AE08EF18EF1014285B0
:103BB000538564857585481759076A077B0738F46C
:103BC00082879387A487B58784818062848380E01D
:103BD00028960FB6F894DEBF0FBECDBFDF91CF9110
:103BE0001F910F91FF90EF90DF90CF90BF90AF901B
:103BF0009F908F907F906F905F904F903F902F900D
:103C00000895FF920F931F93CF93DF93CDB7DEB745
:103C1000A4970FB6F894DEBF0FBECDBF9CA38BA3B5
:103C20008B0140E0BE016D5D7F4FCE0101960E9489
:103C30000510F82E81111AC0CE0147969E8B8D8BF0
:103C40006BA17CA146970FD9F82E81110FC02B894B
:103C50003C89232B49F00115110541F0B801CE0133
:103C600001960E94A20E02C026E0F22E8F2DA4968D
:103C70000FB6F894DEBF0FBECDBFDF91CF911F917D
:103C80000F91FF900895BF92CF92DF92EF92FF9233
:103C90000F931F93CF93DF93EC01B62EC8A0DF8C58
:103CA000EE8CFD8C0BA11AA10E945F09C616D706E7
:103CB000E806F90668F080911001807F85608093A6
:103CC000100181E280931A0110921B0180E020C054
:103CD0009801B701A601CE01BB2011F072D201C03C
:103CE000D5D16801E12CF12C89E0CC0CDD1CEE1C57
:103CF000FF1C8A95D1F74C895D896E897F894C19A3
:103D00005D096E097F094C8B5D8B6E8B7F8B81E02B
:103D1000DF91CF911F910F91FF90EF90DF90CF90A7
:103D2000BF900895CF92DF92EF92FF920F931F936F
:103D3000CF93DF93CDB7DEB728970FB6F894DEBFE9
:103D40000FBECDBF8C01FC01838D8D3109F4BEC047
:103D500088F4823109F138F4882309F407C18330EB
:103D600009F449C012C18A3109F4E5C08B3109F464
:103D700006C10BC1883209F4CEC038F48E3109F483
:103D8000FEC0853209F463C000C18A3209F4B8C0AC
:103D90008F3209F4F4C0F9C0F801E78CF68C848DF9
:103DA000837009F097C0858D811194C06701F5E299
:103DB000EF16F10418F024E2C22ED12C40E050E0BE
:103DC000B6018FEC92E00E941E2C60E070E0C7010B
:103DD0008C199D090E94E12B8091E8008E778093D9
:103DE000E800F80184899589A689B7898C199D090D
:103DF000A109B10927C0F801C78CDC2CF2E1FC1540
:103E000010F492E1D92EED2CF12C40E050E0B701F6
:103E10008EE091E00E941E2C8C2D90E060E070E01E
:103E20008E199F090E94E12B8091E8008E77809384
:103E3000E800F80184899589A689B7898D199109C7
:103E4000A109B109848B958BA68BB78BA8C00BD227
:103E5000811108C080911001807F826080931001E1
:103E60008AE39AC08091DE068130A1F780E092E07B
:103E7000A0E0B0E089839A83AB83BC830E945F0992
:103E800061507109810991096D837E838F839887C1
:103E900040E050E064E070E0CE0105960E94662CA0
:103EA00040E050E064E070E0CE0101960E94662C94
:103EB0008091E8008E778093E800F80184899589E5
:103EC000A689B7890897A109B109BCCFF801848DEB
:103ED00082FD08C080911001807F85608093100171
:103EE00084E25AC0C0D181114AC080911001807F04
:103EF00084608093100110921A0110921B015AC025
:103F0000B2D1882309F4A6CF8091DE06813009F072
:103F1000A1CF60E00AC0A7D1882309F49BCF80918C
:103F2000DE06813009F096CF61E0C801ACDE88235F
:103F300009F440C034C01092F1001092F1001092C8
:103F4000F1001092F1008091E8008E778093E800F4
:103F5000F801448955896689778944505109610976
:103F60007109448B558B668B778B19C07CD1882364
:103F700009F470CF8091DE06813009F06BCFF80133
:103F8000148A158A168A178A0AC080911001807FC8
:103F900085608093100180E280931A01AECF8091FA
:103FA0001001807F8093100110921A0110921B0162
:103FB00081E001C080E028960FB6F894DEBF0FBE06
:103FC000CDBFDF91CF911F910F91FF90EF90DF90C8
:103FD000CF90089580E00E94940C811104C081E08C
:103FE0008093500508951092500508950F931F93E4
:103FF000CF93DF93EC018B018091E80085FF36C001
:104000008091F100FE01E00FF11F80838091F100AB
:1040100081838091F10082838091F100838380917C
:10402000F10084838091F10085838091F100868383
:104030008091F10087838091F10080878091F10069
:1040400081878091F10082878091F1008387809140
:10405000F10084878091F10085878091F100868747
:104060008091F100878780E190E00BC08091E800AB
:104070008B778093E8000E94932E882309F280E0DA
:1040800090E0DF91CF911F910F910895AF92BF9271
:10409000CF92DF92EF92FF920F931F93CF93DF9314
:1040A0005C016A017B01E9010E94932E811130C0FD
:1040B000209721F12E9800E010E0B8018FED96E0F6
:1040C00095DF080F191F80912309843009F5F50148
:1040D00080AD81111DC00115F2E01F0770F301E0F2
:1040E00010E0A70196016FED76E00E94820D8FEF40
:1040F000C81AD80AE80AF80A2197DACF8091E800AE
:1041000085FD05C08091E8008B778093E8002E9AAA
:10411000DF91CF911F910F91FF90EF90DF90CF90A3
:10412000BF90AF9008950F931F93CF93DF93EC014F
:104130008B018091E80085FF35C0FE01E00FF11F83
:1041400080818093F10081818093F100828180934E
:10415000F10083818093F10084818093F100858157
:104160008093F10086818093F10087818093F10034
:1041700080858093F10081858093F1008285809312
:10418000F10083858093F10084858093F10085851B
:104190008093F10086858093F10087858093F100FC
:1041A00080E10AC08091E8008E778093E8000E9449
:1041B000932E882311F280E0DF91CF911F910F9110
:1041C0000895AF92BF92CF92DF92EF92FF920F933A
:1041D0001F93CF93DF935C016A017B01E9010E9489
:1041E000932E811135C0209749F12E9801E010E0FF
:1041F000A70196016FED76E080E00E943A0D00E0A5
:1042000010E0B8018FED96E08EDF080F111DF5016B
:1042100080AD81111DC080912309843021F08AE096
:104220008093DE0615C00115F2E01F0750F38FEFF3
:10423000C81AD80AE80AF80A2197D5CF8091E80071
:1042400085FD05C08091E8008E778093E8002E9A66
:10425000DF91CF911F910F91FF90EF90DF90CF9062
:10426000BF90AF9008958091500508951F920F92CE
:104270000FB60F9211242F938F939F93EF93FF9379
:104280008091C8009091CE008871E0915305EF5F56
:10429000EF7020915205E21739F0E0935305F0E0FA
:1042A000EA5AFA4F908301C082E090915105982B11
:1042B00090935105FF91EF919F918F912F910F90C6
:1042C0000FBE0F901F9018951F920F920FB60F926E
:1042D00011248F939F93EF93FF93909155058091B5
:1042E0005405981769F0E0915405EF5FEF70E09383
:1042F0005405F0E0EA59FA4F80818093CE0005C062
:104300008091C9008F7D8093C900FF91EF919F91AB
:104310008F910F900FBE0F901F901895109255051A
:1043200010925405109253051092520597FF04C045
:1043300022E02093C8009F779093CD008093CC001B
:1043400088E98093C90086E08093CA00089590911F
:10435000530580915205981781F0E0915205EF5F67
:10436000EF70E0935205F0E0EA5AFA4F80819091A5
:1043700051051092510590E0089580E091E0089574
:1043800010925305109252050895909155059F5F24
:104390009F70209154059217E1F3E92FF0E0EA595C
:1043A000FA4F8083909355058091C9008062809375
:1043B000C90008951F920F920FB60F9211242F93E8
:1043C0003F934F935F936F937F938F939F93AF939D
:1043D000BF93EF93FF938091D5059091D6050196F9
:1043E0009093D6058093D5058091DC069091DD06EB
:1043F00001969093DD068093DC068091DE06813085
:1044000071F08091DE068D3051F080E391E00E94E2
:10441000C62A80E291E09ED70E94553103C081E018
:1044200080938F05FF91EF91BF91AF919F918F91F5
:104430007F916F915F914F913F912F910F900FBEA0
:104440000F901F90189580918F05813029F480E39B
:1044500091E00E94C62A04C080918F05833021F428
:1044600080E291E077D708C080918F05823031F4E7
:1044700080E391E00E94C62A0E94553110928F0578
:10448000089584B7877F84BF88E10FB6F89480933E
:104490006000109260000FBE85B7806885BF85B749
:1044A000806885BF85B7806885BF85B7806885BF10
:1044B00090E080E80FB6F8948093610090936100DB
:1044C0000FBE0E9428080E943C082FE788E391E075
:1044D000215080409040E1F700C0000086E092E06B
:1044E0000E94683491E0811101C090E09093DB0557
:1044F00087E092E00E94683491E0811101C090E071
:1045000090938C0588E092E00E94683491E08111DC
:1045100001C090E090935D0689E092E00E946834CB
:1045200091E0811101C090E090939B060895089559
:104530009ADE882319F082E08093DE0608950895BC
:10454000089580E291E0F3D680E391E00E94A92AE9
:10455000E2EEF0E0808184608083089580E391E062
:10456000B9D780E291E0AFC580912E0190912F01E3
:10457000009729F0019790932F0180932E010895C1
:10458000D1CB0F931F93F901A091D805B091D90514
:1045900012968C918283882321F0809191058083EB
:1045A00001C01082E091D805F091D90512821092D5
:1045B000910588E090E0F8019183808380E01F916D
:1045C0000F910895F901808180FF06C0E091D80520
:1045D000F091D90581E00FC081FF06C0E091D805B8
:1045E000F091D90582E007C082FF06C0E091D805AE
:1045F000F091D90584E082830895CF938DE092E015
:104600000E946834C82F1AD362E067D47C9909C02D
:104610007D9907C07E9905C081E08093DE0600D5B4
:1046200027C07D9904C07E9902C089E005C07C99AD
:1046300006C07D9904C082E08093DE0642C07C996A
:1046400004C07E9902C086E0F7CF7C9902C085E065
:10465000F3CF7D9902C083E0EFCF7E9902C084E062
:10466000EBCF853539F481E08093DE068093D70562
:10467000C1E027C0833579F4F6DD882339F082E084
:104680008093DE0681E08093D70503C08AE08093A3
:10469000DE06C2E016C0823459F40E94EE0288237E
:1046A00029F089E08093DE06C9E00BC08AE0C4CF20
:1046B0008C3429F48DE08093DE06CDE002C0C093F7
:1046C000DE066C2F8DE092E0CF910C9475348CE077
:1046D0008093DE06D6DECED444D41BD47BDC8DDFC3
:1046E0000E941B2F7894CDE0DAE08091DE068530C1
:1046F00009F479C08CF4823009F46AC01CF481306A
:10470000E1F0B5C0833009F4ADC0843009F0AFC02A
:104710000E94C32ED1E039C08A3009F48AC03CF42B
:10472000863009F463C0893009F463C0A0C08B30BF
:1047300009F44AC08D3009F09AC00E94520995D2FE
:10474000D82F96D1C82F682F8D2FB0D3882351F042
:10475000883121F49091D705911180E01092D7050E
:104760006C2F88D08FE99FE00197F1F700C000001F
:1047700080E291E0EFD567DEE2CF46982E9A8FE98E
:104780009FE00197F1F700C0000010925E0699B11A
:10479000C9B189B123B1C6FBCC27C0F9CD27929509
:1047A00091709D27C90F8095881F8827881FC80F83
:1047B00024FB882780F98D27C80FA2D38C0F80FF98
:1047C000DCCF469A2E98DBCF0E94C32E0E94C509EB
:1047D00080918D05882311F05D98559A0E94C32E13
:1047E0000E94360A82CF0E940D053EC00E94AD0491
:1047F0003BC080918D05882311F05D98559A83E325
:1048000090E08CDD0E94A502799BFECF2ED2D82F9E
:104810002FD1C82F682F8D2F49D3882319F06C2FE3
:104820000E9460028FE99FE00197F1F700C000004D
:10483000EBCF0E94C32E2E9A46989FEF21EE84E084
:10484000915020408040E1F700C00000469A2E9829
:104850009FEF21EE84E0915020408040E1F700C0BE
:104860000000E9CF0E942807C093DE063ECFD09318
:10487000DE063BCF1F93CF93DF931F92CDB7DEB7FA
:10488000182F1092D6051092D505E091D805F09119
:10489000D90582818823A9F02091D5053091D605CC
:1048A0002436310570F48091DE06813021F080914C
:1048B000DE068D3051F780E291E069834BD5698146
:1048C000E4CF17FF02C01F7762E0F894E091D805AB
:1048D000F091D90512836093910580E291E03AD579
:1048E00078948FE295E70197F1F700C00000F89403
:1048F00080E291E02FD578940F90DF91CF911F91B6
:104900000895EF92FF920F931F93CF93DF938C0143
:10491000EC0109900020E9F72197C81BD90B7C0115
:10492000C701801B910B8C179D070CF04CC0F70141
:1049300081917F01803209F1883211F1893219F1B8
:104940008F3219F18F3319F18A3321F18D3029F12A
:104950008A3019F18E3221F1813229F1803331F11F
:104960009FEC980F993018F4835160E021C090E0DB
:104970000E9443328D5362E01BC060E08CE218C09D
:1049800062E086E215C062E012C060E001C062E051
:1049900088E30EC062E083E30BC060E088E208C0F9
:1049A00060E087E305C062E08EE102C060E087E27C
:1049B00061DFFFE728E381E0F15020408040E1F72C
:1049C00000C00000ADCFDF91CF911F910F91FF90FC
:1049D000EF900895BC018FE596E00E944B328FE581
:1049E00096E08FCF1F93CF93DF93482F6AE00E940A
:1049F0007131C92F842F90E08C1B910964E670E01F
:104A00000E947D316AE070E00E947D31D62F162F22
:104A1000483C18F060E08FE104C0443618F060E0D4
:104A20008EE128DF60E0112319F08DE18D0F01C0C8
:104A300087E220DF2FEF80E792E021508040904016
:104A4000E1F700C0000060E0CC2319F08DE18C0F8D
:104A500001C087E20FDF2FEF80E792E02150804016
:104A60009040E1F700C00000DF91CF911F910895C1
:104A70008091D405823099F040F4813011F599B1DC
:104A8000929591708091DB051AC0833079F0843063
:104A9000C1F493B19295917080919B0610C099B129
:104AA00096FB992790F980918C0509C089B1881FE0
:104AB0008827881F90915D06891303C004C098174A
:104AC00011F080E001C082E07C9B81607D9B84606E
:104AD0007E9B886008955F926F927F928F929F92E3
:104AE000AF92BF92CF92DF92EF92FF920F931F93FC
:104AF000CF93DF93F894729A8FEC97E00197F1F7D8
:104B000000C00000729878948FEC97E00197F1F75D
:104B100000C00000E0E0F0E0512C612C712C10E0AE
:104B2000D0E0C0E0B0E0A0E01D9913C021E030E08B
:104B300040E050E060E070E080E090E00E2F0E94E6
:104B4000C431522A632A742A152BD62BC72BB82BB3
:104B5000A92BF894729A9AE19A95F1F700C072988D
:104B600078948AE68A95F1F700C03196E033F10532
:104B7000D9F680915E068823E9F0252D362D472D44
:104B8000512F6D2F7C2F8B2F9A2F0CE20E94DF313B
:104B9000490191E089229924E091DA05F0E08E162E
:104BA0009F0641F0512C612C712C10E0D0E0C0E048
:104BB000B0E0A0E08091D405813051F029B1229578
:104BC00021709091DB05291301C0A064823059F057
:104BD00029B126FB222720F990918C05291301C0C9
:104BE000A062833059F099B1991F9927991F20919C
:104BF0005D06921301C0A061843041F093B192959B
:104C0000917080919B06981301C0A860252D362DC8
:104C1000472D512F6D2F7C2F8B2F9A2FDF91CF9106
:104C20001F910F91FF90EF90DF90CF90BF90AF90CA
:104C30009F908F907F906F905F900895FF920F9359
:104C40001F93CF93DF9347DFE72FEF7E7E2FA0E008
:104C50000E94FB3119F00E94BC3101C080E0DF915D
:104C6000CF911F910F91FF9008952F923F924F92F5
:104C70005F926F927F928F929F92AF92BF92CF92EC
:104C8000DF92EF92FF920F931F93CF93DF9300D0A9
:104C900000D0CDB7DEB71FDF49015A01C62E7C8395
:104CA000582E492EB72FBF7EB98370908E05609025
:104CB000D205E7E8F5E083EF282E82E0382E1B824C
:104CC0001A8210E0D12CEA80FB80711002C0E12C26
:104CD000F12CD1010D911D018A819B8101969B834D
:104CE0008A839401A5016C2D7981852D942D0E94D4
:104CF000DF31217030E040E050E060E070E080E0C3
:104D000090E0A0E00E94FB3191F08081861510F4C4
:104D10008F5F2DC0C7018D579A4FDC012C91211157
:104D200027C021E02C931A81DD24D39421C0772061
:104D300021F0808181111AC010C0809187058111F6
:104D400012C08091880581110EC080918905811162
:104D50000AC080918A05811106C0C7018D579A4FFC
:104D6000DC011C9205C08081882311F08150808372
:104D700031968A819B81049709F0A5CFBC81BF7EC3
:104D8000F0908205FF2081F0EFE3F0E0EF19F109E8
:104D900021E030E040E050E060E070E080E090E052
:104DA0000E2F0E94C43127C090918105992349F1AB
:104DB000809180058F5F809380052091D3058217B5
:104DC00028F010928005109281051BC0EFE3F0E0FF
:104DD000E91BF10921E030E040E050E060E070E0E4
:104DE00080E090E00E2F0E94C431209530954095D0
:104DF00050956095709582229322A422B522C622F6
:104E0000B7239401A5016C2D7B2F80E090E0A0E0FA
:104E10000E94FB3161F00E94BC31882341F09091E7
:104E20007F059F5F90937F0510927E0508C080915B
:104E30007E058F5F80937E0510927F0580E09091C4
:104E40001C0620917F05291748F090937F058F1548
:104E500089F080938205DD2091F00EC0809190054D
:104E600090917E05981730F080937E05F092810531
:104E700010928205DD2011F0812F01C080E00F909B
:104E80000F900F900F90DF91CF911F910F91FF9096
:104E9000EF90DF90CF90BF90AF909F908F907F90DA
:104EA0006F905F904F903F902F900895282F30E0A3
:104EB00062FF06C0F901E152F74F808181110CC0F9
:104EC00061FF06C0F901E452FA4F8081811104C0EC
:104ED000F901EE56FA4F80810895882379F0282F42
:104EE00030E061FF06C0F901E35EF94F8081811176
:104EF00006C0F901E456F94F8081089580E00895D5
:104F00000F93E9DD0CE20E94DF31822F81700F9157
:104F1000089540E450E060E070E082E995E00E948E
:104F2000583440E450E060E470E08FED98E00E9477
:104F3000583440E450E060E870E08CED95E00E9469
:104F4000583440E450E060EC70E08CE996E00E9458
:104F5000583440E450E060E071E08DE196E00C945C
:104F6000583482E092E00E9468348093900581E09A
:104F700092E00E94683480931C0680E092E00E94D8
:104F800068348093D3058CE092E00E94683480936B
:104F9000D20583E092E00E94683480935E0684E04C
:104FA00092E00E9468348093DA0585E092E00E94E6
:104FB00068348093D4058EE092E00E946834809338
:104FC0008E058FE092E00E94683480938D050895ED
:104FD00080E4E2E9F5E0DF01982F1D929A95E9F768
:104FE000EFEDF8E0DF01982F1D929A95E9F7ECEDCF
:104FF000F5E0DF01982F1D929A95E9F7ECE9F6E0CC
:10500000DF01982F1D929A95E9F7EDE1F6E0DF01B7
:105010001D928A95E9F71092D40510925E060895C4
:1050200066E080E092E00E94753468E081E092E002
:105030000E94753463E082E092E00E94753463E080
:105040008CE092E00E94753460E08EE092E00E9475
:10505000753461E08DE092E00E94753460E08FE08D
:1050600092E00E94753460E070E08AE092E00E9475
:105070009E3477CFCF93DF938FEF93E00E94683415
:105080008734F1F0C0E0D0E060E0CE010E947534DA
:105090002196C13581E0D807B9F7C0E0D2E060E0E1
:1050A000CE010E9475342196C13182E0D807B9F74C
:1050B000B7DF67E48FEF93E0DF91CF910C949034EA
:1050C000DF91CF9108956F927F928F929F92AF92CE
:1050D000BF92CF92DF92EF92FF920F931F93CF93E5
:1050E000DF9300D01F92CDB7DEB77C01ADB6BEB660
:1050F0008091E80083FF04C1F701808190E0209156
:105100002809309129092817390709F0F9C0809139
:105110002509833009F49BC030F4813071F082306E
:1051200009F4D2C0EDC08A3009F4B6C08B3009F45E
:105130009FC0893009F0E4C04DC080912409813AB4
:1051400009F0DEC08DB69EB61A82198280912609BA
:10515000109127098B83F701408550E08DB79EB7EA
:10516000841B950B0FB6F8949EBF0FBE8DBFEDB795
:10517000FEB731966F0160E070E0CF010E946832A7
:105180004FEF410F8E010F5F1F4F9601BE016D5F04
:105190007F4FC701F6D9F70186819781009729F0E3
:1051A000408550E0B6010E945F321092E900809184
:1051B000E800877F8093E8008B8181118093F10064
:1051C00069817A81C60119D48091E8008B77809338
:1051D000E80037C080912409813209F091C08DB672
:1051E0009EB600912A0910912B09709026096090B3
:1051F00027098DB79EB7801B910B0FB6F8949EBF01
:105200000FBE8DBFEDB7FEB731966F018091E800FC
:10521000877F8093E800B801CF0150D48091E800E7
:105220008E778093E80021E0711001C020E030E02B
:10523000021B130B2C0D3D1D4FEF460D672DC701B3
:10524000C1D90FB6F8949EBE0FBE8DBE59C08091D5
:105250002409813A09F054C08091E800877F809347
:10526000E8008091E80080FFFCCFF701818540C015
:1052700080912409813209F043C08091E800877F42
:105280008093E8002FD59091260981E0911101C00B
:1052900080E0F701818734C080912409813281F553
:1052A0008091E800877F8093E8001CD580912609D3
:1052B00090912709882736E0969587953A95E1F7EA
:1052C000F701958784871CC080912409813AC1F435
:1052D0008091E800877F8093E8008091E80080FF5C
:1052E000FCCFF7018485958596958795969587954A
:1052F0008093F1008091E8008E778093E800F2D4EB
:105300000FB6F894BEBE0FBEADBE0F900F900F90BB
:10531000DF91CF911F910F91FF90EF90DF90CF9091
:10532000BF90AF909F908F907F906F900895FC01F9
:10533000399627E0DF011D922A95E9F721E0FC016B
:10534000218724EF31E03587248723E0248361E03F
:1053500001968BC45F926F927F928F929F92AF92D1
:10536000BF92CF92DF92EF92FF920F931F93CF9352
:10537000DF9300D01F92CDB7DEB77C01ADB6BEB6CD
:1053800080912309843009F08DC08091E4009091D0
:10539000E500F701228533852817390709F482C013
:1053A00081818F708093E9008091E80085FF7AC049
:1053B0008DB69EB6408550E08DB79EB7841B950B89
:1053C0000FB6F8949EBF0FBE8DBFEDB7FEB73196F6
:1053D0006F011B821A82198260E070E0CF010E9487
:1053E00068328E010F5F1F4F960140E0BE016D5F76
:1053F0007F4FC701C6D8682EF70184859585892B14
:1054000041F021E086859785892B09F020E0722EF6
:1054100001C0712CF701068117810115110599F062
:1054200049815A81B801C6010E94523255245394D1
:10543000892B09F4512CF701408550E0B601C801D1
:105440000E945F3201C0512C29813A81232BF1F057
:10545000611004C0511002C070FE18C0F7018485AD
:1054600095859787868781818F708093E9008B81EE
:1054700081118093F10069817A8140E050E0C6019A
:10548000DDD18091E8008E778093E8008091E40080
:105490009091E500F701938782870FB6F8949EBE3E
:1054A0000FBE8DBE0FB6F894BEBE0FBEADBE0F9040
:1054B0000F900F90DF91CF911F910F91FF90EF9080
:1054C000DF90CF90BF90AF909F908F907F906F9024
:1054D0005F900895CF93DF93EC018091E80083FF04
:1054E00035C0888190E0209128093091290928173A
:1054F000390761F5809125098E3F79F08F3F31F5AD
:1055000080912409813211F58091E800877F809392
:10551000E800E8D381E088AF19C080912409813A7E
:10552000A9F48091E800877F8093E8008091E800EB
:1055300080FFFCCF8B8581508093F1008091E80043
:105540008E778093E800DF91CF91CCC3DF91CF912C
:105550000895CF93DF93EC01FC013C968DE2DF01CF
:105560001D928A95E9F782E08C83898761E0CE01FC
:1055700001967BD3882331F061E0CE010696DF915E
:10558000CF9173C380E0DF91CF910895EF92FF92A6
:105590000F931F93CF93DF9300D0CDB7DEB78C016D
:1055A00080912309843009F003C1F80186818F704E
:1055B0008093E9008091E80082FFC0C086818F70EF
:1055C0008093E9001A8219827801FCE0EF0EF11C49
:1055D000AE014F5F5F4F6FE070E0C701C6D1F801C9
:1055E000853021F480AD882399F3A8C08485958502
:1055F000A685B78585359345A244B34461F4F80187
:10560000918D8385981738F4808D8F7121F4828D68
:105610008150803180F08091EB0080628093EB00BC
:10562000F80181818F708093E9008091EB008062A6
:105630008093EB0083C01A8219827801FBE1EF0EA0
:10564000F11CF801628D70E0AE014F5F5F4FC70142
:105650008CD1853029F4F80180AD882391F36EC098
:105660008091E8008B778093E800F801808D87FFB8
:1056700004C081818F708093E900C8010E94C0221C
:1056800091E09827F80197AB45E553E562E473E5AF
:1056900043A754A765A776A7408951896289738972
:1056A00047A750AB61AB72AB44895589668977894E
:1056B00043AB54AB65AB76AB811109C0452B462B90
:1056C000472B29F08091EB0080628093EB00F8017A
:1056D00086818F708093E9008091EB0085FF06C082
:1056E000E4D5F80180AD8823B9F328C0F8018181A1
:1056F0008F708093E9008091EB0085FF06C0D5D5BF
:10570000F80180AD8823B9F319C01A821982780193
:10571000FBE2EF0EF11CAE014F5F5F4F6DE070E0FA
:10572000C7018CD0853029F4F80180AD882399F326
:1057300005C08091E8008E778093E800F80180AD85
:105740008823B1F126812F7081E090E0AC0102C086
:10575000440F551F2A95E2F74093EA001092EA00A1
:1057600021812F70022E01C0880F0A94EAF78093DE
:10577000EA001092EA0086818F708093E9008091A0
:10578000EB0080618093EB008091EB008860809358
:10579000EB0081818F708093E9008091EB00806144
:1057A0008093EB008091EB0088608093EB0010AE5B
:1057B0000F900F90DF91CF911F910F91FF90EF907D
:1057C0000895EF92FF920F931F93CF93DF938C0175
:1057D000EB01A9D281112BC0209721F088819981FA
:1057E000081B190BE12CF12C01151105F9F0809122
:1057F000E80085FD13C08091E8008E778093E80073
:10580000209741F0888199818E0D9F1D998388830F
:1058100085E00DC088D2882339F309C01092F100C9
:10582000015011098FEFE81AF80ADECF80E0DF910E
:10583000CF911F910F91FF90EF900895CF92DF923B
:10584000EF92FF920F931F93CF93DF937C018B0115
:10585000EA0169D2811131C0209731F088819981A4
:10586000081B190BE80EF91EC12CD12C01151105CE
:1058700019F18091E80085FD14C08091E8008E77D1
:105880008093E80012D5209741F0888199818C0D92
:105890009D1D9983888385E010C045D2882331F30C
:1058A0000CC0F70181917F018093F1000150110933
:1058B000FFEFCF1ADF0ADACF80E0DF91CF911F919F
:1058C0000F91FF90EF90DF90CF900895CF92DF92ED
:1058D000EF92FF920F931F93CF93DF936C018B0195
:1058E0007A0121D2811138C0E8012197CC0DDD1D4C
:1058F000E114F10439F0F70180819181081B190B43
:10590000C81BD90BC12CD12C0115110521F1809197
:10591000E80085FD16C08091E8008E778093E8004E
:10592000C4D4E114F10449F0F701808191818C0D18
:105930009D1D9183808385E00FC0F5D1882321F3DD
:105940000BC088818093F100219701501109FFEF6E
:10595000CF1ADF0AD9CF80E0DF91CF911F910F914D
:10596000FF90EF90DF90CF900895CF92DF92EF926B
:10597000FF920F931F93CF93DF937C018B01EA017A
:10598000D2D1811131C0209731F088819981081BD3
:10599000190BE80EF91EC12CD12C0115110519F1B6
:1059A0008091E80085FD14C08091E8008B7780939A
:1059B000E8007BD4209741F0888199818C0D9D1D52
:1059C0009983888385E010C0AED1882331F30CC061
:1059D0008091F100F70181937F0101501109FFEFE0
:1059E000CF1ADF0ADACF80E0DF91CF911F910F91BC
:1059F000FF90EF90DF90CF90089520912A09309189
:105A00002B092617370748F06115710539F42091E5
:105A1000E8002E772093E80001C0B901FC0120E0E6
:105A200061157105B9F180912309882309F440C0FB
:105A3000853009F43FC08091E80083FD3DC080912E
:105A4000E80082FF06C08091E80082FF26C080E067
:105A500008958091E80080FFE3CF2091F3008091CA
:105A6000F20090E0922B6115710551F0883091059C
:105A700038F421912093F100615071090196F3CF20
:105A800021E0089709F020E08091E8008E7780936C
:105A9000E800C6CF2111C7CFD6CF80912309882334
:105AA00039F0853039F08091E80083FFCCCF04C015
:105AB00082E0089583E0089581E0089561157105FD
:105AC00029F42091E8002B772093E80061157105F7
:105AD00041F120912309222369F1253069F12091B8
