:10000000B2C00000CCC00000CAC00000C8C00000E0
:10001000C6C00000C4C00000C2C00000C0C00000D4
:10002000BEC00000BCC000000C94C108B8C00000F5
:10003000B6C00000B4C00000B2C00000B0C00000F4
:10004000AEC00000D7C10000AAC00000A8C00000D8
:10005000A6C00000A4C00000A2C00000A0C0000014
:100060009EC000009CC000009AC0000098C0000024
:1000700096C0000094C0000092C0000090C0000034
:100080008EC000008CC000008AC0000088C0000044
:1000900086C0000084C0000082C0000080C0000054
:1000A0007EC000007CC000007AC0000026034C0027
:1000B00055004600410020004B00650079006200B9
:1000C0006F006100720064002000440065006D0054
:1000D0006F00000018034400650061006E002000FE
:1000E000430061006D0065007200610000000403C0
:1000F000090409022200010100C0320904000001C4
:1001000003010100092111010001223F00070581BF
:10011000030800051201100100000008EB03422053
:1001200001000102000105010906A101050719E00E
:1001300029E71500250175019508810295017508CB
:10014000810105081901290595057501910295019F
:1001500075039101150025FF0507190029FF950674
:1001600075088100C00011241FBECFEFDAE0DEBFAA
:10017000CDBF11E0A0E0B1E0E6E1F7E102C00590FB
:100180000D92AA34B107D9F722E0AAE4B1E001C088
:100190001D92AC32B207E1F78BD10C94890B30CFB2
:1001A000CF93DF93D82FD8D2C82F282F30E0211536
:1001B0003105C9F3F9017E990AC0E152FE4FD0839F
:1001C00080E191E024D262E08EE201D203C0EB5ADA
:1001D000FE4FD0838C2F46D22FEF84E39CE021503A
:1001E00080409040E1F700C00000DF91CF9108957A
:1001F000CF93809123028430E1F72FEF89E698E1D5
:10020000215080409040E1F700C0000083E191E080
:10021000FED162E086E2DBD162E087E1D8D162E024
:1002200080E1D5D162E087E2D2D160E088E2CFD12F
:1002300082E291E0ECD162E08CE2C9D160E081E23F
:10024000C6D160E087E3C3D160E08FE1C0D160E058
:1002500088E2BDD186E291E0DAD160E087E3B7D1F0
:1002600060E087E3B4D160E087E3B1D160E088E289
:10027000AED182E391E0CBD160E087E3A8D160E02A
:1002800087E3A5D160E087E3A2D160E088E29FD157
:10029000C4E062E08C2F9BD160E08CE298D18C2F7F
:1002A0007FDF60E088E293D1CF5FCE3191F7CF91CD
:1002B00045C0E4E6F0E08081877F80838AE0809318
:1002C000810087E28093890080E180938800EFE6D7
:1002D000F0E0808182608083089527982F9A569855
:1002E0005E9A57985F9A24982C9A25982D9A23986D
:1002F0002B9A229A2A9A269A3E98469A219A2098D0
:10030000289A6E98769A5D98559A54985C9A5B9A5A
:10031000539A52985A9A599A519A589A509A729A4C
:100320006A9A85988D9A86988E9A87988F9A8C98D3
:10033000849A899A819A889A809A08957D9907C0AB
:100340007E9B05C07F9B03C085E090E00BC07D9B3A
:1003500007C07E9B05C07F9903C084E090E002C087
:1003600081E090E09093DE018093DD010895292FD4
:10037000332723303105B9F05CF42130310569F1C0
:100380002230310579F582E290E022EF30E02EC094
:1003900021323105E9F02232310521F58FE390E079
:1003A00026E231E023C099278130910541F0823067
:1003B000910541F0892BB1F4EEEEF0E005C0E4EDDB
:1003C000F0E002C0ECEAF0E0849190E09F010EC002
:1003D00089E090E024E031E009C082E190E024E18E
:1003E00031E004C080E090E020E030E0FA013183A9
:1003F000208308951F920F920FB60F9211242F930E
:100400003F934F935F936F937F938F939F93AF939C
:10041000BF93EF93FF938091990190919A01019678
:1004200090939A018093990180E091E082D30E9499
:10043000D80AFF91EF91BF91AF919F918F917F91DA
:100440006F915F914F913F912F910F900FBE0F9041
:100450001F90189584B7877F84BF88E10FB6F89402
:1004600080936000109260000FBE90E080E80FB6AD
:10047000F89480936100909361000FBE1ADF2DDF26
:100480002FE788E391E0215080409040E1F700C0E1
:10049000000054DF8091DD019091DE01029739F078
:1004A0008091DD019091DE01039709F04DC608951A
:1004B0001092DE011092DD01CDDF789411E0C4E0EE
:1004C000D0E080912302843011F4899801C0899A88
:1004D0008091DD019091DE0184309105A9F0853095
:1004E000910581F1019781F57D990CC062E084E06E
:1004F0006ED02FE788E391E0215080409040E1F7F3
:1005000000C0000084D1DDCF39B189B123B193B1EE
:100510008095881F8827881F36FB332730F93127BD
:10052000830F229521702127820F95FB992790F93F
:100530009127890F80FF03C0899A8898C2CF899834
:10054000889ABFCF55DEBDCFD093DE01C093DD01C9
:10055000B8CF089508950895089580E091E0D6D227
:10056000E2EEF0E0808184608083089580E091E095
:100570009BC180910E0190910F01009729F0019786
:1005800090930F0180930E0108950F931F93F9012B
:10059000A0919B01B0919C0112968C91828388233B
:1005A00021F080915401808301C01082E0919B0171
:1005B000F0919C0112821092540188E090E0F801C1
:1005C0009183808380E01F910F9108950895109288
:1005D0009A0110929901E0919B01F0919C01928106
:1005E00091110DC08283609354012FEF80E792E058
:1005F000215080409040E1F700C000000895209114
:10060000990130919A01243131054CF3EBCFEF92EF
:10061000FF920F931F93CF93DF938C01EC0109900E
:100620000020E9F72197C81BD90B7C01C701801B6B
:10063000910B8C179D077CF4F70181917F0180322B
:1006400029F090E00E94540BCD9702C08CE290E01C
:1006500062E0BDDFEBCFDF91CF911F910F91FF9053
:10066000EF900895CF93282F6AE0BED7C92F822F2D
:1006700090E08C1B910964E670E0C2D76AE070E0FC
:10068000BFD7862F60E0882311F0835E01C087E228
:100690009EDF2FEF80E792E0215080409040E1F70D
:1006A00000C0000060E0CC2319F08DE18C0F01C088
:1006B00087E28DDF2FEF80E792E02150804090406D
:1006C000E1F700C00000CF9108951F93CF93DF930F
:1006D0002E98479A72988FEC97E00197F1F700C037
:1006E0000000E1E0F0E020E030E040E050E060E0D9
:1006F00070E080E090E0C1E0D0E02E9A00000000C1
:100700000000000000002E98000000000000000023
:100710000000369912C0DE010E2E02C0AA0FBB1FC8
:100720000A94E2F71B2F110F110B2A2B3B2B412BA5
:10073000512B612B712B812B912B3196E033F105DD
:10074000E1F6729A000000000000000000004798E7
:10075000DF91CF911F910895DF92EF92FF920F9357
:100760001F93CF93DF93B1DFD22EE32EF42E052F0C
:10077000162FD72FC82FB92FE1E0F0E000905301DA
:1007800002C0EE0FFF1F0A94E2F79F2F990F990BFB
:100790002D2D2E233E2D3F234F2D4923502F5923FE
:1007A000612F69237D2F79238C2F89239B23A0E040
:1007B00042D731F480915201882329F0815001C041
:1007C00085E08093520180915201811117C02D2D37
:1007D0003E2D4F2D502F612F7D2F8C2F9B2FA0E072
:1007E0002AD741F020D7982F9093530195E090930A
:1007F000520105C0109253011092520180E0DF9126
:10080000CF911F910F91FF90EF90DF90089540E4FA
:1008100050E060E070E085E591E06BD740E450E0A7
:1008200060E470E08FED91E064D740E450E060E870
:1008300070E08DE991E05DD744E050E060EC70E05D
:1008400085E991E056D7E5E5F1E081E0E539F80783
:1008500031F080818F3F09F410823196F6CFEFEDB1
:10086000F1E082E0EF31F80731F080818F3F09F449
:1008700010823196F6CFEDE9F1E081E0ED3DF80729
:1008800031F080818F3F09F410823196F6CFE5E98F
:10089000F1E081E0E939F80731F080818F3F09F418
:1008A00010823196F6CF08956F927F928F929F9229
:1008B000AF92BF92CF92DF92EF92FF920F931F936E
:1008C000CF93DF9300D01F92CDB7DEB77C01ADB6DA
:1008D000BEB68091E80083FF02C1F701808190E0FD
:1008E00020912802309129022817390709F0F7C012
:1008F00080912502833009F499C030F4813071F081
:10090000823009F4D0C0EBC08A3009F4B4C08B3017
:1009100009F49DC0893009F0E2C04BC080912402E7
:10092000813A09F0DCC08DB69EB61A821982809198
:100930002602109127028B83F701408550E08DB786
:100940009EB7841B950B0FB6F8949EBF0FBE8DBF4C
:10095000EDB7FEB731966F0160E070E0CF01C2D60F
:100960004FEF410F8E010F5F1F4F9601BE016D5F6C
:100970007F4FC7010ADEF70186819781009721F03A
:10098000408550E0B601A5D61092E9008091E800BC
:10099000877F8093E8008B8181118093F1006981CA
:1009A0007A81C601CBD18091E8008B778093E800F3
:1009B00037C080912402813209F091C08DB69EB675
:1009C00000912A0210912B0270902602609027025B
:1009D0008DB79EB7801B910B0FB6F8949EBF0FBECC
:1009E0008DBFEDB7FEB731966F018091E800877F2C
:1009F0008093E800B801CF0102D28091E8008E77A1
:100A00008093E80021E0711001C020E030E0021B7B
:100A1000130B2C0D3D1D4FEF460D672DC701D6DD85
:100A20000FB6F8949EBE0FBE8DBE59C080912402B1
:100A3000813A09F054C08091E800877F8093E800F4
:100A40008091E80080FFFCCFF701818540C0809154
:100A50002402813209F043C08091E800877F8093AF
:100A6000E800E1D29091260281E0911101C080E07E
:100A7000F701818734C080912402813281F5809111
:100A8000E800877F8093E800CED280912602909183
:100A90002702882736E0969587953A95E1F7F70182
:100AA000958784871CC080912402813AC1F480918B
:100AB000E800877F8093E8008091E80080FFFCCF0A
:100AC000F70184859585969587959695879580936A
:100AD000F1008091E8008E778093E800A4D20FB6F1
:100AE000F894BEBE0FBEADBE0F900F900F90DF9179
:100AF000CF911F910F91FF90EF90DF90CF90BF901B
:100B0000AF909F908F907F906F900895FC013996E1
:100B100027E0DF011D922A95E9F721E0FC012187FA
:100B200024EF31E03587248723E0248361E00196B8
:100B30003DC25F926F927F928F929F92AF92BF92CF
:100B4000CF92DF92EF92FF920F931F93CF93DF9399
:100B500000D01F92CDB7DEB77C01ADB6BEB6809196
:100B60002302843009F08AC08091E4009091E5006E
:100B7000F701228533852817390709F47FC0818161
:100B80008F708093E9008091E80085FF77C08DB673
:100B90009EB6408550E08DB79EB7841B950B0FB66F
:100BA000F8949EBF0FBE8DBFEDB7FEB731966F01B3
:100BB0001B821A82198260E070E0CF0193D58E010A
:100BC0000F5F1F4F960140E0BE016D5F7F4FC70171
:100BD000DCDC682EF70184859585892B41F021E0C6
:100BE00086859785892B09F020E0722E01C0712C33
:100BF000F701068117810115110589F049815A8194
:100C0000B801C60159D555245394892B09F4512CA8
:100C1000F701408550E0B601C8015BD501C0512CF9
:100C200029813A81232BF1F0611004C0511002C0D8
:100C300070FE18C0F7018485958597878687818126
:100C40008F708093E9008B8181118093F10069811D
:100C50007A8140E050E0C60129D08091E8008E778B
:100C60008093E8008091E4009091E500F70193877C
:100C700082870FB6F8949EBE0FBE8DBE0FB6F89455
:100C8000BEBE0FBEADBE0F900F900F90DF91CF9103
:100C90001F910F91FF90EF90DF90CF90BF90AF909A
:100CA0009F908F907F906F905F900895CF92DF928A
:100CB000EF92FF920F931F93CF93DF937C018B01F1
:100CC000EA01D2D1811131C0209731F08881998118
:100CD000081B190BE80EF91EC12CD12C01151105AA
:100CE00019F18091E80085FD14C08091E8008E77AD
:100CF0008093E8005DD4209741F0888199818C0D24
:100D00009D1D9983888385E010C0AED1882331F37F
:100D10000CC0F70181917F018093F100015011090E
:100D2000FFEFCF1ADF0ADACF80E0DF91CF911F917A
:100D30000F91FF90EF90DF90CF90089520912A02BD
:100D400030912B022617370748F06115710539F4E9
:100D50002091E8002E772093E80001C0B901FC0142
:100D600020E061157105B9F180912302882309F40F
:100D700040C0853009F43FC08091E80083FD3DC04C
:100D80008091E80082FF06C08091E80082FF26C0C3
:100D900080E008958091E80080FFE3CF2091F30088
:100DA0008091F20090E0922B6115710551F088302E
:100DB000910538F421912093F10061507109019659
:100DC000F3CF21E0089709F020E08091E8008E77CA
:100DD0008093E800C6CF2111C7CFD6CF80912302E0
:100DE000882339F0853039F08091E80083FFCCCF3B
:100DF00004C082E0089583E0089581E008956115BC
:100E0000710529F42091E8002B772093E800611503
:100E1000710541F120912302222369F1253069F106
:100E20002091E80023FD23C02091E80022FFF2CFAB
:100E3000FC01CF014091F3002091F20030E0342B0F
:100E4000232B01F38091F1008193CF01615071094F
:100E50006115710571F7D6CF80912302882359F06F
:100E6000853059F08091E80080FFF6CF02C081E024
:100E7000089580E0089582E0089583E00895209128
:100E80002A0230912B022617370748F061157105A9
:100E900039F42091E8002E772093E80001C0B901D1
:100EA000FC0120E061157105C1F1809123028823C6
:100EB00009F441C0853009F440C08091E80083FD09
:100EC0003EC08091E80082FF06C08091E80082FF6A
:100ED00027C080E008958091E80080FFE3CF209153
:100EE000F3008091F20090E0922B6115710559F0AA
:100EF0008830910540F424912093F100319661509F
:100F000071090196F2CF21E0089709F020E0809165
:100F1000E8008E778093E800C5CF2111C6CFD5CFEA
:100F200080912302882339F0853039F08091E800E0
:100F300083FFCBCF04C082E0089583E0089581E071
:100F40000895982F973058F59093E900981739F045
:100F50007091EC002091ED005091F00003C0242F1F
:100F6000762F50E021FF19C03091EB003E7F309387
:100F7000EB003091ED003D7F3093ED003091EB00C0
:100F800031603093EB007093EC002093ED005093B0
:100F9000F0002091EE0027FF07C09F5FD3CF8F7036
:100FA0008093E90081E0089580E008950F931F93F6
:100FB000CF93DF93062FEC0110E0101771F19881A9
:100FC000992341F12C81E981FA817B81892F8F70EE
:100FD000873010F080E022C0223010F056E001C0CF
:100FE00052E028E030E040E02E173F0720F44F5F4A
:100FF000220F331FF9CF4295407F452B692F661F83
:101000006627661F90E4799F90011124622B99DF77
:10101000882301F31F5F2596D0CF81E0DF91CF9128
:101020001F910F9108958091240287FD05C0809142
:10103000E80080FF0EC012C08091E80082FD05C06C
:10104000809123028111F8CF08958091E8008B7779
:1010500008C0809123028111EACF08958091E800B1
:101060008E778093E80008958091E4009091E500E8
:1010700045E62091EC0020FF21C02091E80020FDF2
:1010800021C020912302222389F0253089F020916C
:10109000EB0025FD0FC02091E4003091E5002817FA
:1010A000390739F3415041F0C901E3CF82E0089597
:1010B00083E0089581E0089584E008952091E80098
:1010C00022FFDFCF80E008950F931F93CF93DF932C
:1010D0004BD052D0C8EDD0E088818F77888388814B
:1010E0008068888388818F7D888319BC1092230251
:1010F00010921F02109221021092200200EE10E0C6
:10110000F80180818B7F808388818160888342E0C1
:1011100060E080E016DFE1EEF0E080818E7F80838A
:10112000E2EEF0E08081816080838081886080834E
:10113000F80180818E7F8083888180618883DF9140
:10114000CF911F910F910895E8EDF0E080818F7E9F
:101150008083E7EDF0E080818160808384E082BF5E
:1011600081E080932202B0CFE8EDF0E080818E7FB5
:1011700080831092E20008951092DA001092E1004C
:1011800008951F920F920FB60F9211242F933F9341
:101190004F935F936F937F938F939F93AF93BF937F
:1011A000EF93FF938091E10082FF0AC08091E200FB
:1011B00082FF06C08091E1008B7F8093E100D9D946
:1011C0008091DA0080FF1BC08091D80080FF17C09B
:1011D0008091DA008E7F8093DA008091D90019BC6B
:1011E00080FF0AC082E089BD09B400FEFDCF81E026
:1011F00080932302AED903C010922302ABD9809111
:10120000E10080FF18C08091E20080FF14C080914F
:10121000E2008E7F8093E2008091E2008061809303
:10122000E2008091D80080628093D80019BC85E0EC
:101230008093230290D98091E10084FF2EC0809199
:10124000E20084FF2AC019BC82E089BD09B400FE17
:10125000FDCF8091D8008F7D8093D8008091E100F0
:101260008F7E8093E1008091E2008F7E8093E20088
:101270008091E20081608093E20080911F028823C8
:1012800011F084E007C08091E30087FF02C083E093
:1012900001C081E0809323025FD98091E10083FF48
:1012A00022C08091E20083FF1EC08091E100877F11
:1012B0008093E10082E08093230210921F028091CC
:1012C000E1008E7F8093E1008091E2008E7F809329
:1012D000E2008091E20080618093E20042E060E001
:1012E00080E02FDE64D1FF91EF91BF91AF919F918C
:1012F0008F917F916F915F914F913F912F910F90BF
:101300000FBE0F901F9018951F93CF93DF93CDB70B
:10131000DEB7AA970FB6F894DEBF0FBECDBFE4E2EA
:10132000F2E08091F100819322E0EC32F207C9F7FC
:101330001DD98091E80083FF22C190912402809101
:101340002502853009F477C030F4813081F168F0EE
:10135000833069F114C1883009F4E2C0893009F49E
:10136000F1C0863009F00BC188C0903881F0923806
:1013700009F005C1809128028F708093E900809167
:10138000EB0085FB882780F91092E90006C0809168
:10139000200290912102911182609091E800977F44
:1013A0009093E8008093F1001092F100C4C0292FBF
:1013B0002D7F09F0E4C0992319F0923061F0DFC06D
:1013C00090912602913009F0DAC0833009F090E064
:1013D000909321022AC090912602911126C020915B
:1013E00028022F7009F4CBC02093E9009091EB0004
:1013F00090FF1BC0833021F48091EB00806213C00A
:101400008091EB0080618093EB0081E090E0022E00
:1014100001C0880F0A94EAF78093EA001092EA006C
:101420008091EB0088608093EB001092E90080913E
:10143000E800877F83C09111A2C0109126021F7718
:101440008091E3008078812B8093E3008091E80015
:10145000877F8093E800E7DD8091E80080FFFCCF84
:101460008091E30080688093E300112311F083E012
:1014700001C082E08093230282C09058923008F02D
:101480007EC080912602909127028C3D23E0920736
:1014900071F583E08A838AE289834FB7F894DE018D
:1014A000139620E03EE051E2E32FF0E05093570026
:1014B000E49120FF03C0E295EF703F5FEF708E2F45
:1014C00090E0EA3010F0C79601C0C0968D939D93CE
:1014D0002F5F243149F74FBF8091E800877F8093C9
:1014E000E8006AE270E0CE01019628DC13C0AE018C
:1014F0004F5F5F4F609128020E94B701009709F487
:101500003EC02091E800277F2093E800BC0189813C
:101510009A81B5DC8091E8008B778093E8002FC03A
:10152000903869F58091E800877F8093E80080918A
:101530001F028093F1008091E8008E778093E8008D
:1015400072DD1DC091111BC0909126029230B8F43B
:101550008091E800877F8093E80090931F0263DD0D
:1015600080911F02811104C08091E30087FF02C0B7
:1015700084E001C081E0809323020E94AD0280914B
:10158000E80083FF0AC08091E800877F8093E8002D
:101590008091EB0080628093EB00AA960FB6F894DE
:1015A000DEBF0FBECDBFDF91CF911F91089508958B
:1015B000CF93809123028823A9F08091E9008F7056
:1015C0009091EC0090FF02C090E801C090E0C92F1C
:1015D000C82B1092E9008091E80083FD95DECF7062
:1015E000C093E900CF910895991B79E004C0991F39
:1015F000961708F0961B881F7A95C9F7809508956D
:1016000097FB072E16F4009406D077FD08D01FD064
:1016100007FC05D03EF4909581959F4F08957095F5
:1016200061957F4F089527D085FF0895B901CA01BC
:1016300022D0805E08950024A7FD00942A1730056B
:101640004005500560057005800590050895AA1BAA
:10165000BB1B51E107C0AA1FBB1FA617B70710F09D
:10166000A61BB70B881F991F5A95A9F780959095CF
:10167000BC01CD01089506D084FF0895CB0102D0AE
:10168000805F0895AA27992329F4A85F982B11F465
:1016900080E10895903118F4AD5F9295A395990F6C
:1016A000E8F78A2F992708959111089581568A5154
:1016B00008F4805285580895FB01DC0104C08D9127
:1016C0000190801921F441505040C8F7881B990BB4
:1016D0000895FB01DC0102C001900D924150504081
:1016E000D8F70895DC0101C06D9341505040E0F7F8
:1016F0000895DC01CB01FC01F999FECF06C0F2BDD3
:10170000E1BDF89A319600B40D9241505040B8F7BF
:061710000895F894FFCFDC
:101716000081080000014A010800000000000000E6
:10172600464E005553422054595045575249544548
:1017360052005645520043414C4942524154494E8B
:101746004700545950452054484520464F4C4C4F6D
:0A17560057494E47204B45595300F8
:00000001FF
