S01A00005553422054797065777269746572205032532E73726563CC
S11300001CC2000037C2000035C2000033C2000029
S113001031C200002FC200002DC200002BC200001C
S113002029C2000027C200000C94FB2D23C200004B
S113003021C200001FC200001DC200001BC200003C
S113004019C200000C94F82015C2000013C200006D
S113005011C200000FC200000DC200000BC200005C
S113006009C200000C9454200C94822003C20000A6
S113007001C20000FFC10000FDC10000FBC100007F
S1130080F9C10000F7C10000F5C10000F3C1000090
S1130090F1C10000EFC10000EDC10000EBC10000A0
S11300A0E9C1000097C70000E5C100000D534554A5
S11300B054494E4753205341564544210D000D49A0
S11300C0474E4F524520454E544552204B455920EA
S11300D05748454E205350414345424152204953CD
S11300E02048454C443F0D000D4E4F572053455476
S11300F02052454544205245414354494F4E2054D3
S1130100494D452E2E2E0D000D4E4F57205345546C
S11301102044454C4159204245545745454E2044BE
S11301204F55424C45204B45592050524553534559
S1130130532E2E2E0D000D4E4F5720534554204B59
S113014045592052454C454153452054494D452E6F
S11301502E2E0D005052455353204354524C2041EF
S11301604E4420414C5420544F20534554204B4579
S113017059205245414354494F4E2054494D452E30
S11301802E2E0D00505245535320434D44204B45D1
S11301905920544F20434F4E54494E55452E2E2E30
S11301A00D0041444A555354494E47204B4559206C
S11301B053454E53495449564954592E0D004E4FF8
S11301C02048414C4C204546464543542053454E17
S11301D0534F522044455445435445442E0D004644
S11301E049524D4C5920505245535320414E5920A9
S11301F04B455920544F2043414C494252415445A8
S11302002048414C4C204546464543542053454ED6
S1130210534F522E2E2E0D004241434B5350414317
S11302204500454E544552005350414345424152C6
S1130230002028464F5220555342204D4F44452913
S113024020002028464F52205344204D4F44452936
S113025020004552524F522E2E2E534849465420C8
S11302604D55535420424520412052454544205386
S113027057495443482E0D0054595045205448457D
S113028020464F4C4C4F57494E47204B4559532E0F
S11302902E2E0D0043414C4942524154494E472EA3
S11302A02E2E0D00534420434152442053544F52A8
S11302B0414745204D4F44450D00555342204B4581
S11302C059424F4152442F434152442052454144E4
S11302D04552204D4F44450D004C49474854204D4C
S11302E04F44452028534420434152442052454121
S11302F04445522044495341424C4544290D00424F
S11303004C5545544F4F5448204B4559424F415248
S113031044204D4F44450D0044454641554C54201E
S113032053455454494E473A20004649524D57418B
S113033052452056455220352E300D00555342204B
S1130340545950455752495445522028544D290D6B
S1130350003003550053004200200054007900701F
S11303600065007700720069007400650072002067
S1130370004B006500790062006F00610072006448
S11303800000002603550053004200200054005989
S113039000500045005700520049005400450052E7
S11303A00020004C004C0043000000040309040931
S11303B00239000201008007090400000208065007
S11303C000070583024000050705040240000509F3
S11303D00401000103010100092111010001223F70
S11303E00007058103080005120110010000000840
S11303F0EB03612086000102DC0105010906A1016D
S1130400050719E029E71500250175019508810202
S113041095017508810105081901290595057501DE
S11304209102950175039101150025FF0507190037
S113043029FF950675088100C00011241FBECFEF67
S1130440DAE0DEBFCDBF12E0A0E0B1E0E6E8F8E616
S113045002C005900D92AC3EB107D9F729E0ACEE8D
S1130460B2E001C01D92AD31B207E1F70E946922EA
S11304700C944134C5CD1F93CF93DF931F92CDB716
S1130480DEB7182F76988FE19EE40197F1F700C04C
S113049000008EEF69830E94E32082E00E94E32043
S11304A06981862F0E94E320812F0E94E32087E444
S11304B00E94E3208EEF0E94E32080E00F90DF9102
S11304C0CF911F910C94E3208F982FE788E391E05C
S11304D0215080409040E1F700C000008F9A2FEF38
S11304E084E39CE0215080409040E1F700C000008C
S11304F076988FE097E20197F1F700C00000089525
S1130500E3CFCF932FE788E391E0215080409040E0
S1130510E1F700C000000E94C520C82F0E94C5203A
S11305200E94C5200E94C52081E0C33419F0C13463
S113053009F080E0CF9108950F931F93CF93DF9339
S113054000D0CDB7DEB789839A830E94DE208981EB
S1130550082F9A81192FF80181918F01882319F0AE
S11305600E94E320F8CF8DE00E94E3200F900F90CB
S1130570DF91CF911F910F91C4CF0E94DE2084E2BE
S11305800E94E32084E20E94E32084E20E94E320AC
S1130590B8CFCF9399DFC5E0F0DF2FEF31EE94E0D1
S11305A0215030409040E1F700C00000C15019F0E4
S11305B0882391F307C0811105C08AE08093CF0698
S11305C080E045C089E691E0B7DF2FEF39E688E1A6
S11305D0215030408040E1F700C000008EE691E0F9
S11305E0ABDFC82F86E791E0A7DFC8238EE791E051
S11305F0A3DFC82383E891E09FDFC8238BE891E061
S11306009BDFC82380E991E097DFC82388E991E064
S113061093DFC82384EA91E08FDFC8238BEA91E05B
S11306208BDFC82383EB91E087DFC82385EC91E05F
S113063083DFC8238AEC91E07FDF8C239FEF24E3E0
S11306403CE0915020403040E1F700C00000CF91E1
S11306500895CF93DF930E944E26D82F8FED91E01B
S11306600E94B9232FEF87EA91E621508040904001
S1130670E1F700C000000E944E26C82FD81307C01F
S11306808EEB91E00E94B9231092510609C08EECC2
S113069091E00E94592381E080935106C093CD05D7
S11306A06091510683E092E00E9438336091CD0559
S11306B084E092E00E94383381E0909151069111D8
S11306C001C080E0DF91CF9108952FEF81EE94E097
S11306D0215080409040E1F700C000000E94F024C7
S11306E090E00097D9F30895CF93DF93EB01FB01DA
S11306F0423031F4E153FA4F808383ED91E007C037
S1130700443061F4E053F74F808389ED91E00E9417
S1130710592362E08EE20E94222303C0EB57FA4F72
S113072080838C2F0E94C1232FEF84E39CE021500F
S113073080409040E1F700C00000DF91CF91089520
S1130740423021F4FB01E05FF94F05C042FD04C0D3
S1130750FB01E157F94F808308956F927F928F9246
S11307609F92AF92BF92CF92DF92EF92FF920F933C
S11307701F93CF93DF930E94B02680911409843095
S1130780E1F72FEF89E698E1215080409040E1F7AE
S113079000C000008CE393E00E94B9238AE293E056
S11307A00E94B9238DE092E00E942B33C82F88E188
S11307B093E00E94B923C23091F028F4C13091F43F
S11307C08AEB92E009C0C93029F0CD3059F489EDA3
S11307D092E002C08FEF92E00E94B92307C084EA3E
S11307E092E0FACF8CED91E00E94592384E992E0E3
S11307F00E94B92389B191E0829581708927809301
S1130800CE0589B186FB882780F9892780938005E6
S113081089B18095881F8827881F8093500683B1EB
S113082082958170892780938E067E9B12DF88E7EC
S113083092E00E94B92314E062E0812F0E942223F7
S113084060E08CE20E94222340DFEC010E94072436
S1130850082FDD27482F4D7FBE01812F45DF02FD84
S11308600BC0FE01E05FF94F8DE3810F8083C15718
S1130870D94F8DE5810F888360E088E20E942223AE
S11308801F5F1E31C9F6F9E0EF2EF2E0FF2EC0E043
S1130890D0E0F701D1907F0160E08D2D0E942223EA
S11308A060E08CE20E94222310DF8C010E94072466
S11308B0C82E1127482F4D7FB8018D2D15DFC2FC9E
S11308C010C0F801E157F94FDE01A150BE4F8C91E1
S11308D08083F801E05FF94FDE01AB50BE4F8C918D
S11308E0808360E088E20E9422232196CA30D105E9
S11308F081F683ED91E00E94592360E08CE20E942E
S11309002223E3DE9FEF980F983028F48093C705E5
S11309100E94C12304C082E592E00E94B92360E0F2
S113092088E20E9422231DE28EE2682E0FE39FE2FA
S1130930F92E2AE2E22E30E6D32E4EE7C42E5DE3F2
S1130940B52E6BE2A62E7BE3972EEAE38E2E1233AE
S113095009F45BC060E0812F0E94222360E08CE2F6
S11309600E942223B2DEEC010E940724782EDD27A8
S1130970482FBE01812FB8DE72FC43C0133341F40B
S1130980FE01E157F94F9082C05FD94F888239C088
S11309901E3241F4FE01E157F94FB082C05FD94FD6
S11309A0A8822FC0153341F4FE01E157F94FD082DC
S11309B0C05FD94FC88225C01D3241F4FE01E15702
S11309C0F94F1083C05FD94FE8821BC0183329F454
S11309D0FE01E157F94FF08207C0163349F4FE01D6
S11309E0E157F94F8CE28083C05FD94F088309C077
S11309F0173339F4FE01E157F94F6082C05FD94FD4
S1130A00688260E088E20E9422231F5F193309F0A4
S1130A109ECF62E08FE10E94222382E492E00E9452
S1130A20B92353DEEC010E940724BE017727482F27
S1130A3080E486DE8C2F0E94C12360E088E20E945D
S1130A40222362E08FE10E94222381E392E00E944C
S1130A50B9233BDEEC010E940724BE017727482F0F
S1130A608FE942DE60E088E20E94222362E088E3AC
S1130A700E94222382E492E00E94B92326DEEC0144
S1130A800E940724BE017727482F8FE359DE8C2F5D
S1130A900E94C12360E088E20E94222362E088E38E
S1130AA00E94222381E392E00E94B9230EDEEC012E
S1130AB00E940724BE017727482F88EB15DE60E0EB
S1130AC088E20E94222362E08EE90E94222360E0F1
S1130AD08CE20E942223F9DDEC010E940724182FE6
S1130AE082FD0DC0DD27482FBE018EE9FDDD412FBB
S1130AF0BE0181E225DE60E088E20E94222388E1D3
S1130B0092E00E94B92360E08CE20E942223DDDDA2
S1130B10EC010E940724182FDD27482FBE018AE22A
S1130B20E3DD12FD04C0C157D94F88E0888360E03B
S1130B3088E20E94222384EE91E00E94592360E01F
S1130B408CE20E942223C1DDEC010E940724BE0135
S1130B507727482F89E2C8DD60E088E20E942223DB
S1130B6088EE91E00E94592360E08CE20E942223E7
S1130B70ACDDEC010E940724182FDD27482FBE01AD
S1130B808BE2B2DD12FD09C0FE01E157F94F89E0A5
S1130B908083C05FD94F84E7888360E088E20E9445
S1130BA0222382E292E00E94B92360E08CE20E9458
S1130BB022238BDDEC01DD27FE01EB57FA4F88E29F
S1130BC080838C2F0E94C123FFEF24E38CE0F1503B
S1130BD020408040E1F700C00000C157D94F8DE0AC
S1130BE0888360E088E20E94222388E292E00E94E7
S1130BF0B92360E08CE20E94222367DDEC01DD274B
S1130C00FE01EB57FA4F8CE280838C2F0E94C123A4
S1130C109FEFE4E3FCE09150E040F040E1F700C0D6
S1130C200000C157D94F80E2888360E088E20E94C7
S1130C30222340E450E060E070E085E895E00E9403
S1130C404A3340E450E060E470E080ED98E00E94B4
S1130C504A3340E450E060E870E08FEC95E00E9495
S1130C604A3340E450E060EC70E08FE896E00E9484
S1130C704A3340E450E060E071E080E196E00E9495
S1130C804A336091C70585E092E00E943833609151
S1130C90CE0586E092E00E9438336091800587E0BB
S1130CA092E00E9438336091500688E092E00E94FE
S1130CB0383360918E0689E092E0DF91CF911F91E5
S1130CC00F91FF90EF90DF90CF90BF90AF909F90E7
S1130CD08F907F906F900C943833CF9381E092E0A3
S1130CE00E942B3380930F0682E092E00E942B3304
S1130CF08093830580E092E00E942B338093C605A5
S1130D00809114098430E1F72FEF89E698E12150AE
S1130D1080409040E1F700C0000082EA91E00E9428
S1130D20B92384E891E00E94B9237E99FECF84E53B
S1130D3091E00E94B92380910F060E94C12360E0D4
S1130D4088E20E9422237E9B15C07C990BC080916F
S1130D500F068F5F80930F060E94C12360E088E234
S1130D600E9422237D99EFCF80910F0681508093BA
S1130D700F06E3CF86E391E00E94B92380918305B7
S1130D800E94C12360E088E20E9422237E9B15C05A
S1130D907C990BC0809183058F5F809383050E94AB
S1130DA0C12360E088E20E9422237D99EFCF8091E5
S1130DB08305815080938305E3CF88E091E00E940E
S1130DC0B9238091C6050E94C12360E088E20E9495
S1130DD022237E9B15C07C990BC08091C6058F5F32
S1130DE08093C6050E94C12360E088E20E9422230A
S1130DF07D99EFCF8091C60581508093C605E3CFDE
S1130E0088EE90E00E94B9238091C5050E94C12319
S1130E1060E088E20E9422237E9B15C07C990BC06F
S1130E208091C5058F5F8093C5050E94C12360E052
S1130E3088E20E9422237D99EFCF8091C5058150DD
S1130E408093C505E3CF8EEB90E00E94B923809197
S1130E508105882319F08CEE91E002C080EF91E0C7
S1130E600E945923C1E07E9B15C07C9906C0109254
S1130E70810580EF91E00E9459237D9906C0C093BB
S1130E8081058CEE91E00E9459237C9BFECF7D9BD3
S1130E90FCCFE9CF6091C60580E092E00E94383330
S1130EA06091830582E092E00E94383360910F06DE
S1130EB081E092E00E9438336091C5058CE092E0B5
S1130EC00E943833609181058EE092E00E943833AD
S1130ED08CEA90E0CF910C94B923E4E6F0E08081B1
S1130EE0877F80838AE08093810087E280938900F2
S1130EF080E180938800EFE6F0E080818260808367
S1130F0008952098289A54985C9A56985E9A57980F
S1130F105F9A24982C9A2B9A23982B9A2A9A22988F
S1130F202A9A6A9A25982D9A299A2198299A599A3F
S1130F30519A55985B9A539A52985A9A84988C9AD3
S1130F4085988D9A86988E9A8F98879A479A3F9A11
S1130F508198899A769A6E9A469A3E9A2E9A269AF9
S1130F600895F8949FEF9093D1001092BF0098E0F9
S1130F709093CF009091C40091609093C40090919D
S1130F80C00090649093C0009091C00092609093D0
S1130F90C00090917200946090937200813069F067
S1130FA030F0823041F0833041F486E009C089E0BA
S1130FB08093C10002C087E003C08091C1008860B3
S1130FC08093C10010927F051092BF001092BE0062
S1130FD0789408951F920F920FB60F9211248F9355
S1130FE09F938091CF0090917F05911108C08F3F0E
S1130FF021F491E090937F0513C08F5F11C090910D
S11310007F05913069F481110AC09091C0009F7BE3
S11310109093C0001092C10010927F0501C08150CE
S11310208093CF009F918F910F900FBE0F901F90D0
S11310301895292F332723303105B9F05CF421307A
S1131040310569F12230310579F589E390E02FEA21
S113105033E02EC021323105E9F02232310521F589
S11310608FE390E02AEF33E023C099278130910584
S113107041F08230910541F0892BB1F4EBEAF3E0C1
S113108005C0E3E8F3E002C0E1E5F3E0849190E019
S11310909F010EC089E090E028ED33E009C082E1B1
S11310A090E028EE33E004C080E090E020E030E0FF
S11310B0FA01318320830895CF931092D00642E140
S11310C060E071E081EF92E00E94711881EF92E09C
S11310D00E942D1B81EF92E00E94701B42E160E0B0
S11310E071E081EF92E00E947118C82F4091FB02D9
S11310F05091FC026091FD027091FE0281EF92E03A
S11311000E94801B8C2FCF91089581EF92E00E9462
S11311102D1B81EF92E00C94701B41E067E272E0BA
S113112081E193E00E94291891E0811101C090E0CF
S1131130892F08958091ED029091EE02A091EF0223
S1131140B091F002892B8A2B8B2BC9F4A091130345
S113115020912303309124034091250350912603C9
S11311602250310941095109B0E00E947530609361
S1131170ED027093EE028093EF029093F00260917F
S1131180ED027091EE028091EF029091F0020895C9
S11311901F93CF93DF9300D0CDB7DEB782E0E1DEBB
S11311A0E0EDF6E001900020E9F73197E05DF640CC
S11311B0FA83E9834091FB025091FC026091FD02A5
S11311C07091FE0281EF92E00E94801B49815A8156
S11311D09E012F5F3F4F60ED76E081EF92E00E9429
S11311E09B19182F1092D00681EF92E00E942D1BBC
S11311F081E0111101C080E00F900F90DF91CF9139
S11312001F9108958ADF882321F08AE08093CF0616
S1131210089563E172E080E091E00E9432314CDF96
S11312206CE172E080ED96E00E943231B1DF6DDF57
S11312302FEF80E792E0215080409040E1F700C01A
S11312400000EDCFCF93DF93E0EDF6E001900020B6
S1131250E9F73197E05DF640E63F91E0F90708F0E1
S11312603FC08D3079F59091EC02DF01A053B94F66
S11312709F012F5F3F4F9D3021F090E29C93F90135
S11312801EC0EF01C153D94F9881AF014E5F5F4F2C
S1131290903271F488839AE09C93D901A053B94F9A
S11312A08C93DA01A053B94F9C93ED52F94F15C0BA
S11312B08C93F901E053F94F9AE09083FA01E053DB
S11312C0F94F0BC0883019F4E153F94F06C0DF0120
S11312D0A053B94F8C93EF52F94F10828093EC02D4
S11312E0DF91CF9108958F929F92AF92BF92CF9248
S11312F0DF92EF92FF920F931F93CF93DF93CDB7BB
S1131300DEB766970FB6F894DEBF0FBECDBF05DF1C
S113131081114EC08AE092E00E9433338C01003187
S113132087E2180710F000E010E028E2822E22E0A5
S1131330922E30E0A32E31E0B32E0F5F1F4F1F9388
S11313400F9388E2C82E82E0D82E9F928F9290E06D
S1131350E92E91E0F92EBF92AF920E943931BE017D
S11313606F5F7F4FC7010E941F1D0F900F900F905A
S11313700F900F900F90882301F38430C9F4B801C3
S11313808AE092E00E9461331F930F93DF92CF9221
S1131390FF92EF920E9439318FDE0F900F900F90E1
S11313A00F900F900F90811103C080E0DADD25C00B
S11313B08AE08093CF0666960FB6F894DEBF0FBE20
S11313C0CDBFDF91CF911F910F91FF90EF90DF90F0
S11313D0CF90BF90AF909F908F9008958337D1F0B6
S11313E01092CA05812F2EDF1D3009F4D1DE8FE95A
S11313F09FE00197F1F700C000000E940725182F15
S11314000E940724682F812F0E943F26182F8823CB
S113141071F3E4CF8091CA05882311F310E0E0CF83
S113142023B123B101970097D9F70895680F791F65
S1131430FC012191CF0127FF02C02A9A01C02A98FA
S1131440299A299826FF02C02A9A01C02A98299A23
S1131450299825FF02C02A9A01C02A98299A299816
S113146024FF02C02A9A01C02A98299A299823FFA6
S113147002C02A9A01C02A98299A299822FF02C0F8
S11314802A9A01C02A98299A299821FF02C02A9AE7
S113149001C02A98299A299820FF02C02A9A01C0DB
S11314A02A98299A29988617970711F608952A9A4F
S11314B0680F791F23B1299A299823FB222720F941
S11314C0220F1B992F5F299A2998220F1B992F5FAE
S11314D0299A2998220F1B992F5F299A2998220F5C
S11314E01B992F5F299A2998220F1B992F5F299AFC
S11314F02998220F1B992F5F299A2998220F1B994B
S11315002F5F299A2998FC012193CF01E617F70749
S113151089F608950F931F93CF93DF931F92CDB74E
S1131520DEB708E813E161E070E0CE010196BFDFA9
S113153089818F3F41F084E690E072DF0150110908
S11315400115110581F781E090E0012B11F480E091
S113155090E00F90DF91CF911F910F910895CF9359
S1131560DF931F92CDB7DEB7599A61E070E0CE01E8
S113157001969DDF0F90DF91CF910895CF93DF9374
S113158000D01F92CDB7DEB7599861E070E0CE016C
S113159001968DDFBFDF009731F48A839B83DFDF01
S11315A08A819B8102C081E090E00F900F900F90A0
S11315B0DF91CF910895CF92DF92EF92FF920F9334
S11315C01F93CF93DF9300D0CDB7DEB77C016B01BF
S11315D008EE13E061E070E0CE01019668DF8981D6
S11315E08F3F71F089818E3FA1F4B601C7015FDF9F
S11315F062E070E0CE0101965ADF81E090E00BC01A
S113160084E690E00DDF015011090115110511F771
S1131610E9CF80E090E00F900F90DF91CF911F9180
S11316200F91FF90EF90DF90CF900895DF92EF92AB
S1131630FF920F931F93CF93DF93CDB7DEB7279716
S11316400FB6F894DEBF0FBECDBF182F042FF52EB2
S1131650E62ED72E87FF08C040E050E0BA0187E3AA
S1131660E5DF823090F51F771C3051F4812F8064C0
S11316708983DA82EB82FC820D83112359F006C040
S11316806EDF7CDF892B91F78FEF1FC0183021F0BC
S113169081E003C085E901C087E88E8366E070E0DD
S11316A0CE010196C3DE1C3029F461E070E0CE0166
S11316B00796FDDE1AE061E070E0CE010796F7DEE2
S11316C08F8187FF02C01150B1F727960FB6F894A7
S11316D0DEBF0FBECDBFDF91CF911F910F91FF9061
S11316E0EF90DF900895FF920F931F93CF93DF93B2
S11316F000D0CDB7DEB78C01F62E0CDF009719F1C0
S1131700F98261E070E0CE01019690DE8DEFF8166B
S1131710C1F060E072E0C80189DE62E070E0CE01F1
S11317200196C5DE61E070E0CE010196C0DE8981DC
S11317308F7131E020E0853009F030E0832F922F63
S113174002C081E090E00F900F90DF91CF911F9144
S11317500F91FF900895811103C080910D010895A8
S113176081E00895EF92FF920F931F93CF93DF933D
S113177000D000D0CDB7DEB7811176C080E197E20A
S11317804FDE519A599A2998219A2998229A2B9A8C
S11317901AE061E070E0CE01019689DE1150C9F7CC
S11317A040E050E0BA0180E041DF813009F051C0EF
S11317B04AEA51E060E070E088E038DF813001F50A
S11317C064E070E0CE01019672DE8B81813009F015
S11317D040C08C818A3A09F03CC008EE13E040E036
S11317E050E060E070E489EA21DF882359F188EE53
S11317F093E016DE015011090115110581F729C086
S113180040E050E0BA0189EA11DF823028F499EA15
S1131810E92E22E0F22E04C0EE24E394FF24F39494
S113182008EE13E040E050E0BA018E2DFFDE88237D
S113183059F188EE93E0F4DD015011090115110509
S113184089F707C040E050E0BA018AE3EFDE88235D
S113185069F0F12CF0923F0511E0F11010E01093C3
S11318600D017DDE812F19C083E017C064E070E0B4
S1131870CE0101961CDE898186FF03C03CE0F32E75
S1131880E9CF84E0F82EE6CF40E052E060E070E07B
S113189080E1CCDE8111DDCFDDCF0F900F900F9072
S11318A00F90DF91CF911F910F91FF90EF900895CA
S11318B0FF920F931F93CF93DF93EB01BA01A9011A
S11318C0811103C080910D0101C081E080FD31C010
S11318D080913F0583FD07C0A9E0440F551F661F93
S11318E0771FAA95D1F70230110518F0F2E1FF2E07
S11318F002C0E1E1FE2E8F2D99DE811114C060E05B
S113190072E0CE0158DE892B31F0DE5F01501109FF
S113191001151105A1F782E1F81205C040E050E07D
S1131920BA018CE083DE1BDE81E0012B19F480E038
S113193001C083E0DF91CF911F910F91FF90089533
S1131940CF92DF92EF92FF920F931F93CF93DF9387
S1131950EB0169017A01811103C080910D0101C07D
S113196081E080FD45C080913F0583FD07C0B9E05B
S1131970CC0CDD1CEE1CFF1CBA95D1F7013011050F
S113198089F4B701A60188E151DE81112BC06EEF05
S1131990CE01A9DE31E020E0892B09F030E0032FED
S11319A0122F20C0867029F0A80160E070E087E95A
S11319B03DDEB701A60189E139DE811113C06CEF68
S11319C0CE0191DE892B31F0DE5F01501109011542
S11319D01105A9F76DEF80E090E085DE892B11F405
S11319E001E010E0BCDD81E0012B19F480E001C0CE
S11319F083E0DF91CF911F910F91FF90EF90DF90E3
S1131A00CF9008950F931F93CF93DF93CDB7DEB795
S1131A1060970FB6F894DEBF0FBECDBF8A01811167
S1131A2003C080910D0101C081E080FD7AC0613066
S1131A3079F040F0633009F070C080E890E0A0E0F5
S1131A40B0E064C09BDD11E0892B09F467C063C07A
S1131A5040E050E0BA0189E0E9DD882311F011E0AB
S1131A605DC060E170E0CE010196A5DD892BB9F37C
S1131A7099819295969596959370888529855A852E
S1131A809130D9F48F7390E0A0E0B0E0DC019927A5
S1131A9088270196A11DB11D30E0322F2227250F82
S1131AA0311D820F931FA11DB11DEAE0880F991FFC
S1131AB0AA1FBB1FEA95D1F729C022952695269522
S1131AC02370F4E08F9FC0011124820F911D0196B1
S1131AD02F81237030E0322F2227330F330F820FF0
S1131AE0931FA0E0B0E02E812F704B85441F442744
S1131AF0441F240F352F3370330F230F275004C096
S1131B00880F991FAA1FBB1F2A95D2F7F80180835B
S1131B109183A283B38310E001C014E020DD812F00
S1131B2001C083E060960FB6F894DEBF0FBECDBF50
S1131B30DF91CF911F910F910895CF93DF93DB0134
S1131B40FC019A012230310538F0CD91DD91C19329
S1131B50D19322503109F6CFDA01AE7FFB01EA0FAF
S1131B60FB1FA80FB91F417055274E0F5F1FE417C5
S1131B70F50719F081918D93FACFDF91CF910895F4
S1131B80CF93DF93EB01FB013996DC011E964D9157
S1131B905D916D917C915197452B462B472BA1F17B
S1131BA052962D913C915397D90180E090E05EE2EA
S1131BB001964D91403251F0453009F445EE89309B
S1131BC0910511F450833196408331968B30910501
S1131BD079F7D9011B968C911B9788875C964D9158
S1131BE05D916D917C915F97488359836A837B8370
S1131BF058968D919C9159979D838C8356968D917F
S1131C009C9157979F838E831082DF91CF91089583
S1131C10FC012081318121153105B1F0F901AF01B9
S1131C206191613270F06A33D1F7F90161914E1715
S1131C305F0751F4603341F42E5F3F4FFC01318361
S1131C40208380E090E008958FEF9FEF0895009740
S1131C50C1F0DC01ED91FC911197309791F0208156
S1131C60222379F02681378112968D919C911397C6
S1131C702817390731F481816EDD80FF04C083E0C9
S1131C80089589E0089580E008954F925F926F92DD
S1131C907F92AF92BF92CF92DF92EF92FF920F9317
S1131CA01F93CF93DF93EC018C81882309F443C005
S1131CB04AA45BA46CA47DA46E018EE2C80ED11C60
S1131CC001E010E0A3019201B601898139DE81119E
S1131CD030C01C828E8D9F8DA8A1B9A1B301A20131
S1131CE0481B590B6A0B7B0B8E899F89A88DB98D74
S1131CF0481759076A077B07F0F4AB80B12CE12C35
S1131D00F12CC5018E199F090297A8F08E899F892D
S1131D10A88DB98D480E591E6A1E7B1E01E010E085
S1131D20A3019201B60189810BDE8FEFE81AF80A4C
S1131D30E8CF81E001C080E0DF91CF911F910F9146
S1131D40FF90EF90DF90CF90BF90AF907F906F9017
S1131D505F904F900895BF92CF92DF92EF92FF92DF
S1131D600F931F93CF93DF93EC016A017B018AA544
S1131D709BA5ACA5BDA5481759076A077B07D9F0F1
S1131D80CE0183DFB82E811117C001E010E0A70156
S1131D909601BE01625D7F4F89818ADD882331F01F
S1131DA0BB24B394CC24CA94DC2C7601CAA6DBA64B
S1131DB0ECA6FDA601C0B12C8B2DDF91CF911F9114
S1131DC00F91FF90EF90DF90CF90BF9008950F9305
S1131DD01F93CF93DF93EC011C820FEF1FEF980149
S1131DE00AA71BA72CA73DA7B6DF811122C0FE01BD
S1131DF0E45DFD4F8081918185359A4AE1F4E85C88
S1131E00F140408151816281738177274634514486
S1131E106445710591F0C058DF4F488159816A814A
S1131E207B81772781E0463451446445710531F460
S1131E3004C083E003C082E001C080E0DF91CF9161
S1131E401F910F9108952F923F924F925F926F923C
S1131E507F928F929F92AF92BF92CF92DF92EF9236
S1131E60FF920F931F93CF93DF93CDB7DEB76D9798
S1131E700FB6F894DEBF0FBECDBF6C01CB01B42EFC
S1131E80D6011D921C92C4DE7C0197FD1DC2FC018B
S1131E90EE0FFF1FEE5BFA4F008111810115110552
S1131EA009F414C2F60111830083D8018C918823AC
S1131EB059F011968C914FDC80FD06C0BB2009F4CB
S1131EC007C282FD09C204C2F8011082E1828E2D8C
S1131ED049DC80FDFFC1BB2011F082FDFDC140E063
S1131EE050E0BA01C80173DF813009F03FC0FE0140
S1131EF0319620E030E0C801820F931FDC01A0512D
S1131F00BE4F4C91442339F014968D919D910D90C0
S1131F10BC91A02D03C080E090E0DC0181939193FB
S1131F20A193B193205F3F4F2034310521F76E0117
S1131F30F1E1CF0ED11C9E012F5F3F4F7901D701F4
S1131F404D905D906D907D907D014114510461042C
S1131F50710439F0B301A201C80139DF811102C053
S1131F600FC082E0EC14FD0451F703C0412C512C46
S1131F703201833009F4B2C1882311F08DE0AFC17E
S1131F80F80181AD92AD81159240C1F7F801EC5B87
S1131F90FF4FC080D180E12CF12CC114D104E104A5
S1131FA0F10429F43E96C080D180E280F380D80108
S1131FB05696CD92DD92ED92FC925997DE964C9115
S1131FC0DE9713964C9313978FEF840F8230B0F6FD
S1131FD0DB96EC91DB97E98B1296EC931297EE2348
S1131FE069F22E2F30E0C901019782239323892BB4
S1131FF029F6F801FF962080318019963C922E92A2
S11320001897C1018F709927892B09F0B7CF3296A1
S113201080809180A12CB12C81149104A104B1047D
S113202029F43D9680809180A280B380D801DC960B
S1132030ED91FC91DD97309709F4A0CFA42FB0E087
S1132040A70196010E9475306E8B7F8B888F998FC4
S11320509F0140E050E02A8F3B8F4C8F5D8FC10180
S113206064E0969587956A95E1F7280F391F411D1D
S1132070511D8E899F89A88DB98D280F391F4A1F3C
S11320805B1F2A8B3B8B4C8B5D8B82169306A406BD
S1132090B50608F473CFC501B401621B730B840B3E
S11320A0950BE9892E2F30E040E050E00E94533038
S11320B0211531054105510509F460CF263FFFE0A4
S11320C03F074105510548F0263F8FEF380741058A
S11320D0510530F492E0998B05C0A1E0A98B02C0B0
S11320E0B3E0B98B49015A01E2E08E0E911CA11CA8
S11320F0B11CD80152968D929D92AD92BC92559787
S1132100F801428E538E648E758E8A8D9B8DAC8DB4
S1132110BD8D840D951DA61DB71D868F978FA0A319
S1132120B1A34A895B896C897D89440D551D661D5F
S1132130771D46A357A360A771A7F989F330C9F4A3
S1132140232809F01BCFF801E65AFF4F80819181C3
S1132150A281B381F80182A393A3A4A3B5A3C5016B
S1132160B40152E0660F771F881F991F5A95D1F763
S11321702DC0232809F402CF2E893F89488D598D1B
S1132180820F931FA41FB51FF80182A393A3A4A3D6
S1132190B5A3F989F23039F4C501B401660F771F8C
S11321A0881F991F13C0A3E0B0E0A50194010E9409
S11321B07530969587957795679521E082229924C5
S11321C0AA24BB24680D791D8A1D9B1DDC01CB014B
S11321D081509E4FAF4FBF4F29E0B695A795979575
S11321E087952A95D1F7C816D906EA06FB0608F49E
S11321F0C5CE8FEF9FEFDC01F80186879787A08B10
S1132200B18B82879387A487B58780E88583F98912
S1132210F33009F048C0F801E25AFF4F8081918100
S1132220019709F040C0B301A2014F5F5F4F6F4FA8
S11322307F4FC80190DD811136C0D80115961C92DC
S1132240F801E45DFD4F8081918185359A4A59F505
S1132250F80186A597A5A0A9B1A982359245A14602
S1132260B14409F5F801EE5EFD4F80819181A281B0
S1132270B38182379247A144B146A9F43496808150
S11322809181A281B381F80186879787A08BB18B56
S1132290E65EFD4F80819181A281B381F80182873E
S11322A09387A487B587E989D801EC938091400589
S11322B090914105019690934105809340051796AE
S11322C09C938E93169704C08BE009C08CE007C0E2
S11322D080E005C083E003C08AE001C081E06D9620
S11322E00FB6F894DEBF0FBECDBFDF91CF911F9123
S11322F00F91FF90EF90DF90CF90BF90AF909F90A1
S11323008F907F906F905F904F903F902F900895A3
S11323100F931F93CF93DF93EC01B7DC982F8111B8
S113232058C08881833009F04BC08D81813009F019
S113233047C0CE018E96FC019E01225D3D4FE217FF
S1132340F30711F01192FBCF25E53AEAFE01E45DB3
S1132350FD4F3183208342E552E561E671E44EA7E7
S11323605FA768AB79AB42E752E761E471E67A971D
S113237040835183628373834E855F85688979893D
S1132380349640835183628373834A855B856C856D
S11323907D85349640835183628373832A8D3B8D7C
S11323A04C8D5D8D2F5F3F4F4F4F5F4F2AA73BA74B
S11323B04CA75DA701E010E0BC018981C1DA1D8250
S11323C040E050E060E089811DDB91E0811101C0B3
S11323D090E0892FDF91CF911F910F9108950F9372
S11323E01F93FC0142505109610971090289138943
S11323F024893589025011092109310940175107EF
S11324006207730778F4A281B0E09A01AB010E94DD
S1132410753006A117A120A531A5600F711F821F79
S1132420931F03C060E070E0CB011F910F910895EA
S1132430AF92BF92CF92DF92EF92FF920F931F93CE
S1132440CF93DF93EC016A017B01423051056105B2
S1132450710508F4A2C08A899B89AC89BD89481793
S113246059076A077B0708F098C08881823009F40D
S113247049C0833009F468C0813009F08EC05A0124
S1132480B694A794A40EB51EC501892F99278695E5
S11324904E8D5F8D68A179A1480F591F611D711D73
S11324A0CE0159DC882321F06FEF7FEFCB0179C097
S11324B085010F5F1F4FF501F170EC0FFD1FB6A4EE
S11324C0C801892F992786954E8D5F8D68A179A1C2
S11324D0480F591F611D711DCE013DDC8111E4CFF0
S11324E0F801F170EC0FFD1F86A56B2D70E0782BC1
S11324F0C0FE06C0C4E076956795CA95E1F721C091
S11325007F701FC0452F562F672F77278E8D9F8D85
S1132510A8A1B9A1480F591F6A1F7B1FCE011BDC5C
S11325208111C2CFCC0CDD1CEE1CFF1CE894C0F85A
S113253081E0D822EE24FF24FE01EC0DFD1D66A5EA
S113254077A580E090E02DC0F7E0769567955795E4
S11325504795FA95D1F78E8D9F8DA8A1B9A1480F03
S1132560591F6A1F7B1FCE01F6DB81119DCFE2E06C
S1132570CC0CDD1CEE1CFF1CEA95D1F78CEFC822B5
S113258081E0D822EE24FF24FE01EC0DFD1D66A59A
S113259077A580A991A99F7004C061E070E080E0F4
S11325A090E0DF91CF911F910F91FF90EF90DF901A
S11325B0CF90BF90AF900895AF92BF92CF92DF9229
S11325C0EF92FF920F931F93CF93DF93EC018B0154
S11325D07D836C83CE80DF80E884F98481E0C81633
S11325E0D104E104F10411F482E080C0E881F981AE
S11325F082899389A489B589C816D906EA06FB0697
S113260098F7C114D104E104F104B9F48081833052
S113261041F482A193A1A4A1B5A10097A105B1059C
S113262051F48085918508171907F0F662A173A10A
S113263084A195A12FC06C017D01A28080E1A89E98
S11326405001112488819981B701A6010A151B053F
S113265000F1EEDE6B017C018FEFC816D806E806A8
S1132660F80609F442C082E0C816D104E104F1047A
S113267008F4BACFE881F98182899389A489B5895C
S1132680C816D906EA06FB0608F0AECF0A191B09DC
S1132690D9CFA5DECA86DB86EC86FD866115710579
S11326A08105910509F4A0CF980154E0369527954A
S11326B05A95E1F7DC01CB01820F931FA11DB11DD7
S11326C08E879F87A88BB98B0F70112765E0000F49
S11326D0111F6A95E1F7025D1F4F88819981800F70
S11326E0911F9B8B8A8B80E001C081E0DF91CF91A9
S11326F01F910F91FF90EF90DF90CF90BF90AF901C
S113270008954F925F926F927F928F929F92AF92B1
S1132710BF92CF92DF92EF92FF920F931F93CF93CA
S1132720DF93EC016A017B01280139014230510534
S11327306105710508F4C5C08A899B89AC89BD8986
S1132740481759076A077B0708F0BBC088818230A5
S113275009F45FC0833009F47DC0813009F0B1C051
S11327605A01B694A794A40EB51EC501892F9927C2
S113277086954E8D5F8D68A179A1480F591F611D03
S1132780711DCE01E8DA81119DC085010F5F1F4FD5
S1132790F501F170EC0FFD1F4601570181E088221D
S11327A09924AA24BB24C0FE08C026A52F7030E1BA
S11327B0439EC0011124282B01C0242D26A781E0AB
S11327C08C834E8D5F8D68A179A1C801892F9927CB
S11327D08695480F591F611D711DCE01BCDA811108
S11327E071C0F801F170EC0FFD1F89288A288B282D
S11327F049F0B4E07694679457944794BA95D1F726
S1132800942D05C096A5907F252D2F70922B96A709
S113281055C0452F562F672F77278E8D9F8DA8A1E2
S1132820B9A1480F591F6A1F7B1FCE0194DA811189
S113283049C0CC0CDD1CEE1CFF1CE894C0F891E0F0
S1132840D922EE24FF24F601BE96EC0FFD1F51821F
S1132850408234C0E7E07695679557954795EA95A9
S1132860D1F78E8D9F8DA8A1B9A1480F591F6A1F5A
S11328707B1FCE0170DA811125C072E0CC0CDD1C07
S1132880EE1CFF1C7A95D1F73CEFC32231E0D32232
S1132890EE24FF24F601BE96EC0FFD1F408151810A
S11328A062817381442755276627707F44295529FF
S11328B066297729408351836283738391E09C83E3
S11328C001C082E0DF91CF911F910F91FF90EF90B3
S11328D0DF90CF90BF90AF909F908F907F906F903C
S11328E05F904F9008954F925F926F927F928F9274
S11328F09F92AF92BF92CF92DF92EF92FF920F938B
S11329001F93CF93DF93EC012A013B01411551053D
S11329106105710599F48A849B84AC84BD84811417
S11329209104A104B10449F14A895B896C897D89C8
S113293084169506A606B70600F523C079DD623035
S113294071058105910508F492C06F3F2FEF72075E
S11329508207920729F44FEF3FEF2FEF9FEF8CC0D0
S1132960CA88DB88EC88FD886C157D058E059F057B
S113297008F47FC05301420104C0812C912C5401FE
S11329808394750164018FEFC81AD80AE80AF80A1B
S11329904A895B896C897D89C416D506E606F706E3
S11329A080F022E082169104A104B10428F440E0EE
S11329B030E020E090E060C052E0C52ED12CE12C44
S11329C0F12CB701A601CE0133DD61157105810536
S11329D0910599F06F3F2FEF72078207920709F470
S11329E0BACF613071058105910509F440C0C8145E
S11329F0D904EA04FB0439F6DACF0FEF1FEF2FEF07
S1132A003FE0B701A601CE017CDE81112DC0411447
S1132A10510461047104D1F4CA86DB86EC86FD8618
S1132A204E855F85688979894F3F8FEF580768071E
S1132A307807A9F041505109610971094E875F87F0
S1132A40688B798B8D8181608D8309C097018601A4
S1132A50B301A201CE0155DE8823F1F205C04C2D4D
S1132A603D2D2E2D9F2D08C0813009F474CF41E0F7
S1132A709FCF462F372F282F642F732F822FDF915C
S1132A80CF911F910F91FF90EF90DF90CF90BF9067
S1132A90AF909F908F907F906F905F904F9008952C
S1132AA07F928F929F92AF92BF92CF92DF92EF92DA
S1132AB0FF920F931F93CF93DF93EC016B010C8173
S1132AC01D810F5F1F4F0115110511F484E0DBC058
S1132AD08E859F85A889B9890097A105B105B1F3B1
S1132AE078012FE0E222FF24E114F10409F0B8C0D8
S1132AF00196A11DB11D8E879F87A88BB98B4A852E
S1132B005B856C857D8588819981FC014115510522
S1132B106105710531F48085918508171907B0F6B0
S1132B209FC0228130E021503109F801A4E0F695DC
S1132B30E795AA95E1F72E233F23232B09F090C0B4
S1132B4077DC4B015C01623071058105910510F45D
S1132B5082E099C06F3F2FEF72078207920711F44A
S1132B6081E091C088819981FC01428953896489FB
S1132B70758984169506A606B70608F464C0CD28A0
S1132B8009F4A4CF4A855B856C857D85ACDE4B0159
S1132B905C01611571058105910509F473C061300B
S1132BA0710581059105A1F26F3F2FEF720782072E
S1132BB09207B1F28881998168D88111D1CF888137
S1132BC09981FC01BE96825D9D4FE817F90711F0CB
S1132BD01192FBCFC880D980B501A401C601FFDBE7
S1132BE0F60162A773A784A795A7C12CD12C7724DB
S1132BF07394E881F981828190E0C816D906B8F40B
S1132C0074828881998141D88111AACFE881F981A0
S1132C1082A593A5A4A5B5A50196A11DB11D82A762
S1132C2093A7A4A7B5A7FFEFCF1ADF0AE2CF82A527
S1132C3093A5A4A5B5A58C199D09A109B10982A7DD
S1132C4093A7A4A7B5A78A869B86AC86BD86B50143
S1132C50A40188819981C3DB6E877F87888B998BD8
S1132C601D830C8375E0EE0CFF1C7A95E1F72EE2D0
S1132C70E20EF11C888199818E0D9F1D9B8B8A8B9E
S1132C8080E001C087E0DF91CF911F910F91FF9009
S1132C90EF90DF90CF90BF90AF909F908F907F90F8
S1132CA008956F927F928F929F92AF92BF92CF922C
S1132CB0DF92EF92FF920F931F93CF93DF93EC0178
S1132CC08B01DB018C918F3211F08C3511F40F5F85
S1132CD01F4F1E821F8218861986F8018081803258
S1132CE038F460E070E0CE0167DC1B8A1A8AE5C024
S1132CF030E2A32E45E0B42E3801D8018C910F5F49
S1132D001F4F8F32C9F38C35B9F3EC89FD89CF019C
S1132D109F01255F3F4F8217930721F0DC01AD929D
S1132D20CD01F9CF430180E090E060E070E028E05D
S1132D3030E050E06F5F7F4FD4014D914D0141323F
S1132D4018F14F3209F14C35F9F04E3209F4ABC0A9
S1132D508217930708F092C047FF07C05360042FFF
S1132D6010E00C531E4FD8014C91E42EF12C05E3D6
S1132D7012E0D801CD908D01CC2009F481C0D12C72
S1132D80CE14DF04B1F77AC08301060F171F413256
S1132D9010F444E001C040E0892B09F46FC0808145
S1132DA0853E09F4B0822830310511F4550F550FD2
S1132DB0852F8370813009F44061852F8C708430B5
S1132DC009F44860438760E070E0CE01F5DB8111CF
S1132DD025C04E855F8568897989888199810E949B
S1132DE0AB0E81111BC0EA89FB898081882399F08D
S1132DF0838583FD0BC0AC89BD89CF010B96E81791
S1132E00F90759F031912D913217C9F360E070E060
S1132E10CE0146DEDCCF84E001C080E0EC89FD8990
S1132E209385882331F0843009F047C092FF24C091
S1132E3044C092FD42C04A895B89FA01838584FFBC
S1132E401BC0828D938DA0E0B0E028813981F90107
S1132E502081233061F4FA014489558960E070E0EF
S1132E60BA0155274427842B952BA62BB72B8E8389
S1132E709F83A887B98740CF85E01FC086E01DC027
S1132E801FEB140F1A3110F4526006C01FE9140F1F
S1132E901A3110F4516040527F01E80EF91ED70137
S1132EA04C93019647CF2830310541F7550F550F04
S1132EB088E090E02BE030E03DCFDF91CF911F918F
S1132EC00F91FF90EF90DF90CF90BF90AF909F90C5
S1132ED08F907F906F9008951F93CF93DF93EC01B1
S1132EE060E070E069DB182F811117C04E855F85A3
S1132EF068897989888199810E94AB0E182F811184
S1132F000CC0EA89FB898081853E59F0882349F009
S1132F1061E070E0CE01C4DDE6CF143019F517E0AE
S1132F2021C04E855F8568897989888199810E944D
S1132F30AB0E182F811116C0EA89FB899F01205E10
S1132F403F4FE217F30711F01192FBCF6C897D8993
S1132F504BE050E08A899B890E949D0DE881F981AC
S1132F6081E08483812FDF91CF911F9108958F9207
S1132F709F92AF92BF92CF92DF92EF92FF920F9304
S1132F801F93CF93DF93EC016A017B01423051051B
S1132F906105710508F44FC04A895B896C897D8994
S1132FA0C416D506E606F70608F045C04A895B89CB
S1132FB06C897D89C416D506E606F70658F4B70170
S1132FC0A601CE0135DA4B015C016115710581055D
S1132FD0910511F480E030C081E088169104A104C9
S1132FE0B10449F18FEF88169806A806B80609F1CE
S1132FF000E010E09801B701A601CE0182DB811147
S11330001BC04E855F85688979894F3F8FEF5807CC
S11330106807780759F04F5F5F4F6F4F7F4F4E87B8
S11330205F87688B798B8D8181608D8375016401E5
S1133030BDCF81E001C082E0DF91CF911F910F915C
S1133040FF90EF90DF90CF90BF90AF909F908F90C4
S11330500895CF93DF93CDB7DEB727970FB6F894D3
S1133060DEBF0FBECDBF9C838B837E836D837A834B
S11330706983CE0101964F830E94080E4F8197FD0C
S113308024C0880F991FFC01EE5BFA4F0190F08178
S1133090E02D309709F01082EB81FC81309709F024
S11330A010822B813C81FC01EE5BFA4F318320833B
S11330B0232B69F0413059F440E0BE016B5F7F4F30
S11330C0CE0103960E94230F03C08BE001C080E071
S11330D027960FB6F894DEBF0FBECDBFDF91CF9118
S11330E008954F925F926F927F929F92AF92BF9298
S11330F0CF92DF92EF92FF920F931F93CF93DF93C0
S1133100CDB7DEB7A4970FB6F894DEBF0FBECDBF20
S11331105C017CA36BA3F42E009709F4EFC0DC01DF
S11331201D921C924E71BE016D5D7F4FCE010196C2
S11331300E94230F8111E9C0CE0147969E8B8D8B8F
S11331406BA17CA14697ADDD0B891C89811104C05C
S11331500115110509F486E0BF2DBF719B2E9F2D2B
S11331609C7109F46DC0882369F0843019F4CE0190
S11331700196B2DEE92DE8609E2E0B891C89882316
S113318049F0C3C0D8011B968C91817109F0BCC071
S1133190F2FCB6C093FE5FC080E090E0A9E6B5E41F
S11331A0F80186879787A08BB18B1386D801148E7C
S11331B0158E168E178EE981FA815A96CD90DC9081
S11331C05B97E12CF12C8081833069F454964D9106
S11331D05C91559760E070E0BA0155274427C42AF2
S11331E0D52AE62AF72AD8015B961C921E925A9792
S11331F055961C921E92549781E08483C114D10485
S1133200E104F10441F142A453A464A475A4B701F8
S1133210A601CF01ACDE811178C089819A81B1E029
S1133220CB1AD108E108F108FC01C286D386E486F2
S1133230F586B301A2010E94AB0E882361F065C03C
S1133240811163C0D8011B968C9184FD5BC0F1FE93
S113325002C080FD59C093FE03C0B92DB0629B2EFD
S1133260E980FA80F70142A553A564A575A5D501A7
S11332705A964D935D936D937C935D975F961C93E3
S11332800E935E9714969C92149715961C92F801CF
S1133290828D938DA0E0B0E0F7012081233061F4AA
S11332A0F8014489558960E070E0BA015527442744
S11332B0842B952BA62BB72BF50186879787A08B9C
S11332C0B18BF801848D958DA68DB78DF50182871C
S11332D09387A487B5871682178210861186168A6B
S11332E0178A108E118EF182E082D70116968D9185
S11332F09C9117979383828380E007C089E005C07F
S113330088E003C084E001C087E0A4960FB6F89477
S1133310DEBF0FBECDBFDF91CF911F910F91FF9004
S1133320EF90DF90CF90BF90AF909F907F906F9081
S11333305F904F9008952F923F924F925F926F92B9
S11333407F928F929F92AF92BF92CF92DF92EF9231
S1133350FF920F931F93CF93DF93EC015B017A01EC
S11333601901F901118210820E94270E811162C194
S11333708D8181115FC18C8181FF5BC18E819F81B1
S1133380A885B985AC01BD014E0D5F1D611D711D80
S1133390481759076A077B0708F0A2C0E12CF12CF3
S11333A09FC04E815F8168857985DB01CA01917078
S11333B0AA27BB27892B8A2B8B2B09F007C1E8810D
S11333C0F981128111502A013B01A9E07694679496
S11333D057944794AA95D1F7142109F486C088819B
S11333E09981FC0142A453A464A475A44E895F8905
S11333F0688D798D441655066606770609F4C2C0B1
S1133400888099804A895B896C897D89C4010E947E
S1133410EF11611571058105910509F4B9C02B01FE
S11334203C01410E511C611C711C6701CD2CDD2433
S1133430C694C114D10409F4ADC0F4018281212FD2
S113344030E0A601420F531F90E08417950718F44B
S11334506C01C21AD30A8601A3019201B501F401D9
S113346081810E94A00C8111C7C088819981FC01CF
S113347042A553A564A575A544195509660977099C
S11334802601612C712C441555056605770570F4E9
S1133490BA01762F6627770F6A0D7B1D40E052E054
S11334A08E960E949D0DE881F9811482DC2CCC2437
S11334B0DD0CAC0CBD1C8E819F81A885B9858C0D5B
S11334C09D1DA11DB11D8E839F83A887B987F1011E
S11334D0808191818C0D9D1D91838083EC18FD0862
S11334E0E114F10409F05DCF1CC0452B462B472B9A
S11334F069F46E857F8588899989611571058105CF
S1133500910511F540E050E0BA0104C04A895B8995
S11335106C897D89CF01E7D9611571058105910514
S113352099F48E819F81A885B9854A855B856C85D0
S11335307D85481759076A077B0708F075C08A8795
S11335409B87AC87BD8770C061307105810591058B
S1133550F9F06F3FFFEF7F078F079F0709F44CC017
S11335606A8B7B8B8C8B9D8B4E845F846888798877
S113357045284628472809F032CF6E877F87888BF5
S1133580998B2DCF0E94450E882309F439CF34C07E
S113359082E033C04E815F81688579858A859B8509
S11335A0AC85BD85481759076A077B0758F0C401E5
S11335B00E94450E811120C0E881F98142A653A6DC
S11335C064A675A64E8A5F8A688E798E8E819F81E5
S11335D0917020E032E0281B390B67012E153F055E
S11335E008F469014E895F89688D798D8881998194
S11335F00E94AB0E882319F081E08D831BC08E815D
S11336009F81A885B9859170AA27BB278E962881AA
S11336103981A601B501820F931F0E949D0DE88197
S1133620F98131E0348345CF8C8180628C8380E0E2
S113363001C087E0DF91CF911F910F91FF90EF9030
S1133640DF90CF90BF90AF909F908F907F906F90BE
S11336505F904F903F902F900895CF93DF93EC01AC
S11336600E94270E811139C09C8195FF36C04A8D76
S11336705B8D6C8D7D8D888199810E94AB0E81114B
S11336802CC0EE8DFF8D8385806283874A855B85A0
S11336906C857D85448F558F668F778F4E855F85CA
S11336A068897989538F428F758B648B40E050E031
S11336B069E675E4468B578B608F718F138A128A83
S11336C08C818F7D8C83E881F98181E0848388817A
S11336D09981DF91CF910C948811DF91CF91089556
S11336E0CF93DF93EC01B9DF811107C0CE010E94B3
S11336F0270E811102C019821882DF91CF9108959B
S11337002F923F924F925F926F927F928F929F92ED
S1133710AF92BF92CF92DF92EF92FF920F931F93DB
S1133720CF93DF93CDB7DEB728970FB6F894DEBFFB
S11337300FBECDBF1C014D835E836F8378870E94CB
S1133740270E4D815E816F81788581115FC1D10122
S113375015968C911597811159C11A96CD90DD90CB
S1133760ED90FC901D97C416D506E606F70618F0F2
S11337706A017B0104C0F101848181FDF9CFD1018B
S113378016964D905D906D907C901997F10116827C
S1133790178210861186C114D104E104F10421F4C6
S11337A0C12CD12C760105C100811181F8018280E0
S11337B0912CA12CB12C89E0880C991CAA1CBB1C4F
S11337C08A95D1F74114510461047104D9F1F1E0EF
S11337D04F1A510861087108C701B6016150710997
S11337E081099109A50194010E94533029833A83E8
S11337F04B835C83C301B201A50194010E94533041
S113380089819A81AB81BC8182179307A407B5078C
S1133810C8F088279927DC0188199909AA09BB09E6
S113382084219521A621B721F10186839783A0875E
S1133830B187C81AD90AEA0AFB0A428953896489FA
S113384075892CC0D1011E964D915D916D917C912D
S113385051974115510561057105C9F440E050E0E7
S1133860BA01C80140D8AB01BC0141305105610522
S1133870710509F463C04F3FFFEF5F076F077F07D0
S113388009F45AC0F10146875787608B718BD101C7
S113389052964D935D936D937C93559741155105C5
S11338A06105710509F47CCF2CC0423051056105D6
S11338B0710508F443C0D101ED91FC91828993898B
S11338C0A489B589481759076A077B07B8F5D10158
S11338D052964D935D936D937C93559716968D9167
S11338E09D910D90BC91A02D880D991DAA1DBB1D05
S11338F0F10186839783A087B187C818D908EA089D
S1133900FB088C149D04AE04BF0418F5F101248156
S11339108081918121FF16C00E947314AB01BC0108
S1133920411551056105710591F04F3FFFEF5F07A8
S11339306F077F0709F0B9CF81E02CC082E0F10165
S1133940858364C00E941812AB01BC01EECF7501DF
S11339506401F10186819781A085B1858C0D9D1D3F
S1133960AE1DBF1D86839783A087B187D701C6018B
S11339709170AA27BB27892B8A2B8B2B09F410CF94
S1133980808191810E94EF11611571058105910576
S113399029F482E0D10115968C9338C0B9E0F694ED
S11339A0E794D794C794BA95D1F7C60ED71EE81EEC
S11339B0F91EF10186819781A085B185AC01BD0115
S11339C0517066277727452B462B472B69F046898C
S11339D05789608D718DC416D506E606F70621F069
S11339E0C68AD78AE08EF18EF101428553856485BB
S11339F07585481759076A077B0738F482879387C8
S1133A00A487B58784818062848380E028960FB67A
S1133A10F894DEBF0FBECDBFDF91CF911F910F9100
S1133A20FF90EF90DF90CF90BF90AF909F908F90DA
S1133A307F906F905F904F903F902F900895FF92EA
S1133A400F931F93CF93DF93CDB7DEB7A4970FB631
S1133A50F894DEBF0FBECDBF9CA38BA38B0140E0C7
S1133A60BE016D5D7F4FCE0101960E94230FF82E9B
S1133A7081111AC0CE0147969E8B8D8B6BA17CA1C0
S1133A8046970FD9F82E81110FC02B893C89232B1F
S1133A9049F00115110541F0B801CE0101960E94CB
S1133AA0C00D02C026E0F22E8F2DA4960FB6F89416
S1133AB0DEBF0FBECDBFDF91CF911F910F91FF905D
S1133AC00895BF92CF92DF92EF92FF920F931F93CC
S1133AD0CF93DF93EC01B62EC8A0DF8CEE8CFD8C67
S1133AE00BA11AA10E949A08C616D706E806F90681
S1133AF068F080911001807F85608093100181E2DD
S1133B0080931A0110921B0180E020C09801B70134
S1133B10A601CE01BB2011F072D201C0D5D168013B
S1133B20E12CF12C89E0CC0CDD1CEE1CFF1C8A95E9
S1133B30D1F74C895D896E897F894C195D096E09BD
S1133B407F094C8B5D8B6E8B7F8B81E0DF91CF91F6
S1133B501F910F91FF90EF90DF90CF90BF90089549
S1133B60CF92DF92EF92FF920F931F93CF93DF9345
S1133B70CDB7DEB728970FB6F894DEBF0FBECDBF22
S1133B808C01FC01838D8D3109F4BEC088F482312F
S1133B9009F138F4882309F407C1833009F449C0D2
S1133BA012C18A3109F4E5C08B3109F406C10BC195
S1133BB0883209F4CEC038F48E3109F4FEC085325F
S1133BC009F463C000C18A3209F4B8C08F3209F421
S1133BD0F4C0F9C0F801E78CF68C848D837009F089
S1133BE097C0858D811194C06701F5E2EF16F10449
S1133BF018F024E2C22ED12C40E050E0B60184EC4F
S1133C0092E00E94E12A60E070E0C7018C199D09EE
S1133C100E94A42A8091E8008E778093E800F8013E
S1133C2084899589A689B7898C199D09A109B10947
S1133C3027C0F801C78CDC2CF2E1FC1510F492E1EA
S1133C40D92EED2CF12C40E050E0B7018EE091E04C
S1133C500E94E12A8C2D90E060E070E08E199F09AB
S1133C600E94A42A8091E8008E778093E800F801EE
S1133C7084899589A689B7898D199109A109B10902
S1133C80848B958BA68BB78BA8C00BD2811108C0EF
S1133C9080911001807F8260809310018AE39AC032
S1133CA08091CF068130A1F780E092E0A0E0B0E0FF
S1133CB089839A83AB83BC830E949A0861507109FB
S1133CC0810991096D837E838F83988740E050E05A
S1133CD064E070E0CE0105960E94292B40E050E09C
S1133CE064E070E0CE0101960E94292B8091E800E7
S1133CF08E778093E800F80184899589A689B7892D
S1133D000897A109B109BCCFF801848D82FD08C0D0
S1133D1080911001807F85608093100184E25AC0F5
S1133D20C0D181114AC080911001807F846080934A
S1133D30100110921A0110921B015AC0B2D18823AB
S1133D4009F4A6CF8091CF06813009F0A1CF60E0BD
S1133D500AC0A7D1882309F49BCF8091CF06813074
S1133D6009F096CF61E0C801ACDE882309F440C0B5
S1133D7034C01092F1001092F1001092F1001092F0
S1133D80F1008091E8008E778093E800F80144897F
S1133D905589668977894450510961097109448BB1
S1133DA0558B668B778B19C07CD1882309F470CF2F
S1133DB08091CF06813009F06BCFF801148A158AFF
S1133DC0168A178A0AC080911001807F85608093CB
S1133DD0100180E280931A01AECF80911001807FA0
S1133DE08093100110921A0110921B0181E001C00E
S1133DF080E028960FB6F894DEBF0FBECDBFDF91EA
S1133E00CF911F910F91FF90EF90DF90CF90089585
S1133E1080E00E94B20B811104C081E080934405CC
S1133E2008951092440508950F931F93CF93DF9341
S1133E30EC018B018091E80085FF36C08091F10090
S1133E40FE01E00FF11F80838091F1008183809156
S1133E50F10082838091F10083838091F100848357
S1133E608091F10085838091F10086838091F10037
S1133E7087838091F10080878091F1008187809110
S1133E80F10082878091F10083878091F10084871B
S1133E908091F10085878091F10086878091F100FF
S1133EA0878780E190E00BC08091E8008B77809356
S1133EB0E8000E94562D882309F280E090E0DF910B
S1133EC0CF911F910F910895AF92BF92CF92DF923D
S1133ED0EF92FF920F931F93CF93DF935C016A01DC
S1133EE07B01E9010E94562D811130C0209721F1F8
S1133EF02E9800E010E0B80180ED96E095DF080F01
S1133F00191F80911409843009F5F50180AD8111E0
S1133F101DC00115F2E01F0770F301E010E0A701D6
S1133F20960160ED76E00E94A00C8FEFC81AD80AC3
S1133F30E80AF80A2197DACF8091E80085FD05C0E8
S1133F408091E8008B778093E8002E9ADF91CF91DF
S1133F501F910F91FF90EF90DF90CF90BF90AF90A3
S1133F6008950F931F93CF93DF93EC018B018091FE
S1133F70E80085FF35C0FE01E00FF11F80818093CA
S1133F80F10081818093F10082818093F10083812B
S1133F908093F10084818093F10085818093F10006
S1133FA086818093F10087818093F10080858093DE
S1133FB0F10081858093F10082858093F1008385EF
S1133FC08093F10084858093F10085858093F100CE
S1133FD086858093F10087858093F10080E10AC093
S1133FE08091E8008E778093E8000E94562D882304
S1133FF011F280E0DF91CF911F910F910895AF925C
S1134000BF92CF92DF92EF92FF920F931F93CF93C1
S1134010DF935C016A017B01E9010E94562D811145
S113402035C0209749F12E9801E010E0A7019601D0
S113403060ED76E080E00E94580C00E010E0B801EA
S113404080ED96E08EDF080F111DF50180AD811122
S11340501DC080911409843021F08AE08093CF063A
S113406015C00115F2E01F0750F38FEFC81AD80AE4
S1134070E80AF80A2197D5CF8091E80085FD05C0AC
S11340808091E8008E778093E8002E9ADF91CF919B
S11340901F910F91FF90EF90DF90CF90BF90AF9062
S11340A008958091440508951F920F920FB60F92C0
S11340B011242F938F939F93EF93FF938091C800C4
S11340C09091CE008871E0914705EF5FEF702091E9
S11340D04605E21739F0E0934705F0E0E65BFA4F56
S11340E0908301C082E090914505982B90934505FB
S11340F0FF91EF919F918F912F910F900FBE0F9091
S11341001F9018951F920F920FB60F9211248F9340
S11341109F93EF93FF9390914905809148059817D9
S113412069F0E0914805EF5FEF70E0934805F0E037
S1134130E65AFA4F80818093CE0005C08091C90071
S11341408F7D8093C900FF91EF919F918F910F9084
S11341500FBE0F901F9018951092490510924805B4
S1134160109247051092460597FF04C022E0209361
S1134170C8009F779093CD008093CC0088E980930A
S1134180C90086E08093CA00089590914705809104
S11341904605981781F0E0914605EF5FEF70E093D4
S11341A04605F0E0E65BFA4F808190914505109258
S11341B0450590E0089580E091E008951092470548
S11341C0109246050895909149059F5F9F70209134
S11341D048059217E1F3E92FF0E0E65AFA4F80839D
S11341E0909349058091C90080628093C900089525
S11341F01F920F920FB60F9211242F933F934F9358
S11342005F936F937F938F939F93AF93BF93EF933A
S1134210FF938091C8059091C90501969093C905B3
S11342208093C8058091CF06813071F08091CF06CC
S11342308D3051F080E391E00E94892980E291E081
S11342404CD70E94183003C081E080938205FF910F
S1134250EF91BF91AF919F918F917F916F915F91FA
S11342604F913F912F910F900FBE0F901F90189573
S113427080918205813029F480E391E00E948929AC
S113428004C080918205833021F480E291E025D737
S113429008C080918205823031F480E391E00E946D
S11342A089290E94183010928205089584B7877F67
S11342B084BF88E10FB6F894809360001092600088
S11342C00FBE85B7806885BF85B7806885BF85B711
S11342D0806885BF85B7806885BF90E080E80FB6A9
S11342E0F89480936100909361000FBE0E946D0763
S11342F00E9481072FE788E391E02150804090409D
S1134300E1F700C0000086E092E00E942B3391E0C8
S1134310811101C090E09093CE0587E092E00E9465
S11343202B3391E0811101C090E09093800588E0E7
S113433092E00E942B3391E0811101C090E09093B0
S1134340500689E092E00E942B3391E0811101C074
S113435090E090938E0608950895A3DE882319F0C3
S113436082E08093CF0608950895089580E291E055
S1134370A1D680E391E0B0D7E2EEF0E080818460E2
S11343808083089580E391E068D780E291E05EC580
S113439080912E0190912F01009729F0019790931D
S11343A02F0180932E010895DBCB0F931F93F90106
S11343B0A091CB05B091CC0512968C918283882371
S11343C021F080918405808301C01082E091CB05A7
S11343D0F091CC0512821092840588E090E0F801F7
S11343E09183808380E01F910F910895F90180816A
S11343F080FF06C0E091CB05F091CC0581E00FC0B1
S113440081FF06C0E091CB05F091CC0582E007C0A6
S113441082FF06C0E091CB05F091CC0584E0828355
S11344200895CF938DE092E00E942B33C82FD8D209
S113443062E025D47C9909C07D9907C07E9905C0A6
S113444081E08093CF06B4D415C07C9902C085E086
S113445003C07D9904C083E08093CF0634C07E9965
S113446002C084E0F9CF853539F481E08093CF062A
S11344708093CA05C1E027C0833579F412DE88230E
S113448039F082E08093CF0681E08093CA0503C0AF
S11344908AE08093CF06C2E016C0823459F40E94A9
S11344A0C902882329F089E08093CF06C9E00BC0B4
S11344B08AE0D2CF8C3429F48DE08093CF06CDE00E
S11344C002C0C093CF066C2F8DE092E0CF910C9484
S11344D038338CE08093CF06E9DE8FD410D4E7D351
S11344E097DC9FDF0E94DE2D78941DE00AE0D1E086
S11344F08091CF06853009F46CC06CF4823009F4E5
S113450063C01CF48130D1F09AC0833009F492C0A6
S11345108430A1F194C08A3009F473C04CF489301A
S113452009F08DC083E390E017DE0E94800266C02C
S11345308B3009F445C08D3009F081C00E948D088C
S113454066D2D82F64D1C82F682F8D2F81D38823AA
S113455051F0883121F49091CA05911180E01092B4
S1134560CA056C2F6FD08FE99FE00197F1F700C067
S1134570000080E291E0B1D57BDEE2CF0E94862D7F
S113458099B1C9B189B123B1C6FBCC27C0F9CD27F4
S1134590929591709D27C90F8095881F8827881F41
S11345A0C80F24FB882780F98D27C80F77D38C0F79
S11345B080FF03C0469A2E989BCF46982E9A98CF98
S11345C00E94862D0E9402090E94862D0E94730972
S11345D08FCF0E94AD0330C01AD2D82F18D1C82F64
S11345E0682F8D2F35D3882319F06C2F0E943B023E
S11345F08FE99FE00197F1F700C00000799BFECF9F
S1134600EBCF0E94862D2E9A46989FEF21EE84E0F0
S1134610915020408040E1F700C00000469A2E9857
S11346209FEF21EE84E0915020408040E1F700C0EC
S11346300000E9CF0E946D061093CF0659CF009376
S1134640CF0656CF1F93CF93DF931F92CDB7DEB71C
S1134650182F1092C9051092C805E091CB05F0916E
S1134660CC058281811105C017FF10C01F7762E05D
S11346700DC02091C8053091C90524363105A4F731
S113468080E291E0698329D56981E7CF1283609341
S1134690840580E291E021D58FE59AEE0197F1F748
S11346A000C0000080E291E00F90DF91CF911F9154
S11346B014C5EF92FF920F931F93CF93DF938C0156
S11346C0EC0109900020E9F72197C81BD90B7C0164
S11346D0C701801B910B8C179D070CF043C0F70199
S11346E081917F01803209F1883211F1893219F107
S11346F08F3219F18F3319F18A3321F18D3029F179
S11347008A3019F18E3221F1813229F1803331F16D
S11347109FEC980F993018F4835160E021C090E029
S11347200E9406318D5362E01BC060E08CE218C029
S113473062E086E215C062E012C060E001C062E09F
S113474088E30EC062E083E30BC060E088E208C047
S113475060E087E305C062E08EE102C060E087E2CA
S113476071DFB6CFDF91CF911F910F91FF90EF9042
S11347700895BC0182E596E00E940E3182E596E040
S113478098CF1F93CF93DF93482F6AE00E94343071
S1134790C92F842F90E08C1B910964E670E00E947D
S11347A040306AE070E00E944030D62F162F483C1B
S11347B018F060E08FE104C0443618F060E08EE148
S11347C041DF60E0112319F08DE18D0F01C087E214
S11347D039DF2FEF80E792E0215080409040E1F7ED
S11347E000C0000060E0CC2319F08DE18C0F01C003
S11347F087E228DF2FEF80E792E02150804090404D
S1134800E1F700C00000DF91CF911F9108958091DE
S1134810C705823099F040F48130F9F429B1207150
S113482030E08091CE0515C0833071F08430A9F456
S113483023B1207130E080918E060BC029B1207421
S113484030E08091800505C029B1207830E0809166
S1134850500690E02817390711F080E001C082E08B
S11348607C9B81607D9B84607E9B886008955F92C1
S11348706F927F928F929F92AF92BF92CF92DF926C
S1134880EF92FF920F931F93CF93DF93F894729A52
S11348908FEC97E00197F1F700C0000072987894CC
S11348A08FEC97E00197F1F700C00000E0E0F0E042
S11348B0512C612C712C10E0D0E0C0E0B0E0A0E0FD
S11348C01D9913C021E030E040E050E060E070E06A
S11348D080E090E00E2F0E948730522A632A742AC7
S11348E0152BD62BC72BB82BA92BF894729A9AE1C7
S11348F09A95F1F700C0729878948AE68A95F1F750
S113490000C03196E033F105D9F680915106882331
S1134910E9F0252D362D472D512F6D2F7C2F8B2F10
S11349209A2F0CE20E94A230490191E08922992435
S11349308091CD0590E08816990641F0512C612CA8
S1134940712C10E0D0E0C0E0B0E0A0E04091C705D9
S1134950413061F029B1207130E08091CE0590E0C2
S11349602817390709F4A064423061F029B1207492
S113497030E08091800590E02817390709F4A0629F
S1134980433061F029B1207830E08091500690E006
S11349902817390709F4A061443051F083B18071BC
S11349A090E0E0918E06F0E08E179F0709F4A8606E
S11349B0252D362D472D512F6D2F7C2F8B2F9A2F80
S11349C0DF91CF911F910F91FF90EF90DF90CF90E7
S11349D0BF90AF909F908F907F906F905F9008955D
S11349E0FF920F931F93CF93DF9341DFE72FEF7E67
S11349F07E2FA0E00E94BE3019F00E947F3001C0DB
S1134A0080E0DF91CF911F910F91FF9008952F9235
S1134A103F924F925F926F927F928F929F92AF924A
S1134A20BF92CF92DF92EF92FF920F931F93CF9397
S1134A30DF9300D000D0CDB7DEB719DF49015A01AA
S1134A40C62E7C83582E492EB72FBF7EB983709013
S1134A5081056090C505EBE7F5E088EE282E82E03D
S1134A60382E1B821A8210E0D12CEA80FB80711050
S1134A7002C0E12CF12CD1010D911D018A819B8191
S1134A8001969B838A839401A5016C2D7981852DE0
S1134A90942D0E94A230217030E040E050E060E0AC
S1134AA070E080E090E0A0E00E94BE3091F0808150
S1134AB0861510F48F5F2DC0C70189589A4FDC0109
S1134AC02C91211127C021E02C931A81DD24D39449
S1134AD021C0772021F0808181111AC010C08091FB
S1134AE07B05811112C080917C0581110EC08091DB
S1134AF07D0581110AC080917E05811106C0C70120
S1134B0089589A4FDC011C9205C08081882311F0DA
S1134B108150808331968A819B81049709F0A5CFC7
S1134B20BC81BF7EF0907605FF2081F0EFE3F0E0DA
S1134B30EF19F10921E030E040E050E060E070E07E
S1134B4080E090E00E2F0E94873027C09091750579
S1134B50992349F1809174058F5F809374052091A6
S1134B60C605821728F010927405109275051BC0B3
S1134B70EFE3F0E0E91BF10921E030E040E050E030
S1134B8060E070E080E090E00E2F0E948730209576
S1134B903095409550956095709582229322A42279
S1134BA0B522C622B7239401A5016C2D7B2F80E08A
S1134BB090E0A0E00E94BE3061F00E947F30882324
S1134BC041F0909173059F5F909373051092720565
S1134BD008C0809172058F5F8093720510927305EF
S1134BE080E090910F0620917305291748F0909367
S1134BF073058F1589F080937605DD2091F00EC042
S1134C008091830590917205981730F08093720516
S1134C10F092750510927605DD2011F0812F01C008
S1134C2080E00F900F900F900F90DF91CF911F9124
S1134C300F91FF90EF90DF90CF90BF90AF909F9037
S1134C408F907F906F905F904F903F902F9008953A
S1134C50282F30E062FF06C0F901E053F74F80814E
S1134C6081110CC061FF06C0F901E153FA4F808144
S1134C70811104C0F901EB57FA4F80810895282F60
S1134C8030E061FF06C0F901E05FF94F80818111D6
S1134C9004C0F901E157F94F808108950F93E7DDCE
S1134CA00CE20E94A230822F81700F91089540E49B
S1134CB050E060E070E085E895E00E941B3340E43A
S1134CC050E060E470E080ED98E00E941B3340E423
S1134CD050E060E870E08FEC95E00E941B3340E404
S1134CE050E060EC70E08FE896E00E941B3340E4F3
S1134CF050E060E071E080E196E00C941B3382E0C8
S1134D0092E00E942B338093830581E092E00E941D
S1134D102B3380930F0680E092E00E942B33809324
S1134D20C6058CE092E00E942B338093C50583E096
S1134D3092E00E942B338093510684E092E00E941B
S1134D402B338093CD0585E092E00E942B33809332
S1134D50C7058EE092E00E942B338093810508956D
S1134D6080E4E5E8F5E0DF01982F1D929A95E9F7D4
S1134D70E0EDF8E0DF01982F1D929A95E9F7EFEC4A
S1134D80F5E0DF01982F1D929A95E9F7EFE8F6E038
S1134D90DF01982F1D929A95E9F7E0E1F6E0DF0133
S1134DA01D928A95E9F71092C7051092510608954D
S1134DB067E080E092E00E94383367E081E092E0AF
S1134DC00E94383367E082E092E00E94383363E067
S1134DD08CE092E00E94383360E08EE092E00E9422
S1134DE0383361E08DE092E00E94383360E070E097
S1134DF08AE092E00E94613382CFCF93DF938FEFFA
S1134E0093E00E942B338734F1F0C0E0D0E060E0FF
S1134E10CE010E9438332196C13581E0D807B9F715
S1134E20C0E0D2E060E0CE010E9438332196C03168
S1134E3082E0D807B9F7BCDF67E48FEF93E0DF9136
S1134E40CF910C945333DF91CF9108956F927F9259
S1134E508F929F92AF92BF92CF92DF92EF92FF9286
S1134E600F931F93CF93DF9300D01F92CDB7DEB77C
S1134E707C01ADB6BEB68091E80083FF04C1F701A2
S1134E80808190E02091190930911A092817390777
S1134E9009F0F9C080911609833009F49BC030F4FD
S1134EA0813071F0823009F4D2C0EDC08A3009F447
S1134EB0B6C08B3009F49FC0893009F0E4C04DC0FE
S1134EC080911509813A09F0DEC08DB69EB61A822A
S1134ED0198280911709109118098B83F701408575
S1134EE050E08DB79EB7841B950B0FB6F8949EBF08
S1134EF00FBE8DBFEDB7FEB731966F0160E070E075
S1134F00CF010E942B314FEF410F8E010F5F1F4FD6
S1134F109601BE016D5F7F4FC70147DAF7018681B5
S1134F209781009729F0408550E0B6010E94223114
S1134F301092E9008091E800877F8093E8008B81DC
S1134F4081118093F10069817A81C60119D480911D
S1134F50E8008B778093E80037C08091150981328F
S1134F6009F091C08DB69EB600911B0910911C09E1
S1134F7070901709609018098DB79EB7801B910B2C
S1134F800FB6F8949EBF0FBE8DBFEDB7FEB7319636
S1134F906F018091E800877F8093E800B801CF011A
S1134FA050D48091E8008E778093E80021E071105E
S1134FB001C020E030E0021B130B2C0D3D1D4FEF10
S1134FC0460D672DC70112DA0FB6F8949EBE0FBEC8
S1134FD08DBE59C080911509813A09F054C0809161
S1134FE0E800877F8093E8008091E80080FFFCCF91
S1134FF0F701818540C080911509813209F043C0D1
S11350008091E800877F8093E8002FD5909117095D
S113501081E0911101C080E0F701818734C0809163
S11350201509813281F58091E800877F8093E8003B
S11350301CD58091170990911809882736E0969518
S113504087953A95E1F7F701958784871CC080918D
S11350501509813AC1F48091E800877F8093E800C4
S11350608091E80080FFFCCFF701848595859695B3
S11350708795969587958093F1008091E8008E77C7
S11350808093E800F2D40FB6F894BEBE0FBEADBE56
S11350900F900F900F90DF91CF911F910F91FF9080
S11350A0EF90DF90CF90BF90AF909F908F907F90C4
S11350B06F900895FC01399627E0DF011D922A952F
S11350C0E9F721E0FC01218724EF31E035872487CB
S11350D023E0248361E001968BC45F926F927F92F8
S11350E08F929F92AF92BF92CF92DF92EF92FF92F4
S11350F00F931F93CF93DF9300D01F92CDB7DEB7EA
S11351007C01ADB6BEB680911409843009F08DC01F
S11351108091E4009091E500F701228533852817FA
S1135120390709F482C081818F708093E9008091EE
S1135130E80085FF7AC08DB69EB6408550E08DB7F5
S11351409EB7841B950B0FB6F8949EBF0FBE8DBF00
S1135150EDB7FEB731966F011B821A82198260E0A7
S113516070E0CF010E942B318E010F5F1F4F96011B
S113517040E0BE016D5F7F4FC70117D9682EF7016C
S113518084859585892B41F021E086859785892B37
S113519009F020E0722E01C0712CF70106811781FD
S11351A00115110599F049815A81B801C6010E947F
S11351B0153155245394892B09F4512CF70140855A
S11351C050E0B601C8010E94223101C0512C29814E
S11351D03A81232BF1F0611004C0511002C070FE1B
S11351E018C0F701848595859787868781818F709C
S11351F08093E9008B8181118093F10069817A8128
S113520040E050E0C601DDD18091E8008E778093C4
S1135210E8008091E4009091E500F701938782878C
S11352200FB6F8949EBE0FBE8DBE0FB6F894BEBEE8
S11352300FBEADBE0F900F900F90DF91CF911F91D5
S11352400F91FF90EF90DF90CF90BF90AF909F9021
S11352508F907F906F905F900895CF93DF93EC01D0
S11352608091E80083FF35C0888190E0209119097E
S113527030911A092817390761F5809116098E3F74
S113528079F08F3F31F580911509813211F58091C4
S1135290E800877F8093E800E8D381E088AF19C0F5
S11352A080911509813AA9F48091E800877F809361
S11352B0E8008091E80080FFFCCF8B8581508093CB
S11352C0F1008091E8008E778093E800DF91CF9120
S11352D0CCC3DF91CF910895CF93DF93EC01FC0110
S11352E03C968DE2DF011D928A95E9F782E08C837A
S11352F0898761E0CE0101967BD3882331F061E098
S1135300CE010696DF91CF9173C380E0DF91CF91F8
S11353100895EF92FF920F931F93CF93DF9300D0E2
S1135320CDB7DEB78C0180911409843009F003C134
S1135330F80186818F708093E9008091E80082FFF4
S1135340C0C086818F708093E9001A821982780127
S1135350FCE0EF0EF11CAE014F5F5F4F6FE070E0B9
S1135360C701C6D1F801853021F480AD882399F3B3
S1135370A8C084859585A685B78585359345A244BF
S1135380B34461F4F801918D8385981738F4808DC6
S11353908F7121F4828D8150803180F08091EB00F7
S11353A080628093EB00F80181818F708093E90023
S11353B08091EB0080628093EB0083C01A82198293
S11353C07801FBE1EF0EF11CF801628D70E0AE0193
S11353D04F5F5F4FC7018CD1853029F4F80180AD50
S11353E0882391F36EC08091E8008B778093E80066
S11353F0F801808D87FF04C081818F708093E9005C
S1135400C8010E94D42191E09827F80197AB45E5A3
S113541053E562E473E543A754A765A776A74089DB
S113542051896289738947A750AB61AB72AB4489D8
S113543055896689778943AB54AB65AB76AB8111EB
S113544009C0452B462B472B29F08091EB00806245
S11354508093EB00F80186818F708093E90080913E
S1135460EB0085FF06C0E4D5F80180AD8823B9F3CD
S113547028C0F80181818F708093E9008091EB004E
S113548085FF06C0D5D5F80180AD8823B9F319C0CE
S11354901A8219827801FBE2EF0EF11CAE014F5F14
S11354A05F4F6DE070E0C7018CD0853029F4F801BE
S11354B080AD882399F305C08091E8008E778093AE
S11354C0E800F80180AD8823B1F126812F7081E0D6
S11354D090E0AC0102C0440F551F2A95E2F74093B7
S11354E0EA001092EA0021812F70022E01C0880F79
S11354F00A94EAF78093EA001092EA0086818F709A
S11355008093E9008091EB0080618093EB008091AF
S1135510EB0088608093EB0081818F708093E900B9
S11355208091EB0080618093EB008091EB008860B8
S11355308093EB0010AE0F900F90DF91CF911F91ED
S11355400F91FF90EF900895EF92FF920F931F93A6
S1135550CF93DF938C01EB01A9D281112BC020974B
S113556021F088819981081B190BE12CF12C01157C
S11355701105F9F08091E80085FD13C08091E800E1
S11355808E778093E800209741F0888199818E0D71
S11355909F1D9983888385E00DC088D2882339F3C1
S11355A009C01092F100015011098FEFE81AF80AAE
S11355B0DECF80E0DF91CF911F910F91FF90EF90AC
S11355C00895CF92DF92EF92FF920F931F93CF93A0
S11355D0DF937C018B01EA0169D2811131C02097EC
S11355E031F088819981081B190BE80EF91EC12C32
S11355F0D12C0115110519F18091E80085FD14C025
S11356008091E8008E778093E80012D5209741F0CE
S1135610888199818C0D9D1D9983888385E010C0B4
S113562045D2882331F30CC0F70181917F01809327
S1135630F10001501109FFEFCF1ADF0ADACF80E041
S1135640DF91CF911F910F91FF90EF90DF90CF905A
S11356500895CF92DF92EF92FF920F931F93CF930F
S1135660DF936C018B017A0121D2811138C0E801EA
S11356702197CC0DDD1DE114F10439F0F70180818F
S11356809181081B190BC81BD90BC12CD12C0115F6
S1135690110521F18091E80085FD16C08091E80094
S11356A08E778093E800C4D4E114F10449F0F70143
S11356B0808191818C0D9D1D9183808385E00FC035
S11356C0F5D1882321F30BC088818093F1002197C1
S11356D001501109FFEFCF1ADF0AD9CF80E0DF9123
S11356E0CF911F910F91FF90EF90DF90CF9008958D
S11356F0CF92DF92EF92FF920F931F93CF93DF939A
S11357007C018B01EA01D2D1811131C0209731F0A3
S113571088819981081B190BE80EF91EC12CD12C24
S11357200115110519F18091E80085FD14C08091DF
S1135730E8008B778093E8007BD4209741F0888140
S113574099818C0D9D1D9983888385E010C0AED10D
S1135750882331F30CC08091F100F70181937F011C
S113576001501109FFEFCF1ADF0ADACF80E0DF9191
S1135770CF911F910F91FF90EF90DF90CF900895FC
S113578020911B0930911C092617370748F0611531
S1135790710539F42091E8002E772093E80001C0C8
S11357A0B901FC0120E061157105B9F1809114097A
S11357B0882309F440C0853009F43FC08091E80093
S11357C083FD3DC08091E80082FF06C08091E8001F
S11357D082FF26C080E008958091E80080FFE3CF37
S11357E02091F3008091F20090E0922B61157105F5
S11357F051F08830910538F421912093F1006150E3
S113580071090196F3CF21E0089709F020E0809117
S1135810E8008E778093E800C6CF2111C7CFD6CF9A
S113582080911409882339F0853039F08091E8009B
S113583083FFCCCF04C082E0089583E0089581E023
S113584008956115710529F42091E8002B772093C0
S1135850E8006115710541F120911409222369F1D1
S1135860253069F12091E80023FD23C02091E80050
S113587022FFF2CFFC01CF014091F3002091F2000E
S113588030E0342B232B01F38091F1008193CF017D
S1135890615071096115710571F7D6CF80911409B2
S11358A0882359F0853059F08091E80080FFF6CFC5
S11358B002C081E0089580E0089582E0089583E0C5
S11358C0089520911B0930911C092617370748F0C9
S11358D06115710539F42091E8002E772093E800D2
S11358E001C0B901FC0120E061157105C1F180918D
S11358F01409882309F441C0853009F440C080911B
S1135900E80083FD3EC08091E80082FF06C08091DC
S1135910E80082FF27C080E008958091E80080FFBE
S1135920E3CF2091F3008091F20090E0922B611577
S1135930710559F08830910540F424912093F100C9
S11359403196615071090196F2CF21E0089709F070
S113595020E08091E8008E778093E800C5CF211184
S1135960C6CFD5CF80911409882339F0853039F01A
S11359708091E80083FFCBCF04C082E0089583E0E8
S1135980089581E00895982F973058F59093E90091
S1135990981739F07091EC002091ED005091F000CF
S11359A003C0242F762F50E021FF19C03091EB0063
S11359B03E7F3093EB003091ED003D7F3093ED005E
S11359C03091EB0031603093EB007093EC00209346
S11359D0ED005093F0002091EE0027FF07C09F5F79
S11359E0D3CF8F708093E90081E0089580E008951B
S11359F00F931F93CF93DF93062FEC0110E0101742
S1135A0071F19881992341F12C81E981FA817B819B
S1135A10892F8F70873010F080E022C0223010F080
S1135A2056E001C052E028E030E040E02E173F0786
S1135A3020F44F5F220F331FF9CF4295407F452B4F
S1135A40692F661F6627661F90E4799F90011124D1
S1135A50622B99DF882301F31F5F2596D0CF81E065
S1135A60DF91CF911F910F9108958091150987FDC2
S1135A7005C08091E80080FF0EC012C08091E8004C
S1135A8082FD05C0809114098111F8CF0895809199
S1135A90E8008B7708C0809114098111EACF08953A
S1135AA08091E8008E778093E80008958091E40067
S1135AB09091E50045E62091EC0020FF21C0209163
S1135AC0E80020FD21C020911409222389F025300B
S1135AD089F02091EB0025FD0FC02091E400309166
S1135AE0E5002817390739F3415041F0C901E3CFE4
S1135AF082E0089583E0089581E0089584E00895A4
S1135B002091E80022FFDFCF80E0089567D06ED0B7
S1135B10E0EEF0E0808181608083E8EDF0E0808158
S1135B208F77808319BCA7EDB0E08C918E7F8C9326
S1135B3080818F7E80831092130908950F931F93A1
S1135B40CF93DF934BD052D0C8EDD0E088818F77CC
S1135B50888388818068888388818F7D888319BC45
S1135B60109214091092100910921209109211093E
S1135B7000EE10E0F80180818B7F80838881816052
S1135B80888342E060E080E0FEDEE1EEF0E08081C8
S1135B908E7F8083E2EEF0E080818160808380816B
S1135BA088608083F80180818E7F80838881806112
S1135BB08883DF91CF911F910F910895E8EDF0E074
S1135BC080818F7E8083E7EDF0E080818160808337
S1135BD084E082BF81E080931309B0CFE8EDF0E068
S1135BE080818E7F80831092E20008951092DA0003
S1135BF01092E10008951F920F920FB60F92112494
S1135C002F933F934F935F936F937F938F939F93C0
S1135C10AF93BF93EF93FF938091E10082FF0BC09A
S1135C208091E20082FF07C08091E1008B7F809326
S1135C30E1000E94C8218091DA0080FF1DC080919C
S1135C40D80080FF19C08091DA008E7F8093DA003B
S1135C508091D90019BC80FF0BC082E089BD09B4D2
S1135C6000FEFDCF81E0809314090E94AC2104C0A2
S1135C70109214090E94AD218091E10080FF19C0A7
S1135C808091E20080FF15C08091E2008E7F8093B6
S1135C90E2008091E20080618093E2008091D8006C
S1135CA080628093D80019BC85E0809314090E9417
S1135CB0B4218091E10084FF2FC08091E20084FF31
S1135CC02BC019BC82E089BD09B400FEFDCF8091D0
S1135CD0D8008F7D8093D8008091E1008F7E8093DF
S1135CE0E1008091E2008F7E8093E2008091E200E7
